:020000040000FA
:100000000C94EE010C941F020C941F020C941F021E
:100010000C941F020C941F020C941F020C941F02DC
:100020000C941F020C941F020C941F020C941F02CC
:100030000C941F020C94CA1E0C941F020C941F02F5
:100040000C941F020C9434210C941F020C941F0278
:100050000C941F020C941F020C941F020C94801E1F
:100060000C941F020C94541F0C942A1F0C941F0212
:100070000C941F020C941F020C941F020C941F027C
:100080000C9406210C941F020C941F020C941F0266
:100090000C941F020C941F020C941F020C948A1FD4
:1000A0000C941F020C941F020C94D8200C941F0275
:1000B0000C941F020C941F020C941F020C94AA2093
:1000C0000C941F020C941F020C941F020C941F022C
:1000D0000C941F020C941F020C941F020C941F021C
:1000E0000C941F02084AD73B3BCE016E84BCBFFD77
:1000F000C12F3D6C74319ABD56833DDA3D00C77FF8
:1001000011BED9E4BB4C3E916BAAAABE0000008090
:100110003F07634236B79BD8A71A39685618AEBA5C
:10012000AB558C1D3CB7CC5763BD6DEDFD753EF6F0
:10013000177231BF000000803F08000000BE92240B
:1001400049123EABAAAA2ABECDCCCC4C3E00000040
:1001500080BEABAAAAAA3E00000000BF000000803B
:100160003F0000000000084178D3BB4387D1133D16
:10017000190E3CC3BD4282AD2B3E68EC8276BED9DF
:100180008FE1A93E4C80EFFFBE01C4FF7F3F00001E
:10019000000000000C946A2A0C94A5020C949402AE
:1001A0000C941E040C94CB020C94442F0C94120556
:1001B0000C94C1260C94E2030C94DD260C94B0261A
:1001C0000C940F040C940E070C945E2D0C94AB024F
:1001D0000C94C6020C94BE300C94C7020C94F52605
:1001E0000C943B070C9498020C949B020C94A42F43
:1001F0000C946A070C94642E0C94DB2D0C949002E2
:100200000C948C020C94CF260C9472040C94AA04C7
:100210000C94B9020C9464040C94A1020C942C2745
:100220000C94E12E0C9407070C942B2E0C948A301E
:100230000C94772D0C94BD020C94EB260C94A926FB
:100240000C9422300C94E4060C94B3020C94B32664
:100250000C944A2D0C94AF020C94F4060C94C72D08
:100260000C94C1020C9486020C94572E0C943E2ED2
:100270000C94E42E0C9499210C94E5060243616CD5
:1002800063756C6174696E67206F666673657473FD
:100290002C20646F206E6F74206D6F7665204D503A
:1002A0005536303530004D5055363035302073746A
:1002B000617475733A200000000A0B02090C0D0EE0
:1002C0000807030401000000000000000000000017
:1002D000000000000000000000000000000000001E
:1002E00000000012111000000000000000000000DB
:1002F00000000000000000000000000000000020DE
:10030000002300260029002C002F003200000100ED
:100310000003010601090100002100240027002A32
:10032000002D003000330001010000040107010A24
:100330000100002200250028002B002E003100348F
:100340000002010000050108010B0101021020203C
:100350000808102040102040800201020108040219
:10036000010102040810204080804020100804028F
:1003700001800402018040201008040201080402E8
:1003800001010204081020408001020408102040EE
:100390008005050505070508080808020202020A8B
:1003A0000A08080404040401010101010101010318
:1003B00003030303030303040707070C0C0C0C0CD3
:1003C0000C0C0C0202020206060606060606060BC6
:1003D0000B0B0B0B0B0B0B009921BE3011241FBE16
:1003E000CFEFD1E2DEBFCDBF00E00CBF1DE0A0E04B
:1003F000B2E0ECE0F1E700E00BBF02C007900D9225
:10040000A83AB107D9F721E1A8EABDE001C01D92E1
:10041000A030B207E1F711E0CDEED1E000E006C078
:1004200021970109802FFE010E943236CC3ED10770
:1004300080E00807A9F70E9459220C9474380C94A4
:100440000000CF92DF92EF92FF920F931F93CF9312
:10045000DF938B01EA01BC0190E080E00E94103143
:1004600026ED39E346EA5EEB0E9471316B017C01B7
:10047000B80190E080E00E94103127E038E04AECBB
:100480005FE30E9471319B01AC01C701B6010E947C
:10049000AC326B017C01BE0190E080E00E94103123
:1004A00024E73EE54BE35FEB0E9471319B01AC0119
:1004B000C701B6010E94AC320E940334CB01DF9128
:1004C000CF911F910F91FF90EF90DF90CF90089503
:1004D0008150823108F05AC0E82FF0E08827EC58AC
:1004E000FD4F8F4F0C9432369402980286028C0294
:1004F0009002C6029B02A102A502AB02AF02B302A8
:10050000B902BD02C602C102C702CB0280918000BF
:100510008F77809380000895809180008F7DF9CF40
:1005200080918000877FF5CF84B58F7784BD089553
:1005300084B58F7DFBCF8091B0008F778093B00022
:1005400008958091B0008F7DF9CF809190008F77D2
:10055000809390000895809190008F7DF9CF8091D5
:100560009000877FF5CF8091A0008F778093A000C7
:1005700008958091A0008F7DF9CF8091A000877FA2
:10058000F5CF809120018F7780932001089580918D
:1005900020018F7DF9CF80912001877FF5CF1F93B8
:1005A000CF93DF93282F30E0F901E954FD4F849178
:1005B000F901E55BFC4FD491F901EF56FC4FC49172
:1005C000CC23A9F0162F81110E946802EC2FF0E0D5
:1005D000EE0FFF1FEF5CFC4FA591B4918FB7F8941D
:1005E000EC91111108C0D095DE23DC938FBFDF9111
:1005F000CF911F910895DE2BF8CFCF93DF9390E03A
:10060000FC01E55BFC4F24918F569C4FFC018491CB
:100610008823D1F090E0880F991FFC01E95EFC4F20
:10062000A591B491FC01EF5CFC4FC591D49161118F
:100630000EC09FB7F8948C91E22FE0958E238C9397
:100640002881E223E8839FBFDF91CF9108958FB780
:10065000F894EC91E22BEC938FBFF6CF82309105AA
:1006600038F0880F991F880F991F05970197F1F7A8
:1006700008953FB7F8948091DC0E9091DD0EA09123
:10068000DE0EB091DF0E26B5A89B05C02F3F19F0F6
:100690000196A11DB11D3FBFBA2FA92F982F882702
:1006A000BC01CD01620F711D811D911D42E0660FDD
:1006B000771F881F991F4A95D1F708958F929F92AF
:1006C000AF92BF92CF92DF92EF92FF926B017C01CB
:1006D0000E9439034B015C01C114D104E104F1040F
:1006E000B9F00E943903681979098A099B09683EA3
:1006F00073408105910580F321E0C21AD108E10819
:10070000F10888EE880E83E0981EA11CB11CE4CF8E
:10071000FF90EF90DF90CF90BF90AF909F908F9021
:1007200008952FB7F8946091D80E7091D90E8091EA
:10073000DA0E9091DB0E2FBF08959091000289137D
:100740000DC0ECE7F2E0E4919FEF90930002E230FD
:10075000E1F038F4EE2381F0E13089F060E00C94B0
:10076000CF02E43049F110F1E530C1F79091730008
:100770009D7F90937300F2CF10926E00EFCF909117
:100780006F009D7F90936F00E9CF909170009D7FE7
:100790009093700091E09093B0009091B100987F99
:1007A00094609093B1001092B300D8CF90917100F3
:1007B0009D7F90937100D2CF909172009D7F909316
:1007C0007200CCCFAF92BF92CF92DF92EF92FF92A6
:1007D0000F931F93CF93DF936C017B018B01040F69
:1007E000151FEB015E01AE18BF08C017D10759F005
:1007F0006991D601ED91FC910190F081E02DC60147
:100800001995892B79F7C501DF91CF911F910F9130
:10081000FF90EF90DF90CF90BF90AF900895FC01D4
:10082000538D448D252F30E0842F90E0821B930B55
:10083000541710F0CF96089501970895FC01918DFB
:10084000828D981761F0A28DAE0FBF2FB11D5D96FE
:100850008C91928D9F5F9F73928F90E008958FEFA0
:100860009FEF08950F931F930E94910360935A0F77
:1008700070935B0F80935C0F90935D0F82E59FE018
:100880000E941E0497FF1DC00E94910300915A0F01
:1008900010915B0F20915C0F30915D0F601B710B0D
:1008A000820B930B0091560F1091570F2091580F08
:1008B0003091590F6017710782079307F8F28FEF95
:1008C0009FEF1F910F910895FC01918D828D9817D4
:1008D00031F0828DE80FF11D858D90E008958FEF46
:1008E0009FEF0895FC01918D228D892F90E0805C0F
:1008F0009F4F821B91098F739927089582E59FE08E
:100900000E94720421E0892B09F420E0822F0895CF
:10091000FC01A48DA80FB92FB11DA35ABF4F2C9174
:10092000848D90E001968F739927848FA689B7896B
:100930002C93A089B1898C91837080648C93938D62
:10094000848D981306C00288F389E02D80818F7D05
:1009500080830895EF92FF920F931F93CF93DF93BD
:10096000EC0181E0888F9B8D8C8D98131AC0E889EB
:10097000F989808185FF15C09FB7F894EE89FF89BA
:100980006083E889F98980818370806480839FBF58
:1009900081E090E0DF91CF911F910F91FF90EF9058
:1009A0000895F62E0B8D10E00F5F1F4F0F73112768
:1009B000E02E8C8D8E110CC00FB607FCFACFE889A3
:1009C000F989808185FFF5CFCE010E948804F1CF9F
:1009D000EB8DEC0FFD2FF11DE35AFF4FF0829FB717
:1009E000F8940B8FEA89FB8980818062CFCF0F93C7
:1009F0001F93CF93DF938C01D0E0C0E0F801EC0FA0
:100A0000FD1F6491662341F082E59FE00E94AA04E5
:100A1000892B11F02196F2CFCE01DF91CF911F915A
:100A20000F910895CF93DF93EC01888D8823B9F05F
:100A3000AA89BB89E889F9898C9185FD03C08081E9
:100A400086FD0DC00FB607FCF7CF8C9185FFF2CF66
:100A5000808185FFEDCFCE010E948804E9CFDF9130
:100A6000CF91089580E090E0892B29F00E947E04C8
:100A700081110E94000080E090E0892B49F080E025
:100A800090E0892B29F00E94000081110E94000053
:100A900080E090E0892B49F080E090E0892B29F0FC
:100AA0000E94000081110E94000080E090E0892BEC
:100AB00049F080E090E0892B29F00E94000081112C
:100AC0000C94000008951F93CF93DF93C1E0C0936F
:100AD000600E882399F1D091B8001091BA008091EE
:100AE000BC008A7B8093BC0060E084E10E94CF025E
:100AF00060E085E10E94CF021092280FC093270F7B
:100B00001092020F61E084E10E94CF0261E085E172
:100B10000E94CF028091B9008E7F8093B9008091AE
:100B2000B9008D7F8093B90088E48093B80085E494
:100B30008093BC001093BA00D093B800DF91CF919E
:100B40001F9108958F929F92AF92BF92CF92DF92A2
:100B5000EF92FF920F931F93CF93DF93D091510F9A
:100B6000D13208F0D7C0182FC091500F0E9439031E
:100B70006B017C018091280F81116BC082E0809312
:100B8000280F1093270F8FEF8093260F1092250FB9
:100B9000D093240FA0E3BFE0E4E0FFE080E0D813AF
:100BA00091C01092030F8091030FCC0FC82BC093FC
:100BB000030F8091020F813009F088C01092020F5C
:100BC0000E9439036B017C018091030F8093BB006D
:100BD00080912A0F90912B0FA0912C0FB0912D0F87
:100BE000892B8A2B8B2BA1F00E94390300912A0FAD
:100BF00010912B0F20912C0F30912D0F6C197D0926
:100C00008E099F09061717072807390708F442C0FD
:100C10008091BC0083FDD8CF85EC8093BC000E94FE
:100C200039036B017C018091280F823009F450C098
:100C30008091260F8F3F09F46FC08091260F80327C
:100C400009F46CC08091260F803309F469C084E0F8
:100C500026C080912A0F90912B0FA0912C0FB0915C
:100C60002D0F892B8A2B8B2B09F484CF0E943903FB
:100C700080902A0F90902B0FA0902C0FB0902D0FEA
:100C80006C197D098E099F0986169706A806B90674
:100C900008F070CF8091290F0E94630585E01092C3
:100CA0002F0F1092510F10922E0FDF91CF911F91A5
:100CB0000F91FF90EF90DF90CF90BF90AF909F90FB
:100CC0008F9008959D9191938F5F69CF85EEA5CF09
:100CD00080912A0F90912B0FA0912C0FB0912D0F86
:100CE000892B8A2B8B2B09F49ECF0E94390300910C
:100CF0002A0F10912B0F20912C0F30912D0F6C1972
:100D00007D098E099F09061717072807390708F07C
:100D10008ACFC0CF81E0C3CF80E0C1CF82E0BFCF18
:100D200083E0BDCF1F93CF93DF93162FCBEFDFE090
:100D3000A981BA819B8121E020932E0F9093500FBF
:100D400010922F0F1092510FED91FC91119701907D
:100D5000F081E02D682FCD01199589819A81DC0100
:100D6000ED91FC910190F081E02D612F199581E0CA
:100D7000DF91CF911F910C94A2052091810E260F37
:100D80003327331F21323105ECF42091280FFC0169
:100D900090E080E0243069F082E00895A091810E17
:100DA0002191AC014F59514FA40FB52FB11D2C9378
:100DB0000196861798F38091810E680F6093810EDB
:100DC00080E0089581E008950895E091E10E80911A
:100DD000E00EE81730F4F0E0EE51F14F808190E042
:100DE00008958FEF9FEF08959091E10E8091E00EAE
:100DF0002FEF3FEF981748F4E92FF0E0EE51F14F55
:100E0000208130E09F5F9093E10EC90108958091A9
:100E1000E00E9091E10E891B990B0895CF92DF921D
:100E2000EF92FF920F931F93CF93DF937C01CB013F
:100E30008A0120912E0F222389F0EB016B01C40E51
:100E4000D51ECC15DD0569F06991D701ED91FC91B6
:100E50000190F081E02DC7011995F3CF642F0E9416
:100E6000BD06C801DF91CF911F910F91FF90EF90C8
:100E7000DF90CF900895CF93DF931F92CDB7DEB769
:100E8000698320912E0F2223F9F02091510F2032F7
:100E900058F021E030E0FC013383228390E080E0D1
:100EA0000F90DF91CF91089580912F0FE82FF0E000
:100EB000E05DF04F998190838F5F80932F0F809337
:100EC000510F81E090E0ECCF61E0CE0101960E94ED
:100ED000BD06F7CF90E080E00895CF92DF92EF92C9
:100EE000FF920F931F93CF93DF93EC01EE81FF816D
:100EF00090818B81809589238083EA85FB85808121
:100F00009B81892B8083EC81FD8190818A818095F2
:100F100089238083E885F98580819A81892B808364
:100F200089899A89009711F00E942E03EA85FB8532
:100F300090818B818095892380838B89882331F0F0
:100F4000EE81FF8180819B81892B80838C8988231E
:100F5000C9F00E9491036B017C01EE85FF858081C1
:100F60009B81892379F40E9491036C197D098E0974
:100F70009F090D891E892F89388D60177107820797
:100F8000930758F389899A89009711F00E942E03DC
:100F9000E885F98590818A818095892380838B8972
:100FA000882331F0EC81FD8180819A81892B8083B7
:100FB00089899A89009751F0DF91CF911F910F9104
:100FC000FF90EF90DF90CF900C942E03DF91CF91A4
:100FD0001F910F91FF90EF90DF90CF900895CF93E6
:100FE000DF93EC01E885F98590818A8180958923DA
:100FF00080838B89882331F0EC81FD8180819A8107
:10100000892B8083EA85FB8590818B81809589235C
:1010100080838B89882331F0EE81FF8180819B81E1
:10102000892B808389899A89009711F00E942E0369
:10103000EC85FD8590818A819823EE85FF8520814E
:101040003B81232311F480E028C09923E1F3EC8154
:10105000FD819081809589238083E885F985808151
:101060009A81892B808389899A89009711F00E943F
:101070002E03EE81FF8190818B818095892380836F
:10108000EA85FB8580819B81892B808389899A8968
:10109000009711F00E942E0381E0DF91CF91089517
:1010A000CF92DF92EF92FF920F931F93CF93DF9334
:1010B000EC01E885F98590818A8180958923808378
:1010C0008B89882331F0EC81FD8180819A81892B85
:1010D0008083EA85FB8590818B818095892380833D
:1010E0008B89882331F0EE81FF8180819B81892B60
:1010F00080838C898823C9F00E9491036B017C0155
:10110000EE85FF8580819B81892379F40E9491037C
:101110006C197D098E099F090D891E892F89388DCB
:10112000601771078207930758F389899A89009796
:1011300011F00E942E03EC85FD8580819A81892320
:1011400011E009F410E0EE81FF8190818B818095A0
:1011500089238083EA85FB8580819B81892B80831D
:1011600089899A89009711F00E942E03812FDF91BF
:10117000CF911F910F91FF90EF90DF90CF90089546
:10118000CF92DF92EF92FF920F931F93CF93DF9353
:10119000EC018A81809561115EC0EC81FD819081B6
:1011A00089238083E885F98580819A81892B8083D2
:1011B00089899A89009711F00E942E03EA85FB85A0
:1011C00090818B818095892380838B89882331F05E
:1011D000EE81FF8180819B81892B80838C8988238C
:1011E000C9F00E9491036B017C01EE85FF8580812F
:1011F0009B81892379F40E9491036C197D098E09E2
:101200009F090D891E892F89388D60177107820704
:10121000930758F389899A89009711F00E942E0349
:10122000EE81FF8190818B81809589238083EA857F
:10123000FB8580819B81892B808389899A8900978E
:10124000B1F0DF91CF911F910F91FF90EF90DF9060
:10125000CF900C942E03E885F985908189238083B3
:101260008B89882309F4A4CFEC81FD819DCFDF9188
:10127000CF911F910F91FF90EF90DF90CF90089545
:101280000F931F93CF93DF938C01D62FC8E06D2F60
:101290006078C8010E94C008DD0FC150C1F7C801C5
:1012A000DF91CF911F910F910C945008CF93DF9352
:1012B000FC012089211106C0EC010E944009811126
:1012C00006C0188A81E090E0DF91CF91089582E016
:1012D000888BF8CF1F93CF93DF93EC01162F188ADA
:1012E0000E94EF07882379F0612F660FCE010E94DC
:1012F0004009811105C0188ADF91CF911F9108958F
:1013000082E0888BF9CF84E0FCCFFC019389138ABB
:10131000A085B1852C918281809582238C938389CD
:10132000882331F0A481B5818C912281822B8C930A
:10133000A285B3852C918381809582238C938389A8
:10134000882331F0A681B7818C912381822B8C93E5
:10135000938B08950F931F93CF93DF93CDB7DEB791
:10136000EB970FB6F894DEBF0FBECDBFDC011C9229
:101370008BEE90E014969C938E93139781E090E00F
:1013800012969C938E93119715966C9315971696BB
:101390004C93169769834A838C8B8D8B82E090E007
:1013A0009B8B8A8B08EE13E020E030E00E8B1F8BC6
:1013B000288F398F70E0FB01EF56FC4F2491655B5D
:1013C0007C4FFB0164916B8330E0220F331FF901E6
:1013D000EF5CFC4F859194919E838D83F901E95ECA
:1013E000FC4F859194919A878987F901E350FD4FCD
:1013F000859194919E878D8750E0FA01EF56FC4FBE
:101400002491455B5C4FFA0144914C8330E0220FFC
:10141000331FF901EF5CFC4F8591949198878F837E
:10142000F901E95EFC4F859194919C878B87F901C6
:10143000E350FD4F85919491988B8F878BE3FE014C
:101440003196179601900D928A95E1F7CE0101969B
:101450000E948509EB960FB6F894DEBF0FBECDBF94
:10146000DF91CF911F910F910895CF92DF92EF926C
:10147000FF92CF93DF93EC01603282E07807CCF5E6
:10148000653B710514F064EB70E0898128E830E079
:10149000281B310987FD3395220F331F220F331F7D
:1014A0006901330FEE08FF088A8128E532E0281B26
:1014B000310987FD3395220F331F220F331F032E6F
:1014C000000C440B550B2C193D094E095F09DB013B
:1014D00077FF02C0B0E0A0E00E94723224EB30E05F
:1014E00040E050E00E944832C20ED31EE41EF51EBA
:1014F000B601E881E03370F5298188E890E0821B2D
:10150000910927FD9395880F991F880F991F6817D8
:1015100079077CF02A8188E592E0821B910927FDFA
:101520009395880F991F880F991F681779070CF4F6
:10153000CB010297880F991F4FB7F8942E2F30E0F8
:10154000F901EE0FFF1FE20FF31FE053F24F9283FA
:1015500081834FBFDF91CF91FF90EF90DF90CF90CD
:1015600008951F93CF93DF93EC01162F888180336A
:1015700008F04EC061E0812F0E94FD028881282F73
:1015800030E0F901EE0FFF1FE20FF31FE053F24FBF
:101590001F736081607C612B608319821A822CE04A
:1015A000622F0E941236829FB001112430E020E0A9
:1015B000AB01420F531FFA01EE0FFF1FE40FF51F9F
:1015C000E053F24F908196FD16C02F5F3F4F2C30B5
:1015D000310571F7813009F51092800082E0809327
:1015E00081001092850010928400B19A80916F0062
:1015F000826080936F00E8818E2F90E0FC01EE0FF7
:10160000FF1FE80FF91FE053F24F80818064808351
:101610008881DF91CF911F910895823061F41092FB
:10162000900080939100109295001092940088BBD6
:1016300080937100E0CF833069F41092A00082E0C3
:101640008093A1001092A5001092A40089BB809302
:101650007200D1CF8111CFCF1092200182E0809310
:10166000210110922501109224018ABB80937300FE
:10167000C2CFFC019091CF0D903398F481E0890F97
:101680008093CF0D9083892F90E0FC01EE0FFF1F18
:10169000E80FF91FE053F24F88EB9BE092838183C0
:1016A00008958FEF80830895AF92BF92CF92DF921B
:1016B000EF92FF920F931F93CF93DF936B017A0109
:1016C000EC01C553D24F28813CE0389F8001399FFF
:1016D000100D1124A090CF0DB12C27FF1FC0FB01CE
:1016E0001182108288818F5F888388819801280FFA
:1016F000311D87FD3A95F6012A153B051CF48881BA
:101700008C30C4F180819181049680349C4908F426
:1017100073C0F60180819181049670C08881980120
:10172000280F311D87FD3A952A153B05DCF6888187
:10173000A801480F511D87FD5A95FA01EE0FFF1FB2
:10174000E40FF51FE053F24F808186FFCBCF8881F5
:10175000F801E80FF11D87FDFA95CF01EE0FFF1F8D
:10176000E80FF91FE053F24F808160E08F730E9411
:10177000CF02B8CF808191812881A801420F511DED
:1017800027FD5A959A01FA01EE0FFF1FE20FF31F92
:10179000E053F24F21813281820F931FF701918331
:1017A000808388819801280F311D87FD3A95F901C2
:1017B000EE0FFF1FE20FF31FE053F24F808186FF11
:1017C00022C08881080F111D87FD1A95F801EE0FC0
:1017D000FF1FE00FF11FE053F24F808161E08F7334
:1017E000DF91CF911F910F91FF90EF90DF90CF90FD
:1017F000BF90AF900C94CF0280E49CE9F7019183F5
:1018000080838FEF8883DF91CF911F910F91FF909D
:10181000EF90DF90CF90BF90AF900895EF92FF923E
:101820000F931F93CF93DF93C3E1D2E001EC1DE050
:10183000299139913327F901E954FD4F8491F90138
:10184000E55BFC4FE490F901EF56FC4FF490FF206C
:1018500021F181110E946802EF2DF0E0EE0FFF1FD1
:10186000E350FD4FA591B491EC91EE2231E020E0E0
:1018700009F430E0832F922FF801819391938F0127
:10188000F2E0CD31DF07A1F681EC9DE0DF91CF9151
:101890001F910F91FF90EF90089590E080E0ECCFC2
:1018A0002F923F924F925F926F927F928F929F9270
:1018B000AF92BF92CF92DF92EF92FF920F931F935E
:1018C000CF93DF9300D000D01F92CDB7DEB77D83DA
:1018D0006C83312C212C88248A94982C54016C011F
:1018E000990FEE08FF0801EB13E02A01550F660877
:1018F000770880910002803239F5ECE7F2E0F4914C
:10190000FE83F7FD70C061E080E20E94FD02FE816F
:10191000F11139C0C982DA82EB82FF8268E478EE85
:1019200081E090E029813A814B815F810E944832B9
:10193000BA01A90141505109610971099E81992398
:1019400009F4CEC194E03DC08F3F09F04CC080E265
:1019500080930002ECE7F2E0F491FE838F2FFF3FCB
:1019600009F441C0F23009F4C8C008F069C0FF238F
:1019700009F48DC0F13009F4A2C087FD34C061E0E4
:1019800080E20E94FD028E81823009F016C1C98278
:10199000DA82EB82FF8260E970ED83E090E0A701DC
:1019A00096010E944832BA01A901415051096109CA
:1019B000710993E04F3F51056105710511F00CF07D
:1019C000ADCF8091B100887F892B8093B100EE81EB
:1019D000E23009F475C10CF06BC1EE2309F484C147
:1019E000E13009F401C1C301B2010E945E0380E24B
:1019F0000E949D03C301B2010E945E038FEF281A6B
:101A0000380AEC81FD81E215F30509F072CF2796C3
:101A10000FB6F894DEBF0FBECDBFDF91CF911F91FF
:101A20000F91FF90EF90DF90CF90BF90AF909F907D
:101A30008F907F906F905F904F903F902F90089580
:101A40009E81943009F49BC008F479C0953009F068
:101A500094CF109220011092210180912101886081
:101A60008093210180912101816080932101F801FF
:101A70008491E82FF0E0EE0FFF1FEF5CFC4F8591A3
:101A80009491EBE6F3E084918093A80D3CCF14BCD5
:101A900015BC84B5826084BD85B5816085BDF801C3
:101AA0008491E82FF0E0EE0FFF1FEF5CFC4F859173
:101AB0009491EBE6F3E084918093AC0D24CF1092E7
:101AC0008000109281008091810088608093810065
:101AD00080918100816080938100F8018491E82FDA
:101AE000F0E0EE0FFF1FEF5CFC4F85919491EBE669
:101AF000F3E084918093AB0D06CF1092B00010926A
:101B0000B1008091B00082608093B0008091B100FC
:101B100081608093B100F8018491E82FF0E0EE0F2E
:101B2000FF1FEF5CFC4F859194919093A50E8093DD
:101B3000A40EEBE6F3E084918093A60EE4CE10921F
:101B400090001092910080919100886080939100A4
:101B500080919100816080939100F8018491E82F39
:101B6000F0E0EE0FFF1FEF5CFC4F85919491EBE6E8
:101B7000F3E084918093AA0DF3E0FE83C4CE10922B
:101B8000A0001092A1008091A10088608093A10024
:101B90008091A10081608093A100F8018491E82FD9
:101BA000F0E0EE0FFF1FEF5CFC4F85919491EBE6A8
:101BB000F3E084918093A90DA6CE60E072E18AE7FC
:101BC00090E0A70196010E944832BA01A901415054
:101BD000510961097109EE81E130C1F48091810000
:101BE000887F8160809381005093890040938800B2
:101BF0008092B90D9092BA0DA092BB0DB092BC0D1F
:101C000080916F00826080936F00EDCEFE81F33093
:101C1000C1F480919100887F8160809391005093FE
:101C20009900409398008092B50D9092B60DA092C5
:101C3000B70DB092B80D80917100826080937100F1
:101C4000D2CE8E818430C1F48091A100887F8160E2
:101C50008093A1005093A9004093A8008092B10DF9
:101C60009092B20DA092B30DB092B40D809172001B
:101C7000826080937200B7CE9E81953009F0A7CE26
:101C800080912101887F81608093210150932901F7
:101C9000409328018092AD0D9092AE0DA092AF0DB1
:101CA000B092B00D809173008260809373009BCEE0
:101CB000FE81F43079F20CF4B2CFF53039F393CEE3
:101CC0004093B3008092A70E9092A80EA092A90E06
:101CD000B092AA0E8091700082608093700083CED3
:101CE00085B5887F836085BD47BD8092BD0D90928C
:101CF000BE0DA092BF0DB092C00D80916E008260AB
:101D000080936E0070CE7F928F929F92AF92BF921F
:101D1000CF92DF92EF92FF920F931F93CF93DF93B7
:101D2000EC01062F142F188A19AE1AAE0E94EF0785
:101D3000882309F457C0602F660F6160CE010E94AE
:101D4000400981114BC0188A7E01A12EB12CD12CE3
:101D5000C12C450181E0881A9108CA14DB0459F1AD
:101D600000E088E0782EC814D904DCF4000FCE011E
:101D70000E945008082B7A947110F8CF60E0CE01D1
:101D80000E94C00889899A89009711F00E942E0349
:101D9000F701018FFFEFCF1ADF0A8FEFE81AF80A79
:101DA000DCCF000FCE010E945008082B7A947110EE
:101DB000F8CF61E0E4CF19AFCE010E946D07812F0B
:101DC000DF91CF911F910F91FF90EF90DF90CF9017
:101DD000BF90AF909F908F907F90089582E0888B06
:101DE00010E0EACF84E0FBCF4F925F926F927F9238
:101DF0008F929F92AF92BF92CF92DF92EF92FF921B
:101E00000F931F93CF93DF93CDB7DEB72E970FB607
:101E1000F894DEBF0FBECDBF8091FC0F9091FD0FF7
:101E20002091FE0F31E030932E0F2093500F10922F
:101E30002F0F1092510FDC01ED91FC910190F08178
:101E4000E02D6BE3199580E00E94A2051091FE0F32
:101E50000E9439034B015C018091280F811166C0FB
:101E600081E08093280F8093270F9FEF9093260F98
:101E70001092250F9DE09093240F8093030F809183
:101E8000030F110F182B1093030F8091020F813055
:101E900009F0A9C11092020F0E9439034B015C01A5
:101EA0008091030F8093BB0080912A0F90912B0F9C
:101EB000A0912C0FB0912D0F892B8A2B8B2BA1F089
:101EC0000E94390300912A0F10912B0F20912C0FA3
:101ED00030912D0F681979098A099B090617170790
:101EE0002807390708F443C08091BC0083FDD8CF90
:101EF00085EC8093BC000E9439034B015C0180910A
:101F0000280F813009F471C18091250F8E3008F0BF
:101F10008EC18091250FA4E0BFE0E2EEFEE090E0EC
:101F2000981751F12D9121939F5FFACF80912A0F3D
:101F300090912B0FA0912C0FB0912D0F892B8A2BF4
:101F40008B2B09F489CF0E94390340902A0F5090BF
:101F50002B0F60902C0F70902D0F681979098A094A
:101F60009B09461657066806790608F075CF8091DA
:101F7000290F0E94630580E01092E10E8093E00E2D
:101F80008E010F5F1F4F6E01BFE0CB0ED11C809101
:101F9000FC0F9091FD0FDC01ED91FC910284F38523
:101FA000E02D1995B82E8091FC0F9091FD0FDC016A
:101FB000ED91FC910284F385E02D1995E12C8E2999
:101FC0009B29F801819391938F01CE16DF06F9F6D4
:101FD000C0900310D0900410E0900510F09006100F
:101FE00069817A81072E000C880B990B0E941231AF
:101FF000A70196010E948A3320911310309114108A
:1020000040911510509116100E94AB32609323102E
:102010007093241080932510909326106B817C81FF
:10202000072E000C880B990B0E941231A701960114
:102030000E948A3320911710309118104091191086
:1020400050911A100E94AB326093271070932810A1
:102050008093291090932A108091FB0F61E06827EC
:10206000681B770B072E000C880B990B0E9412310E
:102070004B015C016D817E81072E000C880B990B52
:102080000E9412319B01AC01C501B4010E94713163
:10209000A70196010E948A3320911B1030911C10D9
:1020A00040911D1050911E100E94AB3260932B1076
:1020B00070932C1080932D1090932E106F81788543
:1020C000072E000C880B990B0E94123120E030EF94
:1020D00041E456E40E94AC3220E030E04AEA53E4A6
:1020E0000E948A3360931F107093201080932110F8
:1020F00090932210C090FF0FD0900010E09001103C
:10210000F090021069857A85072E000C880B990BD8
:102110000E941231A70196010E948A332091071074
:10212000309108104091091050910A100E94AB3272
:1021300060932F1070933010809331109093321071
:102140006B857C85072E000C880B990B0E94123141
:10215000A70196010E948A3320910B1030910C1038
:1021600040910D1050910E100E94AB3260933310CD
:102170007093341080933510909336106D857E8562
:10218000072E000C880B990B0E941231A7019601B3
:102190000E948A3320910F1030911010409111103D
:1021A000509112100E94AB32609337107093381028
:1021B0008093391090933A102E960FB6F894DEBFA4
:1021C0000FBECDBFDF91CF911F910F91FF90EF9088
:1021D000DF90CF90BF90AF909F908F907F906F9047
:1021E0005F904F90089585EE84CE80912A0F909154
:1021F0002B0FA0912C0FB0912D0F892B8A2B8B2B9D
:1022000009F47DCE0E94390300912A0F10912B0F03
:1022100020912C0F30912D0F681979098A099B099B
:10222000061717072807390708F069CEA0CE8EE0F9
:1022300072CEFF920F931F93CF93DF93EC01F62E94
:102240008C01095F1F4F69E2C8010E946A096F2D66
:102250006068C8010E945609C8010E946D0742E0EB
:1022600069E2C8010E94830EFE01E05CFF4F80819D
:10227000319690812FEF3FEF981740F4DE01A90FC0
:10228000B11D90962C9130E09F5F908390814FEF2D
:102290005FEF981728F4C90FD11D48A19F5F908365
:1022A00080E0942F822B932BDF91CF911F910F9180
:1022B000FF9008950F931F93CF93DF93162F022F54
:1022C000EC01279669E2CE010E946A09612F6068DD
:1022D000CE010E945609602FCE010E945609CE0100
:1022E000DF91CF911F910F910C946D07FC0101902C
:1022F0000020E9F73197AF01481B590BBC0182E57B
:102300009FE00C94E20381E492E00C9476118F92AA
:102310009F92AF92BF920F931F93CF93DF93CDB74E
:10232000DEB7A1970FB6F894DEBF0FBECDBF19A2DE
:10233000423008F44AE08E010F5D1F4F842E912C2D
:10234000B12CA12CA50194010E947A32E62FB9018B
:10235000CA01EA30F4F4E05DD801EE938D01232B3D
:10236000242B252B79F790E080E0109719F0CD0110
:102370000E947611A1960FB6F894DEBF0FBECDBFB6
:10238000DF91CF911F910F91BF90AF909F908F9051
:102390000895E95CE1CFBC0190E080E04AE00C9454
:1023A0008711CF93DF930E94CB11EC010E94831120
:1023B0008C0F9D1FDF91CF910895CF92DF92EF9206
:1023C000FF92CF93DF936C01990FEE08FF08F7FEA1
:1023D00019C06DE282E59FE00E94AA04EC01662725
:1023E0007727CB016C197D098E099F094AE00E946D
:1023F00087118C0F9D1FDF91CF91FF90EF90DF90A1
:10240000CF9008954AE0C701B601DF91CF91FF90C8
:10241000EF90DF90CF900C948711CF93DF930E94C1
:10242000DD11EC010E9483118C0F9D1FDF91CF9174
:102430000895BF92CF92DF92EF92FF920F931F9376
:10244000CF93DF93EC016C0187E0C80ED11C7E01B5
:10245000E0E4EE0EF11CF70110828E010F5B1F4FBE
:10246000F8011082E989FA8990818A85809589230B
:1024700080838A8D882331F0ED85FE8580819A8561
:10248000892B8083888D998D009711F00E942E03EF
:10249000EF85F889908189858095892380838A8D4D
:1024A000882331F0EB85FC8580819985892B808399
:1024B00084E0B82E888D998D009711F00E942E032C
:1024C000BA94B110F7CF8A8D882331F062E070E0C2
:1024D00080E090E00E945E0369E2C6010E946A0902
:1024E00062E9C6010E945609C6010E946D0741E0DB
:1024F00069E2C6010E94830EF8012081F701808104
:10250000281708F053C0FE01E20FF11D80A12F5FD4
:10251000F8012083182F682F70E090E080E040E100
:102520000E9487110E94831180E01434A9F581E094
:1025300088830B811C81980150E040E061E0CE016E
:102540000E945A111C830B8309811A818881811191
:1025500003C0CE010E941912980150E040E06FE0E4
:10256000CE010E945A111A83098321E030E040E035
:1025700050E060E0CE010E945A1163E070E080E01C
:1025800090E00E945E0323E030E040E050E060E035
:10259000CE010E945A1181E0DF91CF911F910F91DE
:1025A000FF90EF90DF90CF90BF9008958FEF9FEF57
:1025B000B1CFAF92BF92CF92DF92EF92FF920F9383
:1025C0001F93CF93DF93EC015B016A01790188814E
:1025D000811103C0CE010E94191264E1CE010E9454
:1025E0001911F8019183808366E1CE010E941911CF
:1025F000F5019183808368E1CE010E941911F601F3
:10260000918380836AE1CE010E941911F7019183C1
:1026100080838B819C81853D9105A1F180F4009799
:10262000D9F1803C910599F1DF91CF911F910F91E4
:10263000FF90EF90DF90CF90BF90AF900895863FCE
:102640009105D9F08F3F910541F08B3E910561F7DF
:1026500062E370E080E090E004C063E070E080E05E
:1026600090E0DF91CF911F910F91FF90EF90DF905D
:10267000CF90BF90AF900C945E0368E170E080E073
:1026800090E0EFCF65E670E080E090E0EACF6AE9A5
:1026900070E080E090E0E5CF6CEB72E080E090E0ED
:1026A000E0CFCF93DF930E947611EC010E9483115B
:1026B0008C0F9D1FDF91CF91089584E492E00E94DA
:1026C000511381E692E00E94511389E792E00E9443
:1026D000511381E992E00E94511389EA92E00E942D
:1026E00051138FEB92E00E94511385ED92E00E940E
:1026F000511383EF92E00E94511380E193E00E9416
:10270000511386E293E00E94511387E493E00C9406
:10271000511360EA70E083E690E10E94350A64E1BB
:1027200070E080E690E10E94350A84E693E00C9424
:1027300051130C9476110F931F9307EB1EE029EBB6
:102740003EE04BEB5EE06DEB7EE088EA90E10E94BC
:10275000D9124091B90E5091BA0E6091BB0E709192
:10276000BC0E8091BD0E9091BE0E0E9421029093EE
:10277000B60E8093B50E0DEA1EE02FEA3EE041EB67
:102780005EE063EB7EE086E690E10E94D912409124
:10279000AF0E5091B00E6091B10E7091B20E80915B
:1027A000B30E9091B40E0E9421029093AC0E8093D0
:1027B000AB0E87E793E00E9451138BE893E00E94F1
:1027C00099138091B50E9091B60E0E94CB1181E9BC
:1027D00093E00E94991384ED99E00E9499138091EF
:1027E000BD0E9091BE0E0E94CB1183E993E00E9432
:1027F00099138BED99E00E9499138091BB0E9091F3
:10280000BC0E0E94CB1183E993E00E94991382EEE3
:1028100099E00E9499138091B90E9091BA0E0E948E
:10282000CB1183E993E00E94991389EE99E00E940D
:1028300099138091B70E9091B80E0E94CB1183E945
:1028400093E00E94991383E993E00E94511385E974
:1028500093E00E9451138BE893E00E9499138091BA
:10286000AB0E9091AC0E0E94CB1181E993E00E94D7
:10287000991384ED99E00E9499138091B30E909181
:10288000B40E0E94CB1183E993E00E9499138BED63
:1028900099E00E9499138091B10E9091B20E0E941E
:1028A000CB1183E993E00E94991382EE99E00E9494
:1028B00099138091AF0E9091B00E0E94CB1183E9D5
:1028C00093E00E94991389EE99E00E9499138091F8
:1028D000AD0E9091AE0E0E94CB1183E993E00E9461
:1028E000991383E993E00E9451138AEA93E00E94CE
:1028F000511384EC93E00E9499138091B10E909152
:10290000B20E2091B30E3091B40E821B930B0E9435
:10291000D1118DEC93E00E9499138091B10E9091AA
:10292000B20E2091AF0E3091B00E821B930B0E941D
:10293000D11186ED93E00E94511384EC93E00E9444
:1029400099138091BB0E9091BC0E2091BD0E3091D9
:10295000BE0E821B930B0E94D1118DEC93E00E945E
:1029600099138091BB0E9091BC0E2091B90E3091BD
:10297000BA0E821B930B0E94D11164EF71E080E0CC
:1029800090E00E945E031F910F9108954F925F9215
:102990006F927F928F929F92AF92BF92CF92DF926F
:1029A000EF92FF920F931F93CF936B017C01742ED4
:1029B000AC019B010E940035882399F08FEE93E0D3
:1029C000CF911F910F91FF90EF90DF90CF90BF902C
:1029D000AF909F908F907F906F905F904F900C94EE
:1029E000761146015701E894B7F82FEF3FEF4FE714
:1029F0005FE7C501B4010E94003581110DC02FEFC2
:102A00003FEF4FE75FE7C501B4010E940B31181695
:102A10001CF483EF93E0D4CF2FEF3FEF4FE75FE459
:102A2000C701B6010E94593418161CF487EF93E0D1
:102A3000C7CF2FEF3FEF4FE75FECC701B6010E9412
:102A40000B3187FDF3CF20E030E0A901C701B601CB
:102A50000E940B3110E000E087FF0AC06DE282E5C2
:102A60009FE00E94AA048C01F7FAF094F7F8F09422
:102A7000C0E060E070E080E09FE37C1641F020E081
:102A800030E040E251E40E948A33CF5FF6CFA701E5
:102A900096010E94AC322B013C010E9403344B0191
:102AA0005C014AE00E9487117C01E00EF11ECC23FC
:102AB000A9F1C501B4010E9410319B01AC01C30111
:102AC000B2010E94AB324B015C016EE282E59FE0F5
:102AD0000E94AA04E80EF91EC15000F120E030E087
:102AE00040E251E4C501B4010E9471312B013C0167
:102AF0000E9403344B01CB010E94CB11E80EF91E5A
:102B0000B40190E080E00E9410319B01AC01C30150
:102B1000B2010E94AB324B015C01DECFC701CF9105
:102B20001F910F91FF90EF90DF90CF90BF90AF90EB
:102B30009F908F907F906F905F904F9008954F92ED
:102B40005F926F927F928F929F92AF92BF92CF923D
:102B5000DF92EF92FF920F931F93CF93DF93CDB746
:102B6000DEB72C970FB6F894DEBF0FBECDBF0E9424
:102B7000F40EC0902B10D0902C10E0902D10F090FF
:102B80002E1021E030E03A83298320E030E0A901D3
:102B9000C701B6010E94593487FF02C01A82198208
:102BA00001E010E020E030E0A901C701B6010E9479
:102BB0000B3187FD02C010E000E069817A81601B63
:102BC000710B072E000C880B990B0E9412316D833C
:102BD0007E838F839887A7019601C701B6010E9463
:102BE00071312B013C01C0902310D0902410E09053
:102BF0002510F0902610A7019601C701B6010E948A
:102C00007131A30192010E94AC320E94BC349B013D
:102C1000AC018090271090902810A0902910B090BF
:102C20002A106D817E818F8198850E9471319B0170
:102C3000AC01C501B4010E942B3321EE3EE245E612
:102C400052E40E94713160933B1070933C1080936A
:102C50003D1090933E10A5019401C501B4010E945E
:102C60007131A30192010E94AC320E94BC349B01DD
:102C7000AC01C701B6010E942B33905821EE3EE211
:102C800045E652E40E94713160933F10709340100A
:102C900080934110909342100E9491036B017C013C
:102CA00080914F1090915010A0915110B0915210FE
:102CB000A7019601281B390B4A0B5B0BCA01B9010E
:102CC0000E9410312FE632E143E85AE30E9471314D
:102CD0004B015C01C0924F10D0925010E092511005
:102CE000F09252108091531090915410A091551071
:102CF000B091561089839A83AB83BC8340903B107C
:102D000050903C1060903D1070903E1020912F101C
:102D1000309130104091311050913210C501B40102
:102D20000E94713120914310309144104091451020
:102D3000509146100E94AC32A30192010E94AB3226
:102D40006B017C0120E030E044E353E40E945934FD
:102D500018163CF420E030E044EB53E4C701B60120
:102D6000EDCF20E030E044E353ECC701B6010E9410
:102D70000B3187FF0BC020E030E044EB53E4C70188
:102D8000B6010E94AC326B017C01EBCF29813A8104
:102D90004B815C8160E070E080E89FE30E94AB3291
:102DA00069877A878B879C87A7019601C301B20147
:102DB0000E94AC3229813A814B815C810E94713141
:102DC0006B017C0129853A854B855C85C301B20185
:102DD0000E9471319B01AC01C701B6010E94AC3267
:102DE0006B017C0120E030E044E353E40E9459345D
:102DF00018164CF420E030E044EB53E4C701B60170
:102E00000E94AB32EDCF20E030E044E353ECC70149
:102E1000B6010E940B3187FF0BC020E030E044EB8D
:102E200053E4C701B6010E94AC326B017C01EBCFC9
:102E3000C0924310D0924410E0924510F092461098
:102E400040903F10509040106090411070904210A0
:102E5000209133103091341040913510509136103C
:102E60006D817E818F8198850E947131A5019401C9
:102E70000E947131209147103091481040914910C3
:102E800050914A100E94AC32A30192010E94AB32D1
:102E90006B017C0120E030E044EB52E40E945934A5
:102EA00018163CF420E030E044E353E4C701B601D7
:102EB000EDCF20E030E044EB52ECC701B6010E94B8
:102EC0000B3187FF0BC020E030E044E353E4C7013F
:102ED000B6010E94AC326B017C01EBCFA7019601D9
:102EE000C301B2010E94AC3229813A814B815C81DD
:102EF0000E9471316B017C01A301920169857A8581
:102F00008B859C850E9471319B01AC01C701B60184
:102F10000E94AC326B017C0120E030E044EB52E4D3
:102F20000E94593418164CF420E030E044E353E496
:102F3000C701B6010E94AB32EDCF20E030E044EB98
:102F400052ECC701B6010E940B3187FF0BC020E095
:102F500030E044E353E4C701B6010E94AC326B0198
:102F60007C01EBCFC0924710D0924810E0924910FC
:102F7000F0924A102091371030913810409139105A
:102F800050913A10C501B4010E94713120914B104B
:102F900030914C1040914D1050914E100E94AC3227
:102FA00060934B1070934C1080934D1090934E1083
:102FB0002C960FB6F894DEBF0FBECDBFDF91CF9138
:102FC0001F910F91FF90EF90DF90CF90BF90AF9047
:102FD0009F908F907F906F905F904F9008950E9488
:102FE0009F1560914B1070914C1080914D109091F5
:102FF0004E100E94FC33CB010895EF92FF920F9385
:103000001F93CF93DF938BEF93E00E94511368E7F8
:1030100070E083E690E10E94350A6CE370E080E6A0
:1030200090E10E94350A0E949F1566E970E080E0F9
:1030300090E00E945E036AE570E083E690E10E9402
:10304000350A6AE570E080E690E10E94350A07EBF8
:103050001EE029EB3EE04BEB5EE06DEB7EE088EAA4
:1030600090E10E94D9124091B90E5091BA0E609130
:10307000BB0E7091BC0E8091BD0E9091BE0E0E9451
:1030800021029093B60E8093B50E0DEA1EE02FEA52
:103090003EE041EB5EE063EB7EE086E690E10E947D
:1030A000D912E090AF0EF090B00EC091B10ED09159
:1030B000B20E0091B30E1091B40EA701BE01C8016B
:1030C0000E942102FC019093AC0E8093AB0E4091C4
:1030D000B70E5091B80E6091AD0E7091AE0E493E94
:1030E00083E058072CF0693E83E078070CF033C189
:1030F0002091BB0E3091BC0E8091BD0E9091BE0E02
:103100008217930788F5A091B90EB091BA0EA21755
:10311000B30750F5281B390B8091010290910202F0
:103120008217930708F580910502909106024817CF
:103130005907D4F0809103029091040284179507F7
:103140009CF08091B50E9091B60E209109023091BD
:103150000A028217930744F021E0A0910702B09180
:103160000802A817B9070CF420E00C171D0748F552
:10317000EC16FD0630F5C01BD10B80910102909139
:1031800002028C179D07E8F48091050290910602D7
:1031900068177907B4F080910302909104028617B2
:1031A00097077CF08091090290910A02E817F907CD
:1031B00044F091E0A0910702B0910802AE17BF075A
:1031C0000CF490E0461B570B57FF03C051954195F7
:1031D0005109443651050CF053C0222309F4DBC0D9
:1031E000992309F450C086E094E00E9499138AE183
:1031F00094E00E9499138091D00E9091D10E0E947C
:10320000DD1189E89DE00E9499130E94EF170E944A
:103210000D1262E370E083E690E10E94350A62E3FA
:1032200070E080E690E10E94350A44E650E063E0F9
:1032300070E088EE93E00E94500CC091D00ED091C7
:10324000D10ECF5AD1090E94EF178C179D070CF4AD
:103250005EC00E949F158BE294E00E9499130E9429
:10326000EF170E94DD1188E594E00E949913809188
:10327000D00E9091D10E8F5A91090E940D12DDCF80
:10328000222309F488C084E694E00E94511368E781
:1032900070E083E690E10E94350A6CE370E080E61E
:1032A00090E10E94350A60E070E0CB010E945E036D
:1032B0006CE370E083E690E10E94350A6CE370E015
:1032C00080E690E10E94350AC091D00ED091D10ED7
:1032D000CA55D1090E94EF17C817D9070CF042C090
:1032E0000E949F1586E794E00E9499130E94EF17B1
:1032F0000E94DD1188E594E00E9499138091D00E20
:103300009091D10E8A5591090E940D12DDCF68E788
:1033100070E083E690E10E94350A6CE370E080E69D
:1033200090E10E94350A60ED77E080E090E00E9435
:103330005E038091D00E9091D10E8F5A9109909397
:10334000D10E8093D00E1092CA0E1092CB0E109216
:10335000CC0E1092CD0EDF91CF911F910F91FF9067
:10336000EF90089568E770E083E690E10E94350AE7
:103370006CE370E080E690E10E94350A60ED77E052
:1033800080E090E00E945E038091D00E9091D10E7B
:103390008A559109D4CF9923F1F28CEA94E00E94E6
:1033A000511368E770E083E690E10E94350A6CE310
:1033B00070E080E690E10E94350A60E070E0CB01A9
:1033C0000E945E030E94EF179093D10E8093D00E5F
:1033D00068E770E083E690E10E94350A68E770E0F4
:1033E00080E690E10E94350AC091D00ED091D10EB6
:1033F000C65ADF4F0E94EF178C179D07BCF40E943E
:103400009F158FEB94E00E9499130E94EF170E9482
:10341000DD1188E594E00E9499138091D00E90917F
:10342000D10E865A9F4F0E940D12DECF68E770E0E2
:1034300083E690E10E94350A6CE370E080E690E15B
:103440000E94350A60ED77E080E090E00E945E0324
:103450008091D00E9091D10E865A9F4F70CF0F93CE
:103460001F93CF93DF93EC0188819981009759F0E6
:103470002A813B812617370730F081E0DF91CF9119
:103480001F910F9108958B016F5F7F4F0E947A37D4
:10349000009759F0998388831B830A832C813D818F
:1034A000232B59F7FC011082E8CF80E0E7CFCF92C1
:1034B000DF92EF92FF92CF93DF93CDB7DEB7E29723
:1034C0000FB6F894DEBF0FBECDBFDC01AE014D5C80
:1034D0005F4FFE0131969C91963308F096532091F0
:1034E0007B00892F8870277F822B80937B0020911F
:1034F0000C0280E4289F900111249770922B9093E6
:103500007C0090917A00906490937A0080917A0088
:1035100086FDFCCF80917800909179008193919302
:103520004E175F07C1F628E130E0FE01319650E00A
:1035300040E081E04217530784F4E080F180C280CC
:10354000D380CE14DF042CF4D182C082F382E282D5
:1035500080E04F5F5F4F3296EDCF811103C0215065
:10356000310919F712968D919D910D90BC91A02D66
:10357000883324E09207A105B10591F5A98DBA8D94
:1035800028E833E10E943A362FEF33E040E050E084
:103590000E944832CA01B9010E94123120E030E095
:1035A0004AE754E40E948A332EE03DE24AE95FEBA9
:1035B0000E94663422EF32ED4DED51E40E947131EC
:1035C0000E94FC33CB01E2960FB6F894DEBF0FBE2B
:1035D000CDBFDF91CF91FF90EF90DF90CF90089516
:1035E000863B2EE49207A105B10509F5A98DBA8D98
:1035F00028E833E10E943A362FEF33E040E050E014
:103600000E944832CA01B9010E94123120E030E024
:103610004AE754E40E948A3321EE3AE744E95FEB3B
:103620000E9466342AEF3EE741E752E4C7CF8E3A64
:1036300021E09207A105B10509F5A98DBA8D28E809
:1036400033E10E943A362FEF33E040E050E00E9431
:103650004832CA01B9010E94123120E030E04AE745
:1036600054E40E948A332BE83CE647E85FEB0E9473
:1036700066342EEA37E441E451E4A0CF8439984817
:10368000A140B10509F09ECFA98DBA8D28E833E19C
:103690000E943A362FEF33E040E050E00E9448327B
:1036A000CA01B9010E9412316B017C0120E030E0B7
:1036B0004FEA54E40E940B3187FD27C020E030E43C
:1036C0004EE455E4C701B6010E9459341816ECF0D7
:1036D00020E030EA4CE854E4C701B6010E94AB3266
:1036E00020E030E04AE754E40E948A3320E030E8EA
:1036F00049E053E40E948A339B01AC0160E070E032
:1037000080E89FE30E948A335BCF70E060E05ACF8D
:10371000CF92DF92EF92FF920F931F93CF93DF939D
:1037200007EB1EE029EB3EE04BEB5EE06DEB7EE04D
:1037300088EA90E10E94D9124091B90E5091BA0ED8
:103740006091BB0E7091BC0E8091BD0E9091BE0E2B
:103750000E9421029093B60E8093B50E0DEA1EE0F2
:103760002FEA3EE041EB5EE063EB7EE086E690E12F
:103770000E94D912E090AF0EF090B00E0091B10E01
:103780001091B20EC091B30ED091B40EA701B80142
:10379000CE010E9421029093AC0E8093AB0EE0917B
:1037A000B70EF091B80E4091AD0E5091AE0E6091F3
:1037B000B50E7091B60E2091BD0E3091BE0EA09147
:1037C000BB0EB091BC0EA217B307B8F4C090B90EEF
:1037D000D090BA0EC216D30680F42A1B3B0B2932B6
:1037E000310558F0E059F140EB3FF10530F46456F3
:1037F00071096333710508F4E9C10C171D0708F05E
:1038000029C120E0EC16FD0608F4E7C123C16AE5F2
:1038100070E080E690E10E94350A6AE570E083E698
:1038200090E10E94350A8AEE90E10E94571AEC015D
:1038300080EF90E10E94571A8C179D070CF0C1C0D1
:1038400085EB94E00E94511368E770E083E690E115
:103850000E94350A68E770E080E690E10E94350A30
:10386000C091D00ED091D10EC65ADF4F0E94EF17F3
:103870008C179D07ACF487EC94E00E9499130E948A
:10388000EF170E94DD1188E594E00E949913809162
:10389000D00E9091D10E865A9F4F0E940D12E0CF0C
:1038A0008091D00E9091D10E865A9F4F9093D10E59
:1038B0008093D00E6AE570E080E690E10E94350AC0
:1038C0006AE570E083E690E10E94350A8CE895E0B5
:1038D0000E94511365E570E08AE590E10E94350A87
:1038E00065E570E087E590E10E94350A68EE73E0D7
:1038F00080E090E00E945E0368EE73E080E090E07C
:103900000E945E038BE995E00E9451136AE570E026
:103910008DE590E10E94350A60ED77E080E090E06F
:103920000E945E0368EE73E080E090E00E945E0318
:10393000E0915A108E2F90E0FC01EE0FFF1FE80F70
:10394000F91FE053F24F80818F7B8083E091571005
:103950008E2F90E0FC01EE0FFF1FE80FF91FE053E0
:10396000F24F80818F7B808368E770E080E690E192
:103970000E94350A6CE370E083E690E10E94350A0C
:1039800060ED77E080E090E00E945E030E94EF1718
:103990009093D10E8093D00E6AE570E080E690E1BE
:1039A0000E94350A6AE570E083E690E10E94350ADC
:1039B00044EF51E061E070E088EE93E00E94500C2B
:1039C000EBCFC817D9070CF081CF8DE694E00E94A9
:1039D00051136CE370E083E690E10E94350A6CE3DA
:1039E00070E080E690E10E94350AC091D00ED0913F
:1039F000D10ECA55D1090E94EF17C817D907ACF4E8
:103A00008EE794E00E9499130E94EF170E94DD1147
:103A100088E594E00E9499138091D00E9091D10E88
:103A20008A5591090E940D12E0CF8091D00E90919D
:103A3000D10E8A5591093ACF86EA95E0DF91CF9170
:103A40001F910F91FF90EF90DF90CF900C94511346
:103A50002111D3C08EE195E00E9451132091AD0E4B
:103A60003091AE0E4091B50E5091B60E8091AB0ED6
:103A70009091AC0E6091B70E7091B80E6652724084
:103A80006536710528F44E5651094B35510550F0F5
:103A9000265232402536310578F68E5691098B35FF
:103AA000910550F68FE295E00E94511380E495E075
:103AB0000E9451136AE570E083E690E10E94350AA6
:103AC0006AE570E080E690E10E94350A44E650E045
:103AD00062E070E084EF91E00E94500C8AE090E098
:103AE0000E946221EC018C0197FF02C00F5F1F4F03
:103AF0001595079568E070E08DE590E10E94B10AA8
:103B00006AE070E08AE590E10E94B10A6CE070E042
:103B100087E590E10E94B10A82E595E00E94511389
:103B200070E060E08AE590E10E94350A64EB70E0A5
:103B300087E590E10E94350A68EE73E080E090E04E
:103B40000E945E0380E695E00E94511364EB70E0F2
:103B50008DE590E10E94350A60ED77E080E090E02D
:103B60000E945E036CED75E080E090E00E945E03D1
:103B70008DE194E00E9499138091D00E9091D10E26
:103B80000E94DD1189E89DE00E9499130E94EF17C1
:103B90000E940D12C017D1070CF439CE85E090E0D9
:103BA0000E946221EC018FE695E00E949913CE01FC
:103BB0000E94DD1182E895E00E949913C8010E94DD
:103BC0000D120E9489130E949F15E4CF0C171D0748
:103BD000A0F4EC16FD0688F421E0C01BD10BA997D8
:103BE00008F436CF405951404B3F510508F030CFD3
:103BF00084569109C39708F02BCF86EF94E00E947A
:103C000051136AE570E083E690E10E94350A6AE5A7
:103C100070E080E690E10E94350A8AE095E0EFCFFF
:103C200085ED8093BC0080912A0F90912B0FA0917D
:103C30002C0FB0912D0F0796A11DB11D23E0B69555
:103C4000A795979587952A95D1F72091BC0024FDDB
:103C500003C01092280F089540912A0F50912B0F06
:103C600060912C0F70912D0F452B462B472B69F33C
:103C70000097A105B10541F02AE22A95F1F700C0AD
:103C80000197A109B109E1CF8091290F0C94630537
:103C90000F931F93CF93DF938C01EB010E9432327D
:103CA0008883C80101960E9432328983CE01DF9158
:103CB000CF911F910F910895FF920F931F93CF9370
:103CC000DF93EC018B01FB01F0800E943232F81689
:103CD00021F06F2DCE010E943A32F801F180219639
:103CE000CE010E943232F81621F06F2DCE010E94D3
:103CF0003A32C801DF91CF911F910F91FF90089543
:103D00001F920F920FB60F9211242F933F938F9310
:103D10009F93AF93BF938091D80E9091D90EA091AD
:103D2000DA0EB091DB0E3091D70E23E0230F2D3742
:103D300058F50196A11DB11D2093D70E8093D80E82
:103D40009093D90EA093DA0EB093DB0E8091DC0E27
:103D50009091DD0EA091DE0EB091DF0E0196A11DB7
:103D6000B11D8093DC0E9093DD0EA093DE0EB09318
:103D7000DF0EBF91AF919F918F913F912F910F9047
:103D80000FBE0F901F90189526E8230F0296A11DD5
:103D9000B11DD2CF1F920F920FB60F9211240BB606
:103DA0000F922F933F934F935F936F937F938F93D4
:103DB0009F93AF93BF93EF93FF938091A70E909142
:103DC000A80EA091A90EB091AA0E892B8A2B8B2B3D
:103DD000E1F19091A60EE091A40EF091A50E8081E4
:103DE000892780838091A70E9091A80EA091A90E9B
:103DF000B091AA0E181619061A061B069CF480919B
:103E0000A70E9091A80EA091A90EB091AA0E0197AD
:103E1000A109B1098093A70E9093A80EA093A90EB3
:103E2000B093AA0EFF91EF91BF91AF919F918F91A7
:103E30007F916F915F914F913F912F910F900BBEAA
:103E40000F900FBE0F901F901895809100020E9456
:103E50009D03E8CF1F920F920FB60F9211240BB65D
:103E60000F922F933F934F935F936F937F938F9313
:103E70009F93AF93BF93EF93FF9382E59FE00E94E0
:103E80008804FF91EF91BF91AF919F918F917F91A6
:103E90006F915F914F913F912F910F900BBE0F90BB
:103EA0000FBE0F901F9018951F920F920FB60F9292
:103EB00011240BB60F922F938F939F93EF93FF9341
:103EC000E091620FF091630F8081E091680FF091B3
:103ED000690F82FD1DC0908180916B0F8F5F8F7382
:103EE00020916C0F821741F0E0916B0FF0E0EE5AD9
:103EF000F04F958F80936B0FFF91EF919F918F9172
:103F00002F910F900BBE0F900FBE0F901F90189522
:103F10008081F2CF1F920F920FB60F9211240BB631
:103F20000F922F933F934F935F936F937F938F9352
:103F30009F93AF93BF93EF93FF938091B900887FD6
:103F4000803609F44DC008F040C0883209F4A7C09B
:103F500028F5803109F49BC0C8F4882309F4F7C020
:103F6000883009F494C0FF91EF91BF91AF919F9178
:103F70008F917F916F915F914F913F912F910F9012
:103F80000BBE0F900FBE0F901F901895883109F44B
:103F900086C0803241F78093260F14C0803409F424
:103FA0009BC040F48033B9F38833E9F68093260F41
:103FB00085ECAEC0803509F483C0883509F494C01F
:103FC000883489F60E94101ECECF883909F48AC041
:103FD00038F5883729F050F4883611F0803719F613
:103FE00083E08093280F1092A30E55C0883809F4FF
:103FF00079C0803919F0803809F0B5CF8091A30ECF
:10400000803208F06FC0E091A30E81E08E0F8093A4
:10401000A30E8091BB00F0E0ED57F14F80833BC0D1
:10402000803B39F0D0F4803A09F477C0883A09F03F
:104030009ACF84E08093280F1092820E1092810E06
:10404000F0E0E0E019958091810E81110FC081E0D0
:104050008093810E1092610E09C0803C09F4A8CFB4
:10406000883C09F4A5CF883B09F07DCFE091820E12
:1040700081E08E0F8093820EF0E0EF59F14F808146
:104080008093BB009091820E8091810E29C0809117
:10409000030F8093BB0085EC8093BC0064CF9091AC
:1040A000250F8091240F981758F5E091250F81E096
:1040B0008E0F8093250FF0E0EC5FF04F8081E9CF09
:1040C000E091250F81E08E0F8093250F8091BB003A
:1040D000F0E0EC5FF04F80839091250F8091240FEA
:1040E0009817C8F285E8D8CFE091250F81E08E0FB0
:1040F0008093250F8091BB00F0E0EC5FF04F808350
:104100008091270F81115ECF81E08093020F84EAB6
:104110008093BC001092280F26CF85EC8093BC00C2
:104120001092280F8091A30E803230F4E091A30EFC
:10413000F0E0ED57F14F10826091A30E70E083E83C
:104140009EE0F0E0E0E019951092A30E0CCF1092E3
:10415000260F38CF1F920F920FB60F9211240BB675
:104160000F922F933F934F935F936F937F938F9310
:104170009F93AF93BF93EF93FF9348E251E064E2C4
:1041800071E090E080E00E94540BFF91EF91BF91AD
:10419000AF919F918F917F916F915F914F913F91DF
:1041A0002F910F900BBE0F900FBE0F901F90189580
:1041B0001F920F920FB60F9211240BB60F922F93EE
:1041C0003F934F935F936F937F938F939F93AF939F
:1041D000BF93EF93FF9348EA50E064EA70E083E016
:1041E00090E00E94540BFF91EF91BF91AF919F918E
:1041F0008F917F916F915F914F913F912F910F9090
:104200000BBE0F900FBE0F901F9018951F920F922C
:104210000FB60F9211240BB60F922F933F934F932B
:104220005F936F937F938F939F93AF93BF93EF931E
:10423000FF9348E950E064E970E082E090E00E947A
:10424000540BFF91EF91BF91AF919F918F917F910F
:104250006F915F914F913F912F910F900BBE0F90F7
:104260000FBE0F901F9018951F920F920FB60F92CE
:1042700011240BB60F922F933F934F935F936F933D
:104280007F938F939F93AF93BF93EF93FF9348E8F0
:1042900050E064E870E081E090E00E94540BFF91F0
:1042A000EF91BF91AF919F918F917F916F915F91AE
:1042B0004F913F912F910F900BBE0F900FBE0F901B
:1042C0001F901895CF92DF92EF92FF920F931F935A
:1042D000CF93DF93EC0110E000E0C12CD12C7601EC
:1042E00086EF90E10E94571A092E000CAA0BBB0B17
:1042F000C80ED91EEA1EFB1E6AE070E080E090E066
:104300000E945E030F5F1F4FC017D10749F79E0140
:10431000DD0F440B550BC701B6010E944832C9019D
:10432000DF91CF911F910F91FF90EF90DF90CF9091
:104330000895CF92DF92EF92FF92CF93DF93E2E561
:10434000FFE01382128288EE93E0A0E0B0E0848365
:104350009583A683B78321E232E03183208325EC65
:1043600030E03587248724EC30E03787268720EC3F
:1043700030E0318B208B21EC30E0338B228B22EC30
:1043800030E0358B248B26EC30E0378B268B118E7A
:10439000128E138E148ECFEEDFE01B821A828C8376
:1043A0009D83AE83BF8383E392E099838883E6EFA6
:1043B000F0E18AE390E09183808398E3C92E94E052
:1043C000D92EE12CF12CC282D382E482F58260E006
:1043D0000E94FD0281E080930C02E0EFF0E186E3B1
:1043E00090E091838083C282D382E482F58260E090
:1043F0000E94FD02EAEEF0E188E390E09183808381
:10440000C282D382E482F58260E00E94FD0245E030
:1044100064E088EA90E10E94AA0943E062E086E64F
:1044200090E10E94AA0983E690E10E94390B80E6A0
:1044300090E10E94390B8DE590E10E94390B8AE5ED
:1044400090E10E94390B87E590E10E94390BEBEF78
:10445000FFE0108288E68383D283C18388E491EEF3
:10446000AAE7BFE38093531090935410A093551084
:10447000B09356101486158616861786108A118AF0
:10448000128A138A148A158A168A178A108E118E38
:10449000128E138E148E158E168E178E10A211A2E8
:1044A00012A213A2DF91CF91FF90EF90DF90CF90F7
:1044B0000895CF93DF93CDB7DEB764970FB6F89426
:1044C000DEBF0FBECDBF789484B5826084BD84B555
:1044D000816084BD85B5826085BD85B5816085BDFF
:1044E00080916E00816080936E00109281008091B7
:1044F000810082608093810080918100816080933F
:104500008100809180008160809380008091B10063
:1045100084608093B1008091B00081608093B0008E
:1045200080919100826080939100809191008160E0
:1045300080939100809190008160809390008091A1
:10454000A10082608093A1008091A100816080938E
:10455000A1008091A00081608093A0008091210142
:1045600082608093210180912101816080932101EB
:104570008091200181608093200180917A00846085
:1045800080937A0080917A00826080937A00809193
:104590007A00816080937A0080917A0080688093AD
:1045A0007A001092C100E091620FF091630F82E0F7
:1045B0008083E0915E0FF0915F0F1082E091600FB9
:1045C000F091610F80E1808310926A0FE091660F95
:1045D000F091670F86E08083E091640FF091650FA2
:1045E000808180618083E091640FF091650F80810C
:1045F00088608083E091640FF091650F808180680E
:104600008083E091640FF091650F80818F7D8083BE
:1046100061E08BE60E949206182F60E089E10E941B
:10462000920660E08AE10E94920680E090E0A3E8B2
:10463000B2E48093FF0F90930010A0930110B09309
:10464000021068E08BE10E94920680E090E0A0E812
:10465000B6E48093031090930410A0930510B093D8
:10466000061060E08CE10E9492060E949F158091E6
:104670003B1090913C10A0913D10B0913E10809362
:10468000431090934410A0934510B093461080912E
:104690003F1090914010A0914110B0914210809332
:1046A000471090934810A0934910B0934A100E946D
:1046B000910360934F10709350108093511090931A
:1046C000521086EA92E00E94F704612F70E090E0B9
:1046D00080E04AE00E9487110E9483111111FECFF1
:1046E0008DE792E00E94F7040E94831168EE73E068
:1046F00080E090E00E945E03109207101092081074
:104700001092091010920A1010920B1010920C10B7
:1047100010920D1010920E1010920F101092101097
:104720001092111010921210109213101092141077
:104730001092151010921610109217101092181057
:104740001092191010921A1010921B1010921C1037
:1047500010921D1010921E1004EF11E01D861E868F
:104760001F86188A198A1A8A1B8A1C8A19861A8631
:104770001B861C86C12CD12C7601460157012601CF
:1047800037010E94F40E20912310309124104091A3
:10479000251050912610C301B2010E94AC322B01AA
:1047A0003C01209127103091281040912910509100
:1047B0002A10C501B4010E94AC324B015C0120E01B
:1047C00030E040E85FE360912B1070912C108091F5
:1047D0002D1090912E100E94AB329B01AC01C701AD
:1047E000B6010E94AC326B017C0120912F103091F8
:1047F0003010409131105091321069857A858B8547
:104800009C850E94AC3269877A878B879C87209130
:104810003310309134104091351050913610698921
:104820007A898B899C890E94AC32698B7A8B8B8BBD
:104830009C8B209137103091381040913910509155
:104840003A106D857E858F8598890E94AC326D8780
:104850007E878F87988B61E070E080E090E00E9417
:104860005E030150110909F08CCF20E030E04AEFDF
:1048700053E4C301B2010E948A3360931310709312
:104880001410809315109093161020E030E04AEF3A
:1048900053E4C501B4010E948A33609317107093EA
:1048A00018108093191090931A1020E030E04AEF0E
:1048B00053E4C701B6010E948A3360931B107093C2
:1048C0001C1080931D1090931E1020E030E04AEFE2
:1048D00053E469857A858B859C850E948A33609331
:1048E0000710709308108093091090930A1020E02D
:1048F00030E04AEF53E469897A898B899C890E9468
:104900008A3360930B1070930C1080930D1090936A
:104910000E1020E030E04AEF53E46D857E858F85F0
:1049200098890E948A3360930F10709310108093BF
:1049300011109093121085EB95E00E94511303E142
:1049400012E08DE1E82E82E0F82EF80180810E5F02
:104950001F4F60E00E94FD02E016F106B1F761E032
:1049600080E20E94FD0266E070E083E690E10E9432
:10497000B10A67E070E080E690E10E94B10A6AE562
:1049800070E083E690E10E94350A6AE570E080E617
:1049900090E10E94350A0E949F150E949B1369E0D6
:1049A00072E090E080E00E94481E67E072E082E0E2
:1049B00090E00E94481E65E072E084E090E00E9472
:1049C000481E63E072E086E090E00E94481E61E0CD
:1049D00072E088E090E00E94481E4DE750E063E0FE
:1049E00070E08EEE92E00E94500C82E59FE00E9403
:1049F0007204892B09F472C01A8219821C821B82EC
:104A00001E821D8270E060E0CE0101960E942F1A86
:104A100029813A8181112EC02115310519F0C90172
:104A20000E94F1361A8219821E821D821C821B820C
:104A30000E9432040D811E8197FD24C08A309105A9
:104A400009F18F8318860F5F1F4FB801CE010196C1
:104A50000E942F1A882361F329813A818D819E81DA
:104A6000BE01695F7F4F820F931F0E946D381E83C6
:104A70000D83DECF1E821D8263E472E0C9010E94B5
:104A80006D38D6CF89809A808114910429F0740101
:104A90000115110509F07EC08D819E81892BC1F021
:104AA00089819A812091D60E2111AAC06DE37BE005
:104AB0000E946438892B09F00AC5F1E0F093D60E04
:104AC0008CEB95E00E9451130E945D131092C10E71
:104AD00089819A81009711F00E94F1368091D60E5B
:104AE00081110C94462D0E949F150E940E0CDC0132
:104AF0009093D50E8093D40EED91FC911197EE0F0B
:104B0000FF1F12968D919C911397E80FF91FEE0FDE
:104B1000FF1F14968D919C911597E80FF91FEE0FCA
:104B2000FF1F16968D919C911797E80FF91FEE0FB6
:104B3000FF1F18968D919C91E80FF91FE032F10547
:104B400010F00C948A308827E755FA4D8F4F0C945B
:104B500032362B2E8A308A305E2DE12E22308A307A
:104B6000772D8A308A308A308A308A308A308A308B
:104B7000E42E8A308A308A304A2DA42F8A308A3037
:104B80003E2E5E2DC72D8A306A2ADB2D572E442FEC
:104B9000642E75015701FFEFAF1ABF0AF70180813C
:104BA000082E000C990B0E940231892B91F70150BD
:104BB0001109080D191DF8018081082E000C990BB0
:104BC0000E940231892B31F00E151F0518F001509B
:104BD0001109F1CF0F5F1F4FA8014E195F095E83C6
:104BE0004D838E149F0420F4B701C4010E945B38EA
:104BF000E981FA818D819E81E80FF91F10824CCFE7
:104C00004090C10E442009F488C00097B1F00E9482
:104C1000C6302091BF0E3091C00E2430310509F40A
:104C200056C07CF42230310531F123303105E1F1F9
:104C300082E796E00E94511332C060E070E0CB0141
:104C4000E8CF2530310509F455C02630310581F70C
:104C5000709302026093010261E072E088E090E0EC
:104C60000E945C1E8EE496E00E94991380910102DE
:104C70009091020212C070930A026093090269E0E7
:104C800072E090E080E00E945C1E8AED95E00E9458
:104C900099138091090290910A020E940D121092BC
:104CA000C10E0E945D1314CF709308026093070237
:104CB00067E072E082E090E00E945C1E88EF95E081
:104CC0000E9499138091070290910802E6CF709399
:104CD00006026093050265E072E084E090E00E94C5
:104CE0005C1E86E196E00E949913809105029091E6
:104CF0000602D3CF709304026093030263E072E074
:104D000086E090E00E945C1E82E396E00E94991388
:104D10008091030290910402C0CF0097B1F00E94ED
:104D2000C6306930710508F086C3FB018827E45658
:104D3000F94D8F4F0C943236A926B026B326C126E2
:104D4000CF26DD26EB26F5262C2760E070E0CB0190
:104D5000E8CF1092D60E88E896E00E945113B8CEA4
:104D60000E949B139ECF8FEB96E00E94511321E08F
:104D70002093C10E42E050E05093C00E4093BF0E0E
:104D8000A7CE85EE96E00E94511351E05093C10EDC
:104D900083E090E09093C00E8093BF0E99CE8BE09D
:104DA00097E00E94511391E09093C10EE4E0F0E08F
:104DB000F093C00EE093BF0E8BCE8FE297E00E947F
:104DC0005113F1E0F093C10E25E030E03093C00EB6
:104DD0002093BF0E7DCE83E597E00E94511331E012
:104DE0003093C10E46E050E0C7CF8FE797E00E94B6
:104DF00051138EE997E00E949913809109029091D6
:104E00000A020E940D1285EE98E00E94991380918B
:104E10000702909108020E940D128CEA97E00E940E
:104E2000991380910502909106020E940D1283E968
:104E300098E00E94991380910302909104020E94CD
:104E40000D128FE399E00E949913809101029091D5
:104E500002020E940D1225CF88EB97E00E945113A9
:104E600007EB1EE029EB3EE04BEB5EE06DEB7EE0F6
:104E700088EA90E10E94D9124091B90E5091BA0E81
:104E80006091BB0E7091BC0E8091BD0E9091BE0ED4
:104E90000E9421029093B60E8093B50E0DEA1EE09B
:104EA0002FEA3EE041EB5EE063EB7EE086E690E1D8
:104EB0000E94D912C090AF0ED090B00E8090B10E6B
:104EC0009090B20E6090B30E7090B40EA601B40133
:104ED000C3010E9421025C019093AC0E8093AB0E43
:104EE000E090B70EF090B80E0091AD0E1091AE0E9E
:104EF0002090B50E3090B60E56E9251631040CF010
:104F00009FC280E9E81681E0F8060CF099C296E9A4
:104F1000A916B1043CF485ED97E00039E1E01E07E5
:104F20000CF49BC28091BB0E9091BC0E2091BD0EE3
:104F30003091BE0E2817390770F54091B90E509187
:104F4000BA0E4817590738F5821B930B20910102BE
:104F50003091020228173907F0F4809105029091F0
:104F60000602E816F906BCF0809103029091040253
:104F70008E159F0584F08091090290910A022816EF
:104F800039064CF055245394809107029091080201
:104F9000821593050CF4512C6814790450F5C8144B
:104FA000D90438F586189708809101029091020281
:104FB00088159905F0F48091050290910602081772
:104FC0001907BCF0809103029091040280179107A9
:104FD00084F08091090290910A02A816B9064CF05B
:104FE0007724739480910702909108028A159B059B
:104FF0000CF4712C4701801A910A97FE03C091941A
:105000008194910834E6831691041CF4672C5110A6
:1050100001C0612C85EF97E00E949913852D90E0E7
:105020000E940D1285E098E00E949913872D90E070
:105030000E940D1286E198E00E949913862D90E05F
:105040000E940D1284E298E00E949913C7010E9409
:10505000DD118AE298E00E949913C8010E940D12A6
:1050600083E398E00E9499138091B50E9091B60E5B
:105070000E94CB118AE398E00E9499138091AB0EB5
:105080009091AC0E0E94D11184E498E00E94991393
:105090008091BD0E9091BE0E0E94CB1189E498E0E4
:1050A0000E9499138091B30E9091B40E0E94D11179
:1050B00081E598E00E9499138091BB0E9091BC0EFF
:1050C0000E94CB1186E598E00E9499138091B10E61
:1050D0009091B20E0E94D1118EE598E00E94991332
:1050E0008091B90E9091BA0E0E94CB1183E698E0A0
:1050F0000E9499138091AF0E9091B00E0E94D11131
:105100008BE698E00E9499138091B70E9091B80EAB
:105110000E94CB1180E798E00E9499138091AD0E18
:105120009091AE0E0E94D11183E398E00E949913F2
:105130008091B50E9091B60E0E94CB118AE398E053
:105140000E9499138091AB0E9091AC0E0E94D111E8
:1051500088E798E00E9499138091050290910602D9
:10516000E816F90644F081E0209103023091040230
:105170002E153F050CF480E090E00E940D128FE99F
:1051800098E00E94991380910502909106020817F9
:10519000190744F081E020910302309104022017A6
:1051A00031070CF480E090E00E940D1286EC98E04C
:1051B0000E9499138091090290910A0228163906DB
:1051C00044F081E020910702309108022215330556
:1051D0000CF480E090E00E940D1283EF98E00E94B2
:1051E00099138091090290910A02A816B90644F019
:1051F00081E020910702309108022A153B050CF44A
:1052000080E090E00E940D1280E299E00E949913E4
:105210002091BB0E3091BC0E8091BD0E9091BE0EC0
:105220008217930740F481E04091B90E5091BA0E75
:105230004217530708F080E090E00E940D1285E3CA
:1052400099E00E9499132091BB0E3091BC0E809181
:10525000BD0E9091BE0E281B390B81E090E040916D
:105260000102509102024217530710F090E080E0D3
:105270000E940D1283E599E00E9499132091B10ECE
:105280003091B20E8091B30E9091B40E82179307B5
:1052900040F481E04091AF0E5091B00E4217530799
:1052A00008F080E090E00E940D1288E699E00E94EC
:1052B00099132091B10E3091B20E8091B30E90915E
:1052C000B40E281B390B81E090E04091010250910F
:1052D00002024217530710F090E080E00E940D1286
:1052E00088E798E00E949913809105029091060248
:1052F000E816F90644F081E020910302309104029F
:105300002E153F050CF480E090E00E940D128FE90D
:1053100098E00E9499138091050290910602081767
:10532000190744F081E02091030230910402201714
:1053300031070CF480E090E00E940D1286EC98E0BA
:105340000E9499138091090290910A022816390649
:1053500044F081E0209107023091080222153305C4
:105360000CF480E090E00E940D1283EF98E00E9420
:1053700099138091090290910A02A816B90654F077
:105380004424439480910702909108028A159B055A
:105390000CF4412C842D90E00E940D1286E899E0D7
:1053A0000E94991381E090E044E68416910414F081
:1053B00090E080E00E940D128EEA99E061104DC0ED
:1053C000552009F44DC084E694E00E9451138BE807
:1053D00093E00E9499138091B50E9091B60E0E94B1
:1053E000CB1181ED99E00E9499138091BD0E9091AF
:1053F000BE0E0E94CB1188ED99E00E949913809116
:10540000BB0E9091BC0E0E94CB118FED99E00E94D3
:1054100099138091B90E9091BA0E0E94CB1186EE2D
:1054200099E00E9499138091B70E9091B80E0E9456
:10543000CB110E9483118CEF99E00E94511331CC63
:10544000F9EEEF16F3E0FF060CF46CCD093E23E015
:1054500012070CF467CD8DEE99E00E945113EBCF4B
:105460007720C9F38CEA94E00E9451138BE893E013
:105470000E9499138091AB0E9091AC0E0E94CB11BB
:1054800081ED99E00E9499138091B30E9091B40E32
:105490000E94CB1188ED99E00E9499138091B10E82
:1054A0009091B20E0E94CB118FED99E00E9499135A
:1054B0008091AF0E9091B00E0E94CB1186EE99E0D4
:1054C0000E9499138091AD0E9091AE0EB0CF87E2FD
:1054D0009AE043CC0E94EF179093D30E8093D20EA4
:1054E0002091D00E3091D10E8C01021B130B109322
:1054F000CF0E0093CE0EB801012E000C880B990B35
:105500000E9412316B017C012091CA0E3091CB0EAA
:105510004091CC0E5091CD0E0E94AC324B015C01FB
:1055200020E030E048EC52EC0E940B3187FD38C19E
:1055300020E030E048EC52E4C501B4010E94593447
:10554000181634F4812C912C58ECA52E52E4B52E6B
:105550008092CA0E9092CB0EA092CC0EB092CD0E3D
:105560008091C80E9091C90EB801681B790B072E67
:10557000000C880B990B0E9412312B013C014092C8
:10558000C40E5092C50E6092C60E7092C70E109354
:10559000C90E0093C80E20E030E040EC5FE3C70185
:1055A000B6010E94713169877A878B879C872DECC1
:1055B0003CEC4CE45DE3C501B4010E9471319B01F8
:1055C000AC0169857A858B859C850E94AC32A301EC
:1055D00092010E94AC320E94FC337B0177FF04C031
:1055E000EE24FF24E61AF70A59E2E516F1041CF04E
:1055F00038E2E32EF12CF092C30EE092C20E1016A8
:1056000011060CF0D4C068E770E06E197F0983E6DC
:1056100090E10E94350AC70163E070E00E941E36E7
:10562000645C7F4F80E690E10E94350A87E59AE04E
:105630000E9499138091D20E9091D30E0E94DD1199
:105640008AE194E00E9499138091D00E9091D10E3E
:105650000E94DD1185E79AE00E9499138091C20EA5
:105660009091C30E0E94DD1181E89AE00E94991387
:105670006091CE0E7091CF0E072E000C880B990B07
:105680000E94123120E030E040EC5FE30E94713173
:1056900042E00E94C61488E89AE00E9499132DEC1B
:1056A0003CEC4CE45DE36091CA0E7091CB0E8091AE
:1056B000CC0E9091CD0E0E94713142E00E94C61432
:1056C0008FE89AE00E9499136091C40E7091C50E04
:1056D0008091C60E9091C70E42E00E94C6140E94AF
:1056E000831180910B02882331F18091D20E909129
:1056F000D30E2091D00E3091D10E820F931F97FDC3
:105700000196959587959093D10E8093D00E109227
:10571000CA0E1092CB0E1092CC0E1092CD0E86E9CE
:105720009AE00E9499138091D00E9091D10E0E9420
:105730000D1210920B0286EF90E10E94571A0A9701
:105740000CF0A4C168E770E083E690E10E94350A9E
:1057500068E770E080E690E10E94350A0091D00E83
:105760001091D10E065A1F4F0E94EF170817190704
:10577000B4F10E949F1588EB9AE00E9499130E9451
:10578000EF170E94DD1188E594E00E949913809143
:10579000D00E9091D10E865A9F4F0E940D12DECFEF
:1057A000812C912C48ECA42E42ECB42ED1CE012BAE
:1057B00069F0C7016DEF7FEF0E941E3668587F4F7A
:1057C00083E690E10E94350AB7012ACF68E770E0CE
:1057D00083E690E10E94350A6CE370E023CF60EA33
:1057E00070E083E690E10E94350A64E170E080E6B3
:1057F00090E10E94350A8091D00E9091D10E865A88
:105800009F4F9093D10E8093D00E0E9491034B0135
:105810005C012B013C0180EA480E8FE0581E611CA0
:10582000711C0E949103681979098A099B09603AE1
:105830007F408105910528F580EF9AE00E94991339
:105840000E949103681979098A099B094AE00E941C
:1058500087110E94831187E19BE00E9499130E94A7
:105860009103A3019201261B370B480B590BCA0168
:10587000B9014AE00E9487110E9483110E94891396
:10588000D0CF88E29BE00E9451136CE370E083E686
:1058900090E10E94350A6CE370E080E690E10E949E
:1058A000350A0091D00E1091D10E0A5511090E94AF
:1058B000EF1780179107BCF00E949F158FE39BE0C4
:1058C0000E9499130E94EF170E94DD1188E594E071
:1058D0000E9499138091D00E9091D10E8A55910912
:1058E0000E940D12DECF60EA70E083E690E10E9434
:1058F000350A64E170E080E690E10E94350A80910B
:10590000D00E9091D10E8A5591099093D10E80932B
:10591000D00E0E9491034B015C010E949103681913
:1059200079098A099B0960347F418105910518F442
:105930000E948913F2CF6CE370E083E690E10E944D
:10594000350A6CE370E080E690E10E94350A009130
:10595000D00E1091D10E0A5511090E94EF17801731
:105960009107BCF00E949F1586E79BE00E94991367
:105970000E94EF170E94DD1188E594E00E949913C0
:105980008091D00E9091D10E8A5591090E940D12EE
:10599000DECF60EA70E083E690E10E94350A64E1C0
:1059A00070E080E690E10E94350A8091D00E9091DF
:1059B000D10E8A5591099093D10E8093D00E0E94FA
:1059C0000E0C9093D50E8093D40EE091D40EF091EE
:1059D000D50E84819581019719F40E948913EFCF28
:1059E00068E770E083E690E10E94350A6CE370E0BE
:1059F00080E690E10E94350A68EE73E080E090E076
:105A00000E945E0368E770E083E690E10E94350A39
:105A100068E770E080E690E10E94350A0091D00EC0
:105A20001091D10E065A1F4F0E94EF170817190741
:105A3000BCF00E949F158DEA9BE00E9499130E9482
:105A4000EF170E94DD1188E594E00E949913809180
:105A5000D00E9091D10E865A9F4F0E940D12DECF2C
:105A600068E770E083E690E10E94350A6CE370E03D
:105A700080E690E10E94350A8091D00E9091D10E7F
:105A8000865A9F4F9093D10E8093D00E0E9432057C
:105A90000C94F52462E870E083E690E10E94350AF8
:105AA00067E370E080E690E10E94350A85EE9BE0B6
:105AB0000E94511341E040930B02E8CF8CEF9BE032
:105AC0000E9451130E94FD1768E770E083E690E1A1
:105AD0000E94350A6CE370E080E690E10E94350A8E
