:100000000C94EE010C941F020C941F020C941F021E
:100010000C941F020C941F020C941F020C941F02DC
:100020000C941F020C941F020C941F020C941F02CC
:100030000C941F020C94C21E0C941F020C941F02FD
:100040000C941F020C942C210C941F020C941F0280
:100050000C941F020C941F020C941F020C94781E27
:100060000C941F020C944C1F0C94221F0C941F0222
:100070000C941F020C941F020C941F020C941F027C
:100080000C94FE200C941F020C941F020C941F026F
:100090000C941F020C941F020C941F020C94821FDC
:1000A0000C941F020C941F020C94D0200C941F027D
:1000B0000C941F020C941F020C941F020C94A2209B
:1000C0000C941F020C941F020C941F020C941F022C
:1000D0000C941F020C941F020C941F020C941F021C
:1000E0000C941F02084AD73B3BCE016E84BCBFFD77
:1000F000C12F3D6C74319ABD56833DDA3D00C77FF8
:1001000011BED9E4BB4C3E916BAAAABE0000008090
:100110003F07634236B79BD8A71A39685618AEBA5C
:10012000AB558C1D3CB7CC5763BD6DEDFD753EF6F0
:10013000177231BF000000803F08000000BE92240B
:1001400049123EABAAAA2ABECDCCCC4C3E00000040
:1001500080BEABAAAAAA3E00000000BF000000803B
:100160003F0000000000084178D3BB4387D1133D16
:10017000190E3CC3BD4282AD2B3E68EC8276BED9DF
:100180008FE1A93E4C80EFFFBE01C4FF7F3F00001E
:10019000000000000C949B020C940F040C94E203EA
:1001A0000C941E040C948C2D0C9411270C94E62FA7
:1001B0000C9407070C942D270C94C6020C949802FB
:1001C0000C94B92D0C946D2E0C9494020C94AC2AC2
:1001D0000C94AF020C94E4060C941D2E0C94900227
:1001E0000C94A62E0C9412050C94B9020C946A0778
:1001F0000C94A1020C941F270C94C1020C94BD0214
:100200000C9437270C9464040C94F2260C94802EE2
:100210000C94CC300C94C7020C9400310C94A502C1
:100220000C94F5260C94B3020C9464300C940327C0
:100230000C946E270C94F4060C9491210C94232FAB
:100240000C94AA040C948C020C94992E0C94A02D5E
:100250000C943B070C94AB020C94E5060C94EB2633
:100260000C9472040C94092E0C9486020C94862F24
:100270000C94CB020C94262F0C940E070243616C55
:1002800063756C6174696E67206F666673657473FD
:100290002C20646F206E6F74206D6F7665204D503A
:1002A0005536303530004D5055363035302073746A
:1002B000617475733A200000000A0B02090C0D0EE0
:1002C0000807030401000000000000000000000017
:1002D000000000000000000000000000000000001E
:1002E00000000012111000000000000000000000DB
:1002F00000000000000000000000000000000020DE
:10030000002300260029002C002F003200000100ED
:100310000003010601090100002100240027002A32
:10032000002D003000330001010000040107010A24
:100330000100002200250028002B002E003100348F
:100340000002010000050108010B0101021020203C
:100350000808102040102040800201020108040219
:10036000010102040810204080804020100804028F
:1003700001800402018040201008040201080402E8
:1003800001010204081020408001020408102040EE
:100390008005050505070508080808020202020A8B
:1003A0000A08080404040401010101010101010318
:1003B00003030303030303040707070C0C0C0C0CD3
:1003C0000C0C0C0202020206060606060606060BC6
:1003D0000B0B0B0B0B0B0B009121003111241FBEDB
:1003E000CFEFD1E2DEBFCDBF00E00CBF1DE0A0E04B
:1003F000B2E0E0E9F1E700E00BBF02C007900D9228
:10040000A63BB107D9F721E1A6EBBDE001C01D92E3
:10041000AE30B207E1F711E0CDEED1E000E006C06A
:1004200021970109802FFE010E947436CC3ED1072E
:1004300080E00807A9F70E9451220C94B6380C946A
:100440000000CF92DF92EF92FF920F931F93CF9312
:10045000DF938B01EA01BC0190E080E00E94523101
:1004600026ED39E346EA5EEB0E94B3316B017C0175
:10047000B80190E080E00E94523127E038E04AEC79
:100480005FE30E94B3319B01AC01C701B6010E943A
:10049000EE326B017C01BE0190E080E00E9452319F
:1004A00024E73EE54BE35FEB0E94B3319B01AC01D7
:1004B000C701B6010E94EE320E944534CB01DF91A4
:1004C000CF911F910F91FF90EF90DF90CF90089503
:1004D0008150823108F05AC0E82FF0E08827EC58AC
:1004E000FD4F8F4F0C9474369402980286028C0252
:1004F0009002C6029B02A102A502AB02AF02B302A8
:10050000B902BD02C602C102C702CB0280918000BF
:100510008F77809380000895809180008F7DF9CF40
:1005200080918000877FF5CF84B58F7784BD089553
:1005300084B58F7DFBCF8091B0008F778093B00022
:1005400008958091B0008F7DF9CF809190008F77D2
:10055000809390000895809190008F7DF9CF8091D5
:100560009000877FF5CF8091A0008F778093A000C7
:1005700008958091A0008F7DF9CF8091A000877FA2
:10058000F5CF809120018F7780932001089580918D
:1005900020018F7DF9CF80912001877FF5CF1F93B8
:1005A000CF93DF93282F30E0F901E954FD4F849178
:1005B000F901E55BFC4FD491F901EF56FC4FC49172
:1005C000CC23A9F0162F81110E946802EC2FF0E0D5
:1005D000EE0FFF1FEF5CFC4FA591B4918FB7F8941D
:1005E000EC91111108C0D095DE23DC938FBFDF9111
:1005F000CF911F910895DE2BF8CFCF93DF9390E03A
:10060000FC01E55BFC4F24918F569C4FFC018491CB
:100610008823D1F090E0880F991FFC01E95EFC4F20
:10062000A591B491FC01EF5CFC4FC591D49161118F
:100630000EC09FB7F8948C91E22FE0958E238C9397
:100640002881E223E8839FBFDF91CF9108958FB780
:10065000F894EC91E22BEC938FBFF6CF82309105AA
:1006600038F0880F991F880F991F05970197F1F7A8
:1006700008953FB7F8948091EA0E9091EB0EA09107
:10068000EC0EB091ED0E26B5A89B05C02F3F19F0DA
:100690000196A11DB11D3FBFBA2FA92F982F882702
:1006A000BC01CD01620F711D811D911D42E0660FDD
:1006B000771F881F991F4A95D1F708958F929F92AF
:1006C000AF92BF92CF92DF92EF92FF926B017C01CB
:1006D0000E9439034B015C01C114D104E104F1040F
:1006E000B9F00E943903681979098A099B09683EA3
:1006F00073408105910580F321E0C21AD108E10819
:10070000F10888EE880E83E0981EA11CB11CE4CF8E
:10071000FF90EF90DF90CF90BF90AF909F908F9021
:1007200008952FB7F8946091E60E7091E70E8091CE
:10073000E80E9091E90E2FBF089590910002891361
:100740000DC0ECE7F2E0E4919FEF90930002E230FD
:10075000E1F038F4EE2381F0E13089F060E00C94B0
:10076000CF02E43049F110F1E530C1F79091730008
:100770009D7F90937300F2CF10926E00EFCF909117
:100780006F009D7F90936F00E9CF909170009D7FE7
:100790009093700091E09093B0009091B100987F99
:1007A00094609093B1001092B300D8CF90917100F3
:1007B0009D7F90937100D2CF909172009D7F909316
:1007C0007200CCCFAF92BF92CF92DF92EF92FF92A6
:1007D0000F931F93CF93DF936C017B018B01040F69
:1007E000151FEB015E01AE18BF08C017D10759F005
:1007F0006991D601ED91FC910190F081E02DC60147
:100800001995892B79F7C501DF91CF911F910F9130
:10081000FF90EF90DF90CF90BF90AF900895FC01D4
:10082000538D448D252F30E0842F90E0821B930B55
:10083000541710F0CF96089501970895FC01918DFB
:10084000828D981761F0A28DAE0FBF2FB11D5D96FE
:100850008C91928D9F5F9F73928F90E008958FEFA0
:100860009FEF08950F931F930E9491036093680F69
:100870007093690F80936A0F90936B0F80E69FE0EF
:100880000E941E0497FF1DC00E9491030091680FF3
:100890001091690F20916A0F30916B0F601B710BE3
:1008A000820B930B0091640F1091650F2091660FDE
:1008B0003091670F6017710782079307F8F28FEF87
:1008C0009FEF1F910F910895FC01918D828D9817D4
:1008D00031F0828DE80FF11D858D90E008958FEF46
:1008E0009FEF0895FC01918D228D892F90E0805C0F
:1008F0009F4F821B91098F739927089580E69FE08F
:100900000E94720421E0892B09F420E0822F0895CF
:10091000FC01A48DA80FB92FB11DA35ABF4F2C9174
:10092000848D90E001968F739927848FA689B7896B
:100930002C93A089B1898C91837080648C93938D62
:10094000848D981306C00288F389E02D80818F7D05
:1009500080830895EF92FF920F931F93CF93DF93BD
:10096000EC0181E0888F9B8D8C8D98131AC0E889EB
:10097000F989808185FF15C09FB7F894EE89FF89BA
:100980006083E889F98980818370806480839FBF58
:1009900081E090E0DF91CF911F910F91FF90EF9058
:1009A0000895F62E0B8D10E00F5F1F4F0F73112768
:1009B000E02E8C8D8E110CC00FB607FCFACFE889A3
:1009C000F989808185FFF5CFCE010E948804F1CF9F
:1009D000EB8DEC0FFD2FF11DE35AFF4FF0829FB717
:1009E000F8940B8FEA89FB8980818062CFCF0F93C7
:1009F0001F93CF93DF938C01D0E0C0E0F801EC0FA0
:100A0000FD1F6491662341F080E69FE00E94AA04E6
:100A1000892B11F02196F2CFCE01DF91CF911F915A
:100A20000F910895CF93DF93EC01888D8823B9F05F
:100A3000AA89BB89E889F9898C9185FD03C08081E9
:100A400086FD0DC00FB607FCF7CF8C9185FFF2CF66
:100A5000808185FFEDCFCE010E948804E9CFDF9130
:100A6000CF91089580E090E0892B29F00E947E04C8
:100A700081110E94000080E090E0892B49F080E025
:100A800090E0892B29F00E94000081110E94000053
:100A900080E090E0892B49F080E090E0892B29F0FC
:100AA0000E94000081110E94000080E090E0892BEC
:100AB00049F080E090E0892B29F00E94000081112C
:100AC0000C94000008951F93CF93DF93C1E0C0936F
:100AD000DE0D882399F1D091B8001091BA00809171
:100AE000BC008A7B8093BC0060E084E10E94CF025E
:100AF00060E085E10E94CF021092360FC093350F5F
:100B00001092100F61E084E10E94CF0261E085E164
:100B10000E94CF028091B9008E7F8093B9008091AE
:100B2000B9008D7F8093B90088E48093B80085E494
:100B30008093BC001093BA00D093B800DF91CF919E
:100B40001F9108958F929F92AF92BF92CF92DF92A2
:100B5000EF92FF920F931F93CF93DF93D0915F0F8C
:100B6000D13208F0D7C0182FC0915E0F0E94390310
:100B70006B017C018091360F81116BC082E0809304
:100B8000360F1093350F8FEF8093340F1092330F81
:100B9000D093320FAEE3BFE0E2E1FFE080E0D81394
:100BA00091C01092110F8091110FCC0FC82BC093E0
:100BB000110F8091100F813009F088C01092100F32
:100BC0000E9439036B017C018091110F8093BB005F
:100BD0008091380F9091390FA0913A0FB0913B0F4F
:100BE000892B8A2B8B2BA1F00E9439030091380F9F
:100BF0001091390F20913A0F30913B0F6C197D09FC
:100C00008E099F09061717072807390708F442C0FD
:100C10008091BC0083FDD8CF85EC8093BC000E94FE
:100C200039036B017C018091360F823009F450C08A
:100C30008091340F8F3F09F46FC08091340F803260
:100C400009F46CC08091340F803309F469C084E0EA
:100C500026C08091380F9091390FA0913A0FB09132
:100C60003B0F892B8A2B8B2B09F484CF0E943903ED
:100C70008090380F9090390FA0903A0FB0903B0FB2
:100C80006C197D098E099F0986169706A806B90674
:100C900008F070CF8091370F0E94630585E01092B5
:100CA0003D0F10925F0F10923C0FDF91CF911F917B
:100CB0000F91FF90EF90DF90CF90BF90AF909F90FB
:100CC0008F9008959D9191938F5F69CF85EEA5CF09
:100CD0008091380F9091390FA0913A0FB0913B0F4E
:100CE000892B8A2B8B2B09F49ECF0E94390300910C
:100CF000380F1091390F20913A0F30913B0F6C193A
:100D00007D098E099F09061717072807390708F07C
:100D10008ACFC0CF81E0C3CF80E0C1CF82E0BFCF18
:100D200083E0BDCF1F93CF93DF93162FC9E0D0E1AF
:100D3000A981BA819B8121E020933C0F90935E0FA3
:100D400010923D0F10925F0FED91FC911197019061
:100D5000F081E02D682FCD01199589819A81DC0100
:100D6000ED91FC910190F081E02D612F199581E0CA
:100D7000DF91CF911F910C94A2052091FF0D260FBA
:100D80003327331F21323105ECF42091360FFC015B
:100D900090E080E0243069F082E00895A091FF0D9A
:100DA0002191AC014152524FA40FB52FB11D2C938C
:100DB0000196861798F38091FF0D680F6093FF0DE1
:100DC00080E0089581E008950895E091EF0E80910C
:100DD000EE0EE81730F4F0E0E051F14F808190E042
:100DE00008958FEF9FEF08959091EF0E8091EE0E92
:100DF0002FEF3FEF981748F4E92FF0E0E051F14F63
:100E0000208130E09F5F9093EF0EC901089580919B
:100E1000EE0E9091EF0E891B990B0895CF92DF9201
:100E2000EF92FF920F931F93CF93DF937C01CB013F
:100E30008A0120913C0F222389F0EB016B01C40E43
:100E4000D51ECC15DD0569F06991D701ED91FC91B6
:100E50000190F081E02DC7011995F3CF642F0E9416
:100E6000BD06C801DF91CF911F910F91FF90EF90C8
:100E7000DF90CF900895CF93DF931F92CDB7DEB769
:100E8000698320913C0F2223F9F020915F0F2032DB
:100E900058F021E030E0FC013383228390E080E0D1
:100EA0000F90DF91CF91089580913D0FE82FF0E0F2
:100EB000E25CF04F998190838F5F80933D0F809328
:100EC0005F0F81E090E0ECCF61E0CE0101960E94DF
:100ED000BD06F7CF90E080E00895CF92DF92EF92C9
:100EE000FF920F931F93CF93DF93EC01EE81FF816D
:100EF00090818B81809589238083EA85FB85808121
:100F00009B81892B8083EC81FD8190818A818095F2
:100F100089238083E885F98580819A81892B808364
:100F200089899A89009711F00E942E03EA85FB8532
:100F300090818B818095892380838B89882331F0F0
:100F4000EE81FF8180819B81892B80838C8988231E
:100F5000C9F00E9491036B017C01EE85FF858081C1
:100F60009B81892379F40E9491036C197D098E0974
:100F70009F090D891E892F89388D60177107820797
:100F8000930758F389899A89009711F00E942E03DC
:100F9000E885F98590818A818095892380838B8972
:100FA000882331F0EC81FD8180819A81892B8083B7
:100FB00089899A89009751F0DF91CF911F910F9104
:100FC000FF90EF90DF90CF900C942E03DF91CF91A4
:100FD0001F910F91FF90EF90DF90CF900895CF93E6
:100FE000DF93EC01E885F98590818A8180958923DA
:100FF00080838B89882331F0EC81FD8180819A8107
:10100000892B8083EA85FB8590818B81809589235C
:1010100080838B89882331F0EE81FF8180819B81E1
:10102000892B808389899A89009711F00E942E0369
:10103000EC85FD8590818A819823EE85FF8520814E
:101040003B81232311F480E028C09923E1F3EC8154
:10105000FD819081809589238083E885F985808151
:101060009A81892B808389899A89009711F00E943F
:101070002E03EE81FF8190818B818095892380836F
:10108000EA85FB8580819B81892B808389899A8968
:10109000009711F00E942E0381E0DF91CF91089517
:1010A000CF92DF92EF92FF920F931F93CF93DF9334
:1010B000EC01E885F98590818A8180958923808378
:1010C0008B89882331F0EC81FD8180819A81892B85
:1010D0008083EA85FB8590818B818095892380833D
:1010E0008B89882331F0EE81FF8180819B81892B60
:1010F00080838C898823C9F00E9491036B017C0155
:10110000EE85FF8580819B81892379F40E9491037C
:101110006C197D098E099F090D891E892F89388DCB
:10112000601771078207930758F389899A89009796
:1011300011F00E942E03EC85FD8580819A81892320
:1011400011E009F410E0EE81FF8190818B818095A0
:1011500089238083EA85FB8580819B81892B80831D
:1011600089899A89009711F00E942E03812FDF91BF
:10117000CF911F910F91FF90EF90DF90CF90089546
:10118000CF92DF92EF92FF920F931F93CF93DF9353
:10119000EC018A81809561115EC0EC81FD819081B6
:1011A00089238083E885F98580819A81892B8083D2
:1011B00089899A89009711F00E942E03EA85FB85A0
:1011C00090818B818095892380838B89882331F05E
:1011D000EE81FF8180819B81892B80838C8988238C
:1011E000C9F00E9491036B017C01EE85FF8580812F
:1011F0009B81892379F40E9491036C197D098E09E2
:101200009F090D891E892F89388D60177107820704
:10121000930758F389899A89009711F00E942E0349
:10122000EE81FF8190818B81809589238083EA857F
:10123000FB8580819B81892B808389899A8900978E
:10124000B1F0DF91CF911F910F91FF90EF90DF9060
:10125000CF900C942E03E885F985908189238083B3
:101260008B89882309F4A4CFEC81FD819DCFDF9188
:10127000CF911F910F91FF90EF90DF90CF90089545
:101280000F931F93CF93DF938C01D62FC8E06D2F60
:101290006078C8010E94C008DD0FC150C1F7C801C5
:1012A000DF91CF911F910F910C945008CF93DF9352
:1012B000FC012089211106C0EC010E944009811126
:1012C00006C0188A81E090E0DF91CF91089582E016
:1012D000888BF8CF1F93CF93DF93EC01162F188ADA
:1012E0000E94EF07882379F0612F660FCE010E94DC
:1012F0004009811105C0188ADF91CF911F9108958F
:1013000082E0888BF9CF84E0FCCFFC019389138ABB
:10131000A085B1852C918281809582238C938389CD
:10132000882331F0A481B5818C912281822B8C930A
:10133000A285B3852C918381809582238C938389A8
:10134000882331F0A681B7818C912381822B8C93E5
:10135000938B08950F931F93CF93DF93CDB7DEB791
:10136000EB970FB6F894DEBF0FBECDBFDC011C9229
:101370008BEE90E014969C938E93139781E090E00F
:1013800012969C938E93119715966C9315971696BB
:101390004C93169769834A838C8B8D8B82E090E007
:1013A0009B8B8A8B08EE13E020E030E00E8B1F8BC6
:1013B000288F398F70E0FB01EF56FC4F2491655B5D
:1013C0007C4FFB0164916B8330E0220F331FF901E6
:1013D000EF5CFC4F859194919E838D83F901E95ECA
:1013E000FC4F859194919A878987F901E350FD4FCD
:1013F000859194919E878D8750E0FA01EF56FC4FBE
:101400002491455B5C4FFA0144914C8330E0220FFC
:10141000331FF901EF5CFC4F8591949198878F837E
:10142000F901E95EFC4F859194919C878B87F901C6
:10143000E350FD4F85919491988B8F878BE3FE014C
:101440003196179601900D928A95E1F7CE0101969B
:101450000E948509EB960FB6F894DEBF0FBECDBF94
:10146000DF91CF911F910F910895CF92DF92EF926C
:10147000FF92CF93DF93EC01603282E07807CCF5E6
:10148000653B710514F064EB70E0898128E830E079
:10149000281B310987FD3395220F331F220F331F7D
:1014A0006901330FEE08FF088A8128E532E0281B26
:1014B000310987FD3395220F331F220F331F032E6F
:1014C000000C440B550B2C193D094E095F09DB013B
:1014D00077FF02C0B0E0A0E00E94B43224EB30E01D
:1014E00040E050E00E948A32C20ED31EE41EF51E78
:1014F000B601E881E03370F5298188E890E0821B2D
:10150000910927FD9395880F991F880F991F6817D8
:1015100079077CF02A8188E592E0821B910927FDFA
:101520009395880F991F880F991F681779070CF4F6
:10153000CB010297880F991F4FB7F8942E2F30E0F8
:10154000F901EE0FFF1FE20FF31FE75DF14F9283EA
:1015500081834FBFDF91CF91FF90EF90DF90CF90CD
:1015600008951F93CF93DF93EC01162F888180336A
:1015700008F04EC061E0812F0E94FD028881282F73
:1015800030E0F901EE0FFF1FE20FF31FE75DF14FAF
:101590001F736081607C612B608319821A822CE04A
:1015A000622F0E945436829FB001112430E020E067
:1015B000AB01420F531FFA01EE0FFF1FE40FF51F9F
:1015C000E75DF14F908196FD16C02F5F3F4F2C30A5
:1015D000310571F7813009F51092800082E0809327
:1015E00081001092850010928400B19A80916F0062
:1015F000826080936F00E8818E2F90E0FC01EE0FF7
:10160000FF1FE80FF91FE75DF14F80818064808341
:101610008881DF91CF911F910895823061F41092FB
:10162000900080939100109295001092940088BBD6
:1016300080937100E0CF833069F41092A00082E0C3
:101640008093A1001092A5001092A40089BB809302
:101650007200D1CF8111CFCF1092200182E0809310
:10166000210110922501109224018ABB80937300FE
:10167000C2CFFC019091DD0D903398F481E0890F89
:101680008093DD0D9083892F90E0FC01EE0FFF1F0A
:10169000E80FF91FE75DF14F88EB9BE092838183B0
:1016A00008958FEF80830895AF92BF92CF92DF921B
:1016B000EF92FF920F931F93CF93DF936B017A0109
:1016C000EC01C752D24F28813CE0389F8001399FFE
:1016D000100D1124A090DD0DB12C27FF1FC0FB01C0
:1016E0001182108288818F5F888388819801280FFA
:1016F000311D87FD3A95F6012A153B051CF48881BA
:101700008C30C4F180819181049680349C4908F426
:1017100073C0F60180819181049670C08881980120
:10172000280F311D87FD3A952A153B05DCF6888187
:10173000A801480F511D87FD5A95FA01EE0FFF1FB2
:10174000E40FF51FE75DF14F808186FFCBCF8881E5
:10175000F801E80FF11D87FDFA95CF01EE0FFF1F8D
:10176000E80FF91FE75DF14F808160E08F730E9401
:10177000CF02B8CF808191812881A801420F511DED
:1017800027FD5A959A01FA01EE0FFF1FE20FF31F92
:10179000E75DF14F21813281820F931FF701918321
:1017A000808388819801280F311D87FD3A95F901C2
:1017B000EE0FFF1FE20FF31FE75DF14F808186FF01
:1017C00022C08881080F111D87FD1A95F801EE0FC0
:1017D000FF1FE00FF11FE75DF14F808161E08F7324
:1017E000DF91CF911F910F91FF90EF90DF90CF90FD
:1017F000BF90AF900C94CF0280E49CE9F7019183F5
:1018000080838FEF8883DF91CF911F910F91FF909D
:10181000EF90DF90CF90BF90AF90089568E070E0B8
:101820008BE690E10E94B10A6AE070E088E690E100
:101830000E94B10A6CE070E085E690E10C94B10A78
:10184000EF92FF920F931F93CF93DF93C3E1D2E008
:101850000FEC1DE0299139913327F901E954FD4F2F
:101860008491F901E55BFC4FE490F901EF56FC4FE0
:10187000F490FF2021F181110E946802EF2DF0E029
:10188000EE0FFF1FE350FD4FA591B491EC91EE22B6
:1018900031E020E009F430E0832F922FF8018193AA
:1018A00091938F01F2E0CD31DF07A1F68FEC9DE03F
:1018B000DF91CF911F910F91FF90EF90089590E0ED
:1018C00080E0ECCF2F923F924F925F926F927F9287
:1018D0008F929F92AF92BF92CF92DF92EF92FF9240
:1018E0000F931F93CF93DF9300D000D01F92CDB7FB
:1018F000DEB77D836C83312C212C88248A94982C2C
:1019000054016C01990FEE08FF0801EB13E02A0166
:10191000550F6608770880910002803239F5ECE7B0
:10192000F2E0F491FE83F7FD70C061E080E20E9476
:10193000FD02FE81F11139C0C982DA82EB82FF8299
:1019400068E478EE81E090E029813A814B815F8103
:101950000E948A32BA01A9014150510961097109F5
:101960009E81992309F4CEC194E03DC08F3F09F0D8
:101970004CC080E280930002ECE7F2E0F491FE8339
:101980008F2FFF3F09F441C0F23009F4C8C008F0BE
:1019900069C0FF2309F48DC0F13009F4A2C087FDAE
:1019A00034C061E080E20E94FD028E81823009F045
:1019B00016C1C982DA82EB82FF8260E970ED83E0B2
:1019C00090E0A70196010E948A32BA01A901415014
:1019D00051096109710993E04F3F51056105710596
:1019E00011F00CF0ADCF8091B100887F892B8093EE
:1019F000B100EE81E23009F475C10CF06BC1EE2349
:101A000009F484C1E13009F401C1C301B2010E94AB
:101A10005E0380E20E949D03C301B2010E945E0347
:101A20008FEF281A380AEC81FD81E215F30509F0E1
:101A300072CF27960FB6F894DEBF0FBECDBFDF91F1
:101A4000CF911F910F91FF90EF90DF90CF90BF90BB
:101A5000AF909F908F907F906F905F904F903F904E
:101A60002F9008959E81943009F49BC008F479C0AA
:101A7000953009F094CF10922001109221018091AD
:101A800021018860809321018091210181608093F0
:101A90002101F8018491E82FF0E0EE0FFF1FEF5CC9
:101AA000FC4F85919491EBE6F3E084918093B60D21
:101AB0003CCF14BC15BC84B5826084BD85B5816003
:101AC00085BDF8018491E82FF0E0EE0FFF1FEF5C79
:101AD000FC4F85919491EBE6F3E084918093BA0DED
:101AE00024CF109280001092810080918100886044
:101AF0008093810080918100816080938100F80152
:101B00008491E82FF0E0EE0FFF1FEF5CFC4F859112
:101B10009491EBE6F3E084918093B90D06CF109297
:101B2000B0001092B1008091B00082608093B0004C
:101B30008091B10081608093B100F8018491E82F19
:101B4000F0E0EE0FFF1FEF5CFC4F859194919093B6
:101B5000230E8093220EEBE6F3E084918093240E13
:101B6000E4CE1092900010929100809191008860D4
:101B70008093910080919100816080939100F801A1
:101B80008491E82FF0E0EE0FFF1FEF5CFC4F859192
:101B90009491EBE6F3E084918093B80DF3E0FE833B
:101BA000C4CE1092A0001092A1008091A100886084
:101BB0008093A1008091A10081608093A100F80131
:101BC0008491E82FF0E0EE0FFF1FEF5CFC4F859152
:101BD0009491EBE6F3E084918093B70DA6CE60E09C
:101BE00072E18AE790E0A70196010E948A32BA0169
:101BF000A9014150510961097109EE81E130C1F437
:101C000080918100887F816080938100509389005A
:101C1000409388008092C70D9092C80DA092C90D84
:101C2000B092CA0D80916F00826080936F00EDCEFC
:101C3000FE81F330C1F480919100887F81608093B0
:101C4000910050939900409398008092C30D909218
:101C5000C40DA092C50DB092C60D80917100826036
:101C600080937100D2CE8E818430C1F48091A10026
:101C7000887F81608093A1005093A9004093A800C1
:101C80008092BF0D9092C00DA092C10DB092C20D76
:101C900080917200826080937200B7CE9E819530F1
:101CA00009F0A7CE80912101887F81608093210176
:101CB00050932901409328018092BB0D9092BC0D56
:101CC000A092BD0DB092BE0D809173008260809392
:101CD00073009BCEFE81F43079F20CF4B2CFF53074
:101CE00039F393CE4093B3008092250E9092260E46
:101CF000A092270EB092280E80917000826080938F
:101D0000700083CE85B5887F836085BD47BD809296
:101D1000CB0D9092CC0DA092CD0DB092CE0D8091B6
:101D20006E00826080936E0070CE7F928F929F9241
:101D3000AF92BF92CF92DF92EF92FF920F931F93D9
:101D4000CF93DF93EC01062F142F188A19AE1AAE29
:101D50000E94EF07882309F457C0602F660F616067
:101D6000CE010E94400981114BC0188A7E01A12E2C
:101D7000B12CD12CC12C450181E0881A9108CA14DC
:101D8000DB0459F100E088E0782EC814D904DCF4B3
:101D9000000FCE010E945008082B7A947110F8CFE2
:101DA00060E0CE010E94C00889899A89009711F0ED
:101DB0000E942E03F701018FFFEFCF1ADF0A8FEF8A
:101DC000E81AF80ADCCF000FCE010E945008082B59
:101DD0007A947110F8CF61E0E4CF19AFCE010E9480
:101DE0006D07812FDF91CF911F910F91FF90EF90A1
:101DF000DF90CF90BF90AF909F908F907F9008958D
:101E000082E0888B10E0EACF84E0FBCF4F925F92B4
:101E10006F927F928F929F92AF92BF92CF92DF92FA
:101E2000EF92FF920F931F93CF93DF93CDB7DEB75F
:101E30002E970FB6F894DEBF0FBECDBF80910A106B
:101E400090910B1020910C1031E030933C0F2093B7
:101E50005E0F10923D0F10925F0FDC01ED91FC912F
:101E60000190F081E02D6BE3199580E00E94A205BE
:101E700010910C100E9439034B015C018091360FC8
:101E8000811166C081E08093360F8093350F9FEFFC
:101E90009093340F1092330F9DE09093320F809304
:101EA000110F8091110F110F182B1093110F8091AA
:101EB000100F813009F0A9C11092100F0E94390350
:101EC0004B015C018091110F8093BB008091380F12
:101ED0009091390FA0913A0FB0913B0F892B8A2B2B
:101EE0008B2BA1F00E9439030091380F1091390F0C
:101EF00020913A0F30913B0F681979098A099B09A3
:101F0000061717072807390708F443C08091BC005B
:101F100083FDD8CF85EC8093BC000E9439034B0130
:101F20005C018091360F813009F471C18091330FCB
:101F30008E3008F08EC18091330FA2E1BFE0E0EF58
:101F4000FEE090E0981751F12D9121939F5FFACF19
:101F50008091380F9091390FA0913A0FB0913B0FBB
:101F6000892B8A2B8B2B09F489CF0E94390340904F
:101F7000380F5090390F60903A0F70903B0F6819EE
:101F800079098A099B09461657066806790608F0FA
:101F900075CF8091370F0E94630580E01092EF0E9D
:101FA0008093EE0E8E010F5F1F4F6E01BFE0CB0ED0
:101FB000D11C80910A1090910B10DC01ED91FC91E5
:101FC0000284F385E02D1995B82E80910A10909126
:101FD0000B10DC01ED91FC910284F385E02D199545
:101FE000E12C8E299B29F801819391938F01CE16C4
:101FF000DF06F9F6C0901110D0901210E090131087
:10200000F090141069817A81072E000C880B990BCF
:102010000E945431A70196010E94CC3320912110D7
:102020003091221040912310509124100E94ED32E3
:10203000609331107093321080933310909334106A
:102040006B817C81072E000C880B990B0E94543108
:10205000A70196010E94CC332091251030912610C3
:1020600040912710509128100E94ED326093351056
:102070007093361080933710909338108091091028
:1020800061E06827681B770B072E000C880B990B03
:102090000E9454314B015C016D817E81072E000C42
:1020A000880B990B0E9454319B01AC01C501B4010E
:1020B0000E94B331A70196010E94CC3320912910D0
:1020C00030912A1040912B1050912C100E94ED322B
:1020D0006093391070933A1080933B1090933C10AA
:1020E0006F817885072E000C880B990B0E94543164
:1020F00020E030EF41E456E40E94EE3220E030E090
:102100004AEA53E40E94CC3360932D1070932E1052
:1021100080932F1090933010C0900D10D0900E101F
:10212000E0900F10F090101069857A85072E000C52
:10213000880B990B0E945431A70196010E94CC3361
:1021400020911510309116104091171050911810D1
:102150000E94ED3260933D1070933E1080933F10CB
:10216000909340106B857C85072E000C880B990B93
:102170000E945431A70196010E94CC33209119107E
:1021800030911A1040911B1050911C100E94ED329A
:1021900060934110709342108093431090934410C9
:1021A0006D857E85072E000C880B990B0E9454319B
:1021B000A70196010E94CC3320911D1030911E1072
:1021C00040911F10509120100E94ED3260934510F5
:1021D0007093461080934710909348102E960FB638
:1021E000F894DEBF0FBECDBFDF91CF911F910F914D
:1021F000FF90EF90DF90CF90BF90AF909F908F9027
:102200007F906F905F904F90089585EE84CE80917F
:10221000380F9091390FA0913A0FB0913B0F892B55
:102220008A2B8B2B09F47DCE0E9439030091380F45
:102230001091390F20913A0F30913B0F68197909AD
:102240008A099B09061717072807390708F069CE7E
:10225000A0CE8EE072CE0F931F93CF93DF93162FF5
:10226000022FEC01279669E2CE010E946A09612FD4
:102270006068CE010E945609602FCE010E94560967
:10228000CE01DF91CF911F910F910C946D07FF92BA
:102290000F931F93CF93DF93EC01F62E8C01095F10
:1022A0001F4F69E2C8010E946A096F2D6068C8016A
:1022B0000E945609C8010E946D0742E069E2C80108
:1022C0000E94950EFE01E05CFF4F80813196908167
:1022D0002FEF3FEF981740F4DE01A90FB11D909644
:1022E0002C9130E09F5F908390814FEF5FEF9817C4
:1022F00028F4C90FD11D48A19F5F908380E0942FDF
:10230000822B932BDF91CF911F910F91FF90089516
:10231000FC0101900020E9F73197AF01481B590BF0
:10232000BC0180E69FE00C94E20381E492E00C940F
:1023300088118F929F92AF92BF920F931F93CF936A
:10234000DF93CDB7DEB7A1970FB6F894DEBF0FBE0F
:10235000CDBF19A2423008F44AE08E010F5D1F4F35
:10236000842E912CB12CA12CA50194010E94BC3289
:10237000E62FB901CA01EA30F4F4E05DD801EE932A
:102380008D01232B242B252B79F790E080E01097EB
:1023900019F0CD010E948811A1960FB6F894DEBF06
:1023A0000FBECDBFDF91CF911F910F91BF90AF9026
:1023B0009F908F900895E95CE1CFBC0190E080E0B0
:1023C0004AE00C949911CF93DF930E94DD11EC0148
:1023D0000E9495118C0F9D1FDF91CF910895CF9290
:1023E000DF92EF92FF92CF93DF936C01990FEE088B
:1023F000FF08F7FE19C06DE280E69FE00E94AA0484
:10240000EC0166277727CB016C197D098E099F099E
:102410004AE00E9499118C0F9D1FDF91CF91FF9090
:10242000EF90DF90CF9008954AE0C701B601DF91A9
:10243000CF91FF90EF90DF90CF900C949911CF93B4
:10244000DF930E94EF11EC010E9495118C0F9D1FEC
:10245000DF91CF910895BF92CF92DF92EF92FF92DA
:102460000F931F93CF93DF93EC016C0187E0C80EAD
:10247000D11C7E01E0E4EE0EF11CF70110828E010A
:102480000F5B1F4FF8011082E989FA8990818A85D4
:102490008095892380838A8D882331F0ED85FE85A0
:1024A00080819A85892B8083888D998D009711F082
:1024B0000E942E03EF85F889908189858095892374
:1024C00080838A8D882331F0EB85FC858081998516
:1024D000892B808384E0B82E888D998D009711F028
:1024E0000E942E03BA94B110F7CF8A8D882331F061
:1024F00062E070E080E090E00E945E0369E2C60165
:102500000E946A0962E9C6010E945609C6010E943A
:102510006D0741E069E2C6010E94950EF801208135
:10252000F7018081281708F053C0FE01E20FF11D6A
:1025300080A12F5FF8012083182F682F70E090E0B2
:1025400080E040E10E9499110E94951180E01434CE
:10255000A9F581E088830B811C81980150E040E05F
:1025600061E0CE010E942B111C830B8309811A812B
:102570008881811103C0CE010E942B12980150E086
:1025800040E06FE0CE010E942B111A83098321E005
:1025900030E040E050E060E0CE010E942B1163E0AB
:1025A00070E080E090E00E945E0323E030E040E0D5
:1025B00050E060E0CE010E942B1181E0DF91CF91CD
:1025C0001F910F91FF90EF90DF90CF90BF900895F3
:1025D0008FEF9FEFB1CFAF92BF92CF92DF92EF928A
:1025E000FF920F931F93CF93DF93EC015B016A017E
:1025F00079018881811103C0CE010E942B1264E110
:10260000CE010E944711F8019183808366E1CE01DB
:102610000E944711F5019183808368E1CE010E94F9
:102620004711F601918380836AE1CE010E94471130
:10263000F701918380838B819C81853D9105A1F178
:1026400080F40097D9F1803C910599F1DF91CF9109
:102650001F910F91FF90EF90DF90CF90BF90AF90C0
:102660000895863F9105D9F08F3F910541F08B3E4B
:10267000910561F762E370E080E090E004C063E000
:1026800070E080E090E0DF91CF911F910F91FF907B
:10269000EF90DF90CF90BF90AF900C945E0368E115
:1026A00070E080E090E0EFCF65E670E080E090E0E1
:1026B000EACF6AE970E080E090E0E5CF6CEB72E091
:1026C00080E090E0E0CFCF93DF930E948811EC018F
:1026D0000E9495118C0F9D1FDF91CF91089584E486
:1026E00092E00E94631381E692E00E94631389E7FF
:1026F00092E00E94631381E992E00E94631389EAE9
:1027000092E00E9463138FEB92E00E94631385EDC9
:1027100092E00E94631383EF92E00E94631380E1D2
:1027200093E00E94631386E293E00E94631387E4C0
:1027300093E00C94631384E693E00E9463136AE5CC
:1027400070E088E690E10E94350A6AE570E085E66F
:1027500090E10E94350A68EE73E080E090E00C940E
:102760005E0360EA70E081E790E10E94350A64E16F
:1027700070E08EE690E10E94350A83E793E00C94C6
:1027800063130C9488110F931F9305EC1EE027EC44
:102790003EE049EC5EE06BEC7EE086EB90E10E946F
:1027A000EB124091C70E5091C80E6091C90E709106
:1027B000CA0E8091CB0E9091CC0E0E942102909374
:1027C000C40E8093C30E0BEB1EE02DEB3EE04FEBEF
:1027D0005EE061EC7EE084E790E10E94EB124091C4
:1027E000BD0E5091BE0E6091BF0E7091C00E8091D3
:1027F000C10E9091C20E0E9421029093BA0E809356
:10280000B90E86E893E00E9463138AE993E00E9480
:10281000C1138091C30E9091C40E0E94DD1180EA15
:1028200093E00E94C11382EE99E00E94C11380914F
:10283000CB0E9091CC0E0E94DD1182EA93E00E94B3
:10284000C11389EE99E00E94C1138091C90E909145
:10285000CA0E0E94DD1182EA93E00E94C11380EF4C
:1028600099E00E94C1138091C70E9091C80E0E94FA
:10287000DD1182EA93E00E94C11387EF99E00E9484
:10288000C1138091C50E9091C60E0E94DD1182EA9F
:1028900093E00E94C11382EA93E00E94631384EAEA
:1028A00093E00E9463138AE993E00E94C113809130
:1028B000B90E9091BA0E0E94DD1180EA93E00E9459
:1028C000C11382EE99E00E94C1138091C10E9091D4
:1028D000C20E0E94DD1182EA93E00E94C11389EECC
:1028E00099E00E94C1138091BF0E9091C00E0E948A
:1028F000DD1182EA93E00E94C11380EF99E00E940B
:10290000C1138091BD0E9091BE0E0E94DD1182EA2E
:1029100093E00E94C11387EF99E00E94C113809158
:10292000BB0E9091BC0E0E94DD1182EA93E00E94E2
:10293000C11382EA93E00E94631389EB93E00E9443
:10294000631383ED93E00E94C1138091BF0E9091B9
:10295000C00E2091C10E3091C20E821B930B0E94BB
:10296000E3118CED93E00E94C1138091BF0E909112
:10297000C00E2091BD0E3091BE0E821B930B0E94A3
:10298000E31185EE93E00E94631383ED93E00E94D0
:10299000C1138091C90E9091CA0E2091CB0E309137
:1029A000CC0E821B930B0E94E3118CED93E00E94EE
:1029B000C1138091C90E9091CA0E2091C70E30911B
:1029C000C80E821B930B0E94E31164EF71E080E05C
:1029D00090E00E945E031F910F9108954F925F92C5
:1029E0006F927F928F929F92AF92BF92CF92DF921F
:1029F000EF92FF920F931F93CF936B017C01742E84
:102A0000AC019B010E944235882399F08EEF93E040
:102A1000CF911F910F91FF90EF90DF90CF90BF90DB
:102A2000AF909F908F907F906F905F904F900C949D
:102A3000881146015701E894B7F82FEF3FEF4FE7B1
:102A40005FE7C501B4010E94423581110DC02FEF2F
:102A50003FEF4FE75FE7C501B4010E944D31181603
:102A60001CF482E094E0D4CF2FEF3FEF4FE75FE418
:102A7000C701B6010E949B3418161CF486E094E04E
:102A8000C7CF2FEF3FEF4FE75FECC701B6010E94C2
:102A90004D3187FDF3CF20E030E0A901C701B60139
:102AA0000E944D3110E000E087FF0AC06DE280E631
:102AB0009FE00E94AA048C01F7FAF094F7F8F094D2
:102AC000C0E060E070E080E09FE37C1641F020E031
:102AD00030E040E251E40E94CC33CF5FF6CFA70153
:102AE00096010E94EE322B013C010E9445344B01BD
:102AF0005C014AE00E9499117C01E00EF11ECC239A
:102B0000A9F1C501B4010E9452319B01AC01C3017E
:102B1000B2010E94ED324B015C016EE280E69FE063
:102B20000E94AA04E80EF91EC15000F120E030E036
:102B300040E251E4C501B4010E94B3312B013C01D4
:102B40000E9445344B01CB010E94DD11E80EF91EB5
:102B5000B40190E080E00E9452319B01AC01C301BE
:102B6000B2010E94ED324B015C01DECFC701CF9173
:102B70001F910F91FF90EF90DF90CF90BF90AF909B
:102B80009F908F907F906F905F904F9008954F929D
:102B90005F926F927F928F929F92AF92BF92CF92ED
:102BA000DF92EF92FF920F931F93CF93DF93CDB7F6
:102BB000DEB72C970FB6F894DEBF0FBECDBF0E94D4
:102BC000060FC0903910D0903A10E0903B10F09072
:102BD0003C1021E030E03A83298320E030E0A90175
:102BE000C701B6010E949B3487FF02C01A82198276
:102BF00001E010E020E030E0A901C701B6010E9429
:102C00004D3187FD02C010E000E069817A81601BD0
:102C1000710B072E000C880B990B0E9454316D83A9
:102C20007E838F839887A7019601C701B6010E9412
:102C3000B3312B013C01C0903110D0903210E090A4
:102C40003310F0903410A7019601C701B6010E941D
:102C5000B331A30192010E94EE320E94FE349B0127
:102C6000AC018090351090903610A0903710B09045
:102C700038106D817E818F8198850E94B3319B01D0
:102C8000AC01C501B4010E946D3321EE3EE245E680
:102C900052E40E94B3316093491070934A108093BC
:102CA0004B1090934C10A5019401C501B4010E94F2
:102CB000B331A30192010E94EE320E94FE349B01C7
:102CC000AC01C701B6010E946D33905821EE3EE27F
:102CD00045E652E40E94B33160934D1070934E105C
:102CE00080934F10909350100E9491036B017C01D0
:102CF00080915D1090915E10A0915F10B091601076
:102D0000A7019601281B390B4A0B5B0BCA01B901BD
:102D10000E9452312FE632E143E85AE30E94B33178
:102D20004B015C01C0925D10D0925E10E0925F108A
:102D3000F09260108091611090916210A0916310E8
:102D4000B091641089839A83AB83BC83409049100F
:102D500050904A1060904B1070904C1020913D1094
:102D600030913E1040913F1050914010C501B40188
:102D70000E94B33120915110309152104091531064
:102D8000509154100E94EE32A30192010E94ED3244
:102D90006B017C0120E030E044E353E40E949B346B
:102DA00018163CF420E030E044EB53E4C701B601D0
:102DB000EDCF20E030E044E353ECC701B6010E94C0
:102DC0004D3187FF0BC020E030E044EB53E4C701F6
:102DD000B6010E94EE326B017C01EBCF29813A8172
:102DE0004B815C8160E070E080E89FE30E94ED32FF
:102DF00069877A878B879C87A7019601C301B201F7
:102E00000E94EE3229813A814B815C810E94B3316C
:102E10006B017C0129853A854B855C85C301B20134
:102E20000E94B3319B01AC01C701B6010E94EE3292
:102E30006B017C0120E030E044E353E40E949B34CA
:102E400018164CF420E030E044EB53E4C701B6011F
:102E50000E94ED32EDCF20E030E044E353ECC701B7
:102E6000B6010E944D3187FF0BC020E030E044EBFB
:102E700053E4C701B6010E94EE326B017C01EBCF37
:102E8000C0925110D0925210E0925310F092541010
:102E900040904D1050904E1060904F107090501018
:102EA00020914110309142104091431050914410B4
:102EB0006D817E818F8198850E94B331A501940137
:102EC0000E94B33120915510309156104091571007
:102ED000509158100E94EE32A30192010E94ED32EF
:102EE0006B017C0120E030E044EB52E40E949B3413
:102EF00018163CF420E030E044E353E4C701B60187
:102F0000EDCF20E030E044EB52ECC701B6010E9467
:102F10004D3187FF0BC020E030E044E353E4C701AC
:102F2000B6010E94EE326B017C01EBCFA701960146
:102F3000C301B2010E94EE3229813A814B815C814A
:102F40000E94B3316B017C01A301920169857A85EE
:102F50008B859C850E94B3319B01AC01C701B601F2
:102F60000E94EE326B017C0120E030E044EB52E441
:102F70000E949B3418164CF420E030E044E353E404
:102F8000C701B6010E94ED32EDCF20E030E044EB06
:102F900052ECC701B6010E944D3187FF0BC020E003
:102FA00030E044E353E4C701B6010E94EE326B0106
:102FB0007C01EBCFC0925510D0925610E092571082
:102FC000F0925810209145103091461040914710D2
:102FD00050914810C501B4010E94B331209159109D
:102FE00030915A1040915B1050915C100E94EE326B
:102FF0006093591070935A1080935B1090935C10FB
:103000002C960FB6F894DEBF0FBECDBFDF91CF91E7
:103010001F910F91FF90EF90DF90CF90BF90AF90F6
:103020009F908F907F906F905F904F9008950E9437
:10303000C7156091591070915A1080915B10909152
:103040005C100E943E34CB010895EF92FF920F93E3
:103050001F93CF93DF938AE094E00E94631368E7A5
:1030600070E081E790E10E94350A6CE370E08EE643
:1030700090E10E94350A0E94C71566E970E080E081
:1030800090E00E945E036AE570E081E790E10E94B3
:10309000350A6AE570E08EE690E10E94350A05EC9B
:1030A0001EE027EC3EE049EC5EE06BEC7EE086EB58
:1030B00090E10E94EB124091C70E5091C80E6091B2
:1030C000C90E7091CA0E8091CB0E9091CC0E0E94C9
:1030D00021029093C40E8093C30E0BEB1EE02DEBE8
:1030E0003EE04FEB5EE061EC7EE084E790E10E9421
:1030F000EB12E090BD0EF090BE0EC091BF0ED091CD
:10310000C00E0091C10E1091C20EA701BE01C801F0
:103110000E942102FC019093BA0E8093B90E409157
:10312000C50E5091C60E6091BB0E7091BC0E493E0B
:1031300083E058072CF0693E83E078070CF033C138
:103140002091C90E3091CA0E8091CB0E9091CC0E79
:103150008217930788F5A091C70EB091C80EA217E9
:10316000B30750F5281B390B8091010290910202A0
:103170008217930708F5809105029091060248177F
:103180005907D4F0809103029091040284179507A7
:103190009CF08091C30E9091C40E20910902309151
:1031A0000A028217930744F021E0A0910702B09130
:1031B0000802A817B9070CF420E00C171D0748F502
:1031C000EC16FD0630F5C01BD10B809101029091E9
:1031D00002028C179D07E8F4809105029091060287
:1031E00068177907B4F08091030290910402861762
:1031F00097077CF08091090290910A02E817F9077D
:1032000044F091E0A0910702B0910802AE17BF0709
:103210000CF490E0461B570B57FF03C051954195A6
:103220005109443651050CF053C0222309F4DBC088
:10323000992309F450C085E194E00E94C11389E20A
:1032400094E00E94C1138091DE0E9091DF0E0E94E7
:10325000EF1187E99DE00E94C1130E9417180E9498
:103260001F1262E370E081E790E10E94350A62E399
:1032700070E08EE690E10E94350A44E650E063E09B
:1032800070E088EE93E00E94620CC091DE0ED09157
:10329000DF0ECF5AD1090E9417188C179D070CF426
:1032A0005EC00E94C7158AE394E00E94C1130E9489
:1032B00017180E94EF1187E694E00E94C1138091D5
:1032C000DE0E9091DF0E8F5A91090E941F12DDCF02
:1032D000222309F488C083E794E00E94631368E71F
:1032E00070E081E790E10E94350A6CE370E08EE6C1
:1032F00090E10E94350A60E070E0CB010E945E031D
:103300006CE370E081E790E10E94350A6CE370E0C5
:103310008EE690E10E94350AC091DE0ED091DF0E5C
:10332000CA55D1090E941718C817D9070CF042C016
:103330000E94C71585E894E00E94C1130E941718E7
:103340000E94EF1187E694E00E94C1138091DE0E87
:103350009091DF0E8A5591090E941F12DDCF68E718
:1033600070E081E790E10E94350A6CE370E08EE640
:1033700090E10E94350A60ED77E080E090E00E94E5
:103380005E038091DE0E9091DF0E8F5A910990932B
:10339000DF0E8093DE0E1092D80E1092D90E10928E
:1033A000DA0E1092DB0EDF91CF911F910F91FF90FB
:1033B000EF90089568E770E081E790E10E94350A98
:1033C0006CE370E08EE690E10E94350A60ED77E0F4
:1033D00080E090E00E945E038091DE0E9091DF0E0F
:1033E0008A559109D4CF9923F1F28BEB94E00E9496
:1033F000631368E770E081E790E10E94350A6CE3AF
:1034000070E08EE690E10E94350A60E070E0CB014A
:103410000E945E030E9417189093DF0E8093DE0EC9
:1034200068E770E081E790E10E94350A68E770E0A4
:103430008EE690E10E94350AC091DE0ED091DF0E3B
:10344000C65ADF4F0E9417188C179D07BCF40E94C4
:10345000C7158EEC94E00E94C1130E9417180E94B9
:10346000EF1187E694E00E94C1138091DE0E9091E7
:10347000DF0E865A9F4F0E941F12DECF68E770E072
:1034800081E790E10E94350A6CE370E08EE690E1FE
:103490000E94350A60ED77E080E090E00E945E03D4
:1034A0008091DE0E9091DF0E865A9F4F70CF0F9362
:1034B0001F93CF93DF93EC0188819981009759F096
:1034C0002A813B812617370730F081E0DF91CF91C9
:1034D0001F910F9108958B016F5F7F4F0E94BC3742
:1034E000009759F0998388831B830A832C813D813F
:1034F000232B59F7FC011082E8CF80E0E7CFCF9271
:10350000DF92EF92FF92CF93DF93CDB7DEB7E297D2
:103510000FB6F894DEBF0FBECDBFDC01AE014D5C2F
:103520005F4FFE0131969C91963308F0965320919F
:103530007B00892F8870277F822B80937B002091CE
:103540000C0280E4289F900111249770922B909395
:103550007C0090917A00906490937A0080917A0038
:1035600086FDFCCF809178009091790081939193B2
:103570004E175F07C1F628E130E0FE01319650E0BA
:1035800040E081E04217530784F4E080F180C2807C
:10359000D380CE14DF042CF4D182C082F382E28285
:1035A00080E04F5F5F4F3296EDCF811103C0215015
:1035B000310919F712968D919D910D90BC91A02D16
:1035C000883324E09207A105B10591F5A98DBA8D44
:1035D00028E833E10E947C362FEF33E040E050E0F2
:1035E0000E948A32CA01B9010E94543120E030E0C1
:1035F0004AE754E40E94CC332EE03DE24AE95FEB17
:103600000E94A83422EF32ED4DED51E40E94B33117
:103610000E943E34CB01E2960FB6F894DEBF0FBE97
:10362000CDBFDF91CF91FF90EF90DF90CF900895C5
:10363000863B2EE49207A105B10509F5A98DBA8D47
:1036400028E833E10E947C362FEF33E040E050E081
:103650000E948A32CA01B9010E94543120E030E050
:103660004AE754E40E94CC3321EE3AE744E95FEBA9
:103670000E94A8342AEF3EE741E752E4C7CF8E3AD2
:1036800021E09207A105B10509F5A98DBA8D28E8B9
:1036900033E10E947C362FEF33E040E050E00E949F
:1036A0008A32CA01B9010E94543120E030E04AE771
:1036B00054E40E94CC332BE83CE647E85FEB0E94E1
:1036C000A8342EEA37E441E451E4A0CF8439984885
:1036D000A140B10509F09ECFA98DBA8D28E833E14C
:1036E0000E947C362FEF33E040E050E00E948A32A7
:1036F000CA01B9010E9454316B017C0120E030E025
:103700004FEA54E40E944D3187FD27C020E030E4A9
:103710004EE455E4C701B6010E949B341816ECF044
:1037200020E030EA4CE854E4C701B6010E94ED32D3
:1037300020E030E04AE754E40E94CC3320E030E857
:1037400049E053E40E94CC339B01AC0160E070E09F
:1037500080E89FE30E94CC335BCF70E060E05ACFFB
:10376000CF92DF92EF92FF920F931F93CF93DF934D
:1037700005EC1EE027EC3EE049EC5EE06BEC7EE001
:1037800086EB90E10E94EB124091C70E5091C80E5B
:103790006091C90E7091CA0E8091CB0E9091CC0EA3
:1037A0000E9421029093C40E8093C30E0BEB1EE087
:1037B0002DEB3EE04FEB5EE061EC7EE084E790E1D4
:1037C0000E94EB12E090BD0EF090BE0E0091BF0E75
:1037D0001091C00EC091C10ED091C20EA701B801C8
:1037E000CE010E9421029093BA0E8093B90EE0910F
:1037F000C50EF091C60E4091BB0E5091BC0E60916B
:10380000C30E7091C40E2091CB0E3091CC0EA091BE
:10381000C90EB091CA0EA217B307B8F4C090C70E74
:10382000D090C80EC216D30680F42A1B3B0B293257
:10383000310558F0E059F140EB3FF10530F46456A2
:1038400071096333710508F4B9C10C171D0708F03D
:1038500009C120E0EC16FD0608F4B7C103C16AE512
:1038600070E08EE690E10E94350A6AE570E081E73B
:1038700090E10E94350A88EF90E10E947F1AEC01E6
:103880008EEF90E10E947F1A8C179D070CF0A1C06B
:1038900084EC94E00E94631368E770E081E790E1B4
:1038A0000E94350A68E770E08EE690E10E94350AD2
:1038B000C091DE0ED091DF0EC65ADF4F0E9417185E
:1038C0008C179D07ACF486ED94E00E94C1130E9412
:1038D00017180E94EF1187E694E00E94C1138091AF
:1038E000DE0E9091DF0E865A9F4F0E941F12E0CF8E
:1038F0008091DE0E9091DF0E865A9F4F9093DF0EDF
:103900008093DE0E6AE570E08EE690E10E94350A53
:103910006AE570E081E790E10E94350A0E949B13FE
:1039200068EE73E080E090E00E945E038BE995E032
:103930000E9463136AE570E08BE690E10E94350A0D
:1039400060ED77E080E090E00E945E0368EE73E057
:1039500080E090E00E945E03E09168108E2F90E07E
:10396000FC01EE0FFF1FE80FF91FE75DF14F8081AB
:103970008F7B8083E09165108E2F90E0FC01EE0F2D
:10398000FF1FE80FF91FE75DF14F80818F7B808378
:1039900068E770E08EE690E10E94350A6CE370E023
:1039A00081E790E10E94350A60ED77E080E090E0E9
:1039B0000E945E030E9417189093DF0E8093DE0E24
:1039C000DF91CF911F910F91FF90EF90DF90CF90FB
:1039D0000895C817D9070CF0A1CF8CE794E00E9496
:1039E00063136CE370E081E790E10E94350A6CE3B9
:1039F00070E08EE690E10E94350AC091DE0ED09113
:103A0000DF0ECA55D1090E941718C817D907ACF4A0
:103A10008DE894E00E94C1130E9417180E94EF11D4
:103A200087E694E00E94C1138091DE0E9091DF0E34
:103A30008A5591090E941F12E0CF8091DE0E90916D
:103A4000DF0E8A5591095ACF86EA95E0DF91CF9132
:103A50001F910F91FF90EF90DF90CF900C94631324
:103A60002111C3C08DE295E00E9463132091BB0E2B
:103A70003091BC0E4091C30E5091C40E8091B90E8E
:103A80009091BA0E6091C50E7091C60E665272404A
:103A90006536710528F44E5651094B35510550F0E5
:103AA000265232402536310578F68E5691098B35EF
:103AB000910550F68EE395E00E9463138FE495E044
:103AC0000E9463136AE570E081E790E10E94350A85
:103AD0006AE570E08EE690E10E94350A44E650E027
:103AE00062E070E084EF91E00E94620C8AE090E076
:103AF0000E945A21EC018C0197FF02C00F5F1F4FFB
:103B0000159507950E940E0C81E695E00E946313BF
:103B100070E060E088E690E10E94350A64EB70E0B6
:103B200085E690E10E94350A68EE73E080E090E05F
:103B30000E945E038FE695E00E94631364EB70E0E1
:103B40008BE690E10E94350A60ED77E080E090E03E
:103B50000E945E036CED75E080E090E00E945E03E1
:103B60008CE294E00E94C1138091DE0E9091DF0EF2
:103B70000E94EF1187E99DE00E94C1130E9417186F
:103B80000E941F12C017D1070CF469CE85E090E0A7
:103B90000E945A21EC018EE795E00E94C113CE01EC
:103BA0000E94EF1181E995E00E94C113C8010E94B3
:103BB0001F120E94B1130E94C715E4CF0C171D07F6
:103BC000A0F4EC16FD0688F421E0C01BD10BA997E8
:103BD00008F446CF405951404B3F510508F040CFC3
:103BE00084569109C39708F03BCF85E095E00E9489
:103BF00063136AE570E081E790E10E94350A6AE5A7
:103C000070E08EE690E10E94350A89E195E0EFCF01
:103C100085ED8093BC008091380F9091390FA09171
:103C20003A0FB0913B0F0796A11DB11D23E0B69549
:103C3000A795979587952A95D1F72091BC0024FDEB
:103C400003C01092360F08954091380F5091390FEC
:103C500060913A0F70913B0F452B462B472B69F330
:103C60000097A105B10541F02AE22A95F1F700C0BD
:103C70000197A109B109E1CF8091370F0C94630539
:103C80000F931F93CF93DF938C01EB010E9474324B
:103C90008883C80101960E9474328983CE01DF9126
:103CA000CF911F910F910895FF920F931F93CF9380
:103CB000DF93EC018B01FB01F0800E947432F81657
:103CC00021F06F2DCE010E947C32F801F180219607
:103CD000CE010E947432F81621F06F2DCE010E94A1
:103CE0007C32C801DF91CF911F910F91FF90089511
:103CF0001F920F920FB60F9211242F933F938F9321
:103D00009F93AF93BF938091E60E9091E70EA091A1
:103D1000E80EB091E90E3091E50E23E0230F2D3728
:103D200058F50196A11DB11D2093E50E8093E60E76
:103D30009093E70EA093E80EB093E90E8091EA0EFF
:103D40009091EB0EA091EC0EB091ED0E0196A11D9D
:103D5000B11D8093EA0E9093EB0EA093EC0EB093FE
:103D6000ED0EBF91AF919F918F913F912F910F9049
:103D70000FBE0F901F90189526E8230F0296A11DE5
:103D8000B11DD2CF1F920F920FB60F9211240BB616
:103D90000F922F933F934F935F936F937F938F93E4
:103DA0009F93AF93BF93EF93FF938091250E9091D4
:103DB000260EA091270EB091280E892B8A2B8B2BD3
:103DC000E1F19091240EE091220EF091230E80817A
:103DD000892780838091250E9091260EA091270E31
:103DE000B091280E181619061A061B069CF480912D
:103DF000250E9091260EA091270EB091280E0197C6
:103E0000A109B1098093250E9093260EA093270E49
:103E1000B093280EFF91EF91BF91AF919F918F9139
:103E20007F916F915F914F913F912F910F900BBEBA
:103E30000F900FBE0F901F901895809100020E9466
:103E40009D03E8CF1F920F920FB60F9211240BB66D
:103E50000F922F933F934F935F936F937F938F9323
:103E60009F93AF93BF93EF93FF9380E69FE00E94F1
:103E70008804FF91EF91BF91AF919F918F917F91B6
:103E80006F915F914F913F912F910F900BBE0F90CB
:103E90000FBE0F901F9018951F920F920FB60F92A2
:103EA00011240BB60F922F938F939F93EF93FF9351
:103EB000E091700FF091710F8081E091760FF09199
:103EC000770F82FD1DC090818091790F8F5F8F7376
:103ED00020917A0F821741F0E091790FF0E0E05ADB
:103EE000F04F958F8093790FFF91EF919F918F9174
:103EF0002F910F900BBE0F900FBE0F901F90189533
:103F00008081F2CF1F920F920FB60F9211240BB641
:103F10000F922F933F934F935F936F937F938F9362
:103F20009F93AF93BF93EF93FF938091B900887FE6
:103F3000803609F44DC008F040C0883209F4A7C0AB
:103F400028F5803109F49BC0C8F4882309F4F7C030
:103F5000883009F494C0FF91EF91BF91AF919F9188
:103F60008F917F916F915F914F913F912F910F9022
:103F70000BBE0F900FBE0F901F901895883109F45B
:103F800086C0803241F78093340F14C0803409F426
:103F90009BC040F48033B9F38833E9F68093340F43
:103FA00085ECAEC0803509F483C0883509F494C02F
:103FB000883489F60E94081ECECF883909F48AC059
:103FC00038F5883729F050F4883611F0803719F623
:103FD00083E08093360F1092210E55C0883809F483
:103FE00079C0803919F0803809F0B5CF8091210E61
:103FF000803208F06FC0E091210E81E08E0F809337
:10400000210E8091BB00F0E0EF5FF14F80833BC059
:10401000803B39F0D0F4803A09F477C0883A09F04F
:104020009ACF84E08093360F1092000E1092FF0D0D
:10403000F0E0E0E019958091FF0D81110FC081E063
:104040008093FF0D1092DF0D09C0803C09F4A8CFCA
:10405000883C09F4A5CF883B09F07DCFE091000EA4
:1040600081E08E0F8093000EF0E0E152F24F8081EC
:104070008093BB009091000E8091FF0D29C080912C
:10408000110F8093BB0085EC8093BC0064CF9091AE
:10409000330F8091320F981758F5E091330F81E07C
:1040A0008E0F8093330FF0E0EE5EF04F8081E9CF0A
:1040B000E091330F81E08E0F8093330F8091BB002E
:1040C000F0E0EE5EF04F80839091330F8091320FDD
:1040D0009817C8F285E8D8CFE091330F81E08E0FB2
:1040E0008093330F8091BB00F0E0EE5EF04F808351
:1040F0008091350F81115ECF81E08093100F84EAAB
:104100008093BC001092360F26CF85EC8093BC00C4
:104110001092360F8091210E803230F4E091210E02
:10412000F0E0EF5FF14F10826091210E70E081E0CE
:104130009EE0F0E0E0E019951092210E0CCF109275
:10414000340F38CF1F920F920FB60F9211240BB677
:104150000F922F933F934F935F936F937F938F9320
:104160009F93AF93BF93EF93FF9348E251E064E2D4
:1041700071E090E080E00E94540BFF91EF91BF91BD
:10418000AF919F918F917F916F915F914F913F91EF
:104190002F910F900BBE0F900FBE0F901F90189590
:1041A0001F920F920FB60F9211240BB60F922F93FE
:1041B0003F934F935F936F937F938F939F93AF93AF
:1041C000BF93EF93FF9348EA50E064EA70E083E026
:1041D00090E00E94540BFF91EF91BF91AF919F919E
:1041E0008F917F916F915F914F913F912F910F90A0
:1041F0000BBE0F900FBE0F901F9018951F920F923D
:104200000FB60F9211240BB60F922F933F934F933B
:104210005F936F937F938F939F93AF93BF93EF932E
:10422000FF9348E950E064E970E082E090E00E948A
:10423000540BFF91EF91BF91AF919F918F917F911F
:104240006F915F914F913F912F910F900BBE0F9007
:104250000FBE0F901F9018951F920F920FB60F92DE
:1042600011240BB60F922F933F934F935F936F934D
:104270007F938F939F93AF93BF93EF93FF9348E800
:1042800050E064E870E081E090E00E94540BFF9100
:10429000EF91BF91AF919F918F917F916F915F91BE
:1042A0004F913F912F910F900BBE0F900FBE0F902B
:1042B0001F901895CF92DF92EF92FF920F931F936A
:1042C000CF93DF93EC0110E000E0C12CD12C7601FC
:1042D00084E091E10E947F1A092E000CAA0BBB0B0F
:1042E000C80ED91EEA1EFB1E6AE070E080E090E076
:1042F0000E945E030F5F1F4FC017D10749F79E0151
:10430000DD0F440B550BC701B6010E948A32C9016B
:10431000DF91CF911F910F91FF90EF90DF90CF90A1
:104320000895CF92DF92EF92FF92CF93DF93E0E672
:10433000FFE01382128288EE93E0A0E0B0E0848375
:104340009583A683B78321E232E03183208325EC75
:1043500030E03587248724EC30E03787268720EC4F
:1043600030E0318B208B21EC30E0338B228B22EC40
:1043700030E0358B248B26EC30E0378B268B118E8A
:10438000128E138E148ECDEFDFE01B821A828C8387
:104390009D83AE83BF8383E392E099838883E4E0C7
:1043A000F1E18AE390E09183808398E3C92E94E061
:1043B000D92EE12CF12CC282D382E482F58260E016
:1043C0000E94FD0281E080930C02EEEFF0E186E3B3
:1043D00090E091838083C282D382E482F58260E0A0
:1043E0000E94FD02E8EFF0E188E390E09183808392
:1043F000C282D382E482F58260E00E94FD0245E041
:1044000064E086EB90E10E94AA0943E062E084E761
:1044100090E10E94AA0981E790E10E94390B8EE6A3
:1044200090E10E94390B8BE690E10E94390B88E6FF
:1044300090E10E94390B85E690E10E94390BE9E09A
:10444000F0E1108288E68383D283C18388E491EE11
:10445000AAE7BFE38093611090936210A09363106A
:10446000B09364101486158616861786108A118AF2
:10447000128A138A148A158A168A178A108E118E48
:10448000128E138E148E158E168E178E10A211A2F8
:1044900012A213A2DF91CF91FF90EF90DF90CF9007
:1044A0000895CF93DF93CDB7DEB764970FB6F89436
:1044B000DEBF0FBECDBF789484B5826084BD84B565
:1044C000816084BD85B5826085BD85B5816085BD0F
:1044D00080916E00816080936E00109281008091C7
:1044E000810082608093810080918100816080934F
:1044F0008100809180008160809380008091B10074
:1045000084608093B1008091B00081608093B0009E
:1045100080919100826080939100809191008160F0
:1045200080939100809190008160809390008091B1
:10453000A10082608093A1008091A100816080939E
:10454000A1008091A00081608093A0008091210152
:1045500082608093210180912101816080932101FB
:104560008091200181608093200180917A00846095
:1045700080937A0080917A00826080937A008091A3
:104580007A00816080937A0080917A0080688093BD
:104590007A001092C100E091700FF091710F82E0EB
:1045A0008083E0916C0FF0916D0F1082E0916E0F9F
:1045B000F0916F0F80E180831092780FE091740F7B
:1045C000F091750F86E08083E091720FF091730F88
:1045D000808180618083E091720FF091730F808100
:1045E00088608083E091720FF091730F8081806802
:1045F0008083E091720FF091730F80818F7D8083B3
:1046000061E08BE60E949206182F60E089E10E942B
:10461000920660E08AE10E94920680E090E0A3E8C2
:10462000B2E480930D1090930E10A0930F10B093EE
:10463000101068E08BE10E94920680E090E0A0E814
:10464000B6E48093111090931210A0931310B093BE
:10465000141060E08CE10E9492060E94C7158091C0
:10466000491090914A10A0914B10B0914C1080933A
:10467000511090935210A0935310B0935410809106
:104680004D1090914E10A0914F10B091501080930A
:10469000551090935610A0935710B09358100E9445
:1046A000910360935D1070935E1080935F10909300
:1046B000601086EA92E00E94F704612F70E090E0BB
:1046C00080E04AE00E9499110E9495111111FECFDD
:1046D0008DE792E00E94F7040E94951168EE73E066
:1046E00080E090E00E945E03109215101092161068
:1046F00010921710109218101092191010921A1090
:1047000010921B1010921C1010921D1010921E106F
:1047100010921F101092201010922110109222104F
:10472000109223101092241010922510109226102F
:1047300010922710109228101092291010922A100F
:1047400010922B1010922C1004EF11E01D861E8683
:104750001F86188A198A1A8A1B8A1C8A19861A8641
:104760001B861C86C12CD12C7601460157012601DF
:1047700037010E94060F2091311030913210409184
:10478000331050913410C301B2010E94EE322B015C
:104790003C012091351030913610409137105091E6
:1047A0003810C501B4010E94EE324B015C0120E0DB
:1047B00030E040E85FE36091391070913A108091E9
:1047C0003B1090913C100E94ED329B01AC01C7015F
:1047D000B6010E94EE326B017C0120913D103091B8
:1047E0003E1040913F105091401069857A858B852D
:1047F0009C850E94EE3269877A878B879C872091FF
:1048000041103091421040914310509144106989F9
:104810007A898B899C890E94EE32698B7A8B8B8B8B
:104820009C8B20914510309146104091471050913B
:1048300048106D857E858F8598890E94EE326D8740
:104840007E878F87988B61E070E080E090E00E9427
:104850005E030150110909F08CCF20E030E04AEFEF
:1048600053E4C301B2010E94CC33609321107093D2
:104870002210809323109093241020E030E04AEF20
:1048800053E4C501B4010E94CC33609325107093AA
:104890002610809327109093281020E030E04AEFF4
:1048A00053E4C701B6010E94CC3360932910709382
:1048B0002A1080932B1090932C1020E030E04AEFC8
:1048C00053E469857A858B859C850E94CC336093FF
:1048D000151070931610809317109093181020E005
:1048E00030E04AEF53E469897A898B899C890E9478
:1048F000CC336093191070931A1080931B1090930F
:104900001C1020E030E04AEF53E46D857E858F85F2
:1049100098890E94CC3360931D1070931E10809371
:104920001F109093201085EB95E00E94631303E124
:1049300012E05DE1E52E52E0F52EF80180810E5F78
:104940001F4F60E00E94FD02E016F106B1F761E042
:1049500080E20E94FD0266E070E081E790E10E9443
:10496000B10A67E070E08EE690E10E94B10A68E06B
:1049700070E08BE690E10E94B10A6AE570E081E7A1
:1049800090E10E94350A6AE570E08EE690E10E94AF
:10499000350A0E94C7150E94C31369E072E090E0D7
:1049A00080E00E94401E67E072E082E090E00E949A
:1049B000401E65E072E084E090E00E94401E63E0EB
:1049C00072E086E090E00E94401E61E072E088E0C4
:1049D00090E00E94401E0E940E0C0E949B138CEBE4
:1049E00095E00E94631370E060E08BE690E10E9426
:1049F000350A60ED77E080E090E00E945E03E09190
:104A00006B108E2F90E0FC01EE0FFF1FE80FF91FD7
:104A1000E75DF14F80818F7B8083E09168108E2F5E
:104A200090E0FC01EE0FFF1FE80FF91FE75DF14F6B
:104A300080818F7B8083E09165108E2F90E0FC0158
:104A4000EE0FFF1FE80FF91FE75DF14F80818F7BAD
:104A5000808368EE73E080E090E00E945E034DE7A3
:104A600050E062E070E08EEE92E00E94620C80E620
:104A70009FE00E947204892B09F472C01A82198285
:104A80001C821B821E821D8270E060E0CE010196B6
:104A90000E94571A29813A8181112EC021153105B2
:104AA00019F0C9010E9433371A8219821E821D82B1
:104AB0001C821B820E9432040D811E8197FD24C03E
:104AC0008A30910509F18F8318860F5F1F4FB80157
:104AD000CE0101960E94571A882361F329813A81F9
:104AE0008D819E81BE01695F7F4F820F931F0E945F
:104AF000AF381E830D83DECF1E821D8263E472E019
:104B0000C9010E94AF38D6CF89809A808114910460
:104B100029F074010115110509F07EC08D819E8177
:104B2000892BC1F089819A812091E40E2111AAC0BC
:104B30006BE47BE00E94A638892B09F00AC5F1E0FE
:104B4000F093E40E8AEC95E00E9463130E946F13C9
:104B50001092CF0E89819A81009711F00E9433370D
:104B60008091E40E81110C94882D0E94C7150E943B
:104B7000200CDC019093E30E8093E20EED91FC910A
:104B80001197EE0FFF1F12968D919C911397E80FCE
:104B9000F91FEE0FFF1F14968D919C911597E80F4A
:104BA000F91FEE0FFF1F16968D919C911797E80F36
:104BB000F91FEE0FFF1F18968D919C91E80FF91FBA
:104BC000E032F10510F00C94CC308827E551FA4D15
:104BD0008F4F0C9474366D2ECC30CC30A02D232FFB
:104BE0006430CC30B92DCC30CC30CC30CC30CC3063
:104BF000CC30CC30262FCC30CC30CC308C2DE62FA6
:104C0000CC30CC30802EA02D092ECC30AC2A1D2EDD
:104C1000992E862FA62E75015701FFEFAF1ABF0AF6
:104C2000F7018081082E000C990B0E944431892BDA
:104C300091F701501109080D191DF8018081082E06
:104C4000000C990B0E944431892B31F00E151F0581
:104C500018F001501109F1CF0F5F1F4FA8014E1935
:104C60005F095E834D838E149F0420F4B701C40155
:104C70000E949D38E981FA818D819E81E80FF91F9C
:104C800010824CCF4090CF0E442009F488C000978A
:104C9000B1F00E9408312091CD0E3091CE0E24301B
:104CA000310509F456C07CF42230310531F123304E
:104CB0003105E1F180E896E00E94631332C060E0C4
:104CC00070E0CB01E8CF2530310509F455C026301E
:104CD000310581F7709302026093010261E072E096
:104CE00088E090E00E94541E8CE596E00E94C1137B
:104CF000809101029091020212C070930A026093A7
:104D0000090269E072E090E080E00E94541E88EEA3
:104D100095E00E94C1138091090290910A020E94BD
:104D20001F121092CF0E0E946F1314CF70930802BF
:104D30006093070267E072E082E090E00E94541EF8
:104D400086E096E00E94C1138091070290910802CC
:104D5000E6CF709306026093050265E072E084E09E
:104D600090E00E94541E84E296E00E94C11380915C
:104D7000050290910602D3CF709304026093030260
:104D800063E072E086E090E00E94541E80E496E0CA
:104D90000E94C1138091030290910402C0CF00973A
:104DA000B1F00E9408316930710508F086C3FB013B
:104DB0008827E252F94D8F4F0C947436EB26F22679
:104DC000F526032711271F272D2737276E2760E099
:104DD00070E0CB01E8CF1092E40E86E996E00E94E5
:104DE0006313B8CE0E94C3139ECF8DEC96E00E9451
:104DF000631321E02093CF0E42E050E05093CE0E9B
:104E00004093CD0EA7CE83EF96E00E94631351E04E
:104E10005093CF0E83E090E09093CE0E8093CD0E12
:104E200099CE89E197E00E94631391E09093CF0EB1
:104E3000E4E0F0E0F093CE0EE093CD0E8BCE8DE368
:104E400097E00E946313F1E0F093CF0E25E030E08D
:104E50003093CE0E2093CD0E7DCE81E697E00E945A
:104E6000631331E03093CF0E46E050E0C7CF8DE8BA
:104E700097E00E9463138CEA97E00E94C11380912F
:104E8000090290910A020E941F1283EF98E00E948B
:104E9000C11380910702909108020E941F128AEBB1
:104EA00097E00E94C11380910502909106020E9432
:104EB0001F1281EA98E00E94C11380910302909131
:104EC00004020E941F128DE499E00E94C113809198
:104ED0000102909102020E941F1225CF86EC97E0FA
:104EE0000E94631305EC1EE027EC3EE049EC5EE017
:104EF0006BEC7EE086EB90E10E94EB124091C70ED6
:104F00005091C80E6091C90E7091CA0E8091CB0E5F
:104F10009091CC0E0E9421029093C40E8093C30EF8
:104F20000BEB1EE02DEB3EE04FEB5EE061EC7EE034
:104F300084E790E10E94EB12C090BD0ED090BE0EAF
:104F40008090BF0E9090C00E6090C10E7090C20E07
:104F5000A601B401C3010E9421025C019093BA0E24
:104F60008093B90EE090C50EF090C60E0091BB0E76
:104F70001091BC0E2090C30E3090C40E56E9251639
:104F800031040CF09FC280E9E81681E0F8060CF0CD
:104F900099C296E9A916B1043CF483EE97E0003972
:104FA000E1E01E070CF49BC28091C90E9091CA0EDD
:104FB0002091CB0E3091CC0E2817390770F5409117
:104FC000C70E5091C80E4817590738F5821B930B2E
:104FD000209101023091020228173907F0F48091E4
:104FE000050290910602E816F906BCF080910302D2
:104FF000909104028E159F0584F080910902909192
:105000000A02281639064CF0552453948091070261
:1050100090910802821593050CF4512C68147904C0
:1050200050F5C814D90438F5861897088091010204
:105030009091020288159905F0F4809105029091F3
:10504000060208171907BCF0809103029091040230
:105050008017910784F08091090290910A02A816A6
:10506000B9064CF07724739480910702909108025E
:105070008A159B050CF4712C4701801A910A97FE42
:1050800003C091948194910834E6831691041CF432
:10509000672C511001C0612C83E098E00E94C1137D
:1050A000852D90E00E941F1283E198E00E94C113B9
:1050B000872D90E00E941F1284E298E00E94C113A5
:1050C000862D90E00E941F1282E398E00E94C11397
:1050D000C7010E94EF1188E398E00E94C113C80144
:1050E0000E941F1281E498E00E94C1138091C30EB8
:1050F0009091C40E0E94DD1188E498E00E94C113D3
:105100008091B90E9091BA0E0E94E31182E598E069
:105110000E94C1138091CB0E9091CC0E0E94DD11A4
:1051200087E598E00E94C1138091C10E9091C20E54
:105130000E94E3118FE598E00E94C1138091C90E8F
:105140009091CA0E0E94DD1184E698E00E94C1137E
:105150008091BF0E9091C00E0E94E3118CE698E002
:105160000E94C1138091C70E9091C80E0E94DD115C
:1051700081E798E00E94C1138091BD0E9091BE0E10
:105180000E94E31189E798E00E94C1138091C50E47
:105190009091C60E0E94DD118EE798E00E94C11327
:1051A0008091BB0E9091BC0E0E94E31181E498E0C7
:1051B0000E94C1138091C30E9091C40E0E94DD1114
:1051C00088E498E00E94C1138091B90E9091BA0EC4
:1051D0000E94E31186E898E00E94C11380910502C5
:1051E00090910602E816F90644F081E0209103024E
:1051F000309104022E153F050CF480E090E00E94EF
:105200001F128DEA98E00E94C113809105029091CF
:1052100006020817190744F081E02091030230913B
:105220000402201731070CF480E090E00E941F1266
:1052300084ED98E00E94C1138091090290910A02C6
:105240002816390644F081E02091070230910802C7
:10525000221533050CF480E090E00E941F1281E0DB
:1052600099E00E94C1138091090290910A02A81648
:10527000B90644F081E020910702309108022A1516
:105280003B050CF480E090E00E941F128EE299E052
:105290000E94C1132091C90E3091CA0E8091CB0E8D
:1052A0009091CC0E8217930740F481E04091C70E95
:1052B0005091C80E4217530708F080E090E00E941A
:1052C0001F1283E499E00E94C1132091C90E30910E
:1052D000CA0E8091CB0E9091CC0E281B390B81E029
:1052E00090E040910102509102024217530710F0E2
:1052F00090E080E00E941F1281E699E00E94C113B5
:105300002091BF0E3091C00E8091C10E9091C20EBF
:105310008217930740F481E04091BD0E5091BE0E7C
:105320004217530708F080E090E00E941F1286E7C2
:1053300099E00E94C1132091BF0E3091C00E809160
:10534000C10E9091C20E281B390B81E090E0409174
:105350000102509102024217530710F090E080E0E2
:105360000E941F1286E898E00E94C11380910502F6
:1053700090910602E816F90644F081E020910302BC
:10538000309104022E153F050CF480E090E00E945D
:105390001F128DEA98E00E94C1138091050290913E
:1053A00006020817190744F081E0209103023091AA
:1053B0000402201731070CF480E090E00E941F12D5
:1053C00084ED98E00E94C1138091090290910A0235
:1053D0002816390644F081E0209107023091080236
:1053E000221533050CF480E090E00E941F1281E04A
:1053F00099E00E94C1138091090290910A02A816B7
:10540000B90654F044244394809107029091080215
:105410008A159B050CF4412C842D90E00E941F12EC
:1054200084E999E00E94C11381E090E044E684168B
:10543000910414F090E080E00E941F128CEB99E040
:1054400061104DC0552009F44DC083E794E00E94DF
:1054500063138AE993E00E94C1138091C30E909177
:10546000C40E0E94DD118FED99E00E94C11380915E
:10547000CB0E9091CC0E0E94DD1186EE99E00E9439
:10548000C1138091C90E9091CA0E0E94DD118DEE5C
:1054900099E00E94C1138091C70E9091C80E0E949E
:1054A000DD1184EF99E00E94C1138091C50E9091A7
:1054B000C60E0E94DD110E9495118AE09AE00E94BA
:1054C000631331CCF9EEEF16F3E0FF060CF46CCD6C
:1054D000093E23E012070CF467CD8BEF99E00E94A0
:1054E0006313EBCF7720C9F38BEB94E00E94631337
:1054F0008AE993E00E94C1138091B90E9091BA0E8F
:105500000E94DD118FED99E00E94C1138091C10EC0
:105510009091C20E0E94DD1186EE99E00E94C113A7
:105520008091BF0E9091C00E0E94DD118DEE99E02A
:105530000E94C1138091BD0E9091BE0E0E94DD119C
:1055400084EF99E00E94C1138091BB0E9091BC0E34
:10555000B0CF85E39AE043CC0E9417189093E10EF8
:105560008093E00E2091DE0E3091DF0E8C01021B45
:10557000130B1093DD0E0093DC0EB801012E000C0E
:10558000880B990B0E9454316B017C012091D80E3D
:105590003091D90E4091DA0E5091DB0E0E94EE321E
:1055A0004B015C0120E030E048EC52EC0E944D31B0
:1055B00087FD38C120E030E048EC52E4C501B40179
:1055C0000E949B34181634F4812C912C58ECA52E93
:1055D00052E4B52E8092D80E9092D90EA092DA0E97
:1055E000B092DB0E8091D60E9091D70EB801681B59
:1055F000790B072E000C880B990B0E9454312B015C
:105600003C014092D20E5092D30E6092D40E709212
:10561000D50E1093D70E0093D60E20E030E040EC6C
:105620005FE3C701B6010E94B33169877A878B8730
:105630009C872DEC3CEC4CE45DE3C501B4010E9479
:10564000B3319B01AC0169857A858B859C850E946D
:10565000EE32A30192010E94EE320E943E347B01A1
:1056600077FF04C0EE24FF24E61AF70A59E2E51694
:10567000F1041CF038E2E32EF12CF092D10EE0920E
:10568000D00E101611060CF0D4C068E770E06E1949
:105690007F0981E790E10E94350AC70163E070E06D
:1056A0000E946036645C7F4F8EE690E10E94350A6E
:1056B00085E69AE00E94C1138091E00E9091E10E80
:1056C0000E94EF1189E294E00E94C1138091DE0EE6
:1056D0009091DF0E0E94EF1183E89AE00E94C113BF
:1056E0008091D00E9091D10E0E94EF118FE89AE038
:1056F0000E94C1136091DC0E7091DD0E072E000C2C
:10570000880B990B0E94543120E030E040EC5FE3BD
:105710000E94B33142E00E94EE1486E99AE00E94B2
:10572000C1132DEC3CEC4CE45DE36091D80E70911C
:10573000D90E8091DA0E9091DB0E0E94B33142E0D7
:105740000E94EE148DE99AE00E94C1136091D20E7E
:105750007091D30E8091D40E9091D50E42E00E94AC
:10576000EE140E94951180910B02882331F18091F3
:10577000E00E9091E10E2091DE0E3091DF0E820F4F
:10578000931F97FD0196959587959093DF0E8093D3
:10579000DE0E1092D80E1092D90E1092DA0E1092E0
:1057A000DB0E84EA9AE00E94C1138091DE0E909194
:1057B000DF0E0E941F1210920B0284E091E10E9402
:1057C0007F1A0A970CF0A4C168E770E081E790E1C6
:1057D0000E94350A68E770E08EE690E10E94350A83
:1057E0000091DE0E1091DF0E065A1F4F0E9417180F
:1057F00008171907B4F10E94C71586EC9AE00E94B9
:10580000C1130E9417180E94EF1187E694E00E94CE
:10581000C1138091DE0E9091DF0E865A9F4F0E9439
:105820001F12DECF812C912C48ECA42E42ECB42E1A
:10583000D1CE012B69F0C7016DEF7FEF0E9460367A
:1058400068587F4F81E790E10E94350AB7012ACF5F
:1058500068E770E081E790E10E94350A6CE370E050
:1058600023CF60EA70E081E790E10E94350A64E1AD
:1058700070E08EE690E10E94350A8091DE0E9091F4
:10588000DF0E865A9F4F9093DF0E8093DE0E0E94AC
:1058900091034B015C012B013C0180EA480E8FE033
:1058A000581E611C711C0E949103681979098A09AC
:1058B0009B09603A7F408105910528F58EEF9AE0BB
:1058C0000E94C1130E949103681979098A099B09F2
:1058D0004AE00E9499110E94951185E29BE00E9486
:1058E000C1130E949103A3019201261B370B480BA1
:1058F000590BCA01B9014AE00E9499110E94951101
:105900000E94B113D0CF86E39BE00E9463136CE347
:1059100070E081E790E10E94350A6CE370E08EE66A
:1059200090E10E94350A0091DE0E1091DF0E0A55BB
:1059300011090E94171880179107BCF00E94C71523
:105940008DE49BE00E94C1130E9417180E94EF1182
:1059500087E694E00E94C1138091DE0E9091DF0EE5
:105960008A5591090E941F12DECF60EA70E081E73C
:1059700090E10E94350A64E170E08EE690E10E94B9
:10598000350A8091DE0E9091DF0E8A559109909331
:10599000DF0E8093DE0E0E9491034B015C010E949A
:1059A0009103681979098A099B0960347F4181054F
:1059B000910518F40E94B113F2CF6CE370E081E717
:1059C00090E10E94350A6CE370E08EE690E10E945F
:1059D000350A0091DE0E1091DF0E0A5511090E9462
:1059E000171880179107BCF00E94C71584E89BE048
:1059F0000E94C1130E9417180E94EF1187E694E0DD
:105A00000E94C1138091DE0E9091DF0E8A5591099C
:105A10000E941F12DECF60EA70E081E790E10E94F1
:105A2000350A64E170E08EE690E10E94350A8091CB
:105A3000DE0E9091DF0E8A5591099093DF0E8093D0
:105A4000DE0E0E94200C9093E30E8093E20EE09114
:105A5000E20EF091E30E84819581019719F40E9482
:105A6000B113EFCF68E770E081E790E10E94350A5B
:105A70006CE370E08EE690E10E94350A68EE73E018
:105A800080E090E00E945E0368E770E081E790E1CB
:105A90000E94350A68E770E08EE690E10E94350AC0
:105AA0000091DE0E1091DF0E065A1F4F0E9417184C
:105AB00008171907BCF00E94C7158BEB9BE00E94EA
:105AC000C1130E9417180E94EF1187E694E00E940C
:105AD000C1138091DE0E9091DF0E865A9F4F0E9477
