:020000040000FA
:100000000C9414020C9445020C9445020C94450285
:100010000C9445020C9445020C9445020C94450244
:100020000C9445020C9445020C9445020C94450234
:100030000C9445020C94C3290C9445020C9445027F
:100040000C9445020C942D2C0C9445020C94450202
:100050000C9445020C9445020C9445020C947929A9
:100060000C9445020C944D2A0C94232A0C944502BE
:100070000C9445020C9445020C9445020C944502E4
:100080000C94FF2B0C9445020C9445020C944502F1
:100090000C9445020C9445020C9445020C94832A5E
:1000A0000C9445020C9445020C94D12B0C944502FF
:1000B0000C9445020C9445020C9445020C94A32B1D
:1000C0000C9445020C9445020C9445020C94450294
:1000D0000C9445020C9445020C9445020C94450284
:1000E0000C944502084AD73B3BCE016E84BCBFFD51
:1000F000C12F3D6C74319ABD56833DDA3D00C77FF8
:1001000011BED9E4BB4C3E916BAAAABE0000008090
:100110003F07634236B79BD8A71A39685618AEBA5C
:10012000AB558C1D3CB7CC5763BD6DEDFD753EF6F0
:10013000177231BF000000803F08000000BE92240B
:1001400049123EABAAAA2ABECDCCCC4C3E00000040
:1001500080BEABAAAAAA3E00000000BF000000803B
:100160003F0000000000084178D3BB4387D1133D16
:10017000190E3CC3BD4282AD2B3E68EC8276BED9DF
:100180008FE1A93E4C80EFFFBE01C4FF7F3F00001E
:10019000000000000C94EC020C94D4390C94DF02A3
:1001A0000C943C070C945F070C945A370C94922CD7
:1001B0000C94B6020C946D3A0C94E9360C94AC0293
:1001C0000C94CA040C94C2070C94C5310C94BD362F
:1001D0000C9492360C94E7020C94FA390C9439374B
:1001E0000C94F0360C94F1380C9493070C9432373D
:1001F0000C9424370C9445370C945D390C94CE3113
:100200000C94BE020C944C370C9489360C942D3B04
:100210000C94D1020C9466070C9444040C94C336DD
:100220000C94D5020C94473C0C942B370C945B3304
:100230000C949E360C948A040C9408040C94ED02E1
:100240000C94AB3B0C94C1020C9471390C94133C8C
:100250000C941D370C9435040C9411360C94F10257
:100260000C94C1390C946A050C940D390C94F73632
:100270000C94D9020C946A3A0C94BA020C94DD38AE
:100280000C94C2310C94E3020C94CB020C94ED3923
:100290000C943D070C94C7020C94FE360C94533713
:1002A0000C94C0360C944C070C94B2020C94E234BB
:1002B0000C949B360C94E0360C9402050C948C370D
:1002C0000C94CD3A0C94C6360243616C63756C6134
:1002D00074696E67206F6666736574732C20646F33
:1002E000206E6F74206D6F7665204D505536303519
:1002F00030004D505536303530207374617475734D
:100300003A200000000A0B02090C0D0E0807030436
:1003100001000000000000000000000000000000DC
:1003200000000000000000000000000000000012BB
:10033000111000000000000000000000000000009C
:100340000000000000000000000000200023002644
:100350000029002C002F00320000010000030106DC
:1003600001090100002100240027002A002D00308F
:1003700000330001010000040107010A010000220E
:1003800000250028002B002E00310034000201005F
:1003900000050108010B01010210202008081020AF
:1003A0004010204080020102010804020101020401
:1003B00008102040808040201008040201800402C0
:1003C0000180402010080402010804020101020417
:1003D0000810204080010204081020408005050517
:1003E00005070508080808020202020A0A080804AC
:1003F00004040401010101010101010303030303DA
:10040000030303040707070C0C0C0C0C0C0C0C0268
:1004100002020206060606060606060B0B0B0B0B6F
:100420000B0B0B00922C473C11241FBECFEFD1E2E7
:10043000DEBFCDBF00E00CBF15E1A0E0B2E0ECE014
:10044000F8E800E00BBF02C007900D92AA30B10798
:10045000D9F728E1AAE0B5E101C01D92A736B2079D
:10046000E1F712E0C3E1D2E000E006C02197010904
:10047000802FFE010E94BB41C231D10780E00807F6
:10048000A9F70E94522D0C94F4430C940000CF92D3
:10049000DF92EF92FF920F931F93CF93DF938B0125
:1004A000EA01BC0190E080E00E94993C26ED39E32E
:1004B00046EA5EEB0E94FA3C6B017C01B80190E0D9
:1004C00080E00E94993C27E038E04AEC5FE30E941C
:1004D000FA3C9B01AC01C701B6010E94353E6B019D
:1004E0007C01BE0190E080E00E94993C24E73EE55B
:1004F0004BE35FEB0E94FA3C9B01AC01C701B601E4
:100500000E94353E0E948C3FCB01DF91CF911F911D
:100510000F91FF90EF90DF90CF900895815082313E
:1005200008F05AC0E82FF0E08827E656FD4F8F4FBD
:100530000C94BB41BA02BE02AC02B202B602EC029B
:10054000C102C702CB02D102D502D902DF02E30207
:10055000EC02E702ED02F102809180008F77809338
:1005600080000895809180008F7DF9CF8091800078
:10057000877FF5CF84B58F7784BD089584B58F7D4F
:10058000FBCF8091B0008F778093B0000895809169
:10059000B0008F7DF9CF809190008F77809390008D
:1005A0000895809190008F7DF9CF80919000877F92
:1005B000F5CF8091A0008F778093A000089580915F
:1005C000A0008F7DF9CF8091A000877FF5CF80912B
:1005D00020018F77809320010895809120018F7DE5
:1005E000F9CF80912001877FF5CF1F93CF93DF93C1
:1005F000282F30E0F901ED5FFC4F8491F901E956B5
:10060000FC4FD491F901E352FC4FC491CC23A9F0E3
:10061000162F81110E948E02EC2FF0E0EE0FFF1FCB
:10062000E358FC4FA591B4918FB7F894EC91111158
:1006300008C0D095DE23DC938FBFDF91CF911F914F
:100640000895DE2BF8CFCF93DF9390E0FC01E956BD
:10065000FC4F249183529C4FFC0184918823D1F05C
:1006600090E0880F991FFC01ED59FC4FA591B491C2
:10067000FC01E358FC4FC591D49161110EC09FB7A6
:10068000F8948C91E22FE0958E238C932881E223BD
:10069000E8839FBFDF91CF9108958FB7F894EC91D5
:1006A000E22BEC938FBFF6CF8230910538F0880FA4
:1006B000991F880F991F05970197F1F708953FB784
:1006C000F8948091431690914416A0914516B091EC
:1006D000461626B5A89B05C02F3F19F00196A11D0F
:1006E000B11D3FBFBA2FA92F982F8827BC01CD017C
:1006F000620F711D811D911D42E0660F771F881FDB
:10070000991F4A95D1F708958F929F92AF92BF9209
:10071000CF92DF92EF92FF926B017C010E945F0308
:100720004B015C01C114D104E104F104B9F00E9451
:100730005F03681979098A099B09683E734081053E
:10074000910580F321E0C21AD108E108F10888EE92
:10075000880E83E0981EA11CB11CE4CFFF90EF909F
:10076000DF90CF90BF90AF909F908F9008952FB75C
:10077000F89460913F1670914016809141169091C7
:1007800042162FBF08959091000289130DC0E8EC26
:10079000F2E0E4919FEF90930002E230E1F038F450
:1007A000EE2381F0E13089F060E00C94F502E43052
:1007B00049F110F1E530C1F7909173009D7F90935E
:1007C0007300F2CF10926E00EFCF90916F009D7F7B
:1007D00090936F00E9CF909170009D7F909370008F
:1007E00091E09093B0009091B100987F94609093C5
:1007F000B1001092B300D8CF909171009D7F90937B
:100800007100D2CF909172009D7F90937200CCCFF7
:10081000AF92BF92CF92DF92EF92FF920F931F930E
:10082000CF93DF936C017B018B01040F151FEB014C
:100830005E01AE18BF08C017D10759F06991D60103
:10084000ED91FC910190F081E02DC6011995892B65
:1008500079F7C501DF91CF911F910F91FF90EF9034
:10086000DF90CF90BF90AF900895FC01538D448DE1
:10087000252F30E0842F90E0821B930B541710F04B
:10088000CF96089501970895FC01918D828D981758
:1008900061F0A28DAE0FBF2FB11D5D968C91928D30
:1008A0009F5F9F73928F90E008958FEF9FEF089561
:1008B0000F931F930E94B7036093C1167093C216E3
:1008C0008093C3169093C41689EB96E10E9444046A
:1008D00097FF1DC00E94B7030091C1161091C21668
:1008E0002091C3163091C416601B710B820B930BC1
:1008F0000091BD161091BE162091BF163091C01602
:100900006017710782079307F8F28FEF9FEF1F912F
:100910000F910895FC01918D828D981731F0828D91
:10092000E80FF11D858D90E008958FEF9FEF0895FA
:100930000F931F930E94B7036093C1167093C21662
:100940008093C3169093C41689EB96E10E948A04A3
:1009500097FF1DC00E94B7030091C1161091C216E7
:100960002091C3163091C416601B710B820B930B40
:100970000091BD161091BE162091BF163091C01681
:100980006017710782079307F8F28FEF9FEF1F91AF
:100990000F910895FC01918D228D892F90E0805C4C
:1009A0009F4F821B91098F739927089589EB96E1D8
:1009B0000E94CA0421E0892B09F420E0822F0895C7
:1009C000FC01A48DA80FB92FB11DA35ABF4F2C91C4
:1009D000848D90E001968F739927848FA689B789BB
:1009E0002C93A089B1898C91837080648C93938DB2
:1009F000848D981306C00288F389E02D80818F7D55
:100A000080830895EF92FF920F931F93CF93DF930C
:100A1000EC0181E0888F9B8D8C8D98131AC0E8893A
:100A2000F989808185FF15C09FB7F894EE89FF8909
:100A30006083E889F98980818370806480839FBFA7
:100A400081E090E0DF91CF911F910F91FF90EF90A7
:100A50000895F62E0B8D10E00F5F1F4F0F731127B7
:100A6000E02E8C8D8E110CC00FB607FCFACFE889F2
:100A7000F989808185FFF5CFCE010E94E004F1CF96
:100A8000EB8DEC0FFD2FF11DE35AFF4FF0829FB766
:100A9000F8940B8FEA89FB8980818062CFCF0F9316
:100AA0001F93CF93DF938C01D0E0C0E0F801EC0FEF
:100AB000FD1F6491662341F089EB96E10E940205D7
:100AC000892B11F02196F2CFCE01DF91CF911F91AA
:100AD0000F910895CF93DF93EC01888D8823B9F0AF
:100AE000AA89BB89E889F9898C9185FD03C0808139
:100AF00086FD0DC00FB607FCF7CF8C9185FFF2CFB6
:100B0000808185FFEDCFCE010E94E004E9CFDF9127
:100B1000CF91089580E090E0892B29F00E94D604BF
:100B200081110E94000080E090E0892B49F080E074
:100B300090E0892B29F00E94000081110E940000A2
:100B400080E090E0892B49F080E090E0892B29F04B
:100B50000E94000081110E94000080E090E0892B3B
:100B600049F080E090E0892B29F00E94000081117B
:100B70000C94000008951F93CF93DF93C1E0C093BE
:100B80003C15882399F1D091B8001091BA0080915A
:100B9000BC008A7B8093BC0060E084E10E94F50287
:100BA00060E085E10E94F50210928F16C0938E16C8
:100BB0001092691661E084E10E94F50261E085E12E
:100BC0000E94F5028091B9008E7F8093B9008091D8
:100BD000B9008D7F8093B90088E48093B80085E4E4
:100BE0008093BC001093BA00D093B800DF91CF91EE
:100BF0001F9108958F929F92AF92BF92CF92DF92F2
:100C0000EF92FF920F931F93CF93DF93D091B8167B
:100C1000D13208F0D7C0182FC091B7160E945F03D9
:100C20006B017C0180918F1681116BC082E08093F3
:100C30008F1610938E168FEF80938D1610928C1650
:100C4000D0938B16A7E9B6E1EBE6F6E180E0D81386
:100C500091C010926A1680916A16CC0FC82BC0936F
:100C60006A1680916916813009F088C01092691661
:100C70000E945F036B017C0180916A168093BB0028
:100C80008091911690919216A0919316B09194161E
:100C9000892B8A2B8B2BA1F00E945F030091911668
:100CA0001091921620919316309194166C197D092B
:100CB0008E099F09061717072807390708F442C04D
:100CC0008091BC0083FDD8CF85EC8093BC000E944E
:100CD0005F036B017C0180918F16823009F450C054
:100CE00080918D168F3F09F46FC080918D168032F0
:100CF00009F46CC080918D16803309F469C084E0DA
:100D000026C08091911690919216A0919316B09161
:100D10009416892B8A2B8B2B09F484CF0E945F03B6
:100D20008090911690909216A0909316B090941681
:100D30006C197D098E099F0986169706A806B906C3
:100D400008F070CF809190160E94BB0585E010924C
:100D500096161092B81610929516DF91CF911F91AA
:100D60000F91FF90EF90DF90CF90BF90AF909F904A
:100D70008F9008959D9191938F5F69CF85EEA5CF58
:100D80008091911690919216A0919316B09194161D
:100D9000892B8A2B8B2B09F49ECF0E945F03009135
:100DA00091161091921620919316309194166C1909
:100DB0007D098E099F09061717072807390708F0CC
:100DC0008ACFC0CF81E0C3CF80E0C1CF82E0BFCF68
:100DD00083E0BDCF1F93CF93DF93162FC2E6D7E1F9
:100DE000A981BA819B8121E0209395169093B71633
:100DF000109296161092B816ED91FC9111970190F1
:100E0000F081E02D682FCD01199589819A81DC014F
:100E1000ED91FC910190F081E02D612F199581E019
:100E2000DF91CF911F910C94FA0520915D15260F4B
:100E30003327331F21323105ECF420918F16FC014A
:100E400090E080E0243069F082E00895A0915D1583
:100E50002191AC01435C5A4EA40FB52FB11D2C93C8
:100E60000196861798F380915D15680F60935D1564
:100E700080E0089581E008950895E09148168091FA
:100E80004716E81730F4F0E0E75BF94E808190E018
:100E900008958FEF9FEF089590914816809147161F
:100EA0002FEF3FEF981748F4E92FF0E0E75BF94E9A
:100EB000208130E09F5F90934816C901089580918A
:100EC000471690914816891B990B0895CF92DF928F
:100ED000EF92FF920F931F93CF93DF937C01CB018F
:100EE0008A0120919516222389F0EB016B01C40E33
:100EF000D51ECC15DD0569F06991D701ED91FC9106
:100F00000190F081E02DC7011995F3CF642F0E9465
:100F10001507C801DF91CF911F910F91FF90EF90BE
:100F2000DF90CF900895CF93DF931F92CDB7DEB7B8
:100F30006983209195162223F9F02091B81620326A
:100F400058F021E030E0FC013383228390E080E020
:100F50000F90DF91CF91089580919616E82FF0E0E1
:100F6000E956F94E998190838F5F8093961680930E
:100F7000B81681E090E0ECCF61E0CE0101960E94CE
:100F80001507F7CF90E080E00895CF92DF92EF92BF
:100F9000FF920F931F93CF93DF93EC01EE81FF81BC
:100FA00090818B81809589238083EA85FB85808170
:100FB0009B81892B8083EC81FD8190818A81809542
:100FC00089238083E885F98580819A81892B8083B4
:100FD00089899A89009711F00E945403EA85FB855C
:100FE00090818B818095892380838B89882331F040
:100FF000EE81FF8180819B81892B80838C8988236E
:10100000C9F00E94B7036B017C01EE85FF858081EA
:101010009B81892379F40E94B7036C197D098E099D
:101020009F090D891E892F89388D601771078207E6
:10103000930758F389899A89009711F00E94540305
:10104000E885F98590818A818095892380838B89C1
:10105000882331F0EC81FD8180819A81892B808306
:1010600089899A89009751F0DF91CF911F910F9153
:10107000FF90EF90DF90CF900C945403DF91CF91CD
:101080001F910F91FF90EF90DF90CF900895CF9335
:10109000DF93EC01E885F98590818A818095892329
:1010A00080838B89882331F0EC81FD8180819A8156
:1010B000892B8083EA85FB8590818B8180958923AC
:1010C00080838B89882331F0EE81FF8180819B8131
:1010D000892B808389899A89009711F00E94540393
:1010E000EC85FD8590818A819823EE85FF8520819E
:1010F0003B81232311F480E028C09923E1F3EC81A4
:10110000FD819081809589238083E885F9858081A0
:101110009A81892B808389899A89009711F00E948E
:101120005403EE81FF8190818B8180958923808398
:10113000EA85FB8580819B81892B808389899A89B7
:10114000009711F00E94540381E0DF91CF91089540
:10115000CF92DF92EF92FF920F931F93CF93DF9383
:10116000EC01E885F98590818A81809589238083C7
:101170008B89882331F0EC81FD8180819A81892BD4
:101180008083EA85FB8590818B818095892380838C
:101190008B89882331F0EE81FF8180819B81892BAF
:1011A00080838C898823C9F00E94B7036B017C017E
:1011B000EE85FF8580819B81892379F40E94B703A6
:1011C0006C197D098E099F090D891E892F89388D1B
:1011D000601771078207930758F389899A890097E6
:1011E00011F00E945403EC85FD8580819A8189234A
:1011F00011E009F410E0EE81FF8190818B818095F0
:1012000089238083EA85FB8580819B81892B80836C
:1012100089899A89009711F00E945403812FDF91E8
:10122000CF911F910F91FF90EF90DF90CF90089595
:10123000CF92DF92EF92FF920F931F93CF93DF93A2
:10124000EC018A81809561115EC0EC81FD81908105
:1012500089238083E885F98580819A81892B808321
:1012600089899A89009711F00E945403EA85FB85C9
:1012700090818B818095892380838B89882331F0AD
:10128000EE81FF8180819B81892B80838C898823DB
:10129000C9F00E94B7036B017C01EE85FF85808158
:1012A0009B81892379F40E94B7036C197D098E090B
:1012B0009F090D891E892F89388D60177107820754
:1012C000930758F389899A89009711F00E94540373
:1012D000EE81FF8190818B81809589238083EA85CF
:1012E000FB8580819B81892B808389899A890097DE
:1012F000B1F0DF91CF911F910F91FF90EF90DF90B0
:10130000CF900C945403E885F985908189238083DC
:101310008B89882309F4A4CFEC81FD819DCFDF91D7
:10132000CF911F910F91FF90EF90DF90CF90089594
:101330000F931F93CF93DF938C01D62FC8E06D2FAF
:101340006078C8010E941809DD0FC150C1F7C801BB
:10135000DF91CF911F910F910C94A808CF93DF9349
:10136000FC012089211106C0EC010E94980981111D
:1013700006C0188A81E090E0DF91CF91089582E065
:10138000888BF8CF1F93CF93DF93EC01162F188A29
:101390000E944708882379F0612F660FCE010E94D2
:1013A0009809811105C0188ADF91CF911F91089586
:1013B00082E0888BF9CF84E0FCCFFC019389138A0B
:1013C000A085B1852C918281809582238C9383891D
:1013D000882331F0A481B5818C912281822B8C935A
:1013E000A285B3852C918381809582238C938389F8
:1013F000882331F0A681B7818C912381822B8C9335
:10140000938B08950F931F93CF93DF93CDB7DEB7E0
:10141000EB970FB6F894DEBF0FBECDBFDC011C9278
:101420008BEE90E014969C938E93139781E090E05E
:1014300012969C938E93119715966C93159716960A
:101440004C93169769834A838C8B8D8B82E090E056
:101450009B8B8A8B08EE13E020E030E00E8B1F8B15
:10146000288F398F70E0FB01E352FC4F24916956BD
:101470007C4FFB0164916B8330E0220F331FF90135
:10148000E358FC4F859194919E838D83F901ED592A
:10149000FC4F859194919A878987F901E75BFC4F0E
:1014A000859194919E878D8750E0FA01E352FC4F1D
:1014B000249149565C4FFA0144914C8330E0220F4D
:1014C000331FF901E358FC4F8591949198878F83DE
:1014D000F901ED59FC4F859194919C878B87F90117
:1014E000E75BFC4F85919491988B8F878BE3FE018E
:1014F0003196179601900D928A95E1F7CE010196EB
:101500000E94DD09EB960FB6F894DEBF0FBECDBF8B
:10151000DF91CF911F910F910895CF92DF92EF92BB
:10152000FF92CF93DF93EC01603282E07807CCF535
:10153000653B710514F064EB70E0898128E830E0C8
:10154000281B310987FD3395220F331F220F331FCC
:101550006901330FEE08FF088A8128E532E0281B75
:10156000310987FD3395220F331F220F331F032EBE
:10157000000C440B550B2C193D094E095F09DB018A
:1015800077FF02C0B0E0A0E00E94FB3D24EB30E01A
:1015900040E050E00E94D13DC20ED31EE41EF51E75
:1015A000B601E881E03370F5298188E890E0821B7C
:1015B000910927FD9395880F991F880F991F681728
:1015C00079077CF02A8188E592E0821B910927FD4A
:1015D0009395880F991F880F991F681779070CF446
:1015E000CB010297880F991F4FB7F8942E2F30E048
:1015F000F901EE0FFF1FE20FF31FE957FA4E928336
:1016000081834FBFDF91CF91FF90EF90DF90CF901C
:1016100008951F93CF93DF93EC01162F88818033B9
:1016200008F04EC061E0812F0E9423038881282F9B
:1016300030E0F901EE0FFF1FE20FF31FE957FA4EFA
:101640001F736081607C612B608319821A822CE099
:10165000622F0E949B41829FB001112430E020E064
:10166000AB01420F531FFA01EE0FFF1FE40FF51FEE
:10167000E957FA4E908196FD16C02F5F3F4F2C30F0
:10168000310571F7813009F51092800082E0809376
:1016900081001092850010928400B19A80916F00B1
:1016A000826080936F00E8818E2F90E0FC01EE0F46
:1016B000FF1FE80FF91FE957FA4E8081806480838D
:1016C0008881DF91CF911F910895823061F410924B
:1016D000900080939100109295001092940088BB26
:1016E00080937100E0CF833069F41092A00082E013
:1016F0008093A1001092A5001092A40089BB809352
:101700007200D1CF8111CFCF1092200182E080935F
:10171000210110922501109224018ABB809373004D
:10172000C2CFFC0190913B15903398F481E0890F72
:1017300080933B159083892F90E0FC01EE0FFF1FF3
:10174000E80FF91FE957FA4E88EB9BE092838183FB
:1017500008958FEF80830895AF92BF92CF92DF926A
:10176000EF92FF920F931F93CF93DF936B017A0158
:10177000EC01C95CDA4E28813CE0389F8001399F3A
:10178000100D1124A0903B15B12C27FF1FC0FB01A9
:101790001182108288818F5F888388819801280F49
:1017A000311D87FD3A95F6012A153B051CF4888109
:1017B0008C30C4F180819181049680349C4908F476
:1017C00073C0F60180819181049670C08881980170
:1017D000280F311D87FD3A952A153B05DCF68881D7
:1017E000A801480F511D87FD5A95FA01EE0FFF1F02
:1017F000E40FF51FE957FA4E808186FFCBCF888131
:10180000F801E80FF11D87FDFA95CF01EE0FFF1FDC
:10181000E80FF91FE957FA4E808160E08F730E944C
:10182000F502B8CF808191812881A801420F511D16
:1018300027FD5A959A01FA01EE0FFF1FE20FF31FE1
:10184000E957FA4E21813281820F931FF70191836C
:10185000808388819801280F311D87FD3A95F90111
:10186000EE0FFF1FE20FF31FE957FA4E808186FF4C
:1018700022C08881080F111D87FD1A95F801EE0F0F
:10188000FF1FE00FF11FE957FA4E808161E08F736F
:10189000DF91CF911F910F91FF90EF90DF90CF904C
:1018A000BF90AF900C94F50280E49CE9F70191831E
:1018B00080838FEF8883DF91CF911F910F91FF90ED
:1018C000EF90DF90CF90BF90AF90089568E070E008
:1018D00084EC97E10E94090B6AE070E081EC97E1EB
:1018E0000E94090B6CE070E08EEB97E10C94090B01
:1018F000EF92FF920F931F93CF93DF93C5E2D2E055
:1019000003E215E1299139913327F901ED5FFC4F8D
:101910008491F901E956FC4FE490F901E352FC4F40
:10192000F490FF2021F181110E948E02EF2DF0E052
:10193000EE0FFF1FE75BFC4FA591B491EC91EE22F7
:1019400031E020E009F430E0832F922FF8018193F9
:1019500091938F01F2E0CF32DF07A1F683E295E1A8
:10196000DF91CF911F910F91FF90EF90089590E03C
:1019700080E0ECCF2F923F924F925F926F927F92D6
:101980008F929F92AF92BF92CF92DF92EF92FF928F
:101990000F931F93CF93DF9300D000D01F92CDB74A
:1019A000DEB77D836C83312C212C88248A94982C7B
:1019B00054016C01990FEE08FF080DEF13E02A01A6
:1019C000550F6608770880910002803239F5E8ECFF
:1019D000F2E0F491FE83F7FD70C061E080E20E94C6
:1019E0002303FE81F11139C0C982DA82EB82FF82C2
:1019F00068E478EE81E090E029813A814B815F8153
:101A00000E94D13DBA01A9014150510961097109F2
:101A10009E81992309F4CEC194E03DC08F3F09F027
:101A20004CC080E280930002E8ECF2E0F491FE8387
:101A30008F2FFF3F09F441C0F23009F4C8C008F00D
:101A400069C0FF2309F48DC0F13009F4A2C087FDFD
:101A500034C061E080E20E9423038E81823009F06D
:101A600016C1C982DA82EB82FF8260E970ED83E001
:101A700090E0A70196010E94D13DBA01A901415011
:101A800051096109710993E04F3F510561057105E5
:101A900011F00CF0ADCF8091B100887F892B80933D
:101AA000B100EE81E23009F475C10CF06BC1EE2398
:101AB00009F484C1E13009F401C1C301B2010E94FB
:101AC000840380E20E94C303C301B2010E94840325
:101AD0008FEF281A380AEC81FD81E215F30509F031
:101AE00072CF27960FB6F894DEBF0FBECDBFDF9141
:101AF000CF911F910F91FF90EF90DF90CF90BF900B
:101B0000AF909F908F907F906F905F904F903F909D
:101B10002F9008959E81943009F49BC008F479C0F9
:101B2000953009F094CF10922001109221018091FC
:101B3000210188608093210180912101816080933F
:101B40002101F8018491E82FF0E0EE0FFF1FE35828
:101B5000FC4F85919491E7EBF3E0849180930A1513
:101B60003CCF14BC15BC84B5826084BD85B5816052
:101B700085BDF8018491E82FF0E0EE0FFF1FE358D8
:101B8000FC4F85919491E7EBF3E0849180930E15DF
:101B900024CF109280001092810080918100886093
:101BA0008093810080918100816080938100F801A1
:101BB0008491E82FF0E0EE0FFF1FE358FC4F859172
:101BC0009491E7EBF3E0849180930D1506CF10928A
:101BD000B0001092B1008091B00082608093B0009C
:101BE0008091B10081608093B100F8018491E82F69
:101BF000F0E0EE0FFF1FE358FC4F85919491909316
:101C0000811580938015E7EBF3E084918093821532
:101C1000E4CE109290001092910080919100886023
:101C20008093910080919100816080939100F801F0
:101C30008491E82FF0E0EE0FFF1FE358FC4F8591F1
:101C40009491E7EBF3E0849180930C15F3E0FE832D
:101C5000C4CE1092A0001092A1008091A1008860D3
:101C60008093A1008091A10081608093A100F80180
:101C70008491E82FF0E0EE0FFF1FE358FC4F8591B1
:101C80009491E7EBF3E0849180930B15A6CE60E08E
:101C900072E18AE790E0A70196010E94D13DBA0166
:101CA000A9014150510961097109EE81E130C1F486
:101CB00080918100887F81608093810050938900AA
:101CC0004093880080921B1590921C15A0921D15C0
:101CD000B0921E1580916F00826080936F00EDCEF0
:101CE000FE81F330C1F480919100887F8160809300
:101CF000910050939900409398008092171590920C
:101D00001815A0921915B0921A1580917100826071
:101D100080937100D2CE8E818430C1F48091A10075
:101D2000887F81608093A1005093A9004093A80010
:101D30008092131590921415A0921515B092161555
:101D400080917200826080937200B7CE9E81953040
:101D500009F0A7CE80912101887F816080932101C5
:101D6000509329014093280180920F1590921015ED
:101D7000A0921115B0921215809173008260809329
:101D800073009BCEFE81F43079F20CF4B2CFF530C3
:101D900039F393CE4093B3008092831590928415CB
:101DA000A0928515B0928615809170008260809314
:101DB000700083CE85B5887F836085BD47BD8092E6
:101DC0001F1590922015A0922115B0922215809196
:101DD0006E00826080936E0070CE4F925F926F9221
:101DE0007F928F929F92AF92BF92CF92DF92EF92AB
:101DF000FF920F931F93CF93DF93CDB7DEB72E974C
:101E00000FB6F894DEBF0FBECDBF809163179091DF
:101E100064172091651731E0309395162093B7161B
:101E2000109296161092B816DC01ED91FC9101907B
:101E3000F081E02D6BE3199580E00E94FA05109186
:101E400065170E945F034B015C0180918F16811121
:101E500066C081E080938F1680938E169FEF9093DB
:101E60008D1610928C169DE090938B1680936A16B7
:101E700080916A16110F182B10936A1680916916BB
:101E8000813009F0A9C1109269160E945F034B01CD
:101E90005C0180916A168093BB00809191169091AD
:101EA0009216A0919316B0919416892B8A2B8B2BA6
:101EB000A1F00E945F03009191161091921620915B
:101EC000931630919416681979098A099B090617A7
:101ED00017072807390708F443C08091BC0083FD29
:101EE000D8CF85EC8093BC000E945F034B015C015E
:101EF00080918F16813009F471C180918C168E30DB
:101F000008F08EC180918C16ABE6B6E1E9E4F6E10B
:101F100090E0981751F12D9121939F5FFACF809116
:101F2000911690919216A0919316B0919416892BC8
:101F30008A2B8B2B09F489CF0E945F034090911666
:101F400050909216609093167090941668197909C3
:101F50008A099B09461657066806790608F075CF68
:101F6000809190160E94BB0580E0109248168093E5
:101F700047168E010F5F1F4F6E01BFE0CB0ED11CC5
:101F80008091631790916417DC01ED91FC910284BC
:101F9000F385E02D1995B82E809163179091641701
:101FA000DC01ED91FC910284F385E02D1995E12C83
:101FB0008E299B29F801819391938F01CE16DF061C
:101FC000F9F6C0906A17D0906B17E0906C17F090FC
:101FD0006D1769817A81072E000C880B990B0E947E
:101FE0009B3CA70196010E94133F20917A173091E4
:101FF0007B1740917C1750917D170E94343E60936F
:102000008A1770938B1780938C1790938D176B8121
:102010007C81072E000C880B990B0E949B3CA7012A
:1020200096010E94133F20917E1730917F174091B7
:102030008017509181170E94343E60938E177093E1
:102040008F1780939017909391178091621761E09A
:102050006827681B770B072E000C880B990B0E94D2
:102060009B3C4B015C016D817E81072E000C880B2F
:10207000990B0E949B3C9B01AC01C501B4010E94DD
:10208000FA3CA70196010E94133F209182173091DC
:10209000831740918417509185170E94343E6093B6
:1020A00092177093931780939417909395176F815D
:1020B0007885072E000C880B990B0E949B3C20E032
:1020C00030EF41E456E40E94353E20E030E04AEA39
:1020D00053E40E94133F6093861770938717809391
:1020E000881790938917C0906617D0906717E09073
:1020F0006817F090691769857A85072E000C880BA0
:10210000990B0E949B3CA70196010E94133F2091CE
:102110006E1730916F1740917017509171170E9490
:10212000343E609396177093971780939817909307
:1021300099176B857C85072E000C880B990B0E94E4
:102140009B3CA70196010E94133F2091721730918A
:10215000731740917417509175170E94343E609325
:102160009A1770939B1780939C1790939D176D857A
:102170007E85072E000C880B990B0E949B3CA701C3
:1021800096010E94133F2091761730917717409166
:102190007817509179170E94343E60939E17709380
:1021A0009F178093A0179093A1172E960FB6F894BF
:1021B000DEBF0FBECDBFDF91CF911F910F91FF907A
:1021C000EF90DF90CF90BF90AF909F908F907F90D7
:1021D0006F905F904F90089585EE84CE8091911618
:1021E00090919216A0919316B0919416892B8A2BF8
:1021F0008B2B09F47DCE0E945F0300919116109104
:1022000092162091931630919416681979098A09CB
:102210009B09061717072807390708F069CEA0CED3
:102220008EE072CE7F928F929F92AF92BF92CF92AA
:10223000DF92EF92FF920F931F93CF93DF93EC0106
:10224000062F142F188A19AE1AAE0E944708882349
:1022500009F457C0602F660F6160CE010E94980993
:1022600081114BC0188A7E01A12EB12CD12CC12C1A
:10227000450181E0881A9108CA14DB0459F100E095
:1022800088E0782EC814D904DCF4000FCE010E9437
:10229000A808082B7A947110F8CF60E0CE010E9454
:1022A000180989899A89009711F00E945403F7014F
:1022B000018FFFEFCF1ADF0A8FEFE81AF80ADCCFA1
:1022C000000FCE010E94A808082B7A947110F8CF55
:1022D00061E0E4CF19AFCE010E94C507812FDF91E5
:1022E000CF911F910F91FF90EF90DF90CF90BF9013
:1022F000AF909F908F907F90089582E0888B10E040
:10230000EACF84E0FBCFFF920F931F93CF93DF932D
:10231000EC01F62E8C01095F1F4F69E2C8010E9493
:10232000C2096F2D6068C8010E94AE09C8010E94F1
:10233000C50742E069E2C8010E941211FE01E05C9B
:10234000FF4F8081319690812FEF3FEF981740F437
:10235000DE01A90FB11D90962C9130E09F5F908314
:1023600090814FEF5FEF981728F4C90FD11D48A156
:102370009F5F908380E0942F822B932BDF91CF91EE
:102380001F910F91FF9008950F931F93CF93DF93A9
:10239000162F022FEC01279669E2CE010E94C20996
:1023A000612F6068CE010E94AE09602FCE010E94AD
:1023B000AE09CE01DF91CF911F910F910C94C5070B
:1023C000FC0101900020E9F73197AF01481B590B40
:1023D000BC0189EB96E10C9408048F929F92AF9216
:1023E000BF920F931F93CF93DF93CDB7DEB7A19723
:1023F0000FB6F894DEBF0FBECDBF19A2423008F46D
:102400004AE08E010F5D1F4F842E912CB12CA12C20
:10241000A50194010E94033EE62FB901CA01EA30EA
:10242000F4F4E05DD801EE938D01232B242B252BB2
:1024300079F790E080E0109719F0CD010E94E0114B
:10244000A1960FB6F894DEBF0FBECDBFDF91CF913E
:102450001F910F91BF90AF909F908F900895E95C6E
:10246000E1CFCF92DF92EF92FF92CF93DF936C0197
:10247000990FEE08FF08F7FE19C06DE289EB96E1AF
:102480000E940205EC0166277727CB016C197D09B4
:102490008E099F094AE00E94ED118C0F9D1FDF916C
:1024A000CF91FF90EF90DF90CF9008954AE0C70161
:1024B000B601DF91CF91FF90EF90DF90CF900C9419
:1024C000ED11BC0190E080E04AE00C94ED11CF9357
:1024D000DF930E94E011EC0183E592E00E94E0119D
:1024E0008C0F9D1FDF91CF91089586E592E00E94A9
:1024F000671280E892E00E94671288E992E00E94E9
:10250000671280EB92E00E94671283EC92E00E94D7
:10251000671286ED92E00E94671287EE92E00E94B9
:10252000671288EF92E00E94671284E193E00E94B4
:10253000671282E393E00E9467128AEA9DE00C949E
:1025400067128DE393E00E94671280E892E00E9498
:10255000671284E693E00E94671289E793E00E9485
:10256000671289E893E00E94671289E993E00E946C
:10257000671287EA93E00E94671285EB93E00E945E
:1025800067128EEC93E00E94671282E393E00E9450
:1025900067128AEA9DE00C94671280EF93E00E9434
:1025A00067128BE094E00E94671281E294E00E943F
:1025B00067128AE394E00E94671280E594E00E942B
:1025C00067128AEA9DE00C9467128BE594E00E9402
:1025D000671280E892E00E9467128BE694E00E9406
:1025E000671288E794E00E9467128BE894E00E94EB
:1025F000671281EA94E00E94671284EB94E00E94E3
:1026000067128EEC94E00E94671287EE94E00E94BD
:10261000671283E095E00E94671280E295E00E94D5
:1026200067128AEA9DE00C94671289E295E00E94A5
:1026300067126AE570E081EC97E10E948D0A6AE515
:1026400070E08EEB97E10E948D0A68EE73E080E007
:1026500090E00C948403CF93DF930E943112EC013D
:1026600083E592E00E94E0118C0F9D1FDF91CF91D6
:1026700008950C94E011CF93DF930E946112EC0156
:1026800083E592E00E94E0118C0F9D1FDF91CF91B6
:1026900008954F925F926F927F928F929F92AF9226
:1026A000BF92CF92DF92EF92FF920F931F93CF933F
:1026B0006B017C01742EAC019B010E948940882330
:1026C00099F088E395E0CF911F910F91FF90EF90E3
:1026D000DF90CF90BF90AF909F908F907F906F9042
:1026E0005F904F900C94E01146015701E894B7F8C1
:1026F0002FEF3FEF4FE75FE7C501B4010E9489402C
:1027000081110DC02FEF3FEF4FE75FE7C501B40127
:102710000E94943C18161CF48CE395E0D4CF2FEF64
:102720003FEF4FE75FE4C701B6010E94E23F181692
:102730001CF480E495E0C7CF2FEF3FEF4FE75FEC4D
:10274000C701B6010E94943C87FDF3CF20E030E042
:10275000A901C701B6010E94943C10E000E087FF88
:102760000AC06DE289EB96E10E9402058C01F7FA3E
:10277000F094F7F8F094C0E060E070E080E09FE350
:102780007C1641F020E030E040E251E40E94133F2B
:10279000CF5FF6CFA70196010E94353E2B013C0189
:1027A0000E948C3F4B015C014AE00E94ED117C01CC
:1027B000E00EF11ECC23A9F1C501B4010E94993CA1
:1027C0009B01AC01C301B2010E94343E4B015C018C
:1027D0006EE289EB96E10E940205E80EF91EC150F7
:1027E00000F120E030E040E251E4C501B4010E9474
:1027F000FA3C2B013C010E948C3F4B01CB010E9413
:102800006112E80EF91EB40190E080E00E94993C4C
:102810009B01AC01C301B2010E94343E4B015C013B
:10282000DECFC701CF911F910F91FF90EF90DF9006
:10283000CF90BF90AF909F908F907F906F905F9060
:102840004F900895BF92CF92DF92EF92FF920F9335
:102850001F93CF93DF93EC016C0187E0C80ED11C6E
:102860007E01E0E4EE0EF11CF70110828E010F5B99
:102870001F4FF8011082E989FA8990818A85809535
:10288000892380838A8D882331F0ED85FE858081C0
:102890009A85892B8083888D998D009711F00E94ED
:1028A0005403EF85F88990818985809589238083F9
:1028B0008A8D882331F0EB85FC8580819985892B71
:1028C000808384E0B82E888D998D009711F00E9446
:1028D0005403BA94B110F7CF8A8D882331F062E0A7
:1028E00070E080E090E00E94840369E2C6010E94EB
:1028F000C20962E9C6010E94AE09C6010E94C5076D
:1029000041E069E2C6010E941211F8012081F7013D
:102910008081281708F055C0FE01E20FF11D80A14B
:102920002F5FF8012083182F682F70E090E080E07F
:1029300040E10E94ED1183E592E00E94E01180E009
:102940001434A9F581E088830B811C81980150E043
:1029500040E061E0CE010E94C4111C830B83098119
:102960001A818881811103C0CE010E94221498012E
:1029700050E040E06FE0CE010E94C4111A83098349
:1029800021E030E040E050E060E0CE010E94C41160
:1029900063E070E080E090E00E94840323E030E098
:1029A00040E050E060E0CE010E94C41181E0DF9180
:1029B000CF911F910F91FF90EF90DF90CF90BF903C
:1029C00008958FEF9FEFAFCFAF92BF92CF92DF927C
:1029D000EF92FF920F931F93CF93DF93EC015B0174
:1029E0006A0179018881811103C0CE010E942214FD
:1029F00064E1CE010E948311F8019183808366E136
:102A0000CE010E948311F5019183808368E1CE019C
:102A10000E948311F601918380836AE1CE010E94B6
:102A20008311F701918380838B819C81853D910582
:102A3000A1F180F40097D9F1803C910599F1DF91E3
:102A4000CF911F910F91FF90EF90DF90CF90BF90AB
:102A5000AF900895863F9105D9F08F3F910541F0E1
:102A60008B3E910561F762E370E080E090E004C086
:102A700063E070E080E090E0DF91CF911F910F91D3
:102A8000FF90EF90DF90CF90BF90AF900C948403B5
:102A900068E170E080E090E0EFCF65E670E080E014
:102AA00090E0EACF6AE970E080E090E0E5CF6CEB7F
:102AB00072E080E090E0E0CF9F92AF92BF92CF9221
:102AC000DF92EF92FF920F931F93CF93DF9309E171
:102AD00016E12BE136E14DE156E16FE176E18FE061
:102AE00098E10E94E41440911B1650911C166091CD
:102AF0001D1670911E1680911F16909120160E942F
:102B0000470290931816809317160FE215E121E300
:102B100035E143E355E165E375E18DEC97E10E9412
:102B2000E414409131155091321560913315709134
:102B3000341580913515909136150E9447028C010D
:102B400090932E1580932D15C0901916D0901A16BB
:102B5000E0902F15F0903015A0901716B090181631
:102B60008091070290910802C816D906B4F020910E
:102B7000090230910A022C153D057CF020910B02D0
:102B800030910C02A216B30644F0C1E020910D0270
:102B900030910E022A153B050CF4C0E0E816F90648
:102BA000C4F08091090290910A028E159F058CF065
:102BB00080910B0290910C020817190754F0809134
:102BC0000D0290910E02DC2F9924939480179107A7
:102BD00014F4912CD0E084E495E00E9439138C2FFA
:102BE00090E00E942B1384E595E00E943913892D13
:102BF00090E00E942B1385E695E00E9439138D2FFB
:102C000090E00E942B1383E795E00E943913C601E0
:102C10000E94311289E795E00E943913C7010E9492
:102C20002B1382E895E00E9439138091171690913A
:102C300018160E94611289E895E00E94391380916C
:102C40002D1590912E150E943B1383E995E00E946B
:102C5000391380911F16909120160E94611288E905
:102C600095E00E94391380913515909136150E9498
:102C70003B1380EA95E00E94391380911D169091D4
:102C80001E160E94611285EA95E00E943913809118
:102C90003315909134150E943B138DEA95E00E9404
:102CA000391380911B1690911C160E94611282EBC1
:102CB00095E00E94391380913115909132150E9450
:102CC0003B138AEB95E00E9439138091191690917D
:102CD0001A160E9461128FEB95E00E9439138091C1
:102CE0002F15909130150E943B1387EC95E00E94C0
:102CF00039138091070290910802C816D90644F052
:102D000081E02091090230910A022C153D050CF456
:102D100080E090E00E942B1382EF95E00E9439132F
:102D20008091070290910802E816F90644F081E0CC
:102D30002091090230910A022E153F050CF480E023
:102D400090E00E942B138DE196E00E943913809150
:102D50000B0290910C02A816B90644F081E0209174
:102D60000D0230910E022A153B050CF480E090E034
:102D70000E942B138AE496E00E94391380910B0283
:102D800090910C020817190744F081E020910D0280
:102D900030910E02201731070CF480E090E0DF91B3
:102DA000CF911F910F91FF90EF90DF90CF90BF9048
:102DB000AF909F900C942B135F926F927F928F92A3
:102DC0009F92AF92BF92CF92DF92EF92FF920F93BA
:102DD0001F93CF93DF9309E116E12BE136E14DE13B
:102DE00056E16FE176E18FE098E10E94E4144091B2
:102DF0001B1650911C1660911D1670911E16809125
:102E00001F16909120160E944702909318168093E7
:102E100017160FE215E121E335E143E355E165E3E0
:102E200075E18DEC97E10E94E4146090311570908B
:102E300032158090331590903415C0913515D0918E
:102E40003615A301B401CE010E9447028C01909374
:102E50002E1580932D15C0901916D0901A16E0905B
:102E60002F15F0903015A0901716B090181680917D
:102E70001F169091201620911D1630911E162817AE
:102E8000390770F540911B1650911C1648175907C9
:102E900038F5821B930B20910F02309110022817F6
:102EA0003907F0F48091110290911202C816D906E8
:102EB000BCF080911302909114028C159D0584F052
:102EC0008091150290911602A816B9064CF055246F
:102ED000539480911702909118028A159B050CF467
:102EE000512C8C169D0650F56C167D0638F5C819C8
:102EF000D90980910F02909110028C179D07F0F470
:102F00008091110290911202E816F906BCF08091AE
:102F10001302909114028E159F0584F08091150282
:102F200090911602081719074CF0809117029091A2
:102F30001802C52DD1E08017910714F4D0E0C0E04D
:102F400087E796E00E943913852D90E00E942B13AD
:102F50008AE896E00E9439138D2F90E00E942B138F
:102F60008EE996E00E9439138C2F90E00E942B137B
:102F700083E795E00E943913C6010E94311289E768
:102F800095E00E943913C7010E942B1382E895E057
:102F90000E94391380911716909118160E946112A1
:102FA00089E895E00E94391380912D1590912E1596
:102FB0000E943B1383E995E00E94391380911F160C
:102FC000909120160E94611288E995E00E943913C1
:102FD00080913515909136150E943B1380EA95E05B
:102FE0000E94391380911D1690911E160E94611245
:102FF00085EA95E00E94391380913315909134153C
:103000000E943B138DEA95E00E94391380911B16B4
:1030100090911C160E94611282EB95E00E94391378
:1030200080913115909132150E943B138AEB95E007
:103030000E9439138091191690911A160E946112FC
:103040008FEB95E00E94391380912F1590913015E8
:103050000E943B138FEA96E00E943913809111027F
:1030600090911202C816D90644F081E02091130213
:10307000309114022C153D050CF480E090E00E9484
:103080002B138CED96E00E943913809111029091E0
:103090001202E816F90644F081E020911302309103
:1030A00014022E153F050CF480E090E00E942B13D3
:1030B00089E097E00E9439138091150290911602E1
:1030C000A816B90644F081E0209117023091180249
:1030D0002A153B050CF480E090E00E942B138CE352
:1030E00097E00E94391380911502909116020817FB
:1030F000190744F081E0209117023091180220173F
:1031000031070CF480E090E00E942B138FE697E0EB
:103110000E94391320911F163091201680911D16A0
:1031200090911E168217930740F481E040911B1680
:1031300050911C164217530708F080E090E00E945F
:103140002B1384E897E00E94391320911F163091C9
:10315000201680911D1690911E16281B390B81E0B8
:1031600090E040910F02509110024217530710F067
:1031700090E080E00E942B138AEA97E00E943913C6
:103180002091351530913615809133159091341575
:103190008217930740F481E0409131155091321528
:1031A0004217530708F080E090E00E942B138FEB4A
:1031B00097E00E9439132091351530913615809192
:1031C000331590913415281B390B81E090E0409124
:1031D0000F02509110024217530710F090E080E068
:1031E000DF91CF911F910F91FF90EF90DF90CF90E3
:1031F000BF90AF909F908F907F906F905F900C9456
:103200002B135F926F927F928F929F92AF92BF9299
:10321000CF92DF92EF92FF920F931F93CF93DF93A2
:1032200009E116E12BE136E14DE156E16FE176E18E
:103230008FE098E10E94E41440911B1650911C16F7
:1032400060911D1670911E1680911F169091201688
:103250000E94470290931816809317160FE215E10B
:1032600021E335E143E355E165E375E18DEC97E159
:103270000E94E4146090311570903215A0903315BF
:10328000B09034158090351590903615A301B50196
:10329000C4010E9447027C0190932E1580932D1546
:1032A0000091191610911A16C0912F15D091301552
:1032B000C0901716D090181680911D1690911E166A
:1032C00020911F16309120162817390770F540916C
:1032D0001B1650911C164817590738F5821B930B83
:1032E0002091190230911A0228173907F0F48091C1
:1032F00021169091221608171907BCF08091231609
:10330000909124168017910784F080912516909152
:103310002616C816D9064CF05524539480912716CA
:10332000909128168C159D050CF4512C8A149B0441
:1033300050F56A147B0438F5A818B9088091190271
:1033400090911A028A159B05F0F4809121169091B4
:103350002216C817D907BCF0809123169091241625
:103360008C179D0784F08091251690912616E816FB
:10337000F9064CF0BB24B39480912716909128163F
:103380008E159F050CF4B12C48018C1A9D0A97FEEE
:1033900003C091948194910824E6821691041CF450
:1033A000AB2C511001C0A12C85EE97E00E9439137F
:1033B000852D90E00E942B1385EF97E00E94391332
:1033C0008B2D90E00E942B1386E098E00E94391329
:1033D0008A2D90E00E942B1383E795E00E94391319
:1033E000C8010E94311289E795E00E943913CE018D
:1033F0000E942B1382E895E00E94391380911716E2
:10340000909118160E94611289E895E00E94391384
:1034100080912D1590912E150E943B1383E995E024
:103420000E94391380911F16909120160E946112FC
:1034300088E995E00E9439138091351590913615F1
:103440000E943B1380EA95E00E94391380911D167B
:1034500090911E160E94611285EA95E00E94391330
:1034600080913315909134150E943B138DEA95E0BD
:103470000E94391380911B1690911C160E946112B4
:1034800082EB95E00E9439138091311590913215AD
:103490000E943B138AEB95E00E9439138091191624
:1034A00090911A160E9461128FEB95E00E943913D9
:1034B00080912F15909130150E943B1382E895E082
:1034C0000E94391380911716909118160E9461126C
:1034D00089E895E00E94391380912D1590912E1561
:1034E0000E943B1384E198E00E94391380912116D9
:1034F000909122160817190744F081E020912316B5
:1035000030912416201731070CF480E090E00E94DF
:103510002B138BE398E00E94391380912116909130
:103520002216C817D90744F081E020912316309164
:1035300024162C173D070CF480E090E00E942B131A
:1035400082E698E00E943913809125169091261604
:10355000C816D90644F081E020912716309128162C
:103560002C153D050CF480E090E00E942B138FE8B1
:1035700098E00E9439138091251690912616E8163E
:10358000F90644F081E020912716309128162E1577
:103590003F050CF480E090E00E942B138CEB98E048
:1035A0000E94391320911D1630911E1680911F160E
:1035B000909120168217930740F481E040911B16EA
:1035C00050911C164217530708F080E090E00E94CB
:1035D0002B1381ED98E00E94391320911D16309134
:1035E0001E1680911F1690912016281B390B81E022
:1035F00090E04091190250911A024217530710F0BF
:1036000090E080E00E942B138FEE98E00E94391327
:1036100020913315309134158091351590913615E0
:103620008217930740F481E0409131155091321593
:103630004217530708F080E090E00E942B1384E0CB
:1036400099E00E94391320913315309134158091FF
:10365000351590913615281B390B81E090E040918B
:10366000190250911A024217530710F090E080E0BF
:103670000E942B1384E198E00E9439138091211657
:10368000909122160817190744F081E02091231623
:1036900030912416201731070CF480E090E00E944E
:1036A0002B138BE398E00E9439138091211690919F
:1036B0002216C817D90744F081E0209123163091D3
:1036C00024162C173D070CF480E090E00E942B1389
:1036D00082E698E00E943913809125169091261673
:1036E000C816D90644F081E020912716309128169B
:1036F0002C153D050CF480E090E00E942B138FE820
:1037000098E00E9439138091251690912616E816AC
:10371000F90644F081E020912716309128162E15E5
:103720003F050CF480E090E00E942B1382E299E0C8
:103730000E94391381E090E024E68216910414F08F
:1037400090E080E0DF91CF911F910F91FF90EF907B
:10375000DF90CF90BF90AF909F908F907F906F90B1
:103760005F900C942B130F931F9309E116E12BE14B
:1037700036E14DE156E16FE176E18FE098E10E949C
:10378000E41440911B1650911C1660911D16709107
:103790001E1680911F16909120160E94470290934A
:1037A0001816809317160FE215E121E335E143E384
:1037B00055E165E375E18DEC97E10E94E4144091D9
:1037C00031155091321560913315709134158091F7
:1037D0003515909136150E94470290932E158093CF
:1037E0002D158AE499E00E94671288E79EE00E9406
:1037F000391380911716909118160E9461128EE568
:1038000099E00E9439138AE89EE00E943913809162
:103810001F16909120160E94611280E699E00E9486
:10382000391385ED9FE00E94391380911D16909108
:103830001E160E94611280E699E00E94391382E60A
:1038400099E00E94391380911B1690911C160E94DA
:10385000611280E699E00E94391381E89EE00E949F
:1038600039138091191690911A160E94611280E600
:1038700099E00E94391380E699E00E94671286E67B
:1038800099E00E94671288E79EE00E9439138091B8
:103890002D1590912E150E9461128EE599E00E94DF
:1038A00039138AE89EE00E94391380913515909172
:1038B00036150E94611280E699E00E94391385ED69
:1038C0009FE00E94391380913315909134150E9426
:1038D000611280E699E00E94391382E699E00E9425
:1038E000391380913115909132150E94611280E652
:1038F00099E00E94391381E89EE00E94391380917B
:103900002F15909130150E94611280E699E00E9477
:10391000391380E699E00E9467128BE799E00E94D4
:10392000671285E999E00E943913809133159091CF
:1039300034152091351530913615821B930B0E945A
:103940003B138EE999E00E943913809133159091D1
:1039500034152091311530913215821B930B0E9442
:103960003B1387EA99E00E94671285E999E00E947B
:10397000391380911D1690911E1620911F163091BB
:103980002016821B930B0E943B138EE999E00E9444
:10399000391380911D1690911E1620911B1630919F
:1039A0001C16821B930B0E943B136AEF70E080E0B1
:1039B00090E00E9484031F910F9108954F925F92AF
:1039C0006F927F928F929F92AF92BF92CF92DF922F
:1039D000EF92FF920F931F93CF93DF93CDB7DEB794
:1039E0002C970FB6F894DEBF0FBECDBF0E94ED0E30
:1039F000C0909217D0909317E0909417F09095177D
:103A000021E030E03A83298320E030E0A901C701BA
:103A1000B6010E94E23F87FF02C01A82198201E0CC
:103A200010E020E030E0A901C701B6010E94943CFB
:103A300087FD02C010E000E069817A81601B710B94
:103A4000072E000C880B990B0E949B3C6D837E8394
:103A50008F839887A7019601C701B6010E94FA3C9F
:103A60002B013C01C0908A17D0908B17E0908C17E7
:103A7000F0908D17A7019601C701B6010E94FA3C8C
:103A8000A30192010E94353E0E9445409B01AC017A
:103A900080908E1790908F17A0909017B0909117EC
:103AA0006D817E818F8198850E94FA3C9B01AC01DB
:103AB000C501B4010E94B43E21EE3EE245E652E467
:103AC0000E94FA3C6093A2177093A3178093A417E7
:103AD0009093A517A5019401C501B4010E94FA3C79
:103AE000A30192010E94353E0E9445409B01AC011A
:103AF000C701B6010E94B43E905821EE3EE245E671
:103B000052E40E94FA3C6093A6177093A717809323
:103B1000A8179093A9170E94B7036B017C018091AD
:103B2000B6179091B717A091B817B091B917A70120
:103B30009601281B390B4A0B5B0BCA01B9010E9485
:103B4000993C2FE632E143E85AE30E94FA3C4B01EC
:103B50005C01C092B617D092B717E092B817F092F6
:103B6000B9178091BA179091BB17A091BC17B0916B
:103B7000BD1789839A83AB83BC834090A217509072
:103B8000A3176090A4177090A517209196173091F5
:103B900097174091981750919917C501B4010E9449
:103BA000FA3C2091AA173091AB174091AC17509175
:103BB000AD170E94353EA30192010E94343E6B0175
:103BC0007C0120E030E044E353E40E94E23F181619
:103BD0003CF420E030E044EB53E4C701B601EDCF04
:103BE00020E030E044E353ECC701B6010E94943C6E
:103BF00087FF0BC020E030E044EB53E4C701B6017F
:103C00000E94353E6B017C01EBCF29813A814B81CB
:103C10005C8160E070E080E89FE30E94343E698749
:103C20007A878B879C87A7019601C301B2010E9406
:103C3000353E29813A814B815C810E94FA3C6B01BF
:103C40007C0129853A854B855C85C301B2010E94C0
:103C5000FA3C9B01AC01C701B6010E94353E6B01E5
:103C60007C0120E030E044E353E40E94E23F181678
:103C70004CF420E030E044EB53E4C701B6010E946D
:103C8000343EEDCF20E030E044E353ECC701B60111
:103C90000E94943C87FF0BC020E030E044EB53E4EB
:103CA000C701B6010E94353E6B017C01EBCFC0928B
:103CB000AA17D092AB17E092AC17F092AD174090D4
:103CC000A6175090A7176090A8177090A917209179
:103CD0009A1730919B1740919C1750919D176D81B9
:103CE0007E818F8198850E94FA3CA50194010E94F3
:103CF000FA3C2091AE173091AF174091B017509118
:103D0000B1170E94353EA30192010E94343E6B011F
:103D10007C0120E030E044EB52E40E94E23F1816C0
:103D20003CF420E030E044E353E4C701B601EDCFBA
:103D300020E030E044EB52ECC701B6010E94943C15
:103D400087FF0BC020E030E044E353E4C701B60135
:103D50000E94353E6B017C01EBCFA7019601C301A8
:103D6000B2010E94353E29813A814B815C810E94DB
:103D7000FA3C6B017C01A301920169857A858B85F0
:103D80009C850E94FA3C9B01AC01C701B6010E94D0
:103D9000353E6B017C0120E030E044EB52E40E94B0
:103DA000E23F18164CF420E030E044E353E4C7014E
:103DB000B6010E94343EEDCF20E030E044EB52ECFF
:103DC000C701B6010E94943C87FF0BC020E030E0A1
:103DD00044E353E4C701B6010E94353E6B017C0108
:103DE000EBCFC092AE17D092AF17E092B017F0921F
:103DF000B11720919E1730919F174091A0175091B5
:103E0000A117C501B4010E94FA3C2091B21730916C
:103E1000B3174091B4175091B5170E94353E609387
:103E2000B2177093B3178093B4179093B5172C966D
:103E30000FB6F894DEBF0FBECDBFDF91CF911F91BB
:103E40000F91FF90EF90DF90CF90BF90AF909F9039
:103E50008F907F906F905F904F9008950E94DE1C2E
:103E60006091B2177091B3178091B4179091B51704
:103E70000E94853FCB0108950E942E1F90933A1611
:103E80008093391620913716309138168217930790
:103E900084F464E670E08AEC97E10E948D0A6AE59A
:103EA00070E087EC97E10E948D0A80EC99E00C9419
:103EB0006712281739077CF46AE570E08AEC97E10D
:103EC0000E948D0A60E570E087EC97E10E948D0A00
:103ED00083ED99E0ECCF8217930779F460EA70E004
:103EE0008AEC97E10E948D0A64E170E087EC97E12B
:103EF0000E948D0A86EE99E0DACF0895EF92FF9244
:103F00000F931F93CF93DF9389EF99E00E9467127D
:103F100068E770E08AEC97E10E948D0A6CE370E03C
:103F200087EC97E10E948D0A0E94DE1C66E970E032
:103F300080E090E00E9484036AE570E08AEC97E1FB
:103F40000E948D0A6AE570E087EC97E10E948D0A75
:103F500009E116E12BE136E14DE156E16FE176E151
:103F60008FE098E10E94E41440911B1650911C16BA
:103F700060911D1670911E1680911F16909120164B
:103F80000E94470290931816809317160FE215E1CE
:103F900021E335E143E355E165E375E18DEC97E11C
:103FA0000E94E414E0903115F0903215C091331561
:103FB000D09134150091351510913615A701BE0129
:103FC000C8010E944702FC0190932E1580932D1585
:103FD0004091191650911A1660912F157091301555
:103FE00080910502909106028417950724F48617A4
:103FF00097070CF433C120911D1630911E16809145
:104000001F16909120168217930788F5A0911B1612
:10401000B0911C16A217B30750F5281B390B8091DD
:10402000190290911A028217930708F580912116C0
:104030009091221648175907D4F080912316909139
:104040002416841795079CF08091171690911816E6
:1040500020912516309126168217930744F021E00F
:10406000A0912716B0912816A817B9070CF420E0E4
:104070000C171D0748F5EC16FD0630F5C01BD10BDB
:104080008091190290911A028C179D07E8F4809193
:1040900021169091221668177907B4F080912316A3
:1040A00090912416861797077CF0809125169091A1
:1040B0002616E817F90744F091E0A0912716B09171
:1040C0002816AE17BF070CF490E0461B570B57FF9E
:1040D00003C0519541955109443651050CF053C028
:1040E000222309F4DBC0992309F450C084E09AE04C
:1040F0000E94391388E19AE00E94391380913716A3
:10410000909138160E9431128AEE94E10E94391380
:104110000E942E1F0E942B1362E370E08AEC97E14D
:104120000E948D0A62E370E087EC97E10E948D0A9D
:1041300044E650E063E070E088EE93E00E94BA0C41
:10414000C0913716D0913816CF5AD1090E942E1F30
:10415000C817D9070CF05EC00E94DE1C89E29AE005
:104160000E9439130E942E1F0E94311286E59AE0A8
:104170000E94391380913716909138168F5A910901
:104180000E942B13DDCF222309F488C082E69AE037
:104190000E94671268E770E08AEC97E10E948D0A3E
:1041A0006CE370E087EC97E10E948D0A60E070E0BC
:1041B000CB010E9484036CE370E08AEC97E10E94DB
:1041C0008D0A6CE370E087EC97E10E948D0AC09144
:1041D0003716D0913816CA55D1090E942E1FC8171C
:1041E000D9070CF042C00E94DE1C84E79AE00E94CE
:1041F00039130E942E1F0E94311286E59AE00E9418
:10420000391380913716909138168A5591090E947A
:104210002B13DDCF68E770E08AEC97E10E948D0AEE
:104220006CE370E087EC97E10E948D0A60ED77E027
:1042300080E090E00E9484038091371690913816B8
:104240008F5A910990933816809337161092311631
:10425000109232161092331610923416DF91CF91CD
:104260001F910F91FF90EF90089568E770E08AEC3E
:1042700097E10E948D0A6CE370E087EC97E10E9461
:104280008D0A60ED77E080E090E00E9484038091E9
:104290003716909138168A559109D4CF9923F1F2A7
:1042A0008AEA9AE00E94671268E770E08AEC97E178
:1042B0000E948D0A6CE370E087EC97E10E948D0A02
:1042C00060E070E0CB010E9484030E942E1F909357
:1042D00038168093371668E770E08AEC97E10E9401
:1042E0008D0A68E770E087EC97E10E948D0AC09123
:1042F0003716D0913816C65ADF4F0E942E1F8C17E2
:104300009D07BCF40E94DE1C8DEB9AE00E943913DD
:104310000E942E1F0E94311286E59AE00E943913F6
:104320008091371690913816865A9F4F0E942B1312
:10433000DECF68E770E08AEC97E10E948D0A6CE3BB
:1043400070E087EC97E10E948D0A60ED77E080E0F5
:1043500090E00E9484038091371690913816865A17
:104360009F4F70CF0F931F93CF93DF93EC01888102
:104370009981009759F02A813B812617370730F041
:1043800081E0DF91CF911F910F9108958B016F5FB5
:104390007F4F0E940343009759F0998388831B83C2
:1043A0000A832C813D81232B59F7FC011082E8CF31
:1043B00080E0E7CFCF92DF92EF92FF92CF93DF932F
:1043C000CDB7DEB7E2970FB6F894DEBF0FBECDBF14
:1043D000DC01AE014D5C5F4FFE0131969C9196333E
:1043E00008F0965320917B00892F8870277F822BBD
:1043F00080937B0020911E0280E4289F900111246D
:104400009770922B90937C0090917A009064909397
:104410007A0080917A0086FDFCCF8091780090919F
:104420007900819391934E175F07C1F628E130E040
:10443000FE01319650E040E081E04217530784F4DA
:10444000E080F180C280D380CE14DF042CF4D182CE
:10445000C082F382E28280E04F5F5F4F3296EDCF01
:10446000811103C02150310919F712968D919D9148
:104470000D90BC91A02D883324E09207A105B105D1
:1044800091F5A98DBA8D28E833E10E94C3412FEF41
:1044900033E040E050E00E94D13DCA01B9010E94E2
:1044A0009B3C20E030E04AE754E40E94133F2EE0BA
:1044B0003DE24AE95FEB0E94EF3F22EF32ED4DED26
:1044C00051E40E94FA3C0E94853FCB01E2960FB670
:1044D000F894DEBF0FBECDBFDF91CF91FF90EF907C
:1044E000DF90CF900895863B2EE49207A105B10599
:1044F00009F5A98DBA8D28E833E10E94C3412FEF59
:1045000033E040E050E00E94D13DCA01B9010E9471
:104510009B3C20E030E04AE754E40E94133F21EE48
:104520003AE744E95FEB0E94EF3F2AEF3EE741E7BD
:1045300052E4C7CF8E3A21E09207A105B10509F5F3
:10454000A98DBA8D28E833E10E94C3412FEF33E0F3
:1045500040E050E00E94D13DCA01B9010E949B3C5D
:1045600020E030E04AE754E40E94133F2BE83CE6A9
:1045700047E85FEB0E94EF3F2EEA37E441E451E465
:10458000A0CF84399848A140B10509F09ECFA98DEC
:10459000BA8D28E833E10E94C3412FEF33E040E0B9
:1045A00050E00E94D13DCA01B9010E949B3C6B01C1
:1045B0007C0120E030E04FEA54E40E94943C87FD07
:1045C00027C020E030E44EE455E4C701B6010E9464
:1045D000E23F1816ECF020E030EA4CE854E4C70162
:1045E000B6010E94343E20E030E04AE754E40E94E5
:1045F000133F20E030E849E053E40E94133F9B0161
:10460000AC0160E070E080E89FE30E94133F5BCF65
:1046100070E060E05ACF8F929F92AF92BF92CF929C
:10462000DF92EF92FF92CF93DF938DE598E10E94A6
:10463000DA2107970CF089C168E770E08AEC97E10E
:104640000E948D0A68E770E087EC97E10E948D0A6E
:10465000C0913716D0913816C65ADF4F0E942E1FD0
:104660008C179D07BCF40E94DE1C84EF9AE00E9428
:1046700039130E942E1F0E94311286E59AE00E9493
:1046800039138091371690913816865A9F4F0E94A1
:104690002B13DECF60EA70E08AEC97E10E948D0A6E
:1046A00064E170E087EC97E10E948D0A80913716F3
:1046B00090913816865A9F4F9093381680933716EC
:1046C0000E94B7036B017C014B015C0128EB820E59
:1046D0002BE0921EA11CB11C0E94B7036C197D092E
:1046E0008E099F09683B7B408105910548F58CE266
:1046F0009BE00E9439130E94B7036C197D098E0953
:104700009F094AE00E94ED1183E592E00E94E011CA
:1047100083E59BE00E9439130E94B703A501940131
:10472000261B370B480B590BCA01B9014AE00E94FE
:10473000ED1183E592E00E94E0110E943C1FCCCF76
:1047400084E69BE00E9467126CE370E08AEC97E1DC
:104750000E948D0A6CE370E087EC97E10E948D0A5D
:10476000C0913716D0913816CA55D1090E942E1F14
:10477000C817D907BCF40E94DE1C8BE79BE00E949F
:1047800039130E942E1F0E94311286E59AE00E9482
:10479000391380913716909138168A5591090E94E5
:1047A0002B13DECF60EA70E08AEC97E10E948D0A5D
:1047B00064E170E087EC97E10E948D0A80913716E2
:1047C000909138168A559109909338168093371630
:1047D0000E94B7036B017C010E94B7036C197D092D
:1047E0008E099F0968357B418105910518F40E9467
:1047F0003C1FF2CF6CE370E08AEC97E10E948D0AD7
:104800006CE370E087EC97E10E948D0AC091371647
:10481000D0913816CA55D1090E942E1FC817D90742
:10482000BCF40E94DE1C82EB9BE00E9439130E94C4
:104830002E1F0E94311286E59AE00E943913809162
:104840003716909138168A5591090E942B13DECFA6
:1048500060EA70E08AEC97E10E948D0A64E170E002
:1048600087EC97E10E948D0A809137169091381657
:104870008A55910990933816809337160E94780CC8
:1048800090933C1680933B16E0913B16F0913C16BA
:1048900084819581019719F40E943C1FEFCF68E74E
:1048A00070E08AEC97E10E948D0A6CE370E087EC7F
:1048B00097E10E948D0A68EE73E080E090E00E942C
:1048C000840368E770E08AEC97E10E948D0A68E74C
:1048D00070E087EC97E10E948D0AC0913716D09165
:1048E0003816C65ADF4F0E942E1F8C179D07BCF446
:1048F0000E94DE1C89EE9BE00E9439130E942E1F4D
:104900000E94311286E59AE00E9439138091371691
:1049100090913816865A9F4F0E942B13DECF68E77E
:1049200070E08AEC97E10E948D0A6CE370E087ECFE
:1049300097E10E948D0A8091371690913816865A19
:104940009F4F9093381680933716DF91CF91FF9049
:10495000EF90DF90CF90BF90AF909F908F90089591
:10496000EF92FF920F931F93CF93DF9309E116E12C
:104970002BE136E14DE156E16FE176E18FE098E120
:104980000E94E41440911B1650911C1660911D1654
:1049900070911E1680911F16909120160E9447025A
:1049A00090931816809317160FE215E121E335E175
:1049B00043E355E165E375E18DEC97E10E94E41472
:1049C000E0903115F09032150091331510913415A7
:1049D000C0913515D0913615A701B801CE010E94BE
:1049E000470290932E1580932D1520911F1630911C
:1049F000201640911D1650911E1642175307A8F518
:104A000060911B1670911C166217730770F5241BBA
:104A1000350B40910F02509110024217530728F5B1
:104A20002091191630911A164091110250911202DC
:104A300024173507D4F04091130250911402421705
:104A400053079CF0209117163091181640911502CB
:104A5000509116022417350744F0409117025091E7
:104A60001802421753070CF0D9C10C171D0708F0A4
:104A700005C120E0EC16FD0608F4D7C1FFC06AE5C9
:104A800070E087EC97E10E948D0A6AE570E08AEC9D
:104A900097E10E948D0A81E598E10E94DA21EC01FC
:104AA00087E598E10E94DA218C179D070CF09FC0E2
:104AB00083EB9AE00E94671268E770E08AEC97E166
:104AC0000E948D0A68E770E087EC97E10E948D0AEA
:104AD000C0913716D0913816C65ADF4F0E942E1F4C
:104AE0008C179D07ACF485EC9AE00E9439130E9464
:104AF0002E1F0E94311286E59AE00E9439138091A0
:104B0000371690913816865A9F4F0E942B13E0CF8C
:104B10008091371690913816865A9F4F9093381689
:104B2000809337166AE570E087EC97E10E948D0A62
:104B30006AE570E08AEC97E10E948D0A0E941513E5
:104B400068EE73E080E090E00E94840387EB9CE0D5
:104B50000E9467126AE570E084EC97E10E948D0A7A
:104B600060ED77E080E090E00E94840368EE73E0FF
:104B700080E090E00E948403E091C1178E2F90E0C6
:104B8000FC01EE0FFF1FE80FF91FE957FA4E808175
:104B90008F7B8083E091BE178E2F90E0FC01EE0F9B
:104BA000FF1FE80FF91FE957FA4E80818F7B808342
:104BB00068E770E087EC97E10E948D0A6CE370E093
:104BC0008AEC97E10E948D0A60ED77E080E090E04A
:104BD0000E9484030E942E1F9093381680933716EC
:104BE000DF91CF911F910F91FF90EF900895C8171B
:104BF000D9070CF0A3CF8BE69AE00E9467126CE312
:104C000070E08AEC97E10E948D0A6CE370E087EC1B
:104C100097E10E948D0AC0913716D0913816CA5577
:104C2000D1090E942E1FC817D907ACF48CE79AE06F
:104C30000E9439130E942E1F0E94311286E59AE0CD
:104C40000E94391380913716909138168A55910930
:104C50000E942B13E0CF80913716909138168A5519
:104C600091095CCF82EC9CE0DF91CF911F910F9175
:104C7000FF90EF900C946712211105C189E49CE02C
:104C80000E946712E0911916F0911A1620912F15C3
:104C900030913015609117167091181680912D156E
:104CA00090912E154091070250910802E417F507E4
:104CB000ACF0A0910902B0910A02AE17BF0774F0E0
:104CC000E0910B02F0910C026E177F073CF0E0912F
:104CD0000D02F0910E02E617F707E4F424173507EA
:104CE0000CF4C0CF4091090250910A0242175307B9
:104CF0000CF4B8CF20910B0230910C02821793076D
:104D00000CF4B0CF20910D0230910E022817390714
:104D10000CF4A8CF8AE59CE00E9467128BE69CE029
:104D20000E9467126AE570E08AEC97E10E948D0AA2
:104D30006AE570E087EC97E10E948D0A44E650E056
:104D400062E070E084EF91E00E94BA0C8AE090E0AB
:104D50000E945B2CEC018C0197FF02C00F5F1F4F7C
:104D6000159507950E94660C8DE79CE00E946712DE
:104D700070E060E081EC97E10E948D0A64EB70E0E6
:104D80008EEB97E10E948D0A68EE73E080E090E080
:104D90000E9484038BE89CE00E94671264EB70E041
:104DA00084EC97E10E948D0A60ED77E080E090E06E
:104DB0000E9484036CED75E080E090E00E94840323
:104DC0008BE19AE00E943913809137169091381642
:104DD0000E9431128AEE94E10E9439130E942E1F24
:104DE0000E942B13C017D1070CF449CE85E090E048
:104DF0000E945B2CEC018AE99CE00E943913CE01F1
:104E00000E9431128DEA9CE00E943913C8010E9471
:104E10002B130E943C1F0E94DE1CE4CF0C171D07C1
:104E200090F5EC16FD0678F521E0C01BD10B409102
:104E30000F02509110024C175D0708F01DCF4091F2
:104E40002F15509130156091110270911202461782
:104E500057070CF411CF609113027091140264177C
:104E600075070CF409CF4091150250911602841772
:104E700095070CF401CF4091170250911802481782
:104E800059070CF4F9CE81E29CE00E9467126AE5B2
:104E900070E08AEC97E10E948D0A6AE570E087EC89
:104EA00097E10E948D0A85E39CE0EFCF85ED80932A
:104EB000BC008091911690919216A0919316B0919A
:104EC00094160796A11DB11D23E0B695A795979559
:104ED00087952A95D1F72091BC0024FD03C010923C
:104EE0008F160895409191165091921660919316E5
:104EF00070919416452B462B472B69F30097A1051B
:104F0000B10541F02AE22A95F1F700C00197A10905
:104F1000B109E1CF809190160C94BB050F931F93BC
:104F2000CF93DF938C01EB010E94BB3D8883C801C6
:104F300001960E94BB3D8983CE01DF91CF911F91E5
:104F40000F910895CF93DF931F921F92CDB7DEB7D5
:104F500081ED9CE00E946712BE016F5F7F4F90E081
:104F600080E00E948E2787EF9CE00E9439138981A0
:104F70009A810E942B13BE016F5F7F4F82E090E009
:104F80000E948E2781E898E00E94391389819A81D6
:104F90000E942B13BE016F5F7F4F84E090E00E9460
:104FA0008E2785E09DE00E94391389819A810E94B5
:104FB0002B13BE016F5F7F4F86E090E00E948E272B
:104FC0008FE298E00E94391389819A810E942B1305
:104FD000BE016F5F7F4F88E090E00E948E2781E1E5
:104FE0009DE00E94391389819A810E942B13BE0192
:104FF0006F5F7F4F8AE090E00E948E278DE29DE0F8
:105000000E94391389819A810E942B13BE016F5F20
:105010007F4F8CE090E00E948E278EE39DE00E94FF
:10502000391389819A810E942B13BE016F5F7F4FD4
:105030008EE090E00E948E278CE49DE00E94391360
:1050400089819A810E942B13BE016F5F7F4F80E19F
:1050500090E00E948E2788E59DE00E9439138981A7
:105060009A810E942B13BE016F5F7F4F82E190E017
:105070000E948E278CE396E00E94391389819A81E1
:105080000E942B13BE016F5F7F4F84E190E00E946E
:105090008E2786E69DE00E94391389819A810E94BD
:1050A0002B13BE016F5F7F4F86E190E00E948E2739
:1050B00084EE95E00E94391389819A810E942B1316
:1050C000BE016F5F7F4F88E190E00E948E2784E7EA
:1050D0009DE00E94391389819A810E942B13BE01A1
:1050E0006F5F7F4F8AE190E00E948E278BE297E00E
:1050F0000E94391389819A810E942B13BE016F5F30
:105100007F4F8CE190E00E948E2785E89DE00E9411
:10511000391389819A810E942B13BE016F5F7F4FE3
:105120008EE190E00E948E278DEC96E00E9439136C
:1051300089819A810E942B13BE016F5F7F4F80E2AD
:1051400090E00E948E278EE897E00E9439138981B3
:105150009A810E942B1384E99DE00E9467120F90B0
:105160000F90DF91CF910895FF920F931F93CF93EC
:10517000DF93EC018B01FB01F0800E94BB3DF81630
:1051800021F06F2DCE010E94C33DF801F1802196E0
:10519000CE010E94BB3DF81621F06F2DCE010E947A
:1051A000C33DC801DF91CF911F910F91FF900895EA
:1051B0007F928F929F92AF92BF92CF92DF92EF92A7
:1051C000FF920F931F93CF93DF931F921F92CDB740
:1051D000DEB78C017B016A018BEB9DE00E943913E5
:1051E000C8010E94391385ED9DE00E94671289EB8A
:1051F00096E10E94CA04892B59F46AE070E080E0CD
:1052000090E00E948403F3CF89EB96E10E9444046E
:105210000E949804FC0197FD68C08D32910519F039
:10522000C0970A9788F7812C912C5401712CE1309A
:10523000F105D9F0ED32F10509F454C0CF01C09762
:105240000A9798F4AAE0B0E0A50194010E94F03D0D
:105250004F01FF0FAA08BB08860E971EA81EB91E95
:1052600080E3881A9108A108B10889EB96E10E94B1
:1052700044040E949804FC01C0970A97C0F2E130F0
:10528000F105A9F2772041F0B094A0949094809415
:10529000811C911CA11CB11C9A828982F601918209
:1052A0008082BE016F5F7F4FC7010E94B428C80192
:1052B0000E94391387ED9DE00E94391389819A81FC
:1052C0000E942B130F900F90DF91CF911F910F91A0
:1052D000FF90EF90DF90CF90BF90AF909F908F9016
:1052E0007F90089577247394C0CF812C912C540122
:1052F000D3CF1F920F920FB60F9211242F933F938B
:105300008F939F93AF93BF9380913F1690914016D8
:10531000A0914116B091421630913E1623E0230F22
:105320002D3758F50196A11DB11D20933E1680938F
:105330003F1690934016A0934116B0934216809169
:10534000431690914416A0914516B09146160196C9
:10535000A11DB11D8093431690934416A09345164A
:10536000B0934616BF91AF919F918F913F912F912E
:105370000F900FBE0F901F90189526E8230F0296EE
:10538000A11DB11DD2CF1F920F920FB60F92112403
:105390000BB60F922F933F934F935F936F937F932F
:1053A0008F939F93AF93BF93EF93FF938091831558
:1053B00090918415A0918515B0918615892B8A2B23
:1053C0008B2BE1F190918215E0918015F091811580
:1053D0008081892780838091831590918415A09185
:1053E0008515B0918615181619061A061B069CF429
:1053F0008091831590918415A0918515B0918615A3
:105400000197A109B1098093831590938415A09306
:105410008515B0938615FF91EF91BF91AF919F9144
:105420008F917F916F915F914F913F912F910F904D
:105430000BBE0F900FBE0F901F9018958091000229
:105440000E94C303E8CF1F920F920FB60F92112450
:105450000BB60F922F933F934F935F936F937F936E
:105460008F939F93AF93BF93EF93FF9389EB96E155
:105470000E94E004FF91EF91BF91AF919F918F91B6
:105480007F916F915F914F913F912F910F900BBE44
:105490000F900FBE0F901F9018951F920F920FB68E
:1054A0000F9211240BB60F922F938F939F93EF932C
:1054B000FF93E091C916F091CA168081E091CF1652
:1054C000F091D01682FD1DC090818091D2168F5F21
:1054D0008F732091D316821741F0E091D216F0E03D
:1054E000E754F94E958F8093D216FF91EF919F91DB
:1054F0008F912F910F900BBE0F900FBE0F901F90AA
:1055000018958081F2CF1F920F920FB60F9211243F
:105510000BB60F922F933F934F935F936F937F93AD
:105520008F939F93AF93BF93EF93FF938091B900B5
:10553000887F803609F44DC008F040C0883209F4F5
:10554000A7C028F5803109F49BC0C8F4882309F46A
:10555000F7C0883009F494C0FF91EF91BF91AF91EB
:105560009F918F917F916F915F914F913F912F917B
:105570000F900BBE0F900FBE0F901F9018958831A3
:1055800009F486C0803241F780938D1614C08034B0
:1055900009F49BC040F48033B9F38833E9F6809373
:1055A0008D1685ECAEC0803509F483C0883509F4CA
:1055B00094C0883489F60E945627CECF883909F4E2
:1055C0008AC038F5883729F050F4883611F08037D2
:1055D00019F683E080938F1610927F1555C0883896
:1055E00009F479C0803919F0803809F0B5CF80917D
:1055F0007F15803208F06FC0E0917F1581E08E0F3B
:1056000080937F158091BB00F0E0E15AFA4E8083D1
:105610003BC0803B39F0D0F4803A09F477C0883A37
:1056200009F09ACF84E080938F1610925E15109245
:105630005D15F0E0E0E0199580915D1581110FC0D6
:1056400081E080935D1510923D1509C0803C09F4FE
:10565000A8CF883C09F4A5CF883B09F07DCFE09125
:105660005E1581E08E0F80935E15F0E0E35CFA4EEC
:1056700080818093BB0090915E1580915D1529C05B
:1056800080916A168093BB0085EC8093BC0064CF48
:1056900090918C1680918B16981758F5E0918C1686
:1056A00081E08E0F80938C16F0E0E559F94E8081F1
:1056B000E9CFE0918C1681E08E0F80938C1680915B
:1056C000BB00F0E0E559F94E808390918C168091F3
:1056D0008B169817C8F285E8D8CFE0918C1681E038
:1056E0008E0F80938C168091BB00F0E0E559F94E47
:1056F000808380918E1681115ECF81E08093691640
:1057000084EA8093BC0010928F1626CF85EC80939C
:10571000BC0010928F1680917F15803230F4E0919A
:105720007F15F0E0E15AFA4E108260917F1570E02B
:105730008FE595E1F0E0E0E0199510927F150CCF30
:1057400010928D1638CF1F920F920FB60F92112420
:105750000BB60F922F933F934F935F936F937F936B
:105760008F939F93AF93BF93EF93FF9348E251E0E2
:1057700064E271E090E080E00E94AC0BFF91EF9159
:10578000BF91AF919F918F917F916F915F914F9159
:105790003F912F910F900BBE0F900FBE0F901F9057
:1057A00018951F920F920FB60F9211240BB60F92FD
:1057B0002F933F934F935F936F937F938F939F9319
:1057C000AF93BF93EF93FF9348EA50E064EA70E031
:1057D00083E090E00E94AC0BFF91EF91BF91AF91FD
:1057E0009F918F917F916F915F914F913F912F91F9
:1057F0000F900BBE0F900FBE0F901F9018951F9229
:105800000F920FB60F9211240BB60F922F933F9366
:105810004F935F936F937F938F939F93AF93BF93B8
:10582000EF93FF9348E950E064E970E082E090E094
:105830000E94AC0BFF91EF91BF91AF919F918F911F
:105840007F916F915F914F913F912F910F900BBE80
:105850000F900FBE0F901F9018951F920F920FB6CA
:105860000F9211240BB60F922F933F934F935F9398
:105870006F937F938F939F93AF93BF93EF93FF9318
:1058800048E850E064E870E081E090E00E94AC0BF2
:10589000FF91EF91BF91AF919F918F917F916F9108
:1058A0005F914F913F912F910F900BBE0F900FBEC4
:1058B0000F901F901895CF92DF92EF92FF920F9367
:1058C0001F93CF93DF93EC0110E000E0C12CD12CAB
:1058D00076018DE598E10E94DA21092E000CAA0BD1
:1058E000BB0BC80ED91EEA1EFB1E6AE070E080E00A
:1058F00090E00E9484030F5F1F4FC017D10749F744
:105900009E01DD0F440B550BC701B6010E94D13D2E
:10591000C901DF91CF911F910F91FF90EF90DF9020
:10592000CF900895CF92DF92EF92FF92CF93DF93C3
:10593000E9EBF6E11382128288EE93E0A0E0B0E09A
:1059400084839583A683B78323E332E03183208366
:1059500025EC30E03587248724EC30E03787268734
:1059600020EC30E0318B208B21EC30E0338B228B2C
:1059700022EC30E0358B248B26EC30E0378B268B05
:10598000118E128E138E148EC6E5D7E11B821A82F9
:105990008C839D83AE83BF8385E492E09983888363
:1059A000EDE5F8E18AE390E09183808398E3C92EE6
:1059B00094E0D92EE12CF12CC282D382E482F582CC
:1059C00060E00E94230381E080931E02E7E5F8E196
:1059D00086E390E091838083C282D382E482F58261
:1059E00060E00E942303E1E5F8E188E390E0918321
:1059F0008083C282D382E482F58260E00E94230326
:105A000045E064E08FE098E10E94020A43E062E032
:105A10008DEC97E10E94020A8AEC97E10E94910BBB
:105A200087EC97E10E94910B84EC97E10E94910B27
:105A300081EC97E10E94910B8EEB97E10E94910B14
:105A4000E2E6F7E1108288E68383D283C18388E4AB
:105A500091EEAAE7BFE38093BA179093BB17A09388
:105A6000BC17B093BD171486158616861786108A44
:105A7000118A128A138A148A158A168A178A108E36
:105A8000118E128E138E148E158E168E178E10A2F6
:105A900011A212A213A2DF91CF91FF90EF90DF909D
:105AA000CF900895CF93DF93CDB7DEB76C970FB645
:105AB000F894DEBF0FBECDBF789484B5826084BDFC
:105AC00084B5816084BD85B5826085BD85B5816002
:105AD00085BD80916E00816080936E001092810080
