:020000040000FA
:100000000C94AB010C94DC010C94DC010C94DC012D
:100010000C94DC010C94DC010C94DC010C94DC01EC
:100020000C94DC010C94DC010C94DC010C94DC01DC
:100030000C94DC010C94D2190C94DC010C94DC01BE
:100040000C94DC010C94401C0C94DC010C94DC013D
:100050000C94DC010C94DC010C94DC010C948819E8
:100060000C94DC010C945C1A0C94321A0C94DC0194
:100070000C94DC010C94DC010C94DC010C94DC018C
:100080000C94121C0C94DC010C94DC010C94DC012B
:100090000C94DC010C94DC010C94DC010C94921A9D
:1000A0000C94DC010C94DC010C94E41B0C94DC013A
:1000B0000C94DC010C94DC010C94DC010C94B61B58
:1000C0000C94DC010C94DC010C94DC010C94DC013C
:1000D0000C94DC010C94DC010C94DC010C94DC012C
:1000E0000C94DC01084AD73B3BCE016E84BCBFFDBB
:1000F000C12F3D6C74319ABD56833DDA3D00C77FF8
:1001000011BED9E4BB4C3E916BAAAABE0000008090
:100110003F000C94EC270C9458020C94451E0C9450
:1001200063280C9431040C94DD030C94E0230C94AC
:10013000A9230C94CE030C9469040C94C6270C9448
:10014000D1040C94FA060C9470280C945E020C9462
:1001500084020C947D280C9471230C9449020C9415
:1001600070020C9481230C9462020C94B3060C94DC
:100170008E230C946A230C9488020C94582A0C94B5
:1001800068020C94A1030C9483020C944C280C94E8
:10019000A4060C945B030C94D9270C94212A0C948C
:1001A0004D020C947E020C941E270C9497230C9401
:1001B00055270C9474230C94A3060C9450270C948C
:1001C0003D270C94CD060C94A0230C9455020C945E
:1001D0007A020C94242A0C9443020C9423040C9469
:1001E0006C020C9476020C94C6060C945A030C9480
:1001F00051020C9429070243616C63756C61746948
:100200006E67206F6666736574732C20646F206E52
:100210006F74206D6F7665204D5055363035300047
:100220004D505536303530207374617475733A20F3
:100230000000000A0B02090C0D0E08070304010060
:1002400000000000000000000000000000000000AE
:10025000000000000000000000000000001211106B
:10026000000000000000000000000000000000008E
:1002700000000000000000000020002300260029EC
:10028000002C002F003200000100000301060109CC
:100290000100002100240027002A002D0030003337
:1002A0000001010000040107010A010000220025ED
:1002B0000028002B002E0031003400020100000550
:1002C0000108010B01010210202008081020401035
:1002D000204080020102010804020101020408100A
:1002E0002040808040201008040201800402018028
:1002F0004020100804020108040201010204081051
:1003000020408001020408102040800505050507F3
:100310000508080808020202020A0A080804040480
:1003200004010101010101010103030303030303AC
:1003300003040707070C0C0C0C0C0C0C0C0202023B
:100340000206060606060606060B0B0B0B0B0B0B2E
:100350000B00451E582A11241FBECFEFD1E2DEBF8D
:10036000CDBF00E00CBF1BE0A0E0B2E0E8E4F1E6A6
:1003700000E00BBF02C007900D92AA35B107D9F774
:100380002EE0AAE5BBE001C01D92A73AB207E1F753
:1003900011E0CAEAD1E000E006C021970109802FF0
:1003A000FE010E946B2EC93AD10780E00807A9F729
:1003B0000E94021F0C9492300C940000CF92DF92A6
:1003C000EF92FF920F931F93CF93DF938B01EA017C
:1003D000BC0190E080E00E94AA2A26ED39E346EABB
:1003E0005EEB0E940B2B6B017C01B80190E080E07A
:1003F0000E94AA2A27E038E04AEC5FE30E940B2B18
:100400009B01AC01C701B6010E94462C6B017C0127
:10041000BE0190E080E00E94AA2A24E73EE54BE37B
:100420005FEB0E940B2B9B01AC01C701B6010E9440
:10043000462C0E949D2DCB01DF91CF911F910F91F2
:10044000FF90EF90DF90CF9008958150823108F0B7
:100450005AC0E82FF0E08827EF5CFD4F8F4F0C94D7
:100460006B2E51025502430249024D02830258028B
:100470005E02620268026C02700276027A028302F5
:100480007E0284028802809180008F7780938000B2
:100490000895809180008F7DF9CF80918000877FC3
:1004A000F5CF84B58F7784BD089584B58F7DFBCF5C
:1004B0008091B0008F778093B00008958091B00054
:1004C0008F7DF9CF809190008F7780939000089571
:1004D000809190008F7DF9CF80919000877FF5CF3C
:1004E0008091A0008F778093A00008958091A00054
:1004F0008F7DF9CF8091A000877FF5CF809120017B
:100500008F77809320010895809120018F7DF9CF0E
:1005100080912001877FF5CF1F93CF93DF93282F02
:1005200030E0F901EF5CFD4F8491F901EB53FD4F91
:10053000D491F901E55FFC4FC491CC23A9F0162FAB
:1005400081110E942502EC2FF0E0EE0FFF1FE55510
:10055000FD4FA591B4918FB7F894EC91111108C09B
:10056000D095DE23DC938FBFDF91CF911F9108954B
:10057000DE2BF8CFCF93DF9390E0FC01EB53FD4FE0
:100580002491855F9C4FFC0184918823D1F090E0F9
:10059000880F991FFC01EF56FD4FA591B491FC0106
:1005A000E555FD4FC591D49161110EC09FB7F894E8
:1005B0008C91E22FE0958E238C932881E223E883AF
:1005C0009FBFDF91CF9108958FB7F894EC91E22B04
:1005D000EC938FBFF6CF8230910538F0880F991FCA
:1005E000880F991F05970197F1F708953FB7F89481
:1005F0008091830C9091840CA091850CB091860C15
:1006000026B5A89B05C02F3F19F00196A11DB11D6D
:100610003FBFBA2FA92F982F8827BC01CD01620FA9
:10062000711D811D911D42E0660F771F881F991F64
:100630004A95D1F708958F929F92AF92BF92CF9231
:10064000DF92EF92FF926B017C010E94F6024B0158
:100650005C01C114D104E104F104B9F00E94F60276
:10066000681979098A099B09683E734081059105DB
:1006700080F321E0C21AD108E108F10888EE880E63
:1006800083E0981EA11CB11CE4CFFF90EF90DF9097
:10069000CF90BF90AF909F908F9008952FB7F89410
:1006A00060917F0C7091800C8091810C9091820CF4
:1006B0002FBF0895089508959091000289130DC0E9
:1006C000E6EFF1E0E4919FEF90930002E230E1F079
:1006D00038F4EE2381F0E13089F060E00C948C0274
:1006E000E43049F110F1E530C1F7909173009D7F3E
:1006F00090937300F2CF10926E00EFCF90916F0045
:100700009D7F90936F00E9CF909170009D7F9093B3
:10071000700091E09093B0009091B100987F946048
:100720009093B1001092B300D8CF909171009D7F4B
:1007300090937100D2CF909172009D7F9093720040
:10074000CCCFAF92BF92CF92DF92EF92FF920F93F6
:100750001F93CF93DF936C017B018B01040F151F57
:10076000EB015E01AE18BF08C017D10759F06991BF
:10077000D601ED91FC910190F081E02DC601199513
:10078000892B79F7C501DF91CF911F910F91FF90D0
:10079000EF90DF90CF90BF90AF900895FC01538D04
:1007A000448D252F30E0842F90E0821B930B54174B
:1007B00010F0CF96089501970895FC01918D828DD8
:1007C000981761F0A28DAE0FBF2FB11D5D968C9171
:1007D000928D9F5F9F73928F90E008958FEF9FEFB0
:1007E00008950F931F930E944E036093010D709321
:1007F000020D8093030D9093040D89EF9CE00E94FD
:10080000DD0397FF1DC00E944E030091010D109162
:10081000020D2091030D3091040D601B710B820BB2
:10082000930B0091FD0C1091FE0C2091FF0C309168
:10083000000D6017710782079307F8F28FEF9FEFA3
:100840001F910F910895FC01918D828D981731F0C1
:10085000828DE80FF11D858D90E008958FEF9FEF59
:100860000895FC01918D228D892F90E0805C9F4F2F
:10087000821B91098F739927089589EF9CE00E944C
:10088000310421E0892B09F420E0822F0895FC0136
:10089000A48DA80FB92FB11DA35ABF4F2C91848DE1
:1008A00090E001968F739927848FA689B7892C933E
:1008B000A089B1898C91837080648C93938D848D91
:1008C000981306C00288F389E02D80818F7D808394
:1008D0000895EF92FF920F931F93CF93DF93EC0154
:1008E00081E0888F9B8D8C8D98131AC0E889F989D7
:1008F000808185FF15C09FB7F894EE89FF896083DA
:10090000E889F98980818370806480839FBF81E05A
:1009100090E0DF91CF911F910F91FF90EF9008959C
:10092000F62E0B8D10E00F5F1F4F0F731127E02E77
:100930008C8D8E110CC00FB607FCFACFE889F989AF
:10094000808185FFF5CFCE010E944704F1CFEB8D6A
:10095000EC0FFD2FF11DE35AFF4FF0829FB7F89483
:100960000B8FEA89FB8980818062CFCF0F931F9321
:10097000CF93DF938C01D0E0C0E0F801EC0FFD1FB6
:100980006491662341F089EF9CE00E946904892B01
:1009900011F02196F2CFCE01DF91CF911F910F91EF
:1009A0000895CF93DF93EC01888D8823B9F0AA894D
:1009B000BB89E889F9898C9185FD03C0808186FD1A
:1009C0000DC00FB607FCF7CF8C9185FFF2CF808169
:1009D00085FFEDCFCE010E944704E9CFDF91CF9193
:1009E000089580E090E0892B29F00E943D04811158
:1009F0000E94000080E090E0892B49F080E090E0C8
:100A0000892B29F00E94000081110E94000080E0E3
:100A100090E0892B49F080E090E0892B29F00E943A
:100A2000000081110E94000080E090E0892B49F0D5
:100A300080E090E0892B29F00E94000081110C9445
:100A4000000008952091330C260F3327331F2132E5
:100A50003105ECF42091CF0CFC0190E080E02430D3
:100A600069F082E00895A091330C2191AC014D5EB4
:100A7000534FA40FB52FB11D2C930196861798F3F1
:100A80008091330C680F6093330C80E0089581E00F
:100A900008951092CF0C81E08093CE0C1092A90C97
:100AA00061E084E10E948C0261E085E10E948C0299
:100AB000E9EBF0E080818E7F808380818D7F808371
:100AC00088E48093B80085E48093BC000895CF93B8
:100AD000DF9391E09093120C8823B9F0C091B80095
:100AE000D091BA008091BC008A7B8093BC0060E00A
:100AF00084E10E948C0260E085E10E948C020E94E9
:100B00004905D093BA00C093B800DF91CF91089502
:100B10008F929F92AF92BF92CF92DF92EF92FF920D
:100B20000F931F93CF93DF93D091F80CD13208F03D
:100B3000D7C0182FC091F70C0E94F6026B017C0100
:100B40008091CF0C81116BC082E08093CF0C109309
:100B5000CE0C8FEF8093CD0C1092CC0CD093CB0C9D
:100B6000A7EDBCE0EBEAFCE080E0D81391C0109266
:100B7000AA0C8091AA0CCC0FC82BC093AA0C809110
:100B8000A90C813009F088C01092A90C0E94F602CD
:100B90006B017C018091AA0C8093BB008091D10CE9
:100BA0009091D20CA091D30CB091D40C892B8A2BAC
:100BB0008B2BA1F00E94F6020091D10C1091D20C67
:100BC0002091D30C3091D40C6C197D098E099F09AA
:100BD000061717072807390708F442C08091BC00A0
:100BE00083FDD8CF85EC8093BC000E94F6026B0198
:100BF0007C018091CF0C823009F450C08091CD0CE3
:100C00008F3F09F46FC08091CD0C803209F46CC025
:100C10008091CD0C803309F469C084E026C08091B6
:100C2000D10C9091D20CA091D30CB091D40C892B03
:100C30008A2B8B2B09F484CF0E94F6028090D10C72
:100C40009090D20CA090D30CB090D40C6C197D096C
:100C50008E099F0986169706A806B90608F070CF78
:100C60008091D00C0E94670585E01092D60C1092FE
:100C7000F80C1092D50CDF91CF911F910F91FF903E
:100C8000EF90DF90CF90BF90AF909F908F9008959E
:100C90009D9191938F5F69CF85EEA5CF8091D10C07
:100CA0009091D20CA091D30CB091D40C892B8A2BAB
:100CB0008B2B09F49ECF0E94F6020091D10C10916B
:100CC000D20C2091D30C3091D40C6C197D098E0973
:100CD0009F09061717072807390708F08ACFC0CFE2
:100CE00081E0C3CF80E0C1CF82E0BFCF83E0BDCF42
:100CF0001F93CF93DF93162FC2EADDE0A981BA815B
:100D00009B8121E02093D50C9093F70C1092D60C88
:100D10001092F80CED91FC9111970190F081E02D6B
:100D2000682FCD01199589819A81DC01ED91FC91A3
:100D30000190F081E02D612F199581E0DF91CF9135
:100D40001F910C9488050895E091880C8091870C80
:100D5000E81730F4F0E0E757F34F808190E0089512
:100D60008FEF9FEF08959091880C8091870C2FEF63
:100D70003FEF981748F4E92FF0E0E757F34F208151
:100D800030E09F5F9093880CC90108958091870C93
:100D90009091880C891B990B0895CF92DF92EF9266
:100DA000FF920F931F93CF93DF937C01CB018A01B6
:100DB0002091D50C222389F0EB016B01C40ED51EC6
:100DC000CC15DD0569F06991D701ED91FC91019099
:100DD000F081E02DC7011995F3CF642F0E94220501
:100DE000C801DF91CF911F910F91FF90EF90DF909D
:100DF000CF900895CF93DF931F92CDB7DEB769836D
:100E00002091D50C2223F9F02091F80C203258F0D3
:100E100021E030E0FC013383228390E080E00F90FA
:100E2000DF91CF9108958091D60CE82FF0E0E95240
:100E3000F34F998190838F5F8093D60C8093F80C49
:100E400081E090E0ECCF61E0CE0101960E942205A6
:100E5000F7CF90E080E00895CF92DF92EF92FF927B
:100E60000F931F93CF93DF93EC01EE81FF8190816D
:100E70008B81809589238083EA85FB8580819B8196
:100E8000892B8083EC81FD8190818A8180958923E3
:100E90008083E885F98580819A81892B808389897F
:100EA0009A89009711F00E94EB02EA85FB859081F8
:100EB0008B818095892380838B89882331F0EE8113
:100EC000FF8180819B81892B80838C898823C9F055
:100ED0000E944E036B017C01EE85FF8580819B8122
:100EE000892379F40E944E036C197D098E099F09AC
:100EF0000D891E892F89388D601771078207930726
:100F000058F389899A89009711F00E94EB02E885CD
:100F1000F98590818A818095892380838B898823B4
:100F200031F0EC81FD8180819A81892B80838989D0
:100F30009A89009751F0DF91CF911F910F91FF9007
:100F4000EF90DF90CF900C94EB02DF91CF911F9147
:100F50000F91FF90EF90DF90CF900895CF93DF93A4
:100F6000EC01E885F98590818A81809589238083C9
:100F70008B89882331F0EC81FD8180819A81892BD6
:100F80008083EA85FB8590818B818095892380838E
:100F90008B89882331F0EE81FF8180819B81892BB1
:100FA000808389899A89009711F00E94EB02EC8571
:100FB000FD8590818A819823EE85FF8520813B8184
:100FC000232311F480E028C09923E1F3EC81FD8113
:100FD0009081809589238083E885F98580819A8135
:100FE000892B808389899A89009711F00E94EB02EE
:100FF000EE81FF8190818B81809589238083EA85B2
:10100000FB8580819B81892B808389899A890097C0
:1010100011F00E94EB0281E0DF91CF910895CF9211
:10102000DF92EF92FF920F931F93CF93DF93EC0128
:10103000E885F98590818A818095892380838B89D1
:10104000882331F0EC81FD8180819A81892B808316
:10105000EA85FB8590818B818095892380838B89AC
:10106000882331F0EE81FF8180819B81892B8083F1
:101070008C898823C9F00E944E036B017C01EE85A8
:10108000FF8580819B81892379F40E944E036C192E
:101090007D098E099F090D891E892F89388D60175A
:1010A00071078207930758F389899A89009711F08D
:1010B0000E94EB02EC85FD8580819A81892311E0F5
:1010C00009F410E0EE81FF8190818B818095892366
:1010D0008083EA85FB8580819B81892B8083898938
:1010E0009A89009711F00E94EB02812FDF91CF9136
:1010F0001F910F91FF90EF90DF90CF900895CF92C6
:10110000DF92EF92FF920F931F93CF93DF93EC0147
:101110008A81809561115EC0EC81FD819081892377
:101120008083E885F98580819A81892B80838989EC
:101130009A89009711F00E94EB02EA85FB85908165
:101140008B818095892380838B89882331F0EE8180
:10115000FF8180819B81892B80838C898823C9F0C2
:101160000E944E036B017C01EE85FF8580819B818F
:10117000892379F40E944E036C197D098E099F0919
:101180000D891E892F89388D601771078207930793
:1011900058F389899A89009711F00E94EB02EE8139
:1011A000FF8190818B81809589238083EA85FB85EF
:1011B00080819B81892B808389899A890097B1F0EE
:1011C000DF91CF911F910F91FF90EF90DF90CF9023
:1011D0000C94EB02E885F9859081892380838B89C3
:1011E000882309F4A4CFEC81FD819DCFDF91CF91BD
:1011F0001F910F91FF90EF90DF90CF9008950F9384
:101200001F93CF93DF938C01D62FC8E06D2F6078AA
:10121000C8010E947F08DD0FC150C1F7C801DF91EE
:10122000CF911F910F910C940F08CF93DF93FC0186
:101230002089211106C0EC010E94FF08811106C01F
:10124000188A81E090E0DF91CF91089582E0888B49
:10125000F8CF1F93CF93DF93EC01162F188A0E94CB
:10126000AE07882379F0612F660FCE010E94FF0838
:10127000811105C0188ADF91CF911F91089582E0F6
:10128000888BF9CF84E0FCCFFC019389138AA08579
:10129000B1852C918281809582238C9383898823C8
:1012A00031F0A481B5818C912281822B8C93A2850F
:1012B000B3852C918381809582238C9383898823A5
:1012C00031F0A681B7818C912381822B8C93938BF3
:1012D00008950F931F93CF93DF93CDB7DEB7EB97AE
:1012E0000FB6F894DEBF0FBECDBFDC011C928BEEB3
:1012F00090E014969C938E93139781E090E0129661
:101300009C938E93119715966C93159716964C9304
:10131000169769834A838C8B8D8B82E090E09B8B40
:101320008A8B08EE13E020E030E00E8B1F8B288FB5
:10133000398F70E0FB01E55FFC4F24916B537D4FCB
:10134000FB0164916B8330E0220F331FF901E555F7
:10135000FD4F859194919E838D83F901EF56FD4F4A
:10136000859194919A878987F901E958FD4F859174
:1013700094919E878D8750E0FA01E55FFC4F2491A0
:101380004B535D4FFA0144914C8330E0220F331FE1
:10139000F901E555FD4F8591949198878F83F90167
:1013A000EF56FD4F859194919C878B87F901E95801
:1013B000FD4F85919491988B8F878BE3FE01319639
:1013C000179601900D928A95E1F7CE0101960E9441
:1013D0004409EB960FB6F894DEBF0FBECDBFDF9188
:1013E000CF911F910F910895CF92DF92EF92FF92CC
:1013F000CF93DF93EC01603282E07807CCF5653B58
:10140000710514F064EB70E0898128E830E0281B56
:10141000310987FD3395220F331F220F331F6901D6
:10142000330FEE08FF088A8128E532E0281B3109D6
:1014300087FD3395220F331F220F331F032E000C1D
:10144000440B550B2C193D094E095F09DB0177FF51
:1014500002C0B0E0A0E00E940C2C24EB30E040E0A1
:1014600050E00E94E22BC20ED31EE41EF51EB60110
:10147000E881E03370F5298188E890E0821B9109CA
:1014800027FD9395880F991F880F991F6817790773
:101490007CF02A8188E592E0821B910927FD9395D3
:1014A000880F991F880F991F681779070CF4CB01D3
:1014B0000297880F991F4FB7F8942E2F30E0F9014B
:1014C000EE0FFF1FE20FF31FEE57F44F928381835D
:1014D0004FBFDF91CF91FF90EF90DF90CF900895B5
:1014E0001F93CF93DF93EC01162F8881803308F090
:1014F0004EC061E0812F0E94BA028881282F30E01F
:10150000F901EE0FFF1FE20FF31FEE57F44F1F73A9
:101510006081607C612B608319821A822CE0622FCB
:101520000E945F2E829FB001112430E020E0AB01C9
:10153000420F531FFA01EE0FFF1FE40FF51FEE5786
:10154000F44F908196FD16C02F5F3F4F2C30310530
:1015500071F7813009F51092800082E0809381005C
:101560001092850010928400B19A80916F00826081
:1015700080936F00E8818E2F90E0FC01EE0FFF1F3B
:10158000E80FF91FEE57F44F8081806480838881D3
:10159000DF91CF911F910895823061F410929000F5
:1015A00080939100109295001092940088BB8093D4
:1015B0007100E0CF833069F41092A00082E0809344
:1015C000A1001092A5001092A40089BB8093720024
:1015D000D1CF8111CFCF1092200182E080932101E1
:1015E00010922501109224018ABB80937300C2CF10
:1015F000FC019091810B903398F481E0890F8093E6
:10160000810B9083892F90E0FC01EE0FFF1FE80F04
:10161000F91FEE57F44F88EB9BE092838183089586
:101620008FEF80830895AF92BF92CF92DF92EF92B7
:10163000FF920F931F93CF93DF936B017A01EC011D
:10164000C358D44F28813CE0389F8001399F100D4A
:101650001124A090810BB12C27FF1FC0FB01118228
:10166000108288818F5F888388819801280F311DBF
:1016700087FD3A95F6012A153B051CF488818C30CC
:10168000C4F180819181049680349C4908F473C030
:10169000F60180819181049670C088819801280F9D
:1016A000311D87FD3A952A153B05DCF68881A80196
:1016B000480F511D87FD5A95FA01EE0FFF1FE40FE9
:1016C000F51FEE57F44F808186FFCBCF8881F8015C
:1016D000E80FF11D87FDFA95CF01EE0FFF1FE80F10
:1016E000F91FEE57F44F808160E08F730E948C02E7
:1016F000B8CF808191812881A801420F511D27FD1B
:101700005A959A01FA01EE0FFF1FE20FF31FEE57F1
:10171000F44F21813281820F931FF70191838083DF
:1017200088819801280F311D87FD3A95F901EE0F48
:10173000FF1FE20FF31FEE57F44F808186FF22C098
:101740008881080F111D87FD1A95F801EE0FFF1F04
:10175000E00FF11FEE57F44F808161E08F73DF914E
:10176000CF911F910F91FF90EF90DF90CF90BF909E
:10177000AF900C948C0280E49CE9F7019183808304
:101780008FEF8883DF91CF911F910F91FF90EF90A2
:10179000DF90CF90BF90AF900895EF92FF920F939C
:1017A0001F93CF93DF93C1E1D2E003E71BE02991C0
:1017B00039913327F901EF5CFD4F8491F901EB5327
:1017C000FD4FE490F901E55FFC4FF490FF2021F11B
:1017D00081110E942502EF2DF0E0EE0FFF1FE95866
:1017E000FD4FA591B491EC91EE2231E020E009F497
:1017F00030E0832F922FF801819391938F01F2E0D3
:10180000CB31DF07A1F683E79BE0DF91CF911F91FA
:101810000F91FF90EF90089590E080E0ECCF2F9231
:101820003F924F925F926F927F928F929F92AF9270
:10183000BF92CF92DF92EF92FF920F931F93CF93BD
:10184000DF9300D000D01F92CDB7DEB77D836C83CD
:10185000312C212C88248A94982C54016C01990FE6
:10186000EE08FF080BE213E02A01550F660877081F
:1018700080910002803239F5E6EFF1E0F491FE83C9
:10188000F7FD70C061E080E20E94BA02FE81F111B2
:1018900039C0C982DA82EB82FF8268E478EE81E0A7
:1018A00090E029813A814B815F810E94E22BBA014D
:1018B000A90141505109610971099E81992309F4D7
:1018C000CEC194E03DC08F3F09F04CC080E28093D0
:1018D0000002E6EFF1E0F491FE838F2FFF3F09F461
:1018E00041C0F23009F4C8C008F069C0FF2309F410
:1018F0008DC0F13009F4A2C087FD34C061E080E200
:101900000E94BA028E81823009F016C1C982DA8241
:10191000EB82FF8260E970ED83E090E0A701960121
:101920000E94E22BBA01A9014150510961097109D4
:1019300093E04F3F51056105710511F00CF0ADCFFB
:101940008091B100887F892B8093B100EE81E230D5
:1019500009F475C10CF06BC1EE2309F484C1E130C8
:1019600009F401C1C301B2010E941B0380E20E947D
:101970005C03C301B2010E941B038FEF281A380ACF
:10198000EC81FD81E215F30509F072CF27960FB6C1
:10199000F894DEBF0FBECDBFDF91CF911F910F91A5
:1019A000FF90EF90DF90CF90BF90AF909F908F907F
:1019B0007F906F905F904F903F902F9008959E8101
:1019C000943009F49BC008F479C0953009F094CFA5
:1019D0001092200110922101809121018860809352
:1019E000210180912101816080932101F80184917E
:1019F000E82FF0E0EE0FFF1FE555FD4F8591949124
:101A0000E5EEF2E0849180935A0B3CCF14BC15BCF8
:101A100084B5826084BD85B5816085BDF8018491FF
:101A2000E82FF0E0EE0FFF1FE555FD4F85919491F3
:101A3000E5EEF2E0849180935E0B24CF109280005B
:101A40001092810080918100886080938100809154
:101A50008100816080938100F8018491E82FF0E09B
:101A6000EE0FFF1FE555FD4F85919491E5EEF2E0F5
:101A7000849180935D0B06CF1092B0001092B1005C
:101A80008091B00082608093B0008091B10081604D
:101A90008093B100F8018491E82FF0E0EE0FFF1F72
:101AA000E555FD4F859194919093570C8093560C7A
:101AB000E5EEF2E084918093580CE4CE1092900011
:101AC00010929100809191008860809391008091A4
:101AD0009100816080939100F8018491E82FF0E0FB
:101AE000EE0FFF1FE555FD4F85919491E5EEF2E075
:101AF000849180935C0BF3E0FE83C4CE1092A0002F
:101B00001092A1008091A10088608093A100809133
:101B1000A10081608093A100F8018491E82FF0E09A
:101B2000EE0FFF1FE555FD4F85919491E5EEF2E034
:101B3000849180935B0BA6CE60E072E18AE790E02F
:101B4000A70196010E94E22BBA01A9014150510957
:101B500061097109EE81E130C1F480918100887FD3
:101B60008160809381005093890040938800809227
:101B70006B0B90926C0BA0926D0BB0926E0B8091E0
:101B80006F00826080936F00EDCEFE81F330C1F470
:101B900080919100887F816080939100509399009B
:101BA000409398008092670B9092680BA092690B0B
:101BB000B0926A0B80917100826080937100D2CEE6
:101BC0008E818430C1F48091A100887F81608093F0
:101BD000A1005093A9004093A8008092630B9092BB
:101BE000640BA092650BB092660B809172008260CC
:101BF00080937200B7CE9E81953009F0A7CE809178
:101C00002101887F816080932101509329014093B5
:101C1000280180925F0B9092600BA092610BB092B2
:101C2000620B809173008260809373009BCEFE8173
:101C3000F43079F20CF4B2CFF53039F393CE40930F
:101C4000B3008092590C90925A0CA0925B0CB09207
:101C50005C0C8091700082608093700083CE85B5AB
:101C6000887F836085BD47BD80926F0B9092700B1B
:101C7000A092710BB092720B80916E008260809383
:101C80006E0070CE7F928F929F92AF92BF92CF9252
:101C9000DF92EF92FF920F931F93CF93DF93EC01AC
:101CA000062F142F188A19AE1AAE0E94AE07882389
:101CB00009F457C0602F660F6160CE010E94FF08D3
:101CC00081114BC0188A7E01A12EB12CD12CC12CC0
:101CD000450181E0881A9108CA14DB0459F100E03B
:101CE00088E0782EC814D904DCF4000FCE010E94DD
:101CF0000F08082B7A947110F8CF60E0CE010E9493
:101D00007F0889899A89009711F00E94EB02F701F8
:101D1000018FFFEFCF1ADF0A8FEFE81AF80ADCCF46
:101D2000000FCE010E940F08082B7A947110F8CF93
:101D300061E0E4CF19AFCE010E942C07812FDF9123
:101D4000CF911F910F91FF90EF90DF90CF90BF90B8
:101D5000AF909F908F907F90089582E0888B10E0E5
:101D6000EACF84E0FBCF4F925F926F927F928F9287
:101D70009F92AF92BF92CF92DF92EF92FF920F931A
:101D80001F93CF93DF93CDB7DEB72E970FB6F8949E
:101D9000DEBF0FBECDBF8091A30D9091A40D209109
:101DA000A50D31E03093D50C2093F70C1092D60C92
:101DB0001092F80CDC01ED91FC910190F081E02D86
:101DC0006BE3199580E00E9488051091A50D0E9493
:101DD000F6024B015C018091CF0C811166C081E05D
:101DE0008093CF0C8093CE0C9FEF9093CD0C1092EC
:101DF000CC0C9DE09093CB0C8093AA0C8091AA0C04
:101E0000110F182B1093AA0C8091A90C813009F0A6
:101E1000A9C11092A90C0E94F6024B015C018091AD
:101E2000AA0C8093BB008091D10C9091D20CA09110
:101E3000D30CB091D40C892B8A2B8B2BA1F00E9450
:101E4000F6020091D10C1091D20C2091D30C30915C
:101E5000D40C681979098A099B09061717072807FE
:101E6000390708F443C08091BC0083FDD8CF85ECCE
:101E70008093BC000E94F6024B015C018091CF0C64
:101E8000813009F471C18091CC0C8E3008F08EC184
:101E90008091CC0CABEABCE0E9E8FCE090E098175C
:101EA00051F12D9121939F5FFACF8091D10C9091A8
:101EB000D20CA091D30CB091D40C892B8A2B8B2BF4
:101EC00009F489CF0E94F6024090D10C5090D20CB8
:101ED0006090D30C7090D40C681979098A099B0919
:101EE000461657066806790608F075CF8091D00C23
:101EF0000E94670580E01092880C8093870C8E0109
:101F00000F5F1F4F6E01BFE0CB0ED11C8091A30D60
:101F10009091A40DDC01ED91FC910284F385E02DFC
:101F20001995B82E8091A30D9091A40DDC01ED912F
:101F3000FC910284F385E02D1995E12C8E299B29D3
:101F4000F801819391938F01CE16DF06F9F6C090C8
:101F5000AA0DD090AB0DE090AC0DF090AD0D698165
:101F60007A81072E000C880B990B0E94AC2AA701DE
:101F700096010E94242D2091BA0D3091BB0D409105
:101F8000BC0D5091BD0D0E94452C6093CA0D7093FD
:101F9000CB0D8093CC0D9093CD0D6B817C81072E62
:101FA000000C880B990B0E94AC2AA70196010E9495
:101FB000242D2091BE0D3091BF0D4091C00D509148
:101FC000C10D0E94452C6093CE0D7093CF0D809370
:101FD000D00D9093D10D8091A20D61E06827681B10
:101FE000770B072E000C880B990B0E94AC2A4B0133
:101FF0005C016D817E81072E000C880B990B0E947D
:10200000AC2A9B01AC01C501B4010E940B2BA701B6
:1020100096010E94242D2091C20D3091C30D409154
:10202000C40D5091C50D0E94452C6093D20D709344
:10203000D30D8093D40D9093D50D6F817885072EA5
:10204000000C880B990B0E94AC2A20E030EF41E491
:1020500056E40E94462C20E030E04AEA53E40E9415
:10206000242D6093C60D7093C70D8093C80D909377
:10207000C90DC090A60DD090A70DE090A80DF090CE
:10208000A90D69857A85072E000C880B990B0E9493
:10209000AC2AA70196010E94242D2091AE0D30910B
:1020A000AF0D4091B00D5091B10D0E94452C609341
:1020B000D60D7093D70D8093D80D9093D90D6B8565
:1020C0007C85072E000C880B990B0E94AC2AA70177
:1020D00096010E94242D2091B20D3091B30D4091B4
:1020E000B40D5091B50D0E94452C6093DA0D70939C
:1020F000DB0D8093DC0D9093DD0D6D857E85072EC5
:10210000000C880B990B0E94AC2AA70196010E9433
:10211000242D2091B60D3091B70D4091B80D5091FE
:10212000B90D0E94452C6093DE0D7093DF0D8093F6
:10213000E00D9093E10D2E960FB6F894DEBF0FBE22
:10214000CDBFDF91CF911F910F91FF90EF90DF9066
:10215000CF90BF90AF909F908F907F906F905F9047
:102160004F90089585EE84CE8091D10C9091D20C41
:10217000A091D30CB091D40C892B8A2B8B2B09F412
:102180007DCE0E94F6020091D10C1091D20C2091CC
:10219000D30C3091D40C681979098A099B09061768
:1021A00017072807390708F069CEA0CE8EE072CE57
:1021B000FF920F931F93CF93DF93EC01F62E8C01C8
:1021C000095F1F4F69E2C8010E9429096F2D6068ED
:1021D000C8010E941509C8010E942C0742E069E26B
:1021E000C8010E94420EFE01E05CFF4F80813196E3
:1021F00090812FEF3FEF981740F4DE01A90FB11D3A
:1022000090962C9130E09F5F908390814FEF5FEF2D
:10221000981728F4C90FD11D48A19F5F908380E0D3
:10222000942F822B932BDF91CF911F910F91FF90D1
:1022300008950F931F93CF93DF93162F022FEC0176
:10224000279669E2CE010E942909612F6068CE01BC
:102250000E941509602FCE010E941509CE01DF9161
:10226000CF911F910F910C942C07FC01019000203D
:10227000E9F73197AF01481B590BBC0189EF9CE08E
:102280000C94A1038FE392E00C9435118F929F92EE
:10229000AF92BF920F931F93CF93DF93CDB7DEB76B
:1022A000A1970FB6F894DEBF0FBECDBF19A2423082
:1022B00008F44AE08E010F5D1F4F842E912CB12C43
:1022C000A12CA50194010E94142CE62FB901CA018A
:1022D000EA30F4F4E05DD801EE938D01232B242B3A
:1022E000252B79F790E080E0109719F0CD010E943E
:1022F0003511A1960FB6F894DEBF0FBECDBFDF91AA
:10230000CF911F910F91BF90AF909F908F900895A4
:10231000E95CE1CFBC0190E080E04AE00C9446111A
:10232000CF93DF930E948A11EC010E9442118C0F1F
:102330009D1FDF91CF910895CF92DF92EF92FF9290
:10234000CF93DF936C01990FEE08FF08F7FE19C0D9
:102350006DE289EF9CE00E946904EC016627772713
:10236000CB016C197D098E099F094AE00E94461134
:102370008C0F9D1FDF91CF91FF90EF90DF90CF905A
:1023800008954AE0C701B601DF91CF91FF90EF9029
:10239000DF90CF900C944611CF93DF930E949C1155
:1023A000EC010E9442118C0F9D1FDF91CF91089587
:1023B000BF92CF92DF92EF92FF920F931F93CF9332
:1023C000DF93EC016C0187E0C80ED11C7E01E0E4D4
:1023D000EE0EF11CF70110828E010F5B1F4FF8010A
:1023E0001082E989FA8990818A8580958923808382
:1023F0008A8D882331F0ED85FE8580819A85892B31
:102400008083888D998D009711F00E94EB02EF85F3
:10241000F889908189858095892380838A8D882396
:1024200031F0EB85FC8580819985892B808384E060
:10243000B82E888D998D009711F00E94EB02BA9406
:10244000B110F7CF8A8D882331F062E070E080E030
:1024500090E00E941B0369E2C6010E94290962E91B
:10246000C6010E941509C6010E942C0741E069E2DD
:10247000C6010E94420EF8012081F70180812817D1
:1024800008F053C0FE01E20FF11D80A12F5FF8019B
:102490002083182F682F70E090E080E040E10E94D8
:1024A00046110E94421180E01434A9F581E088832E
:1024B0000B811C81980150E040E061E0CE010E9458
:1024C00019111C830B8309811A818881811103C032
:1024D000CE010E94D811980150E040E06FE0CE019B
:1024E0000E9419111A83098321E030E040E050E096
:1024F00060E0CE010E94191163E070E080E090E09E
:102500000E941B0323E030E040E050E060E0CE0199
:102510000E94191181E0DF91CF911F910F91FF90DF
:10252000EF90DF90CF90BF9008958FEF9FEFB1CFE6
:10253000AF92BF92CF92DF92EF92FF920F931F93D1
:10254000CF93DF93EC015B016A01790188818111EE
:1025500003C0CE010E94D81164E1CE010E94D810C0
:10256000F8019183808366E1CE010E94D810F501C5
:102570009183808368E1CE010E94D810F601918397
:1025800080836AE1CE010E94D810F7019183808395
:102590008B819C81853D9105A1F180F40097D9F153
:1025A000803C910599F1DF91CF911F910F91FF90A0
:1025B000EF90DF90CF90BF90AF900895863F910548
:1025C000D9F08F3F910541F08B3E910561F762E3B1
:1025D00070E080E090E004C063E070E080E090E0B4
:1025E000DF91CF911F910F91FF90EF90DF90CF90EF
:1025F000BF90AF900C941B0368E170E080E090E026
:10260000EFCF65E670E080E090E0EACF6AE970E045
:1026100080E090E0E5CF6CEB72E080E090E0E0CF0E
:10262000CF93DF930E943511EC010E9442118C0F71
:102630009D1FDF91CF91089582E492E00E941013D4
:102640008FE592E00E94101387E792E00E9410133A
:102650008FE892E00E94101387EA92E00E94101324
:102660008DEB92E00E94101383ED92E00E94101314
:1026700081EF92E00E9410138EE093E00E9410130D
:1026800084E293E00E94101385E493E00C9410130D
:102690000C9435110F931F930DE61CE02FE63CE0E0
:1026A00041E75CE063E77CE08FE49EE00E949812E3
:1026B00040916F0C5091700C6091710C7091720C84
:1026C0008091730C9091740C0E94DE0190936C0CBD
:1026D00080936B0C03E61CE025E63CE047E65CE0FB
:1026E00069E67CE08DE09EE00E9498124091650CC6
:1026F0005091660C6091670C7091680C8091690C28
:1027000090916A0C0E94DE019093620C8093610CA0
:1027100084EB93E00E94101388EC93E00E9448132E
:1027200080916B0C90916C0C0E948A118EEC93E05E
:102730000E9448138BE299E00E9448138091730C29
:102740009091740C0E948A1180ED93E00E944813CE
:1027500082E399E00E9448138091710C9091720C71
:102760000E948A1180ED93E00E94481389E399E06A
:102770000E94481380916F0C9091700C0E948A11F6
:1027800080ED93E00E94481380E499E00E94481392
:1027900080916D0C90916E0C0E948A1180ED93E0F7
:1027A0000E94481380ED93E00E94101382ED93E0A5
:1027B0000E94101388EC93E00E9448138091610CF2
:1027C0009091620C0E948A118EEC93E00E94481353
:1027D0008BE299E00E9448138091690C90916A0CF9
:1027E0000E948A1180ED93E00E94481382E399E0F1
:1027F0000E9448138091670C9091680C0E948A1186
:1028000080ED93E00E94481389E399E00E94481309
:102810008091650C9091660C0E948A1180ED93E086
:102820000E94481380E499E00E9448138091630C51
:102830009091640C0E948A1180ED93E00E944813ED
:1028400080ED93E00E94101387EE93E00E94101336
:1028500081E094E00E9448138091670C9091680C8D
:102860002091690C30916A0C821B930B0E9490118D
:102870008AE094E00E9448138091670C9091680C64
:102880002091650C3091660C821B930B0E94901175
:1028900083E194E00E94101381E094E00E944813C9
:1028A0008091710C9091720C2091730C3091740C8A
:1028B000821B930B0E9490118AE094E00E944813BF
:1028C0008091710C9091720C20916F0C3091700C72
:1028D000821B930B0E94901164EF71E080E090E006
:1028E0000E941B031F910F9108954F925F926F9268
:1028F0007F928F929F92AF92BF92CF92DF92EF9290
:10290000FF920F931F93CF93DF93CDB7DEB72C9732
:102910000FB6F894DEBF0FBECDBF0E94B30EC090BD
:10292000D20DD090D30DE090D40DF090D50D21E0D4
:1029300030E03A83298320E030E0A901C701B601E5
:102940000E94F32D87FF02C01A82198201E010E075
:1029500020E030E0A901C701B6010E94A52A87FD49
:1029600002C010E000E069817A81601B710B072EC4
:10297000000C880B990B0E94AC2A6D837E838F8399
:102980009887A7019601C701B6010E940B2B2B0166
:102990003C01C090CA0DD090CB0DE090CC0DF090D2
:1029A000CD0DA7019601C701B6010E940B2BA30113
:1029B00092010E94462C0E94062E9B01AC01809041
:1029C000CE0D9090CF0DA090D00DB090D10D6D8117
:1029D0007E818F8198850E940B2B9B01AC01C501E4
:1029E000B4010E94C52C21EE3EE245E652E40E946D
:1029F0000B2B6093E20D7093E30D8093E40D9093A5
:102A0000E50DA5019401C501B4010E940B2BA301A2
:102A100092010E94462C0E94062E9B01AC01C70128
:102A2000B6010E94C52C905821EE3EE245E652E4E4
:102A30000E940B2B6093E60D7093E70D8093E80DD9
:102A40009093E90D0E944E036B017C018091F60D7D
:102A50009091F70DA091F80DB091F90DA701960195
:102A6000281B390B4A0B5B0BCA01B9010E94AA2A29
:102A70002FE632E143E85AE30E940B2B4B015C0145
:102A8000C092F60DD092F70DE092F80DF092F90D8C
:102A90008091FA0D9091FB0DA091FC0DB091FD0D70
:102AA00089839A83AB83BC834090E20D5090E30D01
:102AB0006090E40D7090E50D2091D60D3091D70D0A
:102AC0004091D80D5091D90DC501B4010E940B2B36
:102AD0002091EA0D3091EB0D4091EC0D5091ED0DF0
:102AE0000E94462CA30192010E94452C6B017C019F
:102AF00020E030E044E353E40E94F32D18163CF448
:102B000020E030E044EB53E4C701B601EDCF20E014
:102B100030E044E353ECC701B6010E94A52A87FFC9
:102B20000BC020E030E044EB53E4C701B6010E9443
:102B3000462C6B017C01EBCF29813A814B815C8172
:102B400060E070E080E89FE30E94452C69877A8707
:102B50008B879C87A7019601C301B2010E94462C76
:102B600029813A814B815C810E940B2B6B017C0196
:102B700029853A854B855C85C301B2010E940B2BE8
:102B80009B01AC01C701B6010E94462C6B017C0180
:102B900020E030E044E353E40E94F32D18164CF497
:102BA00020E030E044EB53E4C701B6010E94452C1D
:102BB000EDCF20E030E044E353ECC701B6010E94C2
:102BC000A52A87FF0BC020E030E044EB53E4C701A7
:102BD000B6010E94462C6B017C01EBCFC092EA0D3E
:102BE000D092EB0DE092EC0DF092ED0D4090E60DE1
:102BF0005090E70D6090E80D7090E90D2091DA0D8E
:102C00003091DB0D4091DC0D5091DD0D6D817E81A9
:102C10008F8198850E940B2BA50194010E940B2B9C
:102C20002091EE0D3091EF0D4091F00D5091F10D8E
:102C30000E94462CA30192010E94452C6B017C014D
:102C400020E030E044EB52E40E94F32D18163CF4EF
:102C500020E030E044E353E4C701B601EDCF20E0CB
:102C600030E044EB52ECC701B6010E94A52A87FF71
:102C70000BC020E030E044E353E4C701B6010E94FA
:102C8000462C6B017C01EBCFA7019601C301B20179
:102C90000E94462C29813A814B815C810E940B2B3A
:102CA0006B017C01A301920169857A858B859C85E6
:102CB0000E940B2B9B01AC01C701B6010E94462C60
:102CC0006B017C0120E030E044EB52E40E94F32DE4
:102CD00018164CF420E030E044E353E4C701B60199
:102CE0000E94452CEDCF20E030E044EB52ECC701D0
:102CF000B6010E94A52A87FF0BC020E030E044E324
:102D000053E4C701B6010E94462C6B017C01EBCF56
:102D1000C092EE0DD092EF0DE092F00DF092F10D19
:102D20002091DE0D3091DF0D4091E00D5091E10DCD
:102D3000C501B4010E940B2B2091F20D3091F30DCF
:102D40004091F40D5091F50D0E94462C6093F20DC8
:102D50007093F30D8093F40D9093F50D2C960FB6B0
:102D6000F894DEBF0FBECDBFDF91CF911F910F91C1
:102D7000FF90EF90DF90CF90BF90AF909F908F909B
:102D80007F906F905F904F9008950E9475146091AE
:102D9000F20D7091F30D8091F40D9091F50D0E945C
:102DA000962DCB010895EF92FF920F931F93CF932F
:102DB000DF938CE294E00E94101368E770E08AE0F1
:102DC0009EE00E94F4096CE370E087E09EE00E94C0
:102DD000F4090E94751466E970E080E090E00E94BA
:102DE0001B036AE570E08AE09EE00E94F4096AE550
:102DF00070E087E09EE00E94F4090DE61CE02FE6FB
:102E00003CE041E75CE063E77CE08FE49EE00E9409
:102E1000981240916F0C5091700C6091710C7091F0
:102E2000720C8091730C9091740C0E94DE0190934F
:102E30006C0C80936B0C03E61CE025E63CE047E657
:102E40005CE069E67CE08DE09EE00E949812E090F4
:102E5000650CF090660CC091670CD091680C0091E5
:102E6000690C10916A0CA701BE01C8010E94DE0125
:102E7000BC019093620C8093610CE0916D0CF09119
:102E80006E0C4091630C5091640CE93E83E0F807AE
:102E90002CF0493E83E058070CF09BC12091710C47
:102EA0003091720C8091730C9091740C821793077F
:102EB00088F5A0916F0CB091700CA217B30750F574
:102EC000281B390B8091010290910202821793070F
:102ED00008F58091050290910602E817F907D4F0F1
:102EE00080910302909104028E179F079CF08091BD
:102EF0006B0C90916C0C2091090230910A028217A0
:102F0000930744F021E0A0910702B0910802A817AE
:102F1000B9070CF420E00C171D0748F5EC16FD0668
:102F200030F5C01BD10B80910102909102028C17E9
:102F30009D07E8F480910502909106024817590711
:102F4000B4F08091030290910402841795077CF0FD
:102F50008091090290910A026817790744F091E084
:102F6000A0910702B0910802A617B7070CF490E0F1
:102F7000BF01641B750B77FF03C0719561957109E3
:102F8000643671050CF03FC0222309F43EC099233A
:102F900009F41BC187E394E00E9410130E94C51638
:102FA0009093790C8093780C6CE370E08AE09EE05B
:102FB0000E94F4096CE370E087E09EE00E94F4094F
:102FC000C091780CD091790CC45BD1090E94C516D0
:102FD0008C179D070CF4E7C00E9475148BE494E0F5
:102FE0000E9448130E94C5160E949C118BEF9AE024
:102FF0000E9448138091780C9091790C845B910920
:103000000E94CC11DDCF211163C0992309F4E1C0E6
:103010004E175F070CF0DDC080EC94E00E941013A7
:1030200068E770E08AE09EE00E94F4096CE370E0DB
:1030300087E09EE00E94F40960E070E0CB010E940E
:103040001B036AE570E08AE09EE00E94F4096AE5ED
:1030500070E087E09EE00E94F4090E94CD0B9093FF
:103060007C0C80937B0C0E94C5169093790C809306
:10307000780C6CE370E08AE09EE00E94F4096CE357
:1030800070E087E09EE00E94F409C091780CD09136
:10309000790CC65ADF4F0E94C5168C179D070CF09D
:1030A00070C00E94751483ED94E00E9448130E9442
:1030B000C5160E949C118BEF9AE00E9448138091E4
:1030C000780C9091790C865A9F4F0E94CC11DDCFDD
:1030D000E417F5070CF099CF88E794E00E941013ED
:1030E00068E770E08AE09EE00E94F4096CE370E01B
:1030F00087E09EE00E94F40960E070E0CB010E944E
:103100001B036AE570E08AE09EE00E94F4096AE52C
:1031100070E087E09EE00E94F4090E94C51690933B
:10312000790C8093780C6CE370E08AE09EE00E945A
:10313000F4096CE370E087E09EE00E94F409C0911E
:10314000780CD091790CCA55D1090E94C516C817C0
:10315000D907BCF40E9475148AE894E00E944813D1
:103160000E94C5160E949C118BEF9AE00E944813A2
:103170008091780C9091790C8A5591090E94CC111C
:10318000DECF68E770E08AE09EE00E94F4096CE31D
:1031900070E087E09EE00E94F40962E370E080E066
:1031A00090E00E941B036AE570E08AE09EE00E94C6
:1031B000F4096AE570E087E09EE0DF91CF911F910E
:1031C0000F91FF90EF900C94F409E417F5070CF4BD
:1031D00083CFDF91CF911F910F91FF90EF900895D2
:1031E0000F931F93CF93DF93EC0188819981009710
:1031F00059F02A813B812617370730F081E0DF91B3
:10320000CF911F910F9108958B016F5F7F4F0E94A7
:10321000982F009759F0998388831B830A832C8108
:103220003D81232B59F7FC011082E8CF80E0E7CFE6
:1032300085ED8093BC008091D10C9091D20CA0912F
:10324000D30CB091D40C0796A11DB11D23E0B69507
:10325000A795979587952A95D1F72091BC0024FDD5
:1032600003C01092CF0C08954091D10C5091D20C14
:103270006091D30C7091D40C452B462B472B69F3EE
:103280000097A105B10541F02AE22A95F1F700C0A7
:103290000197A109B109E1CF8091D00C0C94670589
:1032A0000F931F93CF93DF938C01EB010E94CC2BE4
:1032B0008883C80101960E94CC2B8983CE01DF91BF
:1032C000CF911F910F910895FF920F931F93CF936A
:1032D000DF93EC018B01FB01F0800E94CC2BF816F0
:1032E00021F06F2DCE010E94D42BF801F1802196A0
:1032F000CE010E94CC2BF81621F06F2DCE010E943A
:10330000D42BC801DF91CF911F910F91FF900895A9
:103310001F920F920FB60F9211242F933F938F930A
:103320009F93AF93BF9380917F0C9091800CA0915D
:10333000810CB091820C30917E0C23E0230F2D374D
:1033400058F50196A11DB11D20937E0C80937F0C32
:103350009093800CA093810CB093820C8091830C8D
:103360009091840CA091850CB091860C0196A11DC2
:10337000B11D8093830C9093840CA093850CB09323
:10338000860CBF91AF919F918F913F912F910F909C
:103390000FBE0F901F90189526E8230F0296A11DCF
:1033A000B11DD2CF1F920F920FB60F9211240BB600
:1033B0000F922F933F934F935F936F937F938F93CE
:1033C0009F93AF93BF93EF93FF938091590C90918C
:1033D0005A0CA0915B0CB0915C0C892B8A2B8B2B27
:1033E000E1F19091580CE091560CF091570C8081CE
:1033F000892780838091590C90915A0CA0915B0C85
:10340000B0915C0C181619061A061B069CF48091E4
:10341000590C90915A0CA0915B0CB0915C0C0197E7
:10342000A109B1098093590C90935A0CA0935B0C9D
:10343000B0935C0CFF91EF91BF91AF919F918F91F1
:103440007F916F915F914F913F912F910F900BBEA4
:103450000F900FBE0F901F901895809100020E9450
:103460005C03E8CF1F920F920FB60F9211240BB698
:103470000F922F933F934F935F936F937F938F930D
:103480009F93AF93BF93EF93FF9389EF9CE00E94CC
:103490004704FF91EF91BF91AF919F918F917F91E1
:1034A0006F915F914F913F912F910F900BBE0F90B5
:1034B0000FBE0F901F9018951F920F920FB60F928C
:1034C00011240BB60F922F938F939F93EF93FF933B
:1034D000E091090DF0910A0D8081E0910F0DF091BE
:1034E000100D82FD1DC090818091120D8F5F8F7332
:1034F0002091130D821741F0E091120DF0E0E7509A
:10350000F34F958F8093120DFF91EF919F918F91C3
:103510002F910F900BBE0F900FBE0F901F9018951C
:103520008081F2CF1F920F920FB60F9211240BB62B
:103530000F922F933F934F935F936F937F938F934C
:103540009F93AF93BF93EF93FF938091B900887FD0
:10355000803609F44DC008F040C0883209F4A9C093
:1035600028F5803109F49DC0C8F4882309F4FBC014
:10357000883009F496C0FF91EF91BF91AF919F9170
:103580008F917F916F915F914F913F912F910F900C
:103590000BBE0F900FBE0F901F901895883109F445
:1035A00088C0803241F78093CD0C14C0803409F478
:1035B0009DC040F48033B9F38833E9F68093CD0C95
:1035C00085ECB0C0803509F485C0883509F496C013
:1035D000883489F60E941819CECF883909F48CC036
:1035E00038F5883729F050F4883611F0803719F60D
:1035F00083E08093CF0C1092550C57C0883809F4A3
:103600007BC0803919F0803809F0B5CF8091550C16
:10361000803208F071C0E091550C81E08E0F8093EC
:10362000550C8091BB00F0E0EB5CF34F80833DC014
:10363000803B39F0E0F4803A09F479C0883A09F027
:103640009ACF84E08093CF0C1092340C1092330CFC
:10365000E0915F0CF091600C19958091330C811111
:103660000FC081E08093330C1092130C09C0803C92
:1036700009F4A6CF883C09F4A3CF883B09F07BCF9F
:10368000E091340C81E08E0F8093340CF0E0ED5E1D
:10369000F34F80818093BB009091340C8091330C68
:1036A00029C08091AA0C8093BB0085EC8093BC005C
:1036B00062CF9091CC0C8091CB0C981758F5E0918B
:1036C000CC0C81E08E0F8093CC0CF0E0E555F34FED
:1036D0008081E9CFE091CC0C81E08E0F8093CC0CFF
:1036E0008091BB00F0E0E555F34F80839091CC0CC6
:1036F0008091CB0C9817C8F285E8D8CFE091CC0C1C
:1037000081E08E0F8093CC0C8091BB00F0E0E555FA
:10371000F34F80838091CE0C81115CCF81E0809348
:10372000A90C84EA8093BC001092CF0C24CF85ECC6
:103730008093BC001092CF0C8091550C803230F4F5
:10374000E091550CF0E0EB5CF34F10826091550C6A
:1037500070E0E0915D0CF0915E0C85E39CE01995C2
:103760001092550C08CF1092CD0C34CF1F920F92AF
:103770000FB60F9211240BB60F922F933F934F93D6
:103780005F936F937F938F939F93AF93BF93EF93C9
:10379000FF9348E251E064E271E090E080E00E9433
:1037A000130BFF91EF91BF91AF919F918F917F91FB
:1037B0006F915F914F913F912F910F900BBE0F90A2
:1037C0000FBE0F901F9018951F920F920FB60F9279
:1037D00011240BB60F922F933F934F935F936F93E8
:1037E0007F938F939F93AF93BF93EF93FF9348EA99
:1037F00050E064EA70E083E090E00E94130BFF91D8
:10380000EF91BF91AF919F918F917F916F915F9158
:103810004F913F912F910F900BBE0F900FBE0F90C5
:103820001F9018951F920F920FB60F9211240BB68E
:103830000F922F933F934F935F936F937F938F9349
:103840009F93AF93BF93EF93FF9348E950E064E9F0
:1038500070E082E090E00E94130BFF91EF91BF9126
:10386000AF919F918F917F916F915F914F913F9118
:103870002F910F900BBE0F900FBE0F901F901895B9
:103880001F920F920FB60F9211240BB60F922F9327
:103890003F934F935F936F937F938F939F93AF93D8
:1038A000BF93EF93FF9348E850E064E870E081E055
:1038B00090E00E94130BFF91EF91BF91AF919F9108
:1038C0008F917F916F915F914F913F912F910F90C9
:1038D0000BBE0F900FBE0F901F9018958F929F9266
:1038E000AF92BF92CF92DF92EF92FF920F931F930E
:1038F000CF93DF930DE61CE02FE63CE041E75CE070
:1039000063E77CE08FE49EE00E94981240916F0C88
:103910005091700C6091710C7091720C8091730CCD
:103920009091740C0E94DE0190936C0C80936B0C50
:1039300003E61CE025E63CE047E65CE069E67CE067
:103940008DE09EE00E9498120091650C1091660C2B
:10395000E090670CF090680CC091690CD0916A0CF3
:10396000A801B701CE010E94DE019093620C809302
:10397000610CE0916D0CF0916E0C8090630C909056
:10398000640C60916B0C70916C0C2091730C3091F5
:10399000740CC090710CD090720CC216D306F0F467
:1039A000A0916F0CB091700CA217B307B8F4590135
:1039B000AC18BD084CE4A416B10480F02A1B3B0BE4
:1039C0002C34310558F0E757F140E03BF10530F475
:1039D000685271096333710508F455C0EC16FD0691
:1039E000C0F420E00C171D0708F454C012C085EA8B
:1039F00093E0DF91CF911F910F91FF90EF90DF90B7
:103A0000CF90BF90AF909F908F900C941013211186
:103A100059C08AE893E00E94101320916D0C3091F8
:103A20006E0C8091630C9091640C4091610C5091EC
:103A3000620C60916B0C70916C0C6C5271406B3F1E
:103A40007105A8F64C5251404B3F510580F6285E57
:103A500033402F35314058F6885E93408F35914082
:103A600030F68BE993E00E941013DF91CF911F9104
:103A70000F91FF90EF90DF90CF90BF90AF909F900D
:103A80008F900C944E03EC16FD06E0F40C171D0706
:103A9000C8F421E0BE016E197F096C34710508F489
:103AA000B6CFC01BD10BCC34D10508F4B0CFA401E4
:103AB00047575140403B510508F0A9CF8897C3971D
:103AC00008F0A5CF82E693E00E9410136AE570E04B
:103AD0008AE09EE00E94F4096AE570E087E09EE0DB
:103AE0000E94F40986E793E0EFCFCF93DF9364EB76
:103AF00070E08AE09EE00E94F40970E060E087E0F8
:103B00009EE00E94F4090E9475146AE570E08AE064
:103B10009EE00E94F4096AE570E087E09EE00E9462
:103B2000F4090E94CD0B90937C0C80937B0CFC01DC
:103B300020813181232B29F080859185892B09F003
:103B4000A1C00E94CD0BFC0190937C0C80937B0C58
:103B500080819181892B09F049C082819381892BD1
:103B600009F044C00E94C5169093790C8093780C9C
:103B7000C091780CD091790CC75ADF4F0E94C516BE
:103B8000C817D9070CF47EC0E0917B0CF0917C0C37
:103B900084819581019709F075C00E94751470E0C9
:103BA00060E08AE09EE00E94F40970E060E087E057
:103BB0009EE00E94F4090E94CD0B90937C0C8093B0
:103BC0007B0C8BED94E00E9448130E94C5160E9466
:103BD0009C118BEF9AE00E9448138091780C909191
:103BE000790C865A9F4F0E94CC11C2CF8681978153
:103BF000892B09F047C080859185892B09F042C047
:103C00000E94C5169093790C8093780CC091780C23
:103C1000D091790CC955D1090E94C5168C179D0702
:103C20008CF1E0917B0CF0917C0C84819581019763
:103C300049F50E94751464EB70E08AE09EE00E94F2
:103C4000F40964EB70E087E09EE00E94F4090E94B2
:103C5000CD0B90937C0C80937B0C82E994E00E94C6
:103C600048130E94C5160E949C118BEF9AE00E9497
:103C700048138091780C9091790C8A5591090E9493
:103C8000CC11C4CFDF91CF910895CF92DF92EF9204
:103C9000FF92CF93DF93E9EFFCE01382128288EE6C
:103CA00093E0A0E0B0E084839583A683B7832FE1FF
:103CB00032E03183208325EC30E03587248724EC03
:103CC00030E03787268720EC30E0318B208B21ECE9
:103CD00030E0338B228B22EC30E0358B248B26ECCA
:103CE00030E0378B268B118E128E138E148EC6E920
:103CF000DDE01B821A828C839D83AE83BF8381E3C8
:103D000092E099838883EDE9FEE086E390E0918379
:103D1000808398E3C92E94E0D92EE12CF12CC28245
:103D2000D382E482F58260E00E94BA02E7E9FEE015
:103D300088E390E091838083C282D382E482F5821B
:103D400060E00E94BA02E1E9FEE08AE390E091833C
:103D50008083C282D382E482F58260E00E94BA024C
:103D600045E064E08FE49EE00E94690943E062E080
:103D70008DE09EE00E9469098AE09EE00E94F80AB8
:103D800087E09EE00E94F80A84E09EE00E94F80A24
:103D900081E09EE00E94F80A8EEF9DE00E94F80A02
:103DA000E2EAFDE0108288E68383D283C18388E45F
:103DB00091EEAAE7BFE38093FA0D9093FB0DA093D9
:103DC000FC0DB093FD0D1486158616861786108A95
:103DD000118A128A138A148A158A168A178A108EF3
:103DE000118E128E138E148E158E168E178E10A2B3
:103DF00011A212A213A2DF91CF91FF90EF90DF905A
:103E0000CF900895CF93DF93CDB7DEB764970FB609
:103E1000F894DEBF0FBECDBF789484B5826084BDB8
:103E200084B5816084BD85B5826085BD85B58160BE
:103E300085BD80916E00816080936E00109281003C
:103E400080918100826080938100809181008160F7
:103E500080938100809180008160809380008091B8
:103E6000B10084608093B1008091B0008160809344
:103E7000B0008091910082608093910080919100C8
:103E80008160809391008091900081608093900088
:103E90008091A10082608093A1008091A100816047
:103EA0008093A1008091A00081608093A000809108
:103EB00021018260809321018091210181608093A2
:103EC00021018091200181608093200180917A00FE
:103ED000846080937A0080917A00826080937A0077
:103EE00080917A00816080937A0080917A00806866
:103EF00080937A001092C100E091090DF0910A0DB3
:103F000082E08083E091050DF091060D1082E09132
:103F1000070DF091080D80E180831092110DE09162
:103F20000D0DF0910E0D86E08083E0910B0DF09168
:103F30000C0D808180618083E0910B0DF0910C0D60
:103F4000808188608083E0910B0DF0910C0D808161
:103F500080688083E0910B0DF0910C0D80818F7D46
:103F600080831092880C1092870C1092D60C1092BD
:103F7000F80C0E9449058AE593E09093600C8093C9
:103F80005F0C8BE593E090935E0C80935D0C8CE06E
:103F90008093B80061E08BE60E947806182F60E0FD
:103FA00089E10E94780660E08AE10E94780680E05C
:103FB00090E0A3E8B2E48093A60D9093A70DA093A0
:103FC000A80DB093A90D68E08BE10E94780680E00F
:103FD00090E0A0E8B6E48093AA0D9093AB0DA09377
:103FE000AC0DB093AD0D60E08CE10E9478060E94AC
:103FF00075148091E20D9091E30DA091E40DB091C4
:10400000E50D8093EA0D9093EB0DA093EC0DB0932A
:10401000ED0D8091E60D9091E70DA091E80DB09126
:10402000E90D8093EE0D9093EF0DA093F00DB093FA
:10403000F10D0E944E036093F60D7093F70D80937F
:10404000F80D9093F90D80E292E00E94B604612F82
:1040500070E090E080E04AE00E9446110E94421128
:104060001111FECF87EF91E00E94B6040E94421129
:1040700068EE73E080E090E00E941B031092AE0DAA
:104080001092AF0D1092B00D1092B10D1092B20DB2
:104090001092B30D1092B40D1092B50D1092B60D92
:1040A0001092B70D1092B80D1092B90D1092BA0D72
:1040B0001092BB0D1092BC0D1092BD0D1092BE0D52
:1040C0001092BF0D1092C00D1092C10D1092C20D32
:1040D0001092C30D1092C40D1092C50D04EF11E0A3
:1040E00019861A861B861C861D861E861F86188AC0
:1040F000198A1A8A1B8A1C8AC12CD12C7601460186
:104100005701260137010E94B30E2091CA0D30914C
:10411000CB0D4091CC0D5091CD0DC301B2010E9449
:10412000462C2B013C012091CE0D3091CF0D4091BA
:10413000D00D5091D10DC501B4010E94462C4B0108
:104140005C0120E030E040E85FE36091D20D7091C7
:10415000D30D8091D40D9091D50D0E94452C9B01DB
:10416000AC01C701B6010E94462C6B017C01209175
:10417000D60D3091D70D4091D80D5091D90D698948
:104180007A898B899C890E94462C698B7A8B8B8BD0
:104190009C8B2091DA0D3091DB0D4091DC0D50911C
:1041A000DD0D6D857E858F8598890E94462C6D87F3
:1041B0007E878F87988B2091DE0D3091DF0D4091A7
:1041C000E00D5091E10D69857A858B859C850E9473
:1041D000462C69877A878B879C8761E070E080E056
:1041E00090E00E941B030150110909F08CCF20E0E0
:1041F00030E04AEF53E4C301B2010E94242D6093E2
:10420000BA0D7093BB0D8093BC0D9093BD0D20E053
:1042100030E04AEF53E4C501B4010E94242D6093BD
:10422000BE0D7093BF0D8093C00D9093C10D20E023
:1042300030E04AEF53E4C701B6010E94242D609399
:10424000C20D7093C30D8093C40D9093C50D20E0F3
:1042500030E04AEF53E469897A898B899C890E940E
:10426000242D6093AE0D7093AF0D8093B00D90939D
:10427000B10D20E030E04AEF53E46D857E858F85F7
:1042800098890E94242D6093B20D7093B30D809392
:10429000B40D9093B50D20E030E04AEF53E469850A
:1042A0007A858B859C850E94242D6093B60D709332
:1042B000B70D8093B80D9093B90D8AE095E00E94F8
:1042C000101301E112E04BE1E42E42E0F42EF8017C
:1042D00080810E5F1F4F60E00E94BA02E016F10677
:1042E000B1F761E080E20E94BA0266E070E08AE025
:1042F0009EE00E94700A67E070E087E09EE00E9406
:10430000700A6AE570E08AE09EE00E94F4096AE5BE
:1043100070E087E09EE00E94F4090E9475140E94FC
:104320004A1369E072E090E080E00E94501967E073
:1043300072E082E090E00E94501965E072E084E053
:1043400090E00E94501963E072E086E090E00E94E5
:10435000501961E072E088E090E00E9450194DE74A
:1043600050E062E070E08EEE92E00E940F0CFF24BD
:10437000F39489EF9CE00E943104892B09F471C009
:104380001A8219821C821B821E821D8270E060E0EC
:10439000CE0101960E94F01829813A8181112EC028
:1043A0002115310519F0C9010E940F2F1A821982B7
:1043B0001E821D821C821B820E94F1030D811E81C0
:1043C00097FD24C08A30910509F18F8318860F5F0D
:1043D0001F4FB801CE0101960E94F018882361F3A7
:1043E00029813A818D819E81BE01695F7F4F820F55
:1043F000931F0E948B301E830D83DECF1E821D8291
:1044000061E472E0C9010E948B30D6CF89809A8026
:104410008114910429F064010115110509F07BC094
:104420008D819E81892BB9F089819A8120917D0CA3
:104430002111A7C061E175E00E948230892B09F04B
:10444000FAC4F0927D0C83E195E00E9410130E9463
:104450001C131092770C89819A81009711F00E94A9
:104460000F2F80917D0C811105C50E9475140E944B
:10447000CD0BDC0190937C0C80937B0CED91FC9137
:104480001197EE0FFF1F12968D919C911397E80FD5
:10449000F91FEE0FFF1F14968D919C911597E80F51
:1044A000F91FEE0FFF1F16968D919C911797E80F3D
:1044B000F91FEE0FFF1F18968D919C91E80FF91FC1
:1044C000E032F10508F0C0C78827E659FD4D8F4F4F
:1044D0000C946B2E4C28242A242A5027212A242A83
:1044E000242A5527242A242A242A242A242A242A2E
:1044F000242A242A242A242A242A3D27242A242A36
:10450000242A6328D927C627242A1E27EC277028A7
:10451000242A7D2865015601FFEFAF1ABF0AF60174
:104520008081082E000C990B0E949C2A892B91F700
:1045300001501109080D191DF8018081082E000C89
:10454000990B0E949C2A892B31F00C151D0518F03F
:1045500001501109F1CF0F5F1F4FA8014C195D09E0
:104560005E834D838C149D0420F4B601C4010E9427
:104570007930E981FA818D819E81E80FF91F1082DF
:104580004FCFE090770CEE2009F488C00097B1F08F
:104590000E94602A2091750C3091760C24303105F0
:1045A00009F456C07CF42230310531F12330310555
:1045B000E1F189EC95E00E94101332C060E070E0F8
:1045C000CB01E8CF2530310509F455C0263031053F
:1045D00081F7709302026093010261E072E088E06B
:1045E00090E00E94641985EA95E00E94481380914A
:1045F00001029091020212C070930A0260930902B4
:1046000069E072E090E080E00E94641981E395E047
:104610000E9448138091090290910A020E94CC11D5
:104620001092770C0E941C1316CF709308026093AF
:10463000070267E072E082E090E00E9464198FE474
:1046400095E00E9448138091070290910802E6CFFE
:10465000709306026093050265E072E084E090E0EA
:104660000E9464198DE695E00E944813809105022E
:1046700090910602D3CF709304026093030263E02B
:1046800072E086E090E00E94641989E895E00E945B
:1046900048138091030290910402C0CF0097B1F0BB
:1046A0000E94602A6930710508F086C3FB018827E3
:1046B000E35AFC4D8F4F0C946B2E6A2371237423A5
:1046C00081238E239723A023A923E02360E070E0B9
:1046D000CB01E8CF10927D0C8FED95E00E94101376
:1046E000BACE0E944A139ECF86E196E00E94101334
:1046F000F092770C82E090E09093760C8093750CAA
:10470000AACE8CE396E00E941013F092770CE3E0BF
:10471000F0E0F093760CE093750C9DCE82E696E087
:104720000E941013F092770C84E090E0E5CF86E8C9
:1047300096E00E941013F092770CE5E0F0E0E9CFEC
:104740008AEA96E00E941013F092770C86E090E0DF
:10475000D3CF86ED96E00E94101385EF96E00E947D
:1047600048138091090290910A020E94CC118CE3B7
:1047700098E00E94481380910702909108020E94DD
:10478000CC1183E097E00E9448138091050290913C
:1047900006020E94CC118AEE97E00E944813809195
:1047A0000302909104020E94CC1186E998E00E94D5
:1047B000481380910102909102020E94CC1132CFE5
:1047C0008FE097E00E9410130DE61CE02FE63CE01E
:1047D00041E75CE063E77CE08FE49EE00E94981292
:1047E00040916F0C5091700C6091710C7091720C33
:1047F0008091730C9091740C0E94DE0190936C0C6C
:1048000080936B0C03E61CE025E63CE047E65CE0A9
:1048100069E67CE08DE09EE00E949812E091650CD4
:10482000F091660CFA87E9878090670C9090680C8D
:104830006090690C70906A0CAF01B401C3010E94D2
:10484000DE015C019093620C8093610CC0906D0C52
:10485000D0906E0C0091630C1091640C20906B0C46
:1048600030906C0CF6E92F16310494F420E9C2164E
:1048700021E0D2066CF486E9A816B1049CF4003954
:1048800091E019077CF48CE297E00E94101394C227
:10489000E9EECE16E3E0DE062CF0093EF3E01F075A
:1048A0000CF0C6C28091710C9091720C2091730C27
:1048B0003091740C2817390770F540916F0C5091A6
:1048C000700C4817590738F5821B930B2091010291
:1048D0003091020228173907F0F480910502909177
:1048E0000602C816D906BCF080910302909104021A
:1048F0008C159D0584F08091090290910A0228167A
:1049000039064CF055245394809107029091080287
:10491000821593050CF4512C6814790460F589858F
:104920009A858815990538F58618970880910102AF
:104930009091020288159905F0F4809105029091FA
:10494000060208171907BCF0809103029091040237
:104950008017910784F08091090290910A02A816AD
:10496000B9064CF077247394809107029091080265
:104970008A159B050CF4712C4601801A910A97FE4A
:1049800003C091948194910894E6891691041CF4D3
:10499000672C511001C0612C8CE497E00E944813F1
:1049A000852D90E00E94CC118CE597E00E94481381
:1049B000872D90E00E94CC118DE697E00E9448136D
:1049C000862D90E00E94CC118BE797E00E9448135F
:1049D000C6010E949C1181E897E00E944813C8011B
:1049E0000E94CC118AE897E00E94481380916B0CDA
:1049F00090916C0C0E948A1181E997E00E94481303
:104A00008091610C9091620C0E9490118BE997E06B
:104A10000E9448138091730C9091740C0E948A112B
:104A200080EA97E00E9448138091690C90916A0C8B
:104A30000E94901188EA97E00E9448138091710CBF
:104A40009091720C0E948A118DEA97E00E9448139F
:104A50008091670C9091680C0E94901185EB97E013
:104A60000E94481380916F0C9091700C0E948A11E3
:104A70008AEB97E00E9448138091650C9091660C38
:104A80000E94901182EC97E00E94481380916D0C77
:104A900090916E0C0E948A1187EC97E00E94481357
:104AA0008091630C9091640C0E9490118AE897E0C9
:104AB0000E94481380916B0C90916C0C0E948A119B
:104AC00081E997E00E9448138091610C9091620CFB
:104AD0000E9490118FEC97E00E944813809105028C
:104AE00090910602C816D90644F081E02091030295
:104AF000309104022C153D050CF480E090E00E94FA
:104B0000CC1186EF97E00E944813809105029091A6
:104B100006020817190744F081E020910302309142
:104B20000402201731070CF480E090E00E94CC11C1
:104B30008DE198E00E9448138091090290910A0249
:104B40002816390644F081E02091070230910802CE
:104B5000221533050CF480E090E00E94CC118AE429
:104B600098E00E9448138091090290910A02A816C9
:104B7000B90644F081E020910702309108022A151D
:104B80003B050CF480E090E00E94CC1187E798E0B0
:104B90000E9448132091710C3091720C8091730C1B
:104BA0009091740C8217930740F481E040916F0C50
:104BB0005091700C4217530708F080E090E00E947B
:104BC000CC118CE898E00E9448132091710C309130
:104BD000720C8091730C9091740C281B390B81E03E
:104BE00090E040910102509102024217530710F0E9
:104BF00090E080E00E94CC118AEA98E00E9448137D
:104C00002091670C3091680C8091690C90916A0C2E
:104C10008217930740F481E04091650C5091660C37
:104C20004217530708F080E090E00E94CC118FEB10
:104C300098E00E9448132091670C3091680C809195
:104C4000690C90916A0C281B390B81E090E040912F
:104C50000102509102024217530710F090E080E0E9
:104C60000E94CC118FEC97E00E94481380910502BE
:104C700090910602C816D90644F081E02091030203
:104C8000309104022C153D050CF480E090E00E9468
:104C9000CC1186EF97E00E94481380910502909115
:104CA00006020817190744F081E0209103023091B1
:104CB0000402201731070CF480E090E00E94CC1130
:104CC0008DE198E00E9448138091090290910A02B8
:104CD0002816390644F081E020910702309108023D
:104CE000221533050CF480E090E00E94CC118AE498
:104CF00098E00E9448138091090290910A02A81638
:104D0000B90654F0EE24E3948091070290910802D2
:104D10008A159B050CF4E12C8E2D90E00E94CC119D
:104D20008DED98E00E94481381E090E0E4E68E1655
:104D3000910414F090E080E00E94CC1185E099E0AD
:104D40006110A3CD5520E9F188E794E00E9410138B
:104D500088EC93E00E94481380916B0C90916C0C4E
:104D60000E948A1188E299E00E9448138091730C96
:104D70009091740C0E948A118FE299E00E9448136E
:104D80008091710C9091720C0E948A1186E399E0D7
:104D90000E94481380916F0C9091700C0E948A11B0
:104DA0008DE399E00E94481380916D0C90916E0CF8
:104DB0000E948A110E94421183E599E00E9410131B
:104DC00031CC7720A9F180EC94E00E94101388EC9C
:104DD00093E00E9448138091610C9091620C0E94B4
:104DE0008A1188E299E00E9448138091690C9091A1
:104DF0006A0C0E948A118FE299E00E944813809108
:104E0000670C9091680C0E948A1186E399E00E94D9
:104E100048138091650C9091660C0E948A118DE375
:104E200099E00E9448138091630C9091640CC0CF6C
:104E300084E499E02ACD8EE799E050CC68E770E0F1
:104E40008AE09EE00E94F4096CE370E087E09EE057
:104E50000E94F40980917A0C882361F00E94C516A3
:104E60009093790C8093780C8EEA99E00E9410134D
:104E700010927A0C0E94F1047CCA6CE870E08AE01F
:104E80009EE00E94F4096CE370E087E09EE00E94DF
:104E9000F409F0927A0C8FEB99E00E941013EACF9C
:104EA00086ED99E00E94101394C08BEE99E00E9469
:104EB00010130E94C5169093790C8093780C0E9471
:104EC000CD0B90937C0C80937B0C68E770E08AE0BC
:104ED0009EE00E94F4096CE370E087E09EE00E948F
:104EE000F40962E370E080E090E00E941B0300910F
:104EF000780C1091790C075A1F4F0E94C51608179D
:104F000019078CF1E0917B0CF0917C0C84819581E8
:104F1000019749F50E94751460EA70E08AE09EE00E
:104F20000E94F40960EA70E087E09EE00E94F409C4
:104F30000E94CD0B90937C0C80937B0C8BED94E0C6
:104F40000E9448130E94C5160E949C118BEF9AE0A4
:104F50000E9448138091780C9091790C865A9F4F4B
:104F60000E94CC11C4CF68E770E08AE09EE00E9406
:104F7000F4096CE370E087E09EE00E94F4096EE5BE
:104F800071E080E090E00E941B0374CF8AEF99E00B
:104F90000E94101368E770E08AE09EE00E94F40926
:104FA00068E270E087E09EE00E94F409F0927A0CDB
:104FB00061CF86ED99E00E9410136AE570E08AE007
:104FC0009EE00E94F4096AE570E087E09EE00E949E
:104FD000F4090E94D3164ECF80E19AE00E9410138C
:104FE0000E94C5169093790C8093780C0E94CD0B8B
:104FF00090937C0C80937B0C68E770E08AE09EE0E5
:105000000E94F4096CE370E087E09EE00E94F409DE
:1050100062E370E080E090E00E941B030091780C56
:105020001091790C095511090E94C5168017910736
:105030000CF499CFE0917B0CF0917C0C84819581EC
:10504000019709F090CF0E94751464E170E08AE046
:105050009EE00E94F40964E170E087E09EE00E9417
:10506000F4090E94CD0B90937C0C80937B0C82E919
:1050700094E00E9448130E94C5160E949C118BEF79
:105080009AE00E9448138091780C9091790C8A558F
:1050900091090E94CC11C2CF6AE570E08AE09EE0DF
:1050A0000E94F4096AE570E087E09EE00E94F4093E
:1050B0008EE19AE00E9410130E94C5169093790C1D
:1050C0008093780C86CF80E49AE00E94101368E702
:1050D00070E08AE09EE00E94F4096AE570E062CF29
:1050E0008CE59AE00E9410136AE570E08AE09EE089
:1050F0000E94F4096CE370E055CF87E79AE00E94C4
:1051000010130E94CD0B68E770E08AE09EE00E94D9
:10511000F4096CE370E087E09EE00E94F4096AE025
:1051200070E080E090E00E941B030E94CD0BFC0128
:1051300090937C0C80937B0C80819181019709F086
:105140007DC182819381019709F078C18481958125
:10515000019709F073C186819781019709F06EC1AB
:1051600080859185019709F069C10E946E1C87EACC
:105170009AE00E9448138DEB9AE00E9448138091B8
:10518000780C9091790C0E949C1185E29BE00E9422
:1051900048138AEC9AE00E9448130E94C5160E94A8
:1051A000CC110E94CD0BFC0190937C0C80937B0C66
:1051B00080819181019709F082C08281938101975A
:1051C00009F07DC086819781019709F078C08085BC
:1051D0009185019709F073C00091780C1091790CBA
:1051E000025011090E94C516801791070CF06AC081
:1051F0000E946E1C0091780C1091790C02501109DC
:105200000E94C516801791070CF04DC00E946E1CBD
:1052100088ED9AE00E9448138DEB9AE00E944813B3
:105220008091780C9091790C0E949C1185E29BE012
:105230000E9448138AEC9AE00E9448130E94C51607
:105240000E949C1189EF9AE00E9448138091780C8B
:105250009091790C02960E94CC1164E670E08AE08D
:105260009EE00E94F4096AE570E087E09EE00E94FB
:10527000F4090E94CD0BFC0190937C0C80937B0C75
:1052800080819181892B69F082819381892B49F0FA
:1052900086819781892B29F080859185892B09F05A
:1052A000A9CF0E94751D6AE570E08AE09EE00E9429
:1052B000F4096AE570E087E09EE00E94F4090E942C
:1052C0006E1CD8CD0091780C1091790C0E5F1F4F99
:1052D0000E94C516081719070CF05BC00E946E1CCF
:1052E0000091780C1091790C0E5F1F4F0E94C5162B
:1052F00008171907C4F60E946E1C87E09BE00E9405
:1053000048138DEB9AE00E9448138091780C90919D
:10531000790C0E949C1185E29BE00E9448138AEC64
:105320009AE00E9448130E94C5160E949C1189EFC2
:105330009AE00E9448138091780C9091790C029722
:105340000E94CC116AE570E08AE09EE00E94F409B8
:1053500060E570E087E09EE00E94F4090E94CD0BBA
:10536000FC0190937C0C80937B0C80819181892B34
:1053700069F082819381892B49F086819781892BFD
:1053800029F080859185892B09F0AACF0E94751D8F
:1053900071CD0E94C5160091780C1091790C801780
:1053A000910759F50E946E1C0E94CD0B90937C0CC6
:1053B00080937B0C89E29BE00E9448138DEB9AE07E
:1053C0000E9448138091780C9091790C0E949C1156
:1053D00085E29BE00E9448138AEC9AE00E94481301
:1053E0000E94C5160E94CC1160EA70E08AE09EE03F
:1053F0000E94F40964E170E05ECF0E94C51602507D
:105400001109801791075CF00E94C5162091780C55
:105410003091790C2E5F3F4F281739071CF6E09129
:105420007B0CF0917C0C80819181892B09F4AECFAB
:1054300080859185892B09F4A9CF41CF86E49BE033
:105440002CCD8BE49BE02ECD0E9475148DE49BE067
:105450000E94101344E650E061E070E088EE93E0B3
:105460000E940F0C68E770E08AE09EE00E94F40959
:105470006CE370E087E09EE00E94F4090E94CD0B8F
:1054800090937C0C80937B0C10E000E0E0917B0C0F
:10549000F0917C0CE00FF11F808191810E949C11A2
:1054A0000E5F1F4F0A30110589F780ED93E0F5CCB0
:1054B00084E19EE00E94440986E59EE00C94440944
:1054C0001F93FC0199278827BC01E89411911032A1
:1054D000E9F3193010F01E30C8F31B3251F01D32C1
:1054E00049F4689406C00E94872A610F711D811DCE
:1054F000911D119110531A30B0F33EF490958095A0
:10550000709561957F4F8F4F9F4F1F910895592F31
:10551000482F372F262F660F771F881F991F660F7A
:10552000771F881F991F620F731F841F951F660FB7
:10553000771F881F991F089591110C94782B803242
:1055400019F089508550C8F708950E94E72A08F499
:1055500081E00895E89409C097FB3EF4909580950A
:10556000709561957F4F8F4F9F4F9923A9F0F92F29
:1055700096E9BB279395F695879577956795B795A7
:10558000F111F8CFFAF4BB0F11F460FF1BC06F5F8D
:105590007F4F8F4F9F4F16C0882311F096E911C09F
:1055A000772321F09EE8872F762F05C0662371F0C0
:1055B00096E8862F70E060E02AF09A95660F771FD4
:1055C000881FDAF7880F9695879597F90895990FB0
:1055D0000008550FAA0BE0E8FEEF16161706E807BD
:1055E000F907C0F012161306E407F50798F0621BDE
:1055F000730B840B950B39F40A2661F0232B242BB3
:10560000252B21F408950A2609F4A140A6958FEFD1
:10561000811D811D08950E941E2B0C94922B0E94C7
:10562000842B38F00E948B2B20F0952311F00C94E2
:105630007B2B0C94812B11240C94C62B0E94A32B42
:1056400070F3959FC1F3950F50E0551F629FF001D5
:10565000729FBB27F00DB11D639FAA27F00DB11DEE
:10566000AA1F649F6627B00DA11D661F829F222777
:10567000B00DA11D621F739FB00DA11D621F839FFE
:10568000A00D611D221F749F3327A00D611D231FD4
:10569000849F600D211D822F762F6A2F11249F5722
:1056A00050409AF0F1F088234AF0EE0FFF1FBB1F25
:1056B000661F771F881F91505040A9F79E3F5105E4
:1056C00080F00C947B2B0C94C62B5F3FE4F3983E48
:1056D000D4F3869577956795B795F795E7959F5F8E
:1056E000C1F7FE2B880F911D9695879597F9089520
:1056F00099278827089597F99F6780E870E060E010
:1057000008959FEF80EC089500240A94161617065A
:1057100018060906089500240A94121613061406A2
:1057200005060895092E0394000C11F4882352F005
:10573000BB0F40F4BF2B11F460FF04C06F5F7F4FBD
:105740008F4F9F4F089557FD9058440F551F59F0A4
:105750005F3F71F04795880F97FB991F61F09F3F5E
:1057600079F087950895121613061406551FF2CF87
:105770004695F1DF08C0161617061806991FF1CFD7
:1057800086957105610508940895E894BB276627FE
:105790007727CB0197F90895F999FECF92BD81BD86
:1057A000F89A992780B50895262FF999FECF1FBA48
:1057B00092BD81BD20BD0FB6F894FA9AF99A0FBE3A
:1057C00001960895052E97FB1EF400940E94F92B74
:1057D00057FD07D00E94142C07FC03D04EF40C9404
:1057E000F92B50954095309521953F4F4F4F5F4F86
:1057F000089590958095709561957F4F8F4F9F4F3D
:1058000008950E94362CA59F900DB49F900DA49FE3
:10581000800D911D11240895B7FF0C94012C0E9456
:10582000012C821B930B0895A1E21A2EAA1BBB1B0D
:10583000FD010DC0AA1FBB1FEE1FFF1FA217B3075C
:10584000E407F50720F0A21BB30BE40BF50B661F72
:10585000771F881F991F1A9469F760957095809536
:1058600090959B01AC01BD01CF010895A29FB001AD
:10587000B39FC001A39F700D811D1124911DB29F84
:10588000700D811D1124911D08955058BB27AA2722
:105890000E945D2C0C94922B0E94842B38F00E9465
:1058A0008B2B20F039F49F3F19F426F40C94812BB4
:1058B0000EF4E095E7FB0C947B2BE92F0E94A32BC1
:1058C00058F3BA17620773078407950720F079F435
:1058D000A6F50C94C52B0EF4E0950B2EBA2FA02D37
:1058E0000B01B90190010C01CA01A0011124FF278D
:1058F000591B99F0593F50F4503E68F11A16F04088
:10590000A22F232F342F4427585FF3CF4695379586
:105910002795A795F0405395C9F77EF41F16BA0B4B
:10592000620B730B840BBAF09150A1F0FF0FBB1FF9
:10593000661F771F881FC2F70EC0BA0F621F731F42
:10594000841F48F4879577956795B795F7959E3F9F
:1059500008F0B0CF9395880F08F09927EE0F979530
:10596000879508950E94842B60F080E891E009F407
:105970009EEF0E948B2B28F040E851E071F45EEF1F
:105980000CC00C94812B0C94C52BE92FE0780E945D
:10599000A32B40F3092E052AB1F326173707480732
:1059A000590738F00E2E07F8E02569F0E025E0648D
:1059B0000AC0EF6307F8009407FADB01B9019D0103
:1059C000DC01CA01AD01EF930E943B2D0E94922B96
:1059D0000E94F52C5F91552339F02BED3FE049E40F
:1059E00050FD49EC0C94462C0895DF93DD27B92F28
:1059F000BF7740E85FE31616170648075B0718F401
:105A0000D92F0E94F82D9F938F937F936F930E94BD
:105A1000462EE4EEF0E00E94CC2D0E94922B2F91B6
:105A20003F914F915F910E941E2BDD2351F09058C2
:105A3000A2EA2AED3FE049EC5FE3D0785D270E94BF
:105A40005D2CDF910C94922B0E94382D0C94922B9C
:105A50000E948B2B58F00E94842B40F029F45F3F6A
:105A600029F00C947B2B51110C94C62B0C94812B98
:105A70000E94A32B68F39923B1F3552391F3951B4F
:105A8000550BBB27AA2762177307840738F09F5F5F
:105A90005F4F220F331F441FAA1FA9F335D00E2ECC
:105AA0003AF0E0E832D091505040E695001CCAF739
:105AB0002BD0FE2F29D0660F771F881FBB1F2617FC
:105AC00037074807AB07B0E809F0BB0B802DBF01D3
:105AD000FF2793585F4F3AF09E3F510578F00C94A2
