:100000000C9414020C9445020C9445020C94450285
:100010000C9445020C9445020C9445020C94450244
:100020000C9445020C9445020C9445020C94450234
:100030000C9445020C942A300C9445020C94450211
:100040000C9445020C9494320C9445020C94450295
:100050000C9445020C9445020C9445020C94E02F3C
:100060000C9445020C94B4300C948A300C944502E4
:100070000C9445020C9445020C9445020C944502E4
:100080000C9466320C9445020C9445020C94450283
:100090000C9445020C9445020C9445020C94EA30F1
:1000A0000C9445020C9445020C9438320C94450291
:1000B0000C9445020C9445020C9445020C940A32AF
:1000C0000C9445020C9445020C9445020C94450294
:1000D0000C9445020C9445020C9445020C94450284
:1000E0000C944502084AD73B3BCE016E84BCBFFD51
:1000F000C12F3D6C74319ABD56833DDA3D00C77FF8
:1001000011BED9E4BB4C3E916BAAAABE0000008090
:100110003F07634236B79BD8A71A39685618AEBA5C
:10012000AB558C1D3CB7CC5763BD6DEDFD753EF6F0
:10013000177231BF000000803F08000000BE92240B
:1001400049123EABAAAA2ABECDCCCC4C3E00000040
:1001500080BEABAAAAAA3E00000000BF000000803B
:100160003F0000000000084178D3BB4387D1133D16
:10017000190E3CC3BD4282AD2B3E68EC8276BED9DF
:100180008FE1A93E4C80EFFFBE01C4FF7F3F00001E
:10019000000000000C9478040C94BE020C94D10270
:1001A0000C9419480C9479480C94DC070C945E4428
:1001B0000C94BC340C94E3020C94B8430C94EF07F9
:1001C0000C94C7020C94F6070C9478440C9490425B
:1001D0000C94C1020C9415470C94F1020C94464304
:1001E0000C9412430C94EC020C9469040C94044497
:1001F0000C94B9470C94FA050C94E9390C946149B4
:100200000C943C460C9469430C943C040C945A05A1
:100210000C944F460C9442440C94D9020C943D47E4
:100220000C9452080C94CB020C94B2020C945044DF
:100230000C94F8480C9449440C941C430C9471445D
:100240000C94DD390C9492050C944E430C94CC071D
:100250000C94DF020C941F3D0C94ED020C94E039D9
:100260000C9423080C9420430C9430470C94BE0447
:100270000C9492430C9495490C94AC020C94574402
:100280000C94DC440C94B1460C94E7020C94D50217
:100290000C946A440C944A430C94B6020C94A04605
:1002A0000C94B6470C94CD070C94BA020C947F447E
:1002B0000C9402470C94DE430C9408430C9428469B
:1002C0000C94D8400C9442430243616C63756C619A
:1002D00074696E67206F6666736574732C20646F33
:1002E000206E6F74206D6F7665204D505536303519
:1002F00030004D505536303530207374617475734D
:100300003A200000000A0B02090C0D0E0807030436
:1003100001000000000000000000000000000000DC
:1003200000000000000000000000000000000012BB
:10033000111000000000000000000000000000009C
:100340000000000000000000000000200023002644
:100350000029002C002F00320000010000030106DC
:1003600001090100002100240027002A002D00308F
:1003700000330001010000040107010A010000220E
:1003800000250028002B002E00310034000201005F
:1003900000050108010B01010210202008081020AF
:1003A0004010204080020102010804020101020401
:1003B00008102040808040201008040201800402C0
:1003C0000180402010080402010804020101020417
:1003D0000810204080010204081020408005050517
:1003E00005070508080808020202020A0A080804AC
:1003F00004040401010101010101010303030303DA
:10040000030303040707070C0C0C0C0C0C0C0C0268
:1004100002020206060606060606060B0B0B0B0B6F
:100420000B0B0B00BC34954911241FBECFEFD1E25A
:10043000DEBFCDBF00E00CBF1BE1A0E0B2E0E8E50D
:10044000F2EA00E00BBF02C007900D92AE3DB1078B
:10045000D9F72FE1AEEDBBE101C01D92A435B20783
:10046000E1F712E0C3E1D2E000E006C02197010904
:10047000802FFE010E94F54EC231D10780E00807AF
:10048000A9F70E9498350C941A510C940000CF9251
:10049000DF92EF92FF920F931F93CF93DF938B0125
:1004A000EA01BC0190E080E00E94E74926ED39E3D3
:1004B00046EA5EEB0E94484A6B017C01B80190E07D
:1004C00080E00E94E74927E038E04AEC5FE30E94C1
:1004D000484A9B01AC01C701B6010E94834B6B01E6
:1004E0007C01BE0190E080E00E94E74924E73EE500
:1004F0004BE35FEB0E94484A9B01AC01C701B60188
:100500000E94834B0E94DA4CCB01DF91CF911F9167
:100510000F91FF90EF90DF90CF900895815082313E
:1005200008F05AC0E82FF0E08827E656FD4F8F4FBD
:100530000C94F54EBA02BE02AC02B202B602EC0254
:10054000C102C702CB02D102D502D902DF02E30207
:10055000EC02E702ED02F102809180008F77809338
:1005600080000895809180008F7DF9CF8091800078
:10057000877FF5CF84B58F7784BD089584B58F7D4F
:10058000FBCF8091B0008F778093B0000895809169
:10059000B0008F7DF9CF809190008F77809390008D
:1005A0000895809190008F7DF9CF80919000877F92
:1005B000F5CF8091A0008F778093A000089580915F
:1005C000A0008F7DF9CF8091A000877FF5CF80912B
:1005D00020018F77809320010895809120018F7DE5
:1005E000F9CF80912001877FF5CFCF93DF93282F1C
:1005F00030E0F901ED5FFC4F8491F901E956FC4FC1
:10060000D491F901E352FC4FC491CC23A1F08111A4
:100610000E948E02EC2FF0E0EE0FFF1FE75BFC4F15
:10062000A591B491EC91ED2381E090E009F480E094
:10063000DF91CF91089580E090E0FACF1F93CF93A0
:10064000DF93282F30E0F901ED5FFC4F8491F90131
:10065000E956FC4FD491F901E352FC4FC491CC23ED
:10066000A9F0162F81110E948E02EC2FF0E0EE0F00
:10067000FF1FE358FC4FA591B4918FB7F894EC910C
:10068000111108C0D095DE23DC938FBFDF91CF918D
:100690001F910895DE2BF8CFCF93DF9390E0FC01FC
:1006A000E956FC4F249183529C4FFC01849188238E
:1006B000C9F090E0880F991FFC01ED59FC4FA591FE
:1006C000B491FC01E358FC4FC591D49161110DC068
:1006D0009FB7F8948C91209582238C93888128234E
:1006E00028839FBFDF91CF910895623051F49FB767
:1006F000F8943C91822F809583238C93E8812E2B54
:10070000EFCF8FB7F894EC912E2B2C938FBFEACFBD
:100710008230910538F0880F991F880F991F05972F
:100720000197F1F708953FB7F8948091251D9091B6
:10073000261DA091271DB091281D26B5A89B05C098
:100740002F3F19F00196A11DB11D3FBFBA2FA92F50
:10075000982F8827BC01CD01620F711D811D911D4D
:1007600042E0660F771F881F991F4A95D1F70895B9
:100770008F929F92AF92BF92CF92DF92EF92FF92B1
:100780006B017C010E9493034B015C01C114D104F5
:10079000E104F104B9F00E949303681979098A0908
:1007A0009B09683E73408105910580F321E0C21AE0
:1007B000D108E108F10888EE880E83E0981EA11C9C
:1007C000B11CE4CFFF90EF90DF90CF90BF90AF903F
:1007D0009F908F9008952FB7F8946091211D70918C
:1007E000221D8091231D9091241D2FBF089590916B
:1007F000000289130DC0E8ECF2E0E4919FEF9093C2
:100800000002E230E1F038F4EE2381F0E13089F0CB
:1008100060E00C941E03E43049F110F1E530C1F7BB
:10082000909173009D7F90937300F2CF10926E00B1
:10083000EFCF90916F009D7F90936F00E9CF9091E3
:1008400070009D7F9093700091E09093B000909124
:10085000B100987F94609093B1001092B300D8CF0C
:10086000909171009D7F90937100D2CF9091720012
:100870009D7F90937200CCCFAF92BF92CF92DF92C8
:10088000EF92FF920F931F93CF93DF936C017B0145
:100890008B01040F151FEB015E01AE18BF08C017D6
:1008A000D10759F06991D601ED91FC910190F08149
:1008B000E02DC6011995892B79F7C501DF91CF91FC
:1008C0001F910F91FF90EF90DF90CF90BF90AF906E
:1008D0000895FC01538D448D252F30E0842F90E046
:1008E000821B930B541710F0CF960895019708952B
:1008F000FC01918D828D981761F0A28DAE0FBF2FF4
:10090000B11D5D968C91928D9F5F9F73928F90E049
:1009100008958FEF9FEF08950F931F930E94EB03AD
:100920006093A31D7093A41D8093A51D9093A61D95
:100930008BE99DE10E94780497FF1DC00E94EB03A4
:100940000091A31D1091A41D2091A51D3091A61DFD
:10095000601B710B820B930B00919F1D1091A01DCA
:100960002091A11D3091A21D601771078207930786
:10097000F8F28FEF9FEF1F910F910895FC01918D79
:10098000828D981731F0828DE80FF11D858D90E0F2
:1009900008958FEF9FEF08950F931F930E94EB032D
:1009A0006093A31D7093A41D8093A51D9093A61D15
:1009B0008BE99DE10E94BE0497FF1DC00E94EB03DE
:1009C0000091A31D1091A41D2091A51D3091A61D7D
:1009D000601B710B820B930B00919F1D1091A01D4A
:1009E0002091A11D3091A21D601771078207930706
:1009F000F8F28FEF9FEF1F910F910895CF92DF9242
:100A0000EF92FF92CF930E94CC04FC0197FD4EC061
:100A10008D32910521F0C0970A9708F040C0C12C93
:100A2000D12C7601C0E0E130F105D1F0ED32F105D5
:100A3000D9F1CF01C0970A9798F4AAE0B0E0A701D6
:100A400096010E943E4B6F01FF0FEE08FF08C60E95
:100A5000D71EE81EF91E80E3C81AD108E108F10884
:100A60008BE99DE10E9478040E94CC04FC01C097B0
:100A70000A97C8F2E130F105B1F2CC2341F0F094CD
:100A8000E094D094C094C11CD11CE11CF11CC7019E
:100A9000B601CF91FF90EF90DF90CF9008958BE952
:100AA0009DE10E947804AFCFC1E0DACFC12CD12CF8
:100AB0007601EDCFFC01918D228D892F90E0805C35
:100AC0009F4F821B91098F73992708958BE99DE1B0
:100AD0000E945A0521E0892B09F420E0822F089515
:100AE000FC01A48DA80FB92FB11DA35ABF4F2C91A3
:100AF000848D90E001968F739927848FA689B7899A
:100B00002C93A089B1898C91837080648C93938D90
:100B1000848D981306C00288F389E02D80818F7D33
:100B200080830895EF92FF920F931F93CF93DF93EB
:100B3000EC0181E0888F9B8D8C8D98131AC0E88919
:100B4000F989808185FF15C09FB7F894EE89FF89E8
:100B50006083E889F98980818370806480839FBF86
:100B600081E090E0DF91CF911F910F91FF90EF9086
:100B70000895F62E0B8D10E00F5F1F4F0F73112796
:100B8000E02E8C8D8E110CC00FB607FCFACFE889D1
:100B9000F989808185FFF5CFCE010E947005F1CFE4
:100BA000EB8DEC0FFD2FF11DE35AFF4FF0829FB745
:100BB000F8940B8FEA89FB8980818062CFCF0F93F5
:100BC0001F93CF93DF938C01D0E0C0E0F801EC0FCE
:100BD000FD1F6491662341F08BE99DE10E9492051F
:100BE000892B11F02196F2CFCE01DF91CF911F9189
:100BF0000F910895CF93DF93EC01888D8823B9F08E
:100C0000AA89BB89E889F9898C9185FD03C0808117
:100C100086FD0DC00FB607FCF7CF8C9185FFF2CF94
:100C2000808185FFEDCFCE010E947005E9CFDF9175
:100C3000CF91089580E090E0892B29F00E9466050D
:100C400081110E94000080E090E0892B49F080E053
:100C500090E0892B29F00E94000081110E94000081
:100C600080E090E0892B49F080E090E0892B29F02A
:100C70000E94000081110E94000080E090E0892B1A
:100C800049F080E090E0892B29F00E94000081115A
:100C90000C94000008951F93CF93DF93C1E0C0939D
:100CA000961C882399F1D091B8001091BA008091D8
:100CB000BC008A7B8093BC0060E084E10E941E033C
:100CC00060E085E10E941E031092711DC093701DAB
:100CD00010924B1D61E084E10E941E0361E085E1FA
:100CE0000E941E038091B9008E7F8093B90080918D
:100CF000B9008D7F8093B90088E48093B80085E4C3
:100D00008093BC001093BA00D093B800DF91CF91CC
:100D10001F9108958F929F92AF92BF92CF92DF92D0
:100D2000EF92FF920F931F93CF93DF93D0919A1D71
:100D3000D13208F0D7C0182FC091991D0E9493039B
:100D40006B017C018091711D81116BC082E08093E9
:100D5000711D1093701D8FEF80936F1D10926E1D8B
:100D6000D0936D1DA9E7BDE1EDE4FDE180E0D8136E
:100D700091C010924C1D80914C1DCC0FC82BC0937C
:100D80004C1D80914B1D813009F088C010924B1D85
:100D90000E9493036B017C0180914C1D8093BB00EA
:100DA0008091731D9091741DA091751DB091761D59
:100DB000892B8A2B8B2BA1F00E9493030091731D2A
:100DC0001091741D2091751D3091761D6C197D094F
:100DD0008E099F09061717072807390708F442C02C
:100DE0008091BC0083FDD8CF85EC8093BC000E942D
:100DF00093036B017C018091711D823009F450C016
:100E000080916F1D8F3F09F46FC080916F1D8032FC
:100E100009F46CC080916F1D803309F469C084E0CF
:100E200026C08091731D9091741DA091751DB09185
:100E3000761D892B8A2B8B2B09F484CF0E94930378
:100E40008090731D9090741DA090751DB090761DBC
:100E50006C197D098E099F0986169706A806B906A2
:100E600008F070CF8091721D0E944B0685E01092B1
:100E7000781D10929A1D1092771DDF91CF911F91CE
:100E80000F91FF90EF90DF90CF90BF90AF909F9029
:100E90008F9008959D9191938F5F69CF85EEA5CF37
:100EA0008091731D9091741DA091751DB091761D58
:100EB000892B8A2B8B2B09F49ECF0E9493030091E0
:100EC000731D1091741D2091751D3091761D6C1944
:100ED0007D098E099F09061717072807390708F0AB
:100EE0008ACFC0CF81E0C3CF80E0C1CF82E0BFCF47
:100EF00083E0BDCF1F93CF93DF93162FC4E4DEE1D1
:100F0000A981BA819B8121E02093771D9093991D3F
:100F10001092781D10929A1DED91FC9111970190FD
:100F2000F081E02D682FCD01199589819A81DC012E
:100F3000ED91FC910190F081E02D612F199581E0F8
:100F4000DF91CF911F910C948A062091B71C260F38
:100F50003327331F21323105ECF42091711DFC0140
:100F600090E080E0243069F082E00895A091B71C01
:100F70002191AC014956534EA40FB52FB11D2C93AE
:100F80000196861798F38091B71C680F6093B71C81
:100F900080E0089581E008950895E0912A1D8091F0
:100FA000291DE81730F4F0E0E55DF24E808190E015
:100FB00008958FEF9FEF089590912A1D8091291D2C
:100FC0002FEF3FEF981748F4E92FF0E0E55DF24E80
:100FD000208130E09F5F90932A1DC9010895809180
:100FE000291D90912A1D891B990B0895CF92DF929C
:100FF000EF92FF920F931F93CF93DF937C01CB016E
:101000008A012091771D222389F0EB016B01C40E28
:10101000D51ECC15DD0569F06991D701ED91FC91E4
:101020000190F081E02DC7011995F3CF642F0E9444
:10103000A507C801DF91CF911F910F91FF90EF900D
:10104000DF90CF900895CF93DF931F92CDB7DEB797
:1010500069832091771D2223F9F020919A1D203277
:1010600058F021E030E0FC013383228390E080E0FF
:101070000F90DF91CF9108958091781DE82FF0E0D7
:10108000E758F24E998190838F5F8093781D80930B
:101090009A1D81E090E0ECCF61E0CE0101960E94C4
:1010A000A507F7CF90E080E00895CF92DF92EF920E
:1010B000FF920F931F93CF93DF93EC01EE81FF819B
:1010C00090818B81809589238083EA85FB8580814F
:1010D0009B81892B8083EC81FD8190818A81809521
:1010E00089238083E885F98580819A81892B808393
:1010F00089899A89009711F00E948803EA85FB8507
:1011000090818B818095892380838B89882331F01E
:10111000EE81FF8180819B81892B80838C8988234C
:10112000C9F00E94EB036B017C01EE85FF85808195
:101130009B81892379F40E94EB036C197D098E0948
:101140009F090D891E892F89388D601771078207C5
:10115000930758F389899A89009711F00E948803B0
:10116000E885F98590818A818095892380838B89A0
:10117000882331F0EC81FD8180819A81892B8083E5
:1011800089899A89009751F0DF91CF911F910F9132
:10119000FF90EF90DF90CF900C948803DF91CF9178
:1011A0001F910F91FF90EF90DF90CF900895CF9314
:1011B000DF93EC01E885F98590818A818095892308
:1011C00080838B89882331F0EC81FD8180819A8135
:1011D000892B8083EA85FB8590818B81809589238B
:1011E00080838B89882331F0EE81FF8180819B8110
:1011F000892B808389899A89009711F00E9488033E
:10120000EC85FD8590818A819823EE85FF8520817C
:101210003B81232311F480E028C09923E1F3EC8182
:10122000FD819081809589238083E885F98580817F
:101230009A81892B808389899A89009711F00E946D
:101240008803EE81FF8190818B8180958923808343
:10125000EA85FB8580819B81892B808389899A8996
:10126000009711F00E94880381E0DF91CF910895EB
:10127000CF92DF92EF92FF920F931F93CF93DF9362
:10128000EC01E885F98590818A81809589238083A6
:101290008B89882331F0EC81FD8180819A81892BB3
:1012A0008083EA85FB8590818B818095892380836B
:1012B0008B89882331F0EE81FF8180819B81892B8E
:1012C00080838C898823C9F00E94EB036B017C0129
:1012D000EE85FF8580819B81892379F40E94EB0351
:1012E0006C197D098E099F090D891E892F89388DFA
:1012F000601771078207930758F389899A890097C5
:1013000011F00E948803EC85FD8580819A818923F4
:1013100011E009F410E0EE81FF8190818B818095CE
:1013200089238083EA85FB8580819B81892B80834B
:1013300089899A89009711F00E948803812FDF9193
:10134000CF911F910F91FF90EF90DF90CF90089574
:10135000CF92DF92EF92FF920F931F93CF93DF9381
:10136000EC018A81809561115EC0EC81FD819081E4
:1013700089238083E885F98580819A81892B808300
:1013800089899A89009711F00E948803EA85FB8574
:1013900090818B818095892380838B89882331F08C
:1013A000EE81FF8180819B81892B80838C898823BA
:1013B000C9F00E94EB036B017C01EE85FF85808103
:1013C0009B81892379F40E94EB036C197D098E09B6
:1013D0009F090D891E892F89388D60177107820733
:1013E000930758F389899A89009711F00E9488031E
:1013F000EE81FF8190818B81809589238083EA85AE
:10140000FB8580819B81892B808389899A890097BC
:10141000B1F0DF91CF911F910F91FF90EF90DF908E
:10142000CF900C948803E885F98590818923808387
:101430008B89882309F4A4CFEC81FD819DCFDF91B6
:10144000CF911F910F91FF90EF90DF90CF90089573
:101450000F931F93CF93DF938C01D62FC8E06D2F8E
:101460006078C8010E94A809DD0FC150C1F7C8010A
:10147000DF91CF911F910F910C943809CF93DF9397
:10148000FC012089211106C0EC010E94280A81116B
:1014900006C0188A81E090E0DF91CF91089582E044
:1014A000888BF8CF1F93CF93DF93EC01162F188A08
:1014B0000E94D708882379F0612F660FCE010E9421
:1014C000280A811105C0188ADF91CF911F910895D4
:1014D00082E0888BF9CF84E0FCCFFC019389138AEA
:1014E000A085B1852C918281809582238C938389FC
:1014F000882331F0A481B5818C912281822B8C9339
:10150000A285B3852C918381809582238C938389D6
:10151000882331F0A681B7818C912381822B8C9313
:10152000938B08950F931F93CF93DF93CDB7DEB7BF
:10153000EB970FB6F894DEBF0FBECDBFDC011C9257
:101540008BEE90E014969C938E93139781E090E03D
:1015500012969C938E93119715966C9315971696E9
:101560004C93169769834A838C8B8D8B82E090E035
:101570009B8B8A8B08EE13E020E030E00E8B1F8BF4
:10158000288F398F70E0FB01E352FC4F249169569C
:101590007C4FFB0164916B8330E0220F331FF90114
:1015A000E358FC4F859194919E838D83F901ED5909
:1015B000FC4F859194919A878987F901E75BFC4FED
:1015C000859194919E878D8750E0FA01E352FC4FFC
:1015D000249149565C4FFA0144914C8330E0220F2C
:1015E000331FF901E358FC4F8591949198878F83BD
:1015F000F901ED59FC4F859194919C878B87F901F6
:10160000E75BFC4F85919491988B8F878BE3FE016C
:101610003196179601900D928A95E1F7CE010196C9
:101620000E946D0AEB960FB6F894DEBF0FBECDBFD9
:10163000DF91CF911F910F910895CF92DF92EF929A
:10164000FF92CF93DF93EC01603282E07807CCF514
:10165000653B710514F064EB70E0898128E830E0A7
:10166000281B310987FD3395220F331F220F331FAB
:101670006901330FEE08FF088A8128E532E0281B54
:10168000310987FD3395220F331F220F331F032E9D
:10169000000C440B550B2C193D094E095F09DB0169
:1016A00077FF02C0B0E0A0E00E94494B24EB30E09D
:1016B00040E050E00E941F4BC20ED31EE41EF51EF8
:1016C000B601E881E03370F5298188E890E0821B5B
:1016D000910927FD9395880F991F880F991F681707
:1016E00079077CF02A8188E592E0821B910927FD29
:1016F0009395880F991F880F991F681779070CF425
:10170000CB010297880F991F4FB7F8942E2F30E026
:10171000F901EE0FFF1FE20FF31FEA5FF34E928312
:1017200081834FBFDF91CF91FF90EF90DF90CF90FB
:1017300008951F93CF93DF93EC01162F8881803398
:1017400008F04EC061E0812F0E944C038881282F51
:1017500030E0F901EE0FFF1FE20FF31FEA5FF34ED7
:101760001F736081607C612B608319821A822CE078
:10177000622F0E94E94E829FB001112430E020E0E8
:10178000AB01420F531FFA01EE0FFF1FE40FF51FCD
:10179000EA5FF34E908196FD16C02F5F3F4F2C30CD
:1017A000310571F7813009F51092800082E0809355
:1017B00081001092850010928400B19A80916F0090
:1017C000826080936F00E8818E2F90E0FC01EE0F25
:1017D000FF1FE80FF91FEA5FF34E8081806480836A
:1017E0008881DF91CF911F910895823061F410922A
:1017F000900080939100109295001092940088BB05
:1018000080937100E0CF833069F41092A00082E0F1
:101810008093A1001092A5001092A40089BB809330
:101820007200D1CF8111CFCF1092200182E080933E
:10183000210110922501109224018ABB809373002C
:10184000C2CFFC019091051C903398F481E0890F80
:101850008093051C9083892F90E0FC01EE0FFF1F01
:10186000E80FF91FEA5FF34E88EB9BE092838183D8
:1018700008958FEF80830895AF92BF92CF92DF9249
:10188000EF92FF920F931F93CF93DF936B017A0137
:10189000EC01CF5FD34E28813CE0389F8001399F17
:1018A000100D1124A090051CB12C27FF1FC0FB01B7
:1018B0001182108288818F5F888388819801280F28
:1018C000311D87FD3A95F6012A153B051CF48881E8
:1018D0008C30C4F180819181049680349C4908F455
:1018E00073C0F60180819181049670C0888198014F
:1018F000280F311D87FD3A952A153B05DCF68881B6
:10190000A801480F511D87FD5A95FA01EE0FFF1FE0
:10191000E40FF51FEA5FF34E808186FFCBCF88810D
:10192000F801E80FF11D87FDFA95CF01EE0FFF1FBB
:10193000E80FF91FEA5FF34E808160E08F730E9429
:101940001E03B8CF808191812881A801420F511DCB
:1019500027FD5A959A01FA01EE0FFF1FE20FF31FC0
:10196000EA5FF34E21813281820F931FF701918349
:10197000808388819801280F311D87FD3A95F901F0
:10198000EE0FFF1FE20FF31FEA5FF34E808186FF29
:1019900022C08881080F111D87FD1A95F801EE0FEE
:1019A000FF1FE00FF11FEA5FF34E808161E08F734C
:1019B000DF91CF911F910F91FF90EF90DF90CF902B
:1019C000BF90AF900C941E0380E49CE9F7019183D3
:1019D00080838FEF8883DF91CF911F910F91FF90CC
:1019E000EF90DF90CF90BF90AF9008950F931F932B
:1019F000CF93DF93C3E2D2E007EF1BE18881229609
:101A00000E94F502F801819391938F01F2E0CD32AB
:101A1000DF07A1F787EF9BE1DF91CF911F910F9136
:101A200008952F923F924F925F926F927F928F9282
:101A30009F92AF92BF92CF92DF92EF92FF920F935D
:101A40001F93CF93DF9300D000D01F92CDB7DEB7A6
:101A50007D836C83312C212C88248A94982C54010A
:101A60006C01990FEE08FF080DEF13E02A01550FE6
:101A70006608770880910002803239F5E8ECF2E0E0
:101A8000F491FE83F7FD70C061E080E20E944C0398
:101A9000FE81F11139C0C982DA82EB82FF8268E4EB
:101AA00078EE81E090E029813A814B815F810E944C
:101AB0001F4BBA01A90141505109610971099E8169
:101AC000992309F4CEC194E03DC08F3F09F04CC08A
:101AD00080E280930002E8ECF2E0F491FE838F2F25
:101AE000FF3F09F441C0F23009F4C8C008F069C0F2
:101AF000FF2309F48DC0F13009F4A2C087FD34C082
:101B000061E080E20E944C038E81823009F016C1B0
:101B1000C982DA82EB82FF8260E970ED83E090E0B7
:101B2000A70196010E941F4BBA01A901415051091A
:101B30006109710993E04F3F51056105710511F08D
:101B40000CF0ADCF8091B100887F892B8093B100DC
:101B5000EE81E23009F475C10CF06BC1EE2309F49B
:101B600084C1E13009F401C1C301B2010E94B8038C
:101B700080E20E94F703C301B2010E94B8038FEF15
:101B8000281A380AEC81FD81E215F30509F072CFBD
:101B900027960FB6F894DEBF0FBECDBFDF91CF9171
:101BA0001F910F91FF90EF90DF90CF90BF90AF907B
:101BB0009F908F907F906F905F904F903F902F906D
:101BC00008959E81943009F49BC008F479C0953043
:101BD00009F094CF109220011092210180912101EF
:101BE000886080932101809121018160809321018F
:101BF000F8018491E82FF0E0EE0FFF1FE358FC4F4F
:101C000085919491E7EBF3E084918093DE1B3CCFC8
:101C100014BC15BC84B5826084BD85B5816085BD6A
:101C2000F8018491E82FF0E0EE0FFF1FE358FC4F1E
:101C300085919491E7EBF3E084918093E21B24CFAC
:101C400010928000109281008091810088608093C2
:101C5000810080918100816080938100F8018491EE
:101C6000E82FF0E0EE0FFF1FE358FC4F85919491B1
:101C7000E7EBF3E084918093E11B06CF1092B00074
:101C80001092B1008091B00082608093B00080918A
:101C9000B10081608093B100F8018491E82FF0E0F9
:101CA000EE0FFF1FE358FC4F859194919093DB1C3E
:101CB0008093DA1CE7EBF3E084918093DC1CE4CEA4
:101CC0001092900010929100809191008860809312
:101CD000910080919100816080939100F80184913E
:101CE000E82FF0E0EE0FFF1FE358FC4F8591949131
:101CF000E7EBF3E084918093E01BF3E0FE83C4CE36
:101D00001092A0001092A1008091A10088608093A1
:101D1000A1008091A10081608093A100F8018491CD
:101D2000E82FF0E0EE0FFF1FE358FC4F85919491F0
:101D3000E7EBF3E084918093DF1BA6CE60E072E1D5
:101D40008AE790E0A70196010E941F4BBA01A90102
:101D50004150510961097109EE81E130C1F480916E
:101D60008100887F81608093810050938900409337
:101D700088008092EF1B9092F01BA092F11BB09212
:101D8000F21B80916F00826080936F00EDCEFE8128
:101D9000F330C1F480919100887F8160809391003D
:101DA00050939900409398008092EB1B9092EC1B0B
:101DB000A092ED1BB092EE1B809171008260809327
:101DC0007100D2CE8E818430C1F48091A100887FD1
:101DD00081608093A1005093A9004093A800809255
:101DE000E71B9092E81BA092E91BB092EA1B80913E
:101DF0007200826080937200B7CE9E81953009F0A8
:101E0000A7CE80912101887F81608093210150932A
:101E10002901409328018092E31B9092E41BA09239
:101E2000E51BB092E61B8091730082608093730083
:101E30009BCEFE81F43079F20CF4B2CFF53039F359
:101E400093CE4093B3008092DD1C9092DE1CA09252
:101E5000DF1CB092E01C8091700082608093700063
:101E600083CE85B5887F836085BD47BD8092F31B97
:101E70009092F41BA092F51BB092F61B80916E001D
:101E8000826080936E0070CE4F925F926F927F92CD
:101E90008F929F92AF92BF92CF92DF92EF92FF927A
:101EA0000F931F93CF93DF93CDB7DEB72E970FB667
:101EB000F894DEBF0FBECDBF8091451E9091461EA7
:101EC0002091471E31E03093771D2093991D109289
:101ED000781D10929A1DDC01ED91FC910190F0812A
:101EE000E02D6BE3199580E00E948A061091471E51
:101EF0000E9493034B015C018091711D811166C0AA
:101F000081E08093711D8093701D9FEF90936F1DF2
:101F100010926E1D9DE090936D1D80934C1D8091DD
:101F20004C1D110F182B10934C1D80914B1D8130AF
:101F300009F0A9C110924B1D0E9493034B015C0153
:101F400080914C1D8093BB008091731D9091741DF6
:101F5000A091751DB091761D892B8A2B8B2BA1F03A
:101F60000E9493030091731D1091741D2091751DA3
:101F70003091761D681979098A099B090617170798
:101F80002807390708F443C08091BC0083FDD8CFEF
:101F900085EC8093BC000E9493034B015C0180910F
:101FA000711D813009F471C180916E1D8E3008F071
:101FB0008EC180916E1DADE4BDE1EBE2FDE190E0EC
:101FC000981751F12D9121939F5FFACF8091731D46
:101FD0009091741DA091751DB091761D892B8A2B4F
:101FE0008B2B09F489CF0E9493034090731D50906E
:101FF000741D6090751D7090761D681979098A09A5
:102000009B09461657066806790608F075CF809139
:10201000721D0E944B0680E010922A1D8093291D9C
:102020008E010F5F1F4F6E01BFE0CB0ED11C809160
:10203000451E9091461EDC01ED91FC910284F385D2
:10204000E02D1995B82E8091451E9091461EDC0119
:10205000ED91FC910284F385E02D1995E12C8E29F8
:102060009B29F801819391938F01CE16DF06F9F633
:10207000C0904C1ED0904D1EE0904E1EF0904F1E12
:1020800069817A81072E000C880B990B0E94E9491F
:10209000A70196010E94614C20915C1E30915D1E4B
:1020A00040915E1E50915F1E0E94824B60936C1E99
:1020B00070936D1E80936E1E90936F1E6B817C815A
:1020C000072E000C880B990B0E94E949A701960185
:1020D0000E94614C2091601E3091611E4091621EF1
:1020E0005091631E0E94824B6093701E7093711E0C
:1020F0008093721E9093731E8091441E61E0682746
:10210000681B770B072E000C880B990B0E94E9497E
:102110004B015C016D817E81072E000C880B990BB1
:102120000E94E9499B01AC01C501B4010E94484AE3
:10213000A70196010E94614C2091641E3091651E9A
:102140004091661E5091671E0E94824B6093741EE0
:102150007093751E8093761E9093771E6F8178859D
:10216000072E000C880B990B0E94E94920E030EF04
:1021700041E456E40E94834B20E030E04AEA53E415
:102180000E94614C6093681E7093691E80936A1E62
:1021900090936B1EC090481ED090491EE0904A1E3E
:1021A000F0904B1E69857A85072E000C880B990BE1
:1021B0000E94E949A70196010E94614C2091501E9E
:1021C0003091511E4091521E5091531E0E94824BDD
:1021D0006093781E7093791E80937A1E90937B1E75
:1021E0006B857C85072E000C880B990B0E94E949B2
:1021F000A70196010E94614C2091541E3091551EFA
:102200004091561E5091571E0E94824B60937C1E37
:1022100070937D1E80937E1E90937F1E6D857E85BC
:10222000072E000C880B990B0E94E949A701960123
:102230000E94614C2091581E3091591E40915A1EA7
:1022400050915B1E0E94824B6093801E7093811E92
:102250008093821E9093831E2E960FB6F894DEBF55
:102260000FBECDBFDF91CF911F910F91FF90EF90E7
:10227000DF90CF90BF90AF909F908F907F906F90A6
:102280005F904F90089585EE84CE8091731D90915C
:10229000741DA091751DB091761D892B8A2B8B2BF7
:1022A00009F47DCE0E9493030091731D1091741D5B
:1022B0002091751D3091761D681979098A099B094D
:1022C000061717072807390708F069CEA0CE8EE059
:1022D00072CE7F928F929F92AF92BF92CF92DF92F7
:1022E000EF92FF920F931F93CF93DF93EC01062F92
:1022F000142F188A19AE1AAE0E94D708882309F441
:1023000057C0602F660F6160CE010E94280A8111BC
:102310004BC0188A7E01A12EB12CD12CC12C4501B5
:1023200081E0881A9108CA14DB0459F100E088E0C2
:10233000782EC814D904DCF4000FCE010E943809AD
:10234000082B7A947110F8CF60E0CE010E94A809A2
:1023500089899A89009711F00E948803F701018FFB
:10236000FFEFCF1ADF0A8FEFE81AF80ADCCF000F71
:10237000CE010E943809082B7A947110F8CF61E0E1
:10238000E4CF19AFCE010E945508812FDF91CF9184
:102390001F910F91FF90EF90DF90CF90BF90AF9083
:1023A0009F908F907F90089582E0888B10E0EACF15
:1023B00084E0FBCFFF920F931F93CF93DF93EC0149
:1023C000F62E8C01095F1F4F69E2C8010E94520A74
:1023D0006F2D6068C8010E943E0AC8010E9455081E
:1023E00042E069E2C8010E946911FE01E05CFF4F12
:1023F0008081319690812FEF3FEF981740F4DE01F6
:10240000A90FB11D90962C9130E09F5F9083908131
:102410004FEF5FEF981728F4C90FD11D48A19F5FB8
:10242000908380E0942F822B932BDF91CF911F918B
:102430000F91FF9008950F931F93CF93DF93162F63
:10244000022FEC01279669E2CE010E94520A612F09
:102450006068CE010E943E0A602FCE010E943E0AB3
:10246000CE01DF91CF911F910F910C945508FC0183
:1024700001900020E9F73197AF01481B590BBC01CF
:102480008BE99DE10C943C0481E592E00C943712B9
:102490008F929F92AF92BF920F931F93CF93DF9330
:1024A000CDB7DEB7A1970FB6F894DEBF0FBECDBF94
:1024B00019A2423008F44AE08E010F5D1F4F842EAE
:1024C000912CB12CA12CA50194010E94514BE62F17
:1024D000B901CA01EA30F4F4E05DD801EE938D0150
:1024E000232B242B252B79F790E080E0109719F00F
:1024F000CD010E943712A1960FB6F894DEBF0FBE31
:10250000CDBFDF91CF911F910F91BF90AF909F9062
:102510008F900895E95CE1CFCF92DF92EF92FF9226
:10252000CF93DF936B017C016DE28BE99DE10E940B
:102530009205EC0166277727CB016C197D098E097E
:102540009F094AE00E9448128C0F9D1FDF91CF9196
:10255000FF90EF90DF90CF900895BC01990F880B0A
:10256000990B97FD0C948C124AE00C944812CF936F
:10257000DF930E94AD12EC010E9444128C0F9D1F4C
:10258000DF91CF910895BC0190E080E04AE00C9487
:102590004812CF93DF930E94C312EC010E944412B1
:1025A0008C0F9D1FDF91CF910895BF92CF92DF9244
:1025B000EF92FF920F931F93CF93DF93EC016C0187
:1025C00087E0C80ED11C7E01E0E4EE0EF11CF7019D
:1025D00010828E010F5B1F4FF8011082E989FA8982
:1025E00090818A858095892380838A8D882331F024
:1025F000ED85FE8580819A85892B8083888D998DD4
:10260000009711F00E948803EF85F88990818985F1
:102610008095892380838A8D882331F0EB85FC8522
:1026200080819985892B808384E0B82E888D998D4F
:10263000009711F00E948803BA94B110F7CF8A8DE9
:10264000882331F062E070E080E090E00E94B803FF
:1026500069E2C6010E94520A62E9C6010E943E0A6E
:10266000C6010E94550841E069E2C6010E94691155
:10267000F8012081F7018081281708F053C0FE017E
:10268000E20FF11D80A12F5FF8012083182F682F22
:1026900070E090E080E040E10E9448120E94441205
:1026A00080E01434A9F581E088830B811C819801B6
:1026B00050E040E061E0CE010E941B121C830B83BE
:1026C00009811A818881811103C0CE010E94D5122F
:1026D000980150E040E06FE0CE010E941B121A8387
:1026E000098321E030E040E050E060E0CE010E944C
:1026F0001B1263E070E080E090E00E94B80323E0EA
:1027000030E040E050E060E0CE010E941B1281E02A
:10271000DF91CF911F910F91FF90EF90DF90CF90BD
:10272000BF9008958FEF9FEFB1CFAF92BF92CF923E
:10273000DF92EF92FF920F931F93CF93DF93EC0101
:102740005B016A0179018881811103C0CE010E9479
:10275000D51264E1CE010E94DA11F80191838083E1
:1027600066E1CE010E94DA11F5019183808368E170
:10277000CE010E94DA11F601918380836AE1CE01D5
:102780000E94DA11F701918380838B819C81853DC2
:102790009105A1F180F40097D9F1803C910599F160
:1027A000DF91CF911F910F91FF90EF90DF90CF902D
:1027B000BF90AF900895863F9105D9F08F3F910566
:1027C00041F08B3E910561F762E370E080E090E0BC
:1027D00004C063E070E080E090E0DF91CF911F9152
:1027E0000F91FF90EF90DF90CF90BF90AF900C943F
:1027F000B80368E170E080E090E0EFCF65E670E05C
:1028000080E090E0EACF6AE970E080E090E0E5CF18
:102810006CEB72E080E090E0E0CFCF93DF930E941A
:102820003712EC010E9444128C0F9D1FDF91CF9153
:10283000089584E592E00E940D148EE792E00E94D4
:102840000D1486E992E00E940D148EEA92E00E9437
:102850000D1481EC92E00E940D1484ED92E00E9430
:102860000D1485EE92E00E940D1486EF92E00E9416
:102870000D1482E193E00E940D1480E393E00E9426
:102880000D148EE292E10C940D148BE393E00E9400
:102890000D148EE792E00E940D1482E693E00E94F0
:1028A0000D1487E793E00E940D1487E893E00E94DF
:1028B0000D1487E993E00E940D1485EA93E00E94CD
:1028C0000D1483EB93E00E940D148CEC93E00E94B6
:1028D0000D1480E393E00E940D148EE292E10C94BB
:1028E0000D148EEE93E00E940D1489E094E00E9496
:1028F0000D148FE194E00E940D1488E394E00E948F
:102900000D148EE494E00E940D148EE292E10C947A
:102910000D1489E594E00E940D148EE792E00E9468
:102920000D1489E694E00E940D1486E794E00E945D
:102930000D1489E894E00E940D148FE994E00E9440
:102940000D1482EB94E00E940D148CEC94E00E9434
:102950000D1485EE94E00E940D1481E095E00E9434
:102960000D148EE195E00E940D148EE292E10C941C
:102970000D140C9437129F92AF92BF92CF92DF92B8
:10298000EF92FF920F931F93CF93DF930DEE1CE115
:102990002FEE3CE141EF5CE163EF7CE181EF9EE1F2
:1029A0000E9495134091EF1C5091F01C6091F11C16
:1029B0007091F21C8091F31C9091F41C0E944702CC
:1029C0009093EC1C8093EB1C03EE1CE125EE3CE1A4
:1029D00047EE5CE169EE7CE18FEA9EE10E9495138F
:1029E0004091E51C5091E61C6091E71C7091E81C39
:1029F0008091E91C9091EA1C0E9447028C019093FF
:102A0000E21C8093E11CC090ED1CD090EE1CE09085
:102A1000E31CF090E41CA090EB1CB090EC1C8091A7
:102A2000070290910802C816D906B4F02091090255
:102A300030910A022C153D057CF020910B0230915B
:102A40000C02A216B30644F0C1E020910D023091B1
:102A50000E022A153B050CF4C0E0E816F906C4F096
:102A60008091090290910A028E159F058CF0809149
:102A70000B0290910C020817190754F080910D0277
:102A800090910E02DC2F992493948017910714F4EF
:102A9000912CD0E087E295E00E94B9148C2F90E051
:102AA0000E94B71287E395E00E94B914892D90E047
:102AB0000E94B71288E495E00E94B9148D2F90E02F
:102AC0000E94B71286E595E00E94B914C6010E94E3
:102AD000AD128CE595E00E94B914C7010E94B712AF
:102AE0008BE994E10E94B9148091EB1C9091EC1C4D
:102AF0000E94C31285E695E00E94B9148091E11C02
:102B00009091E21C0E94C9128FE695E00E94B914D0
:102B10008091F31C9091F41C0E94C31284E795E00D
:102B20000E94B9148091E91C9091EA1C0E94C9127C
:102B300080EB94E10E94B9148091F11C9091F21CF9
:102B40000E94C3128CE795E00E94B9148091E71CA3
:102B50009091E81C0E94C91284E895E00E94B91483
:102B60008091EF1C9091F01C0E94C31289E895E0BF
:102B70000E94B9148091E51C9091E61C0E94C91234
:102B800085EA94E10E94B9148091ED1C9091EE1CAD
:102B90000E94C31281E995E00E94B9148091E31C60
:102BA0009091E41C0E94C91289E995E00E94B91431
:102BB0008091070290910802C816D90644F081E07E
:102BC0002091090230910A022C153D050CF480E099
:102BD00090E00E94B71284EC95E00E94B9148091B5
:102BE000070290910802E816F90644F081E020916E
:102BF000090230910A022E153F050CF480E090E0A6
:102C00000E94B7128FEE95E00E94B91480910B02DA
:102C100090910C02A816B90644F081E020910D02B3
:102C200030910E022A153B050CF480E090E00E94E2
:102C3000B7128CE196E00E94B91480910B0290913A
:102C40000C020817190744F081E020910D02309121
:102C50000E02201731070CF480E090E0DF91CF9155
:102C60001F910F91FF90EF90DF90CF90BF90AF90AA
:102C70009F900C94B7125F926F927F928F929F9267
:102C8000AF92BF92CF92DF92EF92FF920F931F937A
:102C9000CF93DF930DEE1CE12FEE3CE141EF5CE1C1
:102CA00063EF7CE181EF9EE10E9495134091EF1C60
:102CB0005091F01C6091F11C7091F21C8091F31CFA
:102CC0009091F41C0E9447029093EC1C8093EB1CA3
:102CD00003EE1CE125EE3CE147EE5CE169EE7CE1B0
:102CE0008FEA9EE10E9495136090E51C7090E61CAF
:102CF0008090E71C9090E81CC091E91CD091EA1CE0
:102D0000A301B401CE010E9447028C019093E21C02
:102D10008093E11CC090ED1CD090EE1CE090E31C71
:102D2000F090E41CA090EB1CB090EC1C8091F31C84
:102D30009091F41C2091F11C3091F21C2817390756
:102D400070F54091EF1C5091F01C4817590738F569
:102D5000821B930B20910F02309110022817390724
:102D6000F0F48091110290911202C816D906BCF0BD
:102D700080911302909114028C159D0584F080912E
:102D8000150290911602A816B9064CF055245394DA
:102D900080911702909118028A159B050CF4512C12
:102DA0008C169D0650F56C167D0638F5C819D909A4
:102DB00080910F02909110028C179D07F0F4809182
:102DC000110290911202E816F906BCF080911302EC
:102DD000909114028E159F0584F0809115029091B8
:102DE0001602081719074CF08091170290911802EB
:102DF000C52DD1E08017910714F4D0E0C0E089E43C
:102E000096E00E94B914852D90E00E94B7128CE5DF
:102E100096E00E94B9148D2F90E00E94B71280E7CF
:102E200096E00E94B9148C2F90E00E94B71286E5BC
:102E300095E00E94B914C6010E94AD128CE595E0A0
:102E40000E94B914C7010E94B7128BE994E10E9455
:102E5000B9148091EB1C9091EC1C0E94C31285E682
:102E600095E00E94B9148091E11C9091E21C0E94AF
:102E7000C9128FE695E00E94B9148091F31C9091DD
:102E8000F41C0E94C31284E795E00E94B91480915B
:102E9000E91C9091EA1C0E94C91280EB94E10E9407
:102EA000B9148091F11C9091F21C0E94C3128CE71E
:102EB00095E00E94B9148091E71C9091E81C0E9453
:102EC000C91284E895E00E94B9148091EF1C90919A
:102ED000F01C0E94C31289E895E00E94B914809109
:102EE000E51C9091E61C0E94C91285EA94E10E94BB
:102EF000B9148091ED1C9091EE1C0E94C31281E9DF
:102F000095E00E94B9148091E31C9091E41C0E940A
:102F1000C91281E896E00E94B91480911102909143
:102F20001202C816D90644F081E0209113023091B4
:102F300014022C153D050CF480E090E00E94B712BD
:102F40008EEA96E00E94B9148091110290911202CB
:102F5000E816F90644F081E0209113023091140242
:102F60002E153F050CF480E090E00E94B7128BED27
:102F700096E00E94B9148091150290911602A8164D
:102F8000B90644F081E020911702309118022A1509
:102F90003B050CF480E090E00E94B7128EE097E0D1
:102FA0000E94B91480911502909116020817190712
:102FB00044F081E020911702309118022017310768
:102FC0000CF480E090E00E94B71281E497E00E9448
:102FD000B9142091F31C3091F41C8091F11C909154
:102FE000F21C8217930740F481E04091EF1C50914E
:102FF000F01C4217530708F080E090E00E94B712DF
:1030000086E597E00E94B9142091F31C3091F41CDE
:103010008091F11C9091F21C281B390B81E090E00B
:1030200040910F02509110024217530710F090E0A8
:1030300080E00E94B7128CE797E00E94B9142091BB
:10304000E91C3091EA1C8091E71C9091E81C8217E2
:10305000930740F481E04091E51C5091E61C421733
:10306000530708F080E090E00E94B71281E997E0F2
:103070000E94B9142091E91C3091EA1C8091E71C50
:103080009091E81C281B390B81E090E040910F02E1
:10309000509110024217530710F090E080E0DF914A
:1030A000CF911F910F91FF90EF90DF90CF90BF9045
:1030B000AF909F908F907F906F905F900C94B7121D
:1030C0005F926F927F928F929F92AF92BF92CF92B8
:1030D000DF92EF92FF920F931F93CF93DF930DEE4A
:1030E0001CE12FEE3CE141EF5CE163EF7CE181EF1D
:1030F0009EE10E9495134091EF1C5091F01C60914D
:10310000F11C7091F21C8091F31C9091F41C0E94B0
:1031100047029093EC1C8093EB1C03EE1CE125EE20
:103120003CE147EE5CE169EE7CE18FEA9EE10E94C2
:1031300095136090E51C7090E61CE090E71CF09001
:10314000E81C8090E91C9090EA1CA301B701C4011F
:103150000E9447026C019093E21C8093E11C009155
:10316000ED1C1091EE1CC091E31CD091E41CA090CA
:10317000EB1CB090EC1C8091F11C9091F21C209102
:10318000F31C3091F41C2817390770F54091EF1C9F
:103190005091F01C4817590738F5821B930B20916A
:1031A000F71C3091F81C28173907F0F48091FB1CAC
:1031B0009091FC1C08171907BCF08091FF1C90919E
:1031C000001D8017910784F08091031D9091041DCC
:1031D000A816B9064CF0552453948091071D909180
:1031E000081D8A159B050CF4512C8E149F0450F574
:1031F0006E147F0438F5E818F9088091F51C909159
:10320000F61C8E159F05F0F48091F91C9091FA1C24
:10321000C817D907BCF08091FD1C9091FE1C8C173B
:103220009D0784F08091011D9091021DC816D9065A
:103230004CF0FF24F3948091051D9091061D8C1590
:103240009D050CF4F12C48018C1A9D0A97FE03C0D1
:1032500091948194910824E6821691041CF4EF2C39
:10326000511001C0E12C87EB97E00E94B914852D25
:1032700090E00E94B71287EC97E00E94B9148F2D5E
:1032800090E00E94B71288ED97E00E94B9148E2D4D
:1032900090E00E94B71286E595E00E94B914C8013B
:1032A0000E94AD128CE595E00E94B914CE010E94F7
:1032B000B7128BE994E10E94B9148091EB1C9091B4
:1032C000EC1C0E94C31285E695E00E94B91480911F
:1032D000E11C9091E21C0E94C9128FE695E00E94C9
:1032E000B9148091F31C9091F41C0E94C31284E7DE
:1032F00095E00E94B9148091E91C9091EA1C0E940B
:10330000C91280EB94E10E94B9148091F11C909154
:10331000F21C0E94C3128CE795E00E94B9148091C0
:10332000E71C9091E81C0E94C91284E895E00E9475
:10333000B9148091EF1C9091F01C0E94C31289E88F
:1033400095E00E94B9148091E51C9091E61C0E94C2
:10335000C91285EA94E10E94B9148091ED1C909104
:10336000EE1C0E94C31281E995E00E94B91480917D
:10337000E31C9091E41C0E94C9128BE994E10E9425
:10338000B9148091EB1C9091EC1C0E94C31285E64D
:1033900095E00E94B9148091E11C9091E21C0E947A
:1033A000C91286EE97E00E94B9148091FB1C90919F
:1033B000FC1C0817190744F081E02091FF1C309194
:1033C000001D201731070CF480E090E00E94B71236
:1033D00083E198E00E94B9148091F91C9091FA1C45
:1033E000C817D90744F081E02091FD1C3091FE1CE4
:1033F0002C173D070CF480E090E00E94B71280E4A7
:1034000098E00E94B9148091031D9091041DA816A4
:10341000B90644F081E02091071D3091081D2A155E
:103420003B050CF480E090E00E94B71283E798E03F
:103430000E94B9148091011D9091021DC816D906F1
:1034400044F081E02091051D3091061D2C153D05AD
:103450000CF480E090E00E94B71286EA98E00E94A7
:10346000B9142091F11C3091F21C8091F31C9091C1
:10347000F41C8217930740F481E04091EF1C5091B7
:10348000F01C4217530708F080E090E00E94B7124A
:103490008BEB98E00E94B9142091F11C3091F21C42
:1034A0008091F31C9091F41C281B390B81E090E073
:1034B0004091F71C5091F81C4217530710F090E010
:1034C00080E00E94B7128CED98E00E94B914209120
:1034D000E71C3091E81C8091E91C9091EA1C82174E
:1034E000930740F481E04091E51C5091E61C42179F
:1034F000530708F080E090E00E94B71281EF98E057
:103500000E94B9142091E71C3091E81C8091E91CBD
:103510009091EA1C281B390B81E090E04091F51C4A
:103520005091F61C4217530710F090E080E00E9483
:10353000B71282E199E00E94B91481E090E024E69C
:103540008216910414F090E080E0DF91CF911F91FA
:103550000F91FF90EF90DF90CF90BF90AF909F9032
:103560008F907F906F905F900C94B7120F931F9382
:103570000DEE1CE12FEE3CE141EF5CE163EF7CE1FD
:1035800081EF9EE10E9495134091EF1C5091F01C39
:103590006091F11C7091F21C8091F31C9091F41CCD
:1035A0000E9447029093EC1C8093EB1C03EE1CE1FD
:1035B00025EE3CE147EE5CE169EE7CE18FEA9EE1BD
:1035C0000E9495134091E51C5091E61C6091E71C08
:1035D0007091E81C8091E91C9091EA1C0E944702BE
:1035E0009093E21C8093E11C8AE399E00E940D1401
:1035F0008BE093E10E94B9148091EB1C9091EC1C3C
:103600000E94C3128EE499E00E94B9148CEB9CE0F6
:103610000E94B9148091F31C9091F41C0E94C31273
:1036200080E599E00E94B9148DEF99E00E94B914E9
:103630008091F11C9091F21C0E94C31280E599E0E8
:103640000E94B91482E09AE00E94B9148091EF1CA4
:103650009091F01C0E94C31280E599E00E94B91479
:1036600084E193E10E94B9148091ED1C9091EE1CCD
:103670000E94C31280E599E00E94B91480E599E0A8
:103680000E940D1482E599E00E940D148BE093E1F5
:103690000E94B9148091E11C9091E21C0E94C31217
:1036A0008EE499E00E94B9148CEB9CE00E94B9145E
:1036B0008091E91C9091EA1C0E94C31280E599E078
:1036C0000E94B9148DEF99E00E94B9148091E71C13
:1036D0009091E81C0E94C31280E599E00E94B91401
:1036E00082E09AE00E94B9148091E51C9091E61C5A
:1036F0000E94C31280E599E00E94B91484E193E12D
:103700000E94B9148091E31C9091E41C0E94C312A2
:1037100080E599E00E94B91480E599E00E940D14BB
:1037200087E699E00E940D1481E899E00E94B9149F
:103730008091E71C9091E81C2091E91C3091EA1CD3
:10374000821B930B0E94C9128AE899E00E94B91467
:103750008091E71C9091E81C2091E51C3091E61CBB
:10376000821B930B0E94C91283E999E00E940D14F9
:1037700081E899E00E94B9148091F11C9091F21CAB
:103780002091F31C3091F41C821B930B0E94C912F0
:103790008AE899E00E94B9148091F11C9091F21C82
:1037A0002091EF1C3091F01C821B930B0E94C912D8
:1037B0006AEF70E080E090E00E94B8031F910F91E3
:1037C00008954F925F926F927F928F929F92AF92E5
:1037D000BF92CF92DF92EF92FF920F931F93CF93FE
:1037E0006B017C01742EAC019B010E94D74D882394
:1037F00099F08CEA99E0CF911F910F91FF90EF9093
:10380000DF90CF90BF90AF909F908F907F906F9000
:103810005F904F900C94371246015701E894B7F827
:103820002FEF3FEF4FE75FE7C501B4010E94D74D8F
:1038300081110DC02FEF3FEF4FE75FE7C501B401E6
:103840000E94E24918161CF480EB99E0D4CF2FEFC8
:103850003FEF4FE75FE4C701B6010E94304D1816F5
:103860001CF484EB99E0C7CF2FEF3FEF4FE75FECFD
:10387000C701B6010E94E24987FDF3CF20E030E0A6
:10388000A901C701B6010E94E24910E000E087FFEC
:103890000AC06DE28BE99DE10E9492058C01F7FA66
:1038A000F094F7F8F094C0E060E070E080E09FE30F
:1038B0007C1641F020E030E040E251E40E94614C8F
:1038C000CF5FF6CFA70196010E94834B2B013C01ED
:1038D0000E94DA4C4B015C014AE00E9448127C01D4
:1038E000E00EF11ECC23A9F1C501B4010E94E74905
:1038F0009B01AC01C301B2010E94824B4B015C01F0
:103900006EE28BE99DE10E949205E80EF91EC1501E
:1039100000F120E030E040E251E4C501B4010E9432
:10392000484A2B013C010E94DA4C4B01CB010E941A
:10393000C312E80EF91EB40190E080E00E94E7494E
:103940009B01AC01C301B2010E94824B4B015C019F
:10395000DECFC701CF911F910F91FF90EF90DF90C5
:10396000CF90BF90AF909F908F907F906F905F901F
:103970004F9008954F925F926F927F928F929F9295
:10398000AF92BF92CF92DF92EF92FF920F931F936D
:10399000CF93DF93CDB7DEB72C970FB6F894DEBF89
:1039A0000FBECDBF0E94440FC090741ED090751EF4
:1039B000E090761EF090771E21E030E03A83298374
:1039C00020E030E0A901C701B6010E94304D87FF19
:1039D00002C01A82198201E010E020E030E0A90163
:1039E000C701B6010E94E24987FD02C010E000E075
:1039F00069817A81601B710B072E000C880B990B73
:103A00000E94E9496D837E838F839887A701960181
:103A1000C701B6010E94484A2B013C01C0906C1EB0
:103A2000D0906D1EE0906E1EF0906F1EA701960163
:103A3000C701B6010E94484AA30192010E94834B2C
:103A40000E94934D9B01AC018090701E9090711E5E
:103A5000A090721EB090731E6D817E818F819885BB
:103A60000E94484A9B01AC01C501B4010E94024C6E
:103A700021EE3EE245E652E40E94484A6093841EED
:103A80007093851E8093861E9093871EA5019401D6
:103A9000C501B4010E94484AA30192010E94834BD0
:103AA0000E94934D9B01AC01C701B6010E94024CDC
:103AB000905821EE3EE245E652E40E94484A609367
:103AC000881E7093891E80938A1E90938B1E0E947D
:103AD000EB036B017C018091981E9091991EA0913F
:103AE0009A1EB0919B1EA7019601281B390B4A0B09
:103AF0005B0BCA01B9010E94E7492FE632E143E8B6
:103B00005AE30E94484A4B015C01C092981ED09231
:103B1000991EE0929A1EF0929B1E80919C1E90919D
:103B20009D1EA0919E1EB0919F1E89839A83AB8398
:103B3000BC834090841E5090851E6090861E7090BD
:103B4000871E2091781E3091791E40917A1E5091E7
:103B50007B1EC501B4010E94484A20918C1E309101
:103B60008D1E40918E1E50918F1E0E94834BA3018B
:103B700092010E94824B6B017C0120E030E044E323
:103B800053E40E94304D18163CF420E030E044EB42
:103B900053E4C701B601EDCF20E030E044E353EC3D
:103BA000C701B6010E94E24987FF0BC020E030E068
:103BB00044EB53E4C701B6010E94834B6B017C01C7
:103BC000EBCF29813A814B815C8160E070E080E835
:103BD0009FE30E94824B69877A878B879C87A70126
:103BE0009601C301B2010E94834B29813A814B8126
:103BF0005C810E94484A6B017C0129853A854B858E
:103C00005C85C301B2010E94484A9B01AC01C70117
:103C1000B6010E94834B6B017C0120E030E044E35D
:103C200053E40E94304D18164CF420E030E044EB91
:103C300053E4C701B6010E94824BEDCF20E030E093
:103C400044E353ECC701B6010E94E24987FF0BC071
:103C500020E030E044EB53E4C701B6010E94834BFF
:103C60006B017C01EBCFC0928C1ED0928D1EE09236
:103C70008E1EF0928F1E4090881E5090891E60907C
:103C80008A1E70908B1E20917C1E30917D1E40916B
:103C90007E1E50917F1E6D817E818F8198850E944E
:103CA000484AA50194010E94484A2091901E3091F3
:103CB000911E4091921E5091931E0E94834BA3012E
:103CC00092010E94824B6B017C0120E030E044EBCA
:103CD00052E40E94304D18163CF420E030E044E3FA
:103CE00053E4C701B601EDCF20E030E044EB52ECE5
:103CF000C701B6010E94E24987FF0BC020E030E017
:103D000044E353E4C701B6010E94834B6B017C017D
:103D1000EBCFA7019601C301B2010E94834B298119
:103D20003A814B815C810E94484A6B017C01A3016E
:103D3000920169857A858B859C850E94484A9B0102
:103D4000AC01C701B6010E94834B6B017C0120E0EE
:103D500030E044EB52E40E94304D18164CF420E061
:103D600030E044E353E4C701B6010E94824BEDCF3B
:103D700020E030E044EB52ECC701B6010E94E2497A
:103D800087FF0BC020E030E044E353E4C701B601F5
:103D90000E94834B6B017C01EBCFC092901ED092AE
:103DA000911EE092921EF092931E2091801E3091FF
:103DB000811E4091821E5091831EC501B4010E9454
:103DC000484A2091941E3091951E4091961E509124
:103DD000971E0E94834B6093941E7093951E809350
:103DE000961E9093971E2C960FB6F894DEBF0FBECA
:103DF000CDBFDF91CF911F910F91FF90EF90DF909A
:103E0000CF90BF90AF909F908F907F906F905F907A
:103E10004F9008950E94BA1C6091901E7091911E5F
:103E20008091921E9091931E0E94D34CCB010895D5
:103E3000CF92DF92EF92FF920E94BA1CC090941E24
:103E4000D090951EE090961EF090971E20E030E0F6
:103E5000A901C701B6010E94304D20E030E040E0EA
:103E60005FE387FD0CC0C701B6010E94834B0E942F
:103E7000D34CCB01FF90EF90DF90CF900895C70116
:103E8000B6010E94824BF3CF0E94181F90931A1D17
:103E90008093191D2091171D3091181DA9014150C3
:103EA00051098417950764F462E870E08CEA9EE19A
:103EB0000E941D0B60E570E089EA9EE10C941D0BE9
:103EC000A9014F5F5F4F481759074CF464E670E053
:103ED0008CEA9EE10E941D0B62E370E0EDCF281B8F
:103EE000390B37FF03C03195219531092230310557
:103EF0004CF464EB70E08CEA9EE10E941D0B70E0D4
:103F000060E0DACF0895CF92DF92EF92FF920F93A5
:103F10001F93CF93DF9381EF99E00E940D1466E425
:103F200070E08CEA9EE10E941D0B62E870E089EA75
:103F30009EE10E941D0B60E070E0CB010E94B8037F
:103F40006AE570E08CEA9EE10E941D0B6AE570E074
:103F500089EA9EE10E941D0B0DEE1CE12FEE3CE173
:103F600041EF5CE163EF7CE181EF9EE10E949513FC
:103F700003EE1CE125EE3CE147EE5CE169EE7CE1FD
:103F80008FEA9EE10E9495134091EF1C5091F01C26
:103F90006091F11C7091F21C8091F31C9091F41CC3
:103FA0000E9447026C019093EC1C8093EB1C4091A3
:103FB000E51C5091E61C6091E71C7091E81C809113
:103FC000E91C9091EA1C0E9447028C019093E21C2C
:103FD0008093E11CC091ED1CD091EE1CE090E31C9D
:103FE000F090E41C8CE99CE00E94B9148091F31CD1
:103FF0009091F41C0E94C3128CEF99E00E94B914B6
:104000008091F11C9091F21C0E94C31281E09AE011
:104010000E94B9148091EF1C9091F01C0E94C31271
:1040200083E193E10E94B914CE010E94AD128AE0AF
:1040300093E10E94B914C6010E94B71281EB9CE083
:104040000E94B9148091E91C9091EA1C0E94C3124D
:104050008CEF99E00E94B9148091E71C9091E81CC4
:104060000E94C31281E09AE00E94B9148091E51C7D
:104070009091E61C0E94C31283E193E10E94B9145F
:10408000C7010E94AD128AE093E10E94B914C801F1
:104090000E94B71286E09AE00E94B9148091FB1C3E
:1040A0009091FC1C0E94AD128DE19AE00E94B9141F
:1040B0008091FF1C9091001D0E94AD1284E29AE055
:1040C0000E94B9148091031D9091041D0E94AD12AD
:1040D0008DE29AE00E94B9148091071D9091081D0D
:1040E0000E94AD1286E39AE00E94B9148091F71CF9
:1040F0009091F81C0E94B7128FE39AE00E94B914C5
:104100008091F91C9091FA1C0E94AD128DE19AE009
:104110000E94B9148091FD1C9091FE1C0E94AD126A
:1041200084E29AE00E94B9148091011D9091021DD1
:104130000E94AD128DE29AE00E94B9148091051D93
:104140009091061D0E94AD1286E39AE00E94B91478
:104150008091F51C9091F61C0E94B7128091F11C81
:104160009091F21C2091F31C3091F41C2817390710
:1041700068F54091EF1C5091F01C4817590730F535
:10418000821B930B2091F71C3091F81C28173907DC
:10419000E8F48091FB1C9091FC1CC817D907B4F07F
:1041A0008091FF1C9091001D8C179D077CF08091E1
:1041B000031D9091041DC816D90644F0D1E08091EA
:1041C000071D9091081D8C159D050CF4D0E0809181
:1041D000E71C9091E81C2091E91C3091EA1C2817FB
:1041E000390768F54091E51C5091E61C48175907BE
:1041F00030F5821B930B2091F51C3091F61C28178B
:104200003907E8F48091F91C9091FA1CE816F90638
:10421000B4F08091FD1C9091FE1C8E159F057CF0E2
:104220008091011D9091021D0817190744F0C1E00B
:104230008091051D9091061D801791070CF4C0E038
:1042400087E59AE00E94B9148D2F90E00E94B71282
:1042500086E69AE00E94B9148C2F90E00E94B71273
:10426000DD2309F484C0C11187C0C1E0D0E087ED2F
:104270009AE00E94B91486E79AE0C330D10561F054
:1042800080E89AE0C130D10539F08CE89AE0C2307C
:10429000D10511F089E99AE00E940D1484EA9AE0B0
:1042A0000E940D148FEC9AE00E94B914CE010E9476
:1042B000B71244E650E061E070E088EE93E00E94BF
:1042C000110D0E94BA1CC330D10509F088C08AEFD5
:1042D0009AE00E940D1483E19BE00E94B91487E2EA
:1042E0009BE00E94B9148091171D9091181D0E94A7
:1042F000AD128EEB9BE10E94B9140E94181F0E9420
:10430000B71269E170E08CEA9EE10E941D0B69E141
:1043100070E089EA9EE10E941D0B44E650E063E0F4
:1043200070E088EE93E00E94110DC091171DD091AE
:10433000181DCF5AD1090E94181FC817D90714F5A4
:104340000E94BA1C88E39BE00E94B9140E94181FC7
:104350000E94AD1285E69BE00E94B9148091171D62
:104360009091181D8F5A91090E94B712DECFCC236D
:1043700031F0C2E0D0E07BCFC3E0D0E078CFD0E036
:10438000C0E075CF6CE870E08CEA9EE10E941D0BE6
:1043900068E270E089EA9EE10E941D0B68EE73E01E
:1043A00080E090E00E94B8038091171D9091181D45
:1043B0008F5A91099093181D8093171D1092111D0B
:1043C0001092121D1092131D1092141DDF91CF91A7
:1043D0001F910F91FF90EF90DF90CF900895C13023
:1043E000D10509F05DC081E79BE00E940D146CE8E7
:1043F00070E08CEA9EE10E941D0B68E270E089EAA1
:104400009EE10E941D0B66E970E080E090E00E9452
:10441000B80368E270E08CEA9EE10E941D0B68E23E
:1044200070E089EA9EE10E941D0BC091171DD0919A
:10443000181DCA55D1090E94181FC817D907BCF406
:104440000E94BA1C87E89BE00E94B9140E94181FC2
:104450000E94AD1285E69BE00E94B9148091171D61
:104460009091181D8A5591090E94B712DECF6CE811
:1044700070E08CEA9EE10E941D0B68E270E089EA20
:104480009EE10E941D0B60ED77E080E090E00E94CD
:10449000B8038091171D9091181D8A5591098ACFF4
:1044A000229709F063C08DEB9BE00E940D146CE82D
:1044B00070E08CEA9EE10E941D0B68E270E089EAE0
:1044C0009EE10E941D0B66E970E080E090E00E9492
:1044D000B8030E94181F9093181D8093171D6CE855
:1044E00070E08CEA9EE10E941D0B6CE870E089EAA6
:1044F0009EE10E941D0BC091171DD091181DC65A38
:10450000DF4F0E94181F8C179D07BCF40E94BA1C35
:1045100084ED9BE00E94B9140E94181F0E94AD1206
:1045200085E69BE00E94B9148091171D9091181D9B
:10453000865A9F4F0E94B712DECF6CE870E08CEA7B
:104540009EE10E941D0B68E270E089EA9EE10E94F4
:104550001D0B60ED77E080E090E00E94B803809151
:10456000171D9091181D865A9F4F24CF8BE09CE019
:104570000E940D1468E270E089EA9EE10E941D0B22
:104580006CE870E08CEA9EE10E941D0B6EEE72E01A
:1045900080E090E0DF91CF911F910F91FF90EF901D
:1045A000DF90CF900C94B8030F931F93CF93DF93BA
:1045B000EC0188819981009759F02A813B81261767
:1045C000370730F081E0DF91CF911F910F9108956F
:1045D0008B016F5F7F4F0E942950009759F099839C
:1045E00088831B830A832C813D81232B59F7FC018F
:1045F0001082E8CF80E0E7CFCF92DF92EF92FF9278
:10460000CF93DF93CDB7DEB7E2970FB6F894DEBF56
:104610000FBECDBFDC01AE014D5C5F4FFE01319698
:104620009C91963308F0965320917B00892F8870D7
:10463000277F822B80937B0020911C0280E4289F9F
:10464000900111249770922B90937C0090917A00A6
:10465000906490937A0080917A0086FDFCCF8091DF
:10466000780090917900819391934E175F07C1F67E
:1046700028E130E0FE01319650E040E081E0421751
:10468000530784F4E080F180C280D380CE14DF042D
:104690002CF4D182C082F382E28280E04F5F5F4FD0
:1046A0003296EDCF811103C02150310919F71296CE
:1046B0008D919D910D90BC91A02D883324E092079F
:1046C000A105B10591F5A98DBA8D28E833E10E94C5
:1046D000FD4E2FEF33E040E050E00E941F4BCA0137
:1046E000B9010E94E94920E030E04AE754E40E9421
:1046F000614C2EE03DE24AE95FEB0E943D4D22EF26
:1047000032ED4DED51E40E94484A0E94D34CCB015A
:10471000E2960FB6F894DEBF0FBECDBFDF91CF910A
:10472000FF90EF90DF90CF900895863B2EE49207A4
:10473000A105B10509F5A98DBA8D28E833E10E94DC
:10474000FD4E2FEF33E040E050E00E941F4BCA01C6
:10475000B9010E94E94920E030E04AE754E40E94B0
:10476000614C21EE3AE744E95FEB0E943D4D2AEFB0
:104770003EE741E752E4C7CF8E3A21E09207A10518
:10478000B10509F5A98DBA8D28E833E10E94FD4EE7
:104790002FEF33E040E050E00E941F4BCA01B90107
:1047A0000E94E94920E030E04AE754E40E94614C6D
:1047B0002BE83CE647E85FEB0E943D4D2EEA37E4EC
:1047C00041E451E4A0CF84399848A140B10509F0F3
:1047D0009ECFA98DBA8D28E833E10E94FD4E2FEFC0
:1047E00033E040E050E00E941F4BCA01B9010E9433
:1047F000E9496B017C0120E030E04FEA54E40E947B
:10480000E24987FD27C020E030E44EE455E4C701CB
:10481000B6010E94304D1816ECF020E030EA4CE86A
:1048200054E4C701B6010E94824B20E030E04AE721
:1048300054E40E94614C20E030E849E053E40E94D7
:10484000614C9B01AC0160E070E080E89FE30E9456
:10485000614C5BCF70E060E05ACF8F929F92AF9235
:10486000BF92CF92DF92EF92FF920F931F93CF935D
:10487000DF930DEE1CE12FEE3CE141EF5CE163EFD5
:104880007CE181EF9EE10E9495134091EF1C5091D5
:10489000F01C6091F11C7091F21C8091F31C9091BE
:1048A000F41C0E9447029093EC1C8093EB1C03EED7
:1048B0001CE125EE3CE147EE5CE169EE7CE18FEA2C
:1048C0009EE10E9495134091E51C5091E61C609179
:1048D000E71C7091E81C8091E91C9091EA1C0E94F1
:1048E00047028C019093E21C8093E11CA090ED1C88
:1048F000B090EE1C8090E31C9090E41CC090EB1CE8
:10490000D090EC1C84E79CE00E940D1485E99CE0AB
:104910000E94B9148091F31C9091F41C0E94C31260
:104920008CEF99E00E94B9148091F11C9091F21CD7
:104930000E94C31281E09AE00E94B9148091EF1C9A
:104940009091F01C0E94C31283E193E10E94B9147C
:10495000C5010E94AD128AE093E10E94B914C6011C
:104960000E94B7128AEA9CE00E94B9148091E91C67
:104970009091EA1C0E94C3128CEF99E00E94B91436
:104980008091E71C9091E81C0E94C31281E09AE09C
:104990000E94B9148091E51C9091E61C0E94C312FC
:1049A00083E193E10E94B914C4010E94AD128AE030
:1049B00093E10E94B914C8010E94B71280EC9CE0F8
:1049C0000E94B91480911102909112020E94AD12BE
:1049D00087ED9CE00E94B91480911302909114021B
:1049E0000E94AD1286EE9CE00E94B91480911502DF
:1049F000909116020E94AD1287EF9CE00E94B914BC
:104A000080911702909118020E94AD1288E09DE0FB
:104A10000E94B91480910F02909110020E94B71267
:104A20008091F31C9091F41C2091F11C3091F21CA8
:104A30002817390770F54091EF1C5091F01C48176A
:104A4000590738F5821B930B20910F023091100209
:104A500028173907F0F48091110290911202A816DC
:104A6000B906BCF080911302909114028A159B053F
:104A700084F08091150290911602C816D9064CF068
:104A8000BB24B39480911702909118028C159D0558
:104A90000CF4B12C8091E91C9091EA1C2091E71C48
:104AA0003091E81C2817390770F54091E51C5091AA
:104AB000E61C4817590738F5821B930B20910F020B
:104AC0003091100228173907F0F48091110290916B
:104AD000120288169906BCF080911302909114027C
:104AE0008815990584F08091150290911602081797
:104AF00019074CF0DD24D39480911702909118028D
:104B0000801791070CF4D12C84E29DE00E94B91427
:104B10008B2D90E00E94B71286E39DE00E94B914AD
:104B20008D2D90E00E94B71289E49DE00E94B91497
:104B30008091F31C9091F41C2091F11C3091F21C97
:104B4000821B930B0E94C91283E59DE00E94B91459
:104B50008091E91C9091EA1C2091E71C3091E81C9F
:104B6000821B930B0E94C912B11002C0DD2099F084
:104B70008DE59DE00E940D146AE570E08CEA9EE1EF
:104B80000E941D0B6AE570E089EA9EE10E941D0B00
:104B900081E79DE0EFCF85E89DE00E940D140DEECA
:104BA0001CE12FEE3CE141EF5CE163EF7CE181EF42
:104BB0009EE10E9495134091EF1C5091F01C609172
:104BC000F11C7091F21C8091F31C9091F41C0E94D6
:104BD00047029093EC1C8093EB1C03EE1CE125EE46
:104BE0003CE147EE5CE169EE7CE18FEA9EE10E94E8
:104BF00095134091E51C5091E61C6091E71C709163
:104C0000E81C8091E91C9091EA1C0E944702909355
:104C1000E21C8093E11CE091ED1CF091EE1C2091D0
:104C2000E31C3091E41C6091EB1C7091EC1C4091F2
:104C3000070250910802E417F507ACF0A0910902B1
:104C4000B0910A02AE17BF0774F0E0910B02F09129
:104C50000C026E177F073CF0E0910D02F0910E02FE
:104C6000E617F707E4F4241735070CF4BBC54091A9
:104C7000090250910A02421753070CF4B3C5209160
:104C80000B0230910C02821793070CF4ABC52091F4
:104C90000D0230910E02281739070CF4A3C586E9DE
:104CA0009DE00E940D1487EA9DE00E940D146AE5C4
:104CB00070E08CEA9EE10E941D0B6AE570E089EAD3
:104CC0009EE10E941D0B48EC50E062E070E084EF32
:104CD00091E00E94110D8AE29BE00E94B91480913C
:104CE000171D9091181D0E94AD128EEB9BE10E9442
:104CF000B9140E94181F0E94B7120E94EB034B01C7
:104D00005C0120ED820E27E0921EA11CB11C0E94C6
:104D1000EB03681579058A059B0528F40E94441F5A
:104D20000E94BA1CF4CF6AE570E08CEA9EE10E9412
:104D30001D0B6AE570E089EA9EE10E941D0B83E38A
:104D40009FE10E947634082F89E39FE10E94763428
:104D5000182F8EE29EE00E94B914802F90E00E94EE
:104D6000B71287E19EE00E94B914812F90E00E9463
:104D7000B712002309F46DC0112379F089EB9DE08F
:104D80000E940D1481E090E00E9411347C0183E0C8
:104D900090E00E941134EC0109C08BEC9DE00E9470
:104DA0000D1481E090E00E9411347C0181E19EE0CD
:104DB0000E94B914CE010E94B71288E29EE00E94C0
:104DC000B914C7010E94B71280E49EE00E94B91492
:104DD00084E190E00E94B71285E1E816F1040CF03E
:104DE000D9C082E59EE00E940D1468E270E08CEA72
:104DF0009EE10E941D0B68E270E089EA9EE10E943C
:104E00001D0B0091171D1091181D0A5511090E94C4
:104E1000181F081719074CF50E94BA1C0E94F60CBF
:104E200090931E1D80931D1D8FE89BE00E94B91476
:104E30000E94181F0E94AD1285E69BE00E94B914E3
:104E40008091171D9091181D8A5591090E94B712E3
:104E5000D8CF112329F084EE9DE00E940D1497CF46
:104E60008EEF9DE00E940D14A1CF8091171D9091AF
:104E7000181D8A5591099093181D8093171D6CE891
:104E800070E089EA9EE10E941D0B68E270E08CEA06
:104E90009EE10E941D0B60ED77E080E090E00E94B3
:104EA000B8030E94181F9093181D8093171D8AE263
:104EB0009BE00E94B9148091171D9091181D0E94CB
:104EC000AD1268E270E089EA9EE10E941D0B6CE879
:104ED00070E08CEA9EE10E941D0B68EE73E080E0BA
:104EE00090E00E94B8036CE870E08CEA9EE10E94BA
:104EF0001D0B6CE870E089EA9EE10E941D0B009199
:104F0000171D1091181D065A1F4F0E94181F801759
:104F10009107ECF40E94BA1C0E94F60C90931E1D9F
:104F200080931D1D8CED9BE00E94B9140E94181FF8
:104F30000E94AD1285E69BE00E94B9148091171D76
:104F40009091181D865A9F4F0E94B712D8CF80911A
:104F5000171D9091181D865A9F4F9093181D80938E
:104F6000171D84E99EE00E940D140E94EB034B0183
:104F70005C0128E8820E23E1921EA11CB11C0E9454
:104F8000EB03681579058A059B0508F0BDC00E94F2
:104F9000441FF5CFC531D1050CF0B1C085E69EE0C8
:104FA0000E940D146CE870E08CEA9EE10E941D0BDB
:104FB0006CE870E089EA9EE10E941D0B0091171DCC
:104FC0001091181D065A1F4F0E94181F8017910735
:104FD000ECF40E94BA1C0E94F60C90931E1D809364
:104FE0001D1D8CED9BE00E94B9140E94181F0E94A9
:104FF000AD1285E69BE00E94B9148091171D909137
:10500000181D865A9F4F0E94B712D8CF8091171D46
:105010009091181D865A9F4F9093181D8093171DCD
:105020006CE870E089EA9EE10E941D0B68E270E086
:105030008CEA9EE10E941D0B60ED77E080E090E03D
:105040000E94B8030E94181F9093181D8093171D8B
:105050008AE29BE00E94B9148091171D9091181D5F
:105060000E94AD1268E270E089EA9EE10E941D0B89
:105070006CE870E08CEA9EE10E941D0B68EE73E024
:1050800080E090E00E94B80368E270E08CEA9EE164
:105090000E941D0B68E270E089EA9EE10E941D0BF0
:1050A0000091171D1091181D0A5511090E94181F13
:1050B00008171907ECF40E94BA1C0E94F60C909392
:1050C0001E1D80931D1D8FE89BE00E94B9140E9455
:1050D000181F0E94AD1285E69BE00E94B9148091D2
:1050E000171D9091181D8A5591090E94B712D8CFAB
:1050F0008091171D9091181D8A5591092ECF8AE72E
:105100009EE00E940D14FBCF85E1E816F1040CF03F
:105110006FC083E39FE10E94763481110EC0DF915E
:10512000CF911F910F91FF90EF90DF90CF90BF90A4
:10513000AF909F908F900C9411338EE99EE00E9467
:105140000D146AE570E089EA9EE10E941D0B6AE594
:1051500070E08CEA9EE10E941D0B89EA9EE00E94AD
:10516000B91482E090E00E9411340E94B71286ECDC
:105170009EE00E94B9148FE39FE10E94763490E094
:105180000E94B7128CEE9EE00E94B91482E090E07B
:105190000E94113421E030E04A9714F430E020E01E
:1051A000C9010E94B71282E090E00E9411344F972B
:1051B000BCF18FE39FE10E947634882389F188E077
:1051C0009FE00E940D140E94EB034B015C0120EA5A
:1051D000820E2FE0921EA11CB11C0E94EB036815E9
:1051E00079058A059B0508F067C00E94441FF5CF2A
:1051F000C531D1050CF0A5CF89E39FE10E9476343B
:1052000081119BCFDF91CF911F910F91FF90EF9074
:10521000DF90CF90BF90AF909F908F900C94913380
:105220008FE39FE10E94763481110CC083E29FE0FE
:105230000E940D1444EF51E061E070E088EE93E0CD
:105240000E94110D85E1E816F1040CF0AEC068E291
:1052500070E08CEA9EE10E941D0B68E270E089EA32
:105260009EE10E941D0B0091171D1091181D0A55FB
:1052700011090E94181F081719070CF047C00E9457
:10528000BA1C0E94F60C90931E1D80931D1D8FE882
:105290009BE00E94B9140E94181F0E94AD1285E67F
:1052A0009BE00E94B9148091171D9091181D8A559A
:1052B00091090E94B712D7CF85E1E816F104E4F412
:1052C00083E39FE10E947634882309F428CF0E946B
:1052D000EB034B015C0128E8820E23E1921EA11C26
:1052E000B11C0E94EB03681579058A059B0508F03F
:1052F000A9CF0E94C232F5CFC531D10544F789E369
:105300009FE10E9476348111E2CF7CCF8091171DFE
:105310009091181D8A5591099093181D8093171D1F
:1053200068E270E08CEA9EE10E941D0B6CE870E080
:1053300089EA9EE10E941D0B60ED77E080E090E03D
:105340000E94B8030E94181F9093181D8093171D88
:105350008AE29BE00E94B9148091171D9091181D5C
:105360000E94AD1268E270E089EA9EE10E941D0B86
:105370006CE870E08CEA9EE10E941D0B0E94EB033A
:105380004B015C0128E8820E23E1921EA11CB11C96
:105390000E94EB03681579058A059B0508F043C058
:1053A0000E94441F0E94BA1CF3CFC531D10534F7C7
:1053B0006CE870E08CEA9EE10E941D0B6CE870E0E6
:1053C00089EA9EE10E941D0B0091171D1091181D86
:1053D000065A1F4F0E94181F80179107ECF40E9475
:1053E000BA1C0E94F60C90931E1D80931D1D8CED1F
:1053F0009BE00E94B9140E94181F0E94AD1285E61E
:105400009BE00E94B9148091171D9091181D865A37
:105410009F4F0E94B712D8CF8091171D9091181DF1
:10542000865A9F4F79CF85E1E816F104CCF581E0EB
:1054300090E00E9411348E970CF071CE8FE39FE1C3
:105440000E947634811135C08EE29FE00E940D14D7
:105450000E94F60C90931E1D80931D1DE0911D1D52
:10546000F0911E1D80819181019789F08281938145
:10547000019769F084819581019749F08681978130
:10548000019729F080859185019709F0BBC10E94A1
:10549000F60C90931E1D80931D1D0E94441FDECFAD
:1054A000659764F683E090E00E9411348E9734F2A1
:1054B000A9CE81E49FE00E940D148BE00E94F502CA
:1054C000019719F40E94441FF8CF0E94181F90936F
:1054D000181D8093171D0E94EB036B017C012EEEBB
:1054E000C20E22E0D21EE11CF11C0E94EB036C15DF
:1054F0007D058E059F0518F40E94C232F6CF6AE53D
:1055000070E089EA9EE10E941D0B6AE570E08CEA7A
:105510009EE10E941D0B83E39FE10E947634D82F09
:1055200089E39FE10E947634C82F89E59FE00E94BD
:10553000B9148D2F90E00E94B71285E69FE00E947B
:10554000B9148C2F90E00E94B712DD2309F4BEC07D
:10555000CC2309F4C0C080E79FE00E940D1481E0D5
:1055600090E00E9411348C0183E090E00E9411349D
:10557000EC018BE89FE00E94B914C8010E94B712A9
:105580008CE99FE00E94B914CE010E94B712C017A7
:10559000D1070CF04FC08CEA9FE00E940D146CE81C
:1055A00070E08CEA9EE10E941D0B6CE870E089EAD5
:1055B0009EE10E941D0BC091171DD091181DC65A67
:1055C000DF4F0E94181F8C179D07ECF40E94BA1C35
:1055D0000E94F60C90931E1D80931D1D8CED9BE088
:1055E0000E94B9140E94181F0E94AD1285E69BE02C
:1055F0000E94B9148091171D9091181D865A9F4FD3
:105600000E94B712D8CF8091171D9091181D865A0D
:105610009F4F9093181D8093171D0E94EB038BE002
:105620000E94F502019709F05BC00E94441F0E948E
:10563000BA1CF5CF0C171D070CF03FC080EC9FE0A3
:105640000E940D1468E270E08CEA9EE10E941D0B3E
:1056500068E270E089EA9EE10E941D0BC091171D6F
:10566000D091181DCA55D1090E94181FC817D90713
:10567000ECF40E94BA1C0E94F60C90931E1D8093BD
:105680001D1D8FE89BE00E94B9140E94181F0E9404
:10569000AD1285E69BE00E94B9148091171D909190
:1056A000181D8A5591090E94B712D8CF8091171DF5
:1056B0009091181D8A559109ACCF44EF51E065E0F7
:1056C00070E088EE93E00E94110DA7CF8CEA9FE076
:1056D0000E940D1424CD80EC9FE00E940D1492CD09
:1056E0000E94EB036B017C012EEEC20E22E0D21E63
:1056F000E11CF11C0E94EB036C157D058E059F05D6
:1057000018F40E94C232F6CF6AE570E089EA9EE1A1
:105710000E941D0B6AE570E08CEA9EE10E941D0B61
:1057200083E090E00E94113489970CF46BC083ED04
:105730009FE00E940D1444EF51E061E070E088EEBC
:1057400093E00E94110D6CE870E08CEA9EE10E94EB
:105750001D0B6CE870E089EA9EE10E941D0B8DED47
:105760009FE00E94B914C091171DD091181DC65A10
:10577000DF4F0E94181F8C179D071CF40E94BA1C53
:10578000F2CF8091171D9091181D865A9F4F9093CC
:10579000181D8093171D0E94F60C90931E1D809378
:1057A0001D1DE0911D1DF0911E1D808191810197AD
:1057B00049F582819381019729F58481958101972B
:1057C00009F5868197810197E9F480859185019794
:1057D000C9F40E94F60C90931E1D80931D1D0E941B
:1057E000441FDFCF8BEF9FE0DF91CF911F910F918F
:1057F000FF90EF90DF90CF90BF90AF909F908F90F1
:105800000C940D14DF91CF911F910F91FF90EF90A9
:10581000DF90CF90BF90AF909F908F9008958F9220
:105820009F92AF92BF92CF92DF92EF92FF92CF936F
:10583000DF938FE39FE10E94FC22181619060CF4F7
:1058400099C160E570E089EA9EE10E941D0B64E663
:1058500070E08CEA9EE10E941D0B44E650E061E09E
:1058600070E084EF91E00E94110D6CE870E08CEA2A
:105870009EE10E941D0B6CE870E089EA9EE10E94A7
:105880001D0BC091171DD091181DC65ADF4F0E94E5
:10589000181F8C179D07BCF40E94BA1C8AE090E187
:1058A0000E94B9140E94181F0E94AD1285E69BE069
:1058B0000E94B9148091171D9091181D865A9F4F10
:1058C0000E94B712DECF64EB70E08CEA9EE10E948A
:1058D0001D0B70E060E089EA9EE10E941D0B809143
:1058E000171D9091181D865A9F4F9093181D8093F5
:1058F000171D0E94EB036B017C014B015C0128EB3F
:10590000820E2BE0921EA11CB11C0E94EB036C19AD
:105910007D098E099F09683B7B408105910528F52B
:1059200082E490E10E94B9140E94EB036C197D0996
:105930008E099F094AE00E9448120E94441289E69B
:1059400090E10E94B9140E94EB03A5019401261B6B
:10595000370B480B590BCA01B9014AE00E944812A3
:105960000E9444120E94441FD0CF8AE790E10E9417
:105970000D1468E270E08CEA9EE10E941D0B68E263
:1059800070E089EA9EE10E941D0BC091171DD09125
:10599000181DCA55D1090E94181FC817D907BCF491
:1059A0000E94BA1C81E990E10E94B9140E94181F5C
:1059B0000E94AD1285E69BE00E94B9148091171DEC
:1059C0009091181D8A5591090E94B712DECF64EBA1
:1059D00070E08CEA9EE10E941D0B70E060E089EAB5
:1059E0009EE10E941D0B8091171D9091181D8A55F4
:1059F00091099093181D8093171D0E94EB036B0172
:105A00007C010E94EB036C197D098E099F096835A2
:105A10007B418105910518F40E94441FF2CF68E292
:105A200070E08CEA9EE10E941D0B68E270E089EA5A
:105A30009EE10E941D0BC091171DD091181DCA55E3
:105A4000D1090E94181FC817D907BCF40E94BA1CBC
:105A500088EC90E10E94B9140E94181F0E94AD12B8
:105A600085E69BE00E94B9148091171D9091181D46
:105A70008A5591090E94B712DECF64EB70E08CEA80
:105A80009EE10E941D0B70E060E089EA9EE10E94A9
:105A90001D0B8091171D9091181D8A5591099093A7
:105AA000181D8093171D0E94F60C90931E1D809365
:105AB0001D1DE0911D1DF0911E1D84819581019792
:105AC00019F40E94441FEFCF6CE870E08CEA9EE16D
:105AD0000E941D0B68E270E089EA9EE10E941D0BA6
