:020000040000FA
:100000000C9414020C9445020C9445020C94450285
:100010000C9445020C9445020C9445020C94450244
:100020000C9445020C9445020C9445020C94450234
:100030000C9445020C94342B0C9445020C9445020C
:100040000C9445020C949E2D0C9445020C94450290
:100050000C9445020C9445020C9445020C94EA2A37
:100060000C9445020C94BE2B0C94942B0C944502DA
:100070000C9445020C9445020C9445020C944502E4
:100080000C94702D0C9445020C9445020C9445027E
:100090000C9445020C9445020C9445020C94F42BEC
:1000A0000C9445020C9445020C94422D0C9445028C
:1000B0000C9445020C9445020C9445020C94142DAA
:1000C0000C9445020C9445020C9445020C94450294
:1000D0000C9445020C9445020C9445020C94450284
:1000E0000C944502084AD73B3BCE016E84BCBFFD51
:1000F000C12F3D6C74319ABD56833DDA3D00C77FF8
:1001000011BED9E4BB4C3E916BAAAABE0000008090
:100110003F07634236B79BD8A71A39685618AEBA5C
:10012000AB558C1D3CB7CC5763BD6DEDFD753EF6F0
:10013000177231BF000000803F08000000BE92240B
:1001400049123EABAAAA2ABECDCCCC4C3E00000040
:1001500080BEABAAAAAA3E00000000BF000000803B
:100160003F0000000000084178D3BB4387D1133D16
:10017000190E3CC3BD4282AD2B3E68EC8276BED9DF
:100180008FE1A93E4C80EFFFBE01C4FF7F3F00001E
:10019000000000000C940B420C94BE020C94D1029F
:1001A0000C94CD400C94A4070C945E3C0C94294014
:1001B0000C94C6070C94E3020C9444400C94CC3C81
:1001C0000C94C7020C94853D0C94F23C0C94623C58
:1001D0000C94303C0C9429080C94723D0C94523FC2
:1001E0000C94C1020C948D410C94263C0C94C63F97
:1001F0000C944F040C94F1020C94EC020C94F43225
:100200000C9413040C9416400C94D9020C94563C94
:100210000C948C3D0C94CB020C94D1050C943E3F75
:100220000C94B2020C9440040C9431050C946905B2
:100230000C94A63C0C94B3070C94B53F0C94653F0A
:100240000C94CC2D0C9473420C94FA070C94343C0F
:100250000C94DF020C94F03D0C941C3C0C94514027
:100260000C94643D0C94ED020C94A7420C947D3CDC
:100270000C94AC020C9433360C94E7020C947E3D43
:100280000C94D5020C945A3C0C94A43B0C94B602EA
:100290000C94CD070C94BA020C945D3D0C94933DE4
:1002A0000C946B3D0C942D410C94CA400C94183D59
:1002B0000C9495040C94563D0C94EC390C94F1324A
:1002C0000C94FD320C94A3070243616C63756C615E
:1002D00074696E67206F6666736574732C20646F33
:1002E000206E6F74206D6F7665204D505536303519
:1002F00030004D505536303530207374617475734D
:100300003A200000000A0B02090C0D0E0807030436
:1003100001000000000000000000000000000000DC
:1003200000000000000000000000000000000012BB
:10033000111000000000000000000000000000009C
:100340000000000000000000000000200023002644
:100350000029002C002F00320000010000030106DC
:1003600001090100002100240027002A002D00308F
:1003700000330001010000040107010A010000220E
:1003800000250028002B002E00310034000201005F
:1003900000050108010B01010210202008081020AF
:1003A0004010204080020102010804020101020401
:1003B00008102040808040201008040201800402C0
:1003C0000180402010080402010804020101020417
:1003D0000810204080010204081020408005050517
:1003E00005070508080808020202020A0A080804AC
:1003F00004040401010101010101010303030303DA
:10040000030303040707070C0C0C0C0C0C0C0C0268
:1004100002020206060606060606060B0B0B0B0B6F
:100420000B0B0B00CC2DA74211241FBECFEFD1E246
:10043000DEBFCDBF00E00CBF1AE1A0E0B2E0ECE708
:10044000F4E900E00BBF02C007900D92A431B107A0
:10045000D9F72DE1A4E1BAE101C01D92AA38B20793
:10046000E1F712E0C3E1D2E000E006C02197010904
:10047000802FFE010E940748C231D10780E00807A3
:10048000A9F70E94A82E0C942C4A0C940000CF923D
:10049000DF92EF92FF920F931F93CF93DF938B0125
:1004A000EA01BC0190E080E00E94F94226ED39E3C8
:1004B00046EA5EEB0E945A436B017C01B80190E072
:1004C00080E00E94F94227E038E04AEC5FE30E94B6
:1004D0005A439B01AC01C701B6010E9495446B01D0
:1004E0007C01BE0190E080E00E94F94224E73EE5F5
:1004F0004BE35FEB0E945A439B01AC01C701B6017D
:100500000E9495440E94EC45CB01DF91CF911F9151
:100510000F91FF90EF90DF90CF900895815082313E
:1005200008F05AC0E82FF0E08827E656FD4F8F4FBD
:100530000C940748BA02BE02AC02B202B602EC0248
:10054000C102C702CB02D102D502D902DF02E30207
:10055000EC02E702ED02F102809180008F77809338
:1005600080000895809180008F7DF9CF8091800078
:10057000877FF5CF84B58F7784BD089584B58F7D4F
:10058000FBCF8091B0008F778093B0000895809169
:10059000B0008F7DF9CF809190008F77809390008D
:1005A0000895809190008F7DF9CF80919000877F92
:1005B000F5CF8091A0008F778093A000089580915F
:1005C000A0008F7DF9CF8091A000877FF5CF80912B
:1005D00020018F77809320010895809120018F7DE5
:1005E000F9CF80912001877FF5CF1F93CF93DF93C1
:1005F000282F30E0F901ED5FFC4F8491F901E956B5
:10060000FC4FD491F901E352FC4FC491CC23A9F0E3
:10061000162F81110E948E02EC2FF0E0EE0FFF1FCB
:10062000E358FC4FA591B4918FB7F894EC91111158
:1006300008C0D095DE23DC938FBFDF91CF911F914F
:100640000895DE2BF8CFCF93DF9390E0FC01E956BD
:10065000FC4F249183529C4FFC0184918823C9F064
:1006600090E0880F991FFC01ED59FC4FA591B491C2
:10067000FC01E358FC4FC591D49161110DC09FB7A7
:10068000F8948C91209582238C9388812823288349
:100690009FBFDF91CF910895623051F49FB7F894D6
:1006A0003C91822F809583238C93E8812E2BEFCF72
:1006B0008FB7F894EC912E2B2C938FBFEACF82301A
:1006C000910538F0880F991F880F991F059701979A
:1006D000F1F708953FB7F89480915B1B90915C1BF4
:1006E000A0915D1BB0915E1B26B5A89B05C02F3F56
:1006F00019F00196A11DB11D3FBFBA2FA92F982F48
:100700008827BC01CD01620F711D811D911D42E042
:10071000660F771F881F991F4A95D1F708958F920A
:100720009F92AF92BF92CF92DF92EF92FF926B01B6
:100730007C010E946A034B015C01C114D104E104F5
:10074000F104B9F00E946A03681979098A099B09C2
:10075000683E73408105910580F321E0C21AD108FB
:10076000E108F10888EE880E83E0981EA11CB11CF8
:10077000E4CFFF90EF90DF90CF90BF90AF909F902D
:100780008F9008952FB7F8946091571B7091581B64
:100790008091591B90915A1B2FBF08959091000290
:1007A00089130DC0E8ECF2E0E4919FEF9093000212
:1007B000E230E1F038F4EE2381F0E13089F060E0DE
:1007C0000C94F502E43049F110F1E530C1F7909155
:1007D00073009D7F90937300F2CF10926E00EFCF65
:1007E00090916F009D7F90936F00E9CF9091700082
:1007F0009D7F9093700091E09093B0009091B10034
:10080000987F94609093B1001092B300D8CF9091EC
:1008100071009D7F90937100D2CF909172009D7F67
:1008200090937200CCCFAF92BF92CF92DF92EF92B3
:10083000FF920F931F93CF93DF936C017B018B018A
:10084000040F151FEB015E01AE18BF08C017D107DA
:1008500059F06991D601ED91FC910190F081E02D64
:10086000C6011995892B79F7C501DF91CF911F91A9
:100870000F91FF90EF90DF90CF90BF90AF900895D1
:10088000FC01538D448D252F30E0842F90E0821B96
:10089000930B541710F0CF96089501970895FC011B
:1008A000918D828D981761F0A28DAE0FBF2FB11D73
:1008B0005D968C91928D9F5F9F73928F90E00895CB
:1008C0008FEF9FEF08950F931F930E94C2036093D1
:1008D000D91B7093DA1B8093DB1B9093DC1B81ED9B
:1008E0009BE10E944F0497FF1DC00E94C20300912C
:1008F000D91B1091DA1B2091DB1B3091DC1B601B94
:10090000710B820B930B0091D51B1091D61B20917C
:10091000D71B3091D81B6017710782079307F8F235
:100920008FEF9FEF1F910F910895FC01918D828DA4
:10093000981731F0828DE80FF11D858D90E00895B4
:100940008FEF9FEF08950F931F930E94C203609350
:10095000D91B7093DA1B8093DB1B9093DC1B81ED1A
:100960009BE10E94950497FF1DC00E94C203009165
:10097000D91B1091DA1B2091DB1B3091DC1B601B13
:10098000710B820B930B0091D51B1091D61B2091FC
:10099000D71B3091D81B6017710782079307F8F2B5
:1009A0008FEF9FEF1F910F910895CF92DF92EF92FB
:1009B000FF92CF930E94A304FC0197FD4EC08D329D
:1009C000910521F0C0970A9708F040C0C12CD12CA6
:1009D0007601C0E0E130F105D1F0ED32F105D9F159
:1009E000CF01C0970A9798F4AAE0B0E0A70196015A
:1009F0000E9450446F01FF0FEE08FF08C60ED71E7D
:100A0000E81EF91E80E3C81AD108E108F10881ED5B
:100A10009BE10E944F040E94A304FC01C0970A9727
:100A2000C8F2E130F105B1F2CC2341F0F094E0944A
:100A3000D094C094C11CD11CE11CF11CC701B601AB
:100A4000CF91FF90EF90DF90CF90089581ED9BE1E3
:100A50000E944F04AFCFC1E0DACFC12CD12C760178
:100A6000EDCFFC01918D228D892F90E0805C9F4F0E
:100A7000821B91098F739927089581ED9BE10E9454
:100A8000310521E0892B09F420E0822F0895FC0133
:100A9000A48DA80FB92FB11DA35ABF4F2C91848DDF
:100AA00090E001968F739927848FA689B7892C933C
:100AB000A089B1898C91837080648C93938D848D8F
:100AC000981306C00288F389E02D80818F7D808392
:100AD0000895EF92FF920F931F93CF93DF93EC0152
:100AE00081E0888F9B8D8C8D98131AC0E889F989D5
:100AF000808185FF15C09FB7F894EE89FF896083D8
:100B0000E889F98980818370806480839FBF81E058
:100B100090E0DF91CF911F910F91FF90EF9008959A
:100B2000F62E0B8D10E00F5F1F4F0F731127E02E75
:100B30008C8D8E110CC00FB607FCFACFE889F989AD
:100B4000808185FFF5CFCE010E944705F1CFEB8D67
:100B5000EC0FFD2FF11DE35AFF4FF0829FB7F89481
:100B60000B8FEA89FB8980818062CFCF0F931F931F
:100B7000CF93DF938C01D0E0C0E0F801EC0FFD1FB4
:100B80006491662341F081ED9BE10E946905892B08
:100B900011F02196F2CFCE01DF91CF911F910F91ED
:100BA0000895CF93DF93EC01888D8823B9F0AA894B
:100BB000BB89E889F9898C9185FD03C0808186FD18
:100BC0000DC00FB607FCF7CF8C9185FFF2CF808167
:100BD00085FFEDCFCE010E944705E9CFDF91CF9190
:100BE000089580E090E0892B29F00E943D05811155
:100BF0000E94000080E090E0892B49F080E090E0C6
:100C0000892B29F00E94000081110E94000080E0E1
:100C100090E0892B49F080E090E0892B29F00E9438
:100C2000000081110E94000080E090E0892B49F0D3
:100C300080E090E0892B29F00E94000081110C9443
:100C4000000008951F93CF93DF93C1E0C093CC1AA7
:100C5000882399F1D091B8001091BA008091BC001E
:100C60008A7B8093BC0060E084E10E94F50260E032
:100C700085E10E94F5021092A71BC093A61B10925B
:100C8000811B61E084E10E94F50261E085E10E9440
:100C9000F5028091B9008E7F8093B9008091B900F0
:100CA0008D7F8093B90088E48093B80085E48093B9
:100CB000BC001093BA00D093B800DF91CF911F9180
:100CC00008958F929F92AF92BF92CF92DF92EF9250
:100CD000FF920F931F93CF93DF93D091D01BD1320C
:100CE00008F0D7C0182FC091CF1B0E946A036B0178
:100CF0007C018091A71B81116BC082E08093A71BB0
:100D00001093A61B8FEF8093A51B1092A41BD0936A
:100D1000A31BAFEABBE1E3E8FBE180E0D81391C09D
:100D20001092821B8091821BCC0FC82BC093821B18
:100D30008091811B813009F088C01092811B0E9434
:100D40006A036B017C018091821B8093BB008091C0
:100D5000A91B9091AA1BA091AB1BB091AC1B892B36
:100D60008A2B8B2BA1F00E946A030091A91B109182
:100D7000AA1B2091AB1B3091AC1B6C197D098E090D
:100D80009F09061717072807390708F442C0809102
:100D9000BC0083FDD8CF85EC8093BC000E946A0321
:100DA0006B017C018091A71B823009F450C08091B7
:100DB000A51B8F3F09F46FC08091A51B803209F4F9
:100DC0006CC08091A51B803309F469C084E026C003
:100DD0008091A91B9091AA1BA091AB1BB091AC1B59
:100DE000892B8A2B8B2B09F484CF0E946A03809075
:100DF000A91B9090AA1BA090AB1BB090AC1B6C19C8
:100E00007D098E099F0986169706A806B90608F07F
:100E100070CF8091A81B0E94220685E01092AE1B25
:100E20001092D01B1092AD1BDF91CF911F910F91AB
:100E3000FF90EF90DF90CF90BF90AF909F908F90FA
:100E400008959D9191938F5F69CF85EEA5CF809195
:100E5000A91B9091AA1BA091AB1BB091AC1B892B35
:100E60008A2B8B2B09F49ECF0E946A030091A91B49
:100E70001091AA1B2091AB1B3091AC1B6C197D0902
:100E80008E099F09061717072807390708F08ACF28
:100E9000C0CF81E0C3CF80E0C1CF82E0BFCF83E08D
:100EA000BDCF1F93CF93DF93162FCAE7DCE1A98153
:100EB000BA819B8121E02093AD1B9093CF1B1092B0
:100EC000AE1B1092D01BED91FC9111970190F08117
:100ED000E02D682FCD01199589819A81DC01ED9172
:100EE000FC910190F081E02D612F199581E0DF9157
:100EF000CF911F910C9461062091ED1A260F332794
:100F0000331F21323105ECF42091A71BFC0190E046
:100F100080E0243069F082E00895A091ED1A2191DB
:100F2000AC014353554EA40FB52FB11D2C93019620
:100F3000861798F38091ED1A680F6093ED1A80E0A0
:100F4000089581E008950895E091601B80915F1BF2
:100F5000E81730F4F0E0EF59F44E808190E0089506
:100F60008FEF9FEF08959091601B80915F1B2FEF93
:100F70003FEF981748F4E92FF0E0EF59F44E208145
:100F800030E09F5F9093601BC901089580915F1BC3
:100F90009091601B891B990B0895CF92DF92EF927D
:100FA000FF920F931F93CF93DF937C01CB018A01B4
:100FB0002091AD1B222389F0EB016B01C40ED51EDD
:100FC000CC15DD0569F06991D701ED91FC91019097
:100FD000F081E02DC7011995F3CF642F0E947C07A3
:100FE000C801DF91CF911F910F91FF90EF90DF909B
:100FF000CF900895CF93DF931F92CDB7DEB769836B
:101000002091AD1B2223F9F02091D01B203258F003
:1010100021E030E0FC013383228390E080E00F90F8
:10102000DF91CF9108958091AE1BE82FF0E0E1555C
:10103000F44E998190838F5F8093AE1B8093D01B79
:1010400081E090E0ECCF61E0CE0101960E947C0748
:10105000F7CF90E080E00895CF92DF92EF92FF9279
:101060000F931F93CF93DF93EC01EE81FF8190816B
:101070008B81809589238083EA85FB8580819B8194
:10108000892B8083EC81FD8190818A8180958923E1
:101090008083E885F98580819A81892B808389897D
:1010A0009A89009711F00E945F03EA85FB85908181
:1010B0008B818095892380838B89882331F0EE8111
:1010C000FF8180819B81892B80838C898823C9F053
:1010D0000E94C2036B017C01EE85FF8580819B81AC
:1010E000892379F40E94C2036C197D098E099F0936
:1010F0000D891E892F89388D601771078207930724
:1011000058F389899A89009711F00E945F03E88556
:10111000F98590818A818095892380838B898823B2
:1011200031F0EC81FD8180819A81892B80838989CE
:101130009A89009751F0DF91CF911F910F91FF9005
:10114000EF90DF90CF900C945F03DF91CF911F91D0
:101150000F91FF90EF90DF90CF900895CF93DF93A2
:10116000EC01E885F98590818A81809589238083C7
:101170008B89882331F0EC81FD8180819A81892BD4
:101180008083EA85FB8590818B818095892380838C
:101190008B89882331F0EE81FF8180819B81892BAF
:1011A000808389899A89009711F00E945F03EC85FA
:1011B000FD8590818A819823EE85FF8520813B8182
:1011C000232311F480E028C09923E1F3EC81FD8111
:1011D0009081809589238083E885F98580819A8133
:1011E000892B808389899A89009711F00E945F0377
:1011F000EE81FF8190818B81809589238083EA85B0
:10120000FB8580819B81892B808389899A890097BE
:1012100011F00E945F0381E0DF91CF910895CF929A
:10122000DF92EF92FF920F931F93CF93DF93EC0126
:10123000E885F98590818A818095892380838B89CF
:10124000882331F0EC81FD8180819A81892B808314
:10125000EA85FB8590818B818095892380838B89AA
:10126000882331F0EE81FF8180819B81892B8083EF
:101270008C898823C9F00E94C2036B017C01EE8532
:10128000FF8580819B81892379F40E94C2036C19B8
:101290007D098E099F090D891E892F89388D601758
:1012A00071078207930758F389899A89009711F08B
:1012B0000E945F03EC85FD8580819A81892311E07E
:1012C00009F410E0EE81FF8190818B818095892364
:1012D0008083EA85FB8580819B81892B8083898936
:1012E0009A89009711F00E945F03812FDF91CF91BF
:1012F0001F910F91FF90EF90DF90CF900895CF92C4
:10130000DF92EF92FF920F931F93CF93DF93EC0145
:101310008A81809561115EC0EC81FD819081892375
:101320008083E885F98580819A81892B80838989EA
:101330009A89009711F00E945F03EA85FB859081EE
:101340008B818095892380838B89882331F0EE817E
:10135000FF8180819B81892B80838C898823C9F0C0
:101360000E94C2036B017C01EE85FF8580819B8119
:10137000892379F40E94C2036C197D098E099F09A3
:101380000D891E892F89388D601771078207930791
:1013900058F389899A89009711F00E945F03EE81C2
:1013A000FF8190818B81809589238083EA85FB85ED
:1013B00080819B81892B808389899A890097B1F0EC
:1013C000DF91CF911F910F91FF90EF90DF90CF9021
:1013D0000C945F03E885F9859081892380838B894C
:1013E000882309F4A4CFEC81FD819DCFDF91CF91BB
:1013F0001F910F91FF90EF90DF90CF9008950F9382
:101400001F93CF93DF938C01D62FC8E06D2F6078A8
:10141000C8010E947F09DD0FC150C1F7C801DF91EB
:10142000CF911F910F910C940F09CF93DF93FC0183
:101430002089211106C0EC010E94FF09811106C01C
:10144000188A81E090E0DF91CF91089582E0888B47
:10145000F8CF1F93CF93DF93EC01162F188A0E94C9
:10146000AE08882379F0612F660FCE010E94FF0934
:10147000811105C0188ADF91CF911F91089582E0F4
:10148000888BF9CF84E0FCCFFC019389138AA08577
:10149000B1852C918281809582238C9383898823C6
:1014A00031F0A481B5818C912281822B8C93A2850D
:1014B000B3852C918381809582238C9383898823A3
:1014C00031F0A681B7818C912381822B8C93938BF1
:1014D00008950F931F93CF93DF93CDB7DEB7EB97AC
:1014E0000FB6F894DEBF0FBECDBFDC011C928BEEB1
:1014F00090E014969C938E93139781E090E012965F
:101500009C938E93119715966C93159716964C9302
:10151000169769834A838C8B8D8B82E090E09B8B3E
:101520008A8B08EE13E020E030E00E8B1F8B288FB3
:10153000398F70E0FB01E352FC4F249169567C4FD8
:10154000FB0164916B8330E0220F331FF901E358F4
:10155000FC4F859194919E838D83F901ED59FC4F49
:10156000859194919A878987F901E75BFC4F859172
:1015700094919E878D8750E0FA01E352FC4F2491AD
:1015800049565C4FFA0144914C8330E0220F331FDF
:10159000F901E358FC4F8591949198878F83F90165
:1015A000ED59FC4F859194919C878B87F901E75BFE
:1015B000FC4F85919491988B8F878BE3FE01319638
:1015C000179601900D928A95E1F7CE0101960E943F
:1015D000440AEB960FB6F894DEBF0FBECDBFDF9185
:1015E000CF911F910F910895CF92DF92EF92FF92CA
:1015F000CF93DF93EC01603282E07807CCF5653B56
:10160000710514F064EB70E0898128E830E0281B54
:10161000310987FD3395220F331F220F331F6901D4
:10162000330FEE08FF088A8128E532E0281B3109D4
:1016300087FD3395220F331F220F331F032E000C1B
:10164000440B550B2C193D094E095F09DB0177FF4F
:1016500002C0B0E0A0E00E945B4424EB30E040E038
:1016600050E00E943144C20ED31EE41EF51EB601A6
:10167000E881E03370F5298188E890E0821B9109C8
:1016800027FD9395880F991F880F991F6817790771
:101690007CF02A8188E592E0821B910927FD9395D1
:1016A000880F991F880F991F681779070CF4CB01D1
:1016B0000297880F991F4FB7F8942E2F30E0F90149
:1016C000EE0FFF1FE20FF31FE45CF54E9283818360
:1016D0004FBFDF91CF91FF90EF90DF90CF900895B3
:1016E0001F93CF93DF93EC01162F8881803308F08E
:1016F0004EC061E0812F0E9423038881282F30E0B3
:10170000F901EE0FFF1FE20FF31FE45CF54E1F73AC
:101710006081607C612B608319821A822CE0622FC9
:101720000E94FB47829FB001112430E020E0AB0112
:10173000420F531FFA01EE0FFF1FE40FF51FE45C89
:10174000F54E908196FD16C02F5F3F4F2C3031052E
:1017500071F7813009F51092800082E0809381005A
:101760001092850010928400B19A80916F0082607F
:1017700080936F00E8818E2F90E0FC01EE0FFF1F39
:10178000E80FF91FE45CF54E8081806480838881D6
:10179000DF91CF911F910895823061F410929000F3
:1017A00080939100109295001092940088BB8093D2
:1017B0007100E0CF833069F41092A00082E0809342
:1017C000A1001092A5001092A40089BB8093720022
:1017D000D1CF8111CFCF1092200182E080932101DF
:1017E00010922501109224018ABB80937300C2CF0E
:1017F000FC0190913B1A903398F481E0890F80931B
:101800003B1A9083892F90E0FC01EE0FFF1FE80F39
:10181000F91FE45CF54E88EB9BE092838183089589
:101820008FEF80830895AF92BF92CF92DF92EF92B5
:10183000FF920F931F93CF93DF936B017A01EC011B
:10184000C95CD54E28813CE0389F8001399F100D3E
:101850001124A0903B1AB12C27FF1FC0FB0111825D
:10186000108288818F5F888388819801280F311DBD
:1018700087FD3A95F6012A153B051CF488818C30CA
:10188000C4F180819181049680349C4908F473C02E
:10189000F60180819181049670C088819801280F9B
:1018A000311D87FD3A952A153B05DCF68881A80194
:1018B000480F511D87FD5A95FA01EE0FFF1FE40FE7
:1018C000F51FE45CF54E808186FFCBCF8881F8015F
:1018D000E80FF11D87FDFA95CF01EE0FFF1FE80F0E
:1018E000F91FE45CF54E808160E08F730E94F50281
:1018F000B8CF808191812881A801420F511D27FD19
:101900005A959A01FA01EE0FFF1FE20FF31FE45CF4
:10191000F54E21813281820F931FF70191838083DD
:1019200088819801280F311D87FD3A95F901EE0F46
:10193000FF1FE20FF31FE45CF54E808186FF22C09B
:101940008881080F111D87FD1A95F801EE0FFF1F02
:10195000E00FF11FE45CF54E808161E08F73DF9151
:10196000CF911F910F91FF90EF90DF90CF90BF909C
:10197000AF900C94F50280E49CE9F7019183808399
:101980008FEF8883DF91CF911F910F91FF90EF90A0
:10199000DF90CF90BF90AF900895EF92FF920F939A
:1019A0001F93CF93DF93C3E2D2E00DE21AE12991B6
:1019B00039913327F901ED5FFC4F8491F901E95624
:1019C000FC4FE490F901E352FC4FF490FF2021F129
:1019D00081110E948E02EF2DF0E0EE0FFF1FE75BFA
:1019E000FC4FA591B491EC91EE2231E020E009F496
:1019F00030E0832F922FF801819391938F01F2E0D1
:101A0000CD32DF07A1F68DE29AE1DF91CF911F91F0
:101A10000F91FF90EF90089590E080E0ECCF2F922F
:101A20003F924F925F926F927F928F929F92AF926E
:101A3000BF92CF92DF92EF92FF920F931F93CF93BB
:101A4000DF9300D000D01F92CDB7DEB77D836C83CB
:101A5000312C212C88248A94982C54016C01990FE4
:101A6000EE08FF080DEF13E02A01550F660877080E
:101A700080910002803239F5E8ECF2E0F491FE83C7
:101A8000F7FD70C061E080E20E942303FE81F11146
:101A900039C0C982DA82EB82FF8268E478EE81E0A5
:101AA00090E029813A814B815F810E943144BA01E3
:101AB000A90141505109610971099E81992309F4D5
:101AC000CEC194E03DC08F3F09F04CC080E28093CE
:101AD0000002E8ECF2E0F491FE838F2FFF3F09F45F
:101AE00041C0F23009F4C8C008F069C0FF2309F40E
:101AF0008DC0F13009F4A2C087FD34C061E080E2FE
:101B00000E9423038E81823009F016C1C982DA82D5
:101B1000EB82FF8260E970ED83E090E0A70196011F
:101B20000E943144BA01A90141505109610971096A
:101B300093E04F3F51056105710511F00CF0ADCFF9
:101B40008091B100887F892B8093B100EE81E230D3
:101B500009F475C10CF06BC1EE2309F484C1E130C6
:101B600009F401C1C301B2010E948F0380E20E9407
:101B7000CE03C301B2010E948F038FEF281A380AE7
:101B8000EC81FD81E215F30509F072CF27960FB6BF
:101B9000F894DEBF0FBECDBFDF91CF911F910F91A3
:101BA000FF90EF90DF90CF90BF90AF909F908F907D
:101BB0007F906F905F904F903F902F9008959E81FF
:101BC000943009F49BC008F479C0953009F094CFA3
:101BD0001092200110922101809121018860809350
:101BE000210180912101816080932101F80184917C
:101BF000E82FF0E0EE0FFF1FE358FC4F8591949122
:101C0000E7EBF3E084918093141A3CCF14BC15BC2D
:101C100084B5826084BD85B5816085BDF8018491FD
:101C2000E82FF0E0EE0FFF1FE358FC4F85919491F1
:101C3000E7EBF3E084918093181A24CF1092800090
:101C40001092810080918100886080938100809152
:101C50008100816080938100F8018491E82FF0E099
:101C6000EE0FFF1FE358FC4F85919491E7EBF3E0F3
:101C700084918093171A06CF1092B0001092B10091
:101C80008091B00082608093B0008091B10081604B
:101C90008093B100F8018491E82FF0E0EE0FFF1F70
:101CA000E358FC4F859194919093111B8093101BE6
:101CB000E7EBF3E084918093121BE4CE1092900046
:101CC00010929100809191008860809391008091A2
:101CD0009100816080939100F8018491E82FF0E0F9
:101CE000EE0FFF1FE358FC4F85919491E7EBF3E073
:101CF00084918093161AF3E0FE83C4CE1092A00064
:101D00001092A1008091A10088608093A100809131
:101D1000A10081608093A100F8018491E82FF0E098
:101D2000EE0FFF1FE358FC4F85919491E7EBF3E032
:101D300084918093151AA6CE60E072E18AE790E064
:101D4000A70196010E943144BA01A90141505109ED
:101D500061097109EE81E130C1F480918100887FD1
:101D60008160809381005093890040938800809225
:101D7000251A9092261AA092271AB092281A8091BA
:101D80006F00826080936F00EDCEFE81F330C1F46E
:101D900080919100887F8160809391005093990099
:101DA000409398008092211A9092221AA092231AAE
:101DB000B092241A80917100826080937100D2CE1B
:101DC0008E818430C1F48091A100887F81608093EE
:101DD000A1005093A9004093A80080921D1A9092F0
:101DE0001E1AA0921F1AB092201A8091720082606F
:101DF00080937200B7CE9E81953009F0A7CE809176
:101E00002101887F816080932101509329014093B3
:101E100028018092191A90921A1AA0921B1AB09255
:101E20001C1A809173008260809373009BCEFE81A8
:101E3000F43079F20CF4B2CFF53039F393CE40930D
:101E4000B3008092131B9092141BA092151BB092AA
:101E5000161B8091700082608093700083CE85B5E0
:101E6000887F836085BD47BD8092291A90922A1A87
:101E7000A0922B1AB0922C1A80916E0082608093EF
:101E80006E0070CE4F925F926F927F928F929F9270
:101E9000AF92BF92CF92DF92EF92FF920F931F9378
:101EA000CF93DF93CDB7DEB72E970FB6F894DEBF92
:101EB0000FBECDBF80917B1C90917C1C20917D1C1E
:101EC00031E03093AD1B2093CF1B1092AE1B1092CC
:101ED000D01BDC01ED91FC910190F081E02D6BE3D2
:101EE000199580E00E94610610917D1C0E946A0392
:101EF0004B015C018091A71B811166C081E080933A
:101F0000A71B8093A61B9FEF9093A51B1092A41B69
:101F10009DE09093A31B8093821B8091821B110FE5
:101F2000182B1093821B8091811B813009F0A9C16D
:101F30001092811B0E946A034B015C018091821BFD
:101F40008093BB008091A91B9091AA1BA091AB1B11
:101F5000B091AC1B892B8A2B8B2BA1F00E946A03BA
:101F60000091A91B1091AA1B2091AB1B3091AC1BB7
:101F7000681979098A099B0906171707280739077D
:101F800008F443C08091BC0083FDD8CF85EC8093DA
:101F9000BC000E946A034B015C018091A71B813049
:101FA00009F471C18091A41B8E3008F08EC180911C
:101FB000A41BA3E8BBE1E1E6FBE190E0981751F137
:101FC0002D9121939F5FFACF8091A91B9091AA1B1D
:101FD000A091AB1BB091AC1B892B8A2B8B2B09F4E6
:101FE00089CF0E946A034090A91B5090AA1B609061
:101FF000AB1B7090AC1B681979098A099B094616BE
:1020000057066806790608F075CF8091A81B0E94D4
:10201000220680E01092601B80935F1B8E010F5F91
:102020001F4F6E01BFE0CB0ED11C80917B1C9091A5
:102030007C1CDC01ED91FC910284F385E02D199567
:10204000B82E80917B1C90917C1CDC01ED91FC9161
:102050000284F385E02D1995E12C8E299B29F80146
:10206000819391938F01CE16DF06F9F6C090821C02
:10207000D090831CE090841CF090851C69817A814B
:10208000072E000C880B990B0E94FB42A7019601BA
:102090000E9473452091921C3091931C4091941C96
:1020A0005091951C0E9494446093A21C7093A31CB1
:1020B0008093A41C9093A51C6B817C81072E000C3F
:1020C000880B990B0E94FB42A70196010E94734561
:1020D0002091961C3091971C4091981C5091991C0E
:1020E0000E9494446093A61C7093A71C8093A81C24
:1020F0009093A91C80917A1C61E06827681B770B7C
:10210000072E000C880B990B0E94FB424B015C01CF
:102110006D817E81072E000C880B990B0E94FB427B
:102120009B01AC01C501B4010E945A43A70196016D
:102130000E94734520919A1C30919B1C40919C1CDD
:1021400050919D1C0E9494446093AA1C7093AB1CF8
:102150008093AC1C9093AD1C6F817885072E000C8A
:10216000880B990B0E94FB4220E030EF41E456E4DB
:102170000E94954420E030E04AEA53E40E9473450F
:1021800060939E1C70939F1C8093A01C9093A11C35
:10219000C0907E1CD0907F1CE090801CF090811C31
:1021A00069857A85072E000C880B990B0E94FB42EB
:1021B000A70196010E9473452091861C3091871CCF
:1021C0004091881C5091891C0E9494446093AE1CDD
:1021D0007093AF1C8093B01C9093B11C6B857C8571
:1021E000072E000C880B990B0E94FB42A701960159
:1021F0000E94734520918A1C30918B1C40918C1C4D
:1022000050918D1C0E9494446093B21C7093B31C37
:102210008093B41C9093B51C6D857E85072E000CB1
:10222000880B990B0E94FB42A70196010E947345FF
:1022300020918E1C30918F1C4091901C5091911CCC
:102240000E9494446093B61C7093B71C8093B81C92
:102250009093B91C2E960FB6F894DEBF0FBECDBF7B
:10226000DF91CF911F910F91FF90EF90DF90CF9072
:10227000BF90AF909F908F907F906F905F904F90A6
:10228000089585EE84CE8091A91B9091AA1BA09100
:10229000AB1BB091AC1B892B8A2B8B2B09F47DCE09
:1022A0000E946A030091A91B1091AA1B2091AB1BED
:1022B0003091AC1B681979098A099B090617170721
:1022C0002807390708F069CEA0CE8EE072CE7F9243
:1022D0008F929F92AF92BF92CF92DF92EF92FF9236
:1022E0000F931F93CF93DF93EC01062F142F188ABF
:1022F00019AE1AAE0E94AE08882309F457C0602FA9
:10230000660F6160CE010E94FF0981114BC0188ADF
:102310007E01A12EB12CD12CC12C450181E0881A5F
:102320009108CA14DB0459F100E088E0782EC81443
:10233000D904DCF4000FCE010E940F09082B7A9417
:102340007110F8CF60E0CE010E947F0989899A89D7
:10235000009711F00E945F03F701018FFFEFCF1A82
:10236000DF0A8FEFE81AF80ADCCF000FCE010E94D7
:102370000F09082B7A947110F8CF61E0E4CF19AF00
:10238000CE010E942C08812FDF91CF911F910F91D8
:10239000FF90EF90DF90CF90BF90AF909F908F9085
:1023A0007F90089582E0888B10E0EACF84E0FBCF35
:1023B000FF920F931F93CF93DF93EC01F62E8C01C6
:1023C000095F1F4F69E2C8010E94290A6F2D6068EA
:1023D000C8010E94150AC8010E942C0842E069E267
:1023E000C8010E946711FE01E05CFF4F80813196B9
:1023F00090812FEF3FEF981740F4DE01A90FB11D38
:1024000090962C9130E09F5F908390814FEF5FEF2B
:10241000981728F4C90FD11D48A19F5F908380E0D1
:10242000942F822B932BDF91CF911F910F91FF90CF
:1024300008950F931F93CF93DF93162F022FEC0174
:10244000279669E2CE010E94290A612F6068CE01B9
:102450000E94150A602FCE010E94150ACE01DF915D
:10246000CF911F910F910C942C08FC01019000203A
:10247000E9F73197AF01481B590BBC0181ED9BE196
:102480000C9413048F929F92AF92BF920F931F935D
:10249000CF93DF93CDB7DEB7A1970FB6F894DEBF29
:1024A0000FBECDBF19A2423008F44AE08E010F5D85
:1024B0001F4F842E912CB12CA12CA50194010E94B8
:1024C0006344E62FB901CA01EA30F4F4E05DD801B3
:1024D000EE938D01232B242B252B79F790E080E0C0
:1024E000109719F0CD010E943512A1960FB6F894FD
:1024F000DEBF0FBECDBFDF91CF911F910F91BF9077
:10250000AF909F908F900895E95CE1CFCF92DF92DA
:10251000EF92FF92CF93DF936C01990FEE08FF08C3
:10252000F7FE19C06DE281ED9BE10E946905EC01A7
:1025300066277727CB016C197D098E099F094AE030
:102540000E9442128C0F9D1FDF91CF91FF90EF9060
:10255000DF90CF9008954AE0C701B601DF91CF9197
:10256000FF90EF90DF90CF900C944212BC0190E06E
:1025700080E04AE00C944212CF93DF930E94351220
:10258000EC0181E592E00E9435128C0F9D1FDF91D6
:10259000CF91089584E592E00E94BC128EE792E00C
:1025A0000E94BC1286E992E00E94BC128EEA92E080
:1025B0000E94BC1281EC92E00E94BC1284ED92E079
:1025C0000E94BC1285EE92E00E94BC1286EF92E05F
:1025D0000E94BC1282E193E00E94BC1280E393E06F
:1025E0000E94BC1284E690E10C94BC128BE393E051
:1025F0000E94BC128EE792E00E94BC1282E693E039
:102600000E94BC1287E793E00E94BC1287E893E027
:102610000E94BC1287E993E00E94BC1285EA93E015
:102620000E94BC1283EB93E00E94BC128CEC93E0FE
:102630000E94BC1280E393E00E94BC1284E690E109
:102640000C94BC128EEE93E00E94BC1289E094E0E0
:102650000E94BC128FE194E00E94BC1288E394E0D7
:102660000E94BC128EE494E00E94BC1284E690E1C9
:102670000C94BC1289E594E00E94BC128EE792E0B3
:102680000E94BC1289E694E00E94BC1286E794E0A6
:102690000E94BC1289E894E00E94BC128FE994E089
:1026A0000E94BC1282EB94E00E94BC128CEC94E07D
:1026B0000E94BC1285EE94E00E94BC1281E095E07D
:1026C0000E94BC128EE195E00E94BC1284E690E16B
:1026D0000C94BC120C943512CF93DF930E94861297
:1026E000EC0181E592E00E9435128C0F9D1FDF9175
:1026F000CF910895CF93DF930E94B612EC0181E54C
:1027000092E00E9435128C0F9D1FDF91CF910895AA
:102710004F925F926F927F928F929F92AF92BF92F1
:10272000CF92DF92EF92FF920F931F93CF936B01A3
:102730007C01742EAC019B010E94E946882399F02C
:1027400087E295E0CF911F910F91FF90EF90DF907E
:10275000CF90BF90AF909F908F907F906F905F9041
:102760004F900C94351246015701E894B7F82FEFBB
:102770003FEF4FE75FE7C501B4010E94E9468111D1
:102780000DC02FEF3FEF4FE75FE7C501B4010E9497
:10279000F44218161CF48BE295E0D4CF2FEF3FEFF4
:1027A0004FE75FE4C701B6010E94424618161CF4C9
:1027B0008FE295E0C7CF2FEF3FEF4FE75FECC70108
:1027C000B6010E94F44287FDF3CF20E030E0A9017A
:1027D000C701B6010E94F44210E000E087FF0AC082
:1027E0006DE281ED9BE10E9469058C01F7FAF0949E
:1027F000F7F8F094C0E060E070E080E09FE37C16C2
:1028000041F020E030E040E251E40E947345CF5FA8
:10281000F6CFA70196010E9495442B013C010E942E
:10282000EC454B015C014AE00E9442127C01E00E43
:10283000F11ECC23A9F1C501B4010E94F9429B010C
:10284000AC01C301B2010E9494444B015C016EE2F1
:1028500081ED9BE10E946905E80EF91EC15000F16F
:1028600020E030E040E251E4C501B4010E945A4347
:102870002B013C010E94EC454B01CB010E94B6129A
:10288000E80EF91EB40190E080E00E94F9429B013D
:10289000AC01C301B2010E9494444B015C01DECF44
:1028A000C701CF911F910F91FF90EF90DF90CF90D4
:1028B000BF90AF909F908F907F906F905F904F9060
:1028C0000895BF92CF92DF92EF92FF920F931F93E2
:1028D000CF93DF93EC016C0187E0C80ED11C7E0121
:1028E000E0E4EE0EF11CF70110828E010F5B1F4F2A
:1028F000F8011082E989FA8990818A858095892377
:1029000080838A8D882331F0ED85FE8580819A85CC
:10291000892B8083888D998D009711F00E945F0329
:10292000EF85F889908189858095892380838A8DB8
:10293000882331F0EB85FC8580819985892B808304
:1029400084E0B82E888D998D009711F00E945F0366
:10295000BA94B110F7CF8A8D882331F062E070E02D
:1029600080E090E00E948F0369E2C6010E94290A7C
:1029700062E9C6010E94150AC6010E942C0841E0C6
:1029800069E2C6010E946711F8012081F701808188
:10299000281708F055C0FE01E20FF11D80A12F5F3E
:1029A000F8012083182F682F70E090E080E040E16C
:1029B0000E94421281E592E00E94351280E01434B8
:1029C000A9F581E088830B811C81980150E040E0EB
:1029D00061E0CE010E9419121C830B8309811A81C8
:1029E0008881811103C0CE010E946114980150E0DA
:1029F00040E06FE0CE010E9419121A83098321E0A2
:102A000030E040E050E060E0CE010E94191263E047
:102A100070E080E090E00E948F0323E030E040E02F
:102A200050E060E0CE010E94191281E0DF91CF9169
:102A30001F910F91FF90EF90DF90CF90BF9008957E
:102A40008FEF9FEFAFCFAF92BF92CF92DF92EF9217
:102A5000FF920F931F93CF93DF93EC015B016A0109
:102A600079018881811103C0CE010E94611464E163
:102A7000CE010E94D811F8019183808366E1CE01D6
:102A80000E94D811F5019183808368E1CE010E94F4
:102A9000D811F601918380836AE1CE010E94D8119A
:102AA000F701918380838B819C81853D9105A1F104
:102AB00080F40097D9F1803C910599F1DF91CF9195
:102AC0001F910F91FF90EF90DF90CF90BF90AF904C
:102AD0000895863F9105D9F08F3F910541F08B3ED7
:102AE000910561F762E370E080E090E004C063E08C
:102AF00070E080E090E0DF91CF911F910F91FF9007
:102B0000EF90DF90CF90BF90AF900C948F0368E16F
:102B100070E080E090E0EFCF65E670E080E090E06C
:102B2000EACF6AE970E080E090E0E5CF6CEB72E01C
:102B300080E090E0E0CF9F92AF92BF92CF92DF9281
:102B4000EF92FF920F931F93CF93DF9303E21BE16A
:102B500025E23BE147E25BE169E27BE187E29DE15F
:102B60000E9423154091251B5091261B6091271B25
:102B70007091281B8091291B90912A1B0E9447026B
:102B80009093221B8093211B09E11BE12BE13BE188
:102B90004DE15BE16FE17BE185EE9CE10E94231555
:102BA00040911B1B50911C1B60911D1B70911E1BA3
:102BB00080911F1B9091201B0E9447028C019093D3
:102BC000181B8093171BC090231BD090241BE090F0
:102BD000191BF0901A1BA090211BB090221B809112
:102BE000070290910802C816D906B4F02091090294
:102BF00030910A022C153D057CF020910B0230919A
:102C00000C02A216B30644F0C1E020910D023091EF
:102C10000E022A153B050CF4C0E0E816F906C4F0D4
:102C20008091090290910A028E159F058CF0809187
:102C30000B0290910C020817190754F080910D02B5
:102C400090910E02DC2F992493948017910714F42D
:102C5000912CD0E083E395E00E946A138C2F90E0E2
:102C60000E946C1383E495E00E946A13892D90E022
:102C70000E946C1384E595E00E946A138D2F90E00A
:102C80000E946C1382E695E00E946A13C6010E94BE
:102C9000861288E695E00E946A13C7010E946C13B1
:102CA00081ED92E10E946A138091211B9091221B79
:102CB0000E94B61281E795E00E946A138091171B6B
:102CC0009091181B0E947A138BE795E00E946A137B
:102CD0008091291B90912A1B0E94B61280E895E0F2
:102CE0000E946A1380911F1B9091201B0E947A13EF
:102CF00086EE92E10E946A138091271B9091281B17
:102D00000E94B61288E895E00E946A1380911D1B0C
:102D100090911E1B0E947A1380E995E00E946A132D
:102D20008091251B9091261B0E94B61285E995E0A3
:102D30000E946A1380911B1B90911C1B0E947A13A6
:102D40008BED92E10E946A138091231B9091241BCA
:102D50000E94B6128DE995E00E946A138091191BBA
:102D600090911A1B0E947A1385EA95E00E946A13DB
:102D70008091070290910802C816D90644F081E0BC
:102D80002091090230910A022C153D050CF480E0D7
:102D900090E00E946C1380ED95E00E946A13809190
:102DA000070290910802E816F90644F081E02091AC
:102DB000090230910A022E153F050CF480E090E0E4
:102DC0000E946C138BEF95E00E946A1380910B02B6
:102DD00090910C02A816B90644F081E020910D02F2
:102DE00030910E022A153B050CF480E090E00E9421
:102DF0006C1388E296E00E946A1380910B02909116
:102E00000C020817190744F081E020910D0230915F
:102E10000E02201731070CF480E090E0DF91CF9193
:102E20001F910F91FF90EF90DF90CF90BF90AF90E8
:102E30009F900C946C135F926F927F928F929F92EF
:102E4000AF92BF92CF92DF92EF92FF920F931F93B8
:102E5000CF93DF9303E21BE125E23BE147E25BE135
:102E600069E27BE187E29DE10E9423154091251BE9
:102E70005091261B6091271B7091281B8091291B64
:102E800090912A1B0E9447029093221B8093211B42
:102E900009E11BE12BE13BE14DE15BE16FE17BE10E
:102EA00085EE9CE10E94231560901B1B70901C1BFB
:102EB00080901D1B90901E1BC0911F1BD091201B4A
:102EC000A301B401CE010E9447028C019093181B0C
:102ED0008093171BC090231BD090241BE090191BDC
:102EE000F0901A1BA090211BB090221B8091291BEF
:102EF00090912A1B2091271B3091281B28173907F6
:102F000070F54091251B5091261B4817590738F53D
:102F1000821B930B20910F02309110022817390762
:102F2000F0F48091110290911202C816D906BCF0FB
:102F300080911302909114028C159D0584F080916C
:102F4000150290911602A816B9064CF05524539418
:102F500080911702909118028A159B050CF4512C50
:102F60008C169D0650F56C167D0638F5C819D909E2
:102F700080910F02909110028C179D07F0F48091C0
:102F8000110290911202E816F906BCF0809113022A
:102F9000909114028E159F0584F0809115029091F6
:102FA0001602081719074CF0809117029091180229
:102FB000C52DD1E08017910714F4D0E0C0E085E57D
:102FC00096E00E946A13852D90E00E946C1388E6BB
:102FD00096E00E946A138D2F90E00E946C138CE79C
:102FE00096E00E946A138C2F90E00E946C1382E698
:102FF00095E00E946A13C6010E94861288E695E059
:103000000E946A13C7010E946C1381ED92E10E9435
:103010006A138091211B9091221B0E94B61281E7B6
:1030200095E00E946A138091171B9091181B0E94D3
:103030007A138BE795E00E946A138091291B909187
:103040002A1B0E94B61280E895E00E946A138091C4
:103050001F1B9091201B0E947A1386EE92E10E9422
:103060006A138091271B9091281B0E94B61288E852
:1030700095E00E946A1380911D1B90911E1B0E9477
:103080007A1380E995E00E946A138091251B909144
:10309000261B0E94B61285E995E00E946A13809172
:1030A0001B1B90911C1B0E947A138BED92E10E94D6
:1030B0006A138091231B9091241B0E94B6128DE904
:1030C00095E00E946A138091191B90911A1B0E942F
:1030D0007A138DE896E00E946A1380911102909114
:1030E0001202C816D90644F081E0209113023091F3
:1030F00014022C153D050CF480E090E00E946C1346
:103100008AEB96E00E946A1380911102909112025C
:10311000E816F90644F081E0209113023091140280
:103120002E153F050CF480E090E00E946C1387EEB2
:1031300096E00E946A138091150290911602A816DB
:10314000B90644F081E020911702309118022A1547
:103150003B050CF480E090E00E946C138AE197E05C
:103160000E946A13809115029091160208171907A0
:1031700044F081E0209117023091180220173107A6
:103180000CF480E090E00E946C138DE497E00E94C4
:103190006A132091291B30912A1B8091271B909143
:1031A000281B8217930740F481E04091251B509122
:1031B000261B4217530708F080E090E00E946C1332
:1031C00082E697E00E946A132091291B30912A1B06
:1031D0008091271B9091281B281B390B81E090E0E0
:1031E00040910F02509110024217530710F090E0E7
:1031F00080E00E946C1388E897E00E946A13209197
:103200001F1B3091201B80911D1B90911E1B82174C
:10321000930740F481E040911B1B50911C1B421707
:10322000530708F080E090E00E946C138DE997E06E
:103230000E946A1320911F1B3091201B80911D1B3F
:1032400090911E1B281B390B81E090E040910F02EA
:10325000509110024217530710F090E080E0DF9188
:10326000CF911F910F91FF90EF90DF90CF90BF9083
:10327000AF909F908F907F906F905F900C946C13A5
:103280005F926F927F928F929F92AF92BF92CF92F6
:10329000DF92EF92FF920F931F93CF93DF9303E29E
:1032A0001BE125E23BE147E25BE169E27BE187E28A
:1032B0009DE10E9423154091251B5091261B609192
:1032C000271B7091281B8091291B90912A1B0E941B
:1032D00047029093221B8093211B09E11BE12BE104
:1032E0003BE14DE15BE16FE17BE185EE9CE10E941A
:1032F000231560901B1B70901C1BE0901D1BF09011
:103300001E1B80901F1B9090201BA301B701C401BE
:103310000E9447026C019093181B8093171B009129
:10332000231B1091241BC091191BD0911A1BA09034
:10333000211BB090221B8091271B9091281B20916C
:10334000291B30912A1B2817390770F54091251B3E
:103350005091261B4817590738F5821B930B209173
:103360002D1B30912E1B28173907F0F48091311B4B
:103370009091321B08171907BCF08091351B909172
:10338000361B8017910784F08091391B90913A1B6E
:10339000A816B9064CF05524539480913D1B90918A
:1033A0003E1B8A159B050CF4512C8E149F0450F57E
:1033B0006E147F0438F5E818F90880912B1B909162
:1033C0002C1B8E159F05F0F480912F1B9091301BC4
:1033D000C817D907BCF08091331B9091341B8C1710
:1033E0009D0784F08091371B9091381BC816D90631
:1033F0004CF0FF24F39480913B1B90913C1B8C1567
:103400009D050CF4F12C48018C1A9D0A97FE03C00F
:1034100091948194910824E6821691041CF4EF2C77
:10342000511001C0E12C83EC97E00E946A13852DB6
:1034300090E00E946C1383ED97E00E946A138F2D39
:1034400090E00E946C1384EE97E00E946A138E2D28
:1034500090E00E946C1382E695E00E946A13C80116
:103460000E94861288E695E00E946A13CE010E94AF
:103470006C1381ED92E10E946A138091211B90915F
:10348000221B0E94B61281E795E00E946A13809188
:10349000171B9091181B0E947A138BE795E00E94EE
:1034A0006A138091291B90912A1B0E94B61280E812
:1034B00095E00E946A1380911F1B9091201B0E942F
:1034C0007A1386EE92E10E946A138091271B9091F5
:1034D000281B0E94B61288E895E00E946A1380912A
:1034E0001D1B90911E1B0E947A1380E995E00E949B
:1034F0006A138091251B9091261B0E94B61285E9C4
:1035000095E00E946A1380911B1B90911C1B0E94E6
:103510007A138BED92E10E946A138091231B9091A4
:10352000241B0E94B6128DE995E00E946A138091D7
:10353000191B90911A1B0E947A1381ED92E10E944F
:103540006A138091211B9091221B0E94B61281E781
:1035500095E00E946A138091171B9091181B0E949E
:103560007A1382EF97E00E946A138091311B909149
:10357000321B0817190744F081E02091351B309168
:10358000361B201731070CF480E090E00E946C138A
:103590008FE198E00E946A1380912F1B9091301B5D
:1035A000C817D90744F081E02091331B3091341BB8
:1035B0002C173D070CF480E090E00E946C138CE423
:1035C00098E00E946A138091391B90913A1BA816CB
:1035D000B90644F081E020913D1B30913E1B2A1535
:1035E0003B050CF480E090E00E946C138FE798E0BC
:1035F0000E946A138091371B9091381BC816D90618
:1036000044F081E020913B1B30913C1B2C153D0583
:103610000CF480E090E00E946C1382EB98E00E9432
:103620006A132091271B3091281B8091291B9091B0
:103630002A1B8217930740F481E04091251B50918B
:10364000261B4217530708F080E090E00E946C139D
:1036500087EC98E00E946A132091271B3091281B69
:103660008091291B90912A1B281B390B81E090E047
:1036700040912D1B50912E1B4217530710F090E0E4
:1036800080E00E946C1388EE98E00E946A132091FB
:103690001D1B30911E1B80911F1B9091201B8217B8
:1036A000930740F481E040911B1B50911C1B421773
:1036B000530708F080E090E00E946C138DEF98E0D3
:1036C0000E946A1320911D1B30911E1B80911F1BAD
:1036D0009091201B281B390B81E090E040912B1B1F
:1036E00050912C1B4217530710F090E080E00E948D
:1036F0006C138EE199E00E946A1381E090E024E669
:103700008216910414F090E080E0DF91CF911F9138
:103710000F91FF90EF90DF90CF90BF90AF909F9070
:103720008F907F906F905F900C946C130F931F930A
:1037300003E21BE125E23BE147E25BE169E27BE179
:1037400087E29DE10E9423154091251B5091261B85
:103750006091271B7091281B8091291B90912A1B37
:103760000E9447029093221B8093211B09E11BE1D9
:103770002BE13BE14DE15BE16FE17BE185EE9CE11B
:103780000E94231540911B1B50911C1B60911D1B17
:1037900070911E1B80911F1B9091201B0E9447025D
:1037A0009093181B8093171B86E499E00E94BC122B
:1037B00081E491E10E946A138091211B9091221B68
:1037C0000E94B6128AE599E00E946A1389E49EE09D
:1037D0000E946A138091291B90912A1B0E94B612A5
:1037E0008CE599E00E946A1389EB99E00E946A13C4
:1037F0008091271B9091281B0E94B6128CE599E0BE
:103800000E946A138EEB99E00E946A138091251B37
:103810009091261B0E94B6128CE599E00E946A13D3
:103820008AE491E10E946A138091231B9091241BEA
:103830000E94B6128CE599E00E946A138CE599E02B
:103840000E94BC128EE599E00E94BC1281E491E1D5
:103850000E946A138091171B9091181B0E94B61248
:103860008AE599E00E946A1389E49EE00E946A1347
:1038700080911F1B9091201B0E94B6128CE599E04D
:103880000E946A1389EB99E00E946A1380911D1BC4
:1038900090911E1B0E94B6128CE599E00E946A135B
:1038A0008EEB99E00E946A1380911B1B90911C1B68
:1038B0000E94B6128CE599E00E946A138AE491E1B5
:1038C0000E946A138091191B90911A1B0E94B612D4
:1038D0008CE599E00E946A138CE599E00E94BC1285
:1038E00083E799E00E94BC128DE899E00E946A1378
:1038F00080911D1B90911E1B20911F1B3091201B3E
:10390000821B930B0E947A1386E999E00E946A1346
:1039100080911D1B90911E1B20911B1B30911C1B25
:10392000821B930B0E947A138FE999E00E94BC12CC
:103930008DE899E00E946A138091271B9091281BC3
:103940002091291B30912A1B821B930B0E947A1312
:1039500086E999E00E946A138091271B9091281BA9
:103960002091251B3091261B821B930B0E947A13FA
:103970006AEF70E080E090E00E948F031F910F914A
:103980000895CF92DF92EF92FF920F931F93CF9300
:10399000DF93EC0166E470E082EE9CE10E94F40AA1
:1039A00062E870E08FED9CE10E94F40ABE01DD0F39
:1039B000880B990B0E948F036AE570E082EE9CE110
:1039C0000E94F40A6AE570E08FED9CE10E94F40A1F
:1039D00003E21BE125E23BE147E25BE169E27BE1D7
:1039E00087E29DE10E94231509E11BE12BE13BE108
:1039F0004DE15BE16FE17BE185EE9CE10E942315E7
:103A00004091251B5091261B6091271B7091281B0C
:103A10008091291B90912A1B0E9447026C01909370
:103A2000221B8093211B40911B1B50911C1B6091FA
:103A30001D1B70911E1B80911F1B9091201B0E94CB
:103A400047028C019093181B8093171BC091231B76
:103A5000D091241BE090191BF0901A1B89E29EE084
:103A60000E946A138091291B90912A1B0E94B61212
:103A700088EB99E00E946A138091271B9091281B84
:103A80000E94B6128DEB99E00E946A138091251B6B
:103A90009091261B0E94B61289E491E10E946A135C
:103AA000CE010E94861280E491E10E946A13C60151
:103AB0000E946C138EE39EE00E946A1380911F1B8C
:103AC0009091201B0E94B61288EB99E00E946A1325
:103AD00080911D1B90911E1B0E94B6128DEB99E0E8
:103AE0000E946A1380911B1B90911C1B0E94B612AE
:103AF00089E491E10E946A13C7010E94861280E462
:103B000091E10E946A13C8010E946C1382EC99E053
:103B10000E946A138091311B9091321B0E94861281
:103B200089ED99E00E946A138091351B9091361BB4
:103B30000E94861280EE99E00E946A138091391BE0
:103B400090913A1B0E94861289EE99E00E946A13B6
:103B500080913D1B90913E1B0E94861282EF99E05E
:103B60000E946A1380912D1B90912E1B0E946C1352
:103B70008BEF99E00E946A1380912F1B9091301B6C
:103B80000E94861289ED99E00E946A138091331B8E
:103B90009091341B0E94861280EE99E00E946A1375
:103BA0008091371B9091381B0E94861289EE99E014
:103BB0000E946A1380913B1B90913C1B0E948612CD
:103BC00082EF99E00E946A1380912B1B90912C1B2D
:103BD0000E946C138091271B9091281B2091291B18
:103BE00030912A1B2817390768F54091251B509101
:103BF000261B4817590730F5821B930B20912D1B6C
:103C000030912E1B28173907E8F48091311B9091D1
:103C1000321BC817D907B4F08091351B9091361B21
:103C20008C179D077CF08091391B90913A1BC81628
:103C3000D90644F0D1E080913D1B90913E1B8C153C
:103C40009D050CF4D0E080911D1B90911E1B2091CE
:103C50001F1B3091201B2817390768F540911B1B4B
:103C600050911C1B4817590730F5821B930B20916C
:103C70002B1B30912C1B28173907E8F480912F1B40
:103C80009091301BE816F906B4F08091331B9091A7
:103C9000341B8E159F057CF08091371B9091381B4B
:103CA0000817190744F0C1E080913B1B90913C1B21
:103CB000801791070CF4C0E083E19AE00E946A1338
:103CC0008D2F90E00E946C1382E29AE00E946A13AA
:103CD0008C2F90E00E946C13DD2349F1C1112CC0A0
:103CE000C1E0D0E080E19CE00E946A1382E39AE0A8
:103CF000C330D10561F08CE39AE0C130D10539F0D1
:103D000088E49AE0C230D10511F085E59AE00E947E
:103D1000BC1280E69AE00E94BC12CE01DF91CF91E6
:103D20001F910F91FF90EF90DF90CF900895CC23DB
:103D300031F0C2E0D0E0D6CFC3E0D0E0D3CFD0E0C6
:103D4000C0E0D0CFCF92DF92EF92FF92CF93DF937C
:103D5000CDB7DEB7E2970FB6F894DEBF0FBECDBF8A
:103D6000AE014D5C5F4FFE0131968091751D86332B
:103D700008F0865320917B00982F9870277F922B14
:103D800090937B0020911C0290E4299F90011124C4
:103D90008770822B80937C0080917A00806480936E
:103DA0007A0080917A0086FDFCCF80917800909116
:103DB0007900819391934E175F07B9F688E190E0FF
:103DC000FE01319630E020E041E02817390784F405
:103DD000A081B181E280F380EA16FB062CF4F18227
:103DE000E082B383A28340E02F5F3F4F3296EDCF56
:103DF000411102C0019721F78091771D9091781DA4
:103E0000A091791DB0917A1D883324E09207A10515
:103E1000B10591F5A98DBA8D28E833E10E940F48CC
:103E20002FEF33E040E050E00E943144CA01B90175
:103E30000E94FB4220E030E04AE754E40E947345D0
:103E40002EE03DE24AE95FEB0E944F4622EF32ED61
:103E50004DED51E40E945A430E94E545CB01E296A4
:103E60000FB6F894DEBF0FBECDBFDF91CF91FF90AC
:103E7000EF90DF90CF900895863B2EE49207A10546
:103E8000B10509F5A98DBA8D28E833E10E940F48E4
:103E90002FEF33E040E050E00E943144CA01B90105
:103EA0000E94FB4220E030E04AE754E40E94734560
:103EB00021EE3AE744E95FEB0E944F462AEF3EE7E6
:103EC00041E752E4C7CF8E3A21E09207A105B10540
:103ED00009F5A98DBA8D28E833E10E940F482FEF2C
:103EE00033E040E050E00E943144CA01B9010E9431
:103EF000FB4220E030E04AE754E40E9473452BE89F
:103F00003CE647E85FEB0E944F462EEA37E441E487
:103F100051E4A0CF84399848A140B10509F09ECF63
:103F2000A98DBA8D28E833E10E940F482FEF33E0C6
:103F300040E050E00E943144CA01B9010E94FB42B6
:103F40006B017C0120E030E04FEA54E40E94F4422F
:103F500087FD27C020E030E44EE455E4C701B601F8
:103F60000E9442461816ECF020E030EA4CE854E497
:103F7000C701B6010E94944420E030E04AE754E4CF
:103F80000E94734520E030E849E053E40E94734505
:103F90009B01AC0160E070E080E89FE30E94734504
:103FA0005BCF70E060E05ACF4F925F926F927F924A
:103FB0008F929F92AF92BF92CF92DF92EF92FF9239
:103FC0000F931F93CF93DF93CDB7DEB72C970FB628
:103FD000F894DEBF0FBECDBF0E94420FC090AA1C56
:103FE000D090AB1CE090AC1CF090AD1C21E030E018
:103FF0003A83298320E030E0A901C701B6010E947D
:10400000424687FF02C01A82198201E010E020E0D8
:1040100030E0A901C701B6010E94F44287FD02C049
:1040200010E000E069817A81601B710B072E000CA3
:10403000880B990B0E94FB426D837E838F83988748
:10404000A7019601C701B6010E945A432B013C010A
:10405000C090A21CD090A31CE090A41CF090A51CC2
:10406000A7019601C701B6010E945A43A30192011C
:104070000E9495440E94A5469B01AC018090A61C1D
:104080009090A71CA090A81CB090A91C6D817E8167
:104090008F8198850E945A439B01AC01C501B401F0
:1040A0000E94144521EE3EE245E652E40E945A4346
:1040B0006093BA1C7093BB1C8093BC1C9093BD1C76
:1040C000A5019401C501B4010E945A43A3019201C4
:1040D0000E9495440E94A5469B01AC01C701B60110
:1040E0000E941445905821EE3EE245E652E40E94BB
:1040F0005A436093BE1C7093BF1C8093C01C909366
:10410000C11C0E94C2036B017C018091CE1C909166
:10411000CF1CA091D01CB091D11CA7019601281BE7
:10412000390B4A0B5B0BCA01B9010E94F9422FE619
:1041300032E143E85AE30E945A434B015C01C092CA
:10414000CE1CD092CF1CE092D01CF092D11C80915A
:10415000D21C9091D31CA091D41CB091D51C898302
:104160009A83AB83BC834090BA1C5090BB1C609078
:10417000BC1C7090BD1C2091AE1C3091AF1C4091B6
:10418000B01C5091B11CC501B4010E945A4320914A
:10419000C21C3091C31C4091C41C5091C51C0E948C
:1041A0009544A30192010E9494446B017C0120E09C
:1041B00030E044E353E40E94424618163CF420E009
:1041C00030E044EB53E4C701B601EDCF20E030E02E
:1041D00044E353ECC701B6010E94F44287FF0BC0D1
:1041E00020E030E044EB53E4C701B6010E9495445F
:1041F0006B017C01EBCF29813A814B815C8160E0CE
:1042000070E080E89FE30E94944469877A878B87F7
:104210009C87A7019601C301B2010E9495442981A0
:104220003A814B815C810E945A436B017C01298554
:104230003A854B855C85C301B2010E945A439B01BC
:10424000AC01C701B6010E9495446B017C0120E0DE
:1042500030E044E353E40E94424618164CF420E058
:1042600030E044EB53E4C701B6010E949444EDCF23
:1042700020E030E044E353ECC701B6010E94F44271
:1042800087FF0BC020E030E044EB53E4C701B601E8
:104290000E9495446B017C01EBCFC092C21CD0926E
:1042A000C31CE092C41CF092C51C4090BE1C5090F0
:1042B000BF1C6090C01C7090C11C2091B21C30913A
:1042C000B31C4091B41C5091B51C6D817E818F81CF
:1042D00098850E945A43A50194010E945A43209157
:1042E000C61C3091C71C4091C81C5091C91C0E942B
:1042F0009544A30192010E9494446B017C0120E04B
:1043000030E044EB52E40E94424618163CF420E0B0
:1043100030E044E353E4C701B601EDCF20E030E0E4
:1043200044EB52ECC701B6010E94F44287FF0BC078
:1043300020E030E044E353E4C701B6010E94954415
:104340006B017C01EBCFA7019601C301B2010E9472
:10435000954429813A814B815C810E945A436B01CB
:104360007C01A301920169857A858B859C850E94D9
:104370005A439B01AC01C701B6010E9495446B01F1
:104380007C0120E030E044EB52E40E9442461816E3
:104390004CF420E030E044E353E4C701B6010E944E
:1043A0009444EDCF20E030E044EB52ECC701B6017D
:1043B0000E94F44287FF0BC020E030E044E353E466
:1043C000C701B6010E9495446B017C01EBCFC092FE
:1043D000C61CD092C71CE092C81CF092C91C209148
:1043E000B61C3091B71C4091B81C5091B91CC50146
:1043F000B4010E945A432091CA1C3091CB1C4091B9
:10440000CC1C5091CD1C0E9495446093CA1C7093A3
:10441000CB1C8093CC1C9093CD1C2C960FB6F8949B
:10442000DEBF0FBECDBFDF91CF911F910F91FF90E7
:10443000EF90DF90CF90BF90AF909F908F907F9044
:104440006F905F904F9008950E94D41F6091C61C9A
:104450007091C71C8091C81C9091C91C0E94E545B1
:10446000CB0108950E94D41F6091CA1C7091CB1C8F
:104470008091CC1C9091CD1C0E94E545CB01089504
:104480000E9432229093501B80934F1B20914D1B12
:1044900030914E1BA901415051098417950784F4AE
:1044A00062E870E082EE9CE10E94F40A60E570E050
:1044B0008FED9CE10E94F40A8BE89AE00C94BC1208
:1044C000A9014F5F5F4F481759077CF464E670E01D
:1044D00082EE9CE10E94F40A62E370E08FED9CE1C1
:1044E0000E94F40A8EE99AE0E9CF281B390B37FFC6
:1044F00003C0319521953109223031057CF464EBFC
:1045000070E082EE9CE10E94F40A70E060E08FEDC2
:104510009CE10E94F40A81EB9AE0D0CF08958F923B
:104520009F92AF92BF92CF92DF92EF92FF92CF9382
:10453000DF930E94A21E181619060CF4A9C1C5E04B
:10454000D0E00E94A21E6AE070E080E090E00E944D
:104550008F032197B1F760E570E08FED9CE10E9439
:10456000F40A64E670E082EE9CE10E94F40A44E6FC
:1045700050E061E070E084EF91E00E940F0D6CE884
:1045800070E082EE9CE10E94F40A6CE870E08FED2E
:104590009CE10E94F40AC0914D1BD0914E1BC65A5B
:1045A000DF4F0E9432228C179D07BCF40E94D41F5B
:1045B00084EC9AE00E946A130E9432220E948612C2
:1045C0008CEF9AE00E946A1380914D1B90914E1BD4
:1045D000865A9F4F0E946C13DECF64EB70E082EE30
:1045E0009CE10E94F40A70E060E08FED9CE10E9483
:1045F000F40A80914D1B90914E1B865A9F4F9093C9
:104600004E1B80934D1B0E94C2036B017C014B012A
:104610005C0128EB820E2BE0921EA11CB11C0E94B3
:10462000C2036C197D098E099F09683B7B40810597
:10463000910548F588E09BE00E946A130E94C2033E
:104640006C197D098E099F094AE00E94421281E59A
:1046500092E00E9435128FE29BE00E946A130E9452
:10466000C203A5019401261B370B480B590BCA0145
:10467000B9014AE00E94421281E592E00E9435129F
:104680000E944022CCCF80E49BE00E94BC1268E2F2
:1046900070E082EE9CE10E94F40A68E270E08FED27
:1046A0009CE10E94F40AC0914D1BD0914E1BCA554B
:1046B000D1090E943222C817D907BCF40E94D41F26
:1046C00087E59BE00E946A130E9432220E948612B4
:1046D0008CEF9AE00E946A1380914D1B90914E1BC3
:1046E0008A5591090E946C13DECF64EB70E082EE74
:1046F0009CE10E94F40A70E060E08FED9CE10E9472
:10470000F40A80914D1B90914E1B8A55910990930C
:104710004E1B80934D1B0E94C2036B017C010E94C3
:10472000C2036C197D098E099F0968357B4181059B
:10473000910518F40E944022F2CF68E270E082EE08
:104740009CE10E94F40A68E270E08FED9CE10E9417
:10475000F40AC0914D1BD0914E1BCA55D1090E943D
:104760003222C817D907BCF40E94D41F8EE89BE000
:104770000E946A130E9432220E9486128CEF9AE0F5
:104780000E946A1380914D1B90914E1B8A5591098E
:104790000E946C13DECF64EB70E082EE9CE10E941D
:1047A000F40A70E060E08FED9CE10E94F40A8091D1
:1047B0004D1B90914E1B8A55910990934E1B8093EF
:1047C0004D1B0E94CD0C9093541B8093531BE09182
:1047D000531BF091541B84819581019719F40E9419
:1047E0004022EFCF6CE870E082EE9CE10E94F40A78
:1047F00068E270E08FED9CE10E94F40A68EE73E0DD
:1048000080E090E00E948F036CE870E082EE9CE113
:104810000E94F40A6CE870E08FED9CE10E94F40ABB
:10482000C0914D1BD0914E1BC65ADF4F0E943222C1
:104830008C179D07BCF40E94D41F85EC9BE00E945E
:104840006A130E9432220E9486128CEF9AE00E9424
:104850006A1380914D1B90914E1B865A9F4F0E9468
:104860006C13DECF6CE870E082EE9CE10E94F40AEB
:1048700068E270E08FED9CE10E94F40A80914D1B8C
:1048800090914E1B865A9F4F90934E1B80934D1BC9
:10489000DF91CF91FF90EF90DF90CF90BF90AF90DE
:1048A0009F908F9008950F931F93CF93DF938DEF79
:1048B0009BE00E94BC1290E080E00E94C11CEC01D1
:1048C00088E09CE00E946A13CE010E946C1344E6CB
:1048D00050E061E070E088EE93E00E940F0D0E94CE
:1048E000D41F209709F49FC084E690E00E94C11C69
:1048F0008C01C817D90709F059C083E39CE00E94D6
:10490000BC12C330D10509F0BCC084EE9CE00E940B
:10491000BC128DEF9CE00E946A1381E19DE00E9431
:104920006A1380914D1B90914E1B0E94861284EF5A
:1049300099E10E946A130E9432220E946C1369E17D
:1049400070E082EE9CE10E94F40A69E170E08FED74
:104950009CE10E94F40A44E650E063E070E088EED7
:1049600093E00E940F0DC0914D1BD0914E1BCF5A6A
:10497000D1090E943222C817D9070CF059C00E94F1
:10498000D41F82E29DE00E946A130E9432220E949C
:1049900086128CEF9AE00E946A1380914D1B9091D1
:1049A0004E1B8F5A91090E946C13DDCF89E59CE064
:1049B0000E94BC128AE69CE00E946A13CE010E940B
:1049C0006C1388E79CE00E946A13C8010E946C1374
:1049D0006CE870E082EE9CE10E94F40A68E270E00C
:1049E0008FED9CE10E94F40A6EE571E080E090E0BA
:1049F0000E948F036AE570E082EE9CE10E94F40A57
:104A00006AE570E08FED9CE10E94F40A90E080E09E
:104A10000E94C11CEC0188EB9CE00E946A13CE014D
:104A20000E946C136ECF86E89CE00E94BC12D0CF2F
:104A30006CE870E082EE9CE10E94F40A68E270E0AB
:104A40008FED9CE10E94F40A68EE73E080E090E054
:104A50000E948F0380914D1B90914E1B8F5A91099C
:104A600090934E1B80934D1B1092471B1092481B36
:104A70001092491B10924A1BDF91CF911F910F9109
:104A80000895C130D10509F05DC08FE49DE00E941A
:104A9000BC126CE870E082EE9CE10E94F40A68E2CD
:104AA00070E08FED9CE10E94F40A66E970E080E01E
:104AB00090E00E948F0368E270E082EE9CE10E9429
:104AC000F40A68E270E08FED9CE10E94F40AC09164
:104AD0004D1BD0914E1BCA55D1090E943222C817D6
:104AE000D907BCF40E94D41F85E69DE00E946A139A
:104AF0000E9432220E9486128CEF9AE00E946A1372
:104B000080914D1B90914E1B8A5591090E946C1308
:104B1000DECF6CE870E082EE9CE10E94F40A68E26D
:104B200070E08FED9CE10E94F40A60ED77E080E098
:104B300090E00E948F0380914D1B90914E1B8A55EF
:104B400091098ECF229709F063C08BE99DE00E9406
:104B5000BC126CE870E082EE9CE10E94F40A68E20C
:104B600070E08FED9CE10E94F40A66E970E080E05D
:104B700090E00E948F030E94322290934E1B8093FC
:104B80004D1B6CE870E082EE9CE10E94F40A6CE838
:104B900070E08FED9CE10E94F40AC0914D1BD09112
:104BA0004E1BC65ADF4F0E9432228C179D07BCF461
:104BB0000E94D41F82EB9DE00E946A130E94322261
:104BC0000E9486128CEF9AE00E946A1380914D1B1E
:104BD00090914E1B865A9F4F0E946C13DECF6CE85B
:104BE00070E082EE9CE10E94F40A68E270E08FEDD2
:104BF0009CE10E94F40A60ED77E080E090E00E9482
:104C00008F0380914D1B90914E1B865A9F4F28CF4A
:104C100089EE9DE00E94BC1268E270E08FED9CE19D
:104C20000E94F40A6CE870E082EE9CE10E94F40AB3
:104C30006EEE72E080E090E0DF91CF911F910F91D6
:104C40000C948F03CF92DF92EF92FF920F931F93FA
:104C5000CF93DF9303E21BE125E23BE147E25BE117
:104C600069E27BE187E29DE10E9423154091251BCB
:104C70005091261B6091271B7091281B8091291B46
:104C800090912A1B0E9447029093221B8093211B24
:104C900009E11BE12BE13BE14DE15BE16FE17BE1F0
:104CA00085EE9CE10E94231540911B1B50911C1B1B
:104CB00060911D1B70911E1B80911F1B9091201BEA
:104CC0000E9447028C019093181B8093171BC09180
:104CD000231BD091241BE090191BF0901A1BC0904D
:104CE000211BD090221B81E09EE00E94BC1282E238
:104CF0009EE00E946A138091291B90912A1B0E94BA
:104D0000B61288EB99E00E946A138091271B90915C
:104D1000281B0E94B6128DEB99E00E946A138091C5
:104D2000251B9091261B0E94B61289E491E10E94F6
:104D30006A13CE010E94861280E491E10E946A13F8
:104D4000C6010E946C1387E39EE00E946A13809163
:104D50001F1B9091201B0E94B61288EB99E00E94C5
:104D60006A1380911D1B90911E1B0E94B6128DEB41
:104D700099E00E946A1380911B1B90911C1B0E945A
:104D8000B61289E491E10E946A13C7010E9486125B
:104D900080E491E10E946A13C8010E946C138DE4C3
:104DA0009EE00E946A1380911102909112020E946B
:104DB000861284E69EE00E946A138091130290910D
:104DC00014020E94861283E79EE00E946A1380917B
:104DD0001502909116020E94861284E89EE00E94BD
:104DE0006A1380911702909118020E94861285E939
:104DF0009EE00E946A1380910F02909110020E941F
:104E00006C138091291B90912A1B2091271B3091B4
:104E1000281B2817390768F54091251B5091261B40
:104E20004817590730F5821B930B20910F023091E0
:104E3000100228173907E8F48091110290911202AC
:104E4000C817D907B4F080911302909114028C17FF
:104E50009D077CF08091150290911602C816D90624
:104E600044F0D1E080911702909118028C159D05B5
:104E70000CF4D0E080911F1B9091201B20911D1BF2
:104E800030911E1B2817390768F540911B1B509164
:104E90001C1B4817590730F5821B930B20910F02FA
:104EA0003091100228173907E8F48091110290918F
:104EB0001202E816F906B4F08091130290911402E0
:104EC0008E159F057CF080911502909116020817AF
:104ED000190744F0C1E080911702909118028017E1
:104EE00091070CF4C0E081EB9EE00E946A138D2FC5
:104EF00090E00E946C1383EC9EE00E946A138C2F5A
:104F000090E00E946C1386ED9EE00E946A138091EF
:104F1000291B90912A1B2091271B3091281B821B53
:104F2000930B0E947A1380EE9EE00E946A13809198
:104F30001F1B9091201B20911D1B30911E1B821B5B
:104F4000930B0E947A13D11102C0CC2399F08AEE00
:104F50009EE00E94BC126AE570E082EE9CE10E9435
:104F6000F40A6AE570E08FED9CE10E94F40A8EEF8E
:104F70009EE0EFCF82E19FE00E94BC1203E21BE1C2
:104F800025E23BE147E25BE169E27BE187E29DE10B
:104F90000E9423154091251B5091261B6091271BD1
:104FA0007091281B8091291B90912A1B0E94470217
:104FB0009093221B8093211B09E11BE12BE13BE134
:104FC0004DE15BE16FE17BE185EE9CE10E94231501
:104FD00040911B1B50911C1B60911D1B70911E1B4F
:104FE00080911F1B9091201B0E9447029093181BD9
:104FF0008093171BE091231BF091241B2091191B18
:1050000030911A1B6091211B7091221B4091070265
:1050100050910802E417F507ACF0A0910902B09195
:105020000A02AE17BF0774F0E0910B02F0910C0278
:105030006E177F073CF0E0910D02F0910E02E6172B
:10504000F707E4F4241735070CF475C04091090202
:1050500050910A02421753070CF46DC020910B02C5
:1050600030910C02821793070CF465C020910D0259
:1050700030910E02281739070CF45DC083E29FE0DF
:105080000E94BC1284E39FE00E94BC126AE570E0BB
:1050900082EE9CE10E94F40A6AE570E08FED9CE1EB
:1050A0000E94F40A44E650E062E070E084EF91E090
:1050B0000E940F0D84E19DE00E946A1380914D1BB8
:1050C00090914E1B0E94861284EF99E10E946A1310
:1050D0000E9432220E946C130E94C2036B017C0169
:1050E00020E7C20E27E1D21EE11CF11C0E94C20380
:1050F0006C157D058E059F0528F40E9440220E94B4
:10510000D41FF4CF86E49FE00E94BC1244EF51E02C
:1051100061E070E088EE93E00E940F0D6AE570E0B8
:105120008FED9CE10E94F40A6AE570E082EE9CE15A
:105130000E94F40AE7CF8EE59FE0DF91CF911F91A7
:105140000F91FF90EF90DF90CF900C94BC120F93D3
:105150001F93CF93DF93EC0188819981009759F0D9
:105160002A813B812617370730F081E0DF91CF910C
:105170001F910F9108958B016F5F7F4F0E943B49F4
:10518000009759F0998388831B830A832C813D8182
:10519000232B59F7FC011082E8CF80E0E7CF85EDA3
:1051A0008093BC008091A91B9091AA1BA091AB1B7E
:1051B000B091AC1B0796A11DB11D23E0B695A79534
:1051C000979587952A95D1F72091BC0024FD03C0BF
:1051D0001092A71B08954091A91B5091AA1B6091A2
:1051E000AB1B7091AC1B452B462B472B69F30097EB
:1051F000A105B10541F02AE22A95F1F700C0019717
:10520000A109B109E1CF8091A81B0C9422060F934C
:105210001F93CF93DF938C01EB010E941B44888383
:10522000C80101960E941B448983CE01DF91CF9172
:105230001F910F910895CF93DF9300D000D0CDB789
:10524000DEB78DE69FE00E94BC12BE016D5F7F4F0E
:1052500090E080E00E940729BE016B5F7F4F82E2F1
:1052600090E00E94072983E99FE00E946A138B81E6
:105270009C810E94861281EA9FE00E946A138D81C0
:105280009E810E946C13BE016D5F7F4F82E090E0B3
:105290000E940729BE016B5F7F4F84E290E00E946D
:1052A000072985EA9FE00E946A138B819C810E94F6
:1052B000861281EA9FE00E946A138D819E810E947E
:1052C0006C13BE016D5F7F4F84E090E00E94072960
:1052D000BE016B5F7F4F86E290E00E94072983EB5F
:1052E0009FE00E946A138B819C810E94861281EA52
:1052F0009FE00E946A138D819E810E946C13BE0103
:105300006D5F7F4F86E090E00E940729BE016B5FD2
:105310007F4F88E290E00E9407298FEB9FE00E9478
:105320006A138B819C810E94861281EA9FE00E9411
:105330006A138D819E810E946C13BE016D5F7F4F49
:1053400088E090E00E940729BE016B5F7F4F8AE2F0
:1053500090E00E9407298BEC9FE00E946A138B81EA
:105360009C810E94861281EA9FE00E946A138D81CF
:105370009E810E946C13BE016F5F7F4F8AE090E0B8
:105380000E94072987EE9FE00E946A1389819A8113
:105390000E946C13BE016F5F7F4F8CE090E00E9413
:1053A000072988EF9FE00E946A1389819A810E94F1
:1053B0006C13BE016F5F7F4F8EE090E00E94072963
:1053C00086E090E10E946A1389819A810E946C13A1
:1053D000BE016F5F7F4F80E190E00E94072982E16C
:1053E00090E10E946A1389819A810E946C13BE0128
:1053F0006F5F7F4F82E190E00E9407298AE196E08B
:105400000E946A1389819A810E946C13BE016F5FAA
:105410007F4F84E190E00E94072980E290E10E94A2
:105420006A1389819A810E946C13BE016F5F7F4F5E
:1054300086E190E00E94072982EC95E00E946A13C1
:1054400089819A810E946C13BE016F5F7F4F88E152
:1054500090E00E9407298EE290E10E946A13898100
:105460009A810E946C13BE016F5F7F4F8AE190E0CA
:105470000E94072989E097E00E946A1389819A8136
:105480000E946C13BE016F5F7F4F8CE190E00E9421
:1054900007298FE390E10E946A1389819A810E9413
:1054A0006C13BE016F5F7F4F8EE190E00E94072971
:1054B0008BEA96E00E946A1389819A810E946C139C
:1054C000BE016F5F7F4F80E290E00E9407298CE66B
:1054D00097E00E946A1389819A810E946C138EE47E
:1054E00090E10E94BC1226960FB6F894DEBF0FBE64
:1054F000CDBFDF91CF910895FF920F931F93CF936C
:10550000DF93EC018B01FB01F0800E941B44F81635
:1055100021F06F2DCE010E942344F801F1802196E5
:10552000CE010E941B44F81621F06F2DCE010E947F
:105530002344C801DF91CF911F910F91FF900895EF
:10554000CF92DF92EF92FF920F931F93CF93DF934F
:105550001F921F92CDB7DEB78C017B016A0185E7F0
:1055600090E10E946A13C8010E946A138FE890E1DB
:105570000E94BC1281ED9BE10E943105892B39F418
:105580006AE070E080E090E00E948F03F3CF0E9419
:10559000D5047A836983F60171836083BE016F5FEE
:1055A0007F4FC7010E947C2AC8010E946A1381E9CB
:1055B00090E10E946A1389819A810E946C130F9076
:1055C0000F90DF91CF911F910F91FF90EF90DF909F
:1055D000CF9008951F920F920FB60F9211242F9320
:1055E0003F938F939F93AF93BF938091571B90915D
:1055F000581BA091591BB0915A1B3091561B23E0A8
:10560000230F2D3758F50196A11DB11D2093561B70
:105610008093571B9093581BA093591BB0935A1B10
:1056200080915B1B90915C1BA0915D1BB0915E1BF8
:105630000196A11DB11D80935B1B90935C1BA093F1
:105640005D1BB0935E1BBF91AF919F918F913F9176
:105650002F910F900FBE0F901F90189526E8230FE3
:105660000296A11DB11DD2CF1F920F920FB60F92BD
:1056700011240BB60F922F933F934F935F936F9329
:105680007F938F939F93AF93BF93EF93FF938091FB
:10569000131B9091141BA091151BB091161B892B05
:1056A0008A2B8B2BE1F19091121BE091101BF09152
:1056B000111B8081892780838091131B9091141B7B
:1056C000A091151BB091161B181619061A061B0679
:1056D0009CF48091131B9091141BA091151BB09109
:1056E000161B0197A109B1098093131B9093141BFA
:1056F000A093151BB093161BFF91EF91BF91AF9133
:105700009F918F917F916F915F914F913F912F91D9
:105710000F900BBE0F900FBE0F901F9018958091A9
:1057200000020E94CE03E8CF1F920F920FB60F9295
:1057300011240BB60F922F933F934F935F936F9368
:105740007F938F939F93AF93BF93EF93FF9381EDDD
:105750009BE10E944705FF91EF91BF91AF919F910F
:105760008F917F916F915F914F913F912F910F900A
:105770000BBE0F900FBE0F901F9018951F920F92A7
:105780000FB60F9211240BB60F922F938F939F9306
:10579000EF93FF93E091E11BF091E21B8081E09198
:1057A000E71BF091E81B82FD1DC090818091EA1BF0
:1057B0008F5F8F732091EB1B821741F0E091EA1B02
:1057C000F0E0EF52F44E958F8093EA1BFF91EF913A
:1057D0009F918F912F910F900BBE0F900FBE0F9046
:1057E0001F9018958081F2CF1F920F920FB60F92E3
:1057F00011240BB60F922F933F934F935F936F93A8
:105800007F938F939F93AF93BF93EF93FF93809179
:10581000B900887F803609F44DC008F040C0883256
:1058200009F4A7C028F5803109F49BC0C8F4882387
:1058300009F4F7C0883009F494C0FF91EF91BF914B
:10584000AF919F918F917F916F915F914F913F9118
:105850002F910F900BBE0F900FBE0F901F901895B9
:10586000883109F486C0803241F78093A51B14C0AB
:10587000803409F49BC040F48033B9F38833E9F6EF
:105880008093A51B85ECAEC0803509F483C08835B4
:1058900009F494C0883489F60E94CF28CECF883985
:1058A00009F48AC038F5883729F050F4883611F0A9
:1058B000803719F683E08093A71B10920F1B55C009
:1058C000883809F479C0803919F0803809F0B5CFEB
:1058D00080910F1B803208F06FC0E0910F1B81E0B8
:1058E0008E0F80930F1B8091BB00F0E0E151F54ECD
:1058F00080833BC0803B39F0D0F4803A09F477C014
:10590000883A09F09ACF84E08093A71B1092EE1A90
:105910001092ED1AF0E0E0E019958091ED1A8111F6
:105920000FC081E08093ED1A1092CD1A09C0803C1F
:1059300009F4A8CF883C09F4A5CF883B09F07DCFB6
:10594000E091EE1A81E08E0F8093EE1AF0E0E353BF
:10595000F54E80818093BB009091EE1A8091ED1AF4
:1059600029C08091821B8093BB0085EC8093BC0092
:1059700064CF9091A41B8091A31B981758F5E091D8
:10598000A41B81E08E0F8093A41BF0E0ED57F44E32
:105990008081E9CFE091A41B81E08E0F8093A41B4E
:1059A0008091BB00F0E0ED57F44E80839091A41BF2
:1059B0008091A31B9817C8F285E8D8CFE091A41B6B
:1059C00081E08E0F8093A41B8091BB00F0E0ED5727
:1059D000F44E80838091A61B81115ECF81E080937D
:1059E000811B84EA8093BC001092A71B26CF85EC14
:1059F0008093BC001092A71B80910F1B803230F463
:105A0000E0910F1BF0E0E151F54E108260910F1B09
:105A100070E08FEE9AE1F0E0E0E0199510920F1B34
:105A20000CCF1092A51B38CF1F920F920FB60F927A
:105A300011240BB60F922F933F934F935F936F9365
:105A40007F938F939F93AF93BF93EF93FF9348E21E
:105A500051E064E271E090E080E00E94130CFF915D
:105A6000EF91BF91AF919F918F917F916F915F91D6
:105A70004F913F912F910F900BBE0F900FBE0F9043
:105A80001F9018951F920F920FB60F9211240BB60C
:105A90000F922F933F934F935F936F937F938F93C7
:105AA0009F93AF93BF93EF93FF9348EA50E064EA6C
:105AB00070E083E090E00E94130CFF91EF91BF91A2
:105AC000AF919F918F917F916F915F914F913F9196
:105AD0002F910F900BBE0F900FBE0F901F90189537
