:100000000C9414020C9445020C9445020C94450285
:100010000C9445020C9445020C9445020C94450244
:100020000C9445020C9445020C9445020C94450234
:100030000C9445020C94FC290C9445020C94450246
:100040000C9445020C94662C0C9445020C944502C9
:100050000C9445020C9445020C9445020C94B22970
:100060000C9445020C94862A0C945C2A0C9445024C
:100070000C9445020C9445020C9445020C944502E4
:100080000C94382C0C9445020C9445020C944502B7
:100090000C9445020C9445020C9445020C94BC2A25
:1000A0000C9445020C9445020C940A2C0C944502C5
:1000B0000C9445020C9445020C9445020C94DC2BE4
:1000C0000C9445020C9445020C9445020C94450294
:1000D0000C9445020C9445020C9445020C94450284
:1000E0000C944502084AD73B3BCE016E84BCBFFD51
:1000F000C12F3D6C74319ABD56833DDA3D00C77FF8
:1001000011BED9E4BB4C3E916BAAAABE0000008090
:100110003F07634236B79BD8A71A39685618AEBA5C
:10012000AB558C1D3CB7CC5763BD6DEDFD753EF6F0
:10013000177231BF000000803F08000000BE92240B
:1001400049123EABAAAA2ABECDCCCC4C3E00000040
:1001500080BEABAAAAAA3E00000000BF000000803B
:100160003F0000000000084178D3BB4387D1133D16
:10017000190E3CC3BD4282AD2B3E68EC8276BED9DF
:100180008FE1A93E4C80EFFFBE01C4FF7F3F00001E
:10019000000000000C94EE3A0C9488340C94EC02AD
:1001A0000C94AC020C94813D0C94ED020C94080468
:1001B0000C9466070C94E7020C941A3B0C94073CD1
:1001C0000C9402050C94CB020C943A3A0C94C83768
:1001D0000C94E3020C948A3A0C9444040C948738EF
:1001E0000C944D3D0C94AB2D0C94E53C0C94A43B2D
:1001F0000C9480380C940A3A0C94F2320C94350426
:100200000C943E370C94DF020C9472380C94CA04A0
:100210000C94C7020C940F360C94B2020C94EF327B
:100220000C94FB320C94EA370C9458380C944C071D
:100230000C943C070C94D5020C94BF370C94A73B4C
:100240000C944A380C945F380C940D380C94663832
:100250000C9424380C94C1020C94B6020C941638F9
:100260000C94F1020C941D380C94CB370C948A0436
:100270000C946A050C94F0370C94B6370C942B3818
:100280000C94D1020C94F3370C94273B0C94013B53
:100290000C94B9380C9451380C94BE020C941E3A4C
:1002A0000C949E3A0C9493070C9479380C94D902D0
:1002B0000C943D070C94C2070C94BA020C94673C52
:1002C0000C94ED370C945F070243616C63756C61AD
:1002D00074696E67206F6666736574732C20646F33
:1002E000206E6F74206D6F7665204D505536303519
:1002F00030004D505536303530207374617475734D
:100300003A200000000A0B02090C0D0E0807030436
:1003100001000000000000000000000000000000DC
:1003200000000000000000000000000000000012BB
:10033000111000000000000000000000000000009C
:100340000000000000000000000000200023002644
:100350000029002C002F00320000010000030106DC
:1003600001090100002100240027002A002D00308F
:1003700000330001010000040107010A010000220E
:1003800000250028002B002E00310034000201005F
:1003900000050108010B01010210202008081020AF
:1003A0004010204080020102010804020101020401
:1003B00008102040808040201008040201800402C0
:1003C0000180402010080402010804020101020417
:1003D0000810204080010204081020408005050517
:1003E00005070508080808020202020A0A080804AC
:1003F00004040401010101010101010303030303DA
:10040000030303040707070C0C0C0C0C0C0C0C0268
:1004100002020206060606060606060B0B0B0B0B6F
:100420000B0B0B00AB2D813D11241FBECFEFD1E292
:10043000DEBFCDBF00E00CBF16E1A0E0B2E0E0E817
:10044000FAE800E00BBF02C007900D92A235B10799
:10045000D9F729E1A2E5B6E101C01D92A13BB2079F
:10046000E1F712E0C3E1D2E000E006C02197010904
:10047000802FFE010E94F542C231D10780E00807BB
:10048000A9F70E946B2E0C942E450C940000CF927D
:10049000DF92EF92FF920F931F93CF93DF938B0125
:1004A000EA01BC0190E080E00E94D33D26ED39E3F3
:1004B00046EA5EEB0E94343E6B017C01B80190E09D
:1004C00080E00E94D33D27E038E04AEC5FE30E94E1
:1004D000343E9B01AC01C701B6010E946F3F6B0126
:1004E0007C01BE0190E080E00E94D33D24E73EE520
:1004F0004BE35FEB0E94343E9B01AC01C701B601A8
:100500000E946F3F0E94C640CB01DF91CF911F91A7
:100510000F91FF90EF90DF90CF900895815082313E
:1005200008F05AC0E82FF0E08827E656FD4F8F4FBD
:100530000C94F542BA02BE02AC02B202B602EC0260
:10054000C102C702CB02D102D502D902DF02E30207
:10055000EC02E702ED02F102809180008F77809338
:1005600080000895809180008F7DF9CF8091800078
:10057000877FF5CF84B58F7784BD089584B58F7D4F
:10058000FBCF8091B0008F778093B0000895809169
:10059000B0008F7DF9CF809190008F77809390008D
:1005A0000895809190008F7DF9CF80919000877F92
:1005B000F5CF8091A0008F778093A000089580915F
:1005C000A0008F7DF9CF8091A000877FF5CF80912B
:1005D00020018F77809320010895809120018F7DE5
:1005E000F9CF80912001877FF5CF1F93CF93DF93C1
:1005F000282F30E0F901ED5FFC4F8491F901E956B5
:10060000FC4FD491F901E352FC4FC491CC23A9F0E3
:10061000162F81110E948E02EC2FF0E0EE0FFF1FCB
:10062000E358FC4FA591B4918FB7F894EC91111158
:1006300008C0D095DE23DC938FBFDF91CF911F914F
:100640000895DE2BF8CFCF93DF9390E0FC01E956BD
:10065000FC4F249183529C4FFC0184918823D1F05C
:1006600090E0880F991FFC01ED59FC4FA591B491C2
:10067000FC01E358FC4FC591D49161110EC09FB7A6
:10068000F8948C91E22FE0958E238C932881E223BD
:10069000E8839FBFDF91CF9108958FB7F894EC91D5
:1006A000E22BEC938FBFF6CF8230910538F0880FA4
:1006B000991F880F991F05970197F1F708953FB784
:1006C000F89480918D1790918E17A0918F17B0910B
:1006D000901726B5A89B05C02F3F19F00196A11DC4
:1006E000B11D3FBFBA2FA92F982F8827BC01CD017C
:1006F000620F711D811D911D42E0660F771F881FDB
:10070000991F4A95D1F708958F929F92AF92BF9209
:10071000CF92DF92EF92FF926B017C010E945F0308
:100720004B015C01C114D104E104F104B9F00E9451
:100730005F03681979098A099B09683E734081053E
:10074000910580F321E0C21AD108E108F10888EE92
:10075000880E83E0981EA11CB11CE4CFFF90EF909F
:10076000DF90CF90BF90AF909F908F9008952FB75C
:10077000F8946091891770918A1780918B179091E6
:100780008C172FBF08959091000289130DC0E8ECDB
:10079000F2E0E4919FEF90930002E230E1F038F450
:1007A000EE2381F0E13089F060E00C94F502E43052
:1007B00049F110F1E530C1F7909173009D7F90935E
:1007C0007300F2CF10926E00EFCF90916F009D7F7B
:1007D00090936F00E9CF909170009D7F909370008F
:1007E00091E09093B0009091B100987F94609093C5
:1007F000B1001092B300D8CF909171009D7F90937B
:100800007100D2CF909172009D7F90937200CCCFF7
:10081000AF92BF92CF92DF92EF92FF920F931F930E
:10082000CF93DF936C017B018B01040F151FEB014C
:100830005E01AE18BF08C017D10759F06991D60103
:10084000ED91FC910190F081E02DC6011995892B65
:1008500079F7C501DF91CF911F910F91FF90EF9034
:10086000DF90CF90BF90AF900895FC01538D448DE1
:10087000252F30E0842F90E0821B930B541710F04B
:10088000CF96089501970895FC01918D828D981758
:1008900061F0A28DAE0FBF2FB11D5D968C91928D30
:1008A0009F5F9F73928F90E008958FEF9FEF089561
:1008B0000F931F930E94B70360930B1870930C184B
:1008C00080930D1890930E1883E098E10E944404E1
:1008D00097FF1DC00E94B70300910B1810910C18D0
:1008E00020910D1830910E18601B710B820B930B29
:1008F00000910718109108182091091830910A18D2
:100900006017710782079307F8F28FEF9FEF1F912F
:100910000F910895FC01918D828D981731F0828D91
:10092000E80FF11D858D90E008958FEF9FEF0895FA
:100930000F931F930E94B70360930B1870930C18CA
:1009400080930D1890930E1883E098E10E948A041A
:1009500097FF1DC00E94B70300910B1810910C184F
:1009600020910D1830910E18601B710B820B930BA8
:1009700000910718109108182091091830910A1851
:100980006017710782079307F8F28FEF9FEF1F91AF
:100990000F910895FC01918D228D892F90E0805C4C
:1009A0009F4F821B91098F739927089583E098E1E7
:1009B0000E94CA0421E0892B09F420E0822F0895C7
:1009C000FC01A48DA80FB92FB11DA35ABF4F2C91C4
:1009D000848D90E001968F739927848FA689B789BB
:1009E0002C93A089B1898C91837080648C93938DB2
:1009F000848D981306C00288F389E02D80818F7D55
:100A000080830895EF92FF920F931F93CF93DF930C
:100A1000EC0181E0888F9B8D8C8D98131AC0E8893A
:100A2000F989808185FF15C09FB7F894EE89FF8909
:100A30006083E889F98980818370806480839FBFA7
:100A400081E090E0DF91CF911F910F91FF90EF90A7
:100A50000895F62E0B8D10E00F5F1F4F0F731127B7
:100A6000E02E8C8D8E110CC00FB607FCFACFE889F2
:100A7000F989808185FFF5CFCE010E94E004F1CF96
:100A8000EB8DEC0FFD2FF11DE35AFF4FF0829FB766
:100A9000F8940B8FEA89FB8980818062CFCF0F9316
:100AA0001F93CF93DF938C01D0E0C0E0F801EC0FEF
:100AB000FD1F6491662341F083E098E10E940205E6
:100AC000892B11F02196F2CFCE01DF91CF911F91AA
:100AD0000F910895CF93DF93EC01888D8823B9F0AF
:100AE000AA89BB89E889F9898C9185FD03C0808139
:100AF00086FD0DC00FB607FCF7CF8C9185FFF2CFB6
:100B0000808185FFEDCFCE010E94E004E9CFDF9127
:100B1000CF91089580E090E0892B29F00E94D604BF
:100B200081110E94000080E090E0892B49F080E074
:100B300090E0892B29F00E94000081110E940000A2
:100B400080E090E0892B49F080E090E0892B29F04B
:100B50000E94000081110E94000080E090E0892B3B
:100B600049F080E090E0892B29F00E94000081117B
:100B70000C94000008951F93CF93DF93C1E0C093BE
:100B80008616882399F1D091B8001091BA0080910F
:100B9000BC008A7B8093BC0060E084E10E94F50287
:100BA00060E085E10E94F5021092D917C093D81732
:100BB0001092B31761E084E10E94F50261E085E1E3
:100BC0000E94F5028091B9008E7F8093B9008091D8
:100BD000B9008D7F8093B90088E48093B80085E4E4
:100BE0008093BC001093BA00D093B800DF91CF91EE
:100BF0001F9108958F929F92AF92BF92CF92DF92F2
:100C0000EF92FF920F931F93CF93DF93D09102182F
:100C1000D13208F0D7C0182FC09101180E945F038D
:100C20006B017C018091D91781116BC082E08093A8
:100C3000D9171093D8178FEF8093D7171092D61724
:100C4000D093D517A1EEB7E1E5EBF7E180E0D8133B
:100C500091C01092B4178091B417CC0FC82BC093D9
:100C6000B4178091B317813009F088C01092B31780
:100C70000E945F036B017C018091B4178093BB00DD
:100C80008091DB179091DC17A091DD17B091DE17F2
:100C9000892B8A2B8B2BA1F00E945F030091DB171D
:100CA0001091DC172091DD173091DE176C197D094A
:100CB0008E099F09061717072807390708F442C04D
:100CC0008091BC0083FDD8CF85EC8093BC000E944E
:100CD0005F036B017C018091D917823009F450C009
:100CE0008091D7178F3F09F46FC08091D71780325A
:100CF00009F46CC08091D717803309F469C084E08F
:100D000026C08091DB179091DC17A091DD17B09180
:100D1000DE17892B8A2B8B2B09F484CF0E945F036B
:100D20008090DB179090DC17A090DD17B090DE1755
:100D30006C197D098E099F0986169706A806B906C3
:100D400008F070CF8091DA170E94BB0585E0109201
:100D5000E017109202181092DF17DF91CF911F91C8
:100D60000F91FF90EF90DF90CF90BF90AF909F904A
:100D70008F9008959D9191938F5F69CF85EEA5CF58
:100D80008091DB179091DC17A091DD17B091DE17F1
:100D9000892B8A2B8B2B09F49ECF0E945F03009135
:100DA000DB171091DC172091DD173091DE176C19DD
:100DB0007D098E099F09061717072807390708F0CC
:100DC0008ACFC0CF81E0C3CF80E0C1CF82E0BFCF68
:100DD00083E0BDCF1F93CF93DF93162FCCEAD8E1EA
:100DE000A981BA819B8121E02093DF17909301189C
:100DF0001092E01710920218ED91FC91119701905A
:100E0000F081E02D682FCD01199589819A81DC014F
:100E1000ED91FC910190F081E02D612F199581E019
:100E2000DF91CF911F910C94FA052091A716260F00
:100E30003327331F21323105ECF42091D917FC01FF
:100E400090E080E0243069F082E00895A091A71638
:100E50002191AC014957594EA40FB52FB11D2C93C8
:100E60000196861798F38091A716680F6093A716CE
:100E700080E0089581E008950895E09192178091AF
:100E80009117E81730F4F0E0ED56F84E808190E0CD
:100E900008958FEF9FEF0895909192178091911789
:100EA0002FEF3FEF981748F4E92FF0E0ED56F84E9A
:100EB000208130E09F5F90939217C901089580913F
:100EC000911790919217891B990B0895CF92DF92F9
:100ED000EF92FF920F931F93CF93DF937C01CB018F
:100EE0008A012091DF17222389F0EB016B01C40EE8
:100EF000D51ECC15DD0569F06991D701ED91FC9106
:100F00000190F081E02DC7011995F3CF642F0E9465
:100F10001507C801DF91CF911F910F91FF90EF90BE
:100F2000DF90CF900895CF93DF931F92CDB7DEB7B8
:100F300069832091DF172223F9F0209102182032D3
:100F400058F021E030E0FC013383228390E080E020
:100F50000F90DF91CF9108958091E017E82FF0E096
:100F6000EF51F84E998190838F5F8093E0178093C3
:100F7000021881E090E0ECCF61E0CE0101960E9482
:100F80001507F7CF90E080E00895CF92DF92EF92BF
:100F9000FF920F931F93CF93DF93EC01EE81FF81BC
:100FA00090818B81809589238083EA85FB85808170
:100FB0009B81892B8083EC81FD8190818A81809542
:100FC00089238083E885F98580819A81892B8083B4
:100FD00089899A89009711F00E945403EA85FB855C
:100FE00090818B818095892380838B89882331F040
:100FF000EE81FF8180819B81892B80838C8988236E
:10100000C9F00E94B7036B017C01EE85FF858081EA
:101010009B81892379F40E94B7036C197D098E099D
:101020009F090D891E892F89388D601771078207E6
:10103000930758F389899A89009711F00E94540305
:10104000E885F98590818A818095892380838B89C1
:10105000882331F0EC81FD8180819A81892B808306
:1010600089899A89009751F0DF91CF911F910F9153
:10107000FF90EF90DF90CF900C945403DF91CF91CD
:101080001F910F91FF90EF90DF90CF900895CF9335
:10109000DF93EC01E885F98590818A818095892329
:1010A00080838B89882331F0EC81FD8180819A8156
:1010B000892B8083EA85FB8590818B8180958923AC
:1010C00080838B89882331F0EE81FF8180819B8131
:1010D000892B808389899A89009711F00E94540393
:1010E000EC85FD8590818A819823EE85FF8520819E
:1010F0003B81232311F480E028C09923E1F3EC81A4
:10110000FD819081809589238083E885F9858081A0
:101110009A81892B808389899A89009711F00E948E
:101120005403EE81FF8190818B8180958923808398
:10113000EA85FB8580819B81892B808389899A89B7
:10114000009711F00E94540381E0DF91CF91089540
:10115000CF92DF92EF92FF920F931F93CF93DF9383
:10116000EC01E885F98590818A81809589238083C7
:101170008B89882331F0EC81FD8180819A81892BD4
:101180008083EA85FB8590818B818095892380838C
:101190008B89882331F0EE81FF8180819B81892BAF
:1011A00080838C898823C9F00E94B7036B017C017E
:1011B000EE85FF8580819B81892379F40E94B703A6
:1011C0006C197D098E099F090D891E892F89388D1B
:1011D000601771078207930758F389899A890097E6
:1011E00011F00E945403EC85FD8580819A8189234A
:1011F00011E009F410E0EE81FF8190818B818095F0
:1012000089238083EA85FB8580819B81892B80836C
:1012100089899A89009711F00E945403812FDF91E8
:10122000CF911F910F91FF90EF90DF90CF90089595
:10123000CF92DF92EF92FF920F931F93CF93DF93A2
:10124000EC018A81809561115EC0EC81FD81908105
:1012500089238083E885F98580819A81892B808321
:1012600089899A89009711F00E945403EA85FB85C9
:1012700090818B818095892380838B89882331F0AD
:10128000EE81FF8180819B81892B80838C898823DB
:10129000C9F00E94B7036B017C01EE85FF85808158
:1012A0009B81892379F40E94B7036C197D098E090B
:1012B0009F090D891E892F89388D60177107820754
:1012C000930758F389899A89009711F00E94540373
:1012D000EE81FF8190818B81809589238083EA85CF
:1012E000FB8580819B81892B808389899A890097DE
:1012F000B1F0DF91CF911F910F91FF90EF90DF90B0
:10130000CF900C945403E885F985908189238083DC
:101310008B89882309F4A4CFEC81FD819DCFDF91D7
:10132000CF911F910F91FF90EF90DF90CF90089594
:101330000F931F93CF93DF938C01D62FC8E06D2FAF
:101340006078C8010E941809DD0FC150C1F7C801BB
:10135000DF91CF911F910F910C94A808CF93DF9349
:10136000FC012089211106C0EC010E94980981111D
:1013700006C0188A81E090E0DF91CF91089582E065
:10138000888BF8CF1F93CF93DF93EC01162F188A29
:101390000E944708882379F0612F660FCE010E94D2
:1013A0009809811105C0188ADF91CF911F91089586
:1013B00082E0888BF9CF84E0FCCFFC019389138A0B
:1013C000A085B1852C918281809582238C9383891D
:1013D000882331F0A481B5818C912281822B8C935A
:1013E000A285B3852C918381809582238C938389F8
:1013F000882331F0A681B7818C912381822B8C9335
:10140000938B08950F931F93CF93DF93CDB7DEB7E0
:10141000EB970FB6F894DEBF0FBECDBFDC011C9278
:101420008BEE90E014969C938E93139781E090E05E
:1014300012969C938E93119715966C93159716960A
:101440004C93169769834A838C8B8D8B82E090E056
:101450009B8B8A8B08EE13E020E030E00E8B1F8B15
:10146000288F398F70E0FB01E352FC4F24916956BD
:101470007C4FFB0164916B8330E0220F331FF90135
:10148000E358FC4F859194919E838D83F901ED592A
:10149000FC4F859194919A878987F901E75BFC4F0E
:1014A000859194919E878D8750E0FA01E352FC4F1D
:1014B000249149565C4FFA0144914C8330E0220F4D
:1014C000331FF901E358FC4F8591949198878F83DE
:1014D000F901ED59FC4F859194919C878B87F90117
:1014E000E75BFC4F85919491988B8F878BE3FE018E
:1014F0003196179601900D928A95E1F7CE010196EB
:101500000E94DD09EB960FB6F894DEBF0FBECDBF8B
:10151000DF91CF911F910F910895CF92DF92EF92BB
:10152000FF92CF93DF93EC01603282E07807CCF535
:10153000653B710514F064EB70E0898128E830E0C8
:10154000281B310987FD3395220F331F220F331FCC
:101550006901330FEE08FF088A8128E532E0281B75
:10156000310987FD3395220F331F220F331F032EBE
:10157000000C440B550B2C193D094E095F09DB018A
:1015800077FF02C0B0E0A0E00E94353F24EB30E0DE
:1015900040E050E00E940B3FC20ED31EE41EF51E39
:1015A000B601E881E03370F5298188E890E0821B7C
:1015B000910927FD9395880F991F880F991F681728
:1015C00079077CF02A8188E592E0821B910927FD4A
:1015D0009395880F991F880F991F681779070CF446
:1015E000CB010297880F991F4FB7F8942E2F30E048
:1015F000F901EE0FFF1FE20FF31FEF52F94E928336
:1016000081834FBFDF91CF91FF90EF90DF90CF901C
:1016100008951F93CF93DF93EC01162F88818033B9
:1016200008F04EC061E0812F0E9423038881282F9B
:1016300030E0F901EE0FFF1FE20FF31FEF52F94EFA
:101640001F736081607C612B608319821A822CE099
:10165000622F0E94D542829FB001112430E020E029
:10166000AB01420F531FFA01EE0FFF1FE40FF51FEE
:10167000EF52F94E908196FD16C02F5F3F4F2C30F0
:10168000310571F7813009F51092800082E0809376
:1016900081001092850010928400B19A80916F00B1
:1016A000826080936F00E8818E2F90E0FC01EE0F46
:1016B000FF1FE80FF91FEF52F94E8081806480838D
:1016C0008881DF91CF911F910895823061F410924B
:1016D000900080939100109295001092940088BB26
:1016E00080937100E0CF833069F41092A00082E013
:1016F0008093A1001092A5001092A40089BB809352
:101700007200D1CF8111CFCF1092200182E080935F
:10171000210110922501109224018ABB809373004D
:10172000C2CFFC0190918516903398F481E0890F27
:10173000809385169083892F90E0FC01EE0FFF1FA8
:10174000E80FF91FEF52F94E88EB9BE092838183FB
:1017500008958FEF80830895AF92BF92CF92DF926A
:10176000EF92FF920F931F93CF93DF936B017A0158
:10177000EC01CF57D94E28813CE0389F8001399F3A
:10178000100D1124A0908516B12C27FF1FC0FB015E
:101790001182108288818F5F888388819801280F49
:1017A000311D87FD3A95F6012A153B051CF4888109
:1017B0008C30C4F180819181049680349C4908F476
:1017C00073C0F60180819181049670C08881980170
:1017D000280F311D87FD3A952A153B05DCF68881D7
:1017E000A801480F511D87FD5A95FA01EE0FFF1F02
:1017F000E40FF51FEF52F94E808186FFCBCF888131
:10180000F801E80FF11D87FDFA95CF01EE0FFF1FDC
:10181000E80FF91FEF52F94E808160E08F730E944C
:10182000F502B8CF808191812881A801420F511D16
:1018300027FD5A959A01FA01EE0FFF1FE20FF31FE1
:10184000EF52F94E21813281820F931FF70191836C
:10185000808388819801280F311D87FD3A95F90111
:10186000EE0FFF1FE20FF31FEF52F94E808186FF4C
:1018700022C08881080F111D87FD1A95F801EE0F0F
:10188000FF1FE00FF11FEF52F94E808161E08F736F
:10189000DF91CF911F910F91FF90EF90DF90CF904C
:1018A000BF90AF900C94F50280E49CE9F70191831E
:1018B00080838FEF8883DF91CF911F910F91FF90ED
:1018C000EF90DF90CF90BF90AF90089568E070E008
:1018D0008EE099E10E94090B6AE070E08BE099E1EB
:1018E0000E94090B6CE070E088E099E10C94090B10
:1018F000EF92FF920F931F93CF93DF93C5E2D2E055
:101900000BE616E1299139913327F901ED5FFC4F80
:101910008491F901E956FC4FE490F901E352FC4F40
:10192000F490FF2021F181110E948E02EF2DF0E052
:10193000EE0FFF1FE75BFC4FA591B491EC91EE22F7
:1019400031E020E009F430E0832F922FF8018193F9
:1019500091938F01F2E0CF32DF07A1F68BE696E19B
:10196000DF91CF911F910F91FF90EF90089590E03C
:1019700080E0ECCF2F923F924F925F926F927F92D6
:101980008F929F92AF92BF92CF92DF92EF92FF928F
:101990000F931F93CF93DF9300D000D01F92CDB74A
:1019A000DEB77D836C83312C212C88248A94982C7B
:1019B00054016C01990FEE08FF080DEF13E02A01A6
:1019C000550F6608770880910002803239F5E8ECFF
:1019D000F2E0F491FE83F7FD70C061E080E20E94C6
:1019E0002303FE81F11139C0C982DA82EB82FF82C2
:1019F00068E478EE81E090E029813A814B815F8153
:101A00000E940B3FBA01A9014150510961097109B6
:101A10009E81992309F4CEC194E03DC08F3F09F027
:101A20004CC080E280930002E8ECF2E0F491FE8387
:101A30008F2FFF3F09F441C0F23009F4C8C008F00D
:101A400069C0FF2309F48DC0F13009F4A2C087FDFD
:101A500034C061E080E20E9423038E81823009F06D
:101A600016C1C982DA82EB82FF8260E970ED83E001
:101A700090E0A70196010E940B3FBA01A9014150D5
:101A800051096109710993E04F3F510561057105E5
:101A900011F00CF0ADCF8091B100887F892B80933D
:101AA000B100EE81E23009F475C10CF06BC1EE2398
:101AB00009F484C1E13009F401C1C301B2010E94FB
:101AC000840380E20E94C303C301B2010E94840325
:101AD0008FEF281A380AEC81FD81E215F30509F031
:101AE00072CF27960FB6F894DEBF0FBECDBFDF9141
:101AF000CF911F910F91FF90EF90DF90CF90BF900B
:101B0000AF909F908F907F906F905F904F903F909D
:101B10002F9008959E81943009F49BC008F479C0F9
:101B2000953009F094CF10922001109221018091FC
:101B3000210188608093210180912101816080933F
:101B40002101F8018491E82FF0E0EE0FFF1FE35828
:101B5000FC4F85919491E7EBF3E0849180935216CA
:101B60003CCF14BC15BC84B5826084BD85B5816052
:101B700085BDF8018491E82FF0E0EE0FFF1FE358D8
:101B8000FC4F85919491E7EBF3E084918093561696
:101B900024CF109280001092810080918100886093
:101BA0008093810080918100816080938100F801A1
:101BB0008491E82FF0E0EE0FFF1FE358FC4F859172
:101BC0009491E7EBF3E084918093551606CF109241
:101BD000B0001092B1008091B00082608093B0009C
:101BE0008091B10081608093B100F8018491E82F69
:101BF000F0E0EE0FFF1FE358FC4F85919491909316
:101C0000CB168093CA16E7EBF3E084918093CC1651
:101C1000E4CE109290001092910080919100886023
:101C20008093910080919100816080939100F801F0
:101C30008491E82FF0E0EE0FFF1FE358FC4F8591F1
:101C40009491E7EBF3E0849180935416F3E0FE83E4
:101C5000C4CE1092A0001092A1008091A1008860D3
:101C60008093A1008091A10081608093A100F80180
:101C70008491E82FF0E0EE0FFF1FE358FC4F8591B1
:101C80009491E7EBF3E0849180935316A6CE60E045
:101C900072E18AE790E0A70196010E940B3FBA012A
:101CA000A9014150510961097109EE81E130C1F486
:101CB00080918100887F81608093810050938900AA
:101CC000409388008092631690926416A0926516E5
:101CD000B092661680916F00826080936F00EDCEA7
:101CE000FE81F330C1F480919100887F8160809300
:101CF0009100509399004093980080925F169092C3
:101D00006016A0926116B092621680917100826096
:101D100080937100D2CE8E818430C1F48091A10075
:101D2000887F81608093A1005093A9004093A80010
:101D300080925B1690925C16A0925D16B0925E1631
:101D400080917200826080937200B7CE9E81953040
:101D500009F0A7CE80912101887F816080932101C5
:101D6000509329014093280180925716909258165B
:101D7000A0925916B0925A16809173008260809397
:101D800073009BCEFE81F43079F20CF4B2CFF530C3
:101D900039F393CE4093B3008092CD169092CE1635
:101DA000A092CF16B092D01680917000826080937E
:101DB000700083CE85B5887F836085BD47BD8092E6
:101DC000671690926816A0926916B0926A16809172
:101DD0006E00826080936E0070CE4F925F926F9221
:101DE0007F928F929F92AF92BF92CF92DF92EF92AB
:101DF000FF920F931F93CF93DF93CDB7DEB72E974C
:101E00000FB6F894DEBF0FBECDBF8091AD18909194
:101E1000AE182091AF1831E03093DF1720930118EE
:101E20001092E01710920218DC01ED91FC910190E4
:101E3000F081E02D6BE3199580E00E94FA05109186
:101E4000AF180E945F034B015C018091D91781118B
:101E500066C081E08093D9178093D8179FEF909345
:101E6000D7171092D6179DE09093D5178093B4178B
:101E70008091B417110F182B1093B4178091B317DA
:101E8000813009F0A9C11092B3170E945F034B0182
:101E90005C018091B4178093BB008091DB17909117
:101EA000DC17A091DD17B091DE17892B8A2B8B2BC5
:101EB000A1F00E945F030091DB171091DC172091C5
:101EC000DD173091DE17681979098A099B09061711
:101ED00017072807390708F443C08091BC0083FD29
:101EE000D8CF85EC8093BC000E945F034B015C015E
:101EF0008091D917813009F471C18091D6178E3045
:101F000008F08EC18091D617A5EBB7E1E3E9F7E1C0
:101F100090E0981751F12D9121939F5FFACF809116
:101F2000DB179091DC17A091DD17B091DE17892B9C
:101F30008A2B8B2B09F489CF0E945F034090DB171B
:101F40005090DC176090DD177090DE1768197909E2
:101F50008A099B09461657066806790608F075CF68
:101F60008091DA170E94BB0580E01092921780934F
:101F700091178E010F5F1F4F6E01BFE0CB0ED11C7A
:101F80008091AD189091AE18DC01ED91FC91028426
:101F9000F385E02D1995B82E8091AD189091AE186B
:101FA000DC01ED91FC910284F385E02D1995E12C83
:101FB0008E299B29F801819391938F01CE16DF061C
:101FC000F9F6C090B418D090B518E090B618F0901B
:101FD000B71869817A81072E000C880B990B0E9433
:101FE000D53DA70196010E944D402091C418309123
:101FF000C5184091C6185091C7180E946E3F609353
:10200000D4187093D5188093D6189093D7186B81F5
:102010007C81072E000C880B990B0E94D53DA701EF
:1020200096010E944D402091C8183091C9184091E6
:10203000CA185091CB180E946E3F6093D8187093C5
:10204000D9188093DA189093DB188091AC1861E06E
:102050006827681B770B072E000C880B990B0E94D2
:10206000D53D4B015C016D817E81072E000C880BF4
:10207000990B0E94D53D9B01AC01C501B4010E94A2
:10208000343EA70196010E944D402091CC1830911A
:10209000CD184091CE185091CF180E946E3F60939A
:1020A000DC187093DD188093DE189093DF186F8131
:1020B0007885072E000C880B990B0E94D53D20E0F7
:1020C00030EF41E456E40E946F3F20E030E04AEAFE
:1020D00053E40E944D406093D0187093D1188093C0
:1020E000D2189093D318C090B018D090B118E09047
:1020F000B218F090B31869857A85072E000C880B0A
:10210000990B0E94D53DA70196010E944D40209158
:10211000B8183091B9184091BA185091BB180E9464
:102120006E3F6093E0187093E1188093E2189093EB
:10213000E3186B857C85072E000C880B990B0E9499
:10214000D53DA70196010E944D402091BC183091C9
:10215000BD184091BE185091BF180E946E3F609309
:10216000E4187093E5188093E6189093E7186D854E
:102170007E85072E000C880B990B0E94D53DA70188
:1021800096010E944D402091C0183091C118409195
:10219000C2185091C3180E946E3F6093E818709364
:1021A000E9188093EA189093EB182E960FB6F894DE
:1021B000DEBF0FBECDBFDF91CF911F910F91FF907A
:1021C000EF90DF90CF90BF90AF909F908F907F90D7
:1021D0006F905F904F90089585EE84CE8091DB17CD
:1021E0009091DC17A091DD17B091DE17892B8A2B17
:1021F0008B2B09F47DCE0E945F030091DB171091B9
:10220000DC172091DD173091DE17681979098A09EA
:102210009B09061717072807390708F069CEA0CED3
:102220008EE072CE7F928F929F92AF92BF92CF92AA
:10223000DF92EF92FF920F931F93CF93DF93EC0106
:10224000062F142F188A19AE1AAE0E944708882349
:1022500009F457C0602F660F6160CE010E94980993
:1022600081114BC0188A7E01A12EB12CD12CC12C1A
:10227000450181E0881A9108CA14DB0459F100E095
:1022800088E0782EC814D904DCF4000FCE010E9437
:10229000A808082B7A947110F8CF60E0CE010E9454
:1022A000180989899A89009711F00E945403F7014F
:1022B000018FFFEFCF1ADF0A8FEFE81AF80ADCCFA1
:1022C000000FCE010E94A808082B7A947110F8CF55
:1022D00061E0E4CF19AFCE010E94C507812FDF91E5
:1022E000CF911F910F91FF90EF90DF90CF90BF9013
:1022F000AF909F908F907F90089582E0888B10E040
:10230000EACF84E0FBCFFF920F931F93CF93DF932D
:10231000EC01F62E8C01095F1F4F69E2C8010E9493
:10232000C2096F2D6068C8010E94AE09C8010E94F1
:10233000C50742E069E2C8010E941211FE01E05C9B
:10234000FF4F8081319690812FEF3FEF981740F437
:10235000DE01A90FB11D90962C9130E09F5F908314
:1023600090814FEF5FEF981728F4C90FD11D48A156
:102370009F5F908380E0942F822B932BDF91CF91EE
:102380001F910F91FF9008950F931F93CF93DF93A9
:10239000162F022FEC01279669E2CE010E94C20996
:1023A000612F6068CE010E94AE09602FCE010E94AD
:1023B000AE09CE01DF91CF911F910F910C94C5070B
:1023C000FC0101900020E9F73197AF01481B590B40
:1023D000BC0183E098E10C9408048F929F92AF9225
:1023E000BF920F931F93CF93DF93CDB7DEB7A19723
:1023F0000FB6F894DEBF0FBECDBF19A2423008F46D
:102400004AE08E010F5D1F4F842E912CB12CA12C20
:10241000A50194010E943D3FE62FB901CA01EA30AF
:10242000F4F4E05DD801EE938D01232B242B252BB2
:1024300079F790E080E0109719F0CD010E94E0114B
:10244000A1960FB6F894DEBF0FBECDBFDF91CF913E
:102450001F910F91BF90AF909F908F900895E95C6E
:10246000E1CFBC0190E080E04AE00C94ED11CF9206
:10247000DF92EF92FF92CF93DF936C01990FEE08FA
:10248000FF08F7FE19C06DE283E098E10E940205A3
:10249000EC0166277727CB016C197D098E099F090E
:1024A0004AE00E94ED118C0F9D1FDF91CF91FF90AC
:1024B000EF90DF90CF9008954AE0C701B601DF9119
:1024C000CF91FF90EF90DF90CF900C94ED11CF93D0
:1024D000DF930E94E011EC0183E592E00E94E0119D
:1024E0008C0F9D1FDF91CF91089586E592E00E94A9
:1024F000671280E892E00E94671288E992E00E94E9
:10250000671280EB92E00E94671283EC92E00E94D7
:10251000671286ED92E00E94671287EE92E00E94B9
:10252000671288EF92E00E94671284E193E00E94B4
:10253000671282E393E00E94671284EE9EE00C949F
:1025400067128DE393E00E94671280E892E00E9498
:10255000671284E693E00E94671289E793E00E9485
:10256000671289E893E00E94671289E993E00E946C
:10257000671287EA93E00E94671285EB93E00E945E
:1025800067128EEC93E00E94671282E393E00E9450
:10259000671284EE9EE00C94671280EF93E00E9435
:1025A00067128BE094E00E94671281E294E00E943F
:1025B00067128AE394E00E94671280E594E00E942B
:1025C000671284EE9EE00C9467128BE594E00E9403
:1025D000671280E892E00E9467128BE694E00E9406
:1025E000671288E794E00E9467128BE894E00E94EB
:1025F000671281EA94E00E94671284EB94E00E94E3
:1026000067128EEC94E00E94671287EE94E00E94BD
:10261000671283E095E00E94671280E295E00E94D5
:10262000671284EE9EE00C9467120C94E0114F92B6
:102630005F926F927F928F929F92AF92BF92CF9252
:10264000DF92EF92FF920F931F93CF936B017C0168
:10265000742EAC019B010E94C341882399F089E24A
:1026600095E0CF911F910F91FF90EF90DF90CF9069
:10267000BF90AF909F908F907F906F905F904F90A2
:102680000C94E01146015701E894B7F82FEF3FEFA3
:102690004FE75FE7C501B4010E94C34181110DC03E
:1026A0002FEF3FEF4FE75FE7C501B4010E94CE3D3A
:1026B00018161CF48DE295E0D4CF2FEF3FEF4FE7D3
:1026C0005FE4C701B6010E941C4118161CF481E3A7
:1026D00095E0C7CF2FEF3FEF4FE75FECC701B601A3
:1026E0000E94CE3D87FDF3CF20E030E0A901C70175
:1026F000B6010E94CE3D10E000E087FF0AC06DE207
:1027000083E098E10E9402058C01F7FAF094F7F853
:10271000F094C0E060E070E080E09FE37C1641F060
:1027200020E030E040E251E40E944D40CF5FF6CF20
:10273000A70196010E946F3F2B013C010E94C640F9
:102740004B015C014AE00E94ED117C01E00EF11E9C
:10275000CC23A9F1C501B4010E94D33D9B01AC017A
:10276000C301B2010E946E3F4B015C016EE283E047
:1027700098E10E940205E80EF91EC15000F120E028
:1027800030E040E251E4C501B4010E94343E2B0127
:102790003C010E94C6404B01CB010E943112E80E61
:1027A000F91EB40190E080E00E94D33D9B01AC0192
:1027B000C301B2010E946E3F4B015C01DECFC70135
:1027C000CF911F910F91FF90EF90DF90CF90BF902E
:1027D000AF909F908F907F906F905F904F900895F3
:1027E000CF93DF930E943712EC0183E592E00E94C1
:1027F000E0118C0F9D1FDF91CF910895CF93DF9350
:102800000E943112EC0183E592E00E94E0118C0FEE
:102810009D1FDF91CF910895BF92CF92DF92EF92EB
:10282000FF920F931F93CF93DF93EC016C0187E02E
:10283000C80ED11C7E01E0E4EE0EF11CF7011082FF
:102840008E010F5B1F4FF8011082E989FA89908190
:102850008A858095892380838A8D882331F0ED8550
:10286000FE8580819A85892B8083888D998D00973C
:1028700011F00E945403EF85F88990818985809535
:10288000892380838A8D882331F0EB85FC858081C4
:102890009985892B808384E0B82E888D998D009747
:1028A00011F00E945403BA94B110F7CF8A8D882397
:1028B00031F062E070E080E090E00E94840369E221
:1028C000C6010E94C20962E9C6010E94AE09C601A2
:1028D0000E94C50741E069E2C6010E941211F80199
:1028E0002081F7018081281708F055C0FE01E20F12
:1028F000F11D80A12F5FF8012083182F682F70E051
:1029000090E080E040E10E94ED1183E592E00E94BA
:10291000E01180E01434A9F581E088830B811C81EB
:10292000980150E040E061E0CE010E94C4111C8398
:102930000B8309811A818881811103C0CE010E9415
:102940000C14980150E040E06FE0CE010E94C411E9
:102950001A83098321E030E040E050E060E0CE01DE
:102960000E94C41163E070E080E090E00E94840364
:1029700023E030E040E050E060E0CE010E94C4116E
:1029800081E0DF91CF911F910F91FF90EF90DF9049
:10299000CF90BF9008958FEF9FEFAFCFAF92BF92D0
:1029A000CF92DF92EF92FF920F931F93CF93DF931B
:1029B000EC015B016A0179018881811103C0CE01BC
:1029C0000E940C1464E1CE010E948311F8019183EE
:1029D000808366E1CE010E948311F501918380839B
:1029E00068E1CE010E948311F601918380836AE140
:1029F000CE010E948311F701918380838B819C819A
:102A0000853D9105A1F180F40097D9F1803C9105B5
:102A100099F1DF91CF911F910F91FF90EF90DF908F
:102A2000CF90BF90AF900895863F9105D9F08F3F2A
:102A3000910541F08B3E910561F762E370E080E023
:102A400090E004C063E070E080E090E0DF91CF911F
:102A50001F910F91FF90EF90DF90CF90BF90AF90BC
:102A60000C94840368E170E080E090E0EFCF65E6CD
:102A700070E080E090E0EACF6AE970E080E090E00A
:102A8000E5CF6CEB72E080E090E0E0CF9F92AF92F8
:102A9000BF92CF92DF92EF92FF920F931F93CF934B
:102AA000DF9303E617E125E637E147E657E169E6FC
:102AB00077E189E599E10E94CE1440916517509124
:102AC00066176091671770916817809169179091E8
:102AD0006A170E944702909362178093611709E773
:102AE00016E12BE736E14DE756E16FE776E187E146
:102AF00099E10E94CE1440917B1650917C16609112
:102B00007D1670917E1680917F16909180160E949E
:102B100047028C019093781680937716C0906317C4
:102B2000D0906417E0907916F0907A16A090611713
:102B3000B09062178091070290910802C816D906DA
:102B4000B4F02091090230910A022C153D057CF069
:102B500020910B0230910C02A216B30644F0C1E0A2
:102B600020910D0230910E022A153B050CF4C0E0B5
:102B7000E816F906C4F08091090290910A028E15B8
:102B80009F058CF080910B0290910C020817190799
:102B900054F080910D0290910E02DC2F99249394B1
:102BA0008017910714F4912CD0E085E395E00E9402
:102BB00015138C2F90E00E94F01385E495E00E949D
:102BC0001513892D90E00E94F01386E595E00E9490
:102BD00015138D2F90E00E94F01384E695E00E947B
:102BE0001513C6010E9437128AE695E00E9415135C
:102BF000C7010E94F01383E795E00E9415138091AE
:102C00006117909162170E9431128AE795E00E9445
:102C1000151380917716909178160E94FE1384E820
:102C200095E00E9415138091691790916A170E9490
:102C3000311289E895E00E94151380917F169091DA
:102C400080160E94FE1381E995E00E941513809181
:102C50006717909168170E94311286E995E00E94EB
:102C6000151380917D1690917E160E94FE138EE9B9
:102C700095E00E94151380916517909166170E9448
:102C8000311283EA95E00E94151380917B16909192
:102C90007C160E94FE138BEA95E00E94151380912A
:102CA0006317909164170E94311280EB95E00E94A7
:102CB00015138091791690917A160E94FE1388EB75
:102CC00095E00E9415138091070290910802C816A2
:102CD000D90644F081E02091090230910A022C15B6
:102CE0003D050CF480E090E00E94F01383EE95E047
:102CF0000E9415138091070290910802E816F906C8
:102D000044F081E02091090230910A022E153F051E
:102D10000CF480E090E00E94F0138EE096E00E94B8
:102D2000151380910B0290910C02A816B90644F07D
:102D300081E020910D0230910E022A153B050CF422
:102D400080E090E00E94F0138BE396E00E94151360
:102D500080910B0290910C020817190744F081E052
:102D600020910D0230910E02201731070CF480E003
:102D700090E0DF91CF911F910F91FF90EF90DF9046
:102D8000CF90BF90AF909F900C94F0135F926F9292
:102D90007F928F929F92AF92BF92CF92DF92EF92EB
:102DA000FF920F931F93CF93DF9303E617E125E67E
:102DB00037E147E657E169E677E189E599E10E9465
:102DC000CE14409165175091661760916717709106
:102DD00068178091691790916A170E944702909333
:102DE00062178093611709E716E12BE736E14DE79B
:102DF00056E16FE776E187E199E10E94CE14609099
:102E00007B1670907C1680907D1690907E16C091F7
:102E10007F16D0918016A301B401CE010E94470213
:102E20008C019093781680937716C0906317D0909A
:102E30006417E0907916F0907A16A0906117B09020
:102E400062178091691790916A17209167173091E6
:102E500068172817390770F5409165175091661764
:102E60004817590738F5821B930B20910F023091B8
:102E7000100228173907F0F4809111029091120284
:102E8000C816D906BCF080911302909114028C15DB
:102E90009D0584F08091150290911602A816B9063E
:102EA0004CF05524539480911702909118028A1582
:102EB0009B050CF4512C8C169D0650F56C167D0666
:102EC00038F5C819D90980910F02909110028C171A
:102ED0009D07F0F48091110290911202E816F90614
:102EE000BCF080911302909114028E159F0584F01E
:102EF0008091150290911602081719074CF08091E5
:102F0000170290911802C52DD1E08017910714F493
:102F1000D0E0C0E088E696E00E941513852D90E091
:102F20000E94F0138BE796E00E9415138D2F90E01E
:102F30000E94F0138FE896E00E9415138C2F90E00A
:102F40000E94F01384E695E00E941513C6010E94CA
:102F500037128AE695E00E941513C7010E94F0130C
:102F600083E795E00E941513809161179091621795
:102F70000E9431128AE795E00E941513809177161E
:102F8000909178160E94FE1384E895E00E94151334
:102F90008091691790916A170E94311289E895E033
:102FA0000E94151380917F16909180160E94FE1347
:102FB00081E995E00E941513809167179091681739
:102FC0000E94311286E995E00E94151380917D16CA
:102FD00090917E160E94FE138EE995E00E941513D3
:102FE00080916517909166170E94311283EA95E0EF
:102FF0000E94151380917B1690917C160E94FE13FF
:103000008BEA95E00E9415138091631790916417E5
:103010000E94311280EB95E00E9415138091791681
:1030200090917A160E94FE1380EA96E00E94151392
:103030008091110290911202C816D90644F081E0E5
:1030400020911302309114022C153D050CF480E000
:1030500090E00E94F0138DEC96E00E941513809191
:10306000110290911202E816F90644F081E02091D5
:103070001302309114022E153F050CF480E090E00D
:103080000E94F0138AEF96E00E94151380911502BA
:1030900090911602A816B90644F081E0209117021B
:1030A000309118022A153B050CF480E090E00E9454
:1030B000F0138DE297E00E94151380911502909114
:1030C00016020817190744F081E020911702309189
:1030D0001802201731070CF480E090E00E94F013F2
:1030E00080E697E00E9415132091691730916A17C6
:1030F00080916717909168178217930740F481E0D9
:1031000040916517509166174217530708F080E009
:1031100090E00E94F01385E797E00E94151320913C
:10312000691730916A178091671790916817281B6B
:10313000390B81E090E040910F025091100242174C
:10314000530710F090E080E00E94F0138BE997E0C5
:103150000E94151320917F163091801680917D1664
:1031600090917E168217930740F481E040917B1680
:1031700050917C164217530708F080E090E00E94BF
:10318000F01380EB97E00E94151320917F16309189
:10319000801680917D1690917E16281B390B81E058
:1031A00090E040910F02509110024217530710F027
:1031B00090E080E0DF91CF911F910F91FF90EF9011
:1031C000DF90CF90BF90AF909F908F907F906F9047
:1031D0005F900C94F0135F926F927F928F929F9208
:1031E000AF92BF92CF92DF92EF92FF920F931F9315
:1031F000CF93DF9303E617E125E637E147E657E192
:1032000069E677E189E599E10E94CE14409165175E
:1032100050916617609167177091681780916917D0
:1032200090916A170E9447029093621780936117EA
:1032300009E716E12BE736E14DE756E16FE776E166
:1032400087E199E10E94CE1460907B1670907C1605
:10325000A0907D16B0907E1680907F16909080167C
:10326000A301B501C4010E9447027C019093781626
:10327000809377160091631710916417C0917916A7
:10328000D0917A16C0906117D0906217809167171D
:10329000909168172091691730916A17281739079C
:1032A00070F540916517509166174817590738F522
:1032B000821B930B2091190230911A0228173907AB
:1032C000F0F480916B1790916C1708171907BCF0F8
:1032D00080916D1790916E178017910784F08091FF
:1032E0006F1790917017C816D9064CF05524539457
:1032F00080917117909172178C159D050CF4512CCB
:103300008A149B0450F56A147B0438F5A818B90890
:103310008091190290911A028A159B05F0F4809110
:103320006B1790916C17C817D907BCF080916D1777
:1033300090916E178C179D0784F080916F17909174
:103340007017E816F9064CF0BB24B39480917117FE
:10335000909172178E159F050CF4B12C48018C1AB0
:103360009D0A97FE03C091948194910824E68216E9
:1033700091041CF4AB2C511001C0A12C86ED97E0F8
:103380000E941513852D90E00E94F01386EE97E0C1
:103390000E9415138B2D90E00E94F01387EF97E0A9
:1033A0000E9415138A2D90E00E94F01384E695E0A8
:1033B0000E941513C8010E9437128AE695E00E9408
:1033C0001513CE010E94F01383E795E00E941513B8
:1033D00080916117909162170E9431128AE795E0FF
:1033E0000E94151380917716909178160E94FE1313
:1033F00084E895E00E9415138091691790916A17EF
:103400000E94311289E895E00E94151380917F1681
:10341000909180160E94FE1381E995E00E94151399
:1034200080916717909168170E94311286E995E0A4
:103430000E94151380917D1690917E160E94FE13B6
:103440008EE995E00E94151380916517909166179B
:103450000E94311283EA95E00E94151380917B1639
:1034600090917C160E94FE138BEA95E00E94151342
:1034700080916317909164170E94311280EB95E060
:103480000E9415138091791690917A160E94FE136E
:1034900083E795E00E941513809161179091621760
:1034A0000E9431128AE795E00E94151380917716E9
:1034B000909178160E94FE1385E098E00E94151303
:1034C00080916B1790916C170817190744F081E0F1
:1034D00020916D1730916E17201731070CF480E0A2
:1034E00090E00E94F0138CE298E00E941513809106
:1034F0006B1790916C17C817D90744F081E02091A1
:103500006D1730916E172C173D070CF480E090E09A
:103510000E94F01383E598E00E94151380916F17C5
:1035200090917017C816D90644F081E02091711768
:10353000309172172C153D050CF480E090E00E944C
:10354000F01380E898E00E94151380916F17909116
:103550007017E816F90644F081E020917117309158
:1035600072172E153F050CF480E090E00E94F013D6
:103570008DEA98E00E941513209167173091681723
:103580008091691790916A178217930740F481E040
:1035900040916517509166174217530708F080E075
:1035A00090E00E94F01382EC98E00E9415132091A5
:1035B0006717309168178091691790916A17281BD7
:1035C000390B81E090E04091190250911A024217A4
:1035D000530710F090E080E00E94F01380EE98E036
:1035E0000E94151320917D1630917E1680917F16D2
:1035F000909180168217930740F481E040917B16EA
:1036000050917C164217530708F080E090E00E942A
:10361000F01385EF98E00E94151320917D163091EC
:103620007E1680917F1690918016281B390B81E0C1
:1036300090E04091190250911A024217530710F07E
:1036400090E080E00E94F01385E098E00E9415135E
:1036500080916B1790916C170817190744F081E05F
:1036600020916D1730916E17201731070CF480E010
:1036700090E00E94F0138CE298E00E941513809174
:103680006B1790916C17C817D90744F081E020910F
:103690006D1730916E172C173D070CF480E090E009
:1036A0000E94F01383E598E00E94151380916F1734
:1036B00090917017C816D90644F081E020917117D7
:1036C000309172172C153D050CF480E090E00E94BB
:1036D000F01380E898E00E94151380916F17909185
:1036E0007017E816F90644F081E0209171173091C7
:1036F00072172E153F050CF480E090E00E94F01345
:1037000083E199E00E94151381E090E024E682169F
:10371000910414F090E080E0DF91CF911F910F9120
:10372000FF90EF90DF90CF90BF90AF909F908F90E1
:103730007F906F905F900C94F0130F931F9303E6AC
:1037400017E125E637E147E657E169E677E189E5E4
:1037500099E10E94CE1440916517509166176091CF
:103760006717709168178091691790916A170E9486
:103770004702909362178093611709E716E12BE7E0
:1037800036E14DE756E16FE776E187E199E10E9486
:10379000CE1440917B1650917C1660917D167091ED
:1037A0007E1680917F16909180160E94470290931A
:1037B0007816809377168BE399E00E94671281EC6C
:1037C0009FE00E94151380916117909162170E94EB
:1037D00031128FE499E00E94151383ED9FE00E945F
:1037E00015138091691790916A170E94311281E533
:1037F00099E00E9415138EE191E10E9415138091CA
:103800006717909168170E94311281E599E00E9434
:10381000151383E599E00E94151380916517909127
:1038200066170E94311281E599E00E9415138AEC17
:103830009FE00E94151380916317909164170E9476
:10384000311281E599E00E94151381E599E00E940B
:10385000671287E599E00E94671281EC9FE00E9461
:10386000151380917716909178160E9431128FE48B
:1038700099E00E94151383ED9FE00E94151380913B
:103880007F16909180160E94311281E599E00E9486
:1038900015138EE191E10E94151380917D16909190
:1038A0007E160E94311281E599E00E94151383E58E
:1038B00099E00E94151380917B1690917C160E94CE
:1038C000311281E599E00E9415138AEC9FE00E9475
:1038D00015138091791690917A160E94311281E524
:1038E00099E00E94151381E599E00E9467128CE629
:1038F00099E00E94671286E899E00E941513809172
:103900007D1690917E1620917F1630918016821B35
:10391000930B0E94FE138FE899E00E94151380918B
:103920007D1690917E1620917B1630917C16821B1D
:10393000930B0E94FE1388E999E00E94671286E8C3
:1039400099E00E9415138091671790916817209154
:10395000691730916A17821B930B0E94FE138FE840
:1039600099E00E9415138091671790916817209134
:10397000651730916617821B930B0E94FE136AEF46
:1039800070E080E090E00E9484031F910F91089501
:103990004F925F926F927F928F929F92AF92BF925F
:1039A000CF92DF92EF92FF920F931F93CF93DF930B
:1039B000CDB7DEB72C970FB6F894DEBF0FBECDBFE4
:1039C0000E94ED0EC090DC18D090DD18E090DE185B
:1039D000F090DF1821E030E03A83298320E030E0E6
:1039E000A901C701B6010E941C4187FF02C01A82CB
:1039F000198201E010E020E030E0A901C701B60122
:103A00000E94CE3D87FD02C010E000E069817A810E
:103A1000601B710B072E000C880B990B0E94D53D83
:103A20006D837E838F839887A7019601C701B601B6
:103A30000E94343E2B013C01C090D418D090D51880
:103A4000E090D618F090D718A7019601C701B601EB
:103A50000E94343EA30192010E946F3F0E947F4169
:103A60009B01AC018090D8189090D918A090DA18DA
:103A7000B090DB186D817E818F8198850E94343EE5
:103A80009B01AC01C501B4010E94EE3F21EE3EE274
:103A900045E652E40E94343E6093EC187093ED18B2
:103AA0008093EE189093EF18A5019401C501B4011D
:103AB0000E94343EA30192010E946F3F0E947F4109
:103AC0009B01AC01C701B6010E94EE3F905821EE68
:103AD0003EE245E652E40E94343E6093F018709353
:103AE000F1188093F2189093F3180E94B7036B01BA
:103AF0007C018091001990910119A0910219B09157
:103B00000319A7019601281B390B4A0B5B0BCA014D
:103B1000B9010E94D33D2FE632E143E85AE30E9407
:103B2000343E4B015C01C0920019D0920119E09221
:103B30000219F09203198091041990910519A0912E
:103B40000619B091071989839A83AB83BC8340908F
:103B5000EC185090ED186090EE187090EF182091CE
:103B6000E0183091E1184091E2185091E318C50136
:103B7000B4010E94343E2091F4183091F518409120
:103B8000F6185091F7180E946F3FA30192010E940E
:103B90006E3F6B017C0120E030E044E353E40E947F
:103BA0001C4118163CF420E030E044EB53E4C7011C
:103BB000B601EDCF20E030E044E353ECC701B6019D
:103BC0000E94CE3D87FF0BC020E030E044EB53E481
:103BD000C701B6010E946F3F6B017C01EBCF2981C9
:103BE0003A814B815C8160E070E080E89FE30E9455
:103BF0006E3F69877A878B879C87A7019601C301EF
:103C0000B2010E946F3F29813A814B815C810E9401
:103C1000343E6B017C0129853A854B855C85C30167
:103C2000B2010E94343E9B01AC01C701B6010E9463
:103C30006F3F6B017C0120E030E044E353E40E94DD
:103C40001C4118164CF420E030E044EB53E4C7016B
:103C5000B6010E946E3FEDCF20E030E044E353EC2C
:103C6000C701B6010E94CE3D87FF0BC020E030E0C7
:103C700044EB53E4C701B6010E946F3F6B017C0126
:103C8000EBCFC092F418D092F518E092F618F092AB
:103C9000F7184090F0185090F1186090F21870905A
:103CA000F3182091E4183091E5184091E6185091EE
:103CB000E7186D817E818F8198850E94343EA50131
:103CC00094010E94343E2091F8183091F9184091E7
:103CD000FA185091FB180E946F3FA30192010E94B5
:103CE0006E3F6B017C0120E030E044EB52E40E9427
:103CF0001C4118163CF420E030E044E353E4C701D3
:103D0000B601EDCF20E030E044EB52ECC701B60144
:103D10000E94CE3D87FF0BC020E030E044E353E437
:103D2000C701B6010E946F3F6B017C01EBCFA70179
:103D30009601C301B2010E946F3F29813A814B81F4
:103D40005C810E94343E6B017C01A3019201698574
:103D50007A858B859C850E94343E9B01AC01C7010E
:103D6000B6010E946F3F6B017C0120E030E044EB24
:103D700052E40E941C4118164CF420E030E044E369
:103D800053E4C701B6010E946E3FEDCF20E030E062
:103D900044EB52ECC701B6010E94CE3D87FF0BC039
:103DA00020E030E044E353E4C701B6010E946F3FD6
:103DB0006B017C01EBCFC092F818D092F918E09219
:103DC000FA18F092FB182091E8183091E918409108
:103DD000EA185091EB18C501B4010E94343E2091BD
:103DE000FC183091FD184091FE185091FF180E9468
:103DF0006F3F6093FC187093FD188093FE189093AA
:103E0000FF182C960FB6F894DEBF0FBECDBFDF9122
:103E1000CF911F910F91FF90EF90DF90CF90BF90C7
:103E2000AF909F908F907F906F905F904F9008958C
:103E30000E94C81C6091FC187091FD188091FE18BA
:103E40009091FF180E94BF40CB0108950E94181F57
:103E50009093841780938317209181173091821754
:103E6000A901415051098417950784F464E670E074
:103E700084E199E10E948D0A6AE570E081E199E1AF
:103E80000E948D0A81EB99E00C946712A9014F5FA3
:103E90005F4F481759077CF46AE570E084E199E1C7
:103EA0000E948D0A60E570E081E199E10E948D0A2F
:103EB00084EC99E0E9CF281B390B37FF03C031951B
:103EC00021953109223031057CF460EA70E084E10B
:103ED00099E10E948D0A64E170E081E199E10E941C
:103EE0008D0A87ED99E0D0CF0895EF92FF920F935E
:103EF0001F93CF93DF938AEE99E00E94671268E7E1
:103F000070E084E199E10E948D0A6CE370E081E148
:103F100099E10E948D0A0E94C81C66E970E080E069
:103F200090E00E9484036AE570E084E199E10E94D8
:103F30008D0A6AE570E081E199E10E948D0A03E64D
:103F400017E125E637E147E657E169E677E189E5DC
:103F500099E10E94CE1440916517509166176091C7
:103F60006717709168178091691790916A170E947E
:103F70004702909362178093611709E716E12BE7D8
:103F800036E14DE756E16FE776E187E199E10E947E
:103F9000CE14E0907B16F0907C16C0917D16D091E7
:103FA0007E1600917F1610918016A701BE01C801F0
:103FB0000E944702FC0190937816809377164091F7
:103FC0006317509164176091791670917A168091F9
:103FD0000502909106028417950724F48617970727
:103FE0000CF433C1209167173091681780916917DD
:103FF00090916A178217930788F5A0916517B09181
:104000006617A217B30750F5281B390B80911902C8
:1040100090911A028217930708F580916B1790917F
:104020006C1748175907D4F080916D1790916E174F
:10403000841795079CF080916117909162172091E9
:104040006F17309170178217930744F021E0A09109
:104050007117B0917217A817B9070CF420E00C176C
:104060001D0748F5EC16FD0630F5C01BD10B8091FD
:10407000190290911A028C179D07E8F480916B1732
:1040800090916C1768177907B4F080916D17909133
:104090006E17861797077CF080916F1790917017B5
:1040A000E817F90744F091E0A0917117B0917217E9
:1040B000AE17BF070CF490E0461B570B57FF03C029
:1040C000519541955109443651050CF053C02223B6
:1040D00009F4DBC0992309F450C085EF99E00E94F0
:1040E000151389E09AE00E94151380918117909131
:1040F00082170E94371283E396E10E9415130E94F3
:10410000181F0E94F01362E370E084E199E10E94BD
:104110008D0A62E370E081E199E10E948D0A44E634
:1041200050E063E070E088EE93E00E94BA0CC0912A
:104130008117D0918217CF5AD1090E94181FC81732
:10414000D9070CF05EC00E94C81C8AE19AE00E9468
:1041500015130E94181F0E94371287E49AE00E94EC
:10416000151380918117909182178F5A91090E949F
:10417000F013DDCF222309F488C083E59AE00E9482
:10418000671268E770E084E199E10E948D0A6CE3B0
:1041900070E081E199E10E948D0A60E070E0CB015E
:1041A0000E9484036CE370E084E199E10E948D0A2F
:1041B0006CE370E081E199E10E948D0AC091811762
:1041C000D0918217CA55D1090E94181FC817D90764
:1041D0000CF042C00E94C81C85E69AE00E941513AC
:1041E0000E94181F0E94371287E49AE00E9415135C
:1041F00080918117909182178A5591090E94F0133E
:10420000DDCF68E770E084E199E10E948D0A6CE3FC
:1042100070E081E199E10E948D0A60ED77E080E035
:1042200090E00E94840380918117909182178F5AA9
:104230009109909382178093811710927B171092A7
:104240007C1710927D1710927E17DF91CF911F91EE
:104250000F91FF90EF90089568E770E084E199E195
:104260000E948D0A6CE370E081E199E10E948D0A61
:1042700060ED77E080E090E00E94840380918117F8
:10428000909182178A559109D4CF9923F1F28BE945
:104290009AE00E94671268E770E084E199E10E9469
:1042A0008D0A6CE370E081E199E10E948D0A60E083
:1042B00070E0CB010E9484030E94181F9093821724
:1042C0008093811768E770E084E199E10E948D0A8C
:1042D00068E770E081E199E10E948D0AC091811741
:1042E000D0918217C65ADF4F0E94181F8C179D0766
:1042F000BCF40E94C81C8EEA9AE00E9415130E942A
:10430000181F0E94371287E49AE00E9415138091CB
:10431000811790918217865A9F4F0E94F013DECF2B
:1043200068E770E084E199E10E948D0A6CE370E037
:1043300081E199E10E948D0A60ED77E080E090E0F4
:104340000E9484038091811790918217865A9F4F13
:1043500070CF0F931F93CF93DF93EC0188819981E6
:10436000009759F02A813B812617370730F081E00A
:10437000DF91CF911F910F9108958B016F5F7F4F58
:104380000E943D44009759F0998388831B830A83D8
:104390002C813D81232B59F7FC011082E8CF80E06E
:1043A000E7CFCF92DF92EF92FF92CF93DF93CDB71B
:1043B000DEB7E2970FB6F894DEBF0FBECDBFDC01CB
:1043C000AE014D5C5F4FFE0131969C91963308F033
:1043D000965320917B00892F8870277F822B8093B2
:1043E0007B0020911E0280E4289F90011124977089
:1043F000922B90937C0090917A00906490937A0035
:1044000080917A0086FDFCCF8091780090917900B0
:10441000819391934E175F07C1F628E130E0FE01CA
:10442000319650E040E081E04217530784F4E08089
:10443000F180C280D380CE14DF042CF4D182C082FC
:10444000F382E28280E04F5F5F4F3296EDCF8111C1
:1044500003C02150310919F712968D919D910D904D
:10446000BC91A02D883324E09207A105B10591F5F8
:10447000A98DBA8D28E833E10E94FD422FEF33E089
:1044800040E050E00E940B3FCA01B9010E94D53DB7
:1044900020E030E04AE754E40E944D402EE03DE247
:1044A0004AE95FEB0E94294122EF32ED4DED51E4E4
:1044B0000E94343E0E94BF40CB01E2960FB6F894B2
:1044C000DEBF0FBECDBFDF91CF91FF90EF90DF90A9
:1044D000CF900895863B2EE49207A105B10509F51A
:1044E000A98DBA8D28E833E10E94FD422FEF33E019
:1044F00040E050E00E940B3FCA01B9010E94D53D47
:1045000020E030E04AE754E40E944D4021EE3AE7D3
:1045100044E95FEB0E9429412AEF3EE741E752E47C
:10452000C7CF8E3A21E09207A105B10509F5A98D03
:10453000BA8D28E833E10E94FD422FEF33E040E0DE
:1045400050E00E940B3FCA01B9010E94D53D20E016
:1045500030E04AE754E40E944D402BE83CE647E84F
:104560005FEB0E9429412EEA37E441E451E4A0CFF9
:1045700084399848A140B10509F09ECFA98DBA8D24
:1045800028E833E10E94FD422FEF33E040E050E0A5
:104590000E940B3FCA01B9010E94D53D6B017C010D
:1045A00020E030E04FEA54E40E94CE3D87FD27C072
:1045B00020E030E44EE455E4C701B6010E941C41FE
:1045C0001816ECF020E030EA4CE854E4C701B601DC
:1045D0000E946E3F20E030E04AE754E40E944D40E4
:1045E00020E030E849E053E40E944D409B01AC01DB
:1045F00060E070E080E89FE30E944D405BCF70E098
:1046000060E05ACF8F929F92AF92BF92CF92DF928B
:10461000EF92FF92CF93DF9387EA99E10E94D12135
:1046200007970CF089C168E770E084E199E10E9486
:104630008D0A68E770E081E199E10E948D0AC091DE
:104640008117D0918217C65ADF4F0E94181F8C170E
:104650009D07BCF40E94C81C8BE29BE00E941513CE
:104660000E94181F0E94371287E49AE00E941513D7
:104670008091811790918217865A9F4F0E94F01364
:10468000DECF60EA70E084E199E10E948D0A64E186
:1046900070E081E199E10E948D0A809181179091EB
:1046A0008217865A9F4F90938217809381170E949A
:1046B000B7036B017C014B015C0128EB820E2BE000
:1046C000921EA11CB11C0E94B7036C197D098E09B2
:1046D0009F09683B7B408105910548F583E69BE097
:1046E0000E9415130E94B7036C197D098E099F095A
:1046F0004AE00E94ED1183E592E00E94E0118AE811
:104700009BE00E9415130E94B703A5019401261B8C
:10471000370B480B590BCA01B9014AE00E94ED1151
:1047200083E592E00E94E0110E94261FCCCF8BE926
:104730009BE00E9467126CE370E084E199E10E94C3
:104740008D0A6CE370E081E199E10E948D0AC091CD
:104750008117D0918217CA55D1090E94181FC81716
:10476000D907BCF40E94C81C82EB9BE00E94151381
:104770000E94181F0E94371287E49AE00E941513C6
:1047800080918117909182178A5591090E94F013A8
:10479000DECF60EA70E084E199E10E948D0A64E175
:1047A00070E081E199E10E948D0A809181179091DA
:1047B00082178A55910990938217809381170E94DE
:1047C000B7036B017C010E94B7036C197D098E0948
:1047D0009F0968357B418105910518F40E94261FC9
:1047E000F2CF6CE370E084E199E10E948D0A6CE302
:1047F00070E081E199E10E948D0AC0918117D0910A
:104800008217CA55D1090E94181FC817D907BCF4CE
:104810000E94C81C89EE9BE00E9415130E94181F7D
:104820000E94371287E49AE00E9415138091811745
:10483000909182178A5591090E94F013DECF60EAA9
:1048400070E084E199E10E948D0A64E170E081E109
:1048500099E10E948D0A80918117909182178A5563
:10486000910990938217809381170E94780C9093FE
:10487000861780938517E0918517F09186178481BC
:104880009581019719F40E94261FEFCF68E770E029
:1048900084E199E10E948D0A6CE370E081E199E185
:1048A0000E948D0A68EE73E080E090E00E9484032D
:1048B00068E770E084E199E10E948D0A68E770E0A2
:1048C00081E199E10E948D0AC0918117D0918217F0
:1048D000C65ADF4F0E94181F8C179D07BCF40E9418
:1048E000C81C80E29CE00E9415130E94181F0E94C1
:1048F000371287E49AE00E941513809181179091F6
:104900008217865A9F4F0E94F013DECF68E770E04F
:1049100084E199E10E948D0A6CE370E081E199E104
:104920000E948D0A8091811790918217865A9F4F1D
:104930009093821780938117DF91CF91FF90EF9032
:10494000DF90CF90BF90AF909F908F900895CF92BF
:10495000DF92EF92FF920F931F93CF93DF9303E6C3
:1049600017E125E637E147E657E169E677E189E5B2
:1049700099E10E94CE14409165175091661760919D
:104980006717709168178091691790916A170E9454
:104990004702909362178093611709E716E12BE7AE
:1049A00036E14DE756E16FE776E187E199E10E9454
:1049B000CE14E0907B16F0907C1600917D1610913D
:1049C0007E16C0917F16D0918016A701B801CE0146
:1049D0000E9447029093781680937716209169176A
:1049E00030916A1740916717509168174217530723
:1049F000A8F560916517709166176217730770F5D7
:104A0000241B350B40910F0250911002421753079F
:104A100028F520916317309164174091110250914D
:104A2000120224173507D4F040911302509114025A
:104A3000421753079CF02091611730916217409103
:104A40001502509116022417350744F040911702C1
:104A500050911802421753070CF019C20C171D078A
:104A600008F056C120E0EC16FD0608F417C250C14C
:104A70006AE570E081E199E10E948D0A6AE570E0E3
:104A800084E199E10E948D0A87EA99E10E94942CC1
:104A90008BE999E10E94942CEC0181E0C231D105AF
:104AA0000CF480E08093761681EA99E10E94942CC0
:104AB00021E0823191050CF420E020937516629775
:104AC0000CF0EEC042970CF0EBC08BE999E10E942C
:104AD000D1218C0181EA99E10E94D121EC0181ED83
:104AE0009CE00E941513C8010E94F01387EE9CE021
:104AF0000E941513CE010E94F0130C171D070CF035
:104B000094C06CE370E084E199E10E948D0A6CE34B
:104B100070E081E199E10E948D0AC0918117D091E6
:104B20008217CA55D1090E94181F8C179D07ECF4F3
:104B30000E94C81C0E94780C90938617809385175A
:104B400086EB9AE00E9415130E94181F0E943712EC
:104B500087E49AE00E941513809181179091821743
:104B60008A5591090E94F013D8CF809181179091B6
:104B700082178A559109909382178093811768E76D
:104B800070E081E199E10E948D0A6CE370E084E1BC
:104B900099E10E948D0A60ED77E080E090E00E944C
:104BA00084030E94181F90938217809381178EE2CE
:104BB0009DE00E94151380918117909182170E94A9
:104BC000F0130E94B7036B017C010E94B7036C19BC
:104BD0007D098E099F09603177428105910508F0B2
:104BE00084C00E94261F67E47DE08BE999E10E9462
:104BF000C52C882309F46DC080E59DE00E946712F2
:104C000044EF51E061E070E088EE93E00E94BA0C5E
:104C10006AE570E081E199E10E948D0A6AE570E041
:104C200084E199E10E948D0AF3CF68E770E084E1A6
:104C300099E10E948D0A68E770E081E199E10E94A4
:104C40008D0AC0918117D0918217C65ADF4F0E94FA
:104C5000181F8C179D07ECF40E94C81C0E94780C4A
:104C6000909386178093851786EB9AE00E94151320
:104C70000E94181F0E94371287E49AE00E941513C1
:104C80008091811790918217865A9F4F0E94F0134E
:104C9000D8CF8091811790918217865A9F4F6BCF02
:104CA0008CEF9CE00E9467126AE570E081E199E177
:104CB0000E948D0A6AE570E084E199E10E948D0A04
:104CC00044EF51E061E070E088EE93E00E94BA0C9E
:104CD000EBCF61E87DE081EA99E10E94C52C882351
:104CE00009F473CF89E89DE089CF89EB9DE00E94AC
:104CF00067128ECF8CEF9DE0DF91CF911F910F91C6
:104D0000FF90EF90DF90CF900C9467122111F4C0C8
:104D100080E89CE00E946712E0916317F0916417AD
:104D20002091791630917A1660916117709162170F
:104D30008091771690917816409107025091080261
:104D4000E417F507ACF0A0910902B0910A02AE1782
:104D5000BF0774F0E0910B02F0910C026E177F0711
:104D60003CF0E0910D02F0910E02E617F707E4F433
:104D7000241735070CF4BECF4091090250910A0266
:104D8000421753070CF4B6CF20910B0230910C025E
:104D9000821793070CF4AECF20910D0230910E02D2
:104DA000281739070CF4A6CF81E99CE00E9467120E
:104DB00082EA9CE00E9467126AE570E084E199E172
:104DC0000E948D0A6AE570E081E199E10E948D0AF6
:104DD00044E650E062E070E084EF91E00E94BA0C9B
:104DE0000E94660C84EB9CE00E94671270E060E019
:104DF0008BE099E10E948D0A64EB70E088E099E114
:104E00000E948D0A68EE73E080E090E00E948403C7
:104E100082EC9CE00E9467126FEA70E08EE099E1FC
:104E20000E948D0A60ED77E080E090E00E948403AC
:104E300064EF71E080E090E00E9484038CE09AE0EF
:104E40000E94151380918117909182170E9437124A
:104E500083E396E10E9415130E94181F0E94F0132D
:104E60000E94B7036B017C0120E7C20E27E1D21E2E
:104E7000E11CF11C0E94B7036C157D058E059F0592
:104E800008F0F6CD0E94261F0E94C81CF3CF0C1715
:104E90001D0790F5EC16FD0678F521E0C01BD10B3F
:104EA00040910F02509110024C175D0708F02ECF71
:104EB0004091791650917A16609111027091120208
:104EC000461757070CF422CF609113027091140219
:104ED000641775070CF41ACF409115025091160211
:104EE000841795070CF412CF4091170250911802C5
:104EF000481759070CF40ACF88E59CE00E94671216
:104F00006AE570E084E199E10E948D0A6AE570E04B
:104F100081E199E10E948D0A8CE69CE0EFCF85ED5E
:104F20008093BC008091DB179091DC17A091DD1776
:104F3000B091DE170796A11DB11D23E0B695A79588
:104F4000979587952A95D1F72091BC0024FD03C041
:104F50001092D91708954091DB175091DC1760919A
:104F6000DD177091DE17452B462B472B69F3009711
:104F7000A105B10541F02AE22A95F1F700C0019799
:104F8000A109B109E1CF8091DA170C94BB050F9309
:104F90001F93CF93DF938C01EB010E94F53E888332
:104FA000C80101960E94F53E8983CE01DF91CF9121
:104FB0001F910F910895CF93DF931F921F92CDB74A
:104FC000DEB78BE09EE00E946712BE016F5F7F4FED
:104FD00090E080E00E94C72781E39EE00E941513C5
:104FE00089819A810E94F013BE016F5F7F4F82E03A
:104FF00090E00E94C72782E798E00E9415138981FC
:105000009A810E94F013BE016F5F7F4F84E090E0B1
:105010000E94C7278FE39EE00E94151389819A8121
:105020000E94F013BE016F5F7F4F86E090E00E9408
:10503000C72780E298E00E94151389819A810E9417
:10504000F013BE016F5F7F4F88E090E00E94C7279A
:105050008BE49EE00E94151389819A810E94F013CF
:10506000BE016F5F7F4F8AE090E00E94C72787E60E
:105070009EE00E94151389819A810E94F013BE015F
:105080006F5F7F4F8CE090E00E94C72788E79EE02B
:105090000E94151389819A810E94F013BE016F5FEF
:1050A0007F4F8EE090E00E94C72786E89EE00E9436
:1050B000151389819A810E94F013BE016F5F7F4FA3
:1050C00080E190E00E94C72782E99EE00E941513CC
:1050D00089819A810E94F013BE016F5F7F4F82E148
:1050E00090E00E94C7278DE296E00E941513898107
:1050F0009A810E94F013BE016F5F7F4F84E190E0C0
:105100000E94C72780EA9EE00E94151389819A8138
:105110000E94F013BE016F5F7F4F86E190E00E9416
:10512000C72785ED95E00E94151389819A810E9419
:10513000F013BE016F5F7F4F88E190E00E94C727A8
:105140008EEA9EE00E94151389819A810E94F013D5
:10515000BE016F5F7F4F8AE190E00E94C7278CE11C
:1051600097E00E94151389819A810E94F013BE0175
:105170006F5F7F4F8CE190E00E94C7278FEB9EE02E
:105180000E94151389819A810E94F013BE016F5FFE
:105190007F4F8EE190E00E94C7278EEB96E00E9441
:1051A000151389819A810E94F013BE016F5F7F4FB2
:1051B00080E290E00E94C7278FE797E00E941513D6
:1051C00089819A810E94F0138EEC9EE00E94671202
:1051D0000F900F90DF91CF910895FF920F931F933F
:1051E000CF93DF93EC018B01FB01F0800E94F53E31
:1051F000F81621F06F2DCE010E94FD3EF801F180DE
:105200002196CE010E94F53EF81621F06F2DCE01B9
:105210000E94FD3EC801DF91CF911F910F91FF9039
:1052200008957F928F929F92AF92BF92CF92DF921A
:10523000EF92FF920F931F93CF93DF931F921F92D2
:10524000CDB7DEB78C017B016A0185EF9EE00E943D
:105250001513C8010E9415138FE09FE00E9467128A
:1052600083E098E10E94CA04892B59F46AE070E057
:1052700080E090E00E948403F3CF83E098E10E94F5
:1052800044040E949804FC0197FD68C08D3291058A
:1052900019F0C0970A9788F7812C912C5401712C32
:1052A000E130F105D9F0ED32F10509F454C0CF0138
:1052B000C0970A9798F4AAE0B0E0A50194010E9473
:1052C0002A3F4F01FF0FAA08BB08860E971EA81E93
:1052D000B91E80E3881A9108A108B10883E098E11B
:1052E0000E9444040E949804FC01C0970A97C0F2EF
:1052F000E130F105A9F2772041F0B094A0949094A8
:105300008094811C911CA11CB11C9A828982F60197
:1053100091828082BE016F5F7F4FC7010E94ED289E
:10532000C8010E94151381E19FE00E941513898135
:105330009A810E94F0130F900F90DF91CF911F91EF
:105340000F91FF90EF90DF90CF90BF90AF909F9024
:105350008F907F90089577247394C0CF812C912CE7
:105360005401D3CF1F920F920FB60F9211242F9397
:105370003F938F939F93AF93BF93809189179091A1
:105380008A17A0918B17B0918C173091881723E062
:10539000230F2D3758F50196A11DB11D20938817B5
:1053A0008093891790938A17A0938B17B0938C17CB
:1053B00080918D1790918E17A0918F17B0919017B3
:1053C0000196A11DB11D80938D1790938E17A09308
:1053D0008F17B0939017BF91AF919F918F913F918D
:1053E0002F910F900FBE0F901F90189526E8230F56
:1053F0000296A11DB11DD2CF1F920F920FB60F9230
:1054000011240BB60F922F933F934F935F936F939B
:105410007F938F939F93AF93BF93EF93FF9380916D
:10542000CD169091CE16A091CF16B091D016892BA3
:105430008A2B8B2BE1F19091CC16E091CA16F0915A
:10544000CB168081892780838091CD169091CE16CE
:10545000A091CF16B091D016181619061A061B0681
:105460009CF48091CD169091CE16A091CF16B0915C
:10547000D0160197A109B1098093CD169093CE164D
:10548000A093CF16B093D016FF91EF91BF91AF913B
:105490009F918F917F916F915F914F913F912F914C
:1054A0000F900BBE0F900FBE0F901F90189580911C
:1054B00000020E94C303E8CF1F920F920FB60F9213
:1054C00011240BB60F922F933F934F935F936F93DB
:1054D0007F938F939F93AF93BF93EF93FF9383E05B
:1054E00098E10E94E004FF91EF91BF91AF919F91ED
:1054F0008F917F916F915F914F913F912F910F907D
:105500000BBE0F900FBE0F901F9018951F920F9219
:105510000FB60F9211240BB60F922F938F939F9378
:10552000EF93FF93E0911318F09114188081E091AC
:105530001918F0911A1882FD1DC0908180911C18D5
:105540008F5F8F7320911D18821741F0E0911C1816
:10555000F0E0ED5FF74E958F80931C18FF91EF916F
:105560009F918F912F910F900BBE0F900FBE0F90B8
:105570001F9018958081F2CF1F920F920FB60F9255
:1055800011240BB60F922F933F934F935F936F931A
:105590007F938F939F93AF93BF93EF93FF938091EC
:1055A000B900887F803609F44DC008F040C08832C9
:1055B00009F4A7C028F5803109F49BC0C8F48823FA
:1055C00009F4F7C0883009F494C0FF91EF91BF91BE
:1055D000AF919F918F917F916F915F914F913F918B
:1055E0002F910F900BBE0F900FBE0F901F9018952C
:1055F000883109F486C0803241F78093D71714C0F0
:10560000803409F49BC040F48033B9F38833E9F661
:105610008093D71785ECAEC0803509F483C08835F8
:1056200009F494C0883489F60E948F27CECF883938
:1056300009F48AC038F5883729F050F4883611F01B
:10564000803719F683E08093D9171092C91655C098
:10565000883809F479C0803919F0803809F0B5CF5D
:105660008091C916803208F06FC0E091C91681E0C0
:105670008E0F8093C9168091BB00F0E0E755F94E7C
:1056800080833BC0803B39F0D0F4803A09F477C086
:10569000883A09F09ACF84E08093D9171092A8161F
:1056A0001092A716F0E0E0E019958091A7168111FD
:1056B0000FC081E08093A7161092871609C0803C26
:1056C00009F4A8CF883C09F4A5CF883B09F07DCF29
:1056D000E091A81681E08E0F8093A816F0E0E957BC
:1056E000F94E80818093BB009091A8168091A716F7
:1056F00029C08091B4178093BB0085EC8093BC00D7
:1057000064CF9091D6178091D517981758F5E091EE
:10571000D61781E08E0F8093D617F0E0EB54F84E49
:105720008081E9CFE091D61781E08E0F8093D61764
:105730008091BB00F0E0EB54F84E80839091D61737
:105740008091D5179817C8F285E8D8CFE091D61781
:1057500081E08E0F8093D6178091BB00F0E0EB5470
:10576000F84E80838091D81781115ECF81E08093BD
:10577000B31784EA8093BC001092D91726CF85EC2A
:105780008093BC001092D9178091C916803230F4F2
:10579000E091C916F0E0E755F94E10826091C91604
:1057A00070E089EA96E1F0E0E0E019951092C91600
:1057B0000CCF1092D71738CF1F920F920FB60F92BF
:1057C00011240BB60F922F933F934F935F936F93D8
:1057D0007F938F939F93AF93BF93EF93FF9348E291
:1057E00051E064E271E090E080E00E94AC0BFF9138
:1057F000EF91BF91AF919F918F917F916F915F9149
:105800004F913F912F910F900BBE0F900FBE0F90B5
:105810001F9018951F920F920FB60F9211240BB67E
:105820000F922F933F934F935F936F937F938F9339
:105830009F93AF93BF93EF93FF9348EA50E064EADE
:1058400070E083E090E00E94AC0BFF91EF91BF917C
:10585000AF919F918F917F916F915F914F913F9108
:105860002F910F900BBE0F900FBE0F901F901895A9
:105870001F920F920FB60F9211240BB60F922F9317
:105880003F934F935F936F937F938F939F93AF93C8
:10589000BF93EF93FF9348E950E064E970E082E042
:1058A00090E00E94AC0BFF91EF91BF91AF919F915F
:1058B0008F917F916F915F914F913F912F910F90B9
:1058C0000BBE0F900FBE0F901F9018951F920F9256
:1058D0000FB60F9211240BB60F922F933F934F9355
:1058E0005F936F937F938F939F93AF93BF93EF9348
:1058F000FF9348E850E064E870E081E090E00E94A7
:10590000AC0BFF91EF91BF91AF919F918F917F91E0
:105910006F915F914F913F912F910F900BBE0F9020
:105920000FBE0F901F901895CF92DF92EF92FF92CB
:105930000F931F93CF93DF936C0184E1E82EF12C3A
:1059400010E000E0C0E1D7E2C6010E94D1218C172F
:105950009D070CF4EC01081719070CF48C016AE0A0
:1059600070E080E090E00E94840381E0E81AF10892
:1059700059F7C8018C1B9D0BDF91CF911F910F919F
:10598000FF90EF90DF90CF9008952F923F924F922B
:105990005F926F927F928F929F92AF92BF92CF92BF
:1059A000DF92EF92FF920F931F93CF93DF93CDB7C8
:1059B000DEB72C970FB6F894DEBF0FBECDBF3C010B
:1059C0006B01CE0101969C878B874E019BE0890E6F
:1059D000911CAB84BC8410E000E0F12CE12C92E33C
:1059E000492E512CC3010E94D121F501823391052A
:1059F0000CF0A0C091838083E80EF91E0F5F1F4F4B
:105A00006AE070E080E090E00E948403F2E0AF0E74
:105A1000B11C8A149B0431F7033011050CF495C0B6
:105A2000B701FF0C880B990B0E94D53D4B015C011F
:105A3000B801110F880B990B0E94D53D9B01AC0159
:105A4000C501B4010E944D404B015C01F12CE12CD9
:105A500010E000E085EE9AE00E941513C6010E9456
:105A6000151387EE9AE00E941513C8010E943712A1
:105A700083EF94E10E941513EB85FC852190319012
:105A8000FC87EB87C1010E94371282EF9AE00E94E7
:105A9000151342E0C501B4010E9417138EEF9AE07E
:105AA0000E941513B101032C000C880B990B0E9466
:105AB000D53D9B01AC01C501B4010E946E3F2B0195
:105AC0003C0142E00E94171383E592E00E94E0113E
:105AD000F2E32F1631048CF520E030E040E850E48A
