:020000040000FA
:100000000C94EE010C941F020C941F020C941F021E
:100010000C941F020C941F020C941F020C941F02DC
:100020000C941F020C941F020C941F020C941F02CC
:100030000C941F020C94F21B0C941F020C941F02D0
:100040000C941F020C945C1E0C941F020C941F0253
:100050000C941F020C941F020C941F020C94A81BFA
:100060000C941F020C947C1C0C94521C0C941F02C8
:100070000C941F020C941F020C941F020C941F027C
:100080000C942E1E0C941F020C941F020C941F0241
:100090000C941F020C941F020C941F020C94B21CAF
:1000A0000C941F020C941F020C94001E0C941F024F
:1000B0000C941F020C941F020C941F020C94D21D6E
:1000C0000C941F020C941F020C941F020C941F022C
:1000D0000C941F020C941F020C941F020C941F021C
:1000E0000C941F02084AD73B3BCE016E84BCBFFD77
:1000F000C12F3D6C74319ABD56833DDA3D00C77FF8
:1001000011BED9E4BB4C3E916BAAAABE0000008090
:100110003F07634236B79BD8A71A39685618AEBA5C
:10012000AB558C1D3CB7CC5763BD6DEDFD753EF6F0
:10013000177231BF000000803F08000000BE92240B
:1001400049123EABAAAA2ABECDCCCC4C3E00000040
:1001500080BEABAAAAAA3E00000000BF000000803B
:100160003F0000000000084178D3BB4387D1133D16
:10017000190E3CC3BD4282AD2B3E68EC8276BED9DF
:100180008FE1A93E4C80EFFFBE01C4FF7F3F00001E
:10019000000000000C94E5060C948F2B0C949B023D
:1001A0000C946A070C94D32E0C94D6230C946C2CCC
:1001B0000C94402C0C94F92C0C94BA230C94DF2B47
:1001C0000C94A1020C94622B0C941E040C940E0748
:1001D0000C94E4060C94C7020C94F4060C9433249B
:1001E0000C948C020C94B3020C9464040C94A5023D
:1001F0000C94FC230C94F62C0C94F02B0C94AA0475
:100200000C94CB020C948A1E0C94AB020C94C82361
:100210000C94C6020C9412050C9407070C94EE2360
:100220000C943B070C9472040C9490020C94C10241
:100230000C94E2030C9470270C949F2E0C94592D6F
:100240000C94372E0C9498020C94BD020C94B72396
:100250000C94762B0C94B0230C9486020C94E4231B
:100260000C94AF020C94B9020C94792C0C94532C7E
:100270000C940F040C9494020C94B92D0243616CFD
:1002800063756C6174696E67206F666673657473FD
:100290002C20646F206E6F74206D6F7665204D503A
:1002A0005536303530004D5055363035302073746A
:1002B000617475733A200000000A0B02090C0D0EE0
:1002C0000807030401000000000000000000000017
:1002D000000000000000000000000000000000001E
:1002E00000000012111000000000000000000000DB
:1002F00000000000000000000000000000000020DE
:10030000002300260029002C002F003200000100ED
:100310000003010601090100002100240027002A32
:10032000002D003000330001010000040107010A24
:100330000100002200250028002B002E003100348F
:100340000002010000050108010B0101021020203C
:100350000808102040102040800201020108040219
:10036000010102040810204080804020100804028F
:1003700001800402018040201008040201080402E8
:1003800001010204081020408001020408102040EE
:100390008005050505070508080808020202020A8B
:1003A0000A08080404040401010101010101010318
:1003B00003030303030303040707070C0C0C0C0CD3
:1003C0000C0C0C0202020206060606060606060BC6
:1003D0000B0B0B0B0B0B0B008A1ED32E11241FBE15
:1003E000CFEFD1E2DEBFCDBF00E00CBF1DE0A0E04B
:1003F000B2E0E6E3FDE600E00BBF02C007900D921D
:10040000AC33B107D9F720E1ACE3BDE001C01D92E8
:10041000A439B207E1F711E0CDEED1E000E006C06B
:1004200021970109802FFE010E944734CC3ED1075D
:1004300080E00807A9F70E944A1F0C9489360C94A3
:100440000000CF92DF92EF92FF920F931F93CF9312
:10045000DF938B01EA01BC0190E080E00E94252F30
:1004600026ED39E346EA5EEB0E94862F6B017C01A4
:10047000B80190E080E00E94252F27E038E04AECA8
:100480005FE30E94862F9B01AC01C701B6010E9469
:10049000C1306B017C01BE0190E080E00E94252FFD
:1004A00024E73EE54BE35FEB0E94862F9B01AC0106
:1004B000C701B6010E94C1300E941832CB01DF9102
:1004C000CF911F910F91FF90EF90DF90CF90089503
:1004D0008150823108F05AC0E82FF0E08827EC58AC
:1004E000FD4F8F4F0C9447349402980286028C0281
:1004F0009002C6029B02A102A502AB02AF02B302A8
:10050000B902BD02C602C102C702CB0280918000BF
:100510008F77809380000895809180008F7DF9CF40
:1005200080918000877FF5CF84B58F7784BD089553
:1005300084B58F7DFBCF8091B0008F778093B00022
:1005400008958091B0008F7DF9CF809190008F77D2
:10055000809390000895809190008F7DF9CF8091D5
:100560009000877FF5CF8091A0008F778093A000C7
:1005700008958091A0008F7DF9CF8091A000877FA2
:10058000F5CF809120018F7780932001089580918D
:1005900020018F7DF9CF80912001877FF5CF1F93B8
:1005A000CF93DF93282F30E0F901E954FD4F849178
:1005B000F901E55BFC4FD491F901EF56FC4FC49172
:1005C000CC23A9F0162F81110E946802EC2FF0E0D5
:1005D000EE0FFF1FEF5CFC4FA591B4918FB7F8941D
:1005E000EC91111108C0D095DE23DC938FBFDF9111
:1005F000CF911F910895DE2BF8CFCF93DF9390E03A
:10060000FC01E55BFC4F24918F569C4FFC018491CB
:100610008823D1F090E0880F991FFC01E95EFC4F20
:10062000A591B491FC01EF5CFC4FC591D49161118F
:100630000EC09FB7F8948C91E22FE0958E238C9397
:100640002881E223E8839FBFDF91CF9108958FB780
:10065000F894EC91E22BEC938FBFF6CF82309105AA
:1006600038F0880F991F880F991F05970197F1F7A8
:1006700008953FB7F8948091700E9091710EA091FB
:10068000720EB091730E26B5A89B05C02F3F19F0CE
:100690000196A11DB11D3FBFBA2FA92F982F882702
:1006A000BC01CD01620F711D811D911D42E0660FDD
:1006B000771F881F991F4A95D1F708958F929F92AF
:1006C000AF92BF92CF92DF92EF92FF926B017C01CB
:1006D0000E9439034B015C01C114D104E104F1040F
:1006E000B9F00E943903681979098A099B09683EA3
:1006F00073408105910580F321E0C21AD108E10819
:10070000F10888EE880E83E0981EA11CB11CE4CF8E
:10071000FF90EF90DF90CF90BF90AF909F908F9021
:1007200008952FB7F89460916C0E70916D0E8091C2
:100730006E0E90916F0E2FBF089590910002891355
:100740000DC0ECE7F2E0E4919FEF90930002E230FD
:10075000E1F038F4EE2381F0E13089F060E00C94B0
:10076000CF02E43049F110F1E530C1F79091730008
:100770009D7F90937300F2CF10926E00EFCF909117
:100780006F009D7F90936F00E9CF909170009D7FE7
:100790009093700091E09093B0009091B100987F99
:1007A00094609093B1001092B300D8CF90917100F3
:1007B0009D7F90937100D2CF909172009D7F909316
:1007C0007200CCCFAF92BF92CF92DF92EF92FF92A6
:1007D0000F931F93CF93DF936C017B018B01040F69
:1007E000151FEB015E01AE18BF08C017D10759F005
:1007F0006991D601ED91FC910190F081E02DC60147
:100800001995892B79F7C501DF91CF911F910F9130
:10081000FF90EF90DF90CF90BF90AF900895FC01D4
:10082000538D448D252F30E0842F90E0821B930B55
:10083000541710F0CF96089501970895FC01918DFB
:10084000828D981761F0A28DAE0FBF2FB11D5D96FE
:100850008C91928D9F5F9F73928F90E008958FEFA0
:100860009FEF08950F931F930E9491036093EE0EE4
:100870007093EF0E8093F00E9093F10E86EE9EE053
:100880000E941E0497FF1DC00E9491030091EE0E6E
:100890001091EF0E2091F00E3091F10E601B710B54
:1008A000820B930B0091EA0E1091EB0E2091EC0E4F
:1008B0003091ED0E6017710782079307F8F28FEF02
:1008C0009FEF1F910F910895FC01918D828D9817D4
:1008D00031F0828DE80FF11D858D90E008958FEF46
:1008E0009FEF0895FC01918D228D892F90E0805C0F
:1008F0009F4F821B91098F739927089586EE9EE082
:100900000E94720421E0892B09F420E0822F0895CF
:10091000FC01A48DA80FB92FB11DA35ABF4F2C9174
:10092000848D90E001968F739927848FA689B7896B
:100930002C93A089B1898C91837080648C93938D62
:10094000848D981306C00288F389E02D80818F7D05
:1009500080830895EF92FF920F931F93CF93DF93BD
:10096000EC0181E0888F9B8D8C8D98131AC0E889EB
:10097000F989808185FF15C09FB7F894EE89FF89BA
:100980006083E889F98980818370806480839FBF58
:1009900081E090E0DF91CF911F910F91FF90EF9058
:1009A0000895F62E0B8D10E00F5F1F4F0F73112768
:1009B000E02E8C8D8E110CC00FB607FCFACFE889A3
:1009C000F989808185FFF5CFCE010E948804F1CF9F
:1009D000EB8DEC0FFD2FF11DE35AFF4FF0829FB717
:1009E000F8940B8FEA89FB8980818062CFCF0F93C7
:1009F0001F93CF93DF938C01D0E0C0E0F801EC0FA0
:100A0000FD1F6491662341F086EE9EE00E94AA04D9
:100A1000892B11F02196F2CFCE01DF91CF911F915A
:100A20000F910895CF93DF93EC01888D8823B9F05F
:100A3000AA89BB89E889F9898C9185FD03C08081E9
:100A400086FD0DC00FB607FCF7CF8C9185FFF2CF66
:100A5000808185FFEDCFCE010E948804E9CFDF9130
:100A6000CF91089580E090E0892B29F00E947E04C8
:100A700081110E94000080E090E0892B49F080E025
:100A800090E0892B29F00E94000081110E94000053
:100A900080E090E0892B49F080E090E0892B29F0FC
:100AA0000E94000081110E94000080E090E0892BEC
:100AB00049F080E090E0892B29F00E94000081112C
:100AC0000C94000008951F93CF93DF93C1E0C0936F
:100AD000F40D882399F1D091B8001091BA0080915B
:100AE000BC008A7B8093BC0060E084E10E94CF025E
:100AF00060E085E10E94CF021092BC0EC093BB0E55
:100B00001092960E61E084E10E94CF0261E085E1DF
:100B10000E94CF028091B9008E7F8093B9008091AE
:100B2000B9008D7F8093B90088E48093B80085E494
:100B30008093BC001093BA00D093B800DF91CF919E
:100B40001F9108958F929F92AF92BF92CF92DF92A2
:100B5000EF92FF920F931F93CF93DF93D091E50E07
:100B6000D13208F0D7C0182FC091E40E0E9439038B
:100B70006B017C018091BC0E81116BC082E080937F
:100B8000BC0E1093BB0E8FEF8093BA0E1092B90E6D
:100B9000D093B80EA4ECBEE0E8E9FEE080E0D81304
:100BA00091C01092970E8091970ECC0FC82BC093D6
:100BB000970E8091960E813009F088C01092960EA3
:100BC0000E9439036B017C018091970E8093BB00DA
:100BD0008091BE0E9091BF0EA091C00EB091C10E3B
:100BE000892B8A2B8B2BA1F00E9439030091BE0E1A
:100BF0001091BF0E2091C00E3091C10E6C197D096D
:100C00008E099F09061717072807390708F442C0FD
:100C10008091BC0083FDD8CF85EC8093BC000E94FE
:100C200039036B017C018091BC0E823009F450C005
:100C30008091BA0E8F3F09F46FC08091BA0E803256
:100C400009F46CC08091BA0E803309F469C084E065
:100C500026C08091BE0E9091BF0EA091C00EB091A3
:100C6000C10E892B8A2B8B2B09F484CF0E94390368
:100C70008090BE0E9090BF0EA090C00EB090C10E9E
:100C80006C197D098E099F0986169706A806B90674
:100C900008F070CF8091BD0E0E94630585E0109230
:100CA000C30E1092E50E1092C20EDF91CF911F91EC
:100CB0000F91FF90EF90DF90CF90BF90AF909F90FB
:100CC0008F9008959D9191938F5F69CF85EEA5CF09
:100CD0008091BE0E9091BF0EA091C00EB091C10E3A
:100CE000892B8A2B8B2B09F49ECF0E94390300910C
:100CF000BE0E1091BF0E2091C00E3091C10E6C1926
:100D00007D098E099F09061717072807390708F07C
:100D10008ACFC0CF81E0C3CF80E0C1CF82E0BFCF18
:100D200083E0BDCF1F93CF93DF93162FCFE8DFE093
:100D3000A981BA819B8121E02093C20E9093E40E99
:100D40001092C30E1092E50EED91FC911197019057
:100D5000F081E02D682FCD01199589819A81DC0100
:100D6000ED91FC910190F081E02D612F199581E0CA
:100D7000DF91CF911F910C94A2052091150E260FA3
:100D80003327331F21323105ECF42091BC0EFC01D6
:100D900090E080E0243069F082E00895A091150E83
:100DA0002191AC014B50524FA40FB52FB11D2C9384
:100DB0000196861798F38091150E680F6093150EB3
:100DC00080E0089581E008950895E091750E809186
:100DD000740EE81730F4F0E0EA58F14F808190E0AB
:100DE00008958FEF9FEF08959091750E8091740E86
:100DF0002FEF3FEF981748F4E92FF0E0EA58F14F52
:100E0000208130E09F5F9093750EC9010895809115
:100E1000740E9091750E891B990B0895CF92DF92F5
:100E2000EF92FF920F931F93CF93DF937C01CB013F
:100E30008A012091C20E222389F0EB016B01C40EBE
:100E4000D51ECC15DD0569F06991D701ED91FC91B6
:100E50000190F081E02DC7011995F3CF642F0E9416
:100E6000BD06C801DF91CF911F910F91FF90EF90C8
:100E7000DF90CF900895CF93DF931F92CDB7DEB769
:100E800069832091C20E2223F9F02091E50E2032D1
:100E900058F021E030E0FC013383228390E080E0D1
:100EA0000F90DF91CF9108958091C30EE82FF0E06D
:100EB000EC53F14F998190838F5F8093C30E8093A1
:100EC000E50E81E090E0ECCF61E0CE0101960E945A
:100ED000BD06F7CF90E080E00895CF92DF92EF92C9
:100EE000FF920F931F93CF93DF93EC01EE81FF816D
:100EF00090818B81809589238083EA85FB85808121
:100F00009B81892B8083EC81FD8190818A818095F2
:100F100089238083E885F98580819A81892B808364
:100F200089899A89009711F00E942E03EA85FB8532
:100F300090818B818095892380838B89882331F0F0
:100F4000EE81FF8180819B81892B80838C8988231E
:100F5000C9F00E9491036B017C01EE85FF858081C1
:100F60009B81892379F40E9491036C197D098E0974
:100F70009F090D891E892F89388D60177107820797
:100F8000930758F389899A89009711F00E942E03DC
:100F9000E885F98590818A818095892380838B8972
:100FA000882331F0EC81FD8180819A81892B8083B7
:100FB00089899A89009751F0DF91CF911F910F9104
:100FC000FF90EF90DF90CF900C942E03DF91CF91A4
:100FD0001F910F91FF90EF90DF90CF900895CF93E6
:100FE000DF93EC01E885F98590818A8180958923DA
:100FF00080838B89882331F0EC81FD8180819A8107
:10100000892B8083EA85FB8590818B81809589235C
:1010100080838B89882331F0EE81FF8180819B81E1
:10102000892B808389899A89009711F00E942E0369
:10103000EC85FD8590818A819823EE85FF8520814E
:101040003B81232311F480E028C09923E1F3EC8154
:10105000FD819081809589238083E885F985808151
:101060009A81892B808389899A89009711F00E943F
:101070002E03EE81FF8190818B818095892380836F
:10108000EA85FB8580819B81892B808389899A8968
:10109000009711F00E942E0381E0DF91CF91089517
:1010A000CF92DF92EF92FF920F931F93CF93DF9334
:1010B000EC01E885F98590818A8180958923808378
:1010C0008B89882331F0EC81FD8180819A81892B85
:1010D0008083EA85FB8590818B818095892380833D
:1010E0008B89882331F0EE81FF8180819B81892B60
:1010F00080838C898823C9F00E9491036B017C0155
:10110000EE85FF8580819B81892379F40E9491037C
:101110006C197D098E099F090D891E892F89388DCB
:10112000601771078207930758F389899A89009796
:1011300011F00E942E03EC85FD8580819A81892320
:1011400011E009F410E0EE81FF8190818B818095A0
:1011500089238083EA85FB8580819B81892B80831D
:1011600089899A89009711F00E942E03812FDF91BF
:10117000CF911F910F91FF90EF90DF90CF90089546
:10118000CF92DF92EF92FF920F931F93CF93DF9353
:10119000EC018A81809561115EC0EC81FD819081B6
:1011A00089238083E885F98580819A81892B8083D2
:1011B00089899A89009711F00E942E03EA85FB85A0
:1011C00090818B818095892380838B89882331F05E
:1011D000EE81FF8180819B81892B80838C8988238C
:1011E000C9F00E9491036B017C01EE85FF8580812F
:1011F0009B81892379F40E9491036C197D098E09E2
:101200009F090D891E892F89388D60177107820704
:10121000930758F389899A89009711F00E942E0349
:10122000EE81FF8190818B81809589238083EA857F
:10123000FB8580819B81892B808389899A8900978E
:10124000B1F0DF91CF911F910F91FF90EF90DF9060
:10125000CF900C942E03E885F985908189238083B3
:101260008B89882309F4A4CFEC81FD819DCFDF9188
:10127000CF911F910F91FF90EF90DF90CF90089545
:101280000F931F93CF93DF938C01D62FC8E06D2F60
:101290006078C8010E94C008DD0FC150C1F7C801C5
:1012A000DF91CF911F910F910C945008CF93DF9352
:1012B000FC012089211106C0EC010E944009811126
:1012C00006C0188A81E090E0DF91CF91089582E016
:1012D000888BF8CF1F93CF93DF93EC01162F188ADA
:1012E0000E94EF07882379F0612F660FCE010E94DC
:1012F0004009811105C0188ADF91CF911F9108958F
:1013000082E0888BF9CF84E0FCCFFC019389138ABB
:10131000A085B1852C918281809582238C938389CD
:10132000882331F0A481B5818C912281822B8C930A
:10133000A285B3852C918381809582238C938389A8
:10134000882331F0A681B7818C912381822B8C93E5
:10135000938B08950F931F93CF93DF93CDB7DEB791
:10136000EB970FB6F894DEBF0FBECDBFDC011C9229
:101370008BEE90E014969C938E93139781E090E00F
:1013800012969C938E93119715966C9315971696BB
:101390004C93169769834A838C8B8D8B82E090E007
:1013A0009B8B8A8B08EE13E020E030E00E8B1F8BC6
:1013B000288F398F70E0FB01EF56FC4F2491655B5D
:1013C0007C4FFB0164916B8330E0220F331FF901E6
:1013D000EF5CFC4F859194919E838D83F901E95ECA
:1013E000FC4F859194919A878987F901E350FD4FCD
:1013F000859194919E878D8750E0FA01EF56FC4FBE
:101400002491455B5C4FFA0144914C8330E0220FFC
:10141000331FF901EF5CFC4F8591949198878F837E
:10142000F901E95EFC4F859194919C878B87F901C6
:10143000E350FD4F85919491988B8F878BE3FE014C
:101440003196179601900D928A95E1F7CE0101969B
:101450000E948509EB960FB6F894DEBF0FBECDBF94
:10146000DF91CF911F910F910895CF92DF92EF926C
:10147000FF92CF93DF93EC01603282E07807CCF5E6
:10148000653B710514F064EB70E0898128E830E079
:10149000281B310987FD3395220F331F220F331F7D
:1014A0006901330FEE08FF088A8128E532E0281B26
:1014B000310987FD3395220F331F220F331F032E6F
:1014C000000C440B550B2C193D094E095F09DB013B
:1014D00077FF02C0B0E0A0E00E94873024EB30E04C
:1014E00040E050E00E945D30C20ED31EE41EF51EA7
:1014F000B601E881E03370F5298188E890E0821B2D
:10150000910927FD9395880F991F880F991F6817D8
:1015100079077CF02A8188E592E0821B910927FDFA
:101520009395880F991F880F991F681779070CF4F6
:10153000CB010297880F991F4FB7F8942E2F30E0F8
:10154000F901EE0FFF1FE20FF31FEC59F24F9283E8
:1015500081834FBFDF91CF91FF90EF90DF90CF90CD
:1015600008951F93CF93DF93EC01162F888180336A
:1015700008F04EC061E0812F0E94FD028881282F73
:1015800030E0F901EE0FFF1FE20FF31FEC59F24FAD
:101590001F736081607C612B608319821A822CE04A
:1015A000622F0E942734829FB001112430E020E096
:1015B000AB01420F531FFA01EE0FFF1FE40FF51F9F
:1015C000EC59F24F908196FD16C02F5F3F4F2C30A3
:1015D000310571F7813009F51092800082E0809327
:1015E00081001092850010928400B19A80916F0062
:1015F000826080936F00E8818E2F90E0FC01EE0FF7
:10160000FF1FE80FF91FEC59F24F8081806480833F
:101610008881DF91CF911F910895823061F41092FB
:10162000900080939100109295001092940088BBD6
:1016300080937100E0CF833069F41092A00082E0C3
:101640008093A1001092A5001092A40089BB809302
:101650007200D1CF8111CFCF1092200182E0809310
:10166000210110922501109224018ABB80937300FE
:10167000C2CFFC019091630D903398F481E0890F03
:101680008093630D9083892F90E0FC01EE0FFF1F84
:10169000E80FF91FEC59F24F88EB9BE092838183AE
:1016A00008958FEF80830895AF92BF92CF92DF921B
:1016B000EF92FF920F931F93CF93DF936B017A0109
:1016C000EC01C15AD24F28813CE0389F8001399FFC
:1016D000100D1124A090630DB12C27FF1FC0FB013A
:1016E0001182108288818F5F888388819801280FFA
:1016F000311D87FD3A95F6012A153B051CF48881BA
:101700008C30C4F180819181049680349C4908F426
:1017100073C0F60180819181049670C08881980120
:10172000280F311D87FD3A952A153B05DCF6888187
:10173000A801480F511D87FD5A95FA01EE0FFF1FB2
:10174000E40FF51FEC59F24F808186FFCBCF8881E3
:10175000F801E80FF11D87FDFA95CF01EE0FFF1F8D
:10176000E80FF91FEC59F24F808160E08F730E94FF
:10177000CF02B8CF808191812881A801420F511DED
:1017800027FD5A959A01FA01EE0FFF1FE20FF31F92
:10179000EC59F24F21813281820F931FF70191831F
:1017A000808388819801280F311D87FD3A95F901C2
:1017B000EE0FFF1FE20FF31FEC59F24F808186FFFF
:1017C00022C08881080F111D87FD1A95F801EE0FC0
:1017D000FF1FE00FF11FEC59F24F808161E08F7322
:1017E000DF91CF911F910F91FF90EF90DF90CF90FD
:1017F000BF90AF900C94CF0280E49CE9F7019183F5
:1018000080838FEF8883DF91CF911F910F91FF909D
:10181000EF90DF90CF90BF90AF900895EF92FF923E
:101820000F931F93CF93DF93C3E1D2E005E51DE053
:10183000299139913327F901E954FD4F8491F90138
:10184000E55BFC4FE490F901EF56FC4FF490FF206C
:1018500021F181110E946802EF2DF0E0EE0FFF1FD1
:10186000E350FD4FA591B491EC91EE2231E020E0E0
:1018700009F430E0832F922FF801819391938F0127
:10188000F2E0CD31DF07A1F685E59DE0DF91CF9154
:101890001F910F91FF90EF90089590E080E0ECCFC2
:1018A0002F923F924F925F926F927F928F929F9270
:1018B000AF92BF92CF92DF92EF92FF920F931F935E
:1018C000CF93DF9300D000D01F92CDB7DEB77D83DA
:1018D0006C83312C212C88248A94982C54016C011F
:1018E000990FEE08FF0801EB13E02A01550F660877
:1018F000770880910002803239F5ECE7F2E0F4914C
:10190000FE83F7FD70C061E080E20E94FD02FE816F
:10191000F11139C0C982DA82EB82FF8268E478EE85
:1019200081E090E029813A814B815F810E945D30A6
:10193000BA01A90141505109610971099E81992398
:1019400009F4CEC194E03DC08F3F09F04CC080E265
:1019500080930002ECE7F2E0F491FE838F2FFF3FCB
:1019600009F441C0F23009F4C8C008F069C0FF238F
:1019700009F48DC0F13009F4A2C087FD34C061E0E4
:1019800080E20E94FD028E81823009F016C1C98278
:10199000DA82EB82FF8260E970ED83E090E0A701DC
:1019A00096010E945D30BA01A901415051096109B7
:1019B000710993E04F3F51056105710511F00CF07D
:1019C000ADCF8091B100887F892B8093B100EE81EB
:1019D000E23009F475C10CF06BC1EE2309F484C147
:1019E000E13009F401C1C301B2010E945E0380E24B
:1019F0000E949D03C301B2010E945E038FEF281A6B
:101A0000380AEC81FD81E215F30509F072CF2796C3
:101A10000FB6F894DEBF0FBECDBFDF91CF911F91FF
:101A20000F91FF90EF90DF90CF90BF90AF909F907D
:101A30008F907F906F905F904F903F902F90089580
:101A40009E81943009F49BC008F479C0953009F068
:101A500094CF109220011092210180912101886081
:101A60008093210180912101816080932101F801FF
:101A70008491E82FF0E0EE0FFF1FEF5CFC4F8591A3
:101A80009491EBE6F3E0849180933C0D3CCF14BC41
:101A900015BC84B5826084BD85B5816085BDF801C3
:101AA0008491E82FF0E0EE0FFF1FEF5CFC4F859173
:101AB0009491EBE6F3E084918093400D24CF109253
:101AC0008000109281008091810088608093810065
:101AD00080918100816080938100F8018491E82FDA
:101AE000F0E0EE0FFF1FEF5CFC4F85919491EBE669
:101AF000F3E0849180933F0D06CF1092B0001092D6
:101B0000B1008091B00082608093B0008091B100FC
:101B100081608093B100F8018491E82FF0E0EE0F2E
:101B2000FF1FEF5CFC4F859194919093390E809349
:101B3000380EEBE6F3E0849180933A0EE4CE1092F7
:101B400090001092910080919100886080939100A4
:101B500080919100816080939100F8018491E82F39
:101B6000F0E0EE0FFF1FEF5CFC4F85919491EBE6E8
:101B7000F3E0849180933E0DF3E0FE83C4CE109297
:101B8000A0001092A1008091A10088608093A10024
:101B90008091A10081608093A100F8018491E82FD9
:101BA000F0E0EE0FFF1FEF5CFC4F85919491EBE6A8
:101BB000F3E0849180933D0DA6CE60E072E18AE768
:101BC00090E0A70196010E945D30BA01A901415041
:101BD000510961097109EE81E130C1F48091810000
:101BE000887F8160809381005093890040938800B2
:101BF00080924D0D90924E0DA0924F0DB092500DCF
:101C000080916F00826080936F00EDCEFE81F33093
:101C1000C1F480919100887F8160809391005093FE
:101C20009900409398008092490D90924A0DA0929D
:101C30004B0DB0924C0D80917100826080937100C9
:101C4000D2CE8E818430C1F48091A100887F8160E2
:101C50008093A1005093A9004093A8008092450D65
:101C60009092460DA092470DB092480D809172005F
:101C7000826080937200B7CE9E81953009F0A7CE26
:101C800080912101887F81608093210150932901F7
:101C9000409328018092410D9092420DA092430DF5
:101CA000B092440D809173008260809373009BCE4C
:101CB000FE81F43079F20CF4B2CFF53039F393CEE3
:101CC0004093B30080923B0E90923C0EA0923D0E4A
:101CD000B0923E0E8091700082608093700083CE3F
:101CE00085B5887F836085BD47BD8092510D9092F8
:101CF000520DA092530DB092540D80916E008260EF
:101D000080936E0070CE7F928F929F92AF92BF921F
:101D1000CF92DF92EF92FF920F931F93CF93DF93B7
:101D2000EC01062F142F188A19AE1AAE0E94EF0785
:101D3000882309F457C0602F660F6160CE010E94AE
:101D4000400981114BC0188A7E01A12EB12CD12CE3
:101D5000C12C450181E0881A9108CA14DB0459F1AD
:101D600000E088E0782EC814D904DCF4000FCE011E
:101D70000E945008082B7A947110F8CF60E0CE01D1
:101D80000E94C00889899A89009711F00E942E0349
:101D9000F701018FFFEFCF1ADF0A8FEFE81AF80A79
:101DA000DCCF000FCE010E945008082B7A947110EE
:101DB000F8CF61E0E4CF19AFCE010E946D07812F0B
:101DC000DF91CF911F910F91FF90EF90DF90CF9017
:101DD000BF90AF909F908F907F90089582E0888B06
:101DE00010E0EACF84E0FBCF4F925F926F927F9238
:101DF0008F929F92AF92BF92CF92DF92EF92FF921B
:101E00000F931F93CF93DF93CDB7DEB72E970FB607
:101E1000F894DEBF0FBECDBF8091900F9091910FCF
:101E20002091920F31E03093C20E2093E40E109275
:101E3000C30E1092E50EDC01ED91FC910190F08152
:101E4000E02D6BE3199580E00E94A2051091920F9E
:101E50000E9439034B015C018091BC0E811166C068
:101E600081E08093BC0E8093BB0E9FEF9093BA0EDF
:101E70001092B90E9DE09093B80E8093970E8091CA
:101E8000970E110F182B1093970E8091960E81309C
:101E900009F0A9C11092960E0E9439034B015C0112
:101EA0008091970E8093BB008091BE0E9091BF0EE3
:101EB000A091C00EB091C10E892B8A2B8B2BA1F063
:101EC0000E9439030091BE0E1091BF0E2091C00EEA
:101ED0003091C10E681979098A099B0906171707FD
:101EE0002807390708F443C08091BC0083FDD8CF90
:101EF00085EC8093BC000E9439034B015C0180910A
:101F0000BC0E813009F471C18091B90E8E3008F099
:101F10008EC18091B90EA8E9BEE0E6E7FEE090E050
:101F2000981751F12D9121939F5FFACF8091BE0EAA
:101F30009091BF0EA091C00EB091C10E892B8A2B3B
:101F40008B2B09F489CF0E9439034090BE0E50902C
:101F5000BF0E6090C00E7090C10E681979098A0991
:101F60009B09461657066806790608F075CF8091DA
:101F7000BD0E0E94630580E01092750E8093740E72
:101F80008E010F5F1F4F6E01BFE0CB0ED11C809101
:101F9000900F9091910FDC01ED91FC910284F385FB
:101FA000E02D1995B82E8091900F9091910FDC0142
:101FB000ED91FC910284F385E02D1995E12C8E2999
:101FC0009B29F801819391938F01CE16DF06F9F6D4
:101FD000C090970FD090980FE090990FF0909A0FC3
:101FE00069817A81072E000C880B990B0E94272F9C
:101FF000A70196010E949F312091A70F3091A80F51
:102000004091A90F5091AA0F0E94C0306093B70F62
:102010007093B80F8093B90F9093BA0F6B817C8146
:10202000072E000C880B990B0E94272FA701960101
:102030000E949F312091AB0F3091AC0F4091AD0FBA
:102040005091AE0F0E94C0306093BB0F7093BC0FD5
:102050008093BD0F9093BE0F80918F0F61E0682732
:10206000681B770B072E000C880B990B0E94272FFB
:102070004B015C016D817E81072E000C880B990B52
:102080000E94272F9B01AC01C501B4010E94862F3D
:10209000A70196010E949F312091AF0F3091B00FA0
:1020A0004091B10F5091B20F0E94C0306093BF0FAA
:1020B0007093C00F8093C10F9093C20F6F8178858A
:1020C000072E000C880B990B0E94272F20E030EF81
:1020D00041E456E40E94C13020E030E04AEA53E493
:1020E0000E949F316093B30F7093B40F8093B50F2C
:1020F0009093B60FC090930FD090940FE090950FEF
:10210000F090960F69857A85072E000C880B990B45
:102110000E94272FA70196010E949F3120919B0FBB
:1021200030919C0F40919D0F50919E0F0E94C030A6
:102130006093C30F7093C40F8093C50F9093C60F25
:102140006B857C85072E000C880B990B0E94272F2E
:10215000A70196010E949F3120919F0F3091A00FFF
:102160004091A10F5091A20F0E94C0306093C70F01
:102170007093C80F8093C90F9093CA0F6D857E85A9
:10218000072E000C880B990B0E94272FA7019601A0
:102190000E949F312091A30F3091A40F4091A50F71
:1021A0005091A60F0E94C0306093CB0F7093CC0F5C
:1021B0008093CD0F9093CE0F2E960FB6F894DEBF7E
:1021C0000FBECDBFDF91CF911F910F91FF90EF9088
:1021D000DF90CF90BF90AF909F908F907F906F9047
:1021E0005F904F90089585EE84CE8091BE0E9091C1
:1021F000BF0EA091C00EB091C10E892B8A2B8B2BE4
:1022000009F47DCE0E9439030091BE0E1091BF0EDD
:102210002091C00E3091C10E681979098A099B0975
:10222000061717072807390708F069CEA0CE8EE0F9
:1022300072CEFF920F931F93CF93DF93EC01F62E94
:102240008C01095F1F4F69E2C8010E946A096F2D66
:102250006068C8010E945609C8010E946D0742E0EB
:1022600069E2C8010E94830EFE01E05CFF4F80819D
:10227000319690812FEF3FEF981740F4DE01A90FC0
:10228000B11D90962C9130E09F5F908390814FEF2D
:102290005FEF981728F4C90FD11D48A19F5F908365
:1022A00080E0942F822B932BDF91CF911F910F9180
:1022B000FF9008950F931F93CF93DF93162F022F54
:1022C000EC01279669E2CE010E946A09612F6068DD
:1022D000CE010E945609602FCE010E945609CE0100
:1022E000DF91CF911F910F910C946D07FC0101902C
:1022F0000020E9F73197AF01481B590BBC0186EE6E
:102300009EE00C94E20381E492E00C9476118F92AB
:102310009F92AF92BF920F931F93CF93DF93CDB74E
:10232000DEB7A1970FB6F894DEBF0FBECDBF19A2DE
:10233000423008F44AE08E010F5D1F4F842E912C2D
:10234000B12CA12CA50194010E948F30E62FB90178
:10235000CA01EA30F4F4E05DD801EE938D01232B3D
:10236000242B252B79F790E080E0109719F0CD0110
:102370000E947611A1960FB6F894DEBF0FBECDBFB6
:10238000DF91CF911F910F91BF90AF909F908F9051
:102390000895E95CE1CFBC0190E080E04AE00C9454
:1023A0008711CF93DF930E94CB11EC010E94831120
:1023B0008C0F9D1FDF91CF910895CF92DF92EF9206
:1023C000FF92CF93DF936C01990FEE08FF08F7FEA1
:1023D00019C06DE286EE9EE00E94AA04EC01662719
:1023E0007727CB016C197D098E099F094AE00E946D
:1023F00087118C0F9D1FDF91CF91FF90EF90DF90A1
:10240000CF9008954AE0C701B601DF91CF91FF90C8
:10241000EF90DF90CF900C948711CF93DF930E94C1
:10242000DD11EC010E9483118C0F9D1FDF91CF9174
:102430000895BF92CF92DF92EF92FF920F931F9376
:10244000CF93DF93EC016C0187E0C80ED11C7E01B5
:10245000E0E4EE0EF11CF70110828E010F5B1F4FBE
:10246000F8011082E989FA8990818A85809589230B
:1024700080838A8D882331F0ED85FE8580819A8561
:10248000892B8083888D998D009711F00E942E03EF
:10249000EF85F889908189858095892380838A8D4D
:1024A000882331F0EB85FC8580819985892B808399
:1024B00084E0B82E888D998D009711F00E942E032C
:1024C000BA94B110F7CF8A8D882331F062E070E0C2
:1024D00080E090E00E945E0369E2C6010E946A0902
:1024E00062E9C6010E945609C6010E946D0741E0DB
:1024F00069E2C6010E94830EF8012081F701808104
:10250000281708F053C0FE01E20FF11D80A12F5FD4
:10251000F8012083182F682F70E090E080E040E100
:102520000E9487110E94831180E01434A9F581E094
:1025300088830B811C81980150E040E061E0CE016E
:102540000E945A111C830B8309811A818881811191
:1025500003C0CE010E941912980150E040E06FE0E4
:10256000CE010E945A111A83098321E030E040E035
:1025700050E060E0CE010E945A1163E070E080E01C
:1025800090E00E945E0323E030E040E050E060E035
:10259000CE010E945A1181E0DF91CF911F910F91DE
:1025A000FF90EF90DF90CF90BF9008958FEF9FEF57
:1025B000B1CFAF92BF92CF92DF92EF92FF920F9383
:1025C0001F93CF93DF93EC015B016A01790188814E
:1025D000811103C0CE010E94191264E1CE010E9454
:1025E0001911F8019183808366E1CE010E941911CF
:1025F000F5019183808368E1CE010E941911F601F3
:10260000918380836AE1CE010E941911F7019183C1
:1026100080838B819C81853D9105A1F180F4009799
:10262000D9F1803C910599F1DF91CF911F910F91E4
:10263000FF90EF90DF90CF90BF90AF900895863FCE
:102640009105D9F08F3F910541F08B3E910561F7DF
:1026500062E370E080E090E004C063E070E080E05E
:1026600090E0DF91CF911F910F91FF90EF90DF905D
:10267000CF90BF90AF900C945E0368E170E080E073
:1026800090E0EFCF65E670E080E090E0EACF6AE9A5
:1026900070E080E090E0E5CF6CEB72E080E090E0ED
:1026A000E0CFCF93DF930E947611EC010E9483115B
:1026B0008C0F9D1FDF91CF91089584E492E00E94DA
:1026C000511381E692E00E94511389E792E00E9443
:1026D000511381E992E00E94511389EA92E00E942D
:1026E00051138FEB92E00E94511385ED92E00E940E
:1026F000511383EF92E00E94511380E193E00E9416
:10270000511386E293E00E94511387E493E00C9406
:10271000511360EA70E087EF9FE00E94350A64E1A0
:1027200070E084EF9FE00E94350A84E693E00C9409
:102730005113CF92DF92EF92FF920F931F93CF939B
:10274000DF930BE41EE02DE43EE04FE45EE061E544
:102750007EE08CE390E10E94D91240914D0E5091A1
:102760004E0E60914F0E7091500E8091510E9091CF
:10277000520E0E94210290934A0E8093490E01E46A
:102780001EE023E43EE045E45EE067E47EE08AEF9D
:102790009FE00E94D912E090430EF090440E009109
:1027A000450E1091460EC091470ED091480EA701DC
:1027B000B801CE010E9421029093400E80933F0EFB
:1027C000E0914B0EF0914C0E4091410E5091420E13
:1027D0006091490E70914A0E2091510E3091520E27
:1027E000A0914F0EB091500EA217B307B8F4C0904D
:1027F0004D0ED0904E0EC216D30680F42A1B3B0B12
:102800002932310558F0E059F140EB3FF10530F441
:10281000645671096333710508F442C00C171D0733
:1028200058F420E0EC16FD0608F441C005C08AEB20
:1028300093E02CC021114BC08FE993E00E9451130B
:1028400020914B0E30914C0E8091410E9091420E92
:1028500040913F0E5091400E6091490E70914A0E8A
:102860006C5271406B3F710510F74C5251404B3F19
:102870005105E8F6285E33402F353140C0F6885EBA
:1028800093408F35914098F680EB93E0DF91CF91A4
:102890001F910F91FF90EF90DF90CF900C94511308
:1028A0000C171D07A0F4EC16FD0688F421E0C01BF0
:1028B000D10BA99708F4BECF405951404B3F510569
:1028C00008F0B8CF84569109C39708F0B3CF87E7D3
:1028D00093E00E9451136AE570E087EF9FE00E9449
:1028E000350A6AE570E084EF9FE00E94350A8BE8C4
:1028F00093E0EFCF0C9476110F931F930BE41EE03F
:102900002DE43EE04FE45EE061E57EE08CE390E1A3
:102910000E94D91240914D0E50914E0E60914F0E73
:102920007091500E8091510E9091520E0E94210292
:1029300090934A0E8093490E01E41EE023E43EE0AA
:1029400045E45EE067E47EE08AEF9FE00E94D912F2
:102950004091430E5091440E6091450E7091460E89
:102960008091470E9091480E0E9421029093400E54
:1029700080933F0E89EC93E00E9451138DED93E01C
:102980000E947A148091490E90914A0E0E94CB11B8
:1029900083EE93E00E947A1487E699E00E947A140D
:1029A0008091510E9091520E0E94CB1185EE93E0D2
:1029B0000E947A148EE699E00E947A1480914F0E5C
:1029C0009091500E0E94CB1185EE93E00E947A14F4
:1029D00085E799E00E947A1480914D0E90914E0EF9
:1029E0000E94CB1185EE93E00E947A148CE799E067
:1029F0000E947A1480914B0E90914C0E0E94CB1144
:102A000085EE93E00E947A1485EE93E00E945113C4
:102A100087EE93E00E9451138DED93E00E947A14AB
:102A200080913F0E9091400E0E94CB1183EE93E077
:102A30000E947A1487E699E00E947A148091470EEA
:102A40009091480E0E94CB1185EE93E00E947A147B
:102A50008EE699E00E947A148091450E9091460E80
:102A60000E94CB1185EE93E00E947A1485E799E0ED
:102A70000E947A148091430E9091440E0E94CB11D3
:102A800085EE93E00E947A148CE799E00E947A1414
:102A90008091410E9091420E0E94CB1185EE93E001
:102AA0000E947A1485EE93E00E9451138CEF93E01C
:102AB0000E94511386E194E00E947A148091450EA1
:102AC0009091460E2091470E3091480E821B930B39
:102AD0000E94D1118FE194E00E947A148091450EFA
:102AE0009091460E2091430E3091440E821B930B21
:102AF0000E94D11188E294E00E94511386E194E093
:102B00000E947A1480914F0E9091500E2091510E98
:102B10003091520E821B930B0E94D1118FE194E0F1
:102B20000E947A1480914F0E9091500E20914D0E7C
:102B300030914E0E821B930B0E94D11164EF71E015
:102B400080E090E00E945E031F910F9108954F92E4
:102B50005F926F927F928F929F92AF92BF92CF922D
:102B6000DF92EF92FF920F931F93CF936B017C0143
:102B7000742EAC019B010E941533882399F081E4E7
:102B800094E0CF911F910F91FF90EF90DF90CF9045
:102B9000BF90AF909F908F907F906F905F904F907D
:102BA0000C94761146015701E894B7F82FEF3FEFE8
:102BB0004FE75FE7C501B4010E94153381110DC0D5
:102BC0002FEF3FEF4FE75FE7C501B4010E94202FD1
:102BD00018161CF485E494E0D4CF2FEF3FEF4FE7B5
:102BE0005FE4C701B6010E946E3218161CF489E436
:102BF00094E0C7CF2FEF3FEF4FE75FECC701B6017F
:102C00000E94202F87FDF3CF20E030E0A901C7010B
:102C1000B6010E94202F10E000E087FF0AC06DE29D
:102C200086EE9EE00E94AA048C01F7FAF094F7F871
:102C3000F094C0E060E070E080E09FE37C1641F03B
:102C400020E030E040E251E40E949F31CF5FF6CFB8
:102C5000A70196010E94C1302B013C010E9418324D
:102C60004B015C014AE00E9487117C01E00EF11EDD
:102C7000CC23A9F1C501B4010E94252F9B01AC0111
:102C8000C301B2010E94C0304B015C016EE286EECE
:102C90009EE00E94AA04E80EF91EC15000F120E057
:102CA00030E040E251E4C501B4010E94862F2B01BF
:102CB0003C010E9418324B01CB010E94CB11E80E5F
:102CC000F91EB40190E080E00E94252F9B01AC0129
:102CD000C301B2010E94C0304B015C01DECFC701CD
:102CE000CF911F910F91FF90EF90DF90CF90BF9009
:102CF000AF909F908F907F906F905F904F900895CE
:102D00004F925F926F927F928F929F92AF92BF92FB
:102D1000CF92DF92EF92FF920F931F93CF93DF93A7
:102D2000CDB7DEB72C970FB6F894DEBF0FBECDBF80
:102D30000E94F40EC090BF0FD090C00FE090C10F62
:102D4000F090C20F21E030E03A83298320E030E0A8
:102D5000A901C701B6010E946E3287FF02C01A8224
:102D6000198201E010E020E030E0A901C701B601BE
:102D70000E94202F87FD02C010E000E069817A8167
:102D8000601B710B072E000C880B990B0E94272FDC
:102D90006D837E838F839887A7019601C701B60153
:102DA0000E94862F2B013C01C090B70FD090B80F26
:102DB000E090B90FF090BA0FA7019601C701B601D4
:102DC0000E94862FA30192010E94C1300E94D1323D
:102DD0009B01AC018090BB0F9090BC0FA090BD0FE9
:102DE000B090BE0F6D817E818F8198850E94862F65
:102DF0009B01AC01C501B4010E94403121EE3EE2CD
:102E000045E652E40E94862F6093CF0F7093D00F57
:102E10008093D10F9093D20FA5019401C501B40105
:102E20000E94862FA30192010E94C1300E94D132DC
:102E30009B01AC01C701B6010E944031905821EEC0
:102E40003EE245E652E40E94862F6093D30F7093D2
:102E5000D40F8093D50F9093D60F0E9491036B01EE
:102E60007C018091E30F9091E40FA091E50FB09168
:102E7000E60FA7019601281B390B4A0B5B0BCA0111
:102E8000B9010E94252F2FE632E143E85AE30E9460
:102E9000862F4B015C01C092E30FD092E40FE092C9
:102EA000E50FF092E60F8091E70F9091E80FA09167
:102EB000E90FB091EA0F89839A83AB83BC8340907A
:102EC000CF0F5090D00F6090D10F7090D20F209103
:102ED000C30F3091C40F4091C50F5091C60FC5016B
:102EE000B4010E94862F2091D70F3091D80F4091C6
:102EF000D90F5091DA0F0E94C130A30192010E94B4
:102F0000C0306B017C0120E030E044E353E40E94D8
:102F10006E3218163CF420E030E044EB53E4C70175
:102F2000B601EDCF20E030E044E353ECC701B60139
:102F30000E94202F87FF0BC020E030E044EB53E4D9
:102F4000C701B6010E94C1306B017C01EBCF298122
:102F50003A814B815C8160E070E080E89FE30E94F1
:102F6000C03069877A878B879C87A7019601C30148
:102F7000B2010E94C13029813A814B815C810E945B
:102F8000862F6B017C0129853A854B855C85C301C1
:102F9000B2010E94862F9B01AC01C701B6010E94BD
:102FA000C1306B017C0120E030E044E353E40E9437
:102FB0006E3218164CF420E030E044EB53E4C701C5
:102FC000B6010E94C030EDCF20E030E044E353EC86
:102FD000C701B6010E94202F87FF0BC020E030E020
:102FE00044EB53E4C701B6010E94C1306B017C0180
:102FF000EBCFC092D70FD092D80FE092D90FF092BA
:10300000DA0F4090D30F5090D40F6090D50F70908E
:10301000D60F2091C70F3091C80F4091C90F509122
:10302000CA0F6D817E818F8198850E94862FA501B0
:1030300094010E94862F2091DB0F3091DC0F40918C
:10304000DD0F5091DE0F0E94C130A30192010E945A
:10305000C0306B017C0120E030E044EB52E40E9480
:103060006E3218163CF420E030E044E353E4C7012C
:10307000B601EDCF20E030E044EB52ECC701B601E1
:103080000E94202F87FF0BC020E030E044E353E490
:10309000C701B6010E94C1306B017C01EBCFA701D3
:1030A0009601C301B2010E94C13029813A814B814E
:1030B0005C810E94862F6B017C01A30192016985CE
:1030C0007A858B859C850E94862F9B01AC01C70168
:1030D000B6010E94C1306B017C0120E030E044EB7E
:1030E00052E40E946E3218164CF420E030E044E3C3
:1030F00053E4C701B6010E94C030EDCF20E030E0BC
:1031000044EB52ECC701B6010E94202F87FF0BC091
:1031100020E030E044E353E4C701B6010E94C1302F
:103120006B017C01EBCFC092DB0FD092DC0FE09201
:10313000DD0FF092DE0F2091CB0F3091CC0F40913C
:10314000CD0F5091CE0FC501B4010E94862F209162
:10315000DF0F3091E00F4091E10F5091E20F0E949C
:10316000C1306093DF0F7093E00F8093E10F909375
:10317000E20F2C960FB6F894DEBF0FBECDBFDF91E5
:10318000CF911F910F91FF90EF90DF90CF90BF9064
:10319000AF909F908F907F906F905F904F90089529
:1031A0000E9480166091DF0F7091E00F8091E10F17
:1031B0009091E20F0E941132CB010895EF92FF929D
:1031C0000F931F93CF93DF938DE494E00E945113EC
:1031D00068E770E087EF9FE00E94350A6CE370E0DB
:1031E00084EF9FE00E94350A0E94801666E970E035
:1031F00080E090E00E945E036AE570E087EF9FE068
:103200000E94350A6AE570E084EF9FE00E94350A6B
:103210000BE41EE02DE43EE04FE45EE061E57EE07D
:103220008CE390E10E94D91240914D0E50914E0EC8
:1032300060914F0E7091500E8091510E9091520EF0
:103240000E94210290934A0E8093490E01E41EE0F1
:1032500023E43EE045E45EE067E47EE08AEF9FE041
:103260000E94D912E090430EF090440EC091450E9A
:10327000D091460E0091470E1091480EA701BE0155
:10328000C8010E942102FC019093400E80933F0EE2
:1032900040914B0E50914C0E6091410E7091420E38
:1032A000493E83E058072CF0693E83E078070CF034
:1032B00033C120914F0E3091500E8091510E90915C
:1032C000520E8217930788F5A0914D0EB0914E0EC5
:1032D000A217B30750F5281B390B8091010290917A
:1032E00002028217930708F5809105029091060269
:1032F00048175907D4F08091030290910402841773
:1033000095079CF08091490E90914A0E20910902F8
:1033100030910A028217930744F021E0A09107023E
:10332000B0910802A817B9070CF420E00C171D078C
:1033300048F5EC16FD0630F5C01BD10B809101025B
:10334000909102028C179D07E8F4809105029091FC
:10335000060268177907B4F0809103029091040285
:10336000861797077CF08091090290910A02E8176E
:10337000F90744F091E0A0910702B0910802AE175E
:10338000BF070CF490E0461B570B57FF03C0519545
:1033900041955109443651050CF053C0222309F4DC
:1033A000DBC0992309F450C088E594E00E947A14A8
:1033B0008CE694E00E947A148091640E9091650EE0
:1033C0000E94DD118CE19DE00E947A140E94D018C9
:1033D0000E940D1262E370E087EF9FE00E94350AC1
:1033E00062E370E084EF9FE00E94350A44E650E01B
:1033F00063E070E088EE93E00E94500CC091640E90
:10340000D091650ECF5AD1090E94D0188C179D0714
:103410000CF45EC00E9480168DE794E00E947A143E
:103420000E94D0180E94DD118AEA94E00E947A146A
:103430008091640E9091650E8F5A91090E940D1231
:10344000DDCF222309F488C086EB94E00E9451135B
:1034500068E770E087EF9FE00E94350A6CE370E058
:1034600084EF9FE00E94350A60E070E0CB010E948B
:103470005E036CE370E087EF9FE00E94350A6CE327
:1034800070E084EF9FE00E94350AC091640ED091F5
:10349000650ECA55D1090E94D018C817D9070CF07B
:1034A00042C00E94801688EC94E00E947A140E9428
:1034B000D0180E94DD118AEA94E00E947A1480916B
:1034C000640E9091650E8A5591090E940D12DDCF10
:1034D00068E770E087EF9FE00E94350A6CE370E0D8
:1034E00084EF9FE00E94350A60ED77E080E090E095
:1034F0000E945E038091640E9091650E8F5A91092F
:103500009093650E8093640E10925E0E10925F0E83
:103510001092600E1092610EDF91CF911F910F916A
:10352000FF90EF90089568E770E087EF9FE00E94BA
:10353000350A6CE370E084EF9FE00E94350A60ED8D
:1035400077E080E090E00E945E038091640E9091AD
:10355000650E8A559109D4CF9923F1F28EEF94E04C
:103560000E94511368E770E087EF9FE00E94350AE0
:103570006CE370E084EF9FE00E94350A60E070E049
:10358000CB010E945E030E94D0189093650E809339
:10359000640E68E770E087EF9FE00E94350A68E7F5
:1035A00070E084EF9FE00E94350AC091640ED091D4
:1035B000650EC65ADF4F0E94D0188C179D07BCF4C9
:1035C0000E94801681E195E00E947A140E94D01832
:1035D0000E94DD118AEA94E00E947A148091640EC0
:1035E0009091650E865A9F4F0E940D12DECF68E7BC
:1035F00070E087EF9FE00E94350A6CE370E084EF93
:103600009FE00E94350A60ED77E080E090E00E9444
:103610005E038091640E9091650E865A9F4F70CF25
:103620000F931F93CF93DF93EC01888199810097CB
:1036300059F02A813B812617370730F081E0DF916E
:10364000CF911F910F9108958B016F5F7F4F0E9463
:103650008F35009759F0998388831B830A832C81C7
:103660003D81232B59F7FC011082E8CF80E0E7CFA2
:1036700085ED8093BC008091BE0E9091BF0EA0910D
:10368000C00EB091C10E0796A11DB11D23E0B695E5
:10369000A795979587952A95D1F72091BC0024FD91
:1036A00003C01092BC0E08954091BE0E5091BF0E03
:1036B0006091C00E7091C10E452B462B472B69F3CC
:1036C0000097A105B10541F02AE22A95F1F700C063
:1036D0000197A109B109E1CF8091BD0E0C9463055A
:1036E0000F931F93CF93DF938C01EB010E94473020
:1036F0008883C80101960E9447308983CE01DF91FB
:10370000CF911F910F910895FF920F931F93CF9325
:10371000DF93EC018B01FB01F0800E944730F8162B
:1037200021F06F2DCE010E944F30F801F1802196DB
:10373000CE010E944730F81621F06F2DCE010E9475
:103740004F30C801DF91CF911F910F91FF900895E5
:103750001F920F920FB60F9211242F933F938F93C6
:103760009F93AF93BF9380916C0E90916D0EA0913B
:103770006E0EB0916F0E30916B0E23E0230F2D373C
:1037800058F50196A11DB11D20936B0E80936C0E10
:1037900090936D0EA0936E0EB0936F0E8091700E8D
:1037A0009091710EA091720EB091730E0196A11DB1
:1037B000B11D8093700E9093710EA093720EB09312
:1037C000730EBF91AF919F918F913F912F910F9069
:1037D0000FBE0F901F90189526E8230F0296A11D8B
:1037E000B11DD2CF1F920F920FB60F9211240BB6BC
:1037F0000F922F933F934F935F936F937F938F938A
:103800009F93AF93BF93EF93FF9380913B0E909163
:103810003C0EA0913D0EB0913E0E892B8A2B8B2B36
:10382000E1F190913A0EE091380EF091390E8081DD
:103830008927808380913B0E90913C0EA0913D0E94
:10384000B0913E0E181619061A061B069CF48091BC
:103850003B0E90913C0EA0913D0EB0913E0E019713
:10386000A109B10980933B0E90933C0EA0933D0EAD
:10387000B0933E0EFF91EF91BF91AF919F918F91C9
:103880007F916F915F914F913F912F910F900BBE60
:103890000F900FBE0F901F901895809100020E940C
:1038A0009D03E8CF1F920F920FB60F9211240BB613
:1038B0000F922F933F934F935F936F937F938F93C9
:1038C0009F93AF93BF93EF93FF9386EE9EE00E948A
:1038D0008804FF91EF91BF91AF919F918F917F915C
:1038E0006F915F914F913F912F910F900BBE0F9071
:1038F0000FBE0F901F9018951F920F920FB60F9248
:1039000011240BB60F922F938F939F93EF93FF93F6
:10391000E091F60EF091F70E8081E091FC0EF091AF
:10392000FD0E82FD1DC090818091FF0E8F5F8F7311
:103930002091000F821741F0E091FF0EF0E0EA5174
:10394000F14F958F8093FF0EFF91EF919F918F9193
:103950002F910F900BBE0F900FBE0F901F901895D8
:103960008081F2CF1F920F920FB60F9211240BB6E7
:103970000F922F933F934F935F936F937F938F9308
:103980009F93AF93BF93EF93FF938091B900887F8C
:10399000803609F44DC008F040C0883209F4A7C051
:1039A00028F5803109F49BC0C8F4882309F4F7C0D6
:1039B000883009F494C0FF91EF91BF91AF919F912E
:1039C0008F917F916F915F914F913F912F910F90C8
:1039D0000BBE0F900FBE0F901F901895883109F401
:1039E00086C0803241F78093BA0E14C0803409F447
:1039F0009BC040F48033B9F38833E9F68093BA0E64
:103A000085ECAEC0803509F483C0883509F494C0D4
:103A1000883489F60E94381BCECF883909F48AC0D1
:103A200038F5883729F050F4883611F0803719F6C8
:103A300083E08093BC0E1092370E55C0883809F48D
:103A400079C0803919F0803809F0B5CF8091370EF0
:103A5000803208F06FC0E091370E81E08E0F8093C6
:103A6000370E8091BB00F0E0E95EF14F80833BC0F0
:103A7000803B39F0D0F4803A09F477C0883A09F0F5
:103A80009ACF84E08093BC0E1092160E1092150E01
:103A9000F0E0E0E019958091150E81110FC081E0F2
:103AA0008093150E1092F50D09C0803C09F4A8CF43
:103AB000883C09F4A5CF883B09F07DCFE091160E34
:103AC00081E08E0F8093160EF0E0EB50F24F808174
:103AD0008093BB009091160E8091150E29C08091A5
:103AE000970E8093BB0085EC8093BC0064CF9091CF
:103AF000B90E8091B80E981758F5E091B90E81E093
:103B00008E0F8093B90EF0E0E856F14F8081E9CF37
:103B1000E091B90E81E08E0F8093B90E8091BB00C9
:103B2000F0E0E856F14F80839091B90E8091B80E85
:103B30009817C8F285E8D8CFE091B90E81E08E0FD2
:103B40008093B90E8091BB00F0E0E856F14F80837E
:103B50008091BB0E81115ECF81E08093960E84EA46
:103B60008093BC001092BC0E26CF85EC8093BC00E5
:103B70001092BC0E8091370E803230F4E091370EF7
:103B8000F0E0E95EF14F10826091370E70E087E15E
:103B90009EE0F0E0E0E019951092370E0CCF109205
:103BA000BA0E38CF1F920F920FB60F9211240BB698
:103BB0000F922F933F934F935F936F937F938F93C6
:103BC0009F93AF93BF93EF93FF9348E251E064E27A
:103BD00071E090E080E00E94540BFF91EF91BF9163
:103BE000AF919F918F917F916F915F914F913F9195
:103BF0002F910F900BBE0F900FBE0F901F90189536
:103C00001F920F920FB60F9211240BB60F922F93A3
:103C10003F934F935F936F937F938F939F93AF9354
:103C2000BF93EF93FF9348EA50E064EA70E083E0CB
:103C300090E00E94540BFF91EF91BF91AF919F9143
:103C40008F917F916F915F914F913F912F910F9045
:103C50000BBE0F900FBE0F901F9018951F920F92E2
:103C60000FB60F9211240BB60F922F933F934F93E1
:103C70005F936F937F938F939F93AF93BF93EF93D4
:103C8000FF9348E950E064E970E082E090E00E9430
:103C9000540BFF91EF91BF91AF919F918F917F91C5
:103CA0006F915F914F913F912F910F900BBE0F90AD
:103CB0000FBE0F901F9018951F920F920FB60F9284
:103CC00011240BB60F922F933F934F935F936F93F3
:103CD0007F938F939F93AF93BF93EF93FF9348E8A6
:103CE00050E064E870E081E090E00E94540BFF91A6
:103CF000EF91BF91AF919F918F917F916F915F9164
:103D00004F913F912F910F900BBE0F900FBE0F90D0
:103D10001F901895CF92DF92EF92FF92CF93DF938F
:103D2000E6EEFEE01382128288EE93E0A0E0B0E0BF
:103D300084839583A683B78321E232E03183208395
:103D400025EC30E03587248724EC30E03787268760
:103D500020EC30E0318B208B21EC30E0338B228B58
:103D600022EC30E0358B248B26EC30E0378B268B31
:103D7000118E128E138E148EC3E8DFE01B821A821E
:103D80008C839D83AE83BF8383E392E09983888392
:103D9000EAE8F0E18AE390E09183808398E3C92E1A
:103DA00094E0D92EE12CF12CC282D382E482F582F8
:103DB00060E00E94FD0281E080930C02E4E8F0E103
:103DC00088E390E091838083C282D382E482F5828B
:103DD00060E00E94FD02EEE7F0E186E390E091836F
:103DE0008083C282D382E482F58260E00E94FD0279
:103DF00045E064E08CE390E10E94AA0943E062E0C0
:103E00008AEF9FE00E94AA0987EF9FE00E94390B8A
:103E100084EF9FE00E94390B81EF9FE00E94390BF5
:103E20008EEE9FE00E94390B8BEE9FE00E94390BD3
:103E3000EFE8FFE0108288E68383D283C18388E4C1
:103E400091EEAAE7BFE38093E70F9093E80FA0936A
:103E5000E90FB093EA0F1486158616861786108A26
:103E6000118A128A138A148A158A168A178A108E62
:103E7000118E128E138E148E158E168E178E10A222
:103E800011A212A213A2DF91CF91FF90EF90DF90C9
:103E9000CF900895CF93DF93CDB7DEB7C454D10947
:103EA0000FB6F894DEBF0FBECDBF789484B58260A4
:103EB00084BD84B5816084BD85B5826085BD85B5CE
:103EC000816085BD80916E00816080936E0010924C
:103ED00081008091810082608093810080918100C7
:103EE0008160809381008091800081608093800058
:103EF0008091B10084608093B1008091B0008160B6
:103F00008093B000809191008260809391008091B5
:103F100091008160809391008091900081608093F6
:103F200090008091A10082608093A1008091A10007
:103F300081608093A1008091A00081608093A000A7
:103F40008091210182608093210180912101816013
:103F500080932101809120018160809320018091D4
:103F60007A00846080937A0080917A0082608093E6
:103F70007A0080917A00816080937A0080917A0043
:103F8000806880937A001092C100E091F60EF09163
:103F9000F70E82E08083E091F20EF091F30E108232
:103FA000E091F40EF091F50E80E180831092FE0E08
:103FB000E091FA0EF091FB0E86E08083E091F80E1E
:103FC000F091F90E808180618083E091F80EF0918C
:103FD000F90E808188608083E091F80EF091F90EEF
:103FE000808180688083E091F80EF091F90E8081E5
:103FF0008F7D808361E08BE60E949206182F60E03F
:1040000089E10E94920660E08AE10E94920680E0C7
:1040100090E0A3E8B2E48093930F9093940FA09361
:10402000950FB093960F68E08BE10E94920680E0B6
:1040300090E0A0E8B6E48093970F9093980FA09338
:10404000990FB0939A0F60E08CE10E9492060E9453
:1040500080168091CF0F9091D00FA091D10FB09189
:10406000D20F8093D70F9093D80FA093D90FB0930E
:10407000DA0F8091D30F9091D40FA091D50FB0910A
:10408000D60F8093DB0F9093DC0FA093DD0FB093DE
:10409000DE0F0E9491036093E30F7093E40F80930F
:1040A000E50F9093E60F86EA92E00E94F704612FF5
:1040B00070E090E080E04AE00E9487110E94831146
:1040C0001111FECF8DE792E00E94F7040E94831148
:1040D00068EE73E080E090E00E945E0310929B0F18
:1040E00010929C0F10929D0F10929E0F10929F0F96
:1040F0001092A00F1092A10F1092A20F1092A30F76
:104100001092A40F1092A50F1092A60F1092A70F55
:104110001092A80F1092A90F1092AA0F1092AB0F35
:104120001092AC0F1092AD0F1092AE0F1092AF0F15
:104130001092B00F1092B10F1092B20F04EF11E075
:1041400025961CAE1DAE1EAE1FAE259721961CAE49
:104150001DAE1EAE1FAE219719AE1AAE1BAE1CAE21
:10416000C12CD12C760146015701260137010E944E
:10417000F40E2091B70F3091B80F4091B90F5091C4
:10418000BA0FC301B2010E94C1302B013C01209142
:10419000BB0F3091BC0F4091BD0F5091BE0FC501B8
:1041A000B4010E94C1304B015C0120E030E040E8E6
:1041B0005FE36091BF0F7091C00F8091C10F90912C
:1041C000C20F0E94C0309B01AC01C701B6010E9422
:1041D000C1306B017C012091C30F3091C40F40911D
:1041E000C50F5091C60F69AD7AAD8BAD9CAD0E94E5
:1041F000C13069AF7AAF8BAF9CAF2091C70F3091C0
:10420000C80F4091C90F5091CA0F21966CAD7DAD7A
:104210008EAD9FAD21970E94C13021966CAF7DAFCE
:104220008EAF9FAF21972091CB0F3091CC0F409153
:10423000CD0F5091CE0F25966CAD7DAD8EAD9FAD5F
:1042400025970E94C13025966CAF7DAF8EAF9FAF92
:10425000259761E070E080E090E00E945E030150ED
:10426000110909F084CF20E030E04AEF53E4C301A4
:10427000B2010E949F316093A70F7093A80F8093A3
:10428000A90F9093AA0F20E030E04AEF53E4C50154
:10429000B4010E949F316093AB0F7093AC0F809379
:1042A000AD0F9093AE0F20E030E04AEF53E4C7012A
:1042B000B6010E949F316093AF0F7093B00F80934F
:1042C000B10F9093B20F20E030E04AEF53E469ADB4
:1042D0007AAD8BAD9CAD0E949F3160939B0F709324
:1042E0009C0F80939D0F90939E0F20E030E04AEF4B
:1042F00053E421966CAD7DAD8EAD9FAD21970E94AC
:104300009F3160939F0F7093A00F8093A10F9093A4
:10431000A20F20E030E04AEF53E425966CAD7DAD6E
:104320008EAD9FAD25970E949F316093A30F709330
:10433000A40F8093A50F9093A60F88E495E00E94A8
:10434000511303E112E08DE1E82E82E0F82EF8012E
:1043500080810E5F1F4F60E00E94FD02E016F106B3
:10436000B1F761E080E20E94FD0266E070E087EF55
:104370009FE00E94B10A67E070E084EF9FE00E9436
:10438000B10A6AE570E087EF9FE00E94350A6AE5AE
:1043900070E084EF9FE00E94350A0E9480160E9420
:1043A0007C1469E072E090E080E00E94701B67E09E
:1043B00072E082E090E00E94701B65E072E084E0B1
:1043C00090E00E94701B63E072E086E090E00E9443
:1043D000701B61E072E088E090E00E94701B4DE786
:1043E00050E062E070E08EEE92E00E94500C9E0180
:1043F0002D5C3F4F3EAB2DAB86EE9EE00E947204DB
:10440000892B09F472C01A8219821C821B821E82B7
:104410001D8270E060E0CE0101960E94101B298190
:104420003A8181112EC02115310519F0C9010E9470
:1044300006351A8219821E821D821C821B820E94EE
:1044400032040D811E8197FD24C08A30910509F147
:104450008BAB1CAA0F5F1F4FB801CE0101960E94C3
:10446000101B882361F329813A818D819E81BE01D1
:104470006D5C7F4F820F931F0E9482361E830D83D7
:10448000DECF1E821D8263E472E0C9010E94823683
:10449000D6CFC980DA80C114D10429F07601011584
:1044A000110509F07EC08D819E81892BC1F0898123
:1044B0009A8120916A0E2111AAC060ED7AE00E94D3
:1044C0007936892B09F009C581E080936A0E8FE463
:1044D00095E00E9451130E945D131092550E898140
:1044E0009A81009711F00E94063580916A0E811121
:1044F0000C945E2B0E9480160E940E0CDC0190939F
:10450000690E8093680EED91FC911197EE0FFF1FDD
:1045100012968D919C911397E80FF91FEE0FFF1FD4
:1045200014968D919C911597E80FF91FEE0FFF1FC0
:1045300016968D919C911797E80FF91FEE0FFF1FAC
:1045400018968D919C91E80FF91FE032F10510F05B
:104550000C949F2E8827E055FD4D8F4F0C944734C7
:10456000402C9F2E9F2E762BF62C372E9F2E8F2B96
:104570009F2E9F2E9F2E9F2E9F2E9F2E9F2EF92C7B
:104580009F2E9F2E9F2E622BB92D9F2E9F2E532C38
:10459000762BDF2B9F2E7027F02B6C2C592D792C2E
:1045A000750157013FEFA31AB30AF7018081082E66
:1045B000000C990B0E94172F892B91F701501109BC
:1045C0000C0D1D1DF8018081082E000C990B0E9416
:1045D000172F892B31F00E151F0518F00150110906
:1045E000F1CF0F5F1F4FA8014E195F095E834D8306
:1045F000CE14DF0420F4B701C6010E947036E981B1
:10460000FA818D819E81E80FF91F10824CCF909026
:10461000550E992009F488C00097B1F00E94DB2E56
:104620002091530E3091540E2430310509F456C0B8
:104630007CF42230310531F123303105E1F185E0A0
:1046400096E00E94511332C060E070E0CB01E8CFE9
:104650002530310509F455C02630310581F77093B6
:1046600002026093010261E072E088E090E00E9443
:10467000841B81EE95E00E947A1480910102909152
:10468000020212C070930A026093090269E072E0AC
:1046900090E080E00E94841B8DE695E00E947A14F1
:1046A0008091090290910A020E940D121092550EFB
:1046B0000E945D1314CF709308026093070267E0B5
:1046C00072E082E090E00E94841B8BE895E00E94FB
:1046D0007A148091070290910802E6CF7093060247
:1046E0006093050265E072E084E090E00E94841B24
:1046F00089EA95E00E947A14809105029091060261
:10470000D3CF709304026093030263E072E086E00B
:1047100090E00E94841B85EC95E00E947A148091C1
:10472000030290910402C0CF0097B1F00E94DB2EEB
:104730006930710508F085C3FB018827ED55FC4DF4
:104740008F4F0C944734B023B723BA23C823D62302
:10475000E423EE23FC23332460E070E0CB01E8CFB8
:1047600010926A0E8BE196E00E945113B8CE0E941F
:104770007C149ECF82E596E00E94511381E08093E5
:10478000550E82E090E09093540E8093530EA7CE86
:1047900088E796E00E94511381E08093550E23E054
:1047A00030E03093540E2093530E99CE8EE996E06C
:1047B0000E94511381E08093550E44E050E05093E5
:1047C000540E4093530E8BCE82EC96E00E94511310
:1047D00081E08093550E85E090E0D5CF86EE96E09F
:1047E0000E94511381E08093550EE6E0F0E0F093D3
:1047F000540EE093530E73CE82E197E00E94511362
:1048000081E397E00E947A148091090290910A0254
:104810000E940D1288E798E00E947A1480910702A6
:10482000909108020E940D128FE397E00E947A1483
:1048300080910502909106020E940D1286E298E096
:104840000E947A1480910302909104020E940D123A
:1048500082ED98E00E947A14809101029091020208
:104860000E940D1225CF8BE497E00E9451130BE4B8
:104870001EE02DE43EE04FE45EE061E57EE08CE387
:1048800090E10E94D91240914D0E50914E0E6091D0
:104890004F0E7091500E8091510E9091520E0E94C9
:1048A000210290934A0E8093490E01E41EE023E416
:1048B0003EE045E45EE067E47EE08AEF9FE00E9430
:1048C000D9124090430E5090440EA090450EB090E7
:1048D000460E6090470E7090480EA201B501C301CC
:1048E0000E9421026C019093400E80933F0EE09055
:1048F0004B0EF0904C0E0091410E1091420E209004
:10490000490E30904A0EF6E92F1631040CF09EC283
:1049100020E9E21621E0F2060CF098C286399105F2
:104920003CF488E697E0003941E014070CF49BC2A0
:1049300080914F0E9091500E2091510E3091520E59
:104940002817390770F540914D0E50914E0E4817BB
:10495000590738F5821B930B209101023091020216
:1049600028173907F0F48091050290910602E816A5
:10497000F906BCF080910302909104028E159F0508
:1049800084F08091090290910A02281639064CF0B1
:1049900088248394809107029091080282159305E0
:1049A0000CF4812C6A147B0450F54A145B0438F52E
:1049B000A618B70880910102909102028A159B0502
:1049C000F0F4809105029091060208171907BCF0D7
:1049D00080910302909104028017910784F08091E6
:1049E000090290910A02C816D9064CF077247394F4
:1049F00080910702909108028C159D050CF4712C92
:104A00005701A01AB10AB7FE03C0B194A194B1082E
:104A100094E6A916B1041CF4672C811001C0612C26
:104A200088E897E00E947A14882D90E00E940D1289
:104A300088E997E00E947A14872D90E00E940D1279
:104A400089EA97E00E947A14862D90E00E940D1268
:104A500087EB97E00E947A14C7010E94DD118DEB6D
:104A600097E00E947A14C8010E940D1286EC97E02C
:104A70000E947A148091490E90914A0E0E94CB11A7
:104A80008DEC97E00E947A1480913F0E9091400E39
:104A90000E94D11187ED97E00E947A148091510E07
:104AA0009091520E0E94CB118CED97E00E947A14E7
:104AB0008091470E9091480E0E94D11184EE97E0AC
:104AC0000E947A1480914F0E9091500E0E94CB114B
:104AD00089EE97E00E947A148091450E9091460EDF
:104AE0000E94D11181EF97E00E947A1480914D0EBF
:104AF00090914E0E0E94CB1186EF97E00E947A149F
:104B00008091430E9091440E0E94D1118EEF97E058
:104B10000E947A1480914B0E90914C0E0E94CB1102
:104B200083E098E00E947A148091410E9091420EA9
:104B30000E94D11186EC97E00E947A148091490E70
:104B400090914A0E0E94CB118DEC97E00E947A144E
:104B500080913F0E9091400E0E94D1118BE098E021
:104B60000E947A148091050290910602E816F906D7
:104B700044F081E020910302309104022E153F059C
:104B80000CF480E090E00E940D1282E398E00E9415
:104B90007A1480910502909106020817190744F0D3
:104BA00081E02091030230910402201731070CF4B8
:104BB00080E090E00E940D1289E598E00E947A144E
:104BC0008091090290910A022816390644F081E08A
:104BD0002091070230910802221533050CF480E081
:104BE00090E00E940D1286E898E00E947A1480916D
:104BF000090290910A02C816D90644F081E020917A
:104C00000702309108022C153D050CF480E090E07D
:104C10000E940D1283EB98E00E947A1420914F0EAF
:104C20003091500E8091510E9091520E8217930741
:104C300040F481E040914D0E50914E0E42175307C3
:104C400008F080E090E00E940D1288EC98E00E944D
:104C50007A1420914F0E3091500E8091510E909108
:104C6000520E281B390B81E090E0409101025091D7
:104C700002024217530710F090E080E00E940D12EC
:104C800086EE98E00E947A142091450E3091460EEF
:104C90008091470E9091480E8217930740F481E06F
:104CA0004091430E5091440E4217530708F080E0A4
:104CB00090E00E940D128BEF98E00E947A142091F0
:104CC000450E3091460E8091470E9091480E281B5C
:104CD000390B81E090E040910102509102024217AD
:104CE000530710F090E080E00E940D128BE098E0F6
:104CF0000E947A148091050290910602E816F90646
:104D000044F081E020910302309104022E153F050A
:104D10000CF480E090E00E940D1282E398E00E9483
:104D20007A1480910502909106020817190744F041
:104D300081E02091030230910402201731070CF426
:104D400080E090E00E940D1289E598E00E947A14BC
:104D50008091090290910A022816390644F081E0F8
:104D60002091070230910802221533050CF480E0EF
:104D700090E00E940D1286E898E00E947A148091DB
:104D8000090290910A02C816D90654F09924939406
:104D900080910702909108028C159D050CF4912CCE
:104DA000892D90E00E940D1289E199E00E947A1409
:104DB00081E090E0E4E6AE16B10414F090E080E00B
:104DC0000E940D1281E499E061104DC0882009F421
:104DD0004DC086EB94E00E9451138DED93E00E944C
:104DE0007A148091490E90914A0E0E94CB1184E66C
:104DF00099E00E947A148091510E9091520E0E9477
:104E0000CB118BE699E00E947A1480914F0E90911D
:104E1000500E0E94CB1182E799E00E947A14809193
:104E20004D0E90914E0E0E94CB1189E799E00E94A1
:104E30007A1480914B0E90914C0E0E94CB110E94DF
:104E400083118FE899E00E94511332CC59EEE51698
:104E500053E0F5060CF46CCD093E83E018070CF422
:104E600067CD80E899E00E945113EBCF7720C9F31A
:104E70008EEF94E00E9451138DED93E00E947A141E
:104E800080913F0E9091400E0E94CB1184E699E0F4
:104E90000E947A148091470E9091480E0E94CB1187
:104EA0008BE699E00E947A148091450E9091460E0F
:104EB0000E94CB1182E799E00E947A148091430E00
:104EC0009091440E0E94CB1189E799E00E947A14D8
:104ED0008091410E9091420EB0CF8AEB99E044CC84
:104EE0000E94D0189093670E8093660E2091640EF6
:104EF0003091650E8C01021B130B1093630E00930F
:104F0000620EB801012E000C880B990B0E94272F0E
:104F10002B013C0120915E0E30915F0E4091600E9E
:104F20005091610E0E94C1306B017C0120E030E0A5
:104F300048EC52EC0E94202F87FD46C120E030E073
:104F400048EC52E4C701B6010E946E32181634F4E0
:104F5000C12CD12C58ECE52E52E4F52EC0925E0EF9
:104F6000D0925F0EE092600EF092610E80915C0E26
:104F700090915D0EB801681B790B072E000C880B11
:104F8000990B0E94272F4B015C018092580E909242
:104F9000590EA0925A0EB0925B0E10935D0E0093C4
:104FA0005C0E20E030E040EC5FE3C301B2010E9400
:104FB000862F2B013C012DEC3CEC4CE45DE3C7015A
:104FC000B6010E94862F9B01AC01C301B2010E9471
:104FD000C130A50194010E94C1300E9411327B01B1
:104FE00077FF04C0EE24FF24E61AF70AF9E2EF1671
:104FF000F1041CF038E2E32EF12CF092570EE0920F
:10500000560E101611060CF0E6C068E770E06E1937
:105010007F0987EF9FE00E94350AC70163E070E0D7
:105020000E943334645C7F4F84EF9FE00E94350A16
:105030008AEE99E00E947A148091660E9091670E34
:105040000E94DD118CE694E00E947A148091640E37
:105050009091650E0E94DD1188E09AE00E947A141A
:105060008091560E9091570E0E94DD1184E19AE0D6
:105070000E947A146091620E7091630E072E000CEC
:10508000880B990B0E94272F20E030E040EC5FE373
:105090000E94862F42E00E94A7158BE19AE00E94B1
:1050A0007A142DEC3CEC4CE45DE360915E0E709163
:1050B0005F0E8091600E9091610E0E94862F42E0FB
:1050C0000E94A71582E29AE00E947A146091580E1D
:1050D0007091590E80915A0E90915B0E42E00E94A1
:1050E000A7150E94831180910B02882331F18091D2
:1050F000660E9091670E2091640E3091650E820FBE
:10510000931F97FD0196959587959093650E8093D3
:10511000640E10925E0E10925F0E1092600E10924E
:10512000610E89E29AE00E947A148091640E909157
:10513000650E0E940D1210920B02FE0131968091B5
:105140008A10863308F0865320917B00982F987040
:10515000277F922B90937B0020910C0240E4249FA8
:10516000900111248770822B80937C0080917A00BB
:10517000806480937A0080917A0086FDFCCF8091D4
:10518000780090917900819391938DA99EA98E17B3
:105190009F07A9F688E190E0FE01319630E020E01B
:1051A000A1E0281739077CF5408151816281738124
:1051B000641775072CF47183608353834283A0E0E6
:1051C0002F5F3F4F3296EDCFC12CD12C48ECE42E0F
:1051D00042ECF42EC3CE012B69F0C7016DEF7FEFD7
:1051E0000E94333468587F4F87EF9FE00E94350A52
:1051F000B70118CF68E770E087EF9FE00E94350A9B
:105200006CE370E011CFA11102C0019729F68091E3
:105210008C1090918D10A0918E10B0918F108833CA
:10522000E4E09E07A105B10509F05BC0A98DBA8D28
:1052300028E833E10E944F342FEF33E040E050E0A4
:105240000E945D30CA01B9010E94272F20E030E0A2
:105250004AE754E40E949F312EE03DE24AE95FEBC9
:105260000E947B3222EF32ED4DED51E40E94862FF9
:105270000E94113278AF6FAB4FA958AD4A3051053B
:105280000CF01CC268E770E087EF9FE00E94350ACF
:1052900068E770E084EF9FE00E94350A0091640E99
:1052A0001091650E065A1F4F0E94D0180817190753
:1052B0000CF4ADC00E9480168BE49AE00E947A1430
:1052C0000E94D0180E94DD118AEA94E00E947A14AC
:1052D0008091640E9091650E865A9F4F0E940D1228
:1052E000DDCF863BFEE49F07A105B10509F5A98D39
:1052F000BA8D28E833E10E944F342FEF33E040E0CD
:1053000050E00E945D30CA01B9010E94272F20E0C1
:1053100030E04AE754E40E949F3121EE3AE744E945
:105320005FEB0E947B322AEF3EE741E752E49ECFDB
:105330008E3A21E09207A105B10509F5A98DBA8D34
:1053400028E833E10E944F342FEF33E040E050E093
:105350000E945D30CA01B9010E94272F20E030E091
:105360004AE754E40E949F312BE83CE647E85FEBB4
:105370000E947B322EEA37E441E451E477CF84394E
:105380009848A140B10509F077CFA98DBA8D28E8DA
:1053900033E10E944F342FEF33E040E050E00E94B1
:1053A0005D30CA01B9010E94272F6B017C0120E00A
:1053B00030E04FEA54E40E94202F87FD63CF20E0C5
:1053C00030E44EE455E4C701B6010E946E3218166F
:1053D0000CF458CF20E030EA4CE854E4C701B601A1
:1053E0000E94C03020E030E04AE754E40E949F3140
:1053F00020E030E849E053E40E949F319B01AC017A
:1054000060E070E080E89FE30E949F3131CF60EA66
:1054100070E087EF9FE00E94350A64E170E084EF5E
:105420009FE00E94350A8091640E9091650E865A25
:105430009F4F9093650E8093640E0E9491036B01C1
:105440007C014B015C0150EA850E5FE0951EA11CBA
:10545000B11C0E9491036C197D098E099F09603A65
:105460007F408105910528F583E89AE00E947A142F
:105470000E9491036C197D098E099F094AE00E94E0
:1054800087110E9483118AEA9AE00E947A140E948E
:105490009103A5019401261B370B480B590BCA0138
:1054A000B9014AE00E9487110E9483110E9489136A
:1054B000D0CF8BEB9AE00E9451136CE370E087EF42
:1054C0009FE00E94350A6CE370E084EF9FE00E9449
:1054D000350A0091640E1091650E0A5511090E945B
:1054E000D01880179107BCF00E94801682ED9AE0D8
:1054F0000E947A140E94D0180E94DD118AEA94E07A
:105500000E947A148091640E9091650E8A559109DB
:105510000E940D12DECF60EA70E087EF9FE00E94EC
:10552000350A64E170E084EF9FE00E94350A8091C3
:10553000640E9091650E8A5591099093650E809343
:10554000640E0E9491036B017C010E9491036C190F
:105550007D098E099F0960347F418105910518F40A
:105560000E948913F2CF6CE370E087EF9FE00E9406
:10557000350A6CE370E084EF9FE00E94350A0091E9
:10558000640E1091650E0A5511090E94D0188017FB
:105590009107BCF00E94801689E09BE00E947A147B
:1055A0000E94D0180E94DD118AEA94E00E947A14C9
:1055B0008091640E9091650E8A5591090E940D129A
:1055C000DECF60EA70E087EF9FE00E94350A64E179
:1055D00070E084EF9FE00E94350A8091640E909104
:1055E000650E8A5591099093650E8093640E0E9412
:1055F0000E0C9093690E8093680EE091680EF09106
:10560000690E84819581019719F40E948913EFCF67
:1056100068E770E087EF9FE00E94350A6CE370E076
:1056200084EF9FE00E94350A68EE73E080E090E02E
:105630000E945E0368E770E087EF9FE00E94350AF2
:1056400068E770E084EF9FE00E94350A0091640EE5
:105650001091650E065A1F4F0E94D018081719079F
:10566000BCF00E94801680E49BE00E947A140E94A5
:10567000D0180E94DD118AEA94E00E947A14809189
:10568000640E9091650E865A9F4F0E940D12DECFD8
:1056900068E770E087EF9FE00E94350A6CE370E0F6
:1056A00084EF9FE00E94350A8091640E9091650E10
:1056B000865A9F4F9093650E8093640E0E94320528
:1056C0000C94FC2162E870E087EF9FE00E94350AAD
:1056D00067E370E084EF9FE00E94350A88E79BE073
:1056E0000E94511381E080930B02E8CF8FE89BE08A
:1056F0000E9451130E94DE1868E770E087EF9FE078
:105700000E94350A6CE370E084EF9FE00E94350A46
:1057100064EF71E080E090E00E945E03CFCF84EA06
:105720009BE00E9451130E940E0C9093690E80938F
:10573000680E68E770E087EF9FE00E94350A6CE32F
:1057400070E084EF9FE00E94350A60E070E0CB01DA
:105750000E945E0368E770E087EF9FE00E94350AD1
:1057600068E770E084EF9FE00E94350A0091640EC4
:105770001091650E065A1F4F0E94D018081719077E
:105780000CF4C4C20E9480160E940E0C9093690E05
:105790008093680E89E195E00E947A140E94D018E7
:1057A0000E94DD118AEA94E00E947A148091640ECE
:1057B0009091650E865A9F4F0E940D12D7CF87ECAD
:1057C0009BE00E9451136DE770E087EF9FE00E941D
:1057D000350A62E370E084EF9FE00E94350A82CFD1
:1057E0008DED9BE00E9451130E940E0C9093690E68
:1057F0008093680E68E770E087EF9FE00E94350AAB
:105800006CE370E084EF9FE00E94350A60E070E096
:10581000CB010E945E036CE370E087EF9FE00E9483
:10582000350A6CE370E084EF9FE00E94350A009136
:10583000640E1091650E0A5511090E94D018801748
:1058400091070CF4E5C10E9480160E940E0C909303
:10585000690E8093680E80ED94E00E947A140E9495
:10586000D0180E94DD118AEA94E00E947A14809197
:10587000640E9091650E8A5591090E940D12D7CF42
:105880006AE570E087EF9FE00E94350A6AE570E004
:1058900084EF9FE00E94350A8BEE9BE00E9451133B
:1058A0000E94DE180BCF8DE09CE00E9451130E94F5
:1058B0000E0C68E770E087EF9FE00E94350A60E514
:1058C00070E084EF9FE00E94350A0E940E0C9093D6
:1058D000690E8093680EF2CE89E29CE00E9451131B
:1058E00064E670E087EF9FE00E94350A6CE370E0A9
:1058F000E8CF84E49CE00E9451130E940E0C909328
:10590000690E8093680E0E94D0189093670E809362
:10591000660EE091680EF091690E20813181232B93
:1059200009F4CCCE22813381232B09F4C7CE248104
:105930003581232B09F4C2CE26813781232B09F42C
:10594000BDCE20853185232B09F4B8CE2091640E7D
:105950003091650EA90141505109841795079CF4B7
:105960000E94991364E670E087EF9FE00E94350A79
:105970006AE570E084EF9FE00E94350A8BE49CE0CA
:105980000E9451139BCEA9014F5F5F4F48175907E3
:105990008CF40E9499136AE570E087EF9FE00E9403
:1059A000350A60E570E084EF9FE00E94350A87E5E4
:1059B0009CE0E6CF281B390B37FF03C031952195BA
:1059C0003109223031050CF079CE0E94991368E735
:1059D00070E087EF9FE00E94350A6CE370E084EF8F
:1059E0009FE00E94350A8BE693E0CACF83E69CE0F5
:1059F00055CF85E69CE00E945113E091680EF0912E
:105A0000690E848195810197D9F4828193810197F0
:105A1000B9F480819181892B99F40E940E0C9093A6
:105A2000690E8093680E6EE670E087EF9FE00E943B
:105A3000350A6AE570E084EF9FE00E94350ADDCF09
:105A40000E94D0189093670E8093660E2091660E88
:105A50003091670E8091640E9091650E281739077A
:105A60000CF42CCE0E94D0189093670E8093660E93
:105A70008FE19DE00E947A148091660E9091670EEE
:105A80000E940D1283E89CE00E947A148091640EBB
:105A90009091650E0E940D126AE570E087EF9FE01D
:105AA0000E94350A66E470E084EF9FE00E94350AA8
:105AB000CDCF8FE89CE00E945113E091680EF091E9
:105AC000690E80859185892BD9F48681978101970C
:105AD000B9F484819581019799F40E940E0C9093FA
