:020000040000FA
:100000000C94AD010C94DE010C94DE010C94DE0125
:100010000C94DE010C94DE010C94DE010C94DE01E4
:100020000C94DE010C94DE010C94DE010C94DE01D4
:100030000C94DE010C94C51C0C94DE010C94DE01C2
:100040000C94DE010C94331F0C94DE010C94DE0141
:100050000C94DE010C94DE010C94DE010C947B1CEC
:100060000C94DE010C944F1D0C94251D0C94DE01A4
:100070000C94DE010C94DE010C94DE010C94DE0184
:100080000C94051F0C94DE010C94DE010C94DE012F
:100090000C94DE010C94DE010C94DE010C94851DA1
:1000A0000C94DE010C94DE010C94D71E0C94DE013E
:1000B0000C94DE010C94DE010C94DE010C94A91E5C
:1000C0000C94DE010C94DE010C94DE010C94DE0134
:1000D0000C94DE010C94DE010C94DE010C94DE0124
:1000E0000C94DE01084AD73B3BCE016E84BCBFFDB9
:1000F000C12F3D6C74319ABD56833DDA3D00C77FF8
:1001000011BED9E4BB4C3E916BAAAABE0000008090
:100110003F000C94C5240C94442B0C9459280C9447
:100120008D240C9486240C946E020C9485280C94D7
:10013000A6060C946A020C9433040C9485020C9469
:1001400078020C945D030C94611F0C945A020C9479
:100150007C020C948A290C9480020C947D290C94C6
:1001600090240C943A280C9460020C94CF060C94C2
:100170004B020C94B3240C942B070C944B2A0C9434
:1001800045020C9457020C949D240C946B040C941F
:10019000102B0C94502A0C94B02A0C9425040C9427
:1001A000B5060C94A3030C9486020C94F3280C94CB
:1001B00097290C9453020C94FC240C944F020C9439
:1001C000FC060C9464290C946C280C9472020C9418
:1001D000D3040C94AA240C94D0030C9406290C94F8
:1001E000A5060C9464020C948A020C94BC240C9412
:1001F000DF030C945C030C94C8060243616C6375C6
:100200006C6174696E67206F6666736574732C2009
:10021000646F206E6F74206D6F7665204D5055367B
:10022000303530004D5055363035302073746174A0
:1002300075733A200000000A0B02090C0D0E080726
:1002400003040100000000000000000000000000A6
:10025000000000000000000000000000000000009E
:10026000001211100000000000000000000000005B
:10027000000000000000000000000000002000233B
:1002800000260029002C002F00320000010000038E
:10029000010601090100002100240027002A002D89
:1002A000003000330001010000040107010A0100D1
:1002B000002200250028002B002E0031003400020F
:1002C000010000050108010B0101021020200808AF
:1002D00010204010204080020102010804020101A8
:1002E0000204081020408080402010080402018091
:1002F00004020180402010080402010804020101E8
:1003000002040810204080010204081020408005EB
:10031000050505070508080808020202020A0A087E
:1003200008040404040101010101010101030303A4
:100330000303030303040707070C0C0C0C0C0C0C41
:100340000C0202020206060606060606060B0B0B48
:100350000B0B0B0B0B00611F442B11241FBECFEFA7
:10036000D1E2DEBFCDBF00E00CBF1AE0A0E0B2E0FA
:10037000E0E2F3E600E00BBF02C007900D92AA3D59
:10038000B107D9F72EE0AAEDBAE001C01D92A9325B
:10039000B207E1F711E0CCEAD1E000E006C0219716
:1003A0000109802FFE010E94572FCB3AD10780E030
:1003B0000807A9F70E941E200C947E310C940000BF
:1003C000CF92DF92EF92FF920F931F93CF93DF9321
:1003D0008B01EA01BC0190E080E00E94962B26EDA3
:1003E00039E346EA5EEB0E94F72B6B017C01B80112
:1003F00090E080E00E94962B27E038E04AEC5FE333
:100400000E94F72B9B01AC01C701B6010E94322D5F
:100410006B017C01BE0190E080E00E94962B24E7F6
:100420003EE54BE35FEB0E94F72B9B01AC01C7015C
:10043000B6010E94322D0E94892ECB01DF91CF910F
:100440001F910F91FF90EF90DF90CF900895815012
:10045000823108F05AC0E82FF0E08827ED5CFD4FAC
:100460008F4F0C94572F5302570245024B024F02F5
:1004700085025A02600264026A026E027202780207
:100480007C028502800286028A02809180008F773A
:10049000809380000895809180008F7DF9CF8091B6
:1004A0008000877FF5CF84B58F7784BD089584B5AC
:1004B0008F7DFBCF8091B0008F778093B00008953F
:1004C0008091B0008F7DF9CF809190008F778093DD
:1004D00090000895809190008F7DF9CF80919000D9
:1004E000877FF5CF8091A0008F778093A00008953B
:1004F0008091A0008F7DF9CF8091A000877FF5CFFC
:10050000809120018F7780932001089580912001B0
:100510008F7DF9CF80912001877FF5CF1F93CF93F7
:10052000DF93282F30E0F901EB5CFD4F8491F90156
:10053000E753FD4FD491F901E15FFC4FC491CC2307
:10054000A9F0162F81110E942702EC2FF0E0EE0F88
:10055000FF1FE155FD4FA591B4918FB7F894EC9131
:10056000111108C0D095DE23DC938FBFDF91CF91AE
:100570001F910895DE2BF8CFCF93DF9390E0FC011D
:10058000E753FD4F2491815F9C4FFC0184918823A8
:10059000D1F090E0880F991FFC01EB56FD4FA5911B
:1005A000B491FC01E155FD4FC591D49161110EC08C
:1005B0009FB7F8948C91E22FE0958E238C9328813D
:1005C000E223E8839FBFDF91CF9108958FB7F8941E
:1005D000EC91E22BEC938FBFF6CF8230910538F08F
:1005E000880F991F880F991F05970197F1F70895B4
:1005F0003FB7F8948091050C9091060CA091070CE0
:10060000B091080C26B5A89B05C02F3F19F00196A4
:10061000A11DB11D3FBFBA2FA92F982F8827BC015C
:10062000CD01620F711D811D911D42E0660F771F84
:10063000881F991F4A95D1F708958F929F92AF9284
:10064000BF92CF92DF92EF92FF926B017C010E94EA
:10065000F8024B015C01C114D104E104F104B9F0CA
:100660000E94F802681979098A099B09683E73405B
:100670008105910580F321E0C21AD108E108F10853
:1006800088EE880E83E0981EA11CB11CE4CFFF9079
:10069000EF90DF90CF90BF90AF909F908F90089594
:1006A0002FB7F8946091010C7091020C8091030CAB
:1006B0009091040C2FBF0895089508959091000221
:1006C00089130DC0EAEFF1E0E4919FEF90930002EF
:1006D000E230E1F038F4EE2381F0E13089F060E0BF
:1006E0000C948E02E43049F110F1E530C1F790919D
:1006F00073009D7F90937300F2CF10926E00EFCF46
:1007000090916F009D7F90936F00E9CF9091700062
:100710009D7F9093700091E09093B0009091B10014
:10072000987F94609093B1001092B300D8CF9091CD
:1007300071009D7F90937100D2CF909172009D7F48
:1007400090937200CCCFAF92BF92CF92DF92EF9294
:10075000FF920F931F93CF93DF936C017B018B016B
:10076000040F151FEB015E01AE18BF08C017D107BB
:1007700059F06991D601ED91FC910190F081E02D45
:10078000C6011995892B79F7C501DF91CF911F918A
:100790000F91FF90EF90DF90CF90BF90AF900895B2
:1007A000FC01538D448D252F30E0842F90E0821B77
:1007B000930B541710F0CF96089501970895FC01FC
:1007C000918D828D981761F0A28DAE0FBF2FB11D54
:1007D0005D968C91928D9F5F9F73928F90E00895AC
:1007E0008FEF9FEF08950F931F930E945003609324
:1007F000830C7093840C8093850C9093860C8BE70C
:100800009CE00E94DF0397FF1DC00E9450030091EF
:10081000830C1091840C2091850C3091860C601B08
:10082000710B820B930B00917F0C1091800C209127
:10083000810C3091820C6017710782079307F8F2E0
:100840008FEF9FEF1F910F910895FC01918D828D85
:10085000981731F0828DE80FF11D858D90E0089595
:100860008FEF9FEF0895FC01918D228D892F90E0ED
:10087000805C9F4F821B91098F73992708958BE7A6
:100880009CE00E94330421E0892B09F420E0822FB0
:100890000895FC01A48DA80FB92FB11DA35ABF4F15
:1008A0002C91848D90E001968F739927848FA6896F
:1008B000B7892C93A089B1898C91837080648C93C3
:1008C000938D848D981306C00288F389E02D808172
:1008D0008F7D80830895EF92FF920F931F93CF93A4
:1008E000DF93EC0181E0888F9B8D8C8D98131AC06B
:1008F000E889F989808185FF15C09FB7F894EE8952
:10090000FF896083E889F9898081837080648083AE
:100910009FBF81E090E0DF91CF911F910F91FF90F9
:10092000EF900895F62E0B8D10E00F5F1F4F0F73A1
:100930001127E02E8C8D8E110CC00FB607FCFACF5C
:10094000E889F989808185FFF5CFCE010E944904AD
:10095000F1CFEB8DEC0FFD2FF11DE35AFF4FF0822D
:100960009FB7F8940B8FEA89FB8980818062CFCF93
:100970000F931F93CF93DF938C01D0E0C0E0F80179
:10098000EC0FFD1F6491662341F08BE79CE00E9411
:100990006B04892B11F02196F2CFCE01DF91CF911C
:1009A0001F910F910895CF93DF93EC01888D8823D9
:1009B000B9F0AA89BB89E889F9898C9185FD03C0C2
:1009C000808186FD0DC00FB607FCF7CF8C9185FFA7
:1009D000F2CF808185FFEDCFCE010E944904E9CF9F
:1009E000DF91CF91089580E090E0892B29F00E945B
:1009F0003F0481110E94000080E090E0892B49F0C3
:100A000080E090E0892B29F00E94000081110E9473
:100A1000000080E090E0892B49F080E090E0892B95
:100A200029F00E94000081110E94000080E090E007
:100A3000892B49F080E090E0892B29F00E9400008A
:100A400081110C94000008952091B30B260F3327D9
:100A5000331F21323105ECF42091510CFC0190E060
:100A600080E0243069F082E00895A091B30B2191D9
:100A7000AC014D56544FA40FB52FB11D2C930196C8
:100A8000861798F38091B30B680F6093B30B80E0E7
:100A9000089581E008951092510C81E08093500CEC
:100AA00010922B0C61E084E10E948E0261E085E1EE
:100AB0000E948E02E9EBF0E080818E7F808380814E
:100AC0008D7F808388E48093B80085E48093BC00A8
:100AD0000895CF93DF9391E09093920B8823B9F020
:100AE000C091B800D091BA008091BC008A7B8093FD
:100AF000BC0060E084E10E948E0260E085E10E941B
:100B00008E020E944B05D093BA00C093B800DF91CB
:100B1000CF9108958F929F92AF92BF92CF92DF9222
:100B2000EF92FF920F931F93CF93DF93D0917A0CA4
:100B3000D13208F0D7C0182FC091790C0E94F8026A
:100B40006B017C018091510C81116BC082E080931C
:100B5000510C1093500C8FEF80934F0C10924E0C51
:100B6000D0934D0CA9E5BCE0EDE2FCE080E0D813A9
:100B700091C010922C0C80912C0CCC0FC82BC093E0
:100B80002C0C80912B0C813009F088C010922B0C1A
:100B90000E94F8026B017C0180912C0C8093BB00B9
:100BA0008091530C9091540CA091550CB091560C1F
:100BB000892B8A2B8B2BA1F00E94F8020091530CF9
:100BC0001091540C2091550C3091560C6C197D09E4
:100BD0008E099F09061717072807390708F442C02E
:100BE0008091BC0083FDD8CF85EC8093BC000E942F
:100BF000F8026B017C018091510C823009F450C0E5
:100C000080914F0C8F3F09F46FC080914F0C803260
:100C100009F46CC080914F0C803309F469C084E002
:100C200026C08091530C9091540CA091550CB0911A
:100C3000560C892B8A2B8B2B09F484CF0E94F80247
:100C40008090530C9090540CA090550CB090560C82
:100C50006C197D098E099F0986169706A806B906A4
:100C600008F070CF8091520C0E94690585E01092C7
:100C7000580C10927A0C1092570CDF91CF911F9163
:100C80000F91FF90EF90DF90CF90BF90AF909F902B
:100C90008F9008959D9191938F5F69CF85EEA5CF39
:100CA0008091530C9091540CA091550CB091560C1E
:100CB000892B8A2B8B2B09F49ECF0E94F80200917E
:100CC000530C1091540C2091550C3091560C6C190A
:100CD0007D098E099F09061717072807390708F0AD
:100CE0008ACFC0CF81E0C3CF80E0C1CF82E0BFCF49
:100CF00083E0BDCF1F93CF93DF93162FC4E2DDE0D7
:100D0000A981BA819B8121E02093570C9093790CA3
:100D10001092580C10927A0CED91FC911197019061
:100D2000F081E02D682FCD01199589819A81DC0130
:100D3000ED91FC910190F081E02D612F199581E0FA
:100D4000DF91CF911F910C948A050895E0910A0CD0
:100D50008091090CE81730F4F0E0E55FF34F8081F3
:100D600090E008958FEF9FEF089590910A0C809185
:100D7000090C2FEF3FEF981748F4E92FF0E0E55FFB
:100D8000F34F208130E09F5F90930A0CC9010895D2
:100D90008091090C90910A0C891B990B0895CF92B0
:100DA000DF92EF92FF920F931F93CF93DF937C011B
:100DB000CB018A012091570C222389F0EB016B01B2
:100DC000C40ED51ECC15DD0569F06991D701ED91F2
:100DD000FC910190F081E02DC7011995F3CF642FAC
:100DE0000E942405C801DF91CF911F910F91FF90C0
:100DF000EF90DF90CF900895CF93DF931F92CDB700
:100E0000DEB769832091570C2223F9F020917A0CE8
:100E1000203258F021E030E0FC013383228390E05F
:100E200080E00F90DF91CF9108958091580CE82FCA
:100E3000F0E0E75AF34F998190838F5F8093580CCD
:100E400080937A0C81E090E0ECCF61E0CE010196D6
:100E50000E942405F7CF90E080E00895CF92DF92C2
:100E6000EF92FF920F931F93CF93DF93EC01EE81EC
:100E7000FF8190818B81809589238083EA85FB8522
:100E800080819B81892B8083EC81FD8190818A8187
:100E9000809589238083E885F98580819A81892BD3
:100EA000808389899A89009711F00E94ED02EA8572
:100EB000FB8590818B818095892380838B89882312
:100EC00031F0EE81FF8180819B81892B80838C8929
:100ED0008823C9F00E9450036B017C01EE85FF85D9
:100EE00080819B81892379F40E9450036C197D09CC
:100EF0008E099F090D891E892F89388D601771070A
:100F00008207930758F389899A89009711F00E9404
:100F1000ED02E885F98590818A8180958923808317
:100F20008B89882331F0EC81FD8180819A81892B26
:100F3000808389899A89009751F0DF91CF911F9121
:100F40000F91FF90EF90DF90CF900C94ED02DF9126
:100F5000CF911F910F91FF90EF90DF90CF90089568
:100F6000CF93DF93EC01E885F98590818A818095A4
:100F7000892380838B89882331F0EC81FD818081F6
:100F80009A81892B8083EA85FB8590818B8180956E
:100F9000892380838B89882331F0EE81FF818081D2
:100FA0009B81892B808389899A89009711F00E94FF
:100FB000ED02EC85FD8590818A819823EE85FF8581
:100FC00020813B81232311F480E028C09923E1F3A1
:100FD000EC81FD819081809589238083E885F98566
:100FE00080819A81892B808389899A89009711F061
:100FF0000E94ED02EE81FF8190818B818095892393
:101000008083EA85FB8580819B81892B8083898908
:101010009A89009711F00E94ED0281E0DF91CF9153
:101020000895CF92DF92EF92FF920F931F93CF9389
:10103000DF93EC01E885F98590818A818095892389
:1010400080838B89882331F0EC81FD8180819A81B6
:10105000892B8083EA85FB8590818B81809589230C
:1010600080838B89882331F0EE81FF8180819B8191
:10107000892B80838C898823C9F00E9450036B01DF
:101080007C01EE85FF8580819B81892379F40E9414
:1010900050036C197D098E099F090D891E892F89BE
:1010A000388D601771078207930758F389899A89E9
:1010B000009711F00E94ED02EC85FD8580819A81F8
:1010C000892311E009F410E0EE81FF8190818B818A
:1010D000809589238083EA85FB8580819B81892B8C
:1010E000808389899A89009711F00E94ED02812FEF
:1010F000DF91CF911F910F91FF90EF90DF90CF90F4
:101100000895CF92DF92EF92FF920F931F93CF93A8
:10111000DF93EC018A81809561115EC0EC81FD81D5
:10112000908189238083E885F98580819A81892B44
:10113000808389899A89009711F00E94ED02EA85DF
:10114000FB8590818B818095892380838B8988237F
:1011500031F0EE81FF8180819B81892B80838C8996
:101160008823C9F00E9450036B017C01EE85FF8546
:1011700080819B81892379F40E9450036C197D0939
:101180008E099F090D891E892F89388D6017710777
:101190008207930758F389899A89009711F00E9472
:1011A000ED02EE81FF8190818B8180958923808380
:1011B000EA85FB8580819B81892B808389899A8937
:1011C0000097B1F0DF91CF911F910F91FF90EF90B9
:1011D000DF90CF900C94ED02E885F985908189230A
:1011E00080838B89882309F4A4CFEC81FD819DCF76
:1011F000DF91CF911F910F91FF90EF90DF90CF90F3
:1012000008950F931F93CF93DF938C01D62FC8E0DF
:101210006D2F6078C8010E948108DD0FC150C1F7B1
:10122000C801DF91CF911F910F910C941108CF93BA
:10123000DF93FC012089211106C0EC010E94010905
:10124000811106C0188A81E090E0DF91CF91089566
:1012500082E0888BF8CF1F93CF93DF93EC01162F9A
:10126000188A0E94B007882379F0612F660FCE019B
:101270000E940109811105C0188ADF91CF911F9149
:10128000089582E0888BF9CF84E0FCCFFC0193893C
:10129000138AA085B1852C918281809582238C93BD
:1012A0008389882331F0A481B5818C912281822B9E
:1012B0008C93A285B3852C918381809582238C9316
:1012C0008389882331F0A681B7818C912381822B79
:1012D0008C93938B08950F931F93CF93DF93CDB788
:1012E000DEB7EB970FB6F894DEBF0FBECDBFDC01C3
:1012F0001C928BEE90E014969C938E93139781E052
:1013000090E012969C938E93119715966C93159777
:1013100016964C93169769834A838C8B8D8B82E04B
:1013200090E09B8B8A8B08EE13E020E030E00E8B80
:101330001F8B288F398F70E0FB01E15FFC4F2491F8
:1013400067537D4FFB0164916B8330E0220F331FA5
:10135000F901E155FD4F859194919E838D83F901AB
:10136000EB56FD4F859194919A878987F901E5584D
:10137000FD4F859194919E878D8750E0FA01E15F42
:10138000FC4F249147535D4FFA0144914C8330E068
:10139000220F331FF901E155FD4F859194919887F4
:1013A0008F83F901EB56FD4F859194919C878B8734
:1013B000F901E558FD4F85919491988B8F878BE3C8
:1013C000FE013196179601900D928A95E1F7CE01B4
:1013D00001960E944609EB960FB6F894DEBF0FBE49
:1013E000CDBFDF91CF911F910F910895CF92DF92E2
:1013F000EF92FF92CF93DF93EC01603282E07807A7
:10140000CCF5653B710514F064EB70E0898128E848
:1014100030E0281B310987FD3395220F331F220F3F
:10142000331F6901330FEE08FF088A8128E532E097
:10143000281B310987FD3395220F331F220F331FDD
:10144000032E000C440B550B2C193D094E095F0966
:10145000DB0177FF02C0B0E0A0E00E94F82C24EB93
:1014600030E040E050E00E94CE2CC20ED31EE41EBD
:10147000F51EB601E881E03370F5298188E890E037
:10148000821B910927FD9395880F991F880F991F3B
:10149000681779077CF02A8188E592E0821B910920
:1014A00027FD9395880F991F880F991F6817790753
:1014B0000CF4CB010297880F991F4FB7F8942E2F89
:1014C00030E0F901EE0FFF1FE20FF31FEE5FF44F64
:1014D000928381834FBFDF91CF91FF90EF90DF9098
:1014E000CF9008951F93CF93DF93EC01162F88813F
:1014F000803308F04EC061E0812F0E94BC028881D9
:10150000282F30E0F901EE0FFF1FE20FF31FEE5F0F
:10151000F44F1F736081607C612B608319821A8293
:101520002CE0622F0E944B2F829FB001112430E0EB
:1015300020E0AB01420F531FFA01EE0FFF1FE40F33
:10154000F51FEE5FF44F908196FD16C02F5F3F4F61
:101550002C30310571F7813009F51092800082E05E
:10156000809381001092850010928400B19A80913E
:101570006F00826080936F00E8818E2F90E0FC0105
:10158000EE0FFF1FE80FF91FEE5FF44F80818064BC
:1015900080838881DF91CF911F910895823061F41B
:1015A00010929000809391001092950010929400F8
:1015B00088BB80937100E0CF833069F41092A00063
:1015C00082E08093A1001092A5001092A40089BB34
:1015D00080937200D1CF8111CFCF1092200182E091
:1015E0008093210110922501109224018ABB8093DF
:1015F0007300C2CFFC019091010B903398F481E00D
:10160000890F8093010B9083892F90E0FC01EE0FEE
:10161000FF1FE80FF91FEE5FF44F88EB9BE092830A
:10162000818308958FEF80830895AF92BF92CF9208
:10163000DF92EF92FF920F931F93CF93DF936B0193
:101640007A01EC01C350D54F28813CE0389F8001DE
:10165000399F100D1124A090010BB12C27FF1FC042
:10166000FB011182108288818F5F888388819801B5
:10167000280F311D87FD3A95F6012A153B051CF40C
:1016800088818C30C4F180819181049680349C499A
:1016900008F473C0F60180819181049670C088813E
:1016A0009801280F311D87FD3A952A153B05DCF678
:1016B0008881A801480F511D87FD5A95FA01EE0F48
:1016C000FF1FE40FF51FEE5FF44F808186FFCBCF45
:1016D0008881F801E80FF11D87FDFA95CF01EE0F23
:1016E000FF1FE80FF91FEE5FF44F808160E08F73FA
:1016F0000E948E02B8CF808191812881A801420F7B
:10170000511D27FD5A959A01FA01EE0FFF1FE20FB6
:10171000F31FEE5FF44F21813281820F931FF70197
:101720009183808388819801280F311D87FD3A9528
:10173000F901EE0FFF1FE20FF31FEE5FF44F808100
:1017400086FF22C08881080F111D87FD1A95F801B8
:10175000EE0FFF1FE00FF11FEE5FF44F808161E09D
:101760008F73DF91CF911F910F91FF90EF90DF90DA
:10177000CF90BF90AF900C948E0280E49CE9F7016B
:10178000918380838FEF8883DF91CF911F910F9199
:10179000FF90EF90DF90CF90BF90AF900895EF92C1
:1017A000FF920F931F93CF93DF93C1E1D2E003EF3A
:1017B0001AE0299139913327F901EB5CFD4F8491AF
:1017C000F901E753FD4FE490F901E15FFC4FF4901C
:1017D000FF2021F181110E942702EF2DF0E0EE0F92
:1017E000FF1FE558FD4FA591B491EC91EE2231E039
:1017F00020E009F430E0832F922FF8018193919338
:101800008F01F2E0CB31DF07A1F683EF9AE0DF91A1
:10181000CF911F910F91FF90EF90089590E080E09D
:10182000ECCF2F923F924F925F926F927F928F9266
:101830009F92AF92BF92CF92DF92EF92FF920F935F
:101840001F93CF93DF9300D000D01F92CDB7DEB7A8
:101850007D836C83312C212C88248A94982C54010C
:101860006C01990FEE08FF080FE213E02A01550FF3
:101870006608770880910002803239F5EAEFF1E0DE
:10188000F491FE83F7FD70C061E080E20E94BC022B
:10189000FE81F11139C0C982DA82EB82FF8268E4ED
:1018A00078EE81E090E029813A814B815F810E944E
:1018B000CE2CBA01A90141505109610971099E81DB
:1018C000992309F4CEC194E03DC08F3F09F04CC08C
:1018D00080E280930002EAEFF1E0F491FE838F2F23
:1018E000FF3F09F441C0F23009F4C8C008F069C0F4
:1018F000FF2309F48DC0F13009F4A2C087FD34C084
:1019000061E080E20E94BC028E81823009F016C143
:10191000C982DA82EB82FF8260E970ED83E090E0B9
:10192000A70196010E94CE2CBA01A901415051098C
:101930006109710993E04F3F51056105710511F08F
:101940000CF0ADCF8091B100887F892B8093B100DE
:10195000EE81E23009F475C10CF06BC1EE2309F49D
:1019600084C1E13009F401C1C301B2010E941D0329
:1019700080E20E945E03C301B2010E941D038FEF4B
:10198000281A380AEC81FD81E215F30509F072CFBF
:1019900027960FB6F894DEBF0FBECDBFDF91CF9173
:1019A0001F910F91FF90EF90DF90CF90BF90AF907D
:1019B0009F908F907F906F905F904F903F902F906F
:1019C00008959E81943009F49BC008F479C0953045
:1019D00009F094CF109220011092210180912101F1
:1019E0008860809321018091210181608093210191
:1019F000F8018491E82FF0E0EE0FFF1FE155FD4F55
:101A000085919491E9EEF2E084918093DA0A3CCFDB
:101A100014BC15BC84B5826084BD85B5816085BD6C
:101A2000F8018491E82FF0E0EE0FFF1FE155FD4F24
:101A300085919491E9EEF2E084918093DE0A24CFBF
:101A400010928000109281008091810088608093C4
:101A5000810080918100816080938100F8018491F0
:101A6000E82FF0E0EE0FFF1FE155FD4F85919491B7
:101A7000E9EEF2E084918093DD0A06CF1092B00087
:101A80001092B1008091B00082608093B00080918C
:101A9000B10081608093B100F8018491E82FF0E0FB
:101AA000EE0FFF1FE155FD4F859194919093D70B59
:101AB0008093D60BE9EEF2E084918093D80BE4CECC
:101AC0001092900010929100809191008860809314
:101AD000910080919100816080939100F801849140
:101AE000E82FF0E0EE0FFF1FE155FD4F8591949137
:101AF000E9EEF2E084918093DC0AF3E0FE83C4CE49
:101B00001092A0001092A1008091A10088608093A3
:101B1000A1008091A10081608093A100F8018491CF
:101B2000E82FF0E0EE0FFF1FE155FD4F85919491F6
:101B3000E9EEF2E084918093DB0AA6CE60E072E1E8
:101B40008AE790E0A70196010E94CE2CBA01A90174
:101B50004150510961097109EE81E130C1F4809170
:101B60008100887F81608093810050938900409339
:101B700088008092EB0A9092EC0AA092ED0AB09253
:101B8000EE0A80916F00826080936F00EDCEFE813F
:101B9000F330C1F480919100887F8160809391003F
:101BA00050939900409398008092E70A9092E80A37
:101BB000A092E90AB092EA0A809171008260809353
:101BC0007100D2CE8E818430C1F48091A100887FD3
:101BD00081608093A1005093A9004093A800809257
:101BE000E30A9092E40AA092E50AB092E60A809194
:101BF0007200826080937200B7CE9E81953009F0AA
:101C0000A7CE80912101887F81608093210150932C
:101C10002901409328018092DF0A9092E00AA09265
:101C2000E10AB092E20A80917300826080937300AF
:101C30009BCEFE81F43079F20CF4B2CFF53039F35B
:101C400093CE4093B3008092D90B9092DA0BA0927E
:101C5000DB0BB092DC0B809170008260809370008F
:101C600083CE85B5887F836085BD47BD8092EF0AAE
:101C70009092F00AA092F10AB092F20A80916E005E
:101C8000826080936E0070CE7F928F929F92AF920F
:101C9000BF92CF92DF92EF92FF920F931F93CF9359
:101CA000DF93EC01062F142F188A19AE1AAE0E948A
:101CB000B007882309F457C0602F660F6160CE011A
:101CC0000E94010981114BC0188A7E01A12EB12CFE
:101CD000D12CC12C450181E0881A9108CA14DB047B
:101CE00059F100E088E0782EC814D904DCF4000F24
:101CF000CE010E941108082B7A947110F8CF60E091
:101D0000CE010E94810889899A89009711F00E946A
:101D1000ED02F701018FFFEFCF1ADF0A8FEFE81A0C
:101D2000F80ADCCF000FCE010E941108082B7A942C
:101D30007110F8CF61E0E4CF19AFCE010E942E07F9
:101D4000812FDF91CF911F910F91FF90EF90DF9046
:101D5000CF90BF90AF909F908F907F90089582E03A
:101D6000888B10E0EACF84E0FBCF4F925F926F92B6
:101D70007F928F929F92AF92BF92CF92DF92EF921B
:101D8000FF920F931F93CF93DF93CDB7DEB72E97BC
:101D90000FB6F894DEBF0FBECDBF8091250D909198
:101DA000260D2091270D31E03093570C2093790CAC
:101DB0001092580C10927A0CDC01ED91FC9101907C
:101DC000F081E02D6BE3199580E00E948A05109167
:101DD000270D0E94F8024B015C018091510C81118A
:101DE00066C081E08093510C8093500C9FEF9093DC
:101DF0004F0C10924E0C9DE090934D0C80932C0C48
:101E000080912C0C110F182B10932C0C80912B0C03
:101E1000813009F0A9C110922B0C0E94F8024B01ED
:101E20005C0180912C0C8093BB008091530C9091AD
:101E3000540CA091550CB091560C892B8A2B8B2BEE
:101E4000A1F00E94F8020091530C1091540C2091C3
:101E5000550C3091560C681979098A099B090617A7
:101E600017072807390708F443C08091BC0083FD99
:101E7000D8CF85EC8093BC000E94F8024B015C0136
:101E80008091510C813009F471C180914E0C8E30DB
:101E900008F08EC180914E0CADE2BCE0EBE0FCE0BE
:101EA00090E0981751F12D9121939F5FFACF809187
:101EB000530C9091540CA091550CB091560C892B59
:101EC0008A2B8B2B09F489CF0E94F8024090530C87
:101ED0005090540C6090550C7090560C681979090C
:101EE0008A099B09461657066806790608F075CFD9
:101EF0008091520C0E94690580E010920A0C809338
:101F0000090C8E010F5F1F4F6E01BFE0CB0ED11C7D
:101F10008091250D9091260DDC01ED91FC910284BC
:101F2000F385E02D1995B82E8091250D9091260D01
:101F3000DC01ED91FC910284F385E02D1995E12CF3
:101F40008E299B29F801819391938F01CE16DF068C
:101F5000F9F6C0902C0DD0902D0DE0902E0DF09044
:101F60002F0D69817A81072E000C880B990B0E9436
:101F7000982BA70196010E94102E20913C0D3091C4
:101F80003D0D40913E0D50913F0D0E94312D6093CB
:101F90004C0D70934D0D80934E0D90934F0D6B81B2
:101FA0007C81072E000C880B990B0E94982BA701AF
:101FB00096010E94102E2091400D3091410D4091CC
:101FC000420D5091430D0E94312D6093500D70933E
:101FD000510D8093520D9093530D8091240D61E02B
:101FE0006827681B770B072E000C880B990B0E9443
:101FF000982B4B015C016D817E81072E000C880BB4
:10200000990B0E94982B9B01AC01C501B4010E9461
:10201000F72BA70196010E94102E2091440D3091BC
:10202000450D4091460D5091470D0E94312D609312
:10203000540D7093550D8093560D9093570D6F81ED
:102040007885072E000C880B990B0E94982B20E0B6
:1020500030EF41E456E40E94322D20E030E04AEABD
:1020600053E40E94102E6093480D7093490D8093A5
:102070004A0D90934B0DC090280DD090290DE09003
:102080002A0DF0902B0D69857A85072E000C880BA0
:10209000990B0E94982BA70196010E94102E209167
:1020A000300D3091310D4091320D5091330D0E9421
:1020B000312D6093580D7093590D80935A0D909364
:1020C0005B0D6B857C85072E000C880B990B0E949D
:1020D000982BA70196010E94102E2091340D30916B
:1020E000350D4091360D5091370D0E94312D609382
:1020F0005C0D70935D0D80935E0D90935F0D6D850B
:102100007E85072E000C880B990B0E94982BA70147
:1021100096010E94102E2091380D3091390D40917A
:102120003A0D50913B0D0E94312D6093600D7093DC
:10213000610D8093620D9093630D2E960FB6F89407
:10214000DEBF0FBECDBFDF91CF911F910F91FF90EA
:10215000EF90DF90CF90BF90AF909F908F907F9047
:102160006F905F904F90089585EE84CE8091530CD0
:102170009091540CA091550CB091560C892B8A2B40
:102180008B2B09F47DCE0E94F8020091530C109124
:10219000540C2091550C3091560C681979098A0914
:1021A0009B09061717072807390708F069CEA0CE44
:1021B0008EE072CEFF920F931F93CF93DF93EC01CB
:1021C000F62E8C01095F1F4F69E2C8010E942B099E
:1021D0006F2D6068C8010E941709C8010E942E0770
:1021E00042E069E2C8010E94440EFE01E05CFF4F3C
:1021F0008081319690812FEF3FEF981740F4DE01F8
:10220000A90FB11D90962C9130E09F5F9083908133
:102210004FEF5FEF981728F4C90FD11D48A19F5FBA
:10222000908380E0942F822B932BDF91CF911F918D
:102230000F91FF9008950F931F93CF93DF93162F65
:10224000022FEC01279669E2CE010E942B09612F33
:102250006068CE010E941709602FCE010E94170905
:10226000CE01DF91CF911F910F910C942E07FC01AD
:1022700001900020E9F73197AF01481B590BBC01D1
:102280008BE79CE00C94A3038FE392E00C9437114E
:102290008F929F92AF92BF920F931F93CF93DF9332
:1022A000CDB7DEB7A1970FB6F894DEBF0FBECDBF96
:1022B00019A2423008F44AE08E010F5D1F4F842EB0
:1022C000912CB12CA12CA50194010E94002DE62F88
:1022D000B901CA01EA30F4F4E05DD801EE938D0152
:1022E000232B242B252B79F790E080E0109719F011
:1022F000CD010E943711A1960FB6F894DEBF0FBE34
:10230000CDBFDF91CF911F910F91BF90AF909F9064
:102310008F900895E95CE1CFBC0190E080E04AE055
:102320000C944811CF93DF930E948C11EC010E9412
:1023300044118C0F9D1FDF91CF910895CF92DF92B2
:10234000EF92FF92CF93DF936C01990FEE08FF0895
:10235000F7FE19C06DE28BE79CE00E946B04EC0174
:1023600066277727CB016C197D098E099F094AE002
:102370000E9448118C0F9D1FDF91CF91FF90EF902D
:10238000DF90CF9008954AE0C701B601DF91CF9169
:10239000FF90EF90DF90CF900C944811CF93DF9394
:1023A0000E949E11EC010E9444118C0F9D1FDF9131
:1023B000CF910895BF92CF92DF92EF92FF920F9349
:1023C0001F93CF93DF93EC016C0187E0C80ED11C03
:1023D0007E01E0E4EE0EF11CF70110828E010F5B2E
:1023E0001F4FF8011082E989FA8990818A858095CA
:1023F000892380838A8D882331F0ED85FE85808155
:102400009A85892B8083888D998D009711F00E9481
:10241000ED02EF85F88990818985809589238083F5
:102420008A8D882331F0EB85FC8580819985892B05
:10243000808384E0B82E888D998D009711F00E94DA
:10244000ED02BA94B110F7CF8A8D882331F062E0A3
:1024500070E080E090E00E941D0369E2C6010E94E6
:102460002B0962E9C6010E941709C6010E942E07C6
:1024700041E069E2C6010E94440EF8012081F701A3
:102480008081281708F053C0FE01E20FF11D80A1E2
:102490002F5FF8012083182F682F70E090E080E014
:1024A00040E10E9448110E94441180E01434A9F5D3
:1024B00081E088830B811C81980150E040E061E05D
:1024C000CE010E941B111C830B8309811A81888114
:1024D000811103C0CE010E94DA11980150E040E062
:1024E0006FE0CE010E941B111A83098321E030E0C6
:1024F00040E050E060E0CE010E941B1163E070E01C
:1025000080E090E00E941D0323E030E040E050E0D6
:1025100060E0CE010E941B1181E0DF91CF911F91FD
:102520000F91FF90EF90DF90CF90BF9008958FEFC5
:102530009FEFB1CFAF92BF92CF92DF92EF92FF9217
:102540000F931F93CF93DF93EC015B016A01790135
:102550008881811103C0CE010E94DA1164E1CE01AD
:102560000E94DA10F8019183808366E1CE010E9417
:10257000DA10F5019183808368E1CE010E94DA10C0
:10258000F601918380836AE1CE010E94DA10F7019F
:10259000918380838B819C81853D9105A1F180F49D
:1025A0000097D9F1803C910599F1DF91CF911F916E
:1025B0000F91FF90EF90DF90CF90BF90AF90089574
:1025C000863F9105D9F08F3F910541F08B3E9105F3
:1025D00061F762E370E080E090E004C063E070E0E7
:1025E00080E090E0DF91CF911F910F91FF90EF90ED
:1025F000DF90CF90BF90AF900C941D0368E170E026
:1026000080E090E0EFCF65E670E080E090E0EACF18
:102610006AE970E080E090E0E5CF6CEB72E080E08A
:1026200090E0E0CFCF93DF930E943711EC010E943E
:1026300044118C0F9D1FDF91CF91089582E492E0A9
:102640000E9412138FE592E00E94121387E792E036
:102650000E9412138FE892E00E94121387EA92E020
:102660000E9412138DEB92E00E94121383ED92E010
:102670000E94121381EF92E00E9412138EE093E009
:102680000E94121384E293E00E94121385E493E007
:102690000C9412138F929F92AF92BF92CF92DF92BF
:1026A000EF92FF920F931F93CF93DF930DEE1BE0FA
:1026B0002FEE3BE041EF5BE063EF7BE081ED9DE0DF
:1026C0000E949A124091EF0B5091F00B6091F10B28
:1026D0007091F20B8091F30B9091F40B0E94E0014A
:1026E0009093EC0B8093EB0B03EE1BE025EE3BE0AD
:1026F00047EE5BE069EE7BE08FE89DE00E949A1276
:102700000091E50B1091E60BE090E70BF090E80BE1
:10271000C091E90BD091EA0BA801B701CE010E944C
:10272000E0019093E20B8093E10BE091ED0BF091CF
:10273000EE0B8090E30B9090E40B6091EB0B7091AB
:10274000EC0B2091F30B3091F40BC090F10BD09077
:10275000F20BC216D306F0F4A091EF0BB091F00B80
:10276000A217B307B8F45901AC18BD084CE4A4167D
:10277000B10480F02A1B3B0B2C34310558F0E7578D
:10278000F140E03BF10530F46852710963337105A3
:1027900008F446C0EC16FD0658F420E00C171D079F
:1027A00008F445C005C085EA93E02CC0211157C04C
:1027B0008AE893E00E9412132091ED0B3091EE0B0A
:1027C0008091E30B9091E40B4091E10B5091E20B6F
:1027D0006091EB0B7091EC0B6C5271406B3F71058B
:1027E00010F74C5251404B3F5105E8F6285E3340FC
:1027F0002F353140C0F6885E93408F35914098F672
:102800008BE993E0DF91CF911F910F91FF90EF90B3
:10281000DF90CF90BF90AF909F908F900C94121349
:10282000EC16FD06E0F40C171D07C8F421E0BE010C
:102830006E197F096C34710508F4B8CFC01BD10B39
:10284000CC34D10508F4B2CFA40147575140403BE6
:10285000510508F0ABCF8897C39708F0A7CF82E661
:1028600093E00E9412136AE570E08CE89DE00E94FC
:10287000F6096AE570E089E89DE00E94F60986E7BE
:1028800093E0EFCF0C9437110F931F930DEE1BE0E5
:102890002FEE3BE041EF5BE063EF7BE081ED9DE0FD
:1028A0000E949A124091EF0B5091F00B6091F10B46
:1028B0007091F20B8091F30B9091F40B0E94E00168
:1028C0009093EC0B8093EB0B03EE1BE025EE3BE0CB
:1028D00047EE5BE069EE7BE08FE89DE00E949A1294
:1028E0004091E50B5091E60B6091E70B7091E80B7E
:1028F0008091E90B9091EA0B0E94E0019093E20B2A
:102900008093E10B84EB93E00E94121388EC93E038
:102910000E9442148091EB0B9091EC0B0E948C1161
:102920008EEC93E00E94421487E399E00E944214E7
:102930008091F30B9091F40B0E948C1180ED93E049
:102940000E9442148EE399E00E9442148091F10BA0
:102950009091F20B0E948C1180ED93E00E94421442
:1029600085E499E00E9442148091EF0B9091F00B66
:102970000E948C1180ED93E00E9442148CE499E057
:102980000E9442148091ED0B9091EE0B0E948C11ED
:1029900080ED93E00E94421480ED93E00E941213B8
:1029A00082ED93E00E94121388EC93E00E9442149F
:1029B0008091E10B9091E20B0E948C118EEC93E0E0
:1029C0000E94421487E399E00E9442148091E90B2F
:1029D0009091EA0B0E948C1180ED93E00E944214CA
:1029E0008EE399E00E9442148091E70B9091E80BEE
:1029F0000E948C1180ED93E00E94421485E499E0DE
:102A00000E9442148091E50B9091E60B0E948C117C
:102A100080ED93E00E9442148CE499E00E944214FD
:102A20008091E30B9091E40B0E948C1180ED93E078
:102A30000E94421480ED93E00E94121387EE93E00F
:102A40000E94121381E094E00E9442148091E70BEF
:102A50009091E80B2091E90B3091EA0B821B930BCC
:102A60000E9492118AE094E00E9442148091E70B48
:102A70009091E80B2091E50B3091E60B821B930BB4
:102A80000E94921183E194E00E94121381E094E08D
:102A90000E9442148091F10B9091F20B2091F30B64
:102AA0003091F40B821B930B0E9492118AE094E008
:102AB0000E9442148091F10B9091F20B2091EF0B48
:102AC0003091F00B821B930B0E94921164EF71E026
:102AD00080E090E00E941D031F910F9108954F9296
:102AE0005F926F927F928F929F92AF92BF92CF929E
:102AF000DF92EF92FF920F931F93CF93DF93CDB7A7
:102B0000DEB72C970FB6F894DEBF0FBECDBF0E9484
:102B1000B50EC090540DD090550DE090560DF0902C
:102B2000570D21E030E03A83298320E030E0A9010D
:102B3000C701B6010E94DF2E87FF02C01A821982E8
:102B400001E010E020E030E0A901C701B6010E94D9
:102B5000912B87FD02C010E000E069817A81601B43
:102B6000710B072E000C880B990B0E94982B6D831C
:102B70007E838F839887A7019601C701B6010E94C3
:102B8000F72B2B013C01C0904C0DD0904D0DE090E7
:102B90004E0DF0904F0DA7019601C701B6010E949E
:102BA000F72BA30192010E94322D0E94F22E9B016D
:102BB000AC018090500D9090510DA090520DB090AE
:102BC000530D6D817E818F8198850E94F72B9B012B
:102BD000AC01C501B4010E94B12D21EE3EE245E6F3
:102BE00052E40E94F72B6093640D7093650D8093FF
:102BF000660D9093670DA5019401C501B4010E9473
:102C0000F72BA30192010E94322D0E94F22E9B010C
:102C1000AC01C701B6010E94B12D905821EE3EE2F1
:102C200045E652E40E94F72B6093680D7093690D9E
:102C300080936A0D90936B0D0E9450036B017C0191
:102C40008091780D9091790DA0917A0DB0917B0DC6
:102C5000A7019601281B390B4A0B5B0BCA01B9016E
:102C60000E94962B2FE632E143E85AE30E94F72BAD
:102C70004B015C01C092780DD092790DE0927A0DF3
:102C8000F0927B0D80917C0D90917D0DA0917E0D39
:102C9000B0917F0D89839A83AB83BC834090640D90
:102CA0005090650D6090660D7090670D2091580DE5
:102CB0003091590D40915A0D50915B0DC501B401F1
:102CC0000E94F72B20916C0D30916D0D40916E0D8F
:102CD00050916F0D0E94322DA30192010E94312D5F
:102CE0006B017C0120E030E044E353E40E94DF2EDE
:102CF00018163CF420E030E044EB53E4C701B60181
:102D0000EDCF20E030E044E353ECC701B6010E9470
:102D1000912B87FF0BC020E030E044EB53E4C70168
:102D2000B6010E94322D6B017C01EBCF29813A81E3
:102D30004B815C8160E070E080E89FE30E94312D70
:102D400069877A878B879C87A7019601C301B201A7
:102D50000E94322D29813A814B815C810E94F72BA0
:102D60006B017C0129853A854B855C85C301B201E5
:102D70000E94F72B9B01AC01C701B6010E94322DC6
:102D80006B017C0120E030E044E353E40E94DF2E3D
:102D900018164CF420E030E044EB53E4C701B601D0
:102DA0000E94312DEDCF20E030E044E353ECC70129
:102DB000B6010E94912B87FF0BC020E030E044EB6E
:102DC00053E4C701B6010E94322D6B017C01EBCFA9
:102DD000C0926C0DD0926D0DE0926E0DF0926F0D61
:102DE0004090680D5090690D60906A0D70906B0D69
:102DF00020915C0D30915D0D40915E0D50915F0D05
:102E00006D817E818F8198850E94F72BA5019401A9
:102E10000E94F72B2091700D3091710D4091720D31
:102E20005091730D0E94322DA30192010E94312D09
:102E30006B017C0120E030E044EB52E40E94DF2E85
:102E400018163CF420E030E044E353E4C701B60137
:102E5000EDCF20E030E044EB52ECC701B6010E9418
:102E6000912B87FF0BC020E030E044E353E4C7011F
:102E7000B6010E94322D6B017C01EBCFA7019601B8
:102E8000C301B2010E94322D29813A814B815C81BC
:102E90000E94F72B6B017C01A301920169857A8561
:102EA0008B859C850E94F72B9B01AC01C701B60165
:102EB0000E94322D6B017C0120E030E044EB52E4B3
:102EC0000E94DF2E18164CF420E030E044E353E477
:102ED000C701B6010E94312DEDCF20E030E044EB78
:102EE00052ECC701B6010E94912B87FF0BC020E076
:102EF00030E044E353E4C701B6010E94322D6B0178
:102F00007C01EBCFC092700DD092710DE092720DEA
:102F1000F092730D2091600D3091610D4091620D22
:102F20005091630DC501B4010E94F72B2091740DDF
:102F30003091750D4091760D5091770D0E94322D94
:102F40006093740D7093750D8093760D9093770D4B
:102F50002C960FB6F894DEBF0FBECDBFDF91CF9198
:102F60001F910F91FF90EF90DF90CF90BF90AF90A7
:102F70009F908F907F906F905F904F9008950E94E8
:102F80006F156091740D7091750D8091760D909113
:102F9000770D0E94822ECB0108955F926F927F92EF
:102FA0008F929F92AF92BF92CF92DF92EF92FF9259
:102FB0000F931F93CF93DF938CE294E00E94121340
:102FC00068E770E08CE89DE00E94F6096CE370E031
:102FD00089E89DE00E94F6090E946F1566E970E09D
:102FE00080E090E00E941D036AE570E08CE89DE0BF
:102FF0000E94F6096AE570E089E89DE00E94F60902
:103000000DEE1BE02FEE3BE041EF5BE063EF7BE07A
:1030100081ED9DE00E949A124091EF0B5091F00BD0
:103020006091F10B7091F20B8091F30B9091F40B86
:103030000E94E0019093EC0B8093EB0B03EE1BE0FE
:1030400025EE3BE047EE5BE069EE7BE08FE89DE03C
:103050000E949A126090E50B7090E60BA090E70B2F
:10306000B090E80B8090E90B9090EA0BA301B501BA
:10307000C4010E94E0017C019093E20B8093E10B7C
:103080000091ED0B1091EE0BC091E30BD091E40B8E
:10309000C090EB0BD090EC0B093E23E012072CF014
:1030A000C93E83E0D8070CF07EC38091F10B90916C
:1030B000F20B2091F30B3091F40B2817390770F5C0
:1030C0004091EF0B5091F00B4817590738F5821BD0
:1030D000930B209101023091020228173907F0F476
:1030E000809105029091060208171907BCF08091A3
:1030F0000302909104028017910784F080910902E5
:1031000090910A02C816D9064CF055245394809128
:103110000702909108028C159D050CF4512C8A141D
:103120009B0450F56A147B0438F5A818B9088091FF
:103130000102909102028A159B05F0F4809105022C
:1031400090910602C817D907BCF0809103029091B4
:1031500004028C179D0784F08091090290910A0265
:10316000E816F9064CF0BB24B394809107029091C5
:1031700008028E159F050CF4B12C48018C1A9D0A8B
:1031800097FE03C091948194910824E682169104DD
:103190001CF4AB2C511001C0A12C87E394E00E94D9
:1031A0004214852D90E00E94CE1187E494E00E94A5
:1031B00042148B2D90E00E94CE1188E594E00E948D
:1031C00042148A2D90E00E94CE1186E694E00E947F
:1031D0004214C8010E949E118CE694E00E944214A1
:1031E000CE010E94CE1185E794E00E9442148091A6
:1031F000EB0B9091EC0B0E948C118CE794E00E94F9
:1032000042148091E10B9091E20B0E94921186E8AA
:1032100094E00E9442148091F30B9091F40B0E9471
:103220008C118BE894E00E9442148091E90B9091FC
:10323000EA0B0E94921183E994E00E94421480916B
:10324000F10B9091F20B0E948C1188E994E00E949E
:1032500042148091E70B9091E80B0E94921180EA52
:1032600094E00E9442148091EF0B9091F00B0E9429
:103270008C1185EA94E00E9442148091E50B9091B4
:10328000E60B0E9492118DEA94E00E944214809114
:10329000ED0B9091EE0B0E948C1182EB94E00E945A
:1032A00042148091E30B9091E40B0E94921185E708
:1032B00094E00E9442148091EB0B9091EC0B0E94E1
:1032C0008C118CE794E00E9442148091E10B909164
:1032D000E20B0E9492118AEB94E00E9442148091CA
:1032E0000502909106020817190744F081E0209129
:1032F000030230910402201731070CF480E090E0C3
:103300000E94CE1181EE94E00E9442148091050249
:1033100090910602C817D90744F081E0209103027A
:10332000309104022C173D070CF480E090E00E94DD
:10333000CE1188E095E00E9442148091090290919C
:103340000A02C816D90644F081E0209107023091A4
:1033500008022C153D050CF480E090E00E94CE118F
:1033600085E395E00E9442148091090290910A023F
:10337000E816F90644F081E0209107023091080236
:103380002E153F050CF480E090E00E94CE1182E6FD
:1033900095E00E9442142091F10B3091F20B809144
:1033A000F30B9091F40B8217930740F481E0409166
:1033B000EF0B5091F00B4217530708F080E090E0BC
:1033C0000E94CE1187E795E00E9442142091F10BF4
:1033D0003091F20B8091F30B9091F40B281B390B79
:1033E00081E090E0409101025091020242175307A0
:1033F00010F090E080E00E94CE1185E995E00E94F7
:1034000042142091E70B3091E80B8091E90B9091E9
:10341000EA0B8217930740F481E04091E50B50914D
:10342000E60B4217530708F080E090E00E94CE11AF
:103430008AEA95E00E9442142091E70B3091E80B54
:103440008091E90B9091EA0B281B390B81E090E009
:1034500040910102509102024217530710F090E090
:1034600080E00E94CE118AEB94E00E944214809189
:103470000502909106020817190744F081E0209197
:10348000030230910402201731070CF480E090E031
:103490000E94CE1181EE94E00E94421480910502B8
:1034A00090910602C817D90744F081E020910302E9
:1034B000309104022C173D070CF480E090E00E944C
:1034C000CE1188E095E00E9442148091090290910B
:1034D0000A02C816D90644F081E020910702309113
:1034E00008022C153D050CF480E090E00E94CE11FE
:1034F00085E395E00E9442148091090290910A02AE
:10350000E816F90644F081E02091070230910802A4
:103510002E153F050CF480E090E00E94CE1188EC5F
:1035200095E00E94421481E090E024E68216910426
:1035300014F090E080E00E94CE11AA2009F461C04E
:1035400080EF95E00E9412130E94BF179093FB0B2F
:103550008093FA0B62E370E08CE89DE00E94F6092C
:1035600062E370E089E89DE00E94F60944E650E0DD
:1035700063E070E088EE93E00E94110CC091FA0BBA
:10358000D091FB0BCF5AD1090E94BF178C179D0712
:10359000BCF00E946F1584E096E00E9442140E94E5
:1035A000BF170E949E1181E396E00E944214809111
:1035B000FA0B9091FB0B845B91090E94CE11DECF38
:1035C00064EF71E080E090E00E941D0368E770E026
:1035D0008CE89DE00E94F6096CE370E089E89DE0CC
:1035E000DF91CF911F910F91FF90EF90DF90CF90DF
:1035F000BF90AF909F908F907F906F905F900C9452
:10360000F609552009F470C08DE396E00E9412136C
:1036100068E770E08CE89DE00E94F6096CE370E0DA
:1036200089E89DE00E94F60960E070E0CB010E940D
:103630001D036AE570E08CE89DE00E94F6096AE5EA
:1036400070E089E89DE00E94F6090E94BF17909300
:10365000FB0B8093FA0B6CE370E08CE89DE00E941A
:10366000F6096CE370E089E89DE00E94F609C091DC
:10367000FA0BD091FB0BCA55D1090E94BF17C8178E
:10368000D907BCF40E946F158FE496E00E944214A3
:103690000E94BF170E949E1181E396E00E9442148F
:1036A0008091FA0B9091FB0B8A5591090E94CE11E3
:1036B000DECF68E770E08CE89DE00E94F6096CE3DD
:1036C00070E089E89DE00E94F6096EEE72E080E00D
:1036D00090E00E941D036AE570E08CE89DE00E9486
:1036E000F6096AE570E07ACFBB2009F45CC085E892
:1036F00096E00E94121368E770E08CE89DE00E945B
:10370000F6096CE370E089E89DE00E94F60960E04C
:1037100070E0CB010E941D036AE570E08CE89DE03B
:103720000E94F6096AE570E089E89DE00E94F609CA
:103730000E94CF0B9093FE0B8093FD0B0E94BF174E
:103740009093FB0B8093FA0B68E770E08CE89DE0A8
:103750000E94F60968E770E089E89DE00E94F6099A
:10376000C091FA0BD091FB0BC65ADF4F0E94BF17D6
:103770008C179D070CF09DCF0E946F1588E996E08D
:103780000E9442140E94BF170E949E1181E396E09E
:103790000E9442148091FA0B9091FB0B865A9F4F26
:1037A0000E94CE11DDCFDF91CF911F910F91FF903D
:1037B000EF90DF90CF90BF90AF909F908F907F90D1
:1037C0006F905F9008950F931F93CF93DF93EC0159
:1037D00088819981009759F02A813B812617370704
:1037E00030F081E0DF91CF911F910F9108958B010F
:1037F0006F5F7F4F0E948430009759F099838883D0
:103800001B830A832C813D81232B59F7FC011082F5
:10381000E8CF80E0E7CF85ED8093BC008091530C2A
:103820009091540CA091550CB091560C0796A11D87
:10383000B11D23E0B695A795979587952A95D1F761
:103840002091BC0024FD03C01092510C08954091BA
:10385000530C5091540C6091550C7091560C452BA3
:10386000462B472B69F30097A105B10541F02AE2E9
:103870002A95F1F700C00197A109B109E1CF809124
:10388000520C0C9469050F931F93CF93DF938C0117
:10389000EB010E94B82C8883C80101960E94B82CC5
:1038A0008983CE01DF91CF911F910F910895FF92EF
:1038B0000F931F93CF93DF93EC018B01FB01F080FB
:1038C0000E94B82CF81621F06F2DCE010E94C02C5A
:1038D000F801F1802196CE010E94B82CF81621F053
:1038E0006F2DCE010E94C02CC801DF91CF911F9196
:1038F0000F91FF9008951F920F920FB60F9211240F
:103900002F933F938F939F93AF93BF938091010C1D
:103910009091020CA091030CB091040C3091000C1A
:1039200023E0230F2D3758F50196A11DB11D2093DB
:10393000000C8093010C9093020CA093030CB093A5
:10394000040C8091050C9091060CA091070CB0918D
:10395000080C0196A11DB11D8093050C9093060CD7
:10396000A093070CB093080CBF91AF919F918F91DA
:103970003F912F910F900FBE0F901F90189526E842
:10398000230F0296A11DB11DD2CF1F920F920FB629
:103990000F9211240BB60F922F933F934F935F9387
:1039A0006F937F938F939F93AF93BF93EF93FF9307
:1039B0008091D90B9091DA0BA091DB0BB091DC0BCD
:1039C000892B8A2B8B2BE1F19091D80BE091D60BB0
:1039D000F091D70B8081892780838091D90B9091BA
:1039E000DA0BA091DB0BB091DC0B181619061A0646
:1039F0001B069CF48091D90B9091DA0BA091DB0B04
:103A0000B091DC0B0197A109B1098093D90B909378
:103A1000DA0BA093DB0BB093DC0BFF91EF91BF911E
:103A2000AF919F918F917F916F915F914F913F9156
:103A30002F910F900BBE0F900FBE0F901F901895F7
:103A4000809100020E945E03E8CF1F920F920FB692
:103A50000F9211240BB60F922F933F934F935F93C6
:103A60006F937F938F939F93AF93BF93EF93FF9346
:103A70008BE79CE00E944904FF91EF91BF91AF91C9
:103A80009F918F917F916F915F914F913F912F9176
:103A90000F900BBE0F900FBE0F901F9018951F92A6
:103AA0000F920FB60F9211240BB60F922F938F9394
:103AB0009F93EF93FF93E0918B0CF0918C0C80819E
:103AC000E091910CF091920C82FD1DC0908180914B
:103AD000940C8F5F8F732091950C821741F0E091C9
:103AE000940CF0E0E558F34F958F8093940CFF9180
:103AF000EF919F918F912F910F900BBE0F900FBE62
:103B00000F901F9018958081F2CF1F920F920FB6E1
:103B10000F9211240BB60F922F933F934F935F9305
:103B20006F937F938F939F93AF93BF93EF93FF9385
:103B30008091B900887F803609F44DC008F040C0FC
:103B4000883209F4A9C028F5803109F49DC0C8F471
:103B5000882309F4FBC0883009F496C0FF91EF91E7
:103B6000BF91AF919F918F917F916F915F914F9195
:103B70003F912F910F900BBE0F900FBE0F901F9093
:103B80001895883109F488C0803241F780934F0C32
:103B900014C0803409F49DC040F48033B9F38833F5
:103BA000E9F680934F0C85ECB0C0803509F485C0F0
:103BB000883509F496C0883489F60E940B1CCECF54
:103BC000883909F48CC038F5883729F050F48836E4
:103BD00011F0803719F683E08093510C1092D50BC9
:103BE00057C0883809F47BC0803919F0803809F053
:103BF000B5CF8091D50B803208F071C0E091D50B24
:103C000081E08E0F8093D50B8091BB00F0E0EB54E8
:103C1000F44F80833DC0803B39F0E0F4803A09F4F2
:103C200079C0883A09F09ACF84E08093510C1092C1
:103C3000B40B1092B30BE091DF0BF091E00B1995F0
:103C40008091B30B81110FC081E08093B30B109270
:103C5000930B09C0803C09F4A6CF883C09F4A3CF9C
:103C6000883B09F07BCFE091B40B81E08E0F80930D
:103C7000B40BF0E0ED56F44F80818093BB0090913F
:103C8000B40B8091B30B29C080912C0C8093BB00A6
:103C900085EC8093BC0062CF90914E0C80914D0CCE
:103CA000981758F5E0914E0C81E08E0F80934E0CE2
:103CB000F0E0E35DF34F8081E9CFE0914E0C81E0CD
:103CC0008E0F80934E0C8091BB00F0E0E35DF34FCC
:103CD000808390914E0C80914D0C9817C8F285E826
:103CE000D8CFE0914E0C81E08E0F80934E0C8091E6
:103CF000BB00F0E0E35DF34F80838091500C8111B5
:103D00005CCF81E080932B0C84EA8093BC001092FE
:103D1000510C24CF85EC8093BC001092510C809103
:103D2000D50B803230F4E091D50BF0E0EB54F44F3A
:103D300010826091D50B70E0E091DD0BF091DE0B0D
:103D400085EB9BE019951092D50B08CF10924F0C84
:103D500034CF1F920F920FB60F9211240BB60F9211
:103D60002F933F934F935F936F937F938F939F9383
:103D7000AF93BF93EF93FF9348E251E064E271E0A9
:103D800090E080E00E94150BFF91EF91BF91AF9101
:103D90009F918F917F916F915F914F913F912F9163
:103DA0000F900BBE0F900FBE0F901F9018951F9293
:103DB0000F920FB60F9211240BB60F922F933F93D1
:103DC0004F935F936F937F938F939F93AF93BF9323
:103DD000EF93FF9348EA50E064EA70E083E090E0FC
:103DE0000E94150BFF91EF91BF91AF919F918F9121
:103DF0007F916F915F914F913F912F910F900BBEEB
:103E00000F900FBE0F901F9018951F920F920FB634
:103E10000F9211240BB60F922F933F934F935F9302
:103E20006F937F938F939F93AF93BF93EF93FF9382
:103E300048E950E064E970E082E090E00E94150BF0
:103E4000FF91EF91BF91AF919F918F917F916F9172
:103E50005F914F913F912F910F900BBE0F900FBE2E
:103E60000F901F9018951F920F920FB60F9211246A
:103E70000BB60F922F933F934F935F936F937F9364
:103E80008F939F93AF93BF93EF93FF9348E850E0D6
:103E900064E870E081E090E00E94150BFF91EF91E3
:103EA000BF91AF919F918F917F916F915F914F9152
:103EB0003F912F910F900BBE0F900FBE0F901F9050
:103EC0001895CF92DF92EF92FF92CF93DF93EBE7BB
:103ED000FCE01382128288EE93E0A0E0B0E08483DD
:103EE0009583A683B7832FE132E03183208325ECCD
:103EF00030E03587248724EC30E03787268720ECB4
:103F000030E0318B208B21EC30E0338B228B22ECA4
:103F100030E0358B248B26EC30E0378B268B118EEE
:103F2000128E138E148EC8E1DDE01B821A828C8300
:103F30009D83AE83BF8381E392E099838883EFE121
:103F4000FEE086E390E09183808398E3C92E94E0BD
:103F5000D92EE12CF12CC282D382E482F58260E07A
:103F60000E94BC02E9E1FEE088E390E09183808357
:103F7000C282D382E482F58260E00E94BC02E3E167
:103F8000FEE08AE390E091838083C282D382E48260
:103F9000F58260E00E94BC0245E064E081ED9DE0B6
:103FA0000E946B0943E062E08FE89DE00E946B098C
:103FB0008CE89DE00E94FA0A89E89DE00E94FA0AD6
:103FC00086E89DE00E94FA0A83E89DE00E94FA0AD2
:103FD00080E89DE00E94FA0AE4E2FDE0108288E6B3
:103FE0008383D283C18388E491EEAAE7BFE3809301
:103FF0007C0D90937D0DA0937E0DB0937F0D148664
:10400000158616861786108A118A128A138A148AD0
:10401000158A168A178A108E118E128E138E148EA0
:10402000158E168E178E10A211A212A213A2DF9166
:10403000CF91FF90EF90DF90CF900895CF93DF93D3
:10404000CDB7DEB764970FB6F894DEBF0FBECDBF15
:10405000789484B5826084BD84B5816084BD85B563
:10406000826085BD85B5816085BD80916E0081606F
:1040700080936E0010928100809181008260809315
:104080008100809181008160809381008091800017
:104090008160809380008091B10084608093B10042
:1040A0008091B00081608093B00080919100826027
:1040B0008093910080919100816080939100809124
:1040C00090008160809390008091A1008260809335
:1040D000A1008091A10081608093A1008091A00047
:1040E00081608093A00080912101826080932101F2
:1040F0008091210181608093210180912001816064
:104100008093200180917A00846080937A0080916E
:104110007A00826080937A0080917A008160809337
:104120007A0080917A00806880937A001092C100B2
:10413000E0918B0CF0918C0C82E08083E091870CF5
:10414000F091880C1082E091890CF0918A0C80E14A
:1041500080831092930CE0918F0CF091900C86E08C
:104160008083E0918D0CF0918E0C80818061808342
:10417000E0918D0CF0918E0C808188608083E091BD
:104180008D0CF0918E0C808180688083E0918D0C85
:10419000F0918E0C80818F7D808310920A0C10929A
:1041A000090C1092580C10927A0C0E944B058CE569
:1041B00093E09093E00B8093DF0B8DE593E0909379
:1041C000DE0B8093DD0B8CE08093B80061E08BE622
:1041D0000E947A06182F60E089E10E947A0660E06A
:1041E0008AE10E947A0680E090E0A3E8B2E480933E
:1041F000280D9093290DA0932A0DB0932B0D68E004
:104200008BE10E947A0680E090E0A0E8B6E480931B
:104210002C0D90932D0DA0932E0DB0932F0D60E0DB
:104220008CE10E947A060E946F158091640D909136
:10423000650DA091660DB091670D80936C0D909304
:104240006D0DA0936E0DB0936F0D8091680D9091E0
:10425000690DA0916A0DB0916B0D8093700D9093D4
:10426000710DA093720DB093730D0E945003609373
:10427000780D7093790D80937A0D90937B0D84E285
:1042800092E00E94B804612F70E090E080E04AE084
:104290000E9448110E9444111111FECF8BEF91E052
:1042A0000E94B8040E94441168EE73E080E090E040
:1042B0000E941D031092300D1092310D1092320D9C
:1042C0001092330D1092340D1092350D1092360D60
:1042D0001092370D1092380D1092390D10923A0D40
:1042E00010923B0D10923C0D10923D0D10923E0D20
:1042F00010923F0D1092400D1092410D1092420D00
:104300001092430D1092440D1092450D1092460DDF
:104310001092470D04EF11E0198A1A8A1B8A1C8A31
:104320001D861E861F86188A19861A861B861C867D
:10433000C12CD12C760146015701260137010E947C
:10434000B50E20914C0D30914D0D40914E0D509178
:104350004F0DC301B2010E94322D2B013C0120916F
:10436000500D3091510D4091520D5091530DC5019A
:10437000B4010E94322D4B015C0120E030E040E8A6
:104380005FE36091540D7091550D8091560D9091A1
:10439000570D0E94312D9B01AC01C701B6010E944F
:1043A000322D6B017C012091580D3091590D4091B7
:1043B0005A0D50915B0D69857A858B859C850E948D
:1043C000322D69877A878B879C8720915C0D30918D
:1043D0005D0D40915E0D50915F0D6D857E858F85E1
:1043E00098890E94322D6D877E878F87988B2091C8
:1043F000600D3091610D4091620D5091630D69899E
:104400007A898B899C890E94322D698B7A8B8B8B60
:104410009C8B61E070E080E090E00E941D03015001
:10442000110909F08CCF20E030E04AEF53E4C301DA
:10443000B2010E94102E60933C0D70933D0D80934D
:104440003E0D90933F0D20E030E04AEF53E4C5016C
:10445000B4010E94102E6093400D7093410D809323
:10446000420D9093430D20E030E04AEF53E4C70142
:10447000B6010E94102E6093440D7093450D8093F9
:10448000460D9093470D20E030E04AEF53E46985F4
:104490007A858B859C850E94102E6093300D7093D9
:1044A000310D8093320D9093330D20E030E04AEFD0
:1044B00053E46D857E858F8598890E94102E6093C8
:1044C000340D7093350D8093360D9093370D20E0A9
:1044D00030E04AEF53E469897A898B899C890E948C
:1044E000102E6093380D7093390D80933A0D909390
:1044F0003B0D8FEC96E00E94121301E112E04BE1BC
:10450000E42E42E0F42EF80180810E5F1F4F60E040
:104510000E94BC02E016F106B1F761E080E20E9461
:10452000BC0266E070E08CE89DE00E94720A67E0E1
:1045300070E089E89DE00E94720A6AE570E08CE80C
:104540009DE00E94F6096AE570E089E89DE00E941E
:10455000F6090E946F150E94441469E072E090E031
:1045600080E00E94431C67E072E082E090E00E94DD
:10457000431C65E072E084E090E00E94431C63E02D
:1045800072E086E090E00E94431C61E072E088E007
:1045900090E00E94431C4DE750E064E070E08EEE36
:1045A00092E00E94110CFF24F3948BE79CE00E94A0
:1045B0003304892B09F471C01A8219821C821B8270
:1045C0001E821D8270E060E0CE0101960E94E31B16
:1045D00029813A8181112EC02115310519F0C901B7
:1045E0000E94FB2F1A8219821E821D821C821B824E
:1045F0000E94F3030D811E8197FD24C08A3091052E
:1046000009F18F8318860F5F1F4FB801CE01019605
:104610000E94E31B882361F329813A818D819E8169
:10462000BE01695F7F4F820F931F0E9477311E8307
:104630000D83DECF1E821D8261E472E0C9010E94FB
:104640007731D6CF89809A808114910429F0640152
:104650000115110509F07BC08D819E81892BB9F070
:1046600089819A812091FF0B2111A7C066ED76E028
:104670000E946E31892B09F0FAC4F092FF0B88ED8D
:1046800096E00E9412130E941E131092F70B89816C
:104690009A81009711F00E94FB2F8091FF0B8111EE
:1046A00005C50E946F150E94CF0BDC019093FE0B95
:1046B0008093FD0BED91FC911197EE0FFF1F129669
:1046C0008D919C911397E80FF91FEE0FFF1F149621
:1046D0008D919C911597E80FF91FEE0FFF1F16960D
:1046E0008D919C911797E80FF91FEE0FFF1F1896F9
:1046F0008D919C91E80FF91FE032F10508F090C709
:104700008827EA57FC4D8F4F0C94572F6429102BA4
:10471000102B6C284B2A102B102B8528102B102BBC
:10472000102B102B102B102B102B502A102B102B72
:10473000102B5928102B102B102B7D296C28F328B7
:10474000102B3A2806298A29B02A97296501560193
:10475000FFEFAF1ABF0AF6018081082E000C990BFB
:104760000E94882B892B91F701501109080D191D02
:10477000F8018081082E000C990B0E94882B892B50
:1047800031F00C151D0518F001501109F1CF0F5F24
:104790001F4FA8014C195D095E834D838C149D0445
:1047A00020F4B601C4010E946531E981FA818D814E
:1047B0009E81E80FF91F10824FCFE090F70BEE209B
:1047C00009F488C00097B1F00E944C2B2091F50BA2
:1047D0003091F60B2430310509F456C07CF42230B8
:1047E000310531F123303105E1F18EE897E00E9487
:1047F000121332C060E070E0CB01E8CF2530310504
:1048000009F455C02630310581F770930202609398
:10481000010261E072E088E090E00E94571C8AE6A5
:1048200097E00E944214809101029091020212C00E
:1048300070930A026093090269E072E090E080E000
:104840000E94571C86EF96E00E9442148091090254
:1048500090910A020E94CE111092F70B0E941E1333
:1048600016CF709308026093070267E072E082E05F
:1048700090E00E94571C84E197E00E9442148091CE
:10488000070290910802E6CF70930602609305023A
:1048900065E072E084E090E00E94571C82E397E0BC
:1048A0000E9442148091050290910602D3CF70932A
:1048B00004026093030263E072E086E090E00E94ED
:1048C000571C8EE497E00E9442148091030290915D
:1048D0000402C0CF0097B1F00E944C2B69307105E3
:1048E00008F086C3FB018827E758FB4D8F4F0C94D7
:1048F000572F86248D2490249D24AA24B324BC24DD
:10490000C524FC2460E070E0CB01E8CF1092FF0BDF
:1049100084EA97E00E941213BACE0E9444149ECFFC
:104920008BED97E00E941213F092F70B82E090E07B
:104930009093F60B8093F50BAACE81E098E00E944D
:104940001213F092F70BE3E0F0E0F093F60BE09334
:10495000F50B9DCE87E298E00E941213F092F70BC0
:1049600084E090E0E5CF8BE498E00E941213F0928F
:10497000F70BE5E0F0E0E9CF8FE698E00E94121334
:10498000F092F70B86E090E0D3CF8BE998E00E949D
:1049900012138AEB98E00E944214809109029091D0
:1049A0000A020E94CE1187E295E00E944214809193
:1049B0000702909108020E94CE1188EC98E00E94B4
:1049C000421480910502909106020E94CE1185ED5D
:1049D00094E00E94421480910302909104020E948C
:1049E000CE1181E895E00E944214809101029091DD
:1049F00002020E94CE1132CF84ED98E00E94121381
:104A00000DEE1BE02FEE3BE041EF5BE063EF7BE060
:104A100081ED9DE00E949A124091EF0B5091F00BB6
:104A20006091F10B7091F20B8091F30B9091F40B6C
:104A30000E94E0019093EC0B8093EB0B03EE1BE0E4
:104A400025EE3BE047EE5BE069EE7BE08FE89DE022
:104A50000E949A12E091E50BF091E60BFA87E98744
:104A60008090E70B9090E80B6090E90B7090EA0B58
:104A7000AF01B401C3010E94E0015C019093E20B1D
:104A80008093E10BC090ED0BD090EE0B0091E30B07
:104A90001091E40B2090EB0B3090EC0BF6E92F1605
:104AA000310494F420E9C21621E0D2066CF486E9C0
:104AB000A816B1049CF4003991E019077CF481EF49
:104AC00098E00E94121394C2E9EECE16E3E0DE06EF
:104AD0002CF0093EF3E01F070CF0C6C28091F10BE9
:104AE0009091F20B2091F30B3091F40B28173907BA
:104AF00070F54091EF0B5091F00B4817590738F5BE
:104B0000821B930B20910102309102022817390772
:104B1000F0F48091050290910602C816D906BCF007
:104B200080910302909104028C159D0584F0809180
:104B3000090290910A02281639064CF05524539424
:104B40008091070290910802821593050CF4512C74
:104B50006814790460F589859A858815990538F572
:104B60008618970880910102909102028815990594
:104B7000F0F4809105029091060208171907BCF025
:104B800080910302909104028017910784F0809134
:104B9000090290910A02A816B9064CF07724739482
:104BA00080910702909108028A159B050CF4712CE4
:104BB0004601801A910A97FE03C09194819491084E
:104BC00094E6891691041CF4672C511001C0612CE5
:104BD00087E394E00E944214852D90E00E94CE115C
:104BE00087E494E00E944214872D90E00E94CE1149
:104BF00088E594E00E944214862D90E00E94CE1138
:104C000086E694E00E944214C6010E949E118CE642
:104C100094E00E944214C8010E94CE1185E794E0FE
:104C20000E9442148091EB0B9091EC0B0E948C112E
:104C30008CE794E00E9442148091E10B9091E20B8A
:104C40000E94921186E894E00E9442148091F30B36
:104C50009091F40B0E948C118BE894E00E94421416
:104C60008091E90B9091EA0B0E94921183E994E004
:104C70000E9442148091F10B9091F20B0E948C11D2
:104C800088E994E00E9442148091E70B9091E80B30
:104C90000E94921180EA94E00E9442148091EF0BEE
:104CA0009091F00B0E948C1185EA94E00E944214CE
:104CB0008091E50B9091E60B0E9492118DEA94E0B1
:104CC0000E9442148091ED0B9091EE0B0E948C118A
:104CD00082EB94E00E9442148091E30B9091E40BEC
:104CE0000E94921185E794E00E9442148091EB0BA0
:104CF0009091EC0B0E948C118CE794E00E9442147E
:104D00008091E10B9091E20B0E9492118AEB94E06A
:104D10000E9442148091050290910602C816D9069D
:104D200044F081E020910302309104022C153D05EE
:104D30000CF480E090E00E94CE1181EE94E00E949D
:104D4000421480910502909106020817190744F059
:104D500081E02091030230910402201731070CF406
:104D600080E090E00E94CE1188E095E00E9442141D
:104D70008091090290910A022816390644F081E0D8
:104D80002091070230910802221533050CF480E0CF
:104D900090E00E94CE1185E395E00E94421480913C
:104DA000090290910A02A816B90644F081E0209108
:104DB0000702309108022A153B050CF480E090E0D0
:104DC0000E94CE1182E695E00E9442142091F10BE0
:104DD0003091F20B8091F30B9091F40B82179307B3
:104DE00040F481E04091EF0B5091F00B42175307D4
:104DF00008F080E090E00E94CE1187E795E00E94E5
:104E000042142091F10B3091F20B8091F30B9091B1
:104E1000F40B281B390B81E090E040910102509186
:104E200002024217530710F090E080E00E94CE117A
:104E300085E995E00E9442142091E70B3091E80B40
:104E40008091E90B9091EA0B8217930740F481E07F
:104E50004091E50B5091E60B4217530708F080E0B4
:104E600090E00E94CE118AEA95E00E9442142091BF
:104E7000E70B3091E80B8091E90B9091EA0B281B2E
:104E8000390B81E090E040910102509102024217FB
:104E9000530710F090E080E00E94CE118AEB94E07E
:104EA0000E9442148091050290910602C816D9060C
:104EB00044F081E020910302309104022C153D055D
:104EC0000CF480E090E00E94CE1181EE94E00E940C
:104ED000421480910502909106020817190744F0C8
:104EE00081E02091030230910402201731070CF475
:104EF00080E090E00E94CE1188E095E00E9442148C
:104F00008091090290910A022816390644F081E046
:104F10002091070230910802221533050CF480E03D
:104F200090E00E94CE1185E395E00E9442148091AA
:104F3000090290910A02A816B90654F0EE24E394EF
:104F400080910702909108028A159B050CF4E12CD0
:104F50008E2D90E00E94CE1188EC95E00E944214C4
:104F600081E090E0E4E68E16910414F090E080E099
:104F70000E94CE1181E199E06110A3CD5520E9F1A5
:104F80008DE396E00E94121388EC93E00E94421495
:104F90008091EB0B9091EC0B0E948C1184E399E0D3
:104FA0000E9442148091F30B9091F40B0E948C119B
:104FB0008BE399E00E9442148091F10B9091F20BE7
:104FC0000E948C1182E499E00E9442148091EF0BC0
:104FD0009091F00B0E948C1189E499E00E94421498
:104FE0008091ED0B9091EE0B0E948C110E94441168
:104FF0008FE599E00E94121331CC7720A9F185E862
:1050000096E00E94121388EC93E00E944214809173
:10501000E10B9091E20B0E948C1184E399E00E94D5
:1050200042148091E90B9091EA0B0E948C118BE362
:1050300099E00E9442148091E70B9091E80B0E9446
:105040008C1182E499E00E9442148091E50B9091CA
:10505000E60B0E948C1189E499E00E944214809131
:10506000E30B9091E40BC0CF80E599E02ACD8AE86C
:1050700099E050CC68E770E08CE89DE00E94F6096A
:105080006CE370E089E89DE00E94F6098091FC0BDA
:10509000882361F00E94BF179093FB0B8093FA0B5B
:1050A0008AEB99E00E9412131092FC0B0E94F30409
:1050B0007CCA62E870E08CE89DE00E94F6096CE32F
:1050C00070E089E89DE00E94F609F092FC0B8BEC01
:1050D00099E00E941213EACF82EE99E00E94121327
:1050E0000E94CD1768E770E08CE89DE00E94F60909
:1050F0006CE370E089E89DE00E94F60964EF71E0DE
:1051000080E090E00E941D03D1CF87EF99E00E94DC
:1051100012130E94BF179093FB0B8093FA0B0E940F
:10512000CF0B9093FE0B8093FD0B68E770E08CE84B
:105130009DE00E94F6096CE370E089E89DE00E9422
:10514000F60960E070E0CB010E941D0368E770E0A3
:105150008CE89DE00E94F60968E770E089E89DE030
:105160000E94F6090091FA0B1091FB0B0B5A1F4F8E
:105170000E94BF1708171907CCF4E091FD0BF091BE
:10518000FE0B84819581892B89F068E770E08CE8BB
:105190009DE00E94F6096CE370E089E89DE00E94C2
:1051A000F6096EEE72E080E090E0ACCF0E946F15E1
:1051B0000E94CF0B9093FE0B8093FD0B80EA96E04C
:1051C0000E9442140E94BF170E949E1181E396E044
:1051D0000E9442148091FA0B9091FB0B865A9F4FCC
:1051E0000E94CE11BFCF86E09AE00E94121368E7BA
:1051F00070E08CE89DE00E94F60962E370E089E8C7
:105200009DE00E94F609F092FC0B50CF8CE19AE0F1
:105210000E9412130E94BF179093FB0B8093FA0B0E
:105220000E94CF0B9093FE0B8093FD0B68E770E01C
:105230008CE89DE00E94F6096CE370E089E89DE04F
:105240000E94F60960E070E0CB010E941D036CE350
:1052500070E08CE89DE00E94F6096CE370E089E85C
:105260009DE00E94F6090091FA0B1091FB0B055589
:1052700011090E94BF17801791074CF4E091FD0BB4
:10528000F091FE0B84819581892B09F07ECF0E94DD
:105290006F150E94CF0B9093FE0B8093FD0B87E55B
:1052A00096E00E9442140E94BF170E949E1181E363
:1052B00096E00E9442148091FA0B9091FB0B8A5564
:1052C00091090E94CE11CFCF6AE570E08CE89DE095
:1052D0000E94F6096AE570E089E89DE00E94F609FF
:1052E0008AE29AE00E9412130E94BF179093FB0B70
:1052F0008093FA0B0E94CD17D9CE8CE49AE00E94DD
:10530000121368E770E08CE89DE00E94F6096AE5F8
:1053100070E075CF88E69AE00E9412136AE570E0AB
:105320008CE89DE00E94F6096CE370E068CF0E9473
:10533000CF0BFC019093FE0B8093FD0B808191813C
:10534000892B09F4B3CE82819381892B09F4AECEE7
:1053500084819581892B09F4A9CE86819781892B37
:1053600009F4A4CE80859185892B09F49FCE0E94F3
:10537000BF172091FA0B3091FB0BA9014250510944
:1053800084179507ACF50091FA0B1091FB0B0250B6
:1053900011090E94BF17801791070CF087CE0E9459
:1053A0004A1364E670E08CE89DE00E94F6096AE525
:1053B00070E089E89DE00E94F6090E94CF0BFC0195
:1053C0009093FE0B8093FD0B80819181892B09F4D2
:1053D0006DCE82819381892B09F468CE8681978175
:1053E000892B09F463CE80859185892B61F65ECE89
:1053F000A9014E5F5F4F48175907ACF50091FA0BB2
:105400001091FB0B0E5F1F4F0E94BF170817190763
:105410000CF04CCE0E944A136AE570E08CE89DE0E7
:105420000E94F60960E570E089E89DE00E94F609B7
:105430000E94CF0BFC019093FE0B8093FD0B8081AB
:105440009181892B09F432CE82819381892B09F4D1
:105450002DCE86819781892B09F428CE8085918570
:10546000892B61F623CE281B390B37FF03C03195FA
:1054700021953109233031050CF018CE68E770E032
:105480008CE89DE00E94F6096CE370E089E89DE0FD
:105490000E94F6090BCE83E89AE00E9412132ACFED
:1054A00085E89AE00E941213E091FD0BF091FE0B4B
:1054B000848195810197D9F4828193810197B9F410
:1054C00080819181892B99F40E94CF0B9093FE0BE0
:1054D0008093FD0B6EE670E08CE89DE00E94F6097B
:1054E0006AE570E089E89DE00E94F609DDCF0E9440
:1054F000BF179093F90B8093F80B2091F80B309124
:10550000F90B8091FA0B9091FB0B281739070CF4DB
:10551000CDCD0E94BF179093F90B8093F80B80ECD0
:1055200096E00E9442148091F80B9091F90B0E9432
:10553000CE1183EA9AE00E9442148091FA0B909176
:10554000FB0B0E94CE116AE570E08CE89DE00E94A2
:10555000F60966E470E089E89DE00E94F609CDCF87
:105560008FEA9AE00E941213E091FD0BF091FE0B7E
:1055700080859185892BD9F4868197810197B9F42B
:1055800084819581019799F40E94CF0B9093FE0B33
:105590008093FD0B6AE570E08CE89DE00E94F609BF
:1055A00066E470E089E89DE00E94F609DDCF0E9484
:1055B000BF179093F90B8093F80B2091F80B309163
:1055C000F90B8091FA0B9091FB0B821793070CF467
:1055D0006DCD0E94BF179093F90B8093F80B80EC70
:1055E00096E00E9442148091F80B9091F90B0E9472
:1055F000CE1183EA9AE00E9442148091FA0B9091B6
:10560000FB0B0E94CE116EE670E08CE89DE00E94DC
:10561000F6096AE570E089E89DE00E94F609CDCFC1
:105620000E946F158CEC9AE00E94121344E650E041
:1056300061E070E088EE93E00E94110C68E770E092
:105640008CE89DE00E94F6096CE370E089E89DE03B
:105650000E94F6090E94CF0B9093FE0B8093FD0BE6
:1056600010E000E0E091FD0BF091FE0BE00FF11F68
:10567000808191810E949E110E5F1F4F0A3011059B
:1056800089F780ED93E025CD86E99DE00E944609EB
:1056900088ED9DE00C9446091F93FC01992788270B
:1056A000BC01E89411911032E9F3193010F01E306A
:1056B000C8F31B3251F01D3249F4689406C00E94B1
:1056C000732B610F711D811D911D119110531A30A3
:1056D000B0F33EF490958095709561957F4F8F4F14
:1056E0009F4F1F910895592F482F372F262F660F50
:1056F000771F881F991F660F771F881F991F620FDA
:10570000731F841F951F660F771F881F991F0895A9
:1057100091110C94642C803219F089508550C8F78F
:1057200008950E94D32B08F481E00895E89409C0FD
:1057300097FB3EF490958095709561957F4F8F4FC4
:105740009F4F9923A9F0F92F96E9BB279395F695DA
:10575000879577956795B795F111F8CFFAF4BB0F58
:1057600011F460FF1BC06F5F7F4F8F4F9F4F16C0BC
:10577000882311F096E911C0772321F09EE8872F46
:10578000762F05C0662371F096E8862F70E060E002
:105790002AF09A95660F771F881FDAF7880F96957B
:1057A000879597F90895990F0008550FAA0BE0E81F
:1057B000FEEF16161706E807F907C0F012161306D3
:1057C000E407F50798F0621B730B840B950B39F413
:1057D0000A2661F0232B242B252B21F408950A2679
:1057E00009F4A140A6958FEF811D811D08950E94A7
:1057F0000A2C0C947E2C0E94702C38F00E94772C7E
:1058000020F0952311F00C94672C0C946D2C11242E
:105810000C94B22C0E948F2C70F3959FC1F3950FBE
:1058200050E0551F629FF001729FBB27F00DB11D24
:10583000639FAA27F00DB11DAA1F649F6627B00DB4
:10584000A11D661F829F2227B00DA11D621F739F9D
:10585000B00DA11D621F839FA00D611D221F749FAB
:105860003327A00D611D231F849F600D211D822FF2
:10587000762F6A2F11249F5750409AF0F1F0882319
:105880004AF0EE0FFF1FBB1F661F771F881F915046
:105890005040A9F79E3F510580F00C94672C0C9462
:1058A000B22C5F3FE4F3983ED4F3869577956795E5
:1058B000B795F795E7959F5FC1F7FE2B880F911D70
:1058C0009695879597F9089599278827089597F9C8
:1058D0009F6780E870E060E008959FEF80EC089596
:1058E00000240A94161617061806090608950024BF
:1058F0000A9412161306140605060895092E039439
:10590000000C11F4882352F0BB0F40F4BF2B11F4AC
:1059100060FF04C06F5F7F4F8F4F9F4F089557FD0B
:105920009058440F551F59F05F3F71F04795880F0D
:1059300097FB991F61F09F3F79F0879508951216A4
:1059400013061406551FF2CF4695F1DF08C0161650
:1059500017061806991FF1CF869571056105089401
:105960000895E894BB2766277727CB0197F9089518
:10597000F999FECF92BD81BDF89A992780B5089517
:10598000262FF999FECF1FBA92BD81BD20BD0FB65B
:10599000F894FA9AF99A0FBE01960895052E97FB8E
:1059A0001EF400940E94E52C57FD07D00E94002DA4
:1059B00007FC03D04EF40C94E52C5095409530959F
:1059C00021953F4F4F4F5F4F08959095809570956B
:1059D00061957F4F8F4F9F4F08950E94222DA59F65
:1059E000900DB49F900DA49F800D911D11240895DA
:1059F000B7FF0C94ED2C0E94ED2C821B930B0895A5
:105A0000A1E21A2EAA1BBB1BFD010DC0AA1FBB1FC2
:105A1000EE1FFF1FA217B307E407F50720F0A21B34
:105A2000B30BE40BF50B661F771F881F991F1A94A1
:105A300069F760957095809590959B01AC01BD01CB
:105A4000CF010895A29FB001B39FC001A39F700D25
:105A5000811D1124911DB29F700D811D1124911D76
:105A600008955058BB27AA270E94492D0C947E2CDC
:105A70000E94702C38F00E94772C20F039F49F3F60
:105A800019F426F40C946D2C0EF4E095E7FB0C94BD
:105A9000672CE92F0E948F2C58F3BA1762077307FF
:105AA0008407950720F079F4A6F50C94B12C0EF438
:105AB000E0950B2EBA2FA02D0B01B90190010C011E
:105AC000CA01A0011124FF27591B99F0593F50F436
:105AD000503E68F11A16F040A22F232F342F44278E
