:100000000C94EE010C941F020C941F020C941F021E
:100010000C941F020C941F020C941F020C941F02DC
:100020000C941F020C941F020C941F020C941F02CC
:100030000C941F020C94E61E0C941F020C941F02D9
:100040000C941F020C9450210C941F020C941F025C
:100050000C941F020C941F020C941F020C949C1E03
:100060000C941F020C94701F0C94461F0C941F02DA
:100070000C941F020C941F020C941F020C941F027C
:100080000C9422210C941F020C941F020C941F024A
:100090000C941F020C941F020C941F020C94A61FB8
:1000A0000C941F020C941F020C94F4200C941F0259
:1000B0000C941F020C941F020C941F020C94C62077
:1000C0000C941F020C941F020C941F020C941F022C
:1000D0000C941F020C941F020C941F020C941F021C
:1000E0000C941F02084AD73B3BCE016E84BCBFFD77
:1000F000C12F3D6C74319ABD56833DDA3D00C77FF8
:1001000011BED9E4BB4C3E916BAAAABE0000008090
:100110003F07634236B79BD8A71A39685618AEBA5C
:10012000AB558C1D3CB7CC5763BD6DEDFD753EF6F0
:10013000177231BF000000803F08000000BE92240B
:1001400049123EABAAAA2ABECDCCCC4C3E00000040
:1001500080BEABAAAAAA3E00000000BF000000803B
:100160003F0000000000084178D3BB4387D1133D16
:10017000190E3CC3BD4282AD2B3E68EC8276BED9DF
:100180008FE1A93E4C80EFFFBE01C4FF7F3F00001E
:10019000000000000C94AB020C944F2A0C94AA04AB
:1001A0000C94A1020C94CB020C942F2D0C9472048D
:1001B0000C94C1020C948C020C9464040C94292FAE
:1001C0000C948E260C94C6020C9498020C94DA2699
:1001D0000C946A070C943C2E0C9411270C94C62E98
:1001E0000C943B070C94E4060C94C2260C94120564
:1001F0000C94B4260C9486020C940E070C94A50261
:100200000C94E2030C94AF020C949B020C94C02D4E
:100210000C9490020C946F300C94B9020C94BD02B3
:100220000C9498260C94A6260C947E210C94070717
:100230000C94F4060C9407300C94E5060C941E0400
:100240000C94492E0C945C2D0C94D0260C94892F80
:100250000C94B3020C94432D0C94102E0C94C92EC4
:100260000C94AC2D0C94232E0C940F040C9494023B
:100270000C94C7020C9495260C94A3300243616C35
:1002800063756C6174696E67206F666673657473FD
:100290002C20646F206E6F74206D6F7665204D503A
:1002A0005536303530004D5055363035302073746A
:1002B000617475733A200000000A0B02090C0D0EE0
:1002C0000807030401000000000000000000000017
:1002D000000000000000000000000000000000001E
:1002E00000000012111000000000000000000000DB
:1002F00000000000000000000000000000000020DE
:10030000002300260029002C002F003200000100ED
:100310000003010601090100002100240027002A32
:10032000002D003000330001010000040107010A24
:100330000100002200250028002B002E003100348F
:100340000002010000050108010B0101021020203C
:100350000808102040102040800201020108040219
:10036000010102040810204080804020100804028F
:1003700001800402018040201008040201080402E8
:1003800001010204081020408001020408102040EE
:100390008005050505070508080808020202020A8B
:1003A0000A08080404040401010101010101010318
:1003B00003030303030303040707070C0C0C0C0CD3
:1003C0000C0C0C0202020206060606060606060BC6
:1003D0000B0B0B0B0B0B0B007E21A33011241FBE4C
:1003E000CFEFD1E2DEBFCDBF00E00CBF1DE0A0E04B
:1003F000B2E0E6EDF0E700E00BBF02C007900D921F
:10040000AA3AB107D9F721E1AAEABDE001C01D92DD
:10041000A230B207E1F711E0CDEED1E000E006C076
:1004200021970109802FFE010E941736CC3ED1078B
:1004300080E00807A9F70E943E220C9459380C94DA
:100440000000CF92DF92EF92FF920F931F93CF9312
:10045000DF938B01EA01BC0190E080E00E94F5305F
:1004600026ED39E346EA5EEB0E9456316B017C01D2
:10047000B80190E080E00E94F53027E038E04AECD7
:100480005FE30E9456319B01AC01C701B6010E9497
:1004900091326B017C01BE0190E080E00E94F5305A
:1004A00024E73EE54BE35FEB0E9456319B01AC0134
:1004B000C701B6010E9491320E94E833CB01DF915F
:1004C000CF911F910F91FF90EF90DF90CF90089503
:1004D0008150823108F05AC0E82FF0E08827EC58AC
:1004E000FD4F8F4F0C9417369402980286028C02AF
:1004F0009002C6029B02A102A502AB02AF02B302A8
:10050000B902BD02C602C102C702CB0280918000BF
:100510008F77809380000895809180008F7DF9CF40
:1005200080918000877FF5CF84B58F7784BD089553
:1005300084B58F7DFBCF8091B0008F778093B00022
:1005400008958091B0008F7DF9CF809190008F77D2
:10055000809390000895809190008F7DF9CF8091D5
:100560009000877FF5CF8091A0008F778093A000C7
:1005700008958091A0008F7DF9CF8091A000877FA2
:10058000F5CF809120018F7780932001089580918D
:1005900020018F7DF9CF80912001877FF5CF1F93B8
:1005A000CF93DF93282F30E0F901E954FD4F849178
:1005B000F901E55BFC4FD491F901EF56FC4FC49172
:1005C000CC23A9F0162F81110E946802EC2FF0E0D5
:1005D000EE0FFF1FEF5CFC4FA591B4918FB7F8941D
:1005E000EC91111108C0D095DE23DC938FBFDF9111
:1005F000CF911F910895DE2BF8CFCF93DF9390E03A
:10060000FC01E55BFC4F24918F569C4FFC018491CB
:100610008823D1F090E0880F991FFC01E95EFC4F20
:10062000A591B491FC01EF5CFC4FC591D49161118F
:100630000EC09FB7F8948C91E22FE0958E238C9397
:100640002881E223E8839FBFDF91CF9108958FB780
:10065000F894EC91E22BEC938FBFF6CF82309105AA
:1006600038F0880F991F880F991F05970197F1F7A8
:1006700008953FB7F8948091DE0E9091DF0EA0911F
:10068000E00EB091E10E26B5A89B05C02F3F19F0F2
:100690000196A11DB11D3FBFBA2FA92F982F882702
:1006A000BC01CD01620F711D811D911D42E0660FDD
:1006B000771F881F991F4A95D1F708958F929F92AF
:1006C000AF92BF92CF92DF92EF92FF926B017C01CB
:1006D0000E9439034B015C01C114D104E104F1040F
:1006E000B9F00E943903681979098A099B09683EA3
:1006F00073408105910580F321E0C21AD108E10819
:10070000F10888EE880E83E0981EA11CB11CE4CF8E
:10071000FF90EF90DF90CF90BF90AF909F908F9021
:1007200008952FB7F8946091DA0E7091DB0E8091E6
:10073000DC0E9091DD0E2FBF089590910002891379
:100740000DC0ECE7F2E0E4919FEF90930002E230FD
:10075000E1F038F4EE2381F0E13089F060E00C94B0
:10076000CF02E43049F110F1E530C1F79091730008
:100770009D7F90937300F2CF10926E00EFCF909117
:100780006F009D7F90936F00E9CF909170009D7FE7
:100790009093700091E09093B0009091B100987F99
:1007A00094609093B1001092B300D8CF90917100F3
:1007B0009D7F90937100D2CF909172009D7F909316
:1007C0007200CCCFAF92BF92CF92DF92EF92FF92A6
:1007D0000F931F93CF93DF936C017B018B01040F69
:1007E000151FEB015E01AE18BF08C017D10759F005
:1007F0006991D601ED91FC910190F081E02DC60147
:100800001995892B79F7C501DF91CF911F910F9130
:10081000FF90EF90DF90CF90BF90AF900895FC01D4
:10082000538D448D252F30E0842F90E0821B930B55
:10083000541710F0CF96089501970895FC01918DFB
:10084000828D981761F0A28DAE0FBF2FB11D5D96FE
:100850008C91928D9F5F9F73928F90E008958FEFA0
:100860009FEF08950F931F930E94910360935C0F75
:1008700070935D0F80935E0F90935F0F84E59FE010
:100880000E941E0497FF1DC00E94910300915C0FFF
:1008900010915D0F20915E0F30915F0F601B710B07
:1008A000820B930B0091580F1091590F20915A0F02
:1008B00030915B0F6017710782079307F8F28FEF93
:1008C0009FEF1F910F910895FC01918D828D9817D4
:1008D00031F0828DE80FF11D858D90E008958FEF46
:1008E0009FEF0895FC01918D228D892F90E0805C0F
:1008F0009F4F821B91098F739927089584E59FE08C
:100900000E94720421E0892B09F420E0822F0895CF
:10091000FC01A48DA80FB92FB11DA35ABF4F2C9174
:10092000848D90E001968F739927848FA689B7896B
:100930002C93A089B1898C91837080648C93938D62
:10094000848D981306C00288F389E02D80818F7D05
:1009500080830895EF92FF920F931F93CF93DF93BD
:10096000EC0181E0888F9B8D8C8D98131AC0E889EB
:10097000F989808185FF15C09FB7F894EE89FF89BA
:100980006083E889F98980818370806480839FBF58
:1009900081E090E0DF91CF911F910F91FF90EF9058
:1009A0000895F62E0B8D10E00F5F1F4F0F73112768
:1009B000E02E8C8D8E110CC00FB607FCFACFE889A3
:1009C000F989808185FFF5CFCE010E948804F1CF9F
:1009D000EB8DEC0FFD2FF11DE35AFF4FF0829FB717
:1009E000F8940B8FEA89FB8980818062CFCF0F93C7
:1009F0001F93CF93DF938C01D0E0C0E0F801EC0FA0
:100A0000FD1F6491662341F084E59FE00E94AA04E3
:100A1000892B11F02196F2CFCE01DF91CF911F915A
:100A20000F910895CF93DF93EC01888D8823B9F05F
:100A3000AA89BB89E889F9898C9185FD03C08081E9
:100A400086FD0DC00FB607FCF7CF8C9185FFF2CF66
:100A5000808185FFEDCFCE010E948804E9CFDF9130
:100A6000CF91089580E090E0892B29F00E947E04C8
:100A700081110E94000080E090E0892B49F080E025
:100A800090E0892B29F00E94000081110E94000053
:100A900080E090E0892B49F080E090E0892B29F0FC
:100AA0000E94000081110E94000080E090E0892BEC
:100AB00049F080E090E0892B29F00E94000081112C
:100AC0000C94000008951F93CF93DF93C1E0C0936F
:100AD000620E882399F1D091B8001091BA008091EC
:100AE000BC008A7B8093BC0060E084E10E94CF025E
:100AF00060E085E10E94CF0210922A0FC093290F77
:100B00001092040F61E084E10E94CF0261E085E170
:100B10000E94CF028091B9008E7F8093B9008091AE
:100B2000B9008D7F8093B90088E48093B80085E494
:100B30008093BC001093BA00D093B800DF91CF919E
:100B40001F9108958F929F92AF92BF92CF92DF92A2
:100B5000EF92FF920F931F93CF93DF93D091530F98
:100B6000D13208F0D7C0182FC091520F0E9439031C
:100B70006B017C0180912A0F81116BC082E0809310
:100B80002A0F1093290F8FEF8093280F1092270FB1
:100B9000D093260FA2E3BFE0E6E0FFE080E0D813A9
:100BA00091C01092050F8091050FCC0FC82BC093F8
:100BB000050F8091040F813009F088C01092040F56
:100BC0000E9439036B017C018091050F8093BB006B
:100BD00080912C0F90912D0FA0912E0FB0912F0F7F
:100BE000892B8A2B8B2BA1F00E94390300912C0FAB
:100BF00010912D0F20912E0F30912F0F6C197D0920
:100C00008E099F09061717072807390708F442C0FD
:100C10008091BC0083FDD8CF85EC8093BC000E94FE
:100C200039036B017C0180912A0F823009F450C096
:100C30008091280F8F3F09F46FC08091280F803278
:100C400009F46CC08091280F803309F469C084E0F6
:100C500026C080912C0F90912D0FA0912E0FB09156
:100C60002F0F892B8A2B8B2B09F484CF0E943903F9
:100C700080902C0F90902D0FA0902E0FB0902F0FE2
:100C80006C197D098E099F0986169706A806B90674
:100C900008F070CF80912B0F0E94630585E01092C1
:100CA000310F1092530F1092300FDF91CF911F919F
:100CB0000F91FF90EF90DF90CF90BF90AF909F90FB
:100CC0008F9008959D9191938F5F69CF85EEA5CF09
:100CD00080912C0F90912D0FA0912E0FB0912F0F7E
:100CE000892B8A2B8B2B09F49ECF0E94390300910C
:100CF0002C0F10912D0F20912E0F30912F0F6C196A
:100D00007D098E099F09061717072807390708F07C
:100D10008ACFC0CF81E0C3CF80E0C1CF82E0BFCF18
:100D200083E0BDCF1F93CF93DF93162FCDEFDFE08E
:100D3000A981BA819B8121E02093300F9093520FBB
:100D40001092310F1092530FED91FC911197019079
:100D5000F081E02D682FCD01199589819A81DC0100
:100D6000ED91FC910190F081E02D612F199581E0CA
:100D7000DF91CF911F910C94A2052091830E260F35
:100D80003327331F21323105ECF420912A0FFC0167
:100D900090E080E0243069F082E00895A091830E15
:100DA0002191AC014D59514FA40FB52FB11D2C937A
:100DB0000196861798F38091830E680F6093830ED7
:100DC00080E0089581E008950895E091E30E809118
:100DD000E20EE81730F4F0E0EC51F14F808190E042
:100DE00008958FEF9FEF08959091E30E8091E20EAA
:100DF0002FEF3FEF981748F4E92FF0E0EC51F14F57
:100E0000208130E09F5F9093E30EC90108958091A7
:100E1000E20E9091E30E891B990B0895CF92DF9219
:100E2000EF92FF920F931F93CF93DF937C01CB013F
:100E30008A012091300F222389F0EB016B01C40E4F
:100E4000D51ECC15DD0569F06991D701ED91FC91B6
:100E50000190F081E02DC7011995F3CF642F0E9416
:100E6000BD06C801DF91CF911F910F91FF90EF90C8
:100E7000DF90CF900895CF93DF931F92CDB7DEB769
:100E800069832091300F2223F9F02091530F2032F3
:100E900058F021E030E0FC013383228390E080E0D1
:100EA0000F90DF91CF9108958091310FE82FF0E0FE
:100EB000EE5CF04F998190838F5F8093310F809328
:100EC000530F81E090E0ECCF61E0CE0101960E94EB
:100ED000BD06F7CF90E080E00895CF92DF92EF92C9
:100EE000FF920F931F93CF93DF93EC01EE81FF816D
:100EF00090818B81809589238083EA85FB85808121
:100F00009B81892B8083EC81FD8190818A818095F2
:100F100089238083E885F98580819A81892B808364
:100F200089899A89009711F00E942E03EA85FB8532
:100F300090818B818095892380838B89882331F0F0
:100F4000EE81FF8180819B81892B80838C8988231E
:100F5000C9F00E9491036B017C01EE85FF858081C1
:100F60009B81892379F40E9491036C197D098E0974
:100F70009F090D891E892F89388D60177107820797
:100F8000930758F389899A89009711F00E942E03DC
:100F9000E885F98590818A818095892380838B8972
:100FA000882331F0EC81FD8180819A81892B8083B7
:100FB00089899A89009751F0DF91CF911F910F9104
:100FC000FF90EF90DF90CF900C942E03DF91CF91A4
:100FD0001F910F91FF90EF90DF90CF900895CF93E6
:100FE000DF93EC01E885F98590818A8180958923DA
:100FF00080838B89882331F0EC81FD8180819A8107
:10100000892B8083EA85FB8590818B81809589235C
:1010100080838B89882331F0EE81FF8180819B81E1
:10102000892B808389899A89009711F00E942E0369
:10103000EC85FD8590818A819823EE85FF8520814E
:101040003B81232311F480E028C09923E1F3EC8154
:10105000FD819081809589238083E885F985808151
:101060009A81892B808389899A89009711F00E943F
:101070002E03EE81FF8190818B818095892380836F
:10108000EA85FB8580819B81892B808389899A8968
:10109000009711F00E942E0381E0DF91CF91089517
:1010A000CF92DF92EF92FF920F931F93CF93DF9334
:1010B000EC01E885F98590818A8180958923808378
:1010C0008B89882331F0EC81FD8180819A81892B85
:1010D0008083EA85FB8590818B818095892380833D
:1010E0008B89882331F0EE81FF8180819B81892B60
:1010F00080838C898823C9F00E9491036B017C0155
:10110000EE85FF8580819B81892379F40E9491037C
:101110006C197D098E099F090D891E892F89388DCB
:10112000601771078207930758F389899A89009796
:1011300011F00E942E03EC85FD8580819A81892320
:1011400011E009F410E0EE81FF8190818B818095A0
:1011500089238083EA85FB8580819B81892B80831D
:1011600089899A89009711F00E942E03812FDF91BF
:10117000CF911F910F91FF90EF90DF90CF90089546
:10118000CF92DF92EF92FF920F931F93CF93DF9353
:10119000EC018A81809561115EC0EC81FD819081B6
:1011A00089238083E885F98580819A81892B8083D2
:1011B00089899A89009711F00E942E03EA85FB85A0
:1011C00090818B818095892380838B89882331F05E
:1011D000EE81FF8180819B81892B80838C8988238C
:1011E000C9F00E9491036B017C01EE85FF8580812F
:1011F0009B81892379F40E9491036C197D098E09E2
:101200009F090D891E892F89388D60177107820704
:10121000930758F389899A89009711F00E942E0349
:10122000EE81FF8190818B81809589238083EA857F
:10123000FB8580819B81892B808389899A8900978E
:10124000B1F0DF91CF911F910F91FF90EF90DF9060
:10125000CF900C942E03E885F985908189238083B3
:101260008B89882309F4A4CFEC81FD819DCFDF9188
:10127000CF911F910F91FF90EF90DF90CF90089545
:101280000F931F93CF93DF938C01D62FC8E06D2F60
:101290006078C8010E94C008DD0FC150C1F7C801C5
:1012A000DF91CF911F910F910C945008CF93DF9352
:1012B000FC012089211106C0EC010E944009811126
:1012C00006C0188A81E090E0DF91CF91089582E016
:1012D000888BF8CF1F93CF93DF93EC01162F188ADA
:1012E0000E94EF07882379F0612F660FCE010E94DC
:1012F0004009811105C0188ADF91CF911F9108958F
:1013000082E0888BF9CF84E0FCCFFC019389138ABB
:10131000A085B1852C918281809582238C938389CD
:10132000882331F0A481B5818C912281822B8C930A
:10133000A285B3852C918381809582238C938389A8
:10134000882331F0A681B7818C912381822B8C93E5
:10135000938B08950F931F93CF93DF93CDB7DEB791
:10136000EB970FB6F894DEBF0FBECDBFDC011C9229
:101370008BEE90E014969C938E93139781E090E00F
:1013800012969C938E93119715966C9315971696BB
:101390004C93169769834A838C8B8D8B82E090E007
:1013A0009B8B8A8B08EE13E020E030E00E8B1F8BC6
:1013B000288F398F70E0FB01EF56FC4F2491655B5D
:1013C0007C4FFB0164916B8330E0220F331FF901E6
:1013D000EF5CFC4F859194919E838D83F901E95ECA
:1013E000FC4F859194919A878987F901E350FD4FCD
:1013F000859194919E878D8750E0FA01EF56FC4FBE
:101400002491455B5C4FFA0144914C8330E0220FFC
:10141000331FF901EF5CFC4F8591949198878F837E
:10142000F901E95EFC4F859194919C878B87F901C6
:10143000E350FD4F85919491988B8F878BE3FE014C
:101440003196179601900D928A95E1F7CE0101969B
:101450000E948509EB960FB6F894DEBF0FBECDBF94
:10146000DF91CF911F910F910895CF92DF92EF926C
:10147000FF92CF93DF93EC01603282E07807CCF5E6
:10148000653B710514F064EB70E0898128E830E079
:10149000281B310987FD3395220F331F220F331F7D
:1014A0006901330FEE08FF088A8128E532E0281B26
:1014B000310987FD3395220F331F220F331F032E6F
:1014C000000C440B550B2C193D094E095F09DB013B
:1014D00077FF02C0B0E0A0E00E94573224EB30E07A
:1014E00040E050E00E942D32C20ED31EE41EF51ED5
:1014F000B601E881E03370F5298188E890E0821B2D
:10150000910927FD9395880F991F880F991F6817D8
:1015100079077CF02A8188E592E0821B910927FDFA
:101520009395880F991F880F991F681779070CF4F6
:10153000CB010297880F991F4FB7F8942E2F30E0F8
:10154000F901EE0FFF1FE20FF31FEE52F24F9283ED
:1015500081834FBFDF91CF91FF90EF90DF90CF90CD
:1015600008951F93CF93DF93EC01162F888180336A
:1015700008F04EC061E0812F0E94FD028881282F73
:1015800030E0F901EE0FFF1FE20FF31FEE52F24FB2
:101590001F736081607C612B608319821A822CE04A
:1015A000622F0E94F735829FB001112430E020E0C5
:1015B000AB01420F531FFA01EE0FFF1FE40FF51F9F
:1015C000EE52F24F908196FD16C02F5F3F4F2C30A8
:1015D000310571F7813009F51092800082E0809327
:1015E00081001092850010928400B19A80916F0062
:1015F000826080936F00E8818E2F90E0FC01EE0FF7
:10160000FF1FE80FF91FEE52F24F80818064808344
:101610008881DF91CF911F910895823061F41092FB
:10162000900080939100109295001092940088BBD6
:1016300080937100E0CF833069F41092A00082E0C3
:101640008093A1001092A5001092A40089BB809302
:101650007200D1CF8111CFCF1092200182E0809310
:10166000210110922501109224018ABB80937300FE
:10167000C2CFFC019091D10D903398F481E0890F95
:101680008093D10D9083892F90E0FC01EE0FFF1F16
:10169000E80FF91FEE52F24F88EB9BE092838183B3
:1016A00008958FEF80830895AF92BF92CF92DF921B
:1016B000EF92FF920F931F93CF93DF936B017A0109
:1016C000EC01C353D24F28813CE0389F8001399F01
:1016D000100D1124A090D10DB12C27FF1FC0FB01CC
:1016E0001182108288818F5F888388819801280FFA
:1016F000311D87FD3A95F6012A153B051CF48881BA
:101700008C30C4F180819181049680349C4908F426
:1017100073C0F60180819181049670C08881980120
:10172000280F311D87FD3A952A153B05DCF6888187
:10173000A801480F511D87FD5A95FA01EE0FFF1FB2
:10174000E40FF51FEE52F24F808186FFCBCF8881E8
:10175000F801E80FF11D87FDFA95CF01EE0FFF1F8D
:10176000E80FF91FEE52F24F808160E08F730E9404
:10177000CF02B8CF808191812881A801420F511DED
:1017800027FD5A959A01FA01EE0FFF1FE20FF31F92
:10179000EE52F24F21813281820F931FF701918324
:1017A000808388819801280F311D87FD3A95F901C2
:1017B000EE0FFF1FE20FF31FEE52F24F808186FF04
:1017C00022C08881080F111D87FD1A95F801EE0FC0
:1017D000FF1FE00FF11FEE52F24F808161E08F7327
:1017E000DF91CF911F910F91FF90EF90DF90CF90FD
:1017F000BF90AF900C94CF0280E49CE9F7019183F5
:1018000080838FEF8883DF91CF911F910F91FF909D
:10181000EF90DF90CF90BF90AF900895EF92FF923E
:101820000F931F93CF93DF93C3E1D2E003EC1DE04E
:10183000299139913327F901E954FD4F8491F90138
:10184000E55BFC4FE490F901EF56FC4FF490FF206C
:1018500021F181110E946802EF2DF0E0EE0FFF1FD1
:10186000E350FD4FA591B491EC91EE2231E020E0E0
:1018700009F430E0832F922FF801819391938F0127
:10188000F2E0CD31DF07A1F683EC9DE0DF91CF914F
:101890001F910F91FF90EF90089590E080E0ECCFC2
:1018A0002F923F924F925F926F927F928F929F9270
:1018B000AF92BF92CF92DF92EF92FF920F931F935E
:1018C000CF93DF9300D000D01F92CDB7DEB77D83DA
:1018D0006C83312C212C88248A94982C54016C011F
:1018E000990FEE08FF0801EB13E02A01550F660877
:1018F000770880910002803239F5ECE7F2E0F4914C
:10190000FE83F7FD70C061E080E20E94FD02FE816F
:10191000F11139C0C982DA82EB82FF8268E478EE85
:1019200081E090E029813A814B815F810E942D32D4
:10193000BA01A90141505109610971099E81992398
:1019400009F4CEC194E03DC08F3F09F04CC080E265
:1019500080930002ECE7F2E0F491FE838F2FFF3FCB
:1019600009F441C0F23009F4C8C008F069C0FF238F
:1019700009F48DC0F13009F4A2C087FD34C061E0E4
:1019800080E20E94FD028E81823009F016C1C98278
:10199000DA82EB82FF8260E970ED83E090E0A701DC
:1019A00096010E942D32BA01A901415051096109E5
:1019B000710993E04F3F51056105710511F00CF07D
:1019C000ADCF8091B100887F892B8093B100EE81EB
:1019D000E23009F475C10CF06BC1EE2309F484C147
:1019E000E13009F401C1C301B2010E945E0380E24B
:1019F0000E949D03C301B2010E945E038FEF281A6B
:101A0000380AEC81FD81E215F30509F072CF2796C3
:101A10000FB6F894DEBF0FBECDBFDF91CF911F91FF
:101A20000F91FF90EF90DF90CF90BF90AF909F907D
:101A30008F907F906F905F904F903F902F90089580
:101A40009E81943009F49BC008F479C0953009F068
:101A500094CF109220011092210180912101886081
:101A60008093210180912101816080932101F801FF
:101A70008491E82FF0E0EE0FFF1FEF5CFC4F8591A3
:101A80009491EBE6F3E084918093AA0D3CCF14BCD3
:101A900015BC84B5826084BD85B5816085BDF801C3
:101AA0008491E82FF0E0EE0FFF1FEF5CFC4F859173
:101AB0009491EBE6F3E084918093AE0D24CF1092E5
:101AC0008000109281008091810088608093810065
:101AD00080918100816080938100F8018491E82FDA
:101AE000F0E0EE0FFF1FEF5CFC4F85919491EBE669
:101AF000F3E084918093AD0D06CF1092B000109268
:101B0000B1008091B00082608093B0008091B100FC
:101B100081608093B100F8018491E82FF0E0EE0F2E
:101B2000FF1FEF5CFC4F859194919093A70E8093DB
:101B3000A60EEBE6F3E084918093A80EE4CE10921B
:101B400090001092910080919100886080939100A4
:101B500080919100816080939100F8018491E82F39
:101B6000F0E0EE0FFF1FEF5CFC4F85919491EBE6E8
:101B7000F3E084918093AC0DF3E0FE83C4CE109229
:101B8000A0001092A1008091A10088608093A10024
:101B90008091A10081608093A100F8018491E82FD9
:101BA000F0E0EE0FFF1FEF5CFC4F85919491EBE6A8
:101BB000F3E084918093AB0DA6CE60E072E18AE7FA
:101BC00090E0A70196010E942D32BA01A90141506F
:101BD000510961097109EE81E130C1F48091810000
:101BE000887F8160809381005093890040938800B2
:101BF0008092BB0D9092BC0DA092BD0DB092BE0D17
:101C000080916F00826080936F00EDCEFE81F33093
:101C1000C1F480919100887F8160809391005093FE
:101C20009900409398008092B70D9092B80DA092C1
:101C3000B90DB092BA0D80917100826080937100ED
:101C4000D2CE8E818430C1F48091A100887F8160E2
:101C50008093A1005093A9004093A8008092B30DF7
:101C60009092B40DA092B50DB092B60D8091720015
:101C7000826080937200B7CE9E81953009F0A7CE26
:101C800080912101887F81608093210150932901F7
:101C9000409328018092AF0D9092B00DA092B10DAB
:101CA000B092B20D809173008260809373009BCEDE
:101CB000FE81F43079F20CF4B2CFF53039F393CEE3
:101CC0004093B3008092A90E9092AA0EA092AB0E00
:101CD000B092AC0E8091700082608093700083CED1
:101CE00085B5887F836085BD47BD8092BF0D90928A
:101CF000C00DA092C10DB092C20D80916E008260A5
:101D000080936E0070CE7F928F929F92AF92BF921F
:101D1000CF92DF92EF92FF920F931F93CF93DF93B7
:101D2000EC01062F142F188A19AE1AAE0E94EF0785
:101D3000882309F457C0602F660F6160CE010E94AE
:101D4000400981114BC0188A7E01A12EB12CD12CE3
:101D5000C12C450181E0881A9108CA14DB0459F1AD
:101D600000E088E0782EC814D904DCF4000FCE011E
:101D70000E945008082B7A947110F8CF60E0CE01D1
:101D80000E94C00889899A89009711F00E942E0349
:101D9000F701018FFFEFCF1ADF0A8FEFE81AF80A79
:101DA000DCCF000FCE010E945008082B7A947110EE
:101DB000F8CF61E0E4CF19AFCE010E946D07812F0B
:101DC000DF91CF911F910F91FF90EF90DF90CF9017
:101DD000BF90AF909F908F907F90089582E0888B06
:101DE00010E0EACF84E0FBCF4F925F926F927F9238
:101DF0008F929F92AF92BF92CF92DF92EF92FF921B
:101E00000F931F93CF93DF93CDB7DEB72E970FB607
:101E1000F894DEBF0FBECDBF8091FE0F9091FF0FF3
:101E20002091001031E03093300F2093520F109228
:101E3000310F1092530FDC01ED91FC910190F08174
:101E4000E02D6BE3199580E00E94A205109100102F
:101E50000E9439034B015C0180912A0F811166C0F9
:101E600081E080932A0F8093290F9FEF9093280F92
:101E70001092270F9DE09093260F8093050F80917D
:101E8000050F110F182B1093050F8091040F81304F
:101E900009F0A9C11092040F0E9439034B015C01A3
:101EA0008091050F8093BB0080912C0F90912D0F96
:101EB000A0912E0FB0912F0F892B8A2B8B2BA1F085
:101EC0000E94390300912C0F10912D0F20912E0F9D
:101ED00030912F0F681979098A099B09061717078E
:101EE0002807390708F443C08091BC0083FDD8CF90
:101EF00085EC8093BC000E9439034B015C0180910A
:101F00002A0F813009F471C18091270F8E3008F0BB
:101F10008EC18091270FA6E0BFE0E4EEFEE090E0E6
:101F2000981751F12D9121939F5FFACF80912C0F3B
:101F300090912D0FA0912E0FB0912F0F892B8A2BEE
:101F40008B2B09F489CF0E94390340902C0F5090BD
:101F50002D0F60902E0F70902F0F681979098A0944
:101F60009B09461657066806790608F075CF8091DA
:101F70002B0F0E94630580E01092E30E8093E20E27
:101F80008E010F5F1F4F6E01BFE0CB0ED11C809101
:101F9000FE0F9091FF0FDC01ED91FC910284F3851F
:101FA000E02D1995B82E8091FE0F9091FF0FDC0166
:101FB000ED91FC910284F385E02D1995E12C8E2999
:101FC0009B29F801819391938F01CE16DF06F9F6D4
:101FD000C0900510D0900610E0900710F090081007
:101FE00069817A81072E000C880B990B0E94F730CB
:101FF000A70196010E946F332091151030911610A1
:1020000040911710509118100E9490326093251043
:102010007093261080932710909328106B817C81F9
:10202000072E000C880B990B0E94F730A701960130
:102030000E946F332091191030911A1040911B109B
:1020400050911C100E9490326093291070932A10B6
:1020500080932B1090932C108091FD0F61E06827E6
:10206000681B770B072E000C880B990B0E94F7302A
:102070004B015C016D817E81072E000C880B990B52
:102080000E94F7309B01AC01C501B4010E9456319A
:10209000A70196010E946F3320911D1030911E10F0
:1020A00040911F10509120100E94903260932D108B
:1020B00070932E1080932F10909330106F8178853D
:1020C000072E000C880B990B0E94F73020E030EFB0
:1020D00041E456E40E94913220E030E04AEA53E4C1
:1020E0000E946F336093211070932210809323100D
:1020F00090932410C0900110D0900210E090031033
:10210000F090041069857A85072E000C880B990BD6
:102110000E94F730A70196010E946F3320910910A9
:1021200030910A1040910B1050910C100E94903287
:102130006093311070933210809333109093341069
:102140006B857C85072E000C880B990B0E94F7305D
:10215000A70196010E946F3320910D1030910E104F
:1021600040910F10509110100E94903260933510E2
:102170007093361080933710909338106D857E855C
:10218000072E000C880B990B0E94F730A7019601CF
:102190000E946F3320911110309112104091131052
:1021A000509114100E9490326093391070933A103D
:1021B00080933B1090933C102E960FB6F894DEBFA0
:1021C0000FBECDBFDF91CF911F910F91FF90EF9088
:1021D000DF90CF90BF90AF909F908F907F906F9047
:1021E0005F904F90089585EE84CE80912C0F909152
:1021F0002D0FA0912E0FB0912F0F892B8A2B8B2B97
:1022000009F47DCE0E94390300912C0F10912D0FFF
:1022100020912E0F30912F0F681979098A099B0997
:10222000061717072807390708F069CEA0CE8EE0F9
:1022300072CEFF920F931F93CF93DF93EC01F62E94
:102240008C01095F1F4F69E2C8010E946A096F2D66
:102250006068C8010E945609C8010E946D0742E0EB
:1022600069E2C8010E94830EFE01E05CFF4F80819D
:10227000319690812FEF3FEF981740F4DE01A90FC0
:10228000B11D90962C9130E09F5F908390814FEF2D
:102290005FEF981728F4C90FD11D48A19F5F908365
:1022A00080E0942F822B932BDF91CF911F910F9180
:1022B000FF9008950F931F93CF93DF93162F022F54
:1022C000EC01279669E2CE010E946A09612F6068DD
:1022D000CE010E945609602FCE010E945609CE0100
:1022E000DF91CF911F910F910C946D07FC0101902C
:1022F0000020E9F73197AF01481B590BBC0184E579
:102300009FE00C94E20381E492E00C9476118F92AA
:102310009F92AF92BF920F931F93CF93DF93CDB74E
:10232000DEB7A1970FB6F894DEBF0FBECDBF19A2DE
:10233000423008F44AE08E010F5D1F4F842E912C2D
:10234000B12CA12CA50194010E945F32E62FB901A6
:10235000CA01EA30F4F4E05DD801EE938D01232B3D
:10236000242B252B79F790E080E0109719F0CD0110
:102370000E947611A1960FB6F894DEBF0FBECDBFB6
:10238000DF91CF911F910F91BF90AF909F908F9051
:102390000895E95CE1CFBC0190E080E04AE00C9454
:1023A0008711CF93DF930E94CB11EC010E94831120
:1023B0008C0F9D1FDF91CF910895CF92DF92EF9206
:1023C000FF92CF93DF936C01990FEE08FF08F7FEA1
:1023D00019C06DE284E59FE00E94AA04EC01662723
:1023E0007727CB016C197D098E099F094AE00E946D
:1023F00087118C0F9D1FDF91CF91FF90EF90DF90A1
:10240000CF9008954AE0C701B601DF91CF91FF90C8
:10241000EF90DF90CF900C948711CF93DF930E94C1
:10242000DD11EC010E9483118C0F9D1FDF91CF9174
:102430000895BF92CF92DF92EF92FF920F931F9376
:10244000CF93DF93EC016C0187E0C80ED11C7E01B5
:10245000E0E4EE0EF11CF70110828E010F5B1F4FBE
:10246000F8011082E989FA8990818A85809589230B
:1024700080838A8D882331F0ED85FE8580819A8561
:10248000892B8083888D998D009711F00E942E03EF
:10249000EF85F889908189858095892380838A8D4D
:1024A000882331F0EB85FC8580819985892B808399
:1024B00084E0B82E888D998D009711F00E942E032C
:1024C000BA94B110F7CF8A8D882331F062E070E0C2
:1024D00080E090E00E945E0369E2C6010E946A0902
:1024E00062E9C6010E945609C6010E946D0741E0DB
:1024F00069E2C6010E94830EF8012081F701808104
:10250000281708F053C0FE01E20FF11D80A12F5FD4
:10251000F8012083182F682F70E090E080E040E100
:102520000E9487110E94831180E01434A9F581E094
:1025300088830B811C81980150E040E061E0CE016E
:102540000E945A111C830B8309811A818881811191
:1025500003C0CE010E941912980150E040E06FE0E4
:10256000CE010E945A111A83098321E030E040E035
:1025700050E060E0CE010E945A1163E070E080E01C
:1025800090E00E945E0323E030E040E050E060E035
:10259000CE010E945A1181E0DF91CF911F910F91DE
:1025A000FF90EF90DF90CF90BF9008958FEF9FEF57
:1025B000B1CFAF92BF92CF92DF92EF92FF920F9383
:1025C0001F93CF93DF93EC015B016A01790188814E
:1025D000811103C0CE010E94191264E1CE010E9454
:1025E0001911F8019183808366E1CE010E941911CF
:1025F000F5019183808368E1CE010E941911F601F3
:10260000918380836AE1CE010E941911F7019183C1
:1026100080838B819C81853D9105A1F180F4009799
:10262000D9F1803C910599F1DF91CF911F910F91E4
:10263000FF90EF90DF90CF90BF90AF900895863FCE
:102640009105D9F08F3F910541F08B3E910561F7DF
:1026500062E370E080E090E004C063E070E080E05E
:1026600090E0DF91CF911F910F91FF90EF90DF905D
:10267000CF90BF90AF900C945E0368E170E080E073
:1026800090E0EFCF65E670E080E090E0EACF6AE9A5
:1026900070E080E090E0E5CF6CEB72E080E090E0ED
:1026A000E0CFCF93DF930E947611EC010E9483115B
:1026B0008C0F9D1FDF91CF91089584E492E00E94DA
:1026C000511381E692E00E94511389E792E00E9443
:1026D000511381E992E00E94511389EA92E00E942D
:1026E00051138FEB92E00E94511385ED92E00E940E
:1026F000511383EF92E00E94511380E193E00E9416
:10270000511386E293E00E94511387E493E00C9406
:10271000511360EA70E085E690E10E94350A64E1B9
:1027200070E082E690E10E94350A84E693E00C9422
:1027300051130C9476110F931F9309EB1EE02BEBB2
:102740003EE04DEB5EE06FEB7EE08AEA90E10E94B6
:10275000D9124091BB0E5091BC0E6091BD0E70918C
:10276000BE0E8091BF0E9091C00E0E9421029093E8
:10277000B80E8093B70E0FEA1EE021EB3EE043EB6C
:102780005EE065EB7EE088E690E10E94D912409120
:10279000B10E5091B20E6091B30E7091B40E809153
:1027A000B50E9091B60E0E9421029093AE0E8093CA
:1027B000AD0E87E793E00E9451138BE893E00E94EF
:1027C00099138091B70E9091B80E0E94CB1181E9B8
:1027D00093E00E94991386ED99E00E9499138091ED
:1027E000BF0E9091C00E0E94CB1183E993E00E942E
:1027F00099138DED99E00E9499138091BD0E9091EF
:10280000BE0E0E94CB1183E993E00E94991384EEDF
:1028100099E00E9499138091BB0E9091BC0E0E948A
:10282000CB1183E993E00E9499138BEE99E00E940B
:1028300099138091B90E9091BA0E0E94CB1183E941
:1028400093E00E94991383E993E00E94511385E974
:1028500093E00E9451138BE893E00E9499138091BA
:10286000AD0E9091AE0E0E94CB1181E993E00E94D3
:10287000991386ED99E00E9499138091B50E90917D
:10288000B60E0E94CB1183E993E00E9499138DED5F
:1028900099E00E9499138091B30E9091B40E0E941A
:1028A000CB1183E993E00E94991384EE99E00E9492
:1028B00099138091B10E9091B20E0E94CB1183E9D1
:1028C00093E00E9499138BEE99E00E9499138091F6
:1028D000AF0E9091B00E0E94CB1183E993E00E945D
:1028E000991383E993E00E9451138AEA93E00E94CE
:1028F000511384EC93E00E9499138091B30E909150
:10290000B40E2091B50E3091B60E821B930B0E942F
:10291000D1118DEC93E00E9499138091B30E9091A8
:10292000B40E2091B10E3091B20E821B930B0E9417
:10293000D11186ED93E00E94511384EC93E00E9444
:1029400099138091BD0E9091BE0E2091BF0E3091D3
:10295000C00E821B930B0E94D1118DEC93E00E945C
:1029600099138091BD0E9091BE0E2091BB0E3091B7
:10297000BC0E821B930B0E94D11164EF71E080E0CA
:1029800090E00E945E031F910F9108954F925F9215
:102990006F927F928F929F92AF92BF92CF92DF926F
:1029A000EF92FF920F931F93CF936B017C01742ED4
:1029B000AC019B010E94E534882399F08FEE93E0EF
:1029C000CF911F910F91FF90EF90DF90CF90BF902C
:1029D000AF909F908F907F906F905F904F900C94EE
:1029E000761146015701E894B7F82FEF3FEF4FE714
:1029F0005FE7C501B4010E94E53481110DC02FEFDE
:102A00003FEF4FE75FE7C501B4010E94F0301816B1
:102A10001CF483EF93E0D4CF2FEF3FEF4FE75FE459
:102A2000C701B6010E943E3418161CF487EF93E0EC
:102A3000C7CF2FEF3FEF4FE75FECC701B6010E9412
:102A4000F03087FDF3CF20E030E0A901C701B601E7
:102A50000E94F03010E000E087FF0AC06DE284E5DC
:102A60009FE00E94AA048C01F7FAF094F7F8F09422
:102A7000C0E060E070E080E09FE37C1641F020E081
:102A800030E040E251E40E946F33CF5FF6CFA70100
:102A900096010E9491322B013C010E94E8334B01C8
:102AA0005C014AE00E9487117C01E00EF11ECC23FC
:102AB000A9F1C501B4010E94F5309B01AC01C3012D
:102AC000B2010E9490324B015C016EE284E59FE00E
:102AD0000E94AA04E80EF91EC15000F120E030E087
:102AE00040E251E4C501B4010E9456312B013C0182
:102AF0000E94E8334B01CB010E94CB11E80EF91E76
:102B0000B40190E080E00E94F5309B01AC01C3016C
:102B1000B2010E9490324B015C01DECFC701CF9120
:102B20001F910F91FF90EF90DF90CF90BF90AF90EB
:102B30009F908F907F906F905F904F9008954F92ED
:102B40005F926F927F928F929F92AF92BF92CF923D
:102B5000DF92EF92FF920F931F93CF93DF93CDB746
:102B6000DEB72C970FB6F894DEBF0FBECDBF0E9424
:102B7000F40EC0902D10D0902E10E0902F10F090F9
:102B8000301021E030E03A83298320E030E0A901D1
:102B9000C701B6010E943E3487FF02C01A82198223
:102BA00001E010E020E030E0A901C701B6010E9479
:102BB000F03087FD02C010E000E069817A81601B7F
:102BC000710B072E000C880B990B0E94F7306D8358
:102BD0007E838F839887A7019601C701B6010E9463
:102BE00056312B013C01C0902510D0902610E0906A
:102BF0002710F0902810A7019601C701B6010E9486
:102C00005631A30192010E9491320E94A1349B018E
:102C1000AC018090291090902A10A0902B10B090B9
:102C20002C106D817E818F8198850E9456319B0189
:102C3000AC01C501B4010E94103321EE3EE245E62D
:102C400052E40E94563160933D1070933E10809381
:102C50003F1090934010A5019401C501B4010E945A
:102C60005631A30192010E9491320E94A1349B012E
:102C7000AC01C701B6010E941033905821EE3EE22C
:102C800045E652E40E945631609341107093421021
:102C900080934310909344100E9491036B017C0138
:102CA0008091511090915210A0915310B0915410F6
:102CB000A7019601281B390B4A0B5B0BCA01B9010E
:102CC0000E94F5302FE632E143E85AE30E94563184
:102CD0004B015C01C0925110D0925210E0925310FF
:102CE000F09254108091551090915610A091571069
:102CF000B091581089839A83AB83BC8340903D1078
:102D000050903E1060903F10709040102091311014
:102D1000309132104091331050913410C501B401FC
:102D20000E94563120914510309146104091471035
:102D3000509148100E949132A30192010E9490325A
:102D40006B017C0120E030E044E353E40E943E3418
:102D500018163CF420E030E044EB53E4C701B60120
:102D6000EDCF20E030E044E353ECC701B6010E9410
:102D7000F03087FF0BC020E030E044EB53E4C701A4
:102D8000B6010E9491326B017C01EBCF29813A811F
:102D90004B815C8160E070E080E89FE30E949032AC
:102DA00069877A878B879C87A7019601C301B20147
:102DB0000E94913229813A814B815C810E94563177
:102DC0006B017C0129853A854B855C85C301B20185
:102DD0000E9456319B01AC01C701B6010E9491329D
:102DE0006B017C0120E030E044E353E40E943E3478
:102DF00018164CF420E030E044EB53E4C701B60170
:102E00000E949032EDCF20E030E044E353ECC70164
:102E1000B6010E94F03087FF0BC020E030E044EBA9
:102E200053E4C701B6010E9491326B017C01EBCFE4
:102E3000C0924510D0924610E0924710F092481090
:102E40004090411050904210609043107090441098
:102E50002091351030913610409137105091381034
:102E60006D817E818F8198850E945631A5019401E4
:102E70000E9456312091491030914A1040914B10D8
:102E800050914C100E949132A30192010E94903205
:102E90006B017C0120E030E044EB52E40E943E34C0
:102EA00018163CF420E030E044E353E4C701B601D7
:102EB000EDCF20E030E044EB52ECC701B6010E94B8
:102EC000F03087FF0BC020E030E044E353E4C7015B
:102ED000B6010E9491326B017C01EBCFA7019601F4
:102EE000C301B2010E94913229813A814B815C81F8
:102EF0000E9456316B017C01A301920169857A859C
:102F00008B859C850E9456319B01AC01C701B6019F
:102F10000E9491326B017C0120E030E044EB52E4EE
:102F20000E943E3418164CF420E030E044E353E4B1
:102F3000C701B6010E949032EDCF20E030E044EBB3
:102F400052ECC701B6010E94F03087FF0BC020E0B1
:102F500030E044E353E4C701B6010E9491326B01B3
:102F60007C01EBCFC0924910D0924A10E0924B10F6
:102F7000F0924C102091391030913A1040913B1052
:102F800050913C10C501B4010E94563120914D1062
:102F900030914E1040914F10509150100E9491323C
:102FA00060934D1070934E1080934F10909350107B
:102FB0002C960FB6F894DEBF0FBECDBFDF91CF9138
:102FC0001F910F91FF90EF90DF90CF90BF90AF9047
:102FD0009F908F907F906F905F904F9008950E9488
:102FE0009F1560914D1070914E1080914F109091EF
:102FF00050100E94E133CB010895EF92FF920F939E
:103000001F93CF93DF938BEF93E00E94511368E7F8
:1030100070E085E690E10E94350A6CE370E082E69C
:1030200090E10E94350A0E949F1566E970E080E0F9
:1030300090E00E945E036AE570E085E690E10E9400
:10304000350A6AE570E082E690E10E94350A09EBF4
:103050001EE02BEB3EE04DEB5EE06FEB7EE08AEA9C
:1030600090E10E94D9124091BB0E5091BC0E60912C
:10307000BD0E7091BE0E8091BF0E9091C00E0E9449
:1030800021029093B80E8093B70E0FEA1EE021EB59
:103090003EE043EB5EE065EB7EE088E690E10E9477
:1030A000D912E090B10EF090B20EC091B30ED09153
:1030B000B40E0091B50E1091B60EA701BE01C80165
:1030C0000E942102FC019093AE0E8093AD0E4091C0
:1030D000B90E5091BA0E6091AF0E7091B00E493E8C
:1030E00083E058072CF0693E83E078070CF033C189
:1030F0002091BD0E3091BE0E8091BF0E9091C00EFA
:103100008217930788F5A091BB0EB091BC0EA21751
:10311000B30750F5281B390B8091010290910202F0
:103120008217930708F580910502909106024817CF
:103130005907D4F0809103029091040284179507F7
:103140009CF08091B70E9091B80E209109023091B9
:103150000A028217930744F021E0A0910702B09180
:103160000802A817B9070CF420E00C171D0748F552
:10317000EC16FD0630F5C01BD10B80910102909139
:1031800002028C179D07E8F48091050290910602D7
:1031900068177907B4F080910302909104028617B2
:1031A00097077CF08091090290910A02E817F907CD
:1031B00044F091E0A0910702B0910802AE17BF075A
:1031C0000CF490E0461B570B57FF03C051954195F7
:1031D0005109443651050CF053C0222309F4DBC0D9
:1031E000992309F450C086E094E00E9499138AE183
:1031F00094E00E9499138091D20E9091D30E0E9478
:10320000DD118BE89DE00E9499130E94EF170E9448
:103210000D1262E370E085E690E10E94350A62E3F8
:1032200070E082E690E10E94350A44E650E063E0F7
:1032300070E088EE93E00E94500CC091D20ED091C5
:10324000D30ECF5AD1090E94EF178C179D070CF4AB
:103250005EC00E949F158BE294E00E9499130E9429
:10326000EF170E94DD1188E594E00E949913809188
:10327000D20E9091D30E8F5A91090E940D12DDCF7C
:10328000222309F488C084E694E00E94511368E781
:1032900070E085E690E10E94350A6CE370E082E61A
:1032A00090E10E94350A60E070E0CB010E945E036D
:1032B0006CE370E085E690E10E94350A6CE370E013
:1032C00082E690E10E94350AC091D20ED091D30ED1
:1032D000CA55D1090E94EF17C817D9070CF042C090
:1032E0000E949F1586E794E00E9499130E94EF17B1
:1032F0000E94DD1188E594E00E9499138091D20E1E
:103300009091D30E8A5591090E940D12DDCF68E786
:1033100070E085E690E10E94350A6CE370E082E699
:1033200090E10E94350A60ED77E080E090E00E9435
:103330005E038091D20E9091D30E8F5A9109909393
:10334000D30E8093D20E1092CC0E1092CD0E10920E
:10335000CE0E1092CF0EDF91CF911F910F91FF9063
:10336000EF90089568E770E085E690E10E94350AE5
:103370006CE370E082E690E10E94350A60ED77E050
:1033800080E090E00E945E038091D20E9091D30E77
:103390008A559109D4CF9923F1F28CEA94E00E94E6
:1033A000511368E770E085E690E10E94350A6CE30E
:1033B00070E082E690E10E94350A60E070E0CB01A7
:1033C0000E945E030E94EF179093D30E8093D20E5B
:1033D00068E770E085E690E10E94350A68E770E0F2
:1033E00082E690E10E94350AC091D20ED091D30EB0
:1033F000C65ADF4F0E94EF178C179D07BCF40E943E
:103400009F158FEB94E00E9499130E94EF170E9482
:10341000DD1188E594E00E9499138091D20E90917D
:10342000D30E865A9F4F0E940D12DECF68E770E0E0
:1034300085E690E10E94350A6CE370E082E690E157
:103440000E94350A60ED77E080E090E00E945E0324
:103450008091D20E9091D30E865A9F4F70CF0F93CA
:103460001F93CF93DF93EC0188819981009759F0E6
:103470002A813B812617370730F081E0DF91CF9119
:103480001F910F9108958B016F5F7F4F0E945F37EF
:10349000009759F0998388831B830A832C813D818F
:1034A000232B59F7FC011082E8CF80E0E7CFCF92C1
:1034B000DF92EF92FF92CF93DF93CDB7DEB7E29723
:1034C0000FB6F894DEBF0FBECDBFDC01AE014D5C80
:1034D0005F4FFE0131969C91963308F096532091F0
:1034E0007B00892F8870277F822B80937B0020911F
:1034F0000C0280E4289F900111249770922B9093E6
:103500007C0090917A00906490937A0080917A0088
:1035100086FDFCCF80917800909179008193919302
:103520004E175F07C1F628E130E0FE01319650E00A
:1035300040E081E04217530784F4E080F180C280CC
:10354000D380CE14DF042CF4D182C082F382E282D5
:1035500080E04F5F5F4F3296EDCF811103C0215065
:10356000310919F712968D919D910D90BC91A02D66
:10357000883324E09207A105B10591F5A98DBA8D94
:1035800028E833E10E941F362FEF33E040E050E09F
:103590000E942D32CA01B9010E94F73020E030E0CC
:1035A0004AE754E40E946F332EE03DE24AE95FEBC4
:1035B0000E944B3422EF32ED4DED51E40E94563122
:1035C0000E94E133CB01E2960FB6F894DEBF0FBE46
:1035D000CDBFDF91CF91FF90EF90DF90CF90089516
:1035E000863B2EE49207A105B10509F5A98DBA8D98
:1035F00028E833E10E941F362FEF33E040E050E02F
:103600000E942D32CA01B9010E94F73020E030E05B
:103610004AE754E40E946F3321EE3AE744E95FEB56
:103620000E944B342AEF3EE741E752E4C7CF8E3A7F
:1036300021E09207A105B10509F5A98DBA8D28E809
:1036400033E10E941F362FEF33E040E050E00E944C
:103650002D32CA01B9010E94F73020E030E04AE77C
:1036600054E40E946F332BE83CE647E85FEB0E948E
:103670004B342EEA37E441E451E4A0CF8439984832
:10368000A140B10509F09ECFA98DBA8D28E833E19C
:103690000E941F362FEF33E040E050E00E942D32B1
:1036A000CA01B9010E94F7306B017C0120E030E0D3
:1036B0004FEA54E40E94F03087FD27C020E030E458
:1036C0004EE455E4C701B6010E943E341816ECF0F2
:1036D00020E030EA4CE854E4C701B6010E94903281
:1036E00020E030E04AE754E40E946F3320E030E805
:1036F00049E053E40E946F339B01AC0160E070E04D
:1037000080E89FE30E946F335BCF70E060E05ACFA8
:10371000CF92DF92EF92FF920F931F93CF93DF939D
:1037200009EB1EE02BEB3EE04DEB5EE06FEB7EE045
:103730008AEA90E10E94D9124091BB0E5091BC0ED2
:103740006091BD0E7091BE0E8091BF0E9091C00E23
:103750000E9421029093B80E8093B70E0FEA1EE0EC
:1037600021EB3EE043EB5EE065EB7EE088E690E136
:103770000E94D912E090B10EF090B20E0091B30EFB
:103780001091B40EC091B50ED091B60EA701B8013C
:10379000CE010E9421029093AE0E8093AD0EE09177
:1037A000B90EF091BA0E4091AF0E5091B00E6091EB
:1037B000B70E7091B80E2091BF0E3091C00EA0913F
:1037C000BD0EB091BE0EA217B307B8F4C090BB0EE9
:1037D000D090BC0EC216D30680F42A1B3B0B2932B4
:1037E000310558F0E059F140EB3FF10530F46456F3
:1037F00071096333710508F405C20C171D0708F041
:1038000039C120E0EC16FD0608F403C233C16AE5B5
:1038100070E082E690E10E94350A6AE570E085E694
:1038200090E10E94350A8CEE90E10E94571AEC015B
:1038300082EF90E10E94571A8C179D070CF0C9C0C7
:1038400085EB94E00E94511368E770E085E690E113
:103850000E94350A68E770E082E690E10E94350A2E
:10386000C091D20ED091D30EC65ADF4F0E94EF17EF
:10387000C817D907ECF00E949F150E940E0C909378
:10388000D70E8093D60E87EC94E00E9499130E9485
:10389000EF170E94DD1188E594E00E949913809152
:1038A000D20E9091D30E865A9F4F0E940D12D8CF00
:1038B0008091D20E9091D30E865A9F4F9093D30E43
:1038C0008093D20E6AE570E082E690E10E94350AAC
:1038D0006AE570E085E690E10E94350A8EE895E0A1
:1038E0000E94511365E570E08CE590E10E94350A75
:1038F00065E570E089E590E10E94350A68EE73E0C5
:1039000080E090E00E945E0368EE73E080E090E06B
:103910000E945E038DE995E00E9451136AE570E014
:103920008FE590E10E94350A60ED77E080E090E05D
:103930000E945E0368EE73E080E090E00E945E0308
:10394000E0915C108E2F90E0FC01EE0FFF1FE80F5E
:10395000F91FEE52F24F80818F7B8083E0915910E6
:103960008E2F90E0FC01EE0FFF1FE80FF91FEE52C3
:10397000F24F80818F7B808368E770E082E690E180
:103980000E94350A6CE370E085E690E10E94350AFA
:1039900068EB7BE080E090E00E945E030E94EF17FE
:1039A0009093D30E8093D20E6AE570E082E690E1A8
:1039B0000E94350A6AE570E085E690E10E94350ACA
:1039C00044EF51E061E070E088EE93E00E94500C1B
:1039D000EBCFC817D9070CF081CF8DE694E00E9499
:1039E00051136CE370E085E690E10E94350A6CE3C8
:1039F00070E082E690E10E94350AC091D20ED0912B
:103A0000D30ECA55D1090E94EF178C179D07ECF011
:103A10000E949F150E940E0C9093D70E8093D60E95
:103A20008EE794E00E9499130E94EF170E94DD1127
:103A300088E594E00E9499138091D20E9091D30E64
:103A40008A5591090E940D12D8CF8091D20E909183
:103A5000D30E8A55910932CF88EA95E0DF91CF9154
:103A60001F910F91FF90EF90DF90CF900C94511326
:103A70002111DFC08EE195E00E9451132091AF0E1D
:103A80003091B00E4091B70E5091B80E8091AD0EAE
:103A90009091AE0E6091B90E7091BA0E665272405E
:103AA0006536710528F44E5651094B35510550F0D5
:103AB000265232402536310578F68E5691098B35DF
:103AC000910550F68FE295E00E94511388EF90E146
:103AD0000E94571AEC018C0197FF02C00F5F1F4F25
:103AE0001595079580E495E00E9451136AE570E012
:103AF00085E690E10E94350A6AE570E082E690E191
:103B00000E94350A44E650E062E070E084EF91E004
:103B10000E94500C68E070E08FE590E10E94B10ACD
:103B20006AE070E08CE590E10E94B10A6CE070E020
:103B300089E590E10E94B10A82E595E00E94511367
:103B400064EB70E08FE590E10E94350A68EB7BE062
:103B500080E090E00E945E0381E695E00E945113B0
:103B600070E060E08CE590E10E94350A64EB70E063
:103B700089E590E10E94350A68EE73E080E090E00C
:103B80000E945E036CED75E080E090E00E945E03B1
:103B90008FE695E00E949913CE010E94DD1184E822
:103BA00095E00E949913C8010E940D128DE194E0E6
:103BB0000E9499138091D20E9091D30E0E94DD1134
:103BC0008BE89DE00E9499130E94EF170E940D124E
:103BD000C017D1070CF41BCE88EF90E10E94571A52
:103BE000EC018FE695E00E949913CE010E94DD1151
:103BF00084E895E00E949913C8010E940D120E946A
:103C00008913E6CF0C171D07A0F4EC16FD0688F407
:103C100021E0C01BD10BA99708F42ACF405951408D
:103C20004B3F510508F024CF84569109C39708F003
:103C30001FCF86EF94E00E9451136AE570E085E69D
:103C400090E10E94350A6AE570E082E690E10E9408
:103C5000350A8AE095E0EFCF85ED8093BC00809136
:103C60002C0F90912D0FA0912E0FB0912F0F079632
:103C7000A11DB11D23E0B695A795979587952A9527
:103C8000D1F72091BC0024FD03C010922A0F0895A3
:103C900040912C0F50912D0F60912E0F70912F0F8E
:103CA000452B462B472B69F30097A105B10541F041
:103CB0002AE22A95F1F700C00197A109B109E1CFE5
:103CC00080912B0F0C9463050F931F93CF93DF9379
:103CD0008C01EB010E9417328883C80101960E9473
:103CE00017328983CE01DF91CF911F910F910895F3
:103CF000FF920F931F93CF93DF93EC018B01FB0196
:103D0000F0800E941732F81621F06F2DCE010E942C
:103D10001F32F801F1802196CE010E941732F81669
:103D200021F06F2DCE010E941F32C801DF91CF918B
:103D30001F910F91FF9008951F920F920FB60F924F
:103D400011242F933F938F939F93AF93BF938091B1
:103D5000DA0E9091DB0EA091DC0EB091DD0E309169
:103D6000D90E23E0230F2D3758F50196A11DB11D63
:103D70002093D90E8093DA0E9093DB0EA093DC0E85
:103D8000B093DD0E8091DE0E9091DF0EA091E00EDB
:103D9000B091E10E0196A11DB11D8093DE0E9093AE
:103DA000DF0EA093E00EB093E10EBF91AF919F9113
:103DB0008F913F912F910F900FBE0F901F901895EC
:103DC00026E8230F0296A11DB11DD2CF1F920F929C
:103DD0000FB60F9211240BB60F922F933F934F9370
:103DE0005F936F937F938F939F93AF93BF93EF9363
:103DF000FF938091A90E9091AA0EA091AB0EB09165
:103E0000AC0E892B8A2B8B2BE1F19091A80EE091BF
:103E1000A60EF091A70E8081892780838091A90E3C
:103E20009091AA0EA091AB0EB091AC0E1816190687
:103E30001A061B069CF48091A90E9091AA0EA091DF
:103E4000AB0EB091AC0E0197A109B1098093A90EF8
:103E50009093AA0EA093AB0EB093AC0EFF91EF918E
:103E6000BF91AF919F918F917F916F915F914F9192
:103E70003F912F910F900BBE0F900FBE0F901F9090
:103E80001895809100020E949D03E8CF1F920F9227
:103E90000FB60F9211240BB60F922F933F934F93AF
:103EA0005F936F937F938F939F93AF93BF93EF93A2
:103EB000FF9384E59FE00E948804FF91EF91BF91FA
:103EC000AF919F918F917F916F915F914F913F91B2
:103ED0002F910F900BBE0F900FBE0F901F90189553
:103EE0001F920F920FB60F9211240BB60F922F93C1
:103EF0008F939F93EF93FF93E091640FF091650F81
:103F00008081E0916A0FF0916B0F82FD1DC090815E
:103F100080916D0F8F5F8F7320916E0F821741F02C
:103F2000E0916D0FF0E0EC5AF04F958F80936D0F9C
:103F3000FF91EF919F918F912F910F900BBE0F905A
:103F40000FBE0F901F9018958081F2CF1F920F9295
:103F50000FB60F9211240BB60F922F933F934F93EE
:103F60005F936F937F938F939F93AF93BF93EF93E1
:103F7000FF938091B900887F803609F44DC008F026
:103F800040C0883209F4A7C028F5803109F49BC0ED
:103F9000C8F4882309F4F7C0883009F494C0FF916D
:103FA000EF91BF91AF919F918F917F916F915F91B1
:103FB0004F913F912F910F900BBE0F900FBE0F901E
:103FC0001F901895883109F486C0803241F780939C
:103FD000280F14C0803409F49BC040F48033B9F337
:103FE0008833E9F68093280F85ECAEC0803509F45C
:103FF00083C0883509F494C0883489F60E942C1E49
:10400000CECF883909F48AC038F5883729F050F4C2
:10401000883611F0803719F683E080932A0F1092CA
:10402000A50E55C0883809F479C0803919F0803858
:1040300009F0B5CF8091A50E803208F06FC0E091F5
:10404000A50E81E08E0F8093A50E8091BB00F0E05D
:10405000EB57F14F80833BC0803B39F0D0F4803A7E
:1040600009F477C0883A09F09ACF84E080932A0F48
:104070001092840E1092830EF0E0E0E0199580918A
:10408000830E81110FC081E08093830E1092630E26
:1040900009C0803C09F4A8CF883C09F4A5CF883B2F
:1040A00009F07DCFE091840E81E08E0F8093840E25
:1040B000F0E0ED59F14F80818093BB009091840E28
:1040C0008091830E29C08091050F8093BB0085EC01
:1040D0008093BC0064CF9091270F8091260F981792
:1040E00058F5E091270F81E08E0F8093270FF0E0C5
:1040F000EA5FF04F8081E9CFE091270F81E08E0FDA
:104100008093270F8091BB00F0E0EA5FF04F80833F
:104110009091270F8091260F9817C8F285E8D8CF85
:10412000E091270F81E08E0F8093270F8091BB00D5
:10413000F0E0EA5FF04F80838091290F81115ECF1C
:1041400081E08093040F84EA8093BC0010922A0FD0
:1041500026CF85EC8093BC0010922A0F8091A50E8B
:10416000803230F4E091A50EF0E0EB57F14F108271
:104170006091A50E70E085E89EE0F0E0E0E0199522
:104180001092A50E0CCF1092280F38CF1F920F92CD
:104190000FB60F9211240BB60F922F933F934F93AC
:1041A0005F936F937F938F939F93AF93BF93EF939F
:1041B000FF9348E251E064E271E090E080E00E9409
:1041C000540BFF91EF91BF91AF919F918F917F9190
:1041D0006F915F914F913F912F910F900BBE0F9078
:1041E0000FBE0F901F9018951F920F920FB60F924F
:1041F00011240BB60F922F933F934F935F936F93BE
:104200007F938F939F93AF93BF93EF93FF9348EA6E
:1042100050E064EA70E083E090E00E94540BFF916C
:10422000EF91BF91AF919F918F917F916F915F912E
:104230004F913F912F910F900BBE0F900FBE0F909B
:104240001F9018951F920F920FB60F9211240BB664
:104250000F922F933F934F935F936F937F938F931F
:104260009F93AF93BF93EF93FF9348E950E064E9C6
:1042700070E082E090E00E94540BFF91EF91BF91BB
:10428000AF919F918F917F916F915F914F913F91EE
:104290002F910F900BBE0F900FBE0F901F9018958F
:1042A0001F920F920FB60F9211240BB60F922F93FD
:1042B0003F934F935F936F937F938F939F93AF93AE
:1042C000BF93EF93FF9348E850E064E870E081E02B
:1042D00090E00E94540BFF91EF91BF91AF919F919D
:1042E0008F917F916F915F914F913F912F910F909F
:1042F0000BBE0F900FBE0F901F901895CF92DF92BC
:10430000EF92FF92CF93DF93E4E5FFE013821282F6
:1043100088EE93E0A0E0B0E084839583A683B78322
:1043200021E232E03183208325EC30E03587248799
:1043300024EC30E03787268720EC30E0318B208B6F
:1043400021EC30E0338B228B22EC30E0358B248B58
:1043500026EC30E0378B268B118E128E138E148E46
:10436000C1EFDFE01B821A828C839D83AE83BF8303
:1043700083E392E099838883E8EFF0E18AE390E0B9
:104380009183808398E3C92E94E0D92EE12CF12CFF
:10439000C282D382E482F58260E00E94FD0281E065
:1043A00080930C02E2EFF0E186E390E0918380835A
:1043B000C282D382E482F58260E00E94FD02ECEECC
:1043C000F0E188E390E091838083C282D382E4822B
:1043D000F58260E00E94FD0245E064E08AEA90E137
:1043E0000E94AA0943E062E088E690E10E94AA09DF
:1043F00085E690E10E94390B82E690E10E94390B3C
:104400008FE590E10E94390B8CE590E10E94390B19
:1044100089E590E10E94390BEDEFFFE0108288E61C
:104420008383D283C18388E491EEAAE7BFE38093BC
:10443000551090935610A0935710B09358101486AF
:10444000158616861786108A118A128A138A148A8C
:10445000158A168A178A108E118E128E138E148E5C
:10446000158E168E178E10A211A212A213A2DF9122
:10447000CF91FF90EF90DF90CF900895CF93DF938F
:10448000CDB7DEB764970FB6F894DEBF0FBECDBFD1
:10449000789484B5826084BD84B5816084BD85B51F
:1044A000826085BD85B5816085BD80916E0081602B
:1044B00080936E00109281008091810082608093D1
:1044C00081008091810081608093810080918000D3
:1044D0008160809380008091B10084608093B100FE
:1044E0008091B00081608093B000809191008260E3
:1044F00080939100809191008160809391008091E0
:1045000090008160809390008091A10082608093F0
:10451000A1008091A10081608093A1008091A00002
:1045200081608093A00080912101826080932101AD
:10453000809121018160809321018091200181601F
:104540008093200180917A00846080937A0080912A
:104550007A00826080937A0080917A0081608093F3
:104560007A0080917A00806880937A001092C1006E
:10457000E091640FF091650F82E08083E091600F1D
:10458000F091610F1082E091620FF091630F80E172
:10459000808310926C0FE091680FF091690F86E0B4
:1045A0008083E091660FF091670F80818061808346
:1045B000E091660FF091670F808188608083E091C1
:1045C000660FF091670F808180688083E091660FAD
:1045D000F091670F80818F7D808361E08BE60E9480
:1045E0009206182F60E089E10E94920660E08AE15D
:1045F0000E94920680E090E0A3E8B2E4809301106C
:1046000090930210A0930310B093041068E08BE124
:104610000E94920680E090E0A0E8B6E48093051046
:1046200090930610A0930710B093081060E08CE1FF
:104630000E9492060E949F1580913D1090913E101D
:10464000A0913F10B0914010809345109093461078
:10465000A0934710B0934810809141109091421060
:10466000A0914310B09144108093491090934A1048
:10467000A0934B10B0934C100E9491036093511083
:1046800070935210809353109093541086EA92E0E6
:104690000E94F704612F70E090E080E04AE00E9401
:1046A00087110E9483111111FECF8DE792E00E94C5
:1046B000F7040E94831168EE73E080E090E00E94AE
:1046C0005E031092091010920A1010920B101092B3
:1046D0000C1010920D1010920E1010920F101092DC
:1046E00010101092111010921210109213101092BC
:1046F000141010921510109216101092171010929C
:1047000018101092191010921A1010921B1010927B
:104710001C1010921D1010921E1010921F1010925B
:10472000201004EF11E01D861E861F86188A198A44
:104730001A8A1B8A1C8A19861A861B861C86C12C1B
:10474000D12C760146015701260137010E94F40E53
:10475000209125103091261040912710509128105B
:10476000C301B2010E9491322B013C01209129101A
:1047700030912A1040912B1050912C10C501B4019A
:104780000E9491324B015C0120E030E040E85FE3A1
:1047900060912D1070912E1080912F1090913010FB
:1047A0000E9490329B01AC01C701B6010E94913278
:1047B0006B017C0120913110309132104091331007
:1047C0005091341069857A858B859C850E94913241
:1047D00069877A878B879C872091351030913610B6
:1047E000409137105091381069897A898B899C895A
:1047F0000E949132698B7A8B8B8B9C8B2091391024
:1048000030913A1040913B1050913C106D857E855F
:104810008F8598890E9491326D877E878F87988BCC
:1048200061E070E080E090E00E945E0301501109B9
:1048300009F08CCF20E030E04AEF53E4C301B2012D
:104840000E946F33609315107093161080931710A9
:104850009093181020E030E04AEF53E4C501B40112
:104860000E946F336093191070931A1080931B107D
:1048700090931C1020E030E04AEF53E4C701B601EA
:104880000E946F3360931D1070931E1080931F1051
:104890009093201020E030E04AEF53E469857A8558
:1048A0008B859C850E946F336093091070930A106A
:1048B00080930B1090930C1020E030E04AEF53E40B
:1048C00069897A898B899C890E946F3360930D1066
:1048D00070930E1080930F109093101020E030E032
:1048E0004AEF53E46D857E858F8598890E946F33EA
:1048F0006093111070931210809313109093141002
:1049000087EB95E00E94511303E112E08DE1E82E60
:1049100082E0F82EF80180810E5F1F4F60E00E9458
:10492000FD02E016F106B1F761E080E20E94FD02AF
:1049300066E070E085E690E10E94B10A67E070E011
:1049400082E690E10E94B10A6AE570E085E690E1B6
:104950000E94350A6AE570E082E690E10E94350A1D
:104960000E949F150E949B1369E072E090E080E036
:104970000E94641E67E072E082E090E00E94641E84
:1049800065E072E084E090E00E94641E63E072E003
:1049900086E090E00E94641E61E072E088E090E0B2
:1049A0000E94641E4DE750E062E070E08EEE92E0FF
:1049B0000E94500C84E59FE00E947204892B09F448
:1049C00072C01A8219821C821B821E821D8270E0B4
:1049D00060E0CE0101960E942F1A29813A8181114F
:1049E0002EC02115310519F0C9010E94D6361A8250
:1049F00019821E821D821C821B820E9432040D813C
:104A00001E8197FD24C08A30910509F18F83188695
:104A10000F5F1F4FB801CE0101960E942F1A882305
:104A200061F329813A818D819E81BE01695F7F4F4B
:104A3000820F931F0E9452381E830D83DECF1E8289
:104A40001D8263E472E0C9010E945238D6CF89808A
:104A50009A808114910429F074010115110509F05F
:104A60007EC08D819E81892BC1F089819A812091A0
:104A7000D80E2111AAC06FE37BE00E944938892B30
:104A800009F00AC5F1E0F093D80E8EEB95E00E9494
:104A900051130E945D131092C30E89819A81009771
:104AA00011F00E94D6368091D80E81110C942B2DD6
:104AB0000E949F150E940E0CDC019093D70E8093EC
:104AC000D60EED91FC911197EE0FFF1F12968D916E
:104AD0009C911397E80FF91FEE0FFF1F14968D910D
:104AE0009C911597E80FF91FEE0FFF1F16968D91F9
:104AF0009C911797E80FF91FEE0FFF1F18968D91E5
:104B00009C91E80FF91FE032F10510F00C946F3022
:104B10008827E257FA4D8F4F0C941736102E6F30BE
:104B20006F30432DC62E07306F305C2D6F306F30E5
:104B30006F306F306F306F306F30C92E6F306F3025
:104B40006F302F2D892F6F306F30232E432DAC2DDA
:104B50006F304F2AC02D3C2E292F492E7501570149
:104B6000FFEFAF1ABF0AF7018081082E000C990BE6
:104B70000E94E730892B91F701501109080D191D8A
:104B8000F8018081082E000C990B0E94E730892BD8
:104B900031F00E151F0518F001501109F1CF0F5F0C
:104BA0001F4FA8014E195F095E834D838E149F0429
:104BB00020F4B701C4010E944038E981FA818D8157
:104BC0009E81E80FF91F10824CCF4090C30E442005
:104BD00009F488C00097B1F00E94AB302091C10E5B
:104BE0003091C20E2430310509F456C07CF42230D5
:104BF000310531F123303105E1F184E796E00E947F
:104C0000511332C060E070E0CB01E8CF25303105B0
:104C100009F455C02630310581F770930202609384
:104C2000010261E072E088E090E00E94781E80E579
:104C300096E00E949913809101029091020212C0A5
:104C400070930A026093090269E072E090E080E0EC
:104C50000E94781E8CED95E00E94991380910902C4
:104C600090910A020E940D121092C30E0E945D13D1
:104C700014CF709308026093070267E072E082E04D
:104C800090E00E94781E8AEF95E00E94991380912F
:104C9000070290910802E6CF709306026093050226
:104CA00065E072E084E090E00E94781E88E196E082
:104CB0000E9499138091050290910602D3CF7093C0
:104CC00004026093030263E072E086E090E00E94D9
:104CD000781E84E396E00E949913809103029091DC
:104CE0000402C0CF0097B1F00E94AB30693071056B
:104CF00008F086C3FB018827EF57F94D8F4F0C94BE
:104D000017368E2695269826A626B426C226D026A5
:104D1000DA26112760E070E0CB01E8CF1092D80EC0
:104D20008AE896E00E945113B8CE0E949B139ECF52
:104D300081EC96E00E94511321E02093C30E42E0E3
:104D400050E05093C20E4093C10EA7CE87EE96E07E
:104D50000E94511351E05093C30E83E090E0909372
:104D6000C20E8093C10E99CE8DE097E00E94511340
:104D700091E09093C30EE4E0F0E0F093C20EE09374
:104D8000C10E8BCE81E397E00E945113F1E0F093C6
:104D9000C30E25E030E03093C20E2093C10E7DCECD
:104DA00085E597E00E94511331E03093C30E46E051
:104DB00050E0C7CF81E897E00E94511380EA97E066
:104DC0000E9499138091090290910A020E940D128B
:104DD00087EE98E00E949913809107029091080253
:104DE0000E940D128EEA97E00E94991380910502AD
:104DF000909106020E940D1285E998E00E94991395
:104E000080910302909104020E940D1281E499E0C6
:104E10000E94991380910102909102020E940D124A
:104E200025CF8AEB97E00E94511309EB1EE02BEB94
:104E30003EE04DEB5EE06FEB7EE08AEA90E10E949F
:104E4000D9124091BB0E5091BC0E6091BD0E709175
:104E5000BE0E8091BF0E9091C00E0E9421029093D1
:104E6000B80E8093B70E0FEA1EE021EB3EE043EB55
:104E70005EE065EB7EE088E690E10E94D912C0908A
:104E8000B10ED090B20E8090B30E9090B40E6090A0
:104E9000B50E7090B60EA601B401C3010E942102A6
:104EA0005C019093AE0E8093AD0EE090B90EF09041
:104EB000BA0E0091AF0E1091B00E2090B70E309048
:104EC000B80E56E9251631040CF09FC280E9E816A9
:104ED00081E0F8060CF099C296E9A916B1043CF4F9
:104EE00087ED97E00039E1E01E070CF49BC280914A
:104EF000BD0E9091BE0E2091BF0E3091C00E2817AE
:104F0000390770F54091BB0E5091BC0E48175907F8
:104F100038F5821B930B2091010230910202281771
:104F20003907F0F48091050290910602E816F9061F
:104F3000BCF080910302909104028E159F0584F0CD
:104F40008091090290910A02281639064CF05524E6
:104F500053948091070290910802821593050CF4F6
:104F6000512C6814790450F5C814D90438F5861802
:104F70009708809101029091020288159905F0F43A
:104F8000809105029091060208171907BCF08091E4
:104F90000302909104028017910784F08091090226
:104FA00090910A02A816B9064CF077247394809168
:104FB0000702909108028A159B050CF4712C470199
:104FC000801A910A97FE03C091948194910834E667
:104FD000831691041CF4672C511001C0612C87EFDB
:104FE00097E00E949913852D90E00E940D1287E0B2
:104FF00098E00E949913872D90E00E940D1288E19D
:1050000098E00E949913862D90E00E940D1286E28E
:1050100098E00E949913C7010E94DD118CE298E08C
:105020000E949913C8010E940D1285E398E00E9426
:1050300099138091B70E9091B80E0E94CB118CE31A
:1050400098E00E9499138091AD0E9091AE0E0E944F
:10505000D11186E498E00E9499138091BF0E90913F
:10506000C00E0E94CB118BE498E00E9499138091AE
:10507000B50E9091B60E0E94D11183E598E00E9482
:1050800099138091BD0E9091BE0E0E94CB1188E5C0
:1050900098E00E9499138091B30E9091B40E0E94F3
:1050A000D11180E698E00E9499138091BB0E9091F7
:1050B000BC0E0E94CB1185E698E00E949913809166
:1050C000B10E9091B20E0E94D1118DE698E00E942F
:1050D00099138091B90E9091BA0E0E94CB1182E77C
:1050E00098E00E9499138091AF0E9091B00E0E94AB
:1050F000D11185E398E00E9499138091B70E9091A9
:10510000B80E0E94CB118CE398E00E949913809115
:10511000AD0E9091AE0E0E94D1118AE798E00E94E8
:1051200099138091050290910602E816F90644F061
:1051300081E020910302309104022E153F050CF40A
:1051400080E090E00E940D1281EA98E00E9499139D
:1051500080910502909106020817190744F081E03A
:105160002091030230910402201731070CF480E0F3
:1051700090E00E940D1288EC98E00E9499138091B3
:10518000090290910A022816390644F081E0209124
:10519000070230910802221533050CF480E090E0FC
:1051A0000E940D1285EF98E00E94991380910902E8
:1051B00090910A02A816B90644F081E020910702F6
:1051C000309108022A153B050CF480E090E00E9423
:1051D0000D1282E299E00E9499132091BD0E309148
:1051E000BE0E8091BF0E9091C00E8217930740F4BF
:1051F00081E04091BB0E5091BC0E4217530708F05E
:1052000080E090E00E940D1287E399E00E949913DC
:105210002091BD0E3091BE0E8091BF0E9091C00EB8
:10522000281B390B81E090E040910102509102026D
:105230004217530710F090E080E00E940D1285E5C0
:1052400099E00E9499132091B30E3091B40E809191
:10525000B50E9091B60E8217930740F481E040910D
:10526000B10E5091B20E4217530708F080E090E063
:105270000E940D128AE699E00E9499132091B30EC4
:105280003091B40E8091B50E9091B60E281B390B5B
:1052900081E090E0409101025091020242175307D1
:1052A00010F090E080E00E940D128AE798E00E94E2
:1052B00099138091050290910602E816F90644F0D0
:1052C00081E020910302309104022E153F050CF479
:1052D00080E090E00E940D1281EA98E00E9499130C
:1052E00080910502909106020817190744F081E0A9
:1052F0002091030230910402201731070CF480E062
:1053000090E00E940D1288EC98E00E949913809121
:10531000090290910A022816390644F081E0209192
:10532000070230910802221533050CF480E090E06A
:105330000E940D1285EF98E00E9499138091090256
:1053400090910A02A816B90654F04424439480911F
:105350000702909108028A159B050CF4412C842DBC
:1053600090E00E940D1288E899E00E94991381E074
:1053700090E044E68416910414F090E080E00E94EE
:105380000D1280EB99E061104DC0552009F44DC01D
:1053900084E694E00E9451138BE893E00E949913F5
:1053A0008091B70E9091B80E0E94CB1183ED99E0D9
:1053B0000E9499138091BF0E9091C00E0E94CB1154
:1053C0008AED99E00E9499138091BD0E9091BE0ED6
:1053D0000E94CB1181EE99E00E9499138091BB0E3F
:1053E0009091BC0E0E94CB1188EE99E00E94991317
:1053F0008091B90E9091BA0E0E94CB110E94831138
:105400008EEF99E00E94511331CCF9EEEF16F3E0E4
:10541000FF060CF46CCD093E23E012070CF467CDB7
:105420008FEE99E00E945113EBCF7720C9F38CEAFD
:1054300094E00E9451138BE893E00E9499138091AD
:10544000AD0E9091AE0E0E94CB1183ED99E00E94BB
:1054500099138091B50E9091B60E0E94CB118AEDF2
:1054600099E00E9499138091B30E9091B40E0E941E
:10547000CB1181EE99E00E9499138091B10E909129
:10548000B20E0E94CB1188EE99E00E949913809190
:10549000AF0E9091B00EB0CF89E29AE043CC0E945B
:1054A000EF179093D50E8093D40E2091D20E3091A9
:1054B000D30E8C01021B130B1093D10E0093D00E50
:1054C000B801012E000C880B990B0E94F7306B017C
:1054D0007C012091CC0E3091CD0E4091CE0E50919A
:1054E000CF0E0E9491324B015C0120E030E048EC8D
:1054F00052EC0E94F03087FD38C120E030E048ECEB
:1055000052E4C501B4010E943E34181634F4812CD3
:10551000912C58ECA52E52E4B52E8092CC0E909290
:10552000CD0EA092CE0EB092CF0E8091CA0E909169
:10553000CB0EB801681B790B072E000C880B990B5A
:105540000E94F7302B013C014092C60E5092C70ECC
:105550006092C80E7092C90E1093CB0E0093CA0EC3
:1055600020E030E040EC5FE3C701B6010E94563115
:1055700069877A878B879C872DEC3CEC4CE45DE354
:10558000C501B4010E9456319B01AC0169857A8541
:105590008B859C850E949132A30192010E949132D9
:1055A0000E94E1337B0177FF04C0EE24FF24E61A5A
:1055B000F70A59E2E516F1041CF038E2E32EF12C6B
:1055C000F092C50EE092C40E101611060CF0D4C075
:1055D00068E770E06E197F0985E690E10E94350A60
:1055E000C70163E070E00E940336645C7F4F82E68F
:1055F00090E10E94350A89E59AE00E949913809112
:10560000D40E9091D50E0E94DD118AE194E00E94A3
:1056100099138091D20E9091D30E0E94DD1187E7ED
:105620009AE00E9499138091C40E9091C50E0E9439
:10563000DD1183E89AE00E9499136091D00E709179
:10564000D10E072E000C880B990B0E94F73020E03A
:1056500030E040EC5FE30E94563142E00E94C61405
:105660008AE89AE00E9499132DEC3CEC4CE45DE34F
:105670006091CC0E7091CD0E8091CE0E9091CF0E98
:105680000E94563142E00E94C61481E99AE00E94CD
:1056900099136091C60E7091C70E8091C80E9091BB
:1056A000C90E42E00E94C6140E94831180910B0231
:1056B000882331F18091D40E9091D50E2091D20E95
:1056C0003091D30E820F931F97FD01969595879584
:1056D0009093D30E8093D20E1092CC0E1092CD0EDA
:1056E0001092CE0E1092CF0E88E99AE00E94991384
:1056F0008091D20E9091D30E0E940D1210920B0247
:1057000088EF90E10E94571A0A970CF0A4C168E74D
:1057100070E085E690E10E94350A68E770E082E675
:1057200090E10E94350A0091D20E1091D30E065AD4
:105730001F4F0E94EF1708171907B4F10E949F1519
:105740008AEB9AE00E9499130E94EF170E94DD11E4
:1057500088E594E00E9499138091D20E9091D30E27
:10576000865A9F4F0E940D12DECF812C912C48EC5F
:10577000A42E42ECB42ED1CE012B69F0C7016DEFFF
:105780007FEF0E94033668587F4F85E690E10E94C4
:10579000350AB7012ACF68E770E085E690E10E94FC
:1057A000350A6CE370E023CF60EA70E085E690E1B3
:1057B0000E94350A64E170E082E690E10E94350AB9
:1057C0008091D20E9091D30E865A9F4F9093D30E14
:1057D0008093D20E0E9491034B015C012B013C018E
:1057E00080EA480E8FE0581E611C711C0E949103D4
:1057F000681979098A099B09603A7F4081059105FA
:1058000028F582EF9AE00E9499130E94910368198B
:1058100079098A099B094AE00E9487110E94831135
:1058200089E19BE00E9499130E949103A3019201D8
:10583000261B370B480B590BCA01B9014AE00E94DD
:1058400087110E9483110E948913D0CF8AE29BE0C6
:105850000E9451136CE370E085E690E10E94350AE6
:105860006CE370E082E690E10E94350A0091D20E6E
:105870001091D30E0A5511090E94EF178017910756
:10588000BCF00E949F1581E49BE00E9499130E9446
:10589000EF170E94DD1188E594E00E949913809132
:1058A000D20E9091D30E8A5591090E940D12DECF2F
:1058B00060EA70E085E690E10E94350A64E170E0FC
:1058C00082E690E10E94350A8091D20E9091D30E2B
:1058D0008A5591099093D30E8093D20E0E94910322
:1058E0004B015C010E949103681979098A099B099F
:1058F00060347F418105910518F40E948913F2CF2D
:105900006CE370E085E690E10E94350A6CE370E09C
:1059100082E690E10E94350A0091D20E1091D30EDA
:105920000A5511090E94EF1780179107BCF00E94D9
:105930009F1588E79BE00E9499130E94EF170E9431
:10594000DD1188E594E00E9499138091D20E909128
:10595000D30E8A5591090E940D12DECF60EA70E0E5
:1059600085E690E10E94350A64E170E082E690E10C
:105970000E94350A8091D20E9091D30E8A559109DA
:105980009093D30E8093D20E0E940E0C9093D70E5C
:105990008093D60EE091D60EF091D70E848195813A
:1059A000019719F40E948913EFCF68E770E085E64C
:1059B00090E10E94350A6CE370E082E690E10E947B
:1059C000350A68EE73E080E090E00E945E0368E7CD
:1059D00070E085E690E10E94350A68E770E082E6B3
:1059E00090E10E94350A0091D20E1091D30E065A12
:1059F0001F4F0E94EF1708171907BCF00E949F1550
:105A00008FEA9BE00E9499130E94EF170E94DD111C
:105A100088E594E00E9499138091D20E9091D30E64
:105A2000865A9F4F0E940D12DECF68E770E085E630
:105A300090E10E94350A6CE370E082E690E10E94FA
:105A4000350A8091D20E9091D30E865A9F4F909333
:105A5000D30E8093D20E0E9432050C94DA2462E8B1
:105A600070E085E690E10E94350A67E370E082E627
:105A700090E10E94350A87EE9BE00E94511341E0BD
:105A800040930B02E8CF8EEF9BE00E9451130E94DF
:105A9000FD1768E770E085E690E10E94350A6CE347
:105AA00070E082E690E10E94350A64EF71E080E0E8
:105AB00090E00E945E03CFCF83E19CE00E945113EF
:105AC0000E940E0C9093D70E8093D60E68E770E07C
:105AD00085E690E10E94350A6CE370E082E690E191
