:100000000C944F0A0C94800A0C94800A0C94800A79
:100010000C94800A0C94800A0C94800A0C94800A38
:100020000C94800A0C94800A0C94800A0C94800A28
:100030000C94800A0C9455400C94800A0C94800A0D
:100040000C94800A0C94C3420C94800A0C94800A8D
:100050000C94800A0C94800A0C94800A0C940B4037
:100060000C94800A0C94DF400C94B5400C94800AE8
:100070000C94800A0C94800A0C94800A0C94800AD8
:100080000C9495420C94800A0C94800A0C94800A7B
:100090000C94800A0C94800A0C94800A0C941541EC
:1000A0000C94800A0C94800A0C9467420C94800A89
:1000B0000C94800A0C94800A0C94800A0C943942A7
:1000C0000C94800A0C94800A0C94800A0C94800A88
:1000D0000C94800A0C94800A0C94800A0C94800A78
:1000E0000C94800A084AD73B3BCE016E84BCBFFD0E
:1000F000C12F3D6C74319ABD56833DDA3D00C77FF8
:1001000011BED9E4BB4C3E916BAAAABE0000008090
:100110003F07634236B79BD8A71A39685618AEBA5C
:10012000AB558C1D3CB7CC5763BD6DEDFD753EF6F0
:10013000177231BF000000803F08000000BE92240B
:1001400049123EABAAAA2ABECDCCCC4C3E00000040
:1001500080BEABAAAAAA3E00000000BF000000803B
:100160003F0000000000084178D3BB4387D1133D16
:10017000190E3CC3BD4282AD2B3E68EC8276BED9DF
:100180008FE1A93E4C80EFFFBE01C4FF7F3F00001E
:10019000000000000C94F2520C94023D0C943C10B0
:1001A0000C94C0350C942D100C9477520C94A43DF3
:1001B0000C9451520C942A350C94E4520C94020B7A
:1001C0000C9414350C94C1510C94BA0D0C948310FA
:1001D0000C94280B0C945C480C94B5520C94B336D8
:1001E0000C94DD520C94E70A0C94140B0C945048B8
:1001F0000C948F510C94373D0C940C0B0C943736A7
:100200000C9433430C94CA520C94220B0C94783601
:100210000C94A6360C94ED350C94AE3C0C949C0CCE
:100220000C941A0B0C94BC520C94B5510C94F20D16
:100230000C94C90C0C9427530C94924B0C94F035ED
:100240000C94D1520C94ED0A0C94D73C0C944B4F67
:100250000C94563D0C941E0B0C942C0B0C942C10EF
:100260000C94100B0C94560C0C94BD510C946233EE
:100270000C9405520C9403510C94FC0A0C947B5181
:100280000C941E0D0C945A0E0C94550C0C94933D2A
:100290000C94060B0C94C3520C94F10A0C94F50ABE
:1002A0000C94EB520C94B2100C94323D0C94D80C7C
:1002B0000C9456100C94270B0C94DC510C94855123
:1002C0000C94F90A0C9493510C94B9510C942B5240
:1002D0000C9453480C9462350C944F104D6564692E
:1002E000612053656E736F72200044697374616E90
:1002F000636961206D65646964613A2000416E64E0
:10030000616E646F207265746F2070726120747208
:10031000617320706F72200020646966436F723DC4
:1003200000206D61784C75783D00206D696E4C75CC
:10033000783D00206D6178433D004C696D697465BE
:10034000732045737175657264613A206D696E43FF
:100350003D0020646966436F723D00206D61784CFA
:1003600075783D00206D696E4C75783D00206D619B
:1003700078433D004C696D6974657320446972650A
:100380006974613A206D696E433D00204C75783A7E
:10039000200020433A200020423A200020473A2003
:1003A000004573717565726461202D20523A2000FA
:1003B000204C75783A200020433A200020423A2011
:1003C0000020473A200044697265697461202D203D
:1003D000523A2000416E64616E646F207265746FE2
:1003E00020706F7220005361696461206E61206625
:1003F00072656E7465206E6F20696E6963696F3A0D
:1004000020005361696461206E61206573717565B8
:10041000726461206D65696F3A200053616964619F
:10042000206E612064697265697461206D65696F11
:100430003A20005361696461206E61206672656EC6
:10044000746520656D2063696D613A2000526573A3
:10045000676174652064657465637461646F21000D
:100460004EC3A36F20C3A9207665726D656C686F5B
:10047000206E656D2063696E7A61005645524D4568
:100480004C484F2044455445435441444F21005269
:10049000656375706572616E646F2061206C696E52
:1004A00068612C20646972656974610052656375C6
:1004B000706572616E646F2061206C696E68612C7A
:1004C0002065737175657264610043757276612091
:1004D0006469726569746100437572766120666152
:1004E0006C7361204F5520766572646500506571AC
:1004F00075656E61206375727661206469726569E5
:100500007461004E6F766F20616E67756C6F20525C
:1005100045544F203A20004375727661206573710F
:1005200075657264610043757276612066616C73F3
:1005300061204F5520766572646500506571756560
:100540006E61206375727661206573717565726482
:1005500061004E6F766F20616E67756C6F2052453B
:10056000544F202863656E7472616C697A61646FA0
:100570002033293A20004E6F766F20616E67756CCC
:100580006F205245544F202863656E7472616C6908
:100590007A61646F2032293A20004E6F766F2061B5
:1005A0006E67756C6F205245544F202863656E74DA
:1005B00072616C697A61646F2031293A2000207C75
:1005C00020443A2000207C20493A2000207C205002
:1005D0003A2000207C20416A757374653A2000201F
:1005E0007C20416E67756C6F205265746F3A2000F5
:1005F000416E67756C6F20417475616C3A200044E0
:1006000065736369646120646574656374616461C2
:1006100021003D3D3D3D3D3D3D3D3D3D3D3D3D3D63
:100620003D3D0030202D20536169720039202D207E
:100630004578696269722076616C6F7265732064B7
:100640006120454550524F4D0038202D20416A759C
:1006500073746172205665726D656C686F204D61B0
:100660006E75616C0037202D20416A75737461725C
:10067000205665726465204D616E75616C00362090
:100680002D20416A7573746172204272616E636FCE
:10069000204D616E75616C0035202D2043616C69C1
:1006A000627261722043696E7A610034202D2043AA
:1006B000616C6962726172205665726D656C686FFB
:1006C0000033202D2043616C69627261722056658F
:1006D0007264650032202D2043616C63756C6F730A
:1006E0000031202D204C65722073656E736F72652A
:1006F0007320646520636F72003D3D3D204D656E43
:1007000075203031203D3D3D003D3D3D3D3D3D3D71
:100710003D3D3D3D3D3D3D3D3D0034202D20566F4E
:100720006C7461720033202D2043616C63756C6FB3
:100730007320646F2043696E7A610032202D20435C
:10074000616C63756C6F7320646F205665726D65A4
:100750006C686F0031202D2043616C63756C6F7382
:1007600020646F205665726465003D3D3D204D65F7
:100770006E75203032202D2043616C63756C6F7371
:10078000203D3D3D003D3D3D3D3D3D3D3D3D3D3DF3
:100790003D3D3D3D3D0039202D20566F6C7461720A
:1007A0000038202D20416C74657261722064696686
:1007B0006572656E636120636F7265732076657222
:1007C00064650037202D2056616C6F72657320457B
:1007D0004550524F4D2056657264650036202D20DD
:1007E0006D696E4356657264650035202D206D611C
:1007F000784356657264650034202D206D696E4C17
:10080000757856657264650033202D206D61784CD3
:10081000757856657264650032202D2043616C63E3
:10082000756C6F20646F2076657264650031202DD1
:10083000204C65722073656E736F726573206465FA
:1008400020636F72003D3D3D204D656E7520303355
:10085000202D20416A75737461722076657264651B
:10086000206D616E75616C203D3D3D003D3D3D3D1F
:100870003D3D3D3D3D3D3D3D3D3D3D3D0039202D16
:1008800020566F6C7461720038202D2044696665B3
:1008900072656E6361446173436F7265735665720E
:1008A0006D656C686F0037202D2056616C6F726526
:1008B0007320454550524F4D205665726D656C68EA
:1008C0006F0036202D206D696E435665726D656C24
:1008D000686F0035202D206D6178435665726D6517
:1008E0006C686F0034202D206D696E4C75785665EC
:1008F000726D656C686F0033202D206D61784C75CA
:10090000785665726D656C686F0032202D204361EA
:100910006C63756C6F20646F205665726D656C68D2
:100920006F0031202D204C65722073656E736F72DD
:10093000657320646520636F72003D3D3D204D6509
:100940006E75203034202D20416A757374617220D9
:100950007665726D656C686F206D616E75616C2077
:100960003D3D3D003D3D3D3D3D3D3D3D3D3D3D3DF4
:100970003D3D3D3D3D3D3D3D3D3D3D3D3D3D3D3DA7
:100980003D3D3D3D3D3D3D3D3D3D006469666572FB
:10099000656E6361446173436F7265735665726D12
:1009A000656C686F3A20006D6178435665726D65BD
:1009B0006C686F3A20006D696E435665726D656CA8
:1009C000686F3A20006D61784C75785665726D6578
:1009D0006C686F3A20006D696E4C75785665726D63
:1009E000656C686F3A20006D6178434E6F43696EA5
:1009F0007A613A20006D696E434E6F43696E7A6189
:100A00003A20006D61784C757843696E7A613A20BE
:100A1000006D696E4C757843696E7A613A20006D9D
:100A2000617843507265746F3A20006D61784C753F
:100A300078507265746F3A200076616C6F72436E05
:100A40006F4272616E636F3A200064696665726519
:100A50006E6361446173436F7265732028566572DB
:100A60006465293A20006D61784356657264653A81
:100A700020006D696E4356657264653A20006D61B1
:100A8000784C757856657264653A20006D696E4CD5
:100A9000757856657264653A20003D3D3D2056618B
:100AA0006C6F7265732061726D617A656E61646FDF
:100AB00073206E6120454550524F4D203D3D3D0015
:100AC00041627328636331202D2063633229203C07
:100AD0002073756274726163616F53656E736F72B8
:100AE0006573436F723A20006732202D20723220E6
:100AF0003E206469666572656E6361446173436F2D
:100B00007265734573713A20006732203E2072325D
:100B1000202626206732203E2062323A20006731AC
:100B2000202D207231203E206469666572656E63F7
:100B300061446173436F7265734469723A20006760
:100B400031203E207231202626206731203E20624F
:100B5000313A20006C757532203E3D206D696E4C37
:100B600075785665726465457371202626206C750C
:100B70007532203C3D206D61784C75785665726405
:100B8000654573713A20006C757531203E3D206DCE
:100B9000696E4C75785665726465446972202626C4
:100BA000206C757531203C3D206D61784C75785610
:100BB000657264654469723A2000636332203E3D89
:100BC000206D696E435665726465457371202626F3
:100BD00020636332203C3D206D617843566572642A
:100BE000654573713A2000636331203E3D206D6995
:100BF0006E435665726465446972202626206363DD
:100C000031203C3D206D61784356657264654469CE
:100C1000723A2000207C204C7578323A20004C75C6
:100C200078313A2000207C2043323A200043313A88
:100C30002000207C2042323A200042313A2000201D
:100C40007C2047323A200047313A2000207C205255
:100C5000323A200052313A2000207C204C75783204
:100C60003A20004C7578313A2000207C20636332B2
:100C70003A20006363313A20005665726465204172
:100C80006D626F733A20005665726465204573711A
:100C900075657264613A2000566572646520446926
:100CA00072656974613A20007232202D206732200B
:100CB0003E206469666572656E6361446173436F6B
:100CC0007265735665726D656C686F3A200072329A
:100CD000203E206732202626207232203E206232BB
:100CE0003A20007231202D206731203E2064696651
:100CF0006572656E6361446173436F7265735665B7
:100D0000726D656C686F3A20007231203E20673149
:100D1000202626207231203E2062313A20006C7558
:100D20007532203E3D206D696E4C75785665726D4A
:100D3000656C686F202626206C757532203C3D203E
:100D40006D61784C75785665726D656C686F3A2088
:100D5000006C757531203E3D206D696E4C7578567E
:100D600065726D656C686F202626206C7575312064
:100D70003C3D206D61784C75785665726D656C6888
:100D80006F3A2000636332203E3D206D696E43560A
:100D900065726D656C686F20262620636332203C87
:100DA0003D206D6178435665726D656C686F3A20C1
:100DB00000636331203E3D206D696E435665726D60
:100DC000656C686F20262620636331203C3D206DD2
:100DD0006178435665726D656C686F3A2000207CBF
:100DE0002043323A200043313A2000207C20423216
:100DF0003A200042313A2000207C2047323A20003D
:100E000047313A2000207C2052323A200052313AB9
:100E10002000207C204C7578323A20004C757831C7
:100E20003A2000207C206363323A20006363313A29
:100E300020005665726D656C686F20416D626F733E
:100E40003A20005665726D656C686F204573717548
:100E5000657264613A20005665726D656C686F203A
:100E6000446972656974613A2000207C2043323AFB
:100E7000200043313A2000207C2042323A200042B8
:100E8000313A2000207C2047323A200047313A2076
:100E900000207C2052323A200052313A2000207C3F
:100EA000204C7578323A20004C7578313A20002079
:100EB0007C206363323A20006363313A2000436947
:100EC0006E7A6120416D626F733A200043696E7AD9
:100ED000612045737175657264613A200043696EE3
:100EE0007A6120446972656974613A2000021600D3
:100EF0001700180019001A0043616C63756C617467
:100F0000696E67206F6666736574732C20646F204A
:100F10006E6F74206D6F7665204D505536303530CC
:100F2000004D505536303530207374617475733A06
:100F300020003D3D3D3D3D3D3D3D3D3D3D3D3D3D3B
:100F40003D3D0038202D20566F6C746172003720B3
:100F50002D2056616C6F72657320454550524F4D80
:100F60002043696E7A610036202D206D696E4343FF
:100F7000696E7A610035202D206D61784343696E7A
:100F80007A610034202D206D696E4C757843696E4E
:100F90007A610033202D206D61784C757843696E3D
:100FA0007A610032202D2043616C63756C6F206480
:100FB0006F2043696E7A610031202D204C657220CC
:100FC00073656E736F72657320646520636F720062
:100FD0003D3D3D204D656E75203035202D20416A08
:100FE00075737461722063696E7A61206D616E75CC
:100FF000616C203D3D3D006D61784343696E7A61CF
:10100000202831323025293A20006D696E4343692A
:101010006E7A612028383025293A20006D61784C9D
:10102000757843696E7A61202831323025293A205B
:10103000006D696E4C757843696E7A61202838308E
:1010400025293A20006D656469614343696E7A61C0
:101050003A20006D656469614C757843696E7A6108
:101060003A200043616C69627261C3A7C3A36F2019
:10107000636F6E636C75C3AD646121006D6178430D
:101080005665726D656C686F202831343025293AB9
:1010900020006D696E435665726D656C686F20281F
:1010A000363025293A20006D61784C757856657286
:1010B0006D656C686F202831343025293A20006D29
:1010C000696E4C75785665726D656C686F20283650
:1010D0003025293A20006469666572656E63614453
:1010E0006173436F7265735665726D656C686F20CE
:1010F00075736164613A20006D6564696144696675
:101100005665726D656C686F2028522D47293A200C
:10111000006D65646961435665726D656C686F3A10
:1011200020006D656469614C75785665726D656CFB
:10113000686F3A200043616C69627261C3A7C3A300
:101140006F20636F6E636C75C3AD64612100207C9A
:101150002052322D47323A2000207C2043323A2060
:1011600000207C7C204C7578323A2000207C205274
:10117000312D47313A2000207C2043313A20002095
:101180007C204C7578313A20005B4573717565722F
:1011900064615D20416D6F737472612000207C205A
:1011A00052322D47323A2000207C2043323A200030
:1011B000207C7C204C7578323A2000207C205231F3
:1011C0002D47313A2000207C2043313A2000207CFA
:1011D000204C7578313A20005B446972656974610E
:1011E0005D20416D6F737472612000436F6C6F718D
:1011F0007565206F2073656E736F72204449524588
:1012000049544F20736F627265206F205645524DCE
:10121000454C484F206520656E7669652071756183
:101220006C71756572207465636C612070617261A8
:1012300020696E69636961722E2E2E003D3D3D204E
:1012400043616C69627261C3A7C3A36F20646F209E
:101250005665726D656C686F20284DC3A96469611D
:1012600029203D3D3D006D656469614469665665B0
:101270007264654573712028472D52293A20006D0C
:10128000656469614356657264654573713A20000F
:101290006D656469614C75785665726465457371F6
:1012A0003A20006D656469614469665665726465DB
:1012B0004469722028472D52293A20006D656469DF
:1012C000614356657264654469723A20006D6564D5
:1012D00069614C757856657264654469723A20009C
:1012E00043616C69627261C3A7C3A36F20636F6EB1
:1012F000636C75C3AD64612100436F6C6F7175657C
:10130000206F2073656E736F7220444952454954B3
:101310004F20736F627265206F20564552444520FE
:101320006520656E766965207175616C7175657291
:10133000207465636C61207061726120696E6963FD
:101340006961722E2E2E003D3D3D2043616C696225
:101350007261C3A7C3A36F20646F20566572646572
:1013600020284DC3A964696120496E646976696467
:1013700075616C29203D3D3D0000000A0B02090CFF
:101380000D0E08070304010000000000000000002B
:10139000000000000000000000000000000000004D
:1013A000000000000012111000000000000000000A
:1013B000000000000000000000000000000000002D
:1013C0000020002300260029002C002F00320000FE
:1013D000010000030106010901000021002400278B
:1013E000002A002D00300033000101000004010735
:1013F000010A0100002200250028002B002E0031E8
:1014000000340002010000050108010B0101021077
:10141000202008081020401020408002010201080E
:1014200004020101020408102040808040201008BE
:101430000402018004020180402010080402010817
:101440000402010102040810204080010204081077
:101450002040800505050507050808080802020266
:10146000020A0A080804040404010101010101013F
:10147000010303030303030303040707070C0C0C16
:101480000C0C0C0C0C0202020206060606060606EE
:10149000060B0B0B0B0B0B0B0B00334327531124C9
:1014A0001FBECFEFD1E2DEBFCDBF00E00CBF1EE01C
:1014B000A0E0B2E0ECECF5EB00E00BBF02C007905F
:1014C0000D92A23BB107D9F722E1A2EBBEE001C029
:1014D0001D92AE32B207E1F71AE0CEE4DAE000E0A6
:1014E00006C021970109802FFE010E949B58CD3430
:1014F000D10780E00807A9F70E940F440C94D45A42
:101500000C940000CF92DF92EF92FF920F931F9303
:10151000CF93DF938B01EA01BC0190E080E00E9451
:10152000795326ED39E346EA5EEB0E94DA536B010C
:101530007C01B80190E080E00E94795327E038E018
:101540004AEC5FE30E94DA539B01AC01C701B6018C
:101550000E9415556B017C01BE0190E080E00E9465
:10156000795324E73EE54BE35FEB0E94DA539B019E
:10157000AC01C701B6010E9415550E946C56CB0103
:10158000DF91CF911F910F91FF90EF90DF90CF905F
:1015900008958150823108F05AC0E82FF0E0882782
:1015A000EB52F54F8F4F0C949B58F50AF90AE70A56
:1015B000ED0AF10A270BFC0A020B060B0C0B100BB1
:1015C000140B1A0B1E0B270B220B280B2C0B8091D4
:1015D00080008F77809380000895809180008F7DB8
:1015E000F9CF80918000877FF5CF84B58F7784BD58
:1015F000089584B58F7DFBCF8091B0008F77809365
:10160000B00008958091B0008F7DF9CF8091900057
:101610008F77809390000895809190008F7DF9CF0F
:1016200080919000877FF5CF8091A0008F77809385
:10163000A00008958091A0008F7DF9CF8091A00037
:10164000877FF5CF809120018F77809320010895C7
:10165000809120018F7DF9CF80912001877FF5CF88
:10166000CF93DF93282F30E0F901E758FC4E8491A7
:10167000F901E35FFB4ED491F901ED5AFB4EC491A1
:10168000CC23A1F081110E94C90AEC2FF0E0EE0FEB
:10169000FF1FE154FC4EA591B491EC91ED2381E044
:1016A00090E009F480E0DF91CF91089580E090E030
:1016B000FACF1F93CF93DF93282F30E0F901E7583B
:1016C000FC4E8491F901E35FFB4ED491F901ED5A90
:1016D000FB4EC491CC23A9F0162F81110E94C90A98
:1016E000EC2FF0E0EE0FFF1FED50FC4EA591B491F2
:1016F0008FB7F894EC91111108C0D095DE23DC93DC
:101700008FBFDF91CF911F910895DE2BF8CFCF933C
:10171000DF9390E0FC01E35FFB4E24918D5A9B4EDA
:10172000FC0184918823C9F090E0880F991FFC0187
:10173000E752FC4EA591B491FC01ED50FC4EC591D1
:10174000D49161110DC09FB7F8948C91209582239C
:101750008C938881282328839FBFDF91CF910895A0
:10176000623051F49FB7F8943C91822F8095832387
:101770008C93E8812E2BEFCF8FB7F894EC912E2B22
:101780002C938FBFEACF863308F0865320917B00DD
:10179000982F9870277F922B90937B0020911B02AB
:1017A00090E4299F900111248770822B80937C0004
:1017B00080917A00806480937A0080917A0086FD1F
:1017C000FCCF809178009091790008958230910546
:1017D00038F0880F991F880F991F05970197F1F727
:1017E00008953FB7F8948091FF0F90910010A09159
:1017F0000110B091021026B5A89B05C02F3F19F02B
:101800000196A11DB11D3FBFBA2FA92F982F882780
:10181000BC01CD01620F711D811D911D42E0660F5B
:10182000771F881F991F4A95D1F708958F929F922D
:10183000AF92BF92CF92DF92EF92FF926B017C0149
:101840000E94F10B4B015C01C114D104E104F104CD
:10185000B9F00E94F10B681979098A099B09683E61
:1018600073408105910580F321E0C21AD108E10897
:10187000F10888EE880E83E0981EA11CB11CE4CF0D
:10188000FF90EF90DF90CF90BF90AF909F908F90A0
:1018900008952FB7F8946091FB0F7091FC0F809121
:1018A000FD0F9091FE0F2FBF089508950895909118
:1018B000000289130DC0EDEEFEE0E4919FEF9093DE
:1018C0000002E230E1F038F4EE2381F0E13089F0FB
:1018D00060E00C94590BE43049F110F1E530C1F7A8
:1018E000909173009D7F90937300F2CF10926E00E1
:1018F000EFCF90916F009D7F90936F00E9CF909113
:1019000070009D7F9093700091E09093B000909153
:10191000B100987F94609093B1001092B300D8CF3B
:10192000909171009D7F90937100D2CF9091720041
:101930009D7F90937200CCCFAF92BF92CF92DF92F7
:10194000EF92FF920F931F93CF93DF936C017B0174
:101950008B01040F151FEB015E01AE18BF08C01705
:10196000D10759F06991D601ED91FC910190F08178
:10197000E02DC6011995892B79F7C501DF91CF912B
:101980001F910F91FF90EF90DF90CF90BF90AF909D
:101990000895FC01538D448D252F30E0842F90E075
:1019A000821B930B541710F0CF960895019708955A
:1019B000FC01918D828D981761F0A28DAE0FBF2F23
:1019C000B11D5D968C91928D9F5F9F73928F90E079
:1019D00008958FEF9FEF08950F931F930E94490C76
:1019E00060937D1070937E1080937F109093801091
:1019F00085E790E10E94D80C97FF1DC00E94490C1A
:101A000000917D1010917E1020917F1030918010F8
:101A1000601B710B820B930B0091791010917A105F
:101A200020917B1030917C1060177107820793071B
:101A3000F8F28FEF9FEF1F910F910895FC01918DA8
:101A4000828D981731F0828DE80FF11D858D90E021
:101A500008958FEF9FEF08950F931F930E94490CF5
:101A600060937D1070937E1080937F109093801010
:101A700085E790E10E941E0D97FF1DC00E94490C52
:101A800000917D1010917E1020917F103091801078
:101A9000601B710B820B930B0091791010917A10DF
:101AA00020917B1030917C1060177107820793079B
:101AB000F8F28FEF9FEF1F910F910895CF92DF9271
:101AC000EF92FF92CF930E942C0DFC0197FD4EC028
:101AD0008D32910521F0C0970A9708F040C0C12CC3
:101AE000D12C7601C0E0E130F105D1F0ED32F10505
:101AF000D9F1CF01C0970A9798F4AAE0B0E0A70106
:101B000096010E94D0546F01FF0FEE08FF08C60E29
:101B1000D71EE81EF91E80E3C81AD108E108F108B3
:101B200085E790E10E94D80C0E942C0DFC01C09723
:101B30000A97C8F2E130F105B1F2CC2341F0F094FC
:101B4000E094D094C094C11CD11CE11CF11CC701CD
:101B5000B601CF91FF90EF90DF90CF90089585E789
:101B600090E10E94D80CAFCFC1E0DACFC12CD12CCC
:101B70007601EDCFFC01918D228D892F90E0805C64
:101B80009F4F821B91098F739927089585E790E1F4
:101B90000E94BA0D21E0892B09F420E0822F0895DC
:101BA000FC01A48DA80FB92FB11DA35ABF4F2C91D2
:101BB000848D90E001968F739927848FA689B789C9
:101BC0002C93A089B1898C91837080648C93938DC0
:101BD000848D981306C00288F389E02D80818F7D63
:101BE00080830895EF92FF920F931F93CF93DF931B
:101BF000EC0181E0888F9B8D8C8D98131AC0E88949
:101C0000F989808185FF15C09FB7F894EE89FF8917
:101C10006083E889F98980818370806480839FBFB5
:101C200081E090E0DF91CF911F910F91FF90EF90B5
:101C30000895F62E0B8D10E00F5F1F4F0F731127C5
:101C4000E02E8C8D8E110CC00FB607FCFACFE88900
:101C5000F989808185FFF5CFCE010E94D00DF1CFAB
:101C6000EB8DEC0FFD2FF11DE35AFF4FF0829FB774
:101C7000F8940B8FEA89FB8980818062CFCF0F9324
:101C80001F93CF93DF938C01D0E0C0E0F801EC0FFD
:101C9000FD1F6491662341F085E790E10E94F20DFB
:101CA000892B11F02196F2CFCE01DF91CF911F91B8
:101CB0000F910895CF93DF93EC01888D8823B9F0BD
:101CC000AA89BB89E889F9898C9185FD03C0808147
:101CD00086FD0DC00FB607FCF7CF8C9185FFF2CFC4
:101CE000808185FFEDCFCE010E94D00DE9CFDF913D
:101CF000CF91089580E090E0892B29F00E94C60DD5
:101D000081110E94000080E090E0892B49F080E082
:101D100090E0892B29F00E94000081110E940000B0
:101D200080E090E0892B49F080E090E0892B29F059
:101D30000E94000081110E94000080E090E0892B49
:101D400049F080E090E0892B29F00E940000811189
:101D50000C940000089520919F0F260F3327331F06
:101D600021323105ECF420914B10FC0190E080E031
:101D7000243069F082E00895A0919F0F2191AC0179
:101D80004158504FA40FB52FB11D2C9301968617C3
:101D900098F380919F0F680F60939F0F80E00895E4
:101DA00081E0089510924B1081E080934A101092C8
:101DB000251061E084E10E94590B61E085E10E94F9
:101DC000590BE9EBF0E080818E7F808380818D7FED
:101DD000808388E48093B80085E48093BC000895F4
:101DE000CF93DF9391E090937E0F8823B9F0C09159
:101DF000B800D091BA008091BC008A7B8093BC006F
:101E000060E084E10E94590B60E085E10E94590B7B
:101E10000E94D20ED093BA00C093B800DF91CF9148
:101E200008958F929F92AF92BF92CF92DF92EF92DE
:101E3000FF920F931F93CF93DF93D0917410D13201
:101E400008F0D7C0182FC09173100E94F10B6B01DE
:101E50007C0180914B1081116BC082E080934B100C
:101E600010934A108FEF8093491010924810D0932E
:101E70004710A3E5B0E1E7E2F0E180E0D81391C0BC
:101E80001092261080912610CC0FC82BC0932610DC
:101E900080912510813009F088C0109225100E9491
:101EA000F10B6B017C01809126108093BB00809127
:101EB0004D1090914E10A0914F10B0915010892B61
:101EC0008A2B8B2BA1F00E94F10B00914D101091E9
:101ED0004E1020914F10309150106C197D098E09D1
:101EE0009F09061717072807390708F442C0809191
:101EF000BC0083FDD8CF85EC8093BC000E94F10B21
:101F00006B017C0180914B10823009F450C08091AC
:101F100049108F3F09F46FC080914910803209F455
:101F20006CC080914910803309F469C084E026C0F8
:101F300080914D1090914E10A0914F10B091501083
:101F4000892B8A2B8B2B09F484CF0E94F10B809074
:101F50004D1090904E10A0904F10B09050106C19F2
:101F60007D098E099F0986169706A806B90608F00E
:101F700070CF80914C100E94F00E85E010925210AC
:101F80001092741010925110DF91CF911F910F9108
:101F9000FF90EF90DF90CF90BF90AF909F908F9089
:101FA00008959D9191938F5F69CF85EEA5CF809124
:101FB0004D1090914E10A0914F10B0915010892B60
:101FC0008A2B8B2B09F49ECF0E94F10B00914D10B0
:101FD00010914E1020914F10309150106C197D09C6
:101FE0008E099F09061717072807390708F08ACFB7
:101FF000C0CF81E0C3CF80E0C1CF82E0BFCF83E01C
:10200000BDCF1F93CF93DF93162FCEE1D1E1A981EE
:10201000BA819B8121E0209351109093731010920C
:10202000521010927410ED91FC9111970190F08173
:10203000E02D682FCD01199589819A81DC01ED9100
:10204000FC910190F081E02D612F199581E0DF91E5
:10205000CF911F910C94110F0895E091041080917D
:102060000310E81730F4F0E0EB5FFF4E808190E062
:1020700008958FEF9FEF08959091041080910310C1
:102080002FEF3FEF981748F4E92FF0E0EB5FFF4E9A
:10209000208130E09F5F90930410C90108958091E2
:1020A000031090910410891B990B0895CF92DF9231
:1020B000EF92FF920F931F93CF93DF937C01CB019D
:1020C0008A0120915110222389F0EB016B01C40E8B
:1020D000D51ECC15DD0569F06991D701ED91FC9114
:1020E0000190F081E02DC7011995F3CF642F0E9474
:1020F000AB0EC801DF91CF911F910F91FF90EF9030
:10210000DF90CF900895CF93DF931F92CDB7DEB7C6
:102110006983209151102223F9F02091741020320C
:1021200058F021E030E0FC013383228390E080E02E
:102130000F90DF91CF91089580915210E82FF0E039
:10214000ED5AFF4E998190838F5F80935210809358
:10215000741081E090E0ECCF61E0CE0101960E9426
:10216000AB0EF7CF90E080E00895CF92DF92EF9230
:10217000FF920F931F93CF93DF93EC01EE81FF81CA
:1021800090818B81809589238083EA85FB8580817E
:102190009B81892B8083EC81FD8190818A81809550
:1021A00089238083E885F98580819A81892B8083C2
:1021B00089899A89009711F00E94E60BEA85FB85D0
:1021C00090818B818095892380838B89882331F04E
:1021D000EE81FF8180819B81892B80838C8988237C
:1021E000C9F00E94490C6B017C01EE85FF8580815E
:1021F0009B81892379F40E94490C6C197D098E0911
:102200009F090D891E892F89388D601771078207F4
:10221000930758F389899A89009711F00E94E60B79
:10222000E885F98590818A818095892380838B89CF
:10223000882331F0EC81FD8180819A81892B808314
:1022400089899A89009751F0DF91CF911F910F9161
:10225000FF90EF90DF90CF900C94E60BDF91CF9141
:102260001F910F91FF90EF90DF90CF900895CF9343
:10227000DF93EC01E885F98590818A818095892337
:1022800080838B89882331F0EC81FD8180819A8164
:10229000892B8083EA85FB8590818B8180958923BA
:1022A00080838B89882331F0EE81FF8180819B813F
:1022B000892B808389899A89009711F00E94E60B07
:1022C000EC85FD8590818A819823EE85FF852081AC
:1022D0003B81232311F480E028C09923E1F3EC81B2
:1022E000FD819081809589238083E885F9858081AF
:1022F0009A81892B808389899A89009711F00E949D
:10230000E60BEE81FF8190818B818095892380830C
:10231000EA85FB8580819B81892B808389899A89C5
:10232000009711F00E94E60B81E0DF91CF910895B4
:10233000CF92DF92EF92FF920F931F93CF93DF9391
:10234000EC01E885F98590818A81809589238083D5
:102350008B89882331F0EC81FD8180819A81892BE2
:102360008083EA85FB8590818B818095892380839A
:102370008B89882331F0EE81FF8180819B81892BBD
:1023800080838C898823C9F00E94490C6B017C01F1
:10239000EE85FF8580819B81892379F40E94490C19
:1023A0006C197D098E099F090D891E892F89388D29
:1023B000601771078207930758F389899A890097F4
:1023C00011F00E94E60BEC85FD8580819A818923BE
:1023D00011E009F410E0EE81FF8190818B818095FE
:1023E00089238083EA85FB8580819B81892B80837B
:1023F00089899A89009711F00E94E60B812FDF915D
:10240000CF911F910F91FF90EF90DF90CF900895A3
:10241000CF92DF92EF92FF920F931F93CF93DF93B0
:10242000EC018A81809561115EC0EC81FD81908113
:1024300089238083E885F98580819A81892B80832F
:1024400089899A89009711F00E94E60BEA85FB853D
:1024500090818B818095892380838B89882331F0BB
:10246000EE81FF8180819B81892B80838C898823E9
:10247000C9F00E94490C6B017C01EE85FF858081CB
:102480009B81892379F40E94490C6C197D098E097E
:102490009F090D891E892F89388D60177107820762
:1024A000930758F389899A89009711F00E94E60BE7
:1024B000EE81FF8190818B81809589238083EA85DD
:1024C000FB8580819B81892B808389899A890097EC
:1024D000B1F0DF91CF911F910F91FF90EF90DF90BE
:1024E000CF900C94E60BE885F98590818923808351
:1024F0008B89882309F4A4CFEC81FD819DCFDF91E6
:10250000CF911F910F91FF90EF90DF90CF900895A2
:102510000F931F93CF93DF938C01D62FC8E06D2FBD
:102520006078C8010E940812DD0FC150C1F7C801D0
:10253000DF91CF911F910F910C949811CF93DF935E
:10254000FC012089211106C0EC010E948812811132
:1025500006C0188A81E090E0DF91CF91089582E073
:10256000888BF8CF1F93CF93DF93EC01162F188A37
:102570000E943711882379F0612F660FCE010E94E7
:102580008812811105C0188ADF91CF911F9108959B
:1025900082E0888BF9CF84E0FCCFFC019389138A19
:1025A000A085B1852C918281809582238C9383892B
:1025B000882331F0A481B5818C912281822B8C9368
:1025C000A285B3852C918381809582238C93838906
:1025D000882331F0A681B7818C912381822B8C9343
:1025E000938B08950F931F93CF93DF93CDB7DEB7EF
:1025F000EB970FB6F894DEBF0FBECDBFDC011C9287
:102600008BEE90E014969C938E93139781E090E06C
:1026100012969C938E93119715966C931597169618
:102620004C93169769834A838C8B8D8B82E090E064
:102630009B8B8A8B08EE13E020E030E00E8B1F8B23
:10264000288F398F70E0FB01ED5AFB4E2491635FB8
:102650007B4EFB0164916B8330E0220F331FF90145
:10266000ED50FC4E859194919E838D83F901E75244
:10267000FC4E859194919A878987F901E154FC4E2B
:10268000859194919E878D8750E0FA01ED5AFB4E1B
:102690002491435F5B4EFA0144914C8330E0220F5A
:1026A000331FF901ED50FC4E8591949198878F83EB
:1026B000F901E752FC4E859194919C878B87F90133
:1026C000E154FC4E85919491988B8F878BE3FE01AA
:1026D0003196179601900D928A95E1F7CE010196F9
:1026E0000E94CD12EB960FB6F894DEBF0FBECDBFA1
:1026F000DF91CF911F910F910895CF92DF92EF92CA
:10270000FF92CF93DF93EC01603282E07807CCF543
:10271000653B710514F064EB70E0898128E830E0D6
:10272000281B310987FD3395220F331F220F331FDA
:102730006901330FEE08FF088A8128E532E0281B83
:10274000310987FD3395220F331F220F331F032ECC
:10275000000C440B550B2C193D094E095F09DB0198
:1027600077FF02C0B0E0A0E00E94DB5424EB30E031
:1027700040E050E00E94B154C20ED31EE41EF51E8C
:10278000B601E881E03370F5298188E890E0821B8A
:10279000910927FD9395880F991F880F991F681736
:1027A00079077CF02A8188E592E0821B910927FD58
:1027B0009395880F991F880F991F681779070CF454
:1027C000CB010297880F991F4FB7F8942E2F30E056
:1027D000F901EE0FFF1FE20FF31FE251F14F928359
:1027E00081834FBFDF91CF91FF90EF90DF90CF902B
:1027F00008951F93CF93DF93EC01162F88818033C8
:1028000008F04EC061E0812F0E94870B8881282F3D
:1028100030E0F901EE0FFF1FE20FF31FE251F14F1D
:102820001F736081607C612B608319821A822CE0A7
:10283000622F0E947B58829FB001112430E020E07B
:10284000AB01420F531FFA01EE0FFF1FE40FF51FFC
:10285000E251F14F908196FD16C02F5F3F4F2C3013
:10286000310571F7813009F51092800082E0809384
:1028700081001092850010928400B19A80916F00BF
:10288000826080936F00E8818E2F90E0FC01EE0F54
:10289000FF1FE80FF91FE251F14F808180648083B0
:1028A0008881DF91CF911F910895823061F4109259
:1028B000900080939100109295001092940088BB34
:1028C00080937100E0CF833069F41092A00082E021
:1028D0008093A1001092A5001092A40089BB809360
:1028E0007200D1CF8111CFCF1092200182E080936E
:1028F000210110922501109224018ABB809373005C
:10290000C2CFFC019091ED0E903398F481E0890FD5
:102910008093ED0E9083892F90E0FC01EE0FFF1F56
:10292000E80FF91FE251F14F88EB9BE0928381831E
:1029300008958FEF80830895AF92BF92CF92DF9278
:10294000EF92FF920F931F93CF93DF936B017A0166
:10295000EC01C751D14F28813CE0389F8001399F5D
:10296000100D1124A090ED0EB12C27FF1FC0FB010C
:102970001182108288818F5F888388819801280F57
:10298000311D87FD3A95F6012A153B051CF4888117
:102990008C30C4F180819181049680349C4908F484
:1029A00073C0F60180819181049670C0888198017E
:1029B000280F311D87FD3A952A153B05DCF68881E5
:1029C000A801480F511D87FD5A95FA01EE0FFF1F10
:1029D000E40FF51FE251F14F808186FFCBCF888154
:1029E000F801E80FF11D87FDFA95CF01EE0FFF1FEB
:1029F000E80FF91FE251F14F808160E08F730E9470
:102A0000590BB8CF808191812881A801420F511DB7
:102A100027FD5A959A01FA01EE0FFF1FE20FF31FEF
:102A2000E251F14F21813281820F931FF70191838F
:102A3000808388819801280F311D87FD3A95F9011F
:102A4000EE0FFF1FE20FF31FE251F14F808186FF6F
:102A500022C08881080F111D87FD1A95F801EE0F1D
:102A6000FF1FE00FF11FE251F14F808161E08F7392
:102A7000DF91CF911F910F91FF90EF90DF90CF905A
:102A8000BF90AF900C94590B80E49CE9F7019183BF
:102A900080838FEF8883DF91CF911F910F91FF90FB
:102AA000EF90DF90CF90BF90AF900895E0917D11AF
:102AB0008E2F90E0FC01EE0FFF1FE80FF91FE2518F
:102AC000F14F80818F7B8083E0917A118E2F90E08F
:102AD000FC01EE0FFF1FE80FF91FE251F14F80815B
:102AE0008F7B808364EF71E080E090E00C94160CA3
:102AF00068E070E080E891E10E94F9136CE070E01A
:102B00008DE791E10E94F9136AE070E08AE791E1B4
:102B10000E94F91364EF71E080E090E00C94160CD1
:102B2000CF93DF93D62FC42F682F8CE10E94590BCF
:102B30006D2F8EE10E94590B6C2F82E1DF91CF91B6
:102B40000C94590BCF93DF93D62FC42F682F8BE1B2
:102B50000E94590B6D2F8DE10E94590B6C2F8FE154
:102B6000DF91CF910C94590B0F931F93CF93DF9369
:102B70000EEE1EE0CBECDEE0F801859194910E9410
:102B8000300B899399930E5F1F4F8EE0C53DD80798
:102B900099F78BEC9EE0DF91CF911F910F910895F3
:102BA0002F923F924F925F926F927F928F929F925D
:102BB000AF92BF92CF92DF92EF92FF920F931F934B
:102BC000CF93DF9300D000D01F92CDB7DEB77D83C7
:102BD0006C83312C212C88248A94982C54016C010C
:102BE000990FEE08FF0803E714E12A01550F660864
:102BF000770880910002803239F5EDEEFEE0F49125
:102C0000FE83F7FD70C061E080E20E94870BFE81C9
:102C1000F11139C0C982DA82EB82FF8268E478EE72
:102C200081E090E029813A814B815F810E94B1541B
:102C3000BA01A90141505109610971099E81992385
:102C400009F4CEC194E03DC08F3F09F04CC080E252
:102C500080930002EDEEFEE0F491FE838F2FFF3FA4
:102C600009F441C0F23009F4C8C008F069C0FF237C
:102C700009F48DC0F13009F4A2C087FD34C061E0D1
:102C800080E20E94870B8E81823009F016C1C982D2
:102C9000DA82EB82FF8260E970ED83E090E0A701C9
:102CA00096010E94B154BA01A9014150510961092C
:102CB000710993E04F3F51056105710511F00CF06A
:102CC000ADCF8091B100887F892B8093B100EE81D8
:102CD000E23009F475C10CF06BC1EE2309F484C134
:102CE000E13009F401C1C301B2010E94160C80E277
:102CF0000E94570CC301B2010E94160C8FEF281AD4
:102D0000380AEC81FD81E215F30509F072CF2796B0
:102D10000FB6F894DEBF0FBECDBFDF91CF911F91EC
:102D20000F91FF90EF90DF90CF90BF90AF909F906A
:102D30008F907F906F905F904F903F902F9008956D
:102D40009E81943009F49BC008F479C0953009F055
:102D500094CF10922001109221018091210188606E
:102D60008093210180912101816080932101F801EC
:102D70008491E82FF0E0EE0FFF1FED50FC4E85919F
:102D80009491EDE2F4E184918093B20E3CCF14BCB7
:102D900015BC84B5826084BD85B5816085BDF801B0
:102DA0008491E82FF0E0EE0FFF1FED50FC4E85916F
:102DB0009491EDE2F4E184918093B60E24CF1092C9
:102DC0008000109281008091810088608093810052
:102DD00080918100816080938100F8018491E82FC7
:102DE000F0E0EE0FFF1FED50FC4E85919491EDE267
:102DF000F4E184918093B50E06CF1092B00010924A
:102E0000B1008091B00082608093B0008091B100E9
:102E100081608093B100F8018491E82FF0E0EE0F1B
:102E2000FF1FED50FC4E859194919093C30F8093BA
:102E3000C20FEDE2F4E184918093C40FE4CE1092CE
:102E40009000109291008091910088608093910091
:102E500080919100816080939100F8018491E82F26
:102E6000F0E0EE0FFF1FED50FC4E85919491EDE2E6
:102E7000F4E184918093B40EF3E0FE83C4CE10920B
:102E8000A0001092A1008091A10088608093A10011
:102E90008091A10081608093A100F8018491E82FC6
:102EA000F0E0EE0FFF1FED50FC4E85919491EDE2A6
:102EB000F4E184918093B30EA6CE60E072E18AE7DC
:102EC00090E0A70196010E94B154BA01A9014150B6
:102ED000510961097109EE81E130C1F480918100ED
:102EE000887F81608093810050938900409388009F
:102EF0008092C30E9092C40EA092C50EB092C60EE0
:102F000080916F00826080936F00EDCEFE81F33080
:102F1000C1F480919100887F8160809391005093EB
:102F20009900409398008092BF0E9092C00EA0929C
:102F3000C10EB092C20E80917100826080937100C8
:102F4000D2CE8E818430C1F48091A100887F8160CF
:102F50008093A1005093A9004093A8008092BB0EDB
:102F60009092BC0EA092BD0EB092BE0E80917200E7
:102F7000826080937200B7CE9E81953009F0A7CE13
:102F800080912101887F81608093210150932901E4
:102F9000409328018092B70E9092B80EA092B90E7D
:102FA000B092BA0E809173008260809373009BCEC2
:102FB000FE81F43079F20CF4B2CFF53039F393CED0
:102FC0004093B3008092C50F9092C60FA092C70F96
:102FD000B092C80F8091700082608093700083CEA1
:102FE00085B5887F836085BD47BD8092C70E90926E
:102FF000C80EA092C90EB092CA0E80916E00826077
:1030000080936E0070CE4F925F926F927F928F92FC
:103010009F92AF92BF92CF92DF92EF92FF920F9367
:103020001F93CF93DF93CDB7DEB72E970FB6F894EB
:10303000DEBF0FBECDBF80911F1190912011209156
:10304000211131E0309351102093731010925210DF
:1030500010927410DC01ED91FC910190F081E02D53
:103060006BE3199580E00E94110F109121110E94CD
:10307000F10B4B015C0180914B10811166C081E026
:1030800080934B1080934A109FEF909349101092B9
:1030900048109DE090934710809326108091261051
:1030A000110F182B1093261080912510813009F0F4
:1030B000A9C1109225100E94F10B4B015C01809177
:1030C00026108093BB0080914D1090914E10A091DE
:1030D0004F10B0915010892B8A2B8B2BA1F00E949E
:1030E000F10B00914D1010914E1020914F10309126
:1030F0005010681979098A099B09061717072807CC
:10310000390708F443C08091BC0083FDD8CF85EC1B
:103110008093BC000E94F10B4B015C0180914B102D
:10312000813009F471C1809148108E3008F08EC151
:1031300080914810A7E2B0E1E5E0F0E190E0981757
:1031400051F12D9121939F5FFACF80914D10909175
:103150004E10A0914F10B0915010892B8A2B8B2BC1
:1031600009F489CF0E94F10B40904D1050904E1001
:1031700060904F1070905010681979098A099B0966
:10318000461657066806790608F075CF80914C10F0
:103190000E94F00E80E010920410809303108E01C4
:1031A0000F5F1F4F6E01BFE0CB0ED11C80911F112E
:1031B00090912011DC01ED91FC910284F385E02DCA
:1031C0001995B82E80911F1190912011DC01ED917D
:1031D000FC910284F385E02D1995E12C8E299B2921
:1031E000F801819391938F01CE16DF06F9F6C09016
:1031F0002611D0902711E0902811F09029116981B3
:103200007A81072E000C880B990B0E947B53A70133
:1032100096010E94F355209136113091371140915B
:103220003811509139110E941455609346117093D2
:10323000471180934811909349116B817C81072E2F
:10324000000C880B990B0E947B53A70196010E94EA
:10325000F35520913A1130913B1140913C1150911E
:103260003D110E94145560934A1170934B11809345
:103270004C1190934D1180911E1161E06827681BDD
:10328000770B072E000C880B990B0E947B534B0188
:103290005C016D817E81072E000C880B990B0E94CA
:1032A0007B539B01AC01C501B4010E94DA53A70115
:1032B00096010E94F35520913E1130913F114091AB
:1032C0004011509141110E94145560934E1170931A
:1032D0004F1180935011909351116F817885072E73
:1032E000000C880B990B0E947B5320E030EF41E4E7
:1032F00056E40E94155520E030E04AEA53E40E946B
:10330000F35560934211709343118093441190934D
:103310004511C0902211D0902311E0902411F0901B
:10332000251169857A85072E000C880B990B0E9460
:103330007B53A70196010E94F35520912A113091E9
:103340002B1140912C1150912D110E941455609316
:1033500052117093531180935411909355116B85B2
:103360007C85072E000C880B990B0E947B53A701CC
:1033700096010E94F35520912E1130912F1140910A
:103380003011509131110E94145560935611709371
:10339000571180935811909359116D857E85072E92
:1033A000000C880B990B0E947B53A70196010E9489
:1033B000F3552091321130913311409134115091D5
:1033C00035110E94145560935A1170935B118093CC
:1033D0005C1190935D112E960FB6F894DEBF0FBE70
:1033E000CDBFDF91CF911F910F91FF90EF90DF90B4
:1033F000CF90BF90AF909F908F907F906F905F9095
:103400004F90089585EE84CE80914D1090914E108E
:10341000A0914F10B0915010892B8A2B8B2B09F45F
:103420007DCE0E94F10B00914D1010914E10209115
:103430004F1030915010681979098A099B090617B5
:1034400017072807390708F069CEA0CE8EE072CEA4
:103450007F928F929F92AF92BF92CF92DF92EF9224
:10346000FF920F931F93CF93DF93EC01062F142F3E
:10347000188A19AE1AAE0E943711882309F457C072
:10348000602F660F6160CE010E94881281114BC0CF
:10349000188A7E01A12EB12CD12CC12C450181E0CE
:1034A000881A9108CA14DB0459F100E088E0782EEC
:1034B000C814D904DCF4000FCE010E949811082B27
:1034C0007A947110F8CF60E0CE010E9408128989C9
:1034D0009A89009711F00E94E60BF701018FFFEF28
:1034E000CF1ADF0A8FEFE81AF80ADCCF000FCE01FF
:1034F0000E949811082B7A947110F8CF61E0E4CF04
:1035000019AFCE010E94B510812FDF91CF911F918D
:103510000F91FF90EF90DF90CF90BF90AF909F9072
:103520008F907F90089582E0888B10E0EACF84E04E
:10353000FBCF0F931F93CF93DF93162F022FEC0136
:10354000279669E2CE010E94B212612F6068CE0117
:103550000E949E12602FCE010E949E12CE01DF912A
:10356000CF911F910F910C94B510FF920F931F9361
:10357000CF93DF93EC01F62E8C01095F1F4F69E2B8
:10358000C8010E94B2126F2D6068C8010E949E128D
:10359000C8010E94B51042E069E2C8010E94281AE1
:1035A000FE01E05CFF4F8081319690812FEF3FEF6D
:1035B000981740F4DE01A90FB11D90962C9130E0D0
:1035C0009F5F908390814FEF5FEF981728F4C90FAA
:1035D000D11D48A19F5F908380E0942F822B932B75
:1035E000DF91CF911F910F91FF9008954F925F92BD
:1035F0006F927F928F929F92AF92BF92CF92DF9203
:10360000EF92FF920F931F93CF93DF93CDB7DEB767
:103610002C970FB6F894DEBF0FBECDBF0E940318E3
:10362000C0904E11D0904F11E0905011F090511178
:1036300021E030E03A83298320E030E0A901C7018E
:10364000B6010E94C25687FF02C01A82198201E0A9
:1036500010E020E030E0A901C701B6010E947453D8
:1036600087FD02C010E000E069817A81601B710B68
:10367000072E000C880B990B0E947B536D837E8371
:103680008F839887A7019601C701B6010E94DA537C
:103690002B013C01C0904611D0904711E090481199
:1036A000F0904911A7019601C701B6010E94DA53B3
:1036B000A30192010E9415550E9425579B01AC0160
:1036C00080904A1190904B11A0904C11B0904D11E8
:1036D0006D817E818F8198850E94DA539B01AC01B8
:1036E000C501B4010E94945521EE3EE245E652E444
:1036F0000E94DA5360935E1170935F1180936011A2
:1037000090936111A5019401C501B4010E94DA539F
:10371000A30192010E9415550E9425579B01AC01FF
:10372000C701B6010E949455905821EE3EE245E64D
:1037300052E40E94DA536093621170936311809394
:103740006411909365110E94490C6B017C0180917A
:10375000721190917311A0917411B0917511A7011C
:103760009601281B390B4A0B5B0BCA01B9010E9459
:1037700079532FE632E143E85AE30E94DA534B01D2
:103780005C01C0927211D0927311E0927411F092A8
:1037900075118091761190917711A0917811B09167
:1037A000791189839A83AB83BC8340905E115090DA
:1037B0005F116090601170906111209152113091F1
:1037C00053114091541150915511C501B4010E94FB
:1037D000DA53209166113091671140916811509130
:1037E00069110E941555A30192010E9414556B01A5
:1037F0007C0120E030E044E353E40E94C2561816F6
:103800003CF420E030E044EB53E4C701B601EDCFD7
:1038100020E030E044E353ECC701B6010E9474534A
:1038200087FF0BC020E030E044EB53E4C701B60152
:103830000E9415556B017C01EBCF29813A814B81A8
:103840005C8160E070E080E89FE30E941455698726
:103850007A878B879C87A7019601C301B2010E94DA
:10386000155529813A814B815C810E94DA536B01A5
:103870007C0129853A854B855C85C301B2010E9494
:10388000DA539B01AC01C701B6010E9415556B01CB
:103890007C0120E030E044E353E40E94C256181655
:1038A0004CF420E030E044EB53E4C701B6010E9441
:1038B0001455EDCF20E030E044E353ECC701B601EE
:1038C0000E94745387FF0BC020E030E044EB53E4C8
:1038D000C701B6010E9415556B017C01EBCFC09268
:1038E0006611D0926711E0926811F09269114090D0
:1038F0006211509063116090641170906511209175
:1039000056113091571140915811509159116D81B4
:103910007E818F8198850E94DA53A50194010E94CF
:10392000DA5320916A1130916B1140916C115091D2
:103930006D110E941555A30192010E9414556B014F
:103940007C0120E030E044EB52E40E94C25618169D
:103950003CF420E030E044E353E4C701B601EDCF8E
:1039600020E030E044EB52ECC701B6010E947453F2
:1039700087FF0BC020E030E044E353E4C701B60109
:103980000E9415556B017C01EBCFA7019601C30185
:10399000B2010E94155529813A814B815C810E94B8
:1039A000DA536B017C01A301920169857A858B85CD
:1039B0009C850E94DA539B01AC01C701B6010E94AD
:1039C00015556B017C0120E030E044EB52E40E948D
:1039D000C25618164CF420E030E044E353E4C7012B
:1039E000B6010E941455EDCF20E030E044EB52ECDC
:1039F000C701B6010E94745387FF0BC020E030E07E
:103A000044E353E4C701B6010E9415556B017C01E4
:103A1000EBCFC0926A11D0926B11E0926C11F092D0
:103A20006D1120915A1130915B1140915C115091B0
:103A30005D11C501B4010E94DA5320916E113091DD
:103A40006F1140917011509171110E941555609342
:103A50006E1170936F1180937011909371112C9669
:103A60000FB6F894DEBF0FBECDBFDF91CF911F918F
:103A70000F91FF90EF90DF90CF90BF90AF909F900D
:103A80008F907F906F905F904F9008950E94F61AEC
:103A900060916A1170916B1180916C1190916D1110
:103AA0000E946556CB010895CF92DF92EF92FF926C
:103AB0000E94F61AC0906E11D0906F11E0907011B4
:103AC000F090711120E030E0A901C701B6010E9419
:103AD000C25620E030E040E05FE387FD0CC0C70144
:103AE000B6010E9415550E946556CB01FF90EF90DC
:103AF000DF90CF900895C701B6010E941455F3CF0F
:103B00000E94541D9093E60E8093E50E2091CD0FF8
:103B10003091CE0FA901415051098417950764F4E3
:103B200062E370E086E891E10E947D1360EA70E054
:103B300083E891E10C947D13A9014F5F5F4F481713
:103B400059074CF464E170E086E891E10E947D132E
:103B500062E870E0EDCF281B390B37FF03C03195C9
:103B600021953109223031054CF468E270E086E895
:103B700091E10E947D136CE870E0DACF0895FC01BA
:103B800001900020E9F73197AF01481B590BBC01A8
:103B900085E790E10C949C0C86E492E00C94BF1DA8
:103BA000CF93DF930E943F0EEC010E94CC1D8C0F3F
:103BB0009D1FDF91CF9108958AE399E00E94D01D67
:103BC00082E299E00E94D01D8AE099E00E94D01D17
:103BD00087EF98E00E94D01D84EE98E00E94D01DEF
:103BE00083ED98E00E94D01D82EC98E00E94D01DE9
:103BF00086EA98E00E94D01D88E898E00E94D01DD7
:103C00008DE798E00E94D01D8CE698E00C94D01DC2
:103C100085E498E00E94D01D8DE298E00E94D01DBE
:103C200088E198E00E94D01D88E098E00E94D01DB5
:103C300088EF97E00E94D01D8AEE97E00E94D01D89
:103C40008CED97E00E94D01D83EC97E00E94D01D80
:103C500081EA97E00E94D01D86E997E00E94D01D7E
:103C600085E897E00C94D01D8AE697E00E94D01D6D
:103C700084E597E00E94D01D8BE397E00E94D01D61
:103C800085E297E00E94D01D8AE197E00E94D01D56
:103C900089E097E00C94D01D89EF96E00E94D01D3A
:103CA00081EE96E00E94D01D84ED96E00E94D01D2A
:103CB00081EC96E00E94D01D8BEA96E00E94D01D18
:103CC00088E996E00E94D01D8EE796E00E94D01D04
:103CD00085E696E00E94D01D89E496E00E94D01D02
:103CE0008CE296E00E94D01D83E296E00E94D01DF7
:103CF00082E196E00C94D01D8F929F92AF92BF927A
:103D00000F931F93CF93DF93CDB7DEB7A1970FB675
:103D1000F894DEBF0FBECDBF19A2423008F44AE0CE
:103D20008E010F5D1F4F842E912CB12CA12CA5016B
:103D300094010E94E354E62FB901CA01EA30F4F479
:103D4000E05DD801EE938D01232B242B252B79F7F1
:103D500090E080E0109719F0CD010E94BF1DA19660
:103D60000FB6F894DEBF0FBECDBFDF91CF911F918C
:103D70000F91BF90AF909F908F900895E95CE1CF35
:103D8000CF92DF92EF92FF92CF93DF936B017C0192
:103D90006DE285E790E10E94F20DEC01662777273E
:103DA000CB016C197D098E099F094AE00E947C1E97
:103DB0008C0F9D1FDF91CF91FF90EF90DF90CF9000
:103DC0000895BC01990F880B990B97FD0C94C01EA8
:103DD0004AE00C947C1ECF93DF930E94E11EEC011D
:103DE0000E94CC1D8C0F9D1FDF91CF910895BC01C7
:103DF00090E080E04AE00C947C1ECF93DF930E9419
:103E0000F71EEC010E94CC1D8C0F9D1FDF91CF91FE
:103E10000895BF92CF92DF92EF92FF920F931F937C
:103E2000CF93DF93EC016C0187E0C80ED11C7E01BB
:103E3000E0E4EE0EF11CF70110828E010F5B1F4FC4
:103E4000F8011082E989FA8990818A858095892311
:103E500080838A8D882331F0ED85FE8580819A8567
:103E6000892B8083888D998D009711F00E94E60B35
:103E7000EF85F889908189858095892380838A8D53
:103E8000882331F0EB85FC8580819985892B80839F
:103E900084E0B82E888D998D009711F00E94E60B72
:103EA000BA94B110F7CF8A8D882331F062E070E0C8
:103EB00080E090E00E94160C69E2C6010E94B212F6
:103EC00062E9C6010E949E12C6010E94B51041E03F
:103ED00069E2C6010E94281AF8012081F701808159
:103EE000281708F053C0FE01E20FF11D80A12F5FDB
:103EF000F8012083182F682F70E090E080E040E107
:103F00000E947C1E0E94CC1D80E01434A9F581E043
:103F100088830B811C81980150E040E061E0CE0174
:103F20000E94991A1C830B8309811A81888181114F
:103F300003C0CE010E94091F980150E040E06FE0ED
:103F4000CE010E94991A1A83098321E030E040E0F3
:103F500050E060E0CE010E94991A63E070E080E0DA
:103F600090E00E94160C23E030E040E050E060E07A
:103F7000CE010E94991A81E0DF91CF911F910F919C
:103F8000FF90EF90DF90CF90BF9008958FEF9FEF5D
:103F9000B1CFAF92BF92CF92DF92EF92FF920F9389
:103FA0001F93CF93DF93EC015B016A017901888154
:103FB000811103C0CE010E94091F64E1CE010E945D
:103FC000B51AF8019183808366E1CE010E94B51A8B
:103FD000F5019183808368E1CE010E94B51AF60154
:103FE000918380836AE1CE010E94B51AF701918323
:103FF00080838B819C81853D9105A1F180F40097A0
:10400000D9F1803C910599F1DF91CF911F910F91EA
:10401000FF90EF90DF90CF90BF90AF900895863FD4
:104020009105D9F08F3F910541F08B3E910561F7E5
:1040300062E370E080E090E004C063E070E080E064
:1040400090E0DF91CF911F910F91FF90EF90DF9063
:10405000CF90BF90AF900C94160C68E170E080E0B8
:1040600090E0EFCF65E670E080E090E0EACF6AE9AB
:1040700070E080E090E0E5CF6CEB72E080E090E0F3
:10408000E0CFCF92DF92EF92FF920F931F93CF93E7
:10409000DF930DED1FE02FED3FE041EE5FE063EEBB
:1040A0007FE08BEC91E10E94C91F4091DF0F50919E
:1040B000E00F6091E10F7091E20F8091E30F90911A
:1040C000E40F0E94820A9093DC0F8093DB0F03EDD4
:1040D0001FE025ED3FE047ED5FE069ED7FE089E817
:1040E00091E10E94C91F4091D50F5091D60F609168
:1040F000D70F7091D80F8091D90F9091DA0F0E944D
:10410000820A9093D20F8093D10FC090DD0FD09090
:10411000DE0FE090D30FF090D40F20910702309182
:104120000802C216D306D4F04091090250910A0247
:104130004C155D059CF04091DB0F5091DC0F6091B8
:104140000B0270910C024617570744F0C1E06091D2
:104150000D0270910E02641775070CF4C0E0E216B0
:10416000F306BCF02091090230910A022E153F059A
:1041700084F020910B0230910C02821793074CF0CF
:1041800020910D0230910E02DC2F11E02817390723
:1041900014F410E0D0E08DED9EE00E943F0E8C2FD5
:1041A00090E00E94EB1E8CEC9EE00E943F0E812F5F
:1041B00090E00E94EB1E8EEB9EE00E943F0E8D2F42
:1041C00090E00E94EB1E88EB9EE00E943F0EC6012D
:1041D0000E94E11E8FEA9EE00E943F0EC7010E94EE
:1041E000EB1E88EA9EE00E943F0E8091DB0F9091CB
:1041F000DC0F0E94F71E8EE99EE00E943F0E809128
:10420000D10F9091D20F0E94FD1E89E99EE00E947D
:104210003F0E8091E30F9091E40F0E94F71E81E919
:104220009EE00E943F0E8091D90F9091DA0F0E947C
:10423000FD1E8CE89EE00E943F0E8091E10F909160
:10424000E20F0E94F71E84E89EE00E943F0E8091DC
:10425000D70F9091D80F0E94FD1E8FE79EE00E941D
:104260003F0E8091DF0F9091E00F0E94F71E87E7CD
:104270009EE00E943F0E8091D50F9091D60F0E9434
:10428000FD1E82E79EE00E943F0E8091DD0F90911F
:10429000DE0F0E94F71E8AE69EE00E943F0E80918C
:1042A000D30F9091D40FDF91CF911F910F91FF9079
:1042B000EF90DF90CF900C94FD1E5F926F927F92F3
:1042C0008F929F92AF92BF92CF92DF92EF92FF9226
:1042D0000F931F93CF93DF930DED1FE02FED3FE082
:1042E00041EE5FE063EE7FE08BEC91E10E94C91F3D
:1042F0004091DF0F5091E00F6091E10F7091E20F5C
:104300008091E30F9091E40F0E94820A9093DC0F5A
:104310008093DB0F03ED1FE025ED3FE047ED5FE00D
:1043200069ED7FE089E891E10E94C91F6090D50F97
:104330007090D60F8090D70F9090D80FC091D90F62
:10434000D091DA0FA301B401CE010E94820A8C0140
:104350009093D20F8093D10FC090DD0FD090DE0FDD
:10436000E090D30FF090D40FA090DB0FB090DC0F53
:104370008091E30F9091E40F2091E10F3091E20FD3
:104380002817390770F54091DF0F5091E00F48175B
:10439000590738F5821B930B20910F0230911002C0
:1043A00028173907F0F48091110290911202C81673
:1043B000D906BCF080911302909114028C159D05D2
:1043C00084F08091150290911602A816B9064CF05F
:1043D0005524539480911702909118028A159B05D9
:1043E0000CF4512C8C169D0650F56C167D0638F594
:1043F000C819D90980910F02909110028C179D075E
:10440000F0F48091110290911202E816F906BCF0C6
:1044100080911302909114028E159F0584F0809173
:10442000150290911602081719074CF08091170297
:1044300090911802C52DD1E08017910714F4D0E0B7
:10444000C0E087E59EE00E943F0E852D90E00E942F
:10445000EB1E83E49EE00E943F0E8D2F90E00E94B1
:10446000EB1E82E39EE00E943F0E8C2F90E00E94A4
:10447000EB1E8CE29EE00E943F0EC6010E94E11EF0
:1044800083E29EE00E943F0EC7010E94EB1E8CE17A
:104490009EE00E943F0E8091DB0F9091DC0F0E9406
:1044A000F71E82E19EE00E943F0E8091D10F909115
:1044B000D20F0E94FD1E8DE09EE00E943F0E809173
:1044C000E30F9091E40F0E94F71E85E09EE00E94AA
:1044D0003F0E8091D90F9091DA0F0E94FD1E80E06F
:1044E0009EE00E943F0E8091E10F9091E20F0E94AA
:1044F000F71E88EF9DE00E943F0E8091D70F9091AC
:10450000D80F0E94FD1E83EF9DE00E943F0E809118
:10451000DF0F9091E00F0E94F71E8BEE9DE00E944E
:104520003F0E8091D50F9091D60F0E94FD1E86EE12
:104530009DE00E943F0E8091DD0F9091DE0F0E9462
:10454000F71E8EED9DE00E943F0E8091D30F90915B
:10455000D40F0E94FD1E81EB9DE00E943F0E8091D2
:10456000110290911202C816D90644F081E0209100
:104570001302309114022C153D050CF480E090E0FC
:104580000E94EB1E84E89DE00E943F0E8091110284
:1045900090911202E816F90644F081E0209113028E
:1045A000309114022E153F050CF480E090E00E943B
:1045B000EB1E81E59DE00E943F0E809115029091D7
:1045C0001602A816B90644F081E020911702309136
:1045D00018022A153B050CF480E090E00E94EB1EC7
:1045E0008EE19DE00E943F0E80911502909116028F
:1045F0000817190744F081E0209117023091180242
:10460000201731070CF480E090E00E94EB1E89E057
:104610009DE00E943F0E2091E30F3091E40F8091C6
:10462000E10F9091E20F8217930740F481E04091EF
:10463000DF0F5091E00F4217530708F080E090E041
:104640000E94EB1E83EE9CE00E943F0E2091E30F40
:104650003091E40F8091E10F9091E20F281B390B0C
:1046600081E090E040910F025091100242175307F1
:1046700010F090E080E00E94EB1E8EEC9CE00E9427
:104680003F0E2091D90F3091DA0F8091D70F909182
:10469000D80F8217930740F481E04091D50F5091D5
:1046A000D60F4217530708F080E090E00E94EB1EFF
:1046B00088EA9CE00E943F0E2091D90F3091DA0FDA
:1046C0008091D70F9091D80F281B390B81E090E093
:1046D00040910F02509110024217530710F090E0E2
:1046E00080E0DF91CF911F910F91FF90EF90DF90CD
:1046F000CF90BF90AF909F908F907F906F905F9082
:104700000C94EB1E5F926F927F928F929F92AF926A
:10471000BF92CF92DF92EF92FF920F931F93CF93AE
:10472000DF930DED1FE02FED3FE041EE5FE063EE24
:104730007FE08BEC91E10E94C91F4091DF0F509107
:10474000E00F6091E10F7091E20F8091E30F909183
:10475000E40F0E94820A9093DC0F8093DB0F03ED3D
:104760001FE025ED3FE047ED5FE069ED7FE089E880
:1047700091E10E94C91F6090D50F7090D60FE09014
:10478000D70FF090D80F8090D90F9090DA0FA30137
:10479000B701C4010E94820A6C019093D20F8093EA
:1047A000D10F0091DD0F1091DE0FC091D30FD0918A
:1047B000D40FA090DB0FB090DC0F8091E10F9091AF
:1047C000E20F2091E30F3091E40F2817390770F5BD
:1047D0004091DF0F5091E00F4817590738F5821BC1
:1047E000930B2091E70F3091E80F28173907F0F469
:1047F0008091EB0F9091EC0F08171907BCF0809196
:10480000EF0F9091F00F8017910784F08091F30FD4
:104810009091F40FA816B9064CF05524539480914A
:10482000F70F9091F80F8A159B050CF4512C8E14FC
:104830009F0450F56E147F0438F5E818F90880914C
:10484000E50F9091E60F8E159F05F0F48091E90F2A
:104850009091EA0FC817D907BCF08091ED0F9091A5
:10486000EE0F8C179D0784F08091F10F9091F20F5D
:10487000C816D9064CF0FF24F3948091F50F90915F
:10488000F60F8C159D050CF4F12C48018C1A9D0A2D
:1048900023E6820E911C87EC8816910418F4EF2C05
:1048A000511001C0E12C88E99CE00E943F0E852D4B
:1048B00090E00E94EB1E87E89CE00E943F0E8F2D47
:1048C00090E00E94EB1E89E79CE00E943F0E8E2D37
:1048D00090E00E94EB1E83E79CE00E943F0EC8011F
:1048E0000E94E11E8AE69CE00E943F0ECE010E94DB
:1048F000EB1E83E69CE00E943F0E8091DB0F9091BF
:10490000DC0F0E94F71E89E59CE00E943F0E80911B
:10491000D10F9091D20F0E94FD1E84E59CE00E9471
:104920003F0E8091E30F9091E40F0E94F71E8CE4FC
:104930009CE00E943F0E8091D90F9091DA0F0E9467
:10494000FD1E87E49CE00E943F0E8091E10F909154
:10495000E20F0E94F71E8FE39CE00E943F0E8091C1
:10496000D70F9091D80F0E94FD1E8AE39CE00E9411
:104970003F0E8091DF0F9091E00F0E94F71E82E3BF
:104980009CE00E943F0E8091D50F9091D60F0E941F
:10499000FD1E8DE29CE00E943F0E8091DD0F909104
:1049A000DE0F0E94F71E85E29CE00E943F0E809180
:1049B000D30F9091D40F0E94FD1E8EE19CE00E94C7
:1049C0003F0E8091DB0F9091DC0F0E94F71E84E177
:1049D0009CE00E943F0E8091D10F9091D20F0E94D7
:1049E000FD1E87EE9BE00E943F0E8091EB0F9091A1
:1049F000EC0F0817190744F081E02091EF0F309178
:104A0000F00F201731070CF480E090E00E94EB1EBD
:104A10008AEB9BE00E943F0E8091E90F9091EA0F94
:104A2000C817D90744F081E02091ED0F3091EE0FC7
:104A30002C173D070CF480E090E00E94EB1E87E805
:104A40009BE00E943F0E8091F30F9091F40FA81607
:104A5000B90644F081E02091F70F3091F80F2A1544
:104A60003B050CF480E090E00E94EB1E84E59BE0A7
:104A70000E943F0E8091F10F9091F20FC816D90657
:104A800044F081E02091F50F3091F60F2C153D0593
:104A90000CF480E090E00E94EB1E8FE39BE00E940C
:104AA0003F0E2091E10F3091E20F8091E30F909142
:104AB000E40F8217930740F481E04091DF0F50919B
:104AC000E00F4217530708F080E090E00E94EB1ED1
:104AD0008EE19BE00E943F0E2091E10F3091E20FAA
:104AE0008091E30F9091E40F281B390B81E090E057
:104AF0004091E70F5091E80F4217530710F090E0F4
:104B000080E00E94EB1E89E09BE00E943F0E209116
:104B1000D70F3091D80F8091D90F9091DA0F82176B
:104B2000930740F481E04091D50F5091D60F421782
:104B3000530708F080E090E00E94EB1E88EE9AE0B8
:104B40000E943F0E2091D70F3091D80F8091D90F3E
:104B50009091DA0F281B390B81E090E04091E50F2E
:104B60005091E60F4217530710F090E080E00E944A
:104B7000EB1E80EC9AE00E943F0E81E090E027EC73
:104B80008216910410F090E080E0DF91CF911F91A8
:104B90000F91FF90EF90DF90CF90BF90AF909F90DC
:104BA0008F907F906F905F900C94EB1E0C94BF1DC4
:104BB000CF93DF930E94BF1DEC010E94CC1D8C0F90
:104BC0009D1FDF91CF9108950F931F930DED1FE06F
:104BD0002FED3FE041EE5FE063EE7FE08BEC91E193
:104BE0000E94C91F4091DF0F5091E00F6091E10FCB
:104BF0007091E20F8091E30F9091E40F0E94820A7E
:104C00009093DC0F8093DB0F03ED1FE025ED3FE079
:104C100047ED5FE069ED7FE089E891E10E94C91FFF
:104C20004091D50F5091D60F6091D70F7091D80F4A
:104C30008091D90F9091DA0F0E94820A9093D20F3F
:104C40008093D10F89E492E00E94D8258DE79AE005
:104C50000E94D6258091DB0F9091DC0F0E94F71EF9
:104C60008DE592E00E94D6258FE89AE00E94D62535
:104C70008091E30F9091E40F0E94F71E8FE592E080
:104C80000E94D62581E692E00E94D6258091E10F10
:104C90009091E20F0E94F71E8FE592E00E94D625C8
:104CA00085E692E00E94D6258091DF0F9091E00F7B
:104CB0000E94F71E8FE592E00E94D62586E89AE0D2
:104CC0000E94D6258091DD0F9091DE0F0E94F71E85
:104CD0008FE592E00E94D6258FE592E00E94D825CC
:104CE00089E692E00E94D8258DE79AE00E94D625B9
:104CF0008091D10F9091D20F0E94F71E8DE592E026
:104D00000E94D6258FE89AE00E94D6258091D90F7F
:104D10009091DA0F0E94F71E8FE592E00E94D6254F
:104D200081E692E00E94D6258091D70F9091D80F0E
:104D30000E94F71E8FE592E00E94D62585E692E05C
:104D40000E94D6258091D50F9091D60F0E94F71E14
:104D50008FE592E00E94D62586E89AE00E94D6254B
:104D60008091D30F9091D40F0E94F71E8FE592E0AF
:104D70000E94D6258FE592E00E94D8258EE792E02A
:104D80000E94D82588E992E00E94D6258091D70F0D
:104D90009091D80F2091D90F3091DA0F821B930B8D
:104DA0000E94FD1E81EA92E00E94D6258091D70FD5
:104DB0009091D80F2091D50F3091D60F821B930B75
:104DC0000E94FD1E8AEA92E00E94D82588E992E0BE
:104DD0000E94D6258091E10F9091E20F2091E30F80
:104DE0003091E40F821B930B0E94FD1E81EA92E03A
:104DF0000E94D6258091E10F9091E20F2091DF0F64
:104E00003091E00F821B930B0E94FD1E6AEF70E051
:104E100080E090E00E94160C1F910F91089583ECA2
:104E200092E00E94D8256AE570E08DE791E10E944A
:104E30007D136AE570E08AE791E10E947D136AEFD5
:104E400070E080E090E00C94160C82ED92E00E94FD
:104E5000D8256FEA70E08DE791E10E947D1370E044
:104E600060E08AE791E10E947D136AEF70E080E0E4
:104E700090E00C94160C80EE92E00E94D8256AE037
:104E800070E080E891E10E947D1368EE73E080E0BD
:104E900090E00C94160C8EEE92E00E94D82567E309
:104EA00070E080E891E10E947D1368EE73E080E09D
:104EB00090E00C94160C2F923F924F925F926F925B
:104EC0007F928F929F92AF92BF92CF92DF92EF929A
:104ED000FF920F931F93CF93DF93CDB7DEB7639706
:104EE0000FB6F894DEBF0FBECDBF1C017D876C8767
:104EF000042F89E193E0411102C088E493E00E940D
:104F0000D625C1010E94E11E81E393E00E94D825CD
:104F10001092DF0E1092E00E1092E10E1092E20E4F
:104F20001092DE0E1092DD0E81E693E00E94D625EF
:104F30008C859D850E94EB1EB101032C000C880B13
:104F4000990B0E947B5326E636E646E85FE30E9413
:104F5000DA530E9465567B836A831616170624F07F
:104F600041E050E05B834A838AE793E00E94D625C4
:104F7000C1010E94E11E85E993E00E94D6258A8145
:104F80009B810E94EB1E8CE30E94C30B9D838C834C
:104F90008BE993E00E94D6258C819D810E94EB1EB7
:104FA00062E370E080E090E00E94160C8CE30E94C7
:104FB000C30B998788878E3591400CF037C18CEBF5
:104FC00093E00E94D82511E088E691E099878887D0
:104FD0008BEF93E00E94D6258DEF92E0112311F024
:104FE00089EF92E00E94D825A885B985BD01BB0F45
:104FF000880B990B0E947B532DEC3CEC4CE45EE358
:105000000E94DA530E9465567B01623371051CF4DD
:1050100022E3E22EF12C01111AC12CE82E831F820B
:1050200068E270E086E891E10E947D136E817F81E5
:1050300083E891E10E947D13812C912C5401412C35
:10504000512C320119821D821C82488559854E19C6
:105050005F095F874E87888599858E0D9F1D998B87
:10506000888B0E94F61A8CE30E94C30BAE85BF8525
:105070008A179B0734F028893989281739070CF0DB
:1050800001C13981311118C00E94490C6419750998
:10509000860997096C3471058105910568F0112323
:1050A00009F4DBC086E294E00E94D8250E94490CF6
:1050B0002B013C01198310E00E94490C6819790901
:1050C0008A099B096A3171058105910508F40EC1B1
:1050D0000E94F61A0E94541D9093E60E8093E50EEE
:1050E000DC012C853D85A21BB30BBB8BAA8BB09337
:1050F000E40EA093E30EBD01BB0F880B990B0E9439
:105100007B534B015C012091DF0E3091E00E40910A
:10511000E10E5091E20E0E9415556B017C0120E0DA
:1051200030E048EC52EC0E94745387FDADC020E0A3
:1051300030E048EC52E4C701B6010E94C25618168E
:105140000CF4A9C0C092DF0ED092E00EE092E10E06
:10515000F092E20E8091DD0E9091DE0E6A897B89DD
:10516000681B790B072E000C880B990B0E947B5350
:10517000688779878A879B876093D90E7093DA0E48
:105180008093DB0E9093DC0E4A895B895093DE0E90
:105190004093DD0EA5019401C501B4010E9415558F
:1051A0004B015C012DEC3CEC4CE45EE3C701B60125
:1051B0000E94DA539B01AC01C501B4010E94155550
:1051C0006B017C0120E030E040EC5FE3688579858D
:1051D0008A859B850E94DA539B01AC01C701B60109
:1051E0000E9415550E9465569B0177FF04C0222737
:1051F0003327261B370BB9012932310514F068E239
:1052000070E07093D80E6093D70E002309F4BDC0F0
:105210008A899B8902970CF445C0A8E2B0E0A61BDE
:10522000B70BB987A8876CE870E048C0A885B98536
:1052300010E0A539B2400CF4CBCE8CED93E00E9487
:10524000D82511E04AE852E059874887C1CE38E2B4
:105250003E831F826CE870E0E5CE4C815D814F5F3C
:105260005F4F5D834C830E94490C2B013C018AE611
:1052700094E00E94D6258C819D810E94EB1E51E016
:1052800059831ACF198218CFC12CD12C98ECE92E52
:1052900092ECF92E57CFC12CD12C88ECE82E82E469
:1052A000F82E50CF2A893B892F3F3F4F0CF088C002
:1052B00064577F4F5E8158878F818987653B710571
:1052C00014F064EB70E086E891E10E947D1368853C
:1052D0007985653B710514F064EB70E083E891E13A
:1052E0000E947D130E94490C4B015C016AE070E052
:1052F00080E090E00E94160CAA81BB812C813D8148
:105300002A173B070CF4ADCE6AE570E086E891E120
:105310000E947D136AE570E083E891E10E947D13AD
:1053200064E670E080E090E00E94160C8DE794E067
:105330000E94D6258DE093E0002311F082E093E0F7
:105340000E94D62588E695E00E94D625C1010E94DC
:10535000E11E88E894E063960FB6F894DEBF0FBEB6
:10536000CDBFDF91CF911F910F91FF90EF90DF9014
:10537000CF90BF90AF909F908F907F906F905F90F5
:105380004F903F902F900C94D825AA89BB891297F3
:1053900054F028E230E0261B370BB9013E813887F4
:1053A0004F8149878BCF8A899B898F3F9F4F6CF4B0
:1053B0009B0124573F4F3987288768E270E07ECFF2
:1053C00048E250E0598748872ECF8CE890E09987D3
:1053D0008887F3CF2F923F924F925F926F927F9286
:1053E0008F929F92AF92BF92CF92DF92EF92FF92F5
:1053F0000F931F93CF93DF935C018B018BEA94E0B3
:105400000E94D625C8010E94E11E80EC94E00E9413
:10541000D62581E0A816B10409F4FEC087E698E01D
:105420000E94D8256AE570E086E891E10E947D132C
:105430006AE570E083E891E10E947D1364E670E024
:1054400080E090E00E94160CC80165E070E00B352A
:10545000110544F023E2209FC001219F900D1124EB
:1054600064EB70E00E9487586B018DE995E00E9423
:10547000D625C8010E94E11E87EB95E00E94D62543
:10548000C6010E94EB1E8CE30E94C30BEC018BE96A
:1054900093E00E94D625CE010E94EB1E62E370E0ED
:1054A00080E090E00E94160C8CE30E94C30BEC019C
:1054B000CE3581E0D8070CF0B2C08DEC94E00E94AC
:1054C000D82555245394C8E6D1E08BEF93E00E9491
:1054D000D6258DEF92E0552011F089EF92E00E94E1
:1054E000D825BE010D2E000C880B990B0E947B5312
:1054F0002DEC3CEC4CE45EE30E94DA530E946556CE
:105500007B0182E3E816F1041CF482E3E82EF12C1F
:10551000AA94AB2809F092C066E470E086E891E1B5
:105520000E947D1366E470E083E891E10E947D13A0
:105530000E94F61A812C912C5401412C712C612C63
:105540001E012E183F08EC0EFD1E8CE30E94C30BBB
:10555000EC010E94EB1EC215D30524F0EC16FD06EB
:105560000CF087C0C42D41101AC00E94490C681964
:1055700079098A099B09C1E06C347105810591059F
:1055800070F0552009F463C080E095E00E94D825B2
:105590000E94490C4B015C01C52D452C512C0E94E9
:1055A000F61AC11101C0412C6FE070E080E090E07C
:1055B0000E94160C6C147D0444F26AE570E086E8E3
:1055C00091E10E947D136AE570E083E891E10E9419
:1055D0007D1364E670E080E090E00E94160C83E6A4
:1055E00095E00E94D625C8010E94E11E8DE695E057
:1055F000DF91CF911F910F91FF90EF90DF90CF90AF
:10560000BF90AF909F908F907F906F905F904F90E2
:105610003F902F900C94D82583E898E001CF512C2F
:10562000C53982E0D8070CF450CF8CED93E00E948E
:10563000D82555245394CAE8D2E047CF6EE670E0EF
:1056400086E891E10E947D136EE670E06DCF8FEFEA
:10565000681A780A0E94490C4B015C018AE495E0C3
:105660000E94D625C3010E94EB1EC1E0442443944E
:1056700096CFC0E094CF6AE570E08FEF9FEF0C9477
:10568000EA296AE570E081E090E00C94EA29AF92A3
:10569000BF92DF92EF92FF920F931F93CF93DF930E
:1056A000D82E80EC95E00E94D82566E470E086E86C
:1056B00091E10E947D1362E870E083E891E10E942D
:1056C0007D1360E070E0CB010E94160C6AE570E08B
:1056D00086E891E10E947D136AE570E083E891E13C
:1056E0000E947D1364E670E080E090E00E94160C5A
:1056F0000DED1FE02FED3FE041EE5FE063EE7FE058
:105700008BEC91E10E94C91F03ED1FE025ED3FE006
:1057100047ED5FE069ED7FE089E891E10E94C91FF4
:105720004091DF0F5091E00F6091E10F7091E20F17
:105730008091E30F9091E40F0E94820A5C019093A4
:10574000DC0F8093DB0F4091D50F5091D60F609105
:10575000D70F7091D80F8091D90F9091DA0F0E94D6
:10576000820A8C019093D20F8093D10FC091DD0FEC
:10577000D091DE0FE090D30FF090D40F86EC93E041
:105780000E943F0E8091E30F9091E40F0E94F71E5C
:1057900081EC93E00E943F0E8091E10F9091E20F27
:1057A0000E94F71E8CEB93E00E943F0E8091DF0F6A
:1057B0009091E00F0E94F71E87EB93E00E943F0E4E
:1057C000CE010E94E11E80EB93E00E943F0EC501D6
:1057D0000E94EB1E81EA93E00E943F0E8091D90F58
:1057E0009091DA0F0E94F71E8CE993E00E943F0E21
:1057F0008091D70F9091D80F0E94F71E87E993E010
:105800000E943F0E8091D50F9091D60F0E94F71EF7
:1058100082E993E00E943F0EC7010E94E11E8BE8DF
:1058200093E00E943F0EC8010E94EB1E84E793E0C4
:105830000E943F0E8091EB0F9091EC0F0E94E11EB1
:105840008DE693E00E943F0E8091EF0F9091F00F54
:105850000E94E11E84E693E00E943F0E8091F30FC8
:105860009091F40F0E94E11E8BE593E00E943F0EA1
:105870008091F70F9091F80F0E94E11E82E593E06E
:105880000E943F0E8091E70F9091E80F0E94EB1E5F
:105890008AE393E00E943F0E8091E90F9091EA0F16
:1058A0000E94E11E83E393E00E943F0E8091ED0F82
:1058B0009091EE0F0E94E11E8AE293E00E943F0E5B
:1058C0008091F10F9091F20F0E94E11E81E293E02E
:1058D0000E943F0E8091F50F9091F60F0E94E11EFD
:1058E00088E193E00E943F0E8091E50F9091E60FD2
:1058F0000E94EB1E8091E10F9091E20F2091E30F47
:105900003091E40F2817390768F54091DF0F509167
:10591000E00F4817590730F5821B930B2091E70FD2
:105920003091E80F28173907E8F48091EB0F909138
:10593000EC0FC817D907B4F08091EF0F9091F00FDA
:105940008C179D077CF08091F30F9091F40FA816AF
:10595000B90644F0D1E08091F70F9091F80F8A15C5
:105960009B050CF4D0E08091D70F9091D80F209137
:10597000D90F3091DA0F2817390768F54091D50F04
:105980005091D60F4817590730F5821B930B209181
:10599000E50F3091E60F28173907E8F48091E90FF9
:1059A0009091EA0FE816F906B4F08091ED0F90910E
:1059B000EE0F8E159F057CF08091F10F9091F20F04
:1059C0000817190744F0C1E08091F50F9091F60F88
:1059D000801791070CF4C0E08BEC95E00E94D6256F
:1059E0008D2F90E00E94EB1E8AED95E00E94D62557
:1059F0008C2F90E00E94EB1EDD2309F482C0C111C0
:105A000085C0C1E0D0E08BE496E00E94D6258AEE06
:105A100095E0C330D10561F084EF95E0C130D10548
:105A200039F080E096E0C230D10511F08DE096E0CB
:105A30000E94D82588E196E00E94D82583E496E06C
:105A40000E94D625CE010E94EB1E44E650E061E0A4
:105A500070E088EE93E00E94D0150E94F61AC330E1
:105A6000D10509F059C08EE696E00E94D82544E69B
:105A700050E063E070E088EE93E00E94D01564EBA4
:105A800070E081E090E00E94EA2968E270E086E838
:105A900091E10E947D136CE870E083E891E10E943F
:105AA0007D1366E970E080E090E00E94160C0E9491
:105AB000541D9093CE0F8093CD0F82E896E00E9404
:105AC000D6258091CD0F9091CE0F0E94EB1E8EE0D7
:105AD00097E00E94D6250E94541D0E94EB1E109252
