:020000040000FA
:100000000C9418020C9449020C9449020C94490275
:100010000C9449020C9449020C9449020C94490234
:100020000C9449020C9449020C9449020C94490224
:100030000C9449020C94742F0C9449020C944902BC
:100040000C9449020C94E2310C9449020C9449023C
:100050000C9449020C9449020C9449020C942A2FE6
:100060000C9449020C94FE2F0C94D42F0C9449024A
:100070000C9449020C9449020C9449020C944902D4
:100080000C94B4310C9449020C9449020C9449022A
:100090000C9449020C9449020C9449020C9434309B
:1000A0000C9449020C9449020C9486310C94490238
:1000B0000C9449020C9449020C9449020C94583156
:1000C0000C9449020C9449020C9449020C94490284
:1000D0000C9449020C9449020C9449020C94490274
:1000E0000C944902084AD73B3BCE016E84BCBFFD4D
:1000F000C12F3D6C74319ABD56833DDA3D00C77FF8
:1001000011BED9E4BB4C3E916BAAAABE0000008090
:100110003F07634236B79BD8A71A39685618AEBA5C
:10012000AB558C1D3CB7CC5763BD6DEDFD753EF6F0
:10013000177231BF000000803F08000000BE92240B
:1001400049123EABAAAA2ABECDCCCC4C3E00000040
:1001500080BEABAAAAAA3E00000000BF000000803B
:100160003F0000000000084178D3BB4387D1133D16
:10017000190E3CC3BD4282AD2B3E68EC8276BED9DF
:100180008FE1A93E4C80EFFFBE01C4FF7F3F00001E
:10019000000000000C9462430C94C5020C94D2073A
:1001A0000C94F1020C9447390C94D9020C94BA02C5
:1001B0000C94A0430C94A8420C94BF480C947D3C32
:1001C0000C9460460C94AE430C9414470C94C843B2
:1001D0000C943B390C943E390C94CF020C94CB0216
:1001E0000C94FB030C94E7020C949B460C94420481
:1001F0000C9477470C9458080C9436400C948E4617
:100200000C9460050C9400060C9417470C94D6438C
:100210000C94BE020C94C7420C94AC420C94C404DF
:100220000C9470420C94F5070C94F0020C9429087D
:100230000C94D5020C94A7430C943C430C94FC03FF
:100240000C947E040C94FC070C94C2020C94DD0206
:100250000C94F5020C947E420C94D3070C949805F0
:100260000C94EE410C94B0020C94F3480C94CF43E0
:100270000C9456480C9401340C947A420C947346B6
:100280000C943A440C94A4420C94AD450C94D7477A
:100290000C94A0420C94FE450C9486450C94EB0201
:1002A0000C94BC430C9466420C94F0420C94E2070C
:1002B0000C949A450C94B6020C9416430C940F4679
:1002C0000C94E3020C946F040C94DD430C94B5433E
:1002D0000243616C63756C6174696E67206F66665A
:1002E000736574732C20646F206E6F74206D6F764D
:1002F00065204D505536303530004D50553630352F
:1003000030207374617475733A200000000A0B0288
:10031000090C0D0E08070304010000000000000096
:1003200000000000000000000000000000000000CD
:10033000000000000000001211100000000000008A
:1003400000000000000000000000000000000000AD
:1003500000000020002300260029002C002F00327E
:100360000000010000030106010901000021002432
:100370000027002A002D0030003300010100000496
:100380000107010A0100002200250028002B002E91
:10039000003100340002010000050108010B0101D9
:1003A0000210202008081020401020408002010286
:1003B000010804020101020408102040808040204E
:1003C0001008040201800402018040201008040289
:1003D0000108040201010204081020408001020407
:1003E00008102040800505050507050808080802D3
:1003F0000202020A0A0808040404040101010101BE
:100400000101010303030303030303040707070CAC
:100410000C0C0C0C0C0C0C02020202060606060662
:100420000606060B0B0B0B0B0B0B0B000134F348F2
:1004300011241FBECFEFD1E2DEBFCDBF00E00CBF65
:100440001BE1A0E0B2E0E4E1F1EA00E00BBF02C092
:1004500007900D92A639B107D9F72FE1A6E9BBE1C4
:1004600001C01D92A031B207E1F712E0C7E1D2E06E
:1004700000E006C021970109802FFE010E94534E23
:10048000C631D10780E00807A9F70E94DD340C943B
:1004900078500C940000CF92DF92EF92FF920F936E
:1004A0001F93CF93DF938B01EA01BC0190E080E0C2
:1004B0000E94454926ED39E346EA5EEB0E94A649D3
:1004C0006B017C01B80190E080E00E94454927E083
:1004D00038E04AEC5FE30E94A6499B01AC01C701EA
:1004E000B6010E94E14A6B017C01BE0190E080E010
:1004F0000E94454924E73EE54BE35FEB0E94A64995
:100500009B01AC01C701B6010E94E14A0E94384C30
:10051000CB01DF91CF911F910F91FF90EF90DF9072
:10052000CF9008958150823108F05AC0E82FF0E052
:100530008827E256FD4F8F4F0C94534EBE02C202E5
:10054000B002B602BA02F002C502CB02CF02D50257
:10055000D902DD02E302E702F002EB02F102F5024A
:10056000809180008F778093800008958091800033
:100570008F7DF9CF80918000877FF5CF84B58F770D
:1005800084BD089584B58F7DFBCF8091B0008F77B7
:100590008093B00008958091B0008F7DF9CF809155
:1005A00090008F77809390000895809190008F7DC8
:1005B000F9CF80919000877FF5CF8091A0008F7751
:1005C0008093A00008958091A0008F7DF9CF809145
:1005D000A000877FF5CF809120018F778093200145
:1005E0000895809120018F7DF9CF80912001877F30
:1005F000F5CFCF93DF93282F30E0F901E55FFC4F73
:100600008491F901E156FC4FD491F901EB51FC4F73
:10061000C491CC23A1F081110E949202EC2FF0E052
:10062000EE0FFF1FEF5AFC4FA591B491EC91ED2313
:1006300081E090E009F480E0DF91CF91089580E0BF
:1006400090E0FACF1F93CF93DF93282F30E0F9018A
:10065000E55FFC4F8491F901E156FC4FD491F9011B
:10066000EB51FC4FC491CC23A9F0162F81110E94AD
:100670009202EC2FF0E0EE0FFF1FEB57FC4FA5911D
:10068000B4918FB7F894EC91111108C0D095DE2386
:10069000DC938FBFDF91CF911F910895DE2BF8CFB0
:1006A000CF93DF9390E0FC01E156FC4F24918B51F6
:1006B0009C4FFC0184918823C9F090E0880F991F1A
:1006C000FC01E559FC4FA591B491FC01EB57FC4F9F
:1006D000C591D49161110DC09FB7F8948C9120956C
:1006E00082238C938881282328839FBFDF91CF9119
:1006F0000895623051F49FB7F8943C91822F809511
:1007000083238C93E8812E2BEFCF8FB7F894EC9155
:100710002E2B2C938FBFEACF8230910538F0880FB3
:10072000991F880F991F05970197F1F708953FB713
:10073000F8948091E11C9091E21CA091E31CB0918F
:10074000E41C26B5A89B05C02F3F19F00196A11DFA
:10075000B11D3FBFBA2FA92F982F8827BC01CD010B
:10076000620F711D811D911D42E0660F771F881F6A
:10077000991F4A95D1F708958F929F92AF92BF9299
:10078000CF92DF92EF92FF926B017C010E94970360
:100790004B015C01C114D104E104F104B9F00E94E1
:1007A0009703681979098A099B09683E7340810596
:1007B000910580F321E0C21AD108E108F10888EE22
:1007C000880E83E0981EA11CB11CE4CFFF90EF902F
:1007D000DF90CF90BF90AF909F908F9008952FB7EC
:1007E000F8946091DD1C7091DE1C8091DF1C90916B
:1007F000E01C2FBF08950895089590910002891379
:100800000DC0E0EDF2E0E4919FEF90930002E23042
:10081000E1F038F4EE2381F0E13089F060E00C94EF
:100820002203E43049F110F1E530C1F790917300F3
:100830009D7F90937300F2CF10926E00EFCF909156
:100840006F009D7F90936F00E9CF909170009D7F26
:100850009093700091E09093B0009091B100987FD8
:1008600094609093B1001092B300D8CF9091710032
:100870009D7F90937100D2CF909172009D7F909355
:100880007200CCCFAF92BF92CF92DF92EF92FF92E5
:100890000F931F93CF93DF936C017B018B01040FA8
:1008A000151FEB015E01AE18BF08C017D10759F044
:1008B0006991D601ED91FC910190F081E02DC60186
:1008C0001995892B79F7C501DF91CF911F910F9170
:1008D000FF90EF90DF90CF90BF90AF900895FC0114
:1008E000538D448D252F30E0842F90E0821B930B95
:1008F000541710F0CF96089501970895FC01918D3B
:10090000828D981761F0A28DAE0FBF2FB11D5D963D
:100910008C91928D9F5F9F73928F90E008958FEFDF
:100920009FEF08950F931F930E94EF0360935F1D45
:100930007093601D8093611D9093621D87E59DE11A
:100940000E947E0497FF1DC00E94EF0300915F1D6F
:100950001091601D2091611D3091621D601B710B13
:10096000820B930B00915B1D10915C1D20915D1D0E
:1009700030915E1D6017710782079307F8F28FEFC1
:100980009FEF1F910F910895FC01918D828D981713
:1009900031F0828DE80FF11D858D90E008958FEF85
:1009A0009FEF08950F931F930E94EF0360935F1DC5
:1009B0007093601D8093611D9093621D87E59DE19A
:1009C0000E94C40497FF1DC00E94EF0300915F1DA9
:1009D0001091601D2091611D3091621D601B710B93
:1009E000820B930B00915B1D10915C1D20915D1D8E
:1009F00030915E1D6017710782079307F8F28FEF41
:100A00009FEF1F910F910895CF92DF92EF92FF9287
:100A1000CF930E94D204FC0197FD4EC08D32910508
:100A200021F0C0970A9708F040C0C12CD12C760164
:100A3000C0E0E130F105D1F0ED32F105D9F1CF019F
:100A4000C0970A9798F4AAE0B0E0A70196010E9427
:100A50009C4A6F01FF0FEE08FF08C60ED71EE81E66
:100A6000F91E80E3C81AD108E108F10887E59DE185
:100A70000E947E040E94D204FC01C0970A97C8F22B
:100A8000E130F105B1F2CC2341F0F094E094D09440
:100A9000C094C11CD11CE11CF11CC701B601CF914F
:100AA000FF90EF90DF90CF90089587E59DE10E9441
:100AB0007E04AFCFC1E0DACFC12CD12C7601EDCFCF
:100AC000FC01918D228D892F90E0805C9F4F821BCD
:100AD00091098F739927089587E59DE10E9460052C
:100AE00021E0892B09F420E0822F0895FC01A48DD8
:100AF000A80FB92FB11DA35ABF4F2C91848D90E040
:100B000001968F739927848FA689B7892C93A08922
:100B1000B1898C91837080648C93938D848D9813AC
:100B200006C00288F389E02D80818F7D808308953F
:100B3000EF92FF920F931F93CF93DF93EC0181E02D
:100B4000888F9B8D8C8D98131AC0E889F9898081D4
:100B500085FF15C09FB7F894EE89FF896083E88907
:100B6000F98980818370806480839FBF81E090E0F9
:100B7000DF91CF911F910F91FF90EF900895F62E86
:100B80000B8D10E00F5F1F4F0F731127E02E8C8D20
:100B90008E110CC00FB607FCFACFE889F989808165
:100BA00085FFF5CFCE010E947605F1CFEB8DEC0FDE
:100BB000FD2FF11DE35AFF4FF0829FB7F8940B8F82
:100BC000EA89FB8980818062CFCF0F931F93CF93F7
:100BD000DF938C01D0E0C0E0F801EC0FFD1F6491C1
:100BE000662341F087E59DE10E949805892B11F06D
:100BF0002196F2CFCE01DF91CF911F910F910895F1
:100C0000CF93DF93EC01888D8823B9F0AA89BB8943
:100C1000E889F9898C9185FD03C0808186FD0DC02E
:100C20000FB607FCF7CF8C9185FFF2CF808185FF4F
:100C3000EDCFCE010E947605E9CFDF91CF910895E7
:100C400080E090E0892B29F00E946C0581110E94C0
:100C5000000080E090E0892B49F080E090E0892B53
:100C600029F00E94000081110E94000080E090E0C5
:100C7000892B49F080E090E0892B29F00E94000048
:100C800081110E94000080E090E0892B49F080E013
:100C900090E0892B29F00E94000081110C94000043
:100CA000089520916F1C260F3327331F2132310501
:100CB000ECF420912D1DFC0190E080E0243069F0DF
:100CC00082E00895A0916F1C2191AC01415B534ECD
:100CD000A40FB52FB11D2C930196861798F3809120
:100CE0006F1C680F60936F1C80E0089581E0089589
:100CF00010922D1D81E080932C1D1092071D61E044
:100D000084E10E94220361E085E10E942203E9EB75
:100D1000F0E080818E7F808380818D7F808388E476
:100D20008093B80085E48093BC000895CF93DF934F
:100D300091E090934E1C8823B9F0C091B800D091F7
:100D4000BA008091BC008A7B8093BC0060E084E1A3
:100D50000E94220360E085E10E9422030E9478063F
:100D6000D093BA00C093B800DF91CF9108958F92CD
:100D70009F92AF92BF92CF92DF92EF92FF920F932A
:100D80001F93CF93DF93D091561DD13208F0D7C077
:100D9000182FC091551D0E9497036B017C01809113
:100DA0002D1D81116BC082E080932D1D10932C1D91
:100DB0008FEF80932B1D10922A1DD093291DA5E340
:100DC000BDE1E9E0FDE180E0D81391C01092081D7B
:100DD0008091081DCC0FC82BC093081D8091071D62
:100DE000813009F088C01092071D0E9497036B01A3
:100DF0007C018091081D8093BB0080912F1D9091F4
:100E0000301DA091311DB091321D892B8A2B8B2B67
:100E1000A1F00E94970300912F1D1091301D209189
:100E2000311D3091321D6C197D098E099F090617FD
:100E300017072807390708F442C08091BC0083FDDA
:100E4000D8CF85EC8093BC000E9497036B017C0196
:100E500080912D1D823009F450C080912B1D8F3F51
:100E600009F46FC080912B1D803209F46CC0809111
:100E70002B1D803309F469C084E026C080912F1DAA
:100E80009091301DA091311DB091321D892B8A2B7C
:100E90008B2B09F484CF0E94970380902F1D909094
:100EA000301DA090311DB090321D6C197D098E0946
:100EB0009F0986169706A806B90608F070CF80919C
:100EC0002E1D0E94960685E01092341D1092561D2C
:100ED0001092331DDF91CF911F910F91FF90EF90F2
:100EE000DF90CF90BF90AF909F908F9008959D918D
:100EF00091938F5F69CF85EEA5CF80912F1D909143
:100F0000301DA091311DB091321D892B8A2B8B2B66
:100F100009F49ECF0E94970300912F1D1091301D60
:100F20002091311D3091321D6C197D098E099F0968
:100F3000061717072807390708F08ACFC0CF81E0C6
:100F4000C3CF80E0C1CF82E0BFCF83E0BDCF1F938E
:100F5000CF93DF93162FC0E0DEE1A981BA819B8198
:100F600021E02093331D9093551D1092341D109253
:100F7000561DED91FC9111970190F081E02D682FA5
:100F8000CD01199589819A81DC01ED91FC91019047
:100F9000F081E02D612F199581E0DF91CF911F91B4
:100FA0000C94B7060895E091E61C8091E51CE817C3
:100FB00030F4F0E0E951F34E808190E008958FEF36
:100FC0009FEF08959091E61C8091E51C2FEF3FEF75
:100FD000981748F4E92FF0E0E951F34E208130E012
:100FE0009F5F9093E61CC90108958091E51C909144
:100FF000E61C891B990B0895CF92DF92EF92FF9226
:101000000F931F93CF93DF937C01CB018A01209133
:10101000331D222389F0EB016B01C40ED51ECC15C4
:10102000DD0569F06991D701ED91FC910190F081A6
:10103000E02DC7011995F3CF642F0E945106C80116
:10104000DF91CF911F910F91FF90EF90DF90CF90A4
:101050000895CF93DF931F92CDB7DEB769832091B8
:10106000331D2223F9F02091561D203258F021E043
:1010700030E0FC013383228390E080E00F90DF9129
:10108000CF9108958091341DE82FF0E0EB5CF24E93
:10109000998190838F5F8093341D8093561D81E0EA
:1010A00090E0ECCF61E0CE0101960E945106F7CFAF
:1010B00090E080E00895CF92DF92EF92FF920F933D
:1010C0001F93CF93DF93EC01EE81FF8190818B81A1
:1010D000809589238083EA85FB8580819B81892B8C
:1010E0008083EC81FD8190818A8180958923808332
:1010F000E885F98580819A81892B808389899A89FD
:10110000009711F00E948C03EA85FB8590818B810A
:101110008095892380838B89882331F0EE81FF813C
:1011200080819B81892B80838C898823C9F00E94D0
:10113000EF036B017C01EE85FF8580819B81892314
:1011400079F40E94EF036C197D098E099F090D89BE
:101150001E892F89388D601771078207930758F30E
:1011600089899A89009711F00E948C03E885F98596
:1011700090818A818095892380838B89882331F0AF
:10118000EC81FD8180819A81892B808389899A896C
:10119000009751F0DF91CF911F910F91FF90EF9049
:1011A000DF90CF900C948C03DF91CF911F910F9122
:1011B000FF90EF90DF90CF900895CF93DF93EC01F5
:1011C000E885F98590818A818095892380838B8940
:1011D000882331F0EC81FD8180819A81892B808385
:1011E000EA85FB8590818B818095892380838B891B
:1011F000882331F0EE81FF8180819B81892B808360
:1012000089899A89009711F00E948C03EC85FD85ED
:1012100090818A819823EE85FF8520813B8123235D
:1012200011F480E028C09923E1F3EC81FD819081E5
:10123000809589238083E885F98580819A81892B2F
:10124000808389899A89009711F00E948C03EE812E
:10125000FF8190818B81809589238083EA85FB853E
:1012600080819B81892B808389899A89009711F0DD
:101270000E948C0381E0DF91CF910895CF92DF929D
:10128000EF92FF920F931F93CF93DF93EC01E885CA
:10129000F98590818A818095892380838B89882331
:1012A00031F0EC81FD8180819A81892B8083EA85F0
:1012B000FB8590818B818095892380838B8988230E
:1012C00031F0EE81FF8180819B81892B80838C8925
:1012D0008823C9F00E94EF036B017C01EE85FF8536
:1012E00080819B81892379F40E94EF036C197D0929
:1012F0008E099F090D891E892F89388D6017710706
:101300008207930758F389899A89009711F00E9400
:101310008C03EC85FD8580819A81892311E009F495
:1013200010E0EE81FF8190818B81809589238083FD
:10133000EA85FB8580819B81892B808389899A89B5
:10134000009711F00E948C03812FDF91CF911F91A4
:101350000F91FF90EF90DF90CF900895CF92DF92A2
:10136000EF92FF920F931F93CF93DF93EC018A814B
:10137000809561115EC0EC81FD819081892380831D
:10138000E885F98580819A81892B808389899A896A
:10139000009711F00E948C03EA85FB8590818B8178
:1013A0008095892380838B89882331F0EE81FF81AA
:1013B00080819B81892B80838C898823C9F00E943E
:1013C000EF036B017C01EE85FF8580819B81892382
:1013D00079F40E94EF036C197D098E099F090D892C
:1013E0001E892F89388D601771078207930758F37C
:1013F00089899A89009711F00E948C03EE81FF8100
:1014000090818B81809589238083EA85FB8580810B
:101410009B81892B808389899A890097B1F0DF911C
:10142000CF911F910F91FF90EF90DF90CF900C9490
:101430008C03E885F9859081892380838B898823B3
:1014400009F4A4CFEC81FD819DCFDF91CF911F9155
:101450000F91FF90EF90DF90CF9008950F931F931F
:10146000CF93DF938C01D62FC8E06D2F6078C80131
:101470000E94AE09DD0FC150C1F7C801DF91CF91C5
:101480001F910F910C943E09CF93DF93FC012089AB
:10149000211106C0EC010E942E0A811106C0188A93
:1014A00081E090E0DF91CF91089582E0888BF8CFC2
:1014B0001F93CF93DF93EC01162F188A0E94DD084B
:1014C000882379F0612F660FCE010E942E0A8111C8
:1014D00005C0188ADF91CF911F91089582E0888B13
:1014E000F9CF84E0FCCFFC019389138AA085B185F4
:1014F0002C918281809582238C938389882331F07B
:10150000A481B5818C912281822B8C93A285B38595
:101510002C918381809582238C938389882331F059
:10152000A681B7818C912381822B8C93938B089514
:101530000F931F93CF93DF93CDB7DEB7EB970FB623
:10154000F894DEBF0FBECDBFDC011C928BEE90E0A5
:1015500014969C938E93139781E090E012969C933F
:101560008E93119715966C93159716964C93169724
:1015700069834A838C8B8D8B82E090E09B8B8A8B76
:1015800008EE13E020E030E00E8B1F8B288F398FA0
:1015900070E0FB01EB51FC4F249161567C4FFB0145
:1015A00064916B8330E0220F331FF901EB57FC4F3E
:1015B000859194919E838D83F901E559FC4F859126
:1015C00094919A878987F901EF5AFC4F85919491FC
:1015D0009E878D8750E0FA01EB51FC4F24914156D4
:1015E0005C4FFA0144914C8330E0220F331FF90124
:1015F000EB57FC4F8591949198878F83F901E559BA
:10160000FC4F859194919C878B87F901EF5AFC4F91
:1016100085919491988B8F878BE3FE013196179675
:1016200001900D928A95E1F7CE0101960E94730A0E
:10163000EB960FB6F894DEBF0FBECDBFDF91CF9112
:101640001F910F910895CF92DF92EF92FF92CF9367
:10165000DF93EC01603282E07807CCF5653B7105E1
:1016600014F064EB70E0898128E830E0281B310930
:1016700087FD3395220F331F220F331F6901330F6C
:10168000EE08FF088A8128E532E0281B310987FD32
:101690003395220F331F220F331F032E000C440BF0
:1016A000550B2C193D094E095F09DB0177FF02C07C
:1016B000B0E0A0E00E94A74A24EB30E040E050E018
:1016C0000E947D4AC20ED31EE41EF51EB601E881BB
:1016D000E03370F5298188E890E0821B910927FDAD
:1016E0009395880F991F880F991F681779077CF0C9
:1016F0002A8188E592E0821B910927FD9395880F46
:10170000991F880F991F681779070CF4CB0102976E
:10171000880F991F4FB7F8942E2F30E0F901EE0F84
:10172000FF1FE20FF31FE254F44E928381834FBFF9
:10173000DF91CF91FF90EF90DF90CF9008951F93AE
:10174000CF93DF93EC01162F8881803308F04EC0D1
:1017500061E0812F0E9450038881282F30E0F90139
:10176000EE0FFF1FE20FF31FE254F44E1F73608170
:10177000607C612B608319821A822CE0622F0E94A8
:10178000474E829FB001112430E020E0AB01420FB0
:10179000531FFA01EE0FFF1FE40FF51FE254F44E42
:1017A000908196FD16C02F5F3F4F2C30310571F7A9
:1017B000813009F51092800082E0809381001092C0
:1017C000850010928400B19A80916F0082608093AE
:1017D0006F00E8818E2F90E0FC01EE0FFF1FE80FF5
:1017E000F91FE254F44E8081806480838881DF9108
:1017F000CF911F910895823061F4109290008093F0
:101800009100109295001092940088BB8093710013
:10181000E0CF833069F41092A00082E08093A100B1
:101820001092A5001092A40089BB80937200D1CFC2
:101830008111CFCF1092200182E08093210110927C
:101840002501109224018ABB80937300C2CFFC0152
:101850009091BD1B903398F481E0890F8093BD1B5C
:101860009083892F90E0FC01EE0FFF1FE80FF91F16
:10187000E254F44E88EB9BE09283818308958FEFCE
:1018800080830895AF92BF92CF92DF92EF92FF9242
:101890000F931F93CF93DF936B017A01EC01C75431
:1018A000D44E28813CE0389F8001399F100D1124CF
:1018B000A090BD1BB12C27FF1FC0FB01118210821D
:1018C00088818F5F888388819801280F311D87FD6B
:1018D0003A95F6012A153B051CF488818C30C4F139
:1018E00080819181049680349C4908F473C0F6018C
:1018F00080819181049670C088819801280F311DE4
:1019000087FD3A952A153B05DCF68881A801480F2A
:10191000511D87FD5A95FA01EE0FFF1FE40FF51FC9
:10192000E254F44E808186FFCBCF8881F801E80F26
:10193000F11D87FDFA95CF01EE0FFF1FE80FF91F8C
:10194000E254F44E808160E08F730E942203B8CF8E
:10195000808191812881A801420F511D27FD5A9550
:101960009A01FA01EE0FFF1FE20FF31FE254F44E4B
:1019700021813281820F931FF701918380838881B7
:101980009801280F311D87FD3A95F901EE0FFF1FD1
:10199000E20FF31FE254F44E808186FF22C088815B
:1019A000080F111D87FD1A95F801EE0FFF1FE00FBC
:1019B000F11FE254F44E808161E08F73DF91CF918B
:1019C0001F910F91FF90EF90DF90CF90BF90AF905D
:1019D0000C94220380E49CE9F701918380838FEFCC
:1019E0008883DF91CF911F910F91FF90EF90DF904F
:1019F000CF90BF90AF9008950F931F93CF93DF9335
:101A0000C3E2D2E00FEA1BE1888122960E94F9022C
:101A1000F801819391938F01F2E0CD32DF07A1F7B6
:101A20008FEA9BE1DF91CF911F910F9108952F9243
:101A30003F924F925F926F927F928F929F92AF925E
:101A4000BF92CF92DF92EF92FF920F931F93CF93AB
:101A5000DF9300D000D01F92CDB7DEB77D836C83BB
:101A6000312C212C88248A94982C54016C01990FD4
:101A7000EE08FF0805E014E02A01550F6608770814
:101A800080910002803239F5E0EDF2E0F491FE83BE
:101A9000F7FD70C061E080E20E945003FE81F11109
:101AA00039C0C982DA82EB82FF8268E478EE81E095
:101AB00090E029813A814B815F810E947D4ABA0181
:101AC000A90141505109610971099E81992309F4C5
:101AD000CEC194E03DC08F3F09F04CC080E28093BE
:101AE0000002E0EDF2E0F491FE838F2FFF3F09F456
:101AF00041C0F23009F4C8C008F069C0FF2309F4FE
:101B00008DC0F13009F4A2C087FD34C061E080E2ED
:101B10000E9450038E81823009F016C1C982DA8298
:101B2000EB82FF8260E970ED83E090E0A70196010F
:101B30000E947D4ABA01A901415051096109710908
:101B400093E04F3F51056105710511F00CF0ADCFE9
:101B50008091B100887F892B8093B100EE81E230C3
:101B600009F475C10CF06BC1EE2309F484C1E130B6
:101B700009F401C1C301B2010E94BC0380E20E94CA
:101B8000FD03C301B2010E94BC038FEF281A380A7B
:101B9000EC81FD81E215F30509F072CF27960FB6AF
:101BA000F894DEBF0FBECDBFDF91CF911F910F9193
:101BB000FF90EF90DF90CF90BF90AF909F908F906D
:101BC0007F906F905F904F903F902F9008959E81EF
:101BD000943009F49BC008F479C0953009F094CF93
:101BE0001092200110922101809121018860809340
:101BF000210180912101816080932101F80184916C
:101C0000E82FF0E0EE0FFF1FEB57FC4F859194910A
:101C1000EFEBF3E084918093961B3CCF14BC15BC92
:101C200084B5826084BD85B5816085BDF8018491ED
:101C3000E82FF0E0EE0FFF1FEB57FC4F85919491DA
:101C4000EFEBF3E0849180939A1B24CF10928000F5
:101C50001092810080918100886080938100809142
:101C60008100816080938100F8018491E82FF0E089
:101C7000EE0FFF1FEB57FC4F85919491EFEBF3E0D4
:101C800084918093991B06CF1092B0001092B100FE
:101C90008091B00082608093B0008091B10081603B
:101CA0008093B100F8018491E82FF0E0EE0FFF1F60
:101CB000EB57FC4F859194919093931C8093921CC9
:101CC000EFEBF3E084918093941CE4CE10929000AB
:101CD0001092910080919100886080939100809192
:101CE0009100816080939100F8018491E82FF0E0E9
:101CF000EE0FFF1FEB57FC4F85919491EFEBF3E054
:101D000084918093981BF3E0FE83C4CE1092A000D0
:101D10001092A1008091A10088608093A100809121
:101D2000A10081608093A100F8018491E82FF0E088
:101D3000EE0FFF1FEB57FC4F85919491EFEBF3E013
:101D400084918093971BA6CE60E072E18AE790E0D1
:101D5000A70196010E947D4ABA01A901415051098B
:101D600061097109EE81E130C1F480918100887FC1
:101D70008160809381005093890040938800809215
:101D8000A71B9092A81BA092A91BB092AA1B80919E
:101D90006F00826080936F00EDCEFE81F330C1F45E
:101DA00080919100887F8160809391005093990089
:101DB000409398008092A31B9092A41BA092A51B15
:101DC000B092A61B80917100826080937100D2CE88
:101DD0008E818430C1F48091A100887F81608093DE
:101DE000A1005093A9004093A80080929F1B90925D
:101DF000A01BA092A11BB092A21B809172008260D6
:101E000080937200B7CE9E81953009F0A7CE809165
:101E10002101887F816080932101509329014093A3
:101E2000280180929B1B90929C1BA0929D1BB092BC
:101E30009E1B809173008260809373009BCEFE8115
:101E4000F43079F20CF4B2CFF53039F393CE4093FD
:101E5000B3008092951C9092961CA092971CB09211
:101E6000981C8091700082608093700083CE85B54D
:101E7000887F836085BD47BD8092AB1B9092AC1B71
:101E8000A092AD1BB092AE1B80916E0082608093D9
:101E90006E0070CE4F925F926F927F928F929F9260
:101EA000AF92BF92CF92DF92EF92FF920F931F9368
:101EB000CF93DF93CDB7DEB72E970FB6F894DEBF82
:101EC0000FBECDBF8091011E9091021E2091031E76
:101ED00031E03093331D2093551D1092341D109224
:101EE000561DDC01ED91FC910190F081E02D6BE33A
:101EF000199580E00E94B7061091031E0E94970377
:101F00004B015C0180912D1D811166C081E08093A1
:101F10002D1D80932C1D9FEF90932B1D10922A1D39
:101F20009DE09093291D8093081D8091081D110F3D
:101F3000182B1093081D8091071D813009F0A9C14D
:101F40001092071D0E9497034B015C018091081DB0
:101F50008093BB0080912F1D9091301DA091311D69
:101F6000B091321D892B8A2B8B2BA1F00E949703F5
:101F700000912F1D1091301D2091311D3091321D87
:101F8000681979098A099B0906171707280739076D
:101F900008F443C08091BC0083FDD8CF85EC8093CA
:101FA000BC000E9497034B015C0180912D1D813084
:101FB00009F471C180912A1D8E3008F08EC1809184
:101FC0002A1DA9E0BDE1E7EEFCE190E0981751F190
:101FD0002D9121939F5FFACF80912F1D9091301DFD
:101FE000A091311DB091321D892B8A2B8B2B09F4C6
:101FF00089CF0E94970340902F1D5090301D609014
:10200000311D7090321D681979098A099B0946169D
:1020100057066806790608F075CF80912E1D0E943C
:10202000960680E01092E61C8093E51C8E010F5FFF
:102030001F4F6E01BFE0CB0ED11C8091011E90910D
:10204000021EDC01ED91FC910284F385E02D1995CF
:10205000B82E8091011E9091021EDC01ED91FC9141
:102060000284F385E02D1995E12C8E299B29F80136
:10207000819391938F01CE16DF06F9F6C090081E6A
:10208000D090091EE0900A1EF0900B1E69817A81A3
:10209000072E000C880B990B0E944749A701960157
:1020A0000E94BF4B2091181E3091191E40911A1E9C
:1020B00050911B1E0E94E04A6093281E7093291EB7
:1020C00080932A1E90932B1E6B817C81072E000C1F
:1020D000880B990B0E944749A70196010E94BF4BAC
:1020E00020911C1E30911D1E40911E1E50911F1EDE
:1020F0000E94E04A60932C1E70932D1E80932E1E2A
:1021000090932F1E8091001E61E06827681B770B5B
:10211000072E000C880B990B0E9447494B015C016C
:102120006D817E81072E000C880B990B0E94474918
:102130009B01AC01C501B4010E94A649A70196010B
:102140000E94BF4B2091201E3091211E4091221EE3
:102150005091231E0E94E04A6093301E7093311EFE
:102160008093321E9093331E6F817885072E000C6A
:10217000880B990B0E94474920E030EF41E456E478
:102180000E94E14A20E030E04AEA53E40E94BF4B5B
:102190006093241E7093251E8093261E9093271E05
:1021A000C090041ED090051EE090061EF090071E01
:1021B00069857A85072E000C880B990B0E94474988
:1021C000A70196010E94BF4B20910C1E30910D1E5D
:1021D00040910E1E50910F1E0E94E04A6093341EE3
:1021E0007093351E8093361E9093371E6B857C85C9
:1021F000072E000C880B990B0E944749A7019601F6
:102200000E94BF4B2091101E3091111E4091121E52
:102210005091131E0E94E04A6093381E7093391E3D
:1022200080933A1E90933B1E6D857E85072E000C91
:10223000880B990B0E944749A70196010E94BF4B4A
:102240002091141E3091151E4091161E5091171E9C
:102250000E94E04A60933C1E70933D1E80933E1E98
:1022600090933F1E2E960FB6F894DEBF0FBECDBFE3
:10227000DF91CF911F910F91FF90EF90DF90CF9062
:10228000BF90AF909F908F907F906F905F904F9096
:10229000089585EE84CE80912F1D9091301DA091E0
:1022A000311DB091321D892B8A2B8B2B09F47DCEE9
:1022B0000E94970300912F1D1091301D2091311D18
:1022C0003091321D681979098A099B090617170789
:1022D0002807390708F069CEA0CE8EE072CE7F9233
:1022E0008F929F92AF92BF92CF92DF92EF92FF9226
:1022F0000F931F93CF93DF93EC01062F142F188AAF
:1023000019AE1AAE0E94DD08882309F457C0602F69
:10231000660F6160CE010E942E0A81114BC0188A9F
:102320007E01A12EB12CD12CC12C450181E0881A4F
:102330009108CA14DB0459F100E088E0782EC81433
:10234000D904DCF4000FCE010E943E09082B7A94D8
:102350007110F8CF60E0CE010E94AE0989899A8998
:10236000009711F00E948C03F701018FFFEFCF1A45
:10237000DF0A8FEFE81AF80ADCCF000FCE010E94C7
:102380003E09082B7A947110F8CF61E0E4CF19AFC1
:10239000CE010E945B08812FDF91CF911F910F9199
:1023A000FF90EF90DF90CF90BF90AF909F908F9075
:1023B0007F90089582E0888B10E0EACF84E0FBCF25
:1023C0000F931F93CF93DF93162F022FEC012796C5
:1023D00069E2CE010E94580A612F6068CE010E9416
:1023E000440A602FCE010E94440ACE01DF91CF91B2
:1023F0001F910F910C945B08FF920F931F93CF9343
:10240000DF93EC01F62E8C01095F1F4F69E2C801D2
:102410000E94580A6F2D6068C8010E94440AC801D2
:102420000E945B0842E069E2C8010E946F11FE0150
:10243000E05CFF4F8081319690812FEF3FEF98173E
:1024400040F4DE01A90FB11D90962C9130E09F5F02
:10245000908390814FEF5FEF981728F4C90FD11D3B
:1024600048A19F5F908380E0942F822B932BDF9174
:10247000CF911F910F91FF900895FC0101900020D2
:10248000E9F73197AF01481B590BBC0187E59DE186
:102490000C94420481E592E00C943D128F929F923D
:1024A000AF92BF920F931F93CF93DF93CDB7DEB759
:1024B000A1970FB6F894DEBF0FBECDBF19A2423070
:1024C00008F44AE08E010F5D1F4F842E912CB12C31
:1024D000A12CA50194010E94AF4AE62FB901CA01BF
:1024E000EA30F4F4E05DD801EE938D01232B242B28
:1024F000252B79F790E080E0109719F0CD010E942C
:102500003D12A1960FB6F894DEBF0FBECDBFDF918E
:10251000CF911F910F91BF90AF909F908F90089592
:10252000E95CE1CFCF92DF92EF92FF92CF93DF93FE
:102530006B017C016DE287E59DE10E949805EC014D
:1025400066277727CB016C197D098E099F094AE020
:102550000E944E128C0F9D1FDF91CF91FF90EF9044
:10256000DF90CF900895BC01990F880B990B97FDD0
:102570000C9492124AE00C944E12CF93DF930E9477
:10258000B312EC010E944A128C0F9D1FDF91CF9174
:102590000895BC0190E080E04AE00C944E12CF9385
:1025A000DF930E94C912EC010E944A128C0F9D1FFA
:1025B000DF91CF910895BF92CF92DF92EF92FF9279
:1025C0000F931F93CF93DF93EC016C0187E0C80E4C
:1025D000D11C7E01E0E4EE0EF11CF70110828E01A9
:1025E0000F5B1F4FF8011082E989FA8990818A8573
:1025F0008095892380838A8D882331F0ED85FE853F
:1026000080819A85892B8083888D998D009711F020
:102610000E948C03EF85F8899081898580958923B4
:1026200080838A8D882331F0EB85FC8580819985B4
:10263000892B808384E0B82E888D998D009711F0C6
:102640000E948C03BA94B110F7CF8A8D882331F0A1
:1026500062E070E080E090E00E94BC0369E2C601A5
:102660000E94580A62E9C6010E94440AC6010E94FB
:102670005B0841E069E2C6010E946F11F801208108
:10268000F7018081281708F053C0FE01E20FF11D09
:1026900080A12F5FF8012083182F682F70E090E051
:1026A00080E040E10E944E120E944A1280E0143401
:1026B000A9F581E088830B811C81980150E040E0FE
:1026C00061E0CE010E94E0111C830B8309811A8115
:1026D0008881811103C0CE010E94DB12980150E075
:1026E00040E06FE0CE010E94E0111A83098321E0EF
:1026F00030E040E050E060E0CE010E94E01163E095
:1027000070E080E090E00E94BC0323E030E040E015
:1027100050E060E0CE010E94E01181E0DF91CF91B6
:102720001F910F91FF90EF90DF90CF90BF90089591
:102730008FEF9FEFB1CFAF92BF92CF92DF92EF9228
:10274000FF920F931F93CF93DF93EC015B016A011C
:1027500079018881811103C0CE010E94DB1264E1FE
:10276000CE010E94FC11F8019183808366E1CE01C5
:102770000E94FC11F5019183808368E1CE010E94E3
:10278000FC11F601918380836AE1CE010E94FC1165
:10279000F701918380838B819C81853D9105A1F117
:1027A00080F40097D9F1803C910599F1DF91CF91A8
:1027B0001F910F91FF90EF90DF90CF90BF90AF905F
:1027C0000895863F9105D9F08F3F910541F08B3EEA
:1027D000910561F762E370E080E090E004C063E09F
:1027E00070E080E090E0DF91CF911F910F91FF901A
:1027F000EF90DF90CF90BF90AF900C94BC0368E156
:1028000070E080E090E0EFCF65E670E080E090E07F
:10281000EACF6AE970E080E090E0E5CF6CEB72E02F
:1028200080E090E0E0CF0C943D129F92AF92BF9277
:10283000CF92DF92EF92FF920F931F93CF93DF938C
:1028400009EA1CE12BEA3CE14DEA5CE16FEA7CE13C
:102850008DEA9EE10E949B134091AB1C5091AC1CF1
:102860006091AD1C7091AE1C8091AF1C9091B01C1A
:102870000E944B029093A81C8093A71C0FE91CE1B7
:1028800021EA3CE143EA5CE165EA7CE18BE69EE11A
:102890000E949B134091A11C5091A21C6091A31C0B
:1028A0007091A41C8091A51C9091A61C0E944B02C3
:1028B0008C0190939E1C80939D1CC090A91CD0906D
:1028C000AA1CE0909F1CF090A01CA090A71CB090A8
:1028D000A81C8091070290910802C816D906B4F08E
:1028E0002091090230910A022C153D057CF02091BF
:1028F0000B0230910C02A216B30644F0C1E0209105
:102900000D0230910E022A153B050CF4C0E0E816CA
:10291000F906C4F08091090290910A028E159F0574
:102920008CF080910B0290910C020817190754F05B
:1029300080910D0290910E02DC2F992493948017C0
:10294000910714F4912CD0E084E592E00E941314D6
:102950008C2F90E00E94BD1284E692E00E94131436
:10296000892D90E00E94BD1285E792E00E94131429
:102970008D2F90E00E94BD1283E892E00E94131414
:10298000C6010E94B31289E892E00E941314C701A5
:102990000E94BD128FE294E10E9413148091A71C43
:1029A0009091A81C0E94C91282E992E00E9413141F
:1029B00080919D1C90919E1C0E94CF128CE992E008
:1029C0000E9413148091AF1C9091B01C0E94C912F8
:1029D00081EA92E00E9413148091A51C9091A61C9C
:1029E0000E94CF1284E494E10E9413148091AD1CE4
:1029F0009091AE1C0E94C91289EA92E00E941314C1
:102A00008091A31C9091A41C0E94CF1281EB92E0B4
:102A10000E9413148091AB1C9091AC1C0E94C912AF
:102A200086EB92E00E9413148091A11C9091A21C4D
:102A30000E94CF1289E394E10E9413148091A91C93
:102A40009091AA1C0E94C9128EEB92E00E9413146E
:102A500080919F1C9091A01C0E94CF1286EC92E066
:102A60000E9413148091070290910802C816D9069B
:102A700044F081E02091090230910A022C153D05B5
:102A80000CF480E090E00E94BD1281EF92E00E9481
:102A900013148091070290910802E816F90644F099
:102AA00081E02091090230910A022E153F050CF4B5
:102AB00080E090E00E94BD128CE193E00E9413142C
:102AC00080910B0290910C02A816B90644F081E0A7
:102AD00020910D0230910E022A153B050CF480E086
:102AE00090E00E94BD1289E493E00E94131480914B
:102AF0000B0290910C020817190744F081E0209115
:102B00000D0230910E02201731070CF480E090E0A6
:102B1000DF91CF911F910F91FF90EF90DF90CF90B9
:102B2000BF90AF909F900C94BD125F926F927F9276
:102B30008F929F92AF92BF92CF92DF92EF92FF92CD
:102B40000F931F93CF93DF9309EA1CE12BEA3CE13B
:102B50004DEA5CE16FEA7CE18DEA9EE10E949B1305
:102B60004091AB1C5091AC1C6091AD1C7091AE1C9F
:102B70008091AF1C9091B01C0E944B029093A81CB6
:102B80008093A71C0FE91CE121EA3CE143EA5CE1E8
:102B900065EA7CE18BE69EE10E949B136090A11C9C
:102BA0007090A21C8090A31C9090A41CC091A51CA6
:102BB000D091A61CA301B401CE010E944B028C014E
:102BC00090939E1C80939D1CC090A91CD090AA1C21
:102BD000E0909F1CF090A01CA090A71CB090A81C97
:102BE0008091AF1C9091B01C2091AD1C3091AE1C17
:102BF0002817390770F54091AB1C5091AC1C481751
:102C0000590738F5821B930B20910F023091100267
:102C100028173907F0F48091110290911202C8161A
:102C2000D906BCF080911302909114028C159D0579
:102C300084F08091150290911602A816B9064CF006
:102C40005524539480911702909118028A159B0580
:102C50000CF4512C8C169D0650F56C167D0638F53B
:102C6000C819D90980910F02909110028C179D0705
:102C7000F0F48091110290911202E816F906BCF06E
:102C800080911302909114028E159F0584F080911B
:102C9000150290911602081719074CF0809117023F
:102CA00090911802C52DD1E08017910714F4D0E05F
:102CB000C0E086E793E00E941314852D90E00E9407
:102CC000BD1289E893E00E9413148D2F90E00E94BA
:102CD000BD128DE993E00E9413148C2F90E00E94A6
:102CE000BD1283E892E00E941314C6010E94B31241
:102CF00089E892E00E941314C7010E94BD128FE27E
:102D000094E10E9413148091A71C9091A81C0E942A
:102D1000C91282E992E00E94131480919D1C909147
:102D20009E1C0E94CF128CE992E00E9413148091A5
:102D3000AF1C9091B01C0E94C91281EA92E00E94DF
:102D400013148091A51C9091A61C0E94CF1284E4BC
:102D500094E10E9413148091AD1C9091AE1C0E94CE
:102D6000C91289EA92E00E9413148091A31C9091E9
:102D7000A41C0E94CF1281EB92E00E941314809158
:102D8000AB1C9091AC1C0E94C91286EB92E00E9491
:102D900013148091A11C9091A21C0E94CF1289E370
:102DA00094E10E9413148091A91C9091AA1C0E9486
:102DB000C9128EEB92E00E94131480919F1C909197
:102DC000A01C0E94CF128EEA93E00E9413148091FF
:102DD000110290911202C816D90644F081E02091A8
:102DE0001302309114022C153D050CF480E090E0A4
:102DF0000E94BD128BED93E00E941314809111028A
:102E000090911202E816F90644F081E02091130235
:102E1000309114022E153F050CF480E090E00E94E2
:102E2000BD1288E094E00E941314809115029091E5
:102E30001602A816B90644F081E0209117023091DD
:102E400018022A153B050CF480E090E00E94BD12A8
:102E50008BE394E00E941314809115029091160266
:102E60000817190744F081E02091170230911802E9
:102E7000201731070CF480E090E00E94BD128EE62E
:102E800094E00E9413142091AF1C3091B01C8091EB
:102E9000AD1C9091AE1C8217930740F481E04091E5
:102EA000AB1C5091AC1C4217530708F080E090E037
:102EB0000E94BD1283E894E00E9413142091AF1C7D
:102EC0003091B01C8091AD1C9091AE1C281B390B29
:102ED00081E090E040910F02509110024217530799
:102EE00010F090E080E00E94BD1289EA94E00E9418
:102EF00013142091A51C3091A61C8091A31C9091C5
:102F0000A41C8217930740F481E04091A11C5091CA
:102F1000A21C4217530708F080E090E00E94BD1207
:102F20008EEB94E00E9413142091A51C3091A61CF6
:102F30008091A31C9091A41C281B390B81E090E088
:102F400040910F02509110024217530710F090E089
:102F500080E0DF91CF911F910F91FF90EF90DF9074
:102F6000CF90BF90AF909F908F907F906F905F9029
:102F70000C94BD125F926F927F928F929F92AF924C
:102F8000BF92CF92DF92EF92FF920F931F93CF9356
:102F9000DF9309EA1CE12BEA3CE14DEA5CE16FEAD0
:102FA0007CE18DEA9EE10E949B134091AB1C509105
:102FB000AC1C6091AD1C7091AE1C8091AF1C9091C7
:102FC000B01C0E944B029093A81C8093A71C0FE991
:102FD0001CE121EA3CE143EA5CE165EA7CE18BE645
:102FE0009EE10E949B136090A11C7090A21CE09037
:102FF000A31CF090A41C8090A51C9090A61CA3017B
:10300000B701C4010E944B026C0190939E1C8093F7
:103010009D1C0091A91C1091AA1CC0919F1CD091CD
:10302000A01CA090A71CB090A81C8091AD1C9091F2
:10303000AE1C2091AF1C3091B01C2817390770F5D9
:103040004091AB1C5091AC1C4817590738F5821BB6
:10305000930B2091B31C3091B41C28173907F0F45E
:103060008091B71C9091B81C08171907BCF080918B
:10307000BB1C9091BC1C8017910784F08091BF1CF1
:103080009091C01CA816B9064CF055245394809119
:10309000C31C9091C41C8A159B050CF4512C8E14F2
:1030A0009F0450F56E147F0438F5E818F9088091F4
:1030B000B11C9091B21C8E159F05F0F48091B51C47
:1030C0009091B61CC817D907BCF08091B91C90919B
:1030D000BA1C8C179D0784F08091BD1C9091BE1C7A
:1030E000C816D9064CF0FF24F3948091C11C90912E
:1030F000C21C8C159D050CF4F12C48018C1A9D0AFC
:1031000097FE03C091948194910824E6821691045D
:103110001CF4EF2C511001C0E12C84EE94E00E94CD
:103120001314852D90E00E94BD1284EF94E00E945C
:1031300013148F2D90E00E94BD1285E095E00E944F
:1031400013148E2D90E00E94BD1283E892E00E943D
:103150001314C8010E94B31289E892E00E9413146C
:10316000CE010E94BD128FE294E10E94131480915F
:10317000A71C9091A81C0E94C91282E992E00E94AB
:10318000131480919D1C90919E1C0E94CF128CE97B
:1031900092E00E9413148091AF1C9091B01C0E9489
:1031A000C91281EA92E00E9413148091A51C9091AB
:1031B000A61C0E94CF1284E494E10E941314809113
:1031C000AD1C9091AE1C0E94C91289EA92E00E9447
:1031D00013148091A31C9091A41C0E94CF1281EB28
:1031E00092E00E9413148091AB1C9091AC1C0E9441
:1031F000C91286EB92E00E9413148091A11C909159
:10320000A21C0E94CF1289E394E10E9413148091C2
:10321000A91C9091AA1C0E94C9128EEB92E00E94F8
:10322000131480919F1C9091A01C0E94CF128FE2DA
:1032300094E10E9413148091A71C9091A81C0E94F5
:10324000C91282E992E00E94131480919D1C909112
:103250009E1C0E94CF1283E195E00E94131480917E
:10326000B71C9091B81C0817190744F081E0209111
:10327000BB1C3091BC1C201731070CF480E090E09F
:103280000E94BD1280E495E00E9413148091B51C49
:103290009091B61CC817D90744F081E02091B91C61
:1032A0003091BA1C2C173D070CF480E090E00E948E
:1032B000BD128DE695E00E9413148091BF1C909181
:1032C000C01CA816B90644F081E02091C31C3091BF
:1032D000C41C2A153B050CF480E090E00E94BD124E
:1032E00080EA95E00E9413148091BD1C9091BE1C51
:1032F000C816D90644F081E02091C11C3091C21C4F
:103300002C153D050CF480E090E00E94BD1283ED89
:1033100095E00E9413142091AD1C3091AE1C809159
:10332000AF1C9091B01C8217930740F481E040914C
:10333000AB1C5091AC1C4217530708F080E090E0A2
:103340000E94BD1288EE95E00E9413142091AD1CDE
:103350003091AE1C8091AF1C9091B01C281B390B92
:1033600081E090E04091B31C5091B41C4217530788
:1033700010F090E080E00E94BD1289E096E00E948B
:1033800013142091A31C3091A41C8091A51C909132
:10339000A61C8217930740F481E04091A11C509134
:1033A000A21C4217530708F080E090E00E94BD1273
:1033B0008EE196E00E9413142091A31C3091A41C6E
:1033C0008091A51C9091A61C281B390B81E090E0F0
:1033D0004091B11C5091B21C4217530710F090E07D
:1033E00080E00E94BD128FE396E00E94131481E0FA
:1033F00090E024E68216910414F090E080E0DF91E2
:10340000CF911F910F91FF90EF90DF90CF90BF90E1
:10341000AF909F908F907F906F905F900C94BD12B3
:10342000CF93DF930E943D12EC010E944A128C0F51
:103430009D1FDF91CF91089587E696E00E94101AB4
:1034400081E996E00E94101A89EA96E00E94101A1B
:1034500081EC96E00E94101A84ED96E00E94101A0A
:1034600087EE96E00E94101A88EF96E00E94101AEC
:1034700089E097E00E94101A85E297E00E94101AF6
:1034800083E497E00E94101A82EC91E10C94101AE8
:103490008EE497E00E94101A81E996E00E94101ACB
:1034A00085E797E00E94101A8AE897E00E94101AB8
:1034B0008AE997E00E94101A8AEA97E00E94101A9F
:1034C00088EB97E00E94101A86EC97E00E94101A91
:1034D0008FED97E00E94101A83E497E00E94101A83
:1034E00082EC91E10C94101A81E098E00E94101A8D
:1034F0008CE198E00E94101A82E398E00E94101A72
:103500008BE498E00E94101A81E698E00E94101A5D
:1035100082EC91E10C94101A8CE698E00E94101A4B
:1035200081E996E00E94101A8CE798E00E94101A38
:1035300089E898E00E94101A8CE998E00E94101A1D
:1035400082EB98E00E94101A85EC98E00E94101A15
:103550008FED98E00E94101A88EF98E00E94101AF0
:1035600084E199E00E94101A81E399E00E94101A08
:1035700082EC91E10C94101A0F931F9309EA1CE15D
:103580002BEA3CE14DEA5CE16FEA7CE18DEA9EE1E9
:103590000E949B134091AB1C5091AC1C6091AD1CE0
:1035A0007091AE1C8091AF1C9091B01C0E944B0298
:1035B0009093A81C8093A71C0FE91CE121EA3CE131
:1035C00043EA5CE165EA7CE18BE69EE10E949B13A5
:1035D0004091A11C5091A21C6091A31C7091A41C4D
:1035E0008091A51C9091A61C0E944B0290939E1C5A
:1035F00080939D1C8AE399E00E94101A8FE992E162
:103600000E9413148091A71C9091A81C0E94C912BB
:103610008EE499E00E94131486E99CE00E94131442
:103620008091AF1C9091B01C0E94C91280E599E076
:103630000E94131484EC99E00E9413148091AD1C35
:103640009091AE1C0E94C91280E599E00E9413146B
:1036500089EC99E00E9413148091AB1C9091AC1CF2
:103660000E94C91280E599E00E94131488EA92E151
:103670000E9413148091A91C9091AA1C0E94C91247
:1036800080E599E00E94131480E599E00E94101AE9
:1036900082E599E00E94101A8FE992E10E941314CA
:1036A00080919D1C90919E1C0E94C9128EE499E00D
:1036B0000E94131486E99CE00E9413148091A51CBB
:1036C0009091A61C0E94C91280E599E00E941314F3
:1036D00084EC99E00E9413148091A31C9091A41C87
:1036E0000E94C91280E599E00E94131489EC99E0C8
:1036F0000E9413148091A11C9091A21C0E94C912D7
:1037000080E599E00E94131488EA92E10E94131464
:1037100080919F1C9091A01C0E94C91280E599E0A5
:103720000E94131480E599E00E94101A87E699E040
:103730000E94101A81E899E00E9413148091A31C42
:103740009091A41C2091A51C3091A61C821B930B68
:103750000E94CF128AE899E00E9413148091A31C62
:103760009091A41C2091A11C3091A21C821B930B50
:103770000E94CF1283E999E00E94101A81E899E033
:103780000E9413148091AD1C9091AE1C2091AF1C2F
:103790003091B01C821B930B0E94CF128AE899E0F3
:1037A0000E9413148091AD1C9091AE1C2091AB1C13
:1037B0003091AC1C821B930B0E94CF126AEF70E019
:1037C00080E090E00E94BC031F910F9108954F92FA
:1037D0005F926F927F928F929F92AF92BF92CF92A1
:1037E000DF92EF92FF920F931F93CF936B017C01B7
:1037F000742EAC019B010E94354D882399F08CEA10
:1038000099E0CF911F910F91FF90EF90DF90CF90B3
:10381000BF90AF909F908F907F906F905F904F90F0
:103820000C943D1246015701E894B7F82FEF3FEF93
:103830004FE75FE7C501B4010E94354D81110DC00E
:103840002FEF3FEF4FE75FE7C501B4010E9440490A
:1038500018161CF480EB99E0D4CF2FEF3FEF4FE721
:103860005FE4C701B6010E948E4C18161CF484EB6D
:1038700099E0C7CF2FEF3FEF4FE75FECC701B601ED
:103880000E94404987FDF3CF20E030E0A901C70145
:10389000B6010E94404910E000E087FF0AC06DE2D7
:1038A00087E59DE10E9498058C01F7FAF094F7F8FE
:1038B000F094C0E060E070E080E09FE37C1641F0AF
:1038C00020E030E040E251E40E94BF4BCF5FF6CFF2
:1038D000A70196010E94E14A2B013C010E94384C4D
:1038E0004B015C014AE00E944E127C01E00EF11E89
:1038F000CC23A9F1C501B4010E9445499B01AC014B
:10390000C301B2010E94E04A4B015C016EE287E50F
:103910009DE10E949805E80EF91EC15000F120E0DB
:1039200030E040E251E4C501B4010E94A6492B01F8
:103930003C010E94384C4B01CB010E94C912E80E99
:10394000F91EB40190E080E00E9445499B01AC0162
:10395000C301B2010E94E04A4B015C01DECFC70106
:10396000CF911F910F91FF90EF90DF90CF90BF907C
:10397000AF909F908F907F906F905F904F90089541
:103980004F925F926F927F928F929F92AF92BF926F
:10399000CF92DF92EF92FF920F931F93CF93DF931B
:1039A000CDB7DEB72C970FB6F894DEBF0FBECDBFF4
:1039B0000E944A0FC090301ED090311EE090321EFF
:1039C000F090331E21E030E03A83298320E030E09C
:1039D000A901C701B6010E948E4C87FF02C01A825E
:1039E000198201E010E020E030E0A901C701B60132
:1039F0000E94404987FD02C010E000E069817A81A1
:103A0000601B710B072E000C880B990B0E94474915
:103A10006D837E838F839887A7019601C701B601C6
:103A20000E94A6492B013C01C090281ED090291E5F
:103A3000E0902A1EF0902B1EA7019601C701B60147
:103A40000E94A649A30192010E94E14A0E94F14C02
:103A50009B01AC0180902C1E90902D1EA0902E1EDC
:103A6000B0902F1E6D817E818F8198850E94A6491E
:103A70009B01AC01C501B4010E94604B21EE3EE206
:103A800045E652E40E94A6496093401E7093411E91
:103A90008093421E9093431EA5019401C501B40179
:103AA0000E94A649A30192010E94E14A0E94F14CA2
:103AB0009B01AC01C701B6010E94604B905821EEFA
:103AC0003EE245E652E40E94A6496093441E70938C
:103AD000451E8093461E9093471E0E94EF036B0184
:103AE0007C018091541E9091551EA091561EB0915C
:103AF000571EA7019601281B390B4A0B5B0BCA0105
:103B0000B9010E9445492FE632E143E85AE30E9499
:103B1000A6494B015C01C092541ED092551EE09202
:103B2000561EF092571E8091581E9091591EA091DA
:103B30005A1EB0915B1E89839A83AB83BC834090ED
:103B4000401E5090411E6090421E7090431E209176
:103B5000341E3091351E4091361E5091371EC501DE
:103B6000B4010E94A6492091481E3091491E4091FF
:103B70004A1E50914B1E0E94E14AA30192010E94ED
:103B8000E04A6B017C0120E030E044E353E40E9412
:103B90008E4C18163CF420E030E044EB53E4C701AF
:103BA000B601EDCF20E030E044E353ECC701B601AD
:103BB0000E94404987FF0BC020E030E044EB53E413
:103BC000C701B6010E94E14A6B017C01EBCF29815C
:103BD0003A814B815C8160E070E080E89FE30E9465
:103BE000E04A69877A878B879C87A7019601C30182
:103BF000B2010E94E14A29813A814B815C810E9495
:103C0000A6496B017C0129853A854B855C85C301FA
:103C1000B2010E94A6499B01AC01C701B6010E94F6
:103C2000E14A6B017C0120E030E044E353E40E9470
:103C30008E4C18164CF420E030E044EB53E4C701FE
:103C4000B6010E94E04AEDCF20E030E044E353ECBF
:103C5000C701B6010E94404987FF0BC020E030E059
:103C600044EB53E4C701B6010E94E14A6B017C01B9
:103C7000EBCFC092481ED092491EE0924A1EF092AD
:103C80004B1E4090441E5090451E6090461E709002
:103C9000471E2091381E3091391E40913A1E509196
:103CA0003B1E6D817E818F8198850E94A649A5016A
:103CB00094010E94A64920914C1E30914D1E4091C6
:103CC0004E1E50914F1E0E94E14AA30192010E9494
:103CD000E04A6B017C0120E030E044EB52E40E94BA
:103CE0008E4C18163CF420E030E044E353E4C70166
:103CF000B601EDCF20E030E044EB52ECC701B60155
:103D00000E94404987FF0BC020E030E044E353E4C9
:103D1000C701B6010E94E14A6B017C01EBCFA7010C
:103D20009601C301B2010E94E14A29813A814B8187
:103D30005C810E94A6496B017C01A3019201698507
:103D40007A858B859C850E94A6499B01AC01C701A1
:103D5000B6010E94E14A6B017C0120E030E044EBB7
:103D600052E40E948E4C18164CF420E030E044E3FC
:103D700053E4C701B6010E94E04AEDCF20E030E0F5
:103D800044EB52ECC701B6010E94404987FF0BC0CB
:103D900020E030E044E353E4C701B6010E94E14A69
:103DA0006B017C01EBCFC0924C1ED0924D1EE09275
:103DB0004E1EF0924F1E20913C1E30913D1E4091B0
:103DC0003E1E50913F1EC501B4010E94A64920919C
:103DD000501E3091511E4091521E5091531E0E9410
:103DE000E14A6093501E7093511E8093521E90932F
:103DF000531E2C960FB6F894DEBF0FBECDBFDF91D9
:103E0000CF911F910F91FF90EF90DF90CF90BF90D7
:103E1000AF909F908F907F906F905F904F9008959C
:103E20000E94C01C60914C1E70914D1E80914E1ED0
:103E300090914F1E0E94314CCB010895CF92DF929A
:103E4000EF92FF920E94C01CC090501ED090511E55
:103E5000E090521EF090531E20E030E0A901C7010F
:103E6000B6010E948E4C20E030E040E05FE387FD29
:103E70000CC0C701B6010E94E14A0E94314CCB013F
:103E8000FF90EF90DF90CF900895C701B6010E9498
:103E9000E04AF3CF0E941E1F9093D61C8093D51C3E
:103EA0002091D31C3091D41CA90141505109841791
:103EB000950764F462E870E088E69EE10E94230BB7
:103EC00060E570E085E69EE10C94230BA9014F5F4D
:103ED0005F4F481759074CF464E670E088E69EE1AE
:103EE0000E94230B62E370E0EDCF281B390B37FFF4
:103EF00003C0319521953109223031054CF464EB32
:103F000070E088E69EE10E94230B70E060E0DACF6B
:103F10000895CF92DF92EF92FF920F931F93CF936A
:103F2000DF9388EB99E00E94101A66E470E088E65F
:103F30009EE10E94230B62E870E085E69EE10E940C
:103F4000230B60E070E0CB010E94BC036AE570E0E7
:103F500088E69EE10E94230B6AE570E085E69EE11B
:103F60000E94230B09EA1CE12BEA3CE14DEA5CE1EB
:103F70006FEA7CE18DEA9EE10E949B130FE91CE150
:103F800021EA3CE143EA5CE165EA7CE18BE69EE103
:103F90000E949B134091AB1C5091AC1C6091AD1CD6
:103FA0007091AE1C8091AF1C9091B01C0E944B028E
:103FB0006C019093A81C8093A71C4091A11C509168
:103FC000A21C6091A31C7091A41C8091A51C9091CF
:103FD000A61C0E944B028C0190939E1C80939D1CFA
:103FE000C091A91CD091AA1CE0909F1CF090A01C2D
:103FF00086E79CE00E9413148091AF1C9091B01C46
:104000000E94C91283EC99E00E9413148091AD1CA8
:104010009091AE1C0E94C91288EC99E00E94131482
:104020008091AB1C9091AC1C0E94C91287EA92E16E
:104030000E941314CE010E94B3128EE992E10E94F5
:104040001314C6010E94BD128BE89CE00E94131459
:104050008091A51C9091A61C0E94C91283EC99E046
:104060000E9413148091A31C9091A41C0E94C91259
:1040700088EC99E00E9413148091A11C9091A21CDD
:104080000E94C91287EA92E10E941314C7010E949C
:10409000B3128EE992E10E941314C8010E94BD126E
:1040A0008DEC99E00E9413148091B71C9091B81C7C
:1040B0000E94B31284EE99E00E9413148091BB1CFD
:1040C0009091BC1C0E94B3128BEE99E00E941314D5
:1040D0008091BF1C9091C01C0E94B31284EF99E0A4
:1040E0000E9413148091C31C9091C41C0E94B312AF
:1040F0008DEF99E00E9413148091B31C9091B41C31
:104100000E94BD1286E09AE00E9413148091B51CB3
:104110009091B61C0E94B31284EE99E00E94131491
:104120008091B91C9091BA1C0E94B3128BEE99E059
:104130000E9413148091BD1C9091BE1C0E94B3126A
:1041400084EF99E00E9413148091C11C9091C21CCD
:104150000E94B3128DEF99E00E9413148091B11C5C
:104160009091B21C0E94BD128091AD1C9091AE1C2A
:104170002091AF1C3091B01C2817390768F5409189
:10418000AB1C5091AC1C4817590730F5821B930BA0
:104190002091B31C3091B41C28173907E8F48091A2
:1041A000B71C9091B81CC817D907B4F08091BB1CFC
:1041B0009091BC1C8C179D077CF08091BF1C909146
:1041C000C01CC816D90644F0D1E08091C31C909160
:1041D000C41C8C159D050CF4D0E08091A31C90911B
:1041E000A41C2091A51C3091A61C2817390768F53E
:1041F0004091A11C5091A21C4817590730F5821B11
:10420000930B2091B11C3091B21C28173907E8F4A8
:104210008091B51C9091B61CE816F906B4F0809117
:10422000B91C9091BA1C8E159F057CF08091BD1C25
:104230009091BE1C0817190744F0C1E08091C11C81
:104240009091C21C801791070CF4C0E08EE19AE0B7
:104250000E9413148D2F90E00E94BD128DE29AE00F
:104260000E9413148C2F90E00E94BD12DD2309F4EC
:1042700084C0C11187C0C1E0D0E08EE99AE00E94FD
:1042800013148DE39AE0C330D10561F087E49AE01E
:10429000C130D10539F083E59AE0C230D10511F083
:1042A00080E69AE00E94101A8BE69AE00E94101AAB
:1042B00086E99AE00E941314CE010E94BD1244E6E2
:1042C00050E061E070E088EE93E00E94170D0E94DC
:1042D000C01CC330D10509F088C081EC9AE00E946F
:1042E000101A8AED9AE00E9413148EEE9AE00E9452
:1042F00013148091D31C9091D41C0E94B31286E7B2
:104300009BE10E9413140E941E1F0E94BD1269E1CE
:1043100070E088E69EE10E94230B69E170E085E68B
:104320009EE10E94230B44E650E063E070E088EEDB
:1043300093E00E94170DC091D31CD091D41CCF5A8A
:10434000D1090E941E1FC817D90714F50E94C01C6E
:104350008FEF9AE00E9413140E941E1F0E94B31256
:104360008CE29BE00E9413148091D31C9091D41C8A
:104370008F5A91090E94BD12DECFCC2331F0C2E0EA
:10438000D0E07BCFC3E0D0E078CFD0E0C0E075CF05
:104390006CE870E088E69EE10E94230B68E270E022
:1043A00085E69EE10E94230B68EE73E080E090E0DA
:1043B0000E94BC038091D31C9091D41C8F5A910908
:1043C0009093D41C8093D31C1092CD1C1092CE1CC1
:1043D0001092CF1C1092D01CDF91CF911F910F91A2
:1043E000FF90EF90DF90CF900895C130D10509F094
:1043F0005DC088E39BE00E94101A6CE870E088E6DC
:104400009EE10E94230B68E270E085E69EE10E9437
:10441000230B66E970E080E090E00E94BC0368E254
:1044200070E088E69EE10E94230B68E270E085E67A
:104430009EE10E94230BC091D31CD091D41CCA557D
:10444000D1090E941E1FC817D907BCF40E94C01CC6
:104450008EE49BE00E9413140E941E1F0E94B31260
:104460008CE29BE00E9413148091D31C9091D41C89
:104470008A5591090E94BD12DECF6CE870E088E693
:104480009EE10E94230B68E270E085E69EE10E94B7
:10449000230B60ED77E080E090E00E94BC03809108
:1044A000D31C9091D41C8A5591098ACF229709F088
:1044B00063C084E89BE00E94101A6CE870E088E614
:1044C0009EE10E94230B68E270E085E69EE10E9477
:1044D000230B66E970E080E090E00E94BC030E943C
:1044E0001E1F9093D41C8093D31C6CE870E088E668
:1044F0009EE10E94230B6CE870E085E69EE10E943D
:10450000230BC091D31CD091D41CC65ADF4F0E94FC
:104510001E1F8C179D07BCF40E94C01C8BE99BE0FA
:104520000E9413140E941E1F0E94B3128CE29BE093
:104530000E9413148091D31C9091D41C865A9F4FD3
:104540000E94BD12DECF6CE870E088E69EE10E941A
:10455000230B68E270E085E69EE10E94230B60ED8C
:1045600077E080E090E00E94BC038091D31C9091A2
:10457000D41C865A9F4F24CF82ED9BE00E94101AD4
:1045800068E270E085E69EE10E94230B6CE870E033
:1045900088E69EE10E94230B6EEE72E080E090E0E0
:1045A000DF91CF911F910F91FF90EF90DF90CF900F
:1045B0000C94BC030F931F93CF93DF93EC0188817E
:1045C0009981009759F02A813B812617370730F0EF
:1045D00081E0DF91CF911F910F9108958B016F5F63
:1045E0007F4F0E94874F009759F0998388831B83E0
:1045F0000A832C813D81232B59F7FC011082E8CFDF
:1046000080E0E7CFCF92DF92EF92FF92CF93DF93DC
:10461000CDB7DEB7E2970FB6F894DEBF0FBECDBFC1
:10462000DC01AE014D5C5F4FFE0131969C919633EB
:1046300008F0965320917B00892F8870277F822B6A
:1046400080937B0020911C0280E4289F900111241C
:104650009770922B90937C0090917A009064909345
:104660007A0080917A0086FDFCCF8091780090914D
:104670007900819391934E175F07C1F628E130E0EE
:10468000FE01319650E040E081E04217530784F488
:10469000E080F180C280D380CE14DF042CF4D1827C
:1046A000C082F382E28280E04F5F5F4F3296EDCFAF
:1046B000811103C02150310919F712968D919D91F6
:1046C0000D90BC91A02D883324E09207A105B1057F
:1046D00091F5A98DBA8D28E833E10E945B4E2FEF4A
:1046E00033E040E050E00E947D4ACA01B9010E94D7
:1046F000474920E030E04AE754E40E94BF4B2EE0F7
:104700003DE24AE95FEB0E949B4C22EF32ED4DED1A
:1047100051E40E94A6490E94314CCB01E2960FB6AB
:10472000F894DEBF0FBECDBFDF91CF91FF90EF9029
:10473000DF90CF900895863B2EE49207A105B10546
:1047400009F5A98DBA8D28E833E10E945B4E2FEF61
:1047500033E040E050E00E947D4ACA01B9010E9466
:10476000474920E030E04AE754E40E94BF4B21EE85
:104770003AE744E95FEB0E949B4C2AEF3EE741E7B2
:1047800052E4C7CF8E3A21E09207A105B10509F5A1
:10479000A98DBA8D28E833E10E945B4E2FEF33E0FC
:1047A00040E050E00E947D4ACA01B9010E94474999
:1047B00020E030E04AE754E40E94BF4B2BE83CE69F
:1047C00047E85FEB0E949B4C2EEA37E441E451E45A
:1047D000A0CF84399848A140B10509F09ECFA98D9A
:1047E000BA8D28E833E10E945B4E2FEF33E040E0C2
:1047F00050E00E947D4ACA01B9010E9447496B01FD
:104800007C0120E030E04FEA54E40E94404987FDFB
:1048100027C020E030E44EE455E4C701B6010E9411
:104820008E4C1816ECF020E030EA4CE854E4C70156
:10483000B6010E94E04A20E030E04AE754E40E94DA
:10484000BF4B20E030E849E053E40E94BF4B9B019E
:10485000AC0160E070E080E89FE30E94BF4B5BCF5B
:1048600070E060E05ACFCF92DF92EF92FF920F9309
:104870001F93CF93DF9309EA1CE12BEA3CE14DEA59
:104880005CE16FEA7CE18DEA9EE10E949B1340911E
:10489000AB1C5091AC1C6091AD1C7091AE1C809112
:1048A000AF1C9091B01C0E944B029093A81C809367
:1048B000A71C0FE91CE121EA3CE143EA5CE165EA5F
:1048C0007CE18BE69EE10E949B134091A11C5091DC
:1048D000A21C6091A31C7091A41C8091A51C9091B6
:1048E000A61C0E944B028C0190939E1C80939D1CE1
:1048F000C091A91CD091AA1CE0909F1CF090A01C14
:10490000C090A71CD090A81C8EE49CE00E94101AB6
:104910008FE69CE00E9413148091AF1C9091B01C14
:104920000E94C91283EC99E00E9413148091AD1C7F
:104930009091AE1C0E94C91288EC99E00E94131459
:104940008091AB1C9091AC1C0E94C91287EA92E145
:104950000E941314CE010E94B3128EE992E10E94CC
:104960001314C6010E94BD1284E89CE00E94131437
:104970008091A51C9091A61C0E94C91283EC99E01D
:104980000E9413148091A31C9091A41C0E94C91230
:1049900088EC99E00E9413148091A11C9091A21CB4
:1049A0000E94C91287EA92E10E941314C7010E9473
:1049B000B3128EE992E10E941314C8010E94BD1245
:1049C0008AE99CE00E9413148091110290911202D6
:1049D0000E94B31281EB9CE00E9413148091130299
:1049E000909114020E94B31280EC9CE00E94131478
:1049F00080911502909116020E94B31281ED9CE005
:104A00000E94131480911702909118020E94B31211
:104A100082EE9CE00E94131480910F02909110028C
:104A20000E94BD128091AF1C9091B01C2091AD1CD2
:104A30003091AE1C2817390768F54091AB1C509196
:104A4000AC1C4817590730F5821B930B20910F02BD
:104A50003091100228173907E8F4809111029091E3
:104A60001202C817D907B4F0809113029091140272
:104A70008C179D077CF08091150290911602C81644
:104A8000D90644F0D1E080911702909118028C155C
:104A90009D050CF4D0E08091A51C9091A61C20915E
:104AA000A31C3091A41C2817390768F54091A11C5C
:104AB0005091A21C4817590730F5821B930B209187
:104AC0000F023091100228173907E8F48091110283
:104AD00090911202E816F906B4F0809113029091B9
:104AE00014028E159F057CF080911502909116029C
:104AF0000817190744F0C1E080911702909118023D
:104B0000801791070CF4C0E08EEF9CE00E94131414
:104B10008D2F90E00E94BD1280E19DE00E94131451
:104B20008C2F90E00E94BD1283E29DE00E9413143E
:104B30008091AF1C9091B01C2091AD1C3091AE1CA7
:104B4000821B930B0E94CF128DE29DE00E941314F2
:104B50008091A51C9091A61C2091A31C3091A41CAF
:104B6000821B930B0E94CF12D11102C0CC2399F06B
:104B700087E39DE00E94101A6AE570E088E69EE1F6
:104B80000E94230B6AE570E085E69EE10E94230BFC
:104B90008BE49DE0EFCF8FE59DE00E94101A09EABB
:104BA0001CE12BEA3CE14DEA5CE16FEA7CE18DEA35
:104BB0009EE10E949B134091AB1C5091AC1C6091F4
:104BC000AD1C7091AE1C8091AF1C9091B01C0E94E6
:104BD0004B029093A81C8093A71C0FE91CE121EACB
:104BE0003CE143EA5CE165EA7CE18BE69EE10E9400
:104BF0009B134091A11C5091A21C6091A31C709129
:104C0000A41C8091A51C9091A61C0E944B0290931D
:104C10009E1C80939D1CE091A91CF091AA1C2091E0
:104C20009F1C3091A01C6091A71C7091A81C409102
:104C3000070250910802E417F507ACF0A0910902B1
:104C4000B0910A02AE17BF0774F0E0910B02F09129
:104C50000C026E177F073CF0E0910D02F0910E02FE
:104C6000E617F707E4F4241735070CF40DC5409157
:104C7000090250910A02421753070CF405C520910E
:104C80000B0230910C02821793070CF4FDC42091A3
:104C90000D0230910E02281739070CF4F5C480E795
:104CA0009DE00E94101A81E89DE00E94101A6AE5BA
:104CB00070E088E69EE10E94230B6AE570E085E6DD
:104CC0009EE10E94230B48EC50E062E070E084EF2C
:104CD00091E00E94170D81EF9AE00E9413148091D9
:104CE000D31C9091D41C0E94B31286E79BE10E94D2
:104CF00013140E941E1F0E94BD120E94EF036B013D
:104D00007C0120EDC20E27E0D21EE11CF11C0E94A6
:104D1000EF036C157D058E059F0528F40E944A1F40
:104D20000E94C01CF4CF6AE570E088E69EE10E9414
:104D3000230B6AE570E085E69EE10E94230B81E08B
:104D400090E00E944F338C0183E090E00E944F334B
:104D5000EC0183E99DE00E941314CE010E94BD1274
:104D60008AEA9DE00E941314C8010E94BD1282ECE1
:104D70009DE00E94131484E190E00E94BD12053171
:104D800011050CF09BC084ED9DE00E94101A68E2B2
:104D900070E088E69EE10E94230B68E270E085E601
:104DA0009EE10E94230BE090D31CF090D41C8AE576
:104DB000E81AF1080E941E1FE816F9061CF40E946A
:104DC000C01CF1CF8091D31C9091D41C8A559109BD
:104DD0009093D41C8093D31C6CE870E085E69EE130
:104DE0000E94230B68E270E088E69EE10E94230B9C
:104DF00060ED77E080E090E00E94BC030E941E1FFF
:104E00009093D41C8093D31C81EF9AE00E941314DA
:104E10008091D31C9091D41C0E94B31268E270E080
:104E200085E69EE10E94230B6CE870E088E69EE137
:104E30000E94230B68EE73E080E090E00E94BC03C8
:104E40006CE870E088E69EE10E94230B6CE870E05D
:104E500085E69EE10E94230BE090D31CF090D41CC9
:104E60002AE5E20EF11C0E941E1F8E159F051CF400
:104E70000E94C01CF1CF8091D31C9091D41C865A03
:104E80009F4F9093D41C8093D31C86E19EE00E9498
:104E9000101A0E94EF036B017C0128E8C20E23E187
:104EA000D21EE11CF11C0E94EF036C157D058E05DE
:104EB0009F0508F08BC00E944A1FF5CFC531D10570
:104EC0000CF07FC087EE9DE00E94101A6CE870E045
:104ED00088E69EE10E94230B6CE870E085E69EE187
:104EE0000E94230BE090D31CF090D41C8AE5E80EBE
:104EF000F11C0E941E1F8E159F051CF40E94C01CF1
:104F0000F1CF8091D31C9091D41C865A9F4F9093DF
:104F1000D41C8093D31C6CE870E085E69EE10E946F
:104F2000230B68E270E088E69EE10E94230B60EDAF
:104F300077E080E090E00E94BC030E941E1F9093E7
:104F4000D41C8093D31C81EF9AE00E9413148091AB
:104F5000D31C9091D41C0E94B31268E270E085E6E5
:104F60009EE10E94230B6CE870E088E69EE10E94BF
:104F7000230B68EE73E080E090E00E94BC0368E2DF
:104F800070E088E69EE10E94230B68E270E085E60F
:104F90009EE10E94230BE090D31CF090D41C2AE5E4
:104FA000E21AF1080E941E1FE816F9061CF40E947E
:104FB000C01CF1CF8091D31C9091D41C8A559109CB
:104FC00060CF8CEF9DE00E94101AFBCF6AE570E085
:104FD00085E69EE10E94230B6AE570E088E69EE18B
:104FE0000E94230B053111050CF06DC081E090E0AB
:104FF0000E944F334A9794F044EF51E063E070E031
:1050000088EE93E00E94170DDF91CF911F910F91D1
:10501000FF90EF90DF90CF900C944F3280E29EE0B3
:105020000E94101A6AE570E085E69EE10E94230B5B
:105030006AE570E088E69EE10E94230B8BE29EE029
:105040000E94131482E090E00E944F330E94BD1230
:1050500088E49EE00E9413148BEF9EE10E94BB3314
:1050600090E00E94BD128EE69EE00E94131482E042
:1050700090E00E944F3321E030E04A9714F430E092
:1050800020E0C9010E94BD1282E090E00E944F33EF
:105090004F970CF463C08AE89EE00E94101A0E94A9
:1050A000EF036B017C0120EAC20E2FE0D21EE11C4F
:1050B000F11C0E94EF036C157D058E059F0500F520
:1050C0000E944A1FF6CFC531D1050CF0ABCF83E06B
:1050D00090E00E944F334A970CF4A0CF44EF51E088
:1050E00063E070E088EE93E00E94170DDF91CF91AE
:1050F0001F910F91FF90EF90DF90CF900C94CF32E3
:10510000053111050CF58FEE9EE10E94BB3388231B
:1051100009F47ACF8BE00E94F9020197D9F30E943B
:10512000EF036B017C0128E8C20E23E1D21EE11CD3
:10513000F11C0E94EF036C157D058E059F0508F09C
:1051400057C00E941032F5CFC531D1051CF785EF4D
:105150009EE10E94BB338111DDCFC8CF8BEF9EE172
:105160000E94BB33811144C085EA9EE00E94101A60
:1051700044EF51E061E070E088EE93E00E94170D8B
:105180004AEF50E062E070E088EE93E00E94170D75
:1051900080EB9EE00E94101A0E94FC0C9093DA1C97
:1051A0008093D91CE091D91CF091DA1C8081918107
:1051B000019709F075C282819381019709F070C24D
:1051C00084819581019709F06BC28681978101974F
:1051D00009F066C280859185019709F061C20E943D
:1051E000FC0C9093DA1C8093D91C0E944A1FDACFE2
:1051F000053111050CF069C068E270E088E69EE1B7
:105200000E94230B68E270E085E69EE10E94230B7A
:10521000E090D31CF090D41C8AE5E81AF1080E94B3
:105220001E1FE816F9061CF40E94C01CF1CF8091E5
:10523000D31C9091D41C8A5591099093D41C8093CF
:10524000D31C68E270E088E69EE10E94230B6CE8C4
:1052500070E085E69EE10E94230B60ED77E080E040
:1052600090E00E94BC030E941E1F9093D41C809368
:10527000D31C81EF9AE00E9413148091D31C90916B
:10528000D41C0E94B31268E270E085E69EE10E94A1
:10529000230B6CE870E088E69EE10E94230B0E94DD
:1052A000EF036B017C0120EAC20E2FE0D21EE11C4D
:1052B000F11C0E94EF036C157D058E059F0550F5CE
:1052C0000E944A1F0E94C01CF4CFC531D1053CF793
:1052D0006CE870E088E69EE10E94230B6CE870E0C9
:1052E00085E69EE10E94230BE090D31CF090D41C35
:1052F0002AE5E20EF11C0E941E1F8E159F051CF46C
:105300000E94C01CF1CF8091D31C9091D41C865A6E
:105310009F4F93CF6AE570E085E69EE10E94230BE4
:105320006AE570E088E69EE10E94230B68E873E17D
:1053300080E090E00E94BC0305311105CCF581E0CE
:1053400090E00E944F338E970CF05ECE8BEF9EE183
:105350000E94BB33811135C082EC9EE00E94101A7E
:105360000E94FC0C9093DA1C8093D91CE091D91C0C
:10537000F091DA1C80819181019789F0828193817B
:10538000019769F084819581019749F08681978121
:10539000019729F080859185019709F081C10E94CC
:1053A000FC0C9093DA1C8093D91C0E944A1FDECF1C
:1053B000659764F683E090E00E944F338E9734F255
:1053C00095CE85ED9EE00E94101A8BE00E94F902B6
:1053D000019719F40E944A1FF8CF0E941E1F909354
:1053E000D41C8093D31C0E94EF036B017C012EEE32
:1053F000C20E22E0D21EE11CF11C0E94EF036C15CC
:105400007D058E059F0518F40E941032F6CF6AE5DF
:1054100070E085E69EE10E94230B6AE570E088E675
:105420009EE10E94230B8FEE9EE10E94BB33D82F9A
:1054300085EF9EE10E94BB33C82F8DEE9EE00E9457
:1054400013148D2F90E00E94BD1289EF9EE00E9400
:1054500013148C2F90E00E94BD12DD2309F488C044
:10546000CC2309F48AC084E09FE00E94101A81E0F6
:1054700090E00E944F338C0183E090E00E944F3314
:10548000EC018FE19FE00E941314C8010E94BD123D
:1054900080E39FE00E941314CE010E94BD12C0174A
:1054A000D107ACF580E49FE00E94101A6CE870E030
:1054B00088E69EE10E94230B6CE870E085E69EE1A1
:1054C0000E94230BC091D31CD091D41CC65ADF4F2D
:1054D0000E941E1F8C179D071CF40E94C01CF2CF57
:1054E0008091D31C9091D41C865A9F4F9093D41CCA
:1054F0008093D31C0E94EF038BE00E94F902019776
:1055000009F040C00E944A1F0E94C01CF5CF0C1732
:105510001D072CF584E59FE00E94101A68E270E0F8
:1055200088E69EE10E94230B68E270E085E69EE13A
:105530000E94230BC091D31CD091D41CCA55D10911
:105540000E941E1FC817D9071CF40E94C01CF2CF6E
:105550008091D31C9091D41C8A559109C7CF44EFF8
:1055600051E065E070E088EE93E00E94170DC2CF35
:1055700080E49FE00E94101A47CD84E59FE00E94DE
:10558000101AB4CD0E94EF036B017C012EEEC20E07
:1055900022E0D21EE11CF11C0E94EF036C157D0578
:1055A0008E059F0518F40E941032F6CF6AE570E070
:1055B00085E69EE10E94230B6AE570E088E69EE1A5
:1055C0000E94230B83E090E00E944F3389970CF4F4
:1055D00067C087E69FE00E94101A44EF51E061E047
:1055E00070E088EE93E00E94170D6CE870E088E6AA
:1055F0009EE10E94230B6CE870E085E69EE10E942C
:10560000230B81E79FE00E941314C091D31CD0911B
:10561000D41CC65ADF4F0E941E1F8C179D071CF416
:105620000E94C01CF2CF8091D31C9091D41C865A4A
:105630009F4F9093D41C8093D31C0E94FC0C90939A
:10564000DA1C8093D91CE091D91CF091DA1C80817E
:105650009181019729F582819381019709F58481D0
:1056600095810197E9F4868197810197C9F4808536
:1056700091850197A9F40E94FC0C9093DA1C809309
:10568000D91C0E944A1FDFCF8FE89FE0DF91CF91A6
:105690001F910F91FF90EF90DF90CF900C94101A14
:1056A000DF91CF911F910F91FF90EF90DF90CF90FE
:1056B00008958F929F92AF92BF92CF92DF92EF9216
:1056C000FF92CF93DF938BEF9EE10E940223181687
:1056D00019060CF499C160E570E085E69EE10E9430
:1056E000230B64E670E088E69EE10E94230B44E60B
:1056F00050E061E070E084EF91E00E94170D6CE8EB
:1057000070E088E69EE10E94230B6CE870E085E67D
:105710009EE10E94230BC091D31CD091D41CC65A89
:10572000DF4F0E941E1F8C179D07BCF40E94C01CF7
:105730008EE99FE00E9413140E941E1F0E94B31264
:105740008CE29BE00E9413148091D31C9091D41C96
:10575000865A9F4F0E94BD12DECF64EB70E088E650
:105760009EE10E94230B70E060E085E69EE10E94CE
:10577000230B8091D31C9091D41C865A9F4F9093F9
:10578000D41C8093D31C0E94EF036B017C014B015E
:105790005C0128EB820E2BE0921EA11CB11C0E9422
:1057A000EF036C197D098E099F09683B7B408105D9
:1057B000910528F586ED9FE00E9413140E94EF03E7
:1057C0006C197D098E099F094AE00E944E120E94C1
:1057D0004A128DEF9FE00E9413140E94EF03A5016F
:1057E0009401261B370B480B590BCA01B9014AE03B
:1057F0000E944E120E944A120E944A1FD0CF8EE091
:1058000090E10E94101A68E270E088E69EE10E9432
:10581000230B68E270E085E69EE10E94230BC091B5
:10582000D31CD091D41CCA55D1090E941E1FC81781
:10583000D907BCF40E94C01C85E290E10E941314B9
:105840000E941E1F0E94B3128CE29BE00E94131460
:105850008091D31C9091D41C8A5591090E94BD124D
:10586000DECF64EB70E088E69EE10E94230B70E0DF
:1058700060E085E69EE10E94230B8091D31C90910D
:10588000D41C8A5591099093D41C8093D31C0E94F8
:10589000EF036B017C010E94EF036C197D098E09F7
:1058A0009F0968357B418105910518F40E944A1FC4
:1058B000F2CF68E270E088E69EE10E94230B68E286
:1058C00070E085E69EE10E94230BC091D31CD0912D
:1058D000D41CCA55D1090E941E1FC817D907BCF491
:1058E0000E94C01C8CE590E10E9413140E941E1FB0
:1058F0000E94B3128CE29BE00E9413148091D31C8F
:105900009091D41C8A5591090E94BD12DECF64EBA0
:1059100070E088E69EE10E94230B70E060E085E67F
:105920009EE10E94230B8091D31C9091D41C8A5538
:1059300091099093D41C8093D31C0E94FC0C9093EB
:10594000DA1C8093D91CE091D91CF091DA1C848177
:105950009581019719F40E944A1FEFCF6CE870E01F
:1059600088E69EE10E94230B68E270E085E69EE1F6
:105970000E94230B68EE73E080E090E00E94BC037D
:105980006CE870E088E69EE10E94230B6CE870E012
:1059900085E69EE10E94230BC091D31CD091D41CBC
:1059A000C65ADF4F0E941E1F8C179D07BCF40E9431
:1059B000C01C83E990E10E9413140E941E1F0E94E4
:1059C000B3128CE29BE00E9413148091D31C90913F
:1059D000D41C865A9F4F0E94BD12DECF6CE870E047
:1059E00088E69EE10E94230B68E270E085E69EE176
:1059F0000E94230B8091D31C9091D41C865A9F4FF8
:105A00009093D41C8093D31CDF91CF91FF90EF90A3
:105A1000DF90CF90BF90AF909F908F90089585EDCD
:105A20008093BC0080912F1D9091301DA091311D5D
:105A3000B091321D0796A11DB11D23E0B695A79523
:105A4000979587952A95D1F72091BC0024FD03C036
:105A500010922D1D089540912F1D5091301D609181
:105A6000311D7091321D452B462B472B69F3009752
:105A7000A105B10541F02AE22A95F1F700C001978E
:105A8000A109B109E1CF80912E1D0C9496060F93C8
:105A90001F93CF93DF938C01EB010E94674A8883A9
:105AA000C80101960E94674A8983CE01DF91CF9198
:105AB0001F910F910895CF93DF9300D000D0CDB701
:105AC000DEB78BEC90E10E94101ABE016D5F7F4F34
:105AD00090E080E00E94472DBE016B5F7F4F82E225
