:020000040000FA
:100000000C9414020C9445020C9445020C94450285
:100010000C9445020C9445020C9445020C94450244
:100020000C9445020C9445020C9445020C94450234
:100030000C9445020C94F22A0C9445020C9445024F
:100040000C9445020C945C2D0C9445020C944502D2
:100050000C9445020C9445020C9445020C94A82A79
:100060000C9445020C947C2B0C94522B0C9445025E
:100070000C9445020C9445020C9445020C944502E4
:100080000C942E2D0C9445020C9445020C944502C0
:100090000C9445020C9445020C9445020C94B22B2E
:1000A0000C9445020C9445020C94002D0C944502CE
:1000B0000C9445020C9445020C9445020C94D22CED
:1000C0000C9445020C9445020C9445020C94450294
:1000D0000C9445020C9445020C9445020C94450284
:1000E0000C944502084AD73B3BCE016E84BCBFFD51
:1000F000C12F3D6C74319ABD56833DDA3D00C77FF8
:1001000011BED9E4BB4C3E916BAAAABE0000008090
:100110003F07634236B79BD8A71A39685618AEBA5C
:10012000AB558C1D3CB7CC5763BD6DEDFD753EF6F0
:10013000177231BF000000803F08000000BE92240B
:1001400049123EABAAAA2ABECDCCCC4C3E00000040
:1001500080BEABAAAAAA3E00000000BF000000803B
:100160003F0000000000084178D3BB4387D1133D16
:10017000190E3CC3BD4282AD2B3E68EC8276BED9DF
:100180008FE1A93E4C80EFFFBE01C4FF7F3F00001E
:10019000000000000C94BA020C94B4380C94BA38E5
:1001A0000C94B6020C945F070C94BE020C94C70228
:1001B0000C9408380C94ED020C94E7020C94B933BB
:1001C0000C94D9020C9443390C942F3B0C94FC3CB6
:1001D0000C9493070C9414390C9489380C943C3982
:1001E0000C94C1020C94423E0C94B7380C94933B8F
:1001F0000C94FF3A0C94E7380C94EE380C94F63BD0
:100200000C9435040C94D1020C94133B0C944A3991
:100210000C94F1020C944C070C94B2020C94223909
:100220000C94AE390C941B390C9480380C94EC026D
:100230000C9452350C9429390C94AC020C94A12ED8
:100240000C941C3C0C9402050C9451390C94E30260
:100250000C94CB020C94BC330C94993C0C94F53860
:100260000C94D9360C945C3D0C943D070C94CA0454
:100270000C940F3C0C94D5020C94E0380C9430395B
:100280000C9408040C9466070C943C070C94BD383D
:100290000C948A040C94C2070C947F3B0C94C533D5
:1002A0000C9444040C9495380C94DA3D0C949238D8
:1002B0000C946A050C949C3C0C94E33B0C94763EA5
:1002C0000C94DF020C94D7380243616C63756C6147
:1002D00074696E67206F6666736574732C20646F33
:1002E000206E6F74206D6F7665204D505536303519
:1002F00030004D505536303530207374617475734D
:100300003A200000000A0B02090C0D0E0807030436
:1003100001000000000000000000000000000000DC
:1003200000000000000000000000000000000012BB
:10033000111000000000000000000000000000009C
:100340000000000000000000000000200023002644
:100350000029002C002F00320000010000030106DC
:1003600001090100002100240027002A002D00308F
:1003700000330001010000040107010A010000220E
:1003800000250028002B002E00310034000201005F
:1003900000050108010B01010210202008081020AF
:1003A0004010204080020102010804020101020401
:1003B00008102040808040201008040201800402C0
:1003C0000180402010080402010804020101020417
:1003D0000810204080010204081020408005050517
:1003E00005070508080808020202020A0A080804AC
:1003F00004040401010101010101010303030303DA
:10040000030303040707070C0C0C0C0C0C0C0C0268
:1004100002020206060606060606060B0B0B0B0B6F
:100420000B0B0B00A12E763E11241FBECFEFD1E2A5
:10043000DEBFCDBF00E00CBF16E1A0E0B2E0EAE60F
:10044000FCE800E00BBF02C007900D92AA3DB10787
:10045000D9F72AE1AAEDB6E101C01D92AB33B2078C
:10046000E1F712E0C3E1D2E000E006C02197010904
:10047000802FFE010E94EA43C231D10780E00807C5
:10048000A9F70E94612F0C9423460C940000CF9290
:10049000DF92EF92FF920F931F93CF93DF938B0125
:1004A000EA01BC0190E080E00E94C83E26ED39E3FD
:1004B00046EA5EEB0E94293F6B017C01B80190E0A7
:1004C00080E00E94C83E27E038E04AEC5FE30E94EB
:1004D000293F9B01AC01C701B6010E9464406B013A
:1004E0007C01BE0190E080E00E94C83E24E73EE52A
:1004F0004BE35FEB0E94293F9B01AC01C701B601B2
:100500000E9464400E94BB41CB01DF91CF911F91BB
:100510000F91FF90EF90DF90CF900895815082313E
:1005200008F05AC0E82FF0E08827E656FD4F8F4FBD
:100530000C94EA43BA02BE02AC02B202B602EC026A
:10054000C102C702CB02D102D502D902DF02E30207
:10055000EC02E702ED02F102809180008F77809338
:1005600080000895809180008F7DF9CF8091800078
:10057000877FF5CF84B58F7784BD089584B58F7D4F
:10058000FBCF8091B0008F778093B0000895809169
:10059000B0008F7DF9CF809190008F77809390008D
:1005A0000895809190008F7DF9CF80919000877F92
:1005B000F5CF8091A0008F778093A000089580915F
:1005C000A0008F7DF9CF8091A000877FF5CF80912B
:1005D00020018F77809320010895809120018F7DE5
:1005E000F9CF80912001877FF5CF1F93CF93DF93C1
:1005F000282F30E0F901ED5FFC4F8491F901E956B5
:10060000FC4FD491F901E352FC4FC491CC23A9F0E3
:10061000162F81110E948E02EC2FF0E0EE0FFF1FCB
:10062000E358FC4FA591B4918FB7F894EC91111158
:1006300008C0D095DE23DC938FBFDF91CF911F914F
:100640000895DE2BF8CFCF93DF9390E0FC01E956BD
:10065000FC4F249183529C4FFC0184918823D1F05C
:1006600090E0880F991FFC01ED59FC4FA591B491C2
:10067000FC01E358FC4FC591D49161110EC09FB7A6
:10068000F8948C91E22FE0958E238C932881E223BD
:10069000E8839FBFDF91CF9108958FB7F894EC91D5
:1006A000E22BEC938FBFF6CF8230910538F0880FA4
:1006B000991F880F991F05970197F1F708953FB784
:1006C000F8948091171890911818A0911918B0916A
:1006D0001A1826B5A89B05C02F3F19F00196A11D39
:1006E000B11D3FBFBA2FA92F982F8827BC01CD017C
:1006F000620F711D811D911D42E0660F771F881FDB
:10070000991F4A95D1F708958F929F92AF92BF9209
:10071000CF92DF92EF92FF926B017C010E945F0308
:100720004B015C01C114D104E104F104B9F00E9451
:100730005F03681979098A099B09683E734081053E
:10074000910580F321E0C21AD108E108F10888EE92
:10075000880E83E0981EA11CB11CE4CFFF90EF909F
:10076000DF90CF90BF90AF909F908F9008952FB75C
:10077000F894609113187091141880911518909145
:1007800016182FBF08959091000289130DC0E8EC50
:10079000F2E0E4919FEF90930002E230E1F038F450
:1007A000EE2381F0E13089F060E00C94F502E43052
:1007B00049F110F1E530C1F7909173009D7F90935E
:1007C0007300F2CF10926E00EFCF90916F009D7F7B
:1007D00090936F00E9CF909170009D7F909370008F
:1007E00091E09093B0009091B100987F94609093C5
:1007F000B1001092B300D8CF909171009D7F90937B
:100800007100D2CF909172009D7F90937200CCCFF7
:10081000AF92BF92CF92DF92EF92FF920F931F930E
:10082000CF93DF936C017B018B01040F151FEB014C
:100830005E01AE18BF08C017D10759F06991D60103
:10084000ED91FC910190F081E02DC6011995892B65
:1008500079F7C501DF91CF911F910F91FF90EF9034
:10086000DF90CF90BF90AF900895FC01538D448DE1
:10087000252F30E0842F90E0821B930B541710F04B
:10088000CF96089501970895FC01918D828D981758
:1008900061F0A28DAE0FBF2FB11D5D968C91928D30
:1008A0009F5F9F73928F90E008958FEF9FEF089561
:1008B0000F931F930E94B703609395187093961837
:1008C00080939718909398188DE898E10E944404BB
:1008D00097FF1DC00E94B7030091951810919618BC
:1008E0002091971830919818601B710B820B930B15
:1008F00000919118109192182091931830919418AA
:100900006017710782079307F8F28FEF9FEF1F912F
:100910000F910895FC01918D828D981731F0828D91
:10092000E80FF11D858D90E008958FEF9FEF0895FA
:100930000F931F930E94B7036093951870939618B6
:1009400080939718909398188DE898E10E948A04F4
:1009500097FF1DC00E94B70300919518109196183B
:100960002091971830919818601B710B820B930B94
:100970000091911810919218209193183091941829
:100980006017710782079307F8F28FEF9FEF1F91AF
:100990000F910895FC01918D228D892F90E0805C4C
:1009A0009F4F821B91098F73992708958DE898E1D5
:1009B0000E94CA0421E0892B09F420E0822F0895C7
:1009C000FC01A48DA80FB92FB11DA35ABF4F2C91C4
:1009D000848D90E001968F739927848FA689B789BB
:1009E0002C93A089B1898C91837080648C93938DB2
:1009F000848D981306C00288F389E02D80818F7D55
:100A000080830895EF92FF920F931F93CF93DF930C
:100A1000EC0181E0888F9B8D8C8D98131AC0E8893A
:100A2000F989808185FF15C09FB7F894EE89FF8909
:100A30006083E889F98980818370806480839FBFA7
:100A400081E090E0DF91CF911F910F91FF90EF90A7
:100A50000895F62E0B8D10E00F5F1F4F0F731127B7
:100A6000E02E8C8D8E110CC00FB607FCFACFE889F2
:100A7000F989808185FFF5CFCE010E94E004F1CF96
:100A8000EB8DEC0FFD2FF11DE35AFF4FF0829FB766
:100A9000F8940B8FEA89FB8980818062CFCF0F9316
:100AA0001F93CF93DF938C01D0E0C0E0F801EC0FEF
:100AB000FD1F6491662341F08DE898E10E940205D4
:100AC000892B11F02196F2CFCE01DF91CF911F91AA
:100AD0000F910895CF93DF93EC01888D8823B9F0AF
:100AE000AA89BB89E889F9898C9185FD03C0808139
:100AF00086FD0DC00FB607FCF7CF8C9185FFF2CFB6
:100B0000808185FFEDCFCE010E94E004E9CFDF9127
:100B1000CF91089580E090E0892B29F00E94D604BF
:100B200081110E94000080E090E0892B49F080E074
:100B300090E0892B29F00E94000081110E940000A2
:100B400080E090E0892B49F080E090E0892B29F04B
:100B50000E94000081110E94000080E090E0892B3B
:100B600049F080E090E0892B29F00E94000081117B
:100B70000C94000008951F93CF93DF93C1E0C093BE
:100B80009E17882399F1D091B8001091BA008091F6
:100B9000BC008A7B8093BC0060E084E10E94F50287
:100BA00060E085E10E94F50210926318C09362181C
:100BB00010923D1861E084E10E94F50261E085E158
:100BC0000E94F5028091B9008E7F8093B9008091D8
:100BD000B9008D7F8093B90088E48093B80085E4E4
:100BE0008093BC001093BA00D093B800DF91CF91EE
:100BF0001F9108958F929F92AF92BF92CF92DF92F2
:100C0000EF92FF920F931F93CF93DF93D0918C18A5
:100C1000D13208F0D7C0182FC0918B180E945F0303
:100C20006B017C018091631881116BC082E080931D
:100C30006318109362188FEF8093611810926018F8
:100C4000D0935F18ABE6B8E1EFE3F8E180E0D813AA
:100C500091C010923E1880913E18CC0FC82BC093C3
:100C60003E1880913D18813009F088C010923D18DF
:100C70000E945F036B017C0180913E188093BB0052
:100C80008091651890916618A0916718B0916818C6
:100C9000892B8A2B8B2BA1F00E945F030091651892
:100CA0001091661820916718309168186C197D09A9
:100CB0008E099F09061717072807390708F442C04D
:100CC0008091BC0083FDD8CF85EC8093BC000E944E
:100CD0005F036B017C0180916318823009F450C07E
:100CE000809161188F3F09F46FC080916118803244
:100CF00009F46CC080916118803309F469C084E004
:100D000026C08091651890916618A0916718B091DF
:100D10006818892B8A2B8B2B09F484CF0E945F03E0
:100D20008090651890906618A0906718B090681829
:100D30006C197D098E099F0986169706A806B906C3
:100D400008F070CF809164180E94BB0585E0109276
:100D50006A1810928C1810926918DF91CF911F9128
:100D60000F91FF90EF90DF90CF90BF90AF909F904A
:100D70008F9008959D9191938F5F69CF85EEA5CF58
:100D80008091651890916618A0916718B0916818C5
:100D9000892B8A2B8B2B09F49ECF0E945F03009135
:100DA00065181091661820916718309168186C19B1
:100DB0007D098E099F09061717072807390708F0CC
:100DC0008ACFC0CF81E0C3CF80E0C1CF82E0BFCF68
:100DD00083E0BDCF1F93CF93DF93162FC6E3D9E1F6
:100DE000A981BA819B8121E02093691890938B1887
:100DF00010926A1810928C18ED91FC911197019045
:100E0000F081E02D682FCD01199589819A81DC014F
:100E1000ED91FC910190F081E02D612F199581E019
:100E2000DF91CF911F910C94FA052091BF17260FE7
:100E30003327331F21323105ECF420916318FC0174
:100E400090E080E0243069F082E00895A091BF171F
:100E50002191AC014156584EA40FB52FB11D2C93D2
:100E60000196861798F38091BF17680F6093BF179C
:100E700080E0089581E008950895E0911C18809124
:100E80001B18E81730F4F0E0E35EF74E808190E045
:100E900008958FEF9FEF089590911C1880911B1873
:100EA0002FEF3FEF981748F4E92FF0E0E35EF74E9D
:100EB000208130E09F5F90931C18C90108958091B4
:100EC0001B1890911C18891B990B0895CF92DF92E3
:100ED000EF92FF920F931F93CF93DF937C01CB018F
:100EE0008A0120916918222389F0EB016B01C40E5D
:100EF000D51ECC15DD0569F06991D701ED91FC9106
:100F00000190F081E02DC7011995F3CF642F0E9465
:100F10001507C801DF91CF911F910F91FF90EF90BE
:100F2000DF90CF900895CF93DF931F92CDB7DEB7B8
:100F30006983209169182223F9F020918C182032BE
:100F400058F021E030E0FC013383228390E080E020
:100F50000F90DF91CF91089580916A18E82FF0E00B
:100F6000E559F74E998190838F5F80936A1880933B
:100F70008C1881E090E0ECCF61E0CE0101960E94F8
:100F80001507F7CF90E080E00895CF92DF92EF92BF
:100F9000FF920F931F93CF93DF93EC01EE81FF81BC
:100FA00090818B81809589238083EA85FB85808170
:100FB0009B81892B8083EC81FD8190818A81809542
:100FC00089238083E885F98580819A81892B8083B4
:100FD00089899A89009711F00E945403EA85FB855C
:100FE00090818B818095892380838B89882331F040
:100FF000EE81FF8180819B81892B80838C8988236E
:10100000C9F00E94B7036B017C01EE85FF858081EA
:101010009B81892379F40E94B7036C197D098E099D
:101020009F090D891E892F89388D601771078207E6
:10103000930758F389899A89009711F00E94540305
:10104000E885F98590818A818095892380838B89C1
:10105000882331F0EC81FD8180819A81892B808306
:1010600089899A89009751F0DF91CF911F910F9153
:10107000FF90EF90DF90CF900C945403DF91CF91CD
:101080001F910F91FF90EF90DF90CF900895CF9335
:10109000DF93EC01E885F98590818A818095892329
:1010A00080838B89882331F0EC81FD8180819A8156
:1010B000892B8083EA85FB8590818B8180958923AC
:1010C00080838B89882331F0EE81FF8180819B8131
:1010D000892B808389899A89009711F00E94540393
:1010E000EC85FD8590818A819823EE85FF8520819E
:1010F0003B81232311F480E028C09923E1F3EC81A4
:10110000FD819081809589238083E885F9858081A0
:101110009A81892B808389899A89009711F00E948E
:101120005403EE81FF8190818B8180958923808398
:10113000EA85FB8580819B81892B808389899A89B7
:10114000009711F00E94540381E0DF91CF91089540
:10115000CF92DF92EF92FF920F931F93CF93DF9383
:10116000EC01E885F98590818A81809589238083C7
:101170008B89882331F0EC81FD8180819A81892BD4
:101180008083EA85FB8590818B818095892380838C
:101190008B89882331F0EE81FF8180819B81892BAF
:1011A00080838C898823C9F00E94B7036B017C017E
:1011B000EE85FF8580819B81892379F40E94B703A6
:1011C0006C197D098E099F090D891E892F89388D1B
:1011D000601771078207930758F389899A890097E6
:1011E00011F00E945403EC85FD8580819A8189234A
:1011F00011E009F410E0EE81FF8190818B818095F0
:1012000089238083EA85FB8580819B81892B80836C
:1012100089899A89009711F00E945403812FDF91E8
:10122000CF911F910F91FF90EF90DF90CF90089595
:10123000CF92DF92EF92FF920F931F93CF93DF93A2
:10124000EC018A81809561115EC0EC81FD81908105
:1012500089238083E885F98580819A81892B808321
:1012600089899A89009711F00E945403EA85FB85C9
:1012700090818B818095892380838B89882331F0AD
:10128000EE81FF8180819B81892B80838C898823DB
:10129000C9F00E94B7036B017C01EE85FF85808158
:1012A0009B81892379F40E94B7036C197D098E090B
:1012B0009F090D891E892F89388D60177107820754
:1012C000930758F389899A89009711F00E94540373
:1012D000EE81FF8190818B81809589238083EA85CF
:1012E000FB8580819B81892B808389899A890097DE
:1012F000B1F0DF91CF911F910F91FF90EF90DF90B0
:10130000CF900C945403E885F985908189238083DC
:101310008B89882309F4A4CFEC81FD819DCFDF91D7
:10132000CF911F910F91FF90EF90DF90CF90089594
:101330000F931F93CF93DF938C01D62FC8E06D2FAF
:101340006078C8010E941809DD0FC150C1F7C801BB
:10135000DF91CF911F910F910C94A808CF93DF9349
:10136000FC012089211106C0EC010E94980981111D
:1013700006C0188A81E090E0DF91CF91089582E065
:10138000888BF8CF1F93CF93DF93EC01162F188A29
:101390000E944708882379F0612F660FCE010E94D2
:1013A0009809811105C0188ADF91CF911F91089586
:1013B00082E0888BF9CF84E0FCCFFC019389138A0B
:1013C000A085B1852C918281809582238C9383891D
:1013D000882331F0A481B5818C912281822B8C935A
:1013E000A285B3852C918381809582238C938389F8
:1013F000882331F0A681B7818C912381822B8C9335
:10140000938B08950F931F93CF93DF93CDB7DEB7E0
:10141000EB970FB6F894DEBF0FBECDBFDC011C9278
:101420008BEE90E014969C938E93139781E090E05E
:1014300012969C938E93119715966C93159716960A
:101440004C93169769834A838C8B8D8B82E090E056
:101450009B8B8A8B08EE13E020E030E00E8B1F8B15
:10146000288F398F70E0FB01E352FC4F24916956BD
:101470007C4FFB0164916B8330E0220F331FF90135
:10148000E358FC4F859194919E838D83F901ED592A
:10149000FC4F859194919A878987F901E75BFC4F0E
:1014A000859194919E878D8750E0FA01E352FC4F1D
:1014B000249149565C4FFA0144914C8330E0220F4D
:1014C000331FF901E358FC4F8591949198878F83DE
:1014D000F901ED59FC4F859194919C878B87F90117
:1014E000E75BFC4F85919491988B8F878BE3FE018E
:1014F0003196179601900D928A95E1F7CE010196EB
:101500000E94DD09EB960FB6F894DEBF0FBECDBF8B
:10151000DF91CF911F910F910895CF92DF92EF92BB
:10152000FF92CF93DF93EC01603282E07807CCF535
:10153000653B710514F064EB70E0898128E830E0C8
:10154000281B310987FD3395220F331F220F331FCC
:101550006901330FEE08FF088A8128E532E0281B75
:10156000310987FD3395220F331F220F331F032EBE
:10157000000C440B550B2C193D094E095F09DB018A
:1015800077FF02C0B0E0A0E00E942A4024EB30E0E8
:1015900040E050E00E940040C20ED31EE41EF51E43
:1015A000B601E881E03370F5298188E890E0821B7C
:1015B000910927FD9395880F991F880F991F681728
:1015C00079077CF02A8188E592E0821B910927FD4A
:1015D0009395880F991F880F991F681779070CF446
:1015E000CB010297880F991F4FB7F8942E2F30E048
:1015F000F901EE0FFF1FE20FF31FE25FF84E928337
:1016000081834FBFDF91CF91FF90EF90DF90CF901C
:1016100008951F93CF93DF93EC01162F88818033B9
:1016200008F04EC061E0812F0E9423038881282F9B
:1016300030E0F901EE0FFF1FE20FF31FE25FF84EFB
:101640001F736081607C612B608319821A822CE099
:10165000622F0E94CA43829FB001112430E020E033
:10166000AB01420F531FFA01EE0FFF1FE40FF51FEE
:10167000E25FF84E908196FD16C02F5F3F4F2C30F1
:10168000310571F7813009F51092800082E0809376
:1016900081001092850010928400B19A80916F00B1
:1016A000826080936F00E8818E2F90E0FC01EE0F46
:1016B000FF1FE80FF91FE25FF84E8081806480838E
:1016C0008881DF91CF911F910895823061F410924B
:1016D000900080939100109295001092940088BB26
:1016E00080937100E0CF833069F41092A00082E013
:1016F0008093A1001092A5001092A40089BB809352
:101700007200D1CF8111CFCF1092200182E080935F
:10171000210110922501109224018ABB809373004D
:10172000C2CFFC0190910D17903398F481E0890F9E
:1017300080930D179083892F90E0FC01EE0FFF1F1F
:10174000E80FF91FE25FF84E88EB9BE092838183FC
:1017500008958FEF80830895AF92BF92CF92DF926A
:10176000EF92FF920F931F93CF93DF936B017A0158
:10177000EC01C75FD84E28813CE0389F8001399F3B
:10178000100D1124A0900D17B12C27FF1FC0FB01D5
:101790001182108288818F5F888388819801280F49
:1017A000311D87FD3A95F6012A153B051CF4888109
:1017B0008C30C4F180819181049680349C4908F476
:1017C00073C0F60180819181049670C08881980170
:1017D000280F311D87FD3A952A153B05DCF68881D7
:1017E000A801480F511D87FD5A95FA01EE0FFF1F02
:1017F000E40FF51FE25FF84E808186FFCBCF888132
:10180000F801E80FF11D87FDFA95CF01EE0FFF1FDC
:10181000E80FF91FE25FF84E808160E08F730E944D
:10182000F502B8CF808191812881A801420F511D16
:1018300027FD5A959A01FA01EE0FFF1FE20FF31FE1
:10184000E25FF84E21813281820F931FF70191836D
:10185000808388819801280F311D87FD3A95F90111
:10186000EE0FFF1FE20FF31FE25FF84E808186FF4D
:1018700022C08881080F111D87FD1A95F801EE0F0F
:10188000FF1FE00FF11FE25FF84E808161E08F7370
:10189000DF91CF911F910F91FF90EF90DF90CF904C
:1018A000BF90AF900C94F50280E49CE9F70191831E
:1018B00080838FEF8883DF91CF911F910F91FF90ED
:1018C000EF90DF90CF90BF90AF900895E09198197E
:1018D0008E2F90E0FC01EE0FFF1FE80FF91FE25F73
:1018E000F84E80818F7B8083E09195198E2F90E058
:1018F000FC01EE0FFF1FE80FF91FE25FF84E808139
:101900008F7B8083E09192198E2F90E0FC01EE0F87
:10191000FF1FE80FF91FE25FF84E80818F7B808305
:101920006AEF70E080E090E00C94840368E070E07F
:1019300088E999E10E94090B6AE070E085E999E184
:101940000E94090B6CE070E082E999E10C94090BAC
:10195000EF92FF920F931F93CF93DF93C5E2D2E0F4
:1019600003EF16E1299139913327F901ED5FFC4F1F
:101970008491F901E956FC4FE490F901E352FC4FE0
:10198000F490FF2021F181110E948E02EF2DF0E0F2
:10199000EE0FFF1FE75BFC4FA591B491EC91EE2297
:1019A00031E020E009F430E0832F922FF801819399
:1019B00091938F01F2E0CF32DF07A1F683EF96E13A
:1019C000DF91CF911F910F91FF90EF90089590E0DC
:1019D00080E0ECCF2F923F924F925F926F927F9276
:1019E0008F929F92AF92BF92CF92DF92EF92FF922F
:1019F0000F931F93CF93DF9300D000D01F92CDB7EA
:101A0000DEB77D836C83312C212C88248A94982C1A
:101A100054016C01990FEE08FF080DEF13E02A0145
:101A2000550F6608770880910002803239F5E8EC9E
:101A3000F2E0F491FE83F7FD70C061E080E20E9465
:101A40002303FE81F11139C0C982DA82EB82FF8261
:101A500068E478EE81E090E029813A814B815F81F2
:101A60000E940040BA01A901415051096109710960
:101A70009E81992309F4CEC194E03DC08F3F09F0C7
:101A80004CC080E280930002E8ECF2E0F491FE8327
:101A90008F2FFF3F09F441C0F23009F4C8C008F0AD
:101AA00069C0FF2309F48DC0F13009F4A2C087FD9D
:101AB00034C061E080E20E9423038E81823009F00D
:101AC00016C1C982DA82EB82FF8260E970ED83E0A1
:101AD00090E0A70196010E940040BA01A90141507F
:101AE00051096109710993E04F3F51056105710585
:101AF00011F00CF0ADCF8091B100887F892B8093DD
:101B0000B100EE81E23009F475C10CF06BC1EE2337
:101B100009F484C1E13009F401C1C301B2010E949A
:101B2000840380E20E94C303C301B2010E948403C4
:101B30008FEF281A380AEC81FD81E215F30509F0D0
:101B400072CF27960FB6F894DEBF0FBECDBFDF91E0
:101B5000CF911F910F91FF90EF90DF90CF90BF90AA
:101B6000AF909F908F907F906F905F904F903F903D
:101B70002F9008959E81943009F49BC008F479C099
:101B8000953009F094CF109220011092210180919C
:101B900021018860809321018091210181608093DF
:101BA0002101F8018491E82FF0E0EE0FFF1FE358C8
:101BB000FC4F85919491E7EBF3E084918093DA16E2
:101BC0003CCF14BC15BC84B5826084BD85B58160F2
:101BD00085BDF8018491E82FF0E0EE0FFF1FE35878
:101BE000FC4F85919491E7EBF3E084918093DE16AE
:101BF00024CF109280001092810080918100886033
:101C00008093810080918100816080938100F80140
:101C10008491E82FF0E0EE0FFF1FE358FC4F859111
:101C20009491E7EBF3E084918093DD1606CF109258
:101C3000B0001092B1008091B00082608093B0003B
:101C40008091B10081608093B100F8018491E82F08
:101C5000F0E0EE0FFF1FE358FC4F859194919093B5
:101C6000E3178093E217E7EBF3E084918093E417A6
:101C7000E4CE1092900010929100809191008860C3
:101C80008093910080919100816080939100F80190
:101C90008491E82FF0E0EE0FFF1FE358FC4F859191
:101CA0009491E7EBF3E084918093DC16F3E0FE83FC
:101CB000C4CE1092A0001092A1008091A100886073
:101CC0008093A1008091A10081608093A100F80120
:101CD0008491E82FF0E0EE0FFF1FE358FC4F859151
:101CE0009491E7EBF3E084918093DB16A6CE60E05D
:101CF00072E18AE790E0A70196010E940040BA01D4
:101D0000A9014150510961097109EE81E130C1F425
:101D100080918100887F8160809381005093890049
:101D2000409388008092EB169092EC16A092ED16EC
:101D3000B092EE1680916F00826080936F00EDCEBE
:101D4000FE81F330C1F480919100887F816080939F
:101D5000910050939900409398008092E7169092DA
:101D6000E816A092E916B092EA168091710082609E
:101D700080937100D2CE8E818430C1F48091A10015
:101D8000887F81608093A1005093A9004093A800B0
:101D90008092E3169092E416A092E516B092E616B1
:101DA00080917200826080937200B7CE9E819530E0
:101DB00009F0A7CE80912101887F81608093210165
:101DC00050932901409328018092DF169092E016EB
:101DD000A092E116B092E216809173008260809327
:101DE00073009BCEFE81F43079F20CF4B2CFF53063
:101DF00039F393CE4093B3008092E5179092E617A3
:101E0000A092E717B092E8178091700082608093EB
:101E1000700083CE85B5887F836085BD47BD809285
:101E2000EF169092F016A092F116B092F2168091F1
:101E30006E00826080936E0070CE4F925F926F92C0
:101E40007F928F929F92AF92BF92CF92DF92EF924A
:101E5000FF920F931F93CF93DF93CDB7DEB72E97EB
:101E60000FB6F894DEBF0FBECDBF809137199091A9
:101E700038192091391931E03093691820938B1863
:101E800010926A1810928C18DC01ED91FC9101906F
:101E9000F081E02D6BE3199580E00E94FA05109126
:101EA00039190E945F034B015C0180916318811115
:101EB00066C081E080936318809362189FEF9093CF
:101EC0006118109260189DE090935F1880933E18FF
:101ED00080913E18110F182B10933E1880913D18D9
:101EE000813009F0A9C110923D180E945F034B0197
:101EF0005C0180913E188093BB00809165189091A1
:101F00006618A0916718B0916818892B8A2B8B2BC3
:101F1000A1F00E945F03009165181091661820914E
:101F2000671830916818681979098A099B0906179A
:101F300017072807390708F443C08091BC0083FDC8
:101F4000D8CF85EC8093BC000E945F034B015C01FD
:101F500080916318813009F471C1809160188E30CE
:101F600008F08EC180916018AFE3B8E1EDE1F8E1CF
:101F700090E0981751F12D9121939F5FFACF8091B6
:101F8000651890916618A0916718B0916818892B10
:101F90008A2B8B2B09F489CF0E945F034090651830
:101FA00050906618609067187090681868197909E1
:101FB0008A099B09461657066806790608F075CF08
:101FC000809164180E94BB0580E010921C188093D9
:101FD0001B188E010F5F1F4F6E01BFE0CB0ED11C8F
:101FE0008091371990913819DC01ED91FC910284B0
:101FF000F385E02D1995B82E8091371990913819F5
:10200000DC01ED91FC910284F385E02D1995E12C22
:102010008E299B29F801819391938F01CE16DF06BB
:10202000F9F6C0903E19D0903F19E0904019F09019
:10203000411969817A81072E000C880B990B0E9447
:10204000CA3EA70196010E94424120914E1930914B
:102050004F1940915019509151190E94634060935B
:102060005E1970935F1980936019909361196B8169
:102070007C81072E000C880B990B0E94CA3EA70199
:1020800096010E944241209152193091531940917A
:102090005419509155190E946340609362197093CE
:1020A000631980936419909365198091361961E0E2
:1020B0006827681B770B072E000C880B990B0E9472
:1020C000CA3E4B015C016D817E81072E000C880B9E
:1020D000990B0E94CA3E9B01AC01C501B4010E944C
:1020E000293FA70196010E94424120915619309143
:1020F000571940915819509159190E9463406093A3
:1021000066197093671980936819909369196F81A4
:102110007885072E000C880B990B0E94CA3E20E0A0
:1021200030EF41E456E40E94644020E030E04AEAA7
:1021300053E40E94424160935A1970935B19809353
:102140005C1990935D19C0903A19D0903B19E090BA
:102150003C19F0903D1969857A85072E000C880B93
:10216000990B0E94CA3EA70196010E94424120910C
:1021700042193091431940914419509145190E94D8
:10218000634060936A1970936B1980936C199093F4
:102190006D196B857C85072E000C880B990B0E94AE
:1021A000CA3EA70196010E944241209146193091F2
:1021B000471940914819509149190E946340609312
:1021C0006E1970936F1980937019909371196D85C2
:1021D0007E85072E000C880B990B0E94CA3EA70132
:1021E00096010E94424120914A1930914B19409129
:1021F0004C1950914D190E9463406093721970936D
:10220000731980937419909375192E960FB6F894DC
:10221000DEBF0FBECDBFDF91CF911F910F91FF9019
:10222000EF90DF90CF90BF90AF909F908F907F9076
:102230006F905F904F90089585EE84CE80916518E1
:1022400090916618A0916718B0916818892B8A2B15
:102250008B2B09F47DCE0E945F03009165181091CD
:1022600066182091671830916818681979098A09E9
:102270009B09061717072807390708F069CEA0CE73
:102280008EE072CE7F928F929F92AF92BF92CF924A
:10229000DF92EF92FF920F931F93CF93DF93EC01A6
:1022A000062F142F188A19AE1AAE0E9447088823E9
:1022B00009F457C0602F660F6160CE010E94980933
:1022C00081114BC0188A7E01A12EB12CD12CC12CBA
:1022D000450181E0881A9108CA14DB0459F100E035
:1022E00088E0782EC814D904DCF4000FCE010E94D7
:1022F000A808082B7A947110F8CF60E0CE010E94F4
:10230000180989899A89009711F00E945403F701EE
:10231000018FFFEFCF1ADF0A8FEFE81AF80ADCCF40
:10232000000FCE010E94A808082B7A947110F8CFF4
:1023300061E0E4CF19AFCE010E94C507812FDF9184
:10234000CF911F910F91FF90EF90DF90CF90BF90B2
:10235000AF909F908F907F90089582E0888B10E0DF
:10236000EACF84E0FBCFFF920F931F93CF93DF93CD
:10237000EC01F62E8C01095F1F4F69E2C8010E9433
:10238000C2096F2D6068C8010E94AE09C8010E9491
:10239000C50742E069E2C8010E944211FE01E05C0B
:1023A000FF4F8081319690812FEF3FEF981740F4D7
:1023B000DE01A90FB11D90962C9130E09F5F9083B4
:1023C00090814FEF5FEF981728F4C90FD11D48A1F6
:1023D0009F5F908380E0942F822B932BDF91CF918E
:1023E0001F910F91FF9008950F931F93CF93DF9349
:1023F000162F022FEC01279669E2CE010E94C20936
:10240000612F6068CE010E94AE09602FCE010E944C
:10241000AE09CE01DF91CF911F910F910C94C507AA
:10242000FC0101900020E9F73197AF01481B590BDF
:10243000BC018DE898E10C9408048F929F92AF92B2
:10244000BF920F931F93CF93DF93CDB7DEB7A197C2
:102450000FB6F894DEBF0FBECDBF19A2423008F40C
:102460004AE08E010F5D1F4F842E912CB12CA12CC0
:10247000A50194010E943240E62FB901CA01EA3059
:10248000F4F4E05DD801EE938D01232B242B252B52
:1024900079F790E080E0109719F0CD010E941012BA
:1024A000A1960FB6F894DEBF0FBECDBFDF91CF91DE
:1024B0001F910F91BF90AF909F908F900895E95C0E
:1024C000E1CFBC0190E080E04AE00C941D12CF9275
:1024D000DF92EF92FF92CF93DF936C01990FEE089A
:1024E000FF08F7FE19C06DE28DE898E10E94020531
:1024F000EC0166277727CB016C197D098E099F09AE
:102500004AE00E941D128C0F9D1FDF91CF91FF901A
:10251000EF90DF90CF9008954AE0C701B601DF91B8
:10252000CF91FF90EF90DF90CF900C941D12CF933E
:10253000DF930E941012EC0183E592E00E941012DA
:102540008C0F9D1FDF91CF91089586E592E00E9448
:10255000971280E892E00E94971288E992E00E9428
:10256000971280EB92E00E94971283EC92E00E9417
:10257000971286ED92E00E94971287EE92E00E94F9
:10258000971288EF92E00E94971284E193E00E94F4
:10259000971282E393E00E94971289E59FE00C94E2
:1025A00097128DE393E00E94971280E892E00E94D8
:1025B000971284E693E00E94971289E793E00E94C5
:1025C000971289E893E00E94971289E993E00E94AC
:1025D000971287EA93E00E94971285EB93E00E949E
:1025E00097128EEC93E00E94971282E393E00E9490
:1025F000971289E59FE00C94971280EF93E00E9478
:1026000097128BE094E00E94971281E294E00E947E
:1026100097128AE394E00E94971280E594E00E946A
:10262000971289E59FE00C9497128BE594E00E9445
:10263000971280E892E00E9497128BE694E00E9445
:10264000971288E794E00E9497128BE894E00E942A
:10265000971281EA94E00E94971284EB94E00E9422
:1026600097128EEC94E00E94971287EE94E00E94FD
:10267000971283E095E00E94971280E295E00E9415
:10268000971289E59FE00C9497120C9410124F92C8
:102690005F926F927F928F929F92AF92BF92CF92F2
:1026A000DF92EF92FF920F931F93CF936B017C0108
:1026B000742EAC019B010E94B842882399F089E2F4
:1026C00095E0CF911F910F91FF90EF90DF90CF9009
:1026D000BF90AF909F908F907F906F905F904F9042
:1026E0000C94101246015701E894B7F82FEF3FEF12
:1026F0004FE75FE7C501B4010E94B84281110DC0E8
:102700002FEF3FEF4FE75FE7C501B4010E94C33EE3
:1027100018161CF48DE295E0D4CF2FEF3FEF4FE772
:102720005FE4C701B6010E94114218161CF481E350
:1027300095E0C7CF2FEF3FEF4FE75FECC701B60142
:102740000E94C33E87FDF3CF20E030E0A901C7011E
:10275000B6010E94C33E10E000E087FF0AC06DE2B0
:102760008DE898E10E9402058C01F7FAF094F7F8E1
:10277000F094C0E060E070E080E09FE37C1641F000
:1027800020E030E040E251E40E944241CF5FF6CFCA
:10279000A70196010E9464402B013C010E94BB41AD
:1027A0004B015C014AE00E941D127C01E00EF11E0B
:1027B000CC23A9F1C501B4010E94C83E9B01AC0124
:1027C000C301B2010E9463404B015C016EE28DE8DF
:1027D00098E10E940205E80EF91EC15000F120E0C8
:1027E00030E040E251E4C501B4010E94293F2B01D1
:1027F0003C010E94BB414B01CB010E946112E80EDB
:10280000F91EB40190E080E00E94C83E9B01AC013B
:10281000C301B2010E9463404B015C01DECFC701DE
:10282000CF911F910F91FF90EF90DF90CF90BF90CD
:10283000AF909F908F907F906F905F904F90089592
:10284000CF93DF930E946712EC0183E592E00E9430
:1028500010128C0F9D1FDF91CF910895CF93DF93BE
:102860000E946112EC0183E592E00E9410128C0F2D
:102870009D1FDF91CF910895BF92CF92DF92EF928B
:10288000FF920F931F93CF93DF93EC016C0187E0CE
:10289000C80ED11C7E01E0E4EE0EF11CF70110829F
:1028A0008E010F5B1F4FF8011082E989FA89908130
:1028B0008A858095892380838A8D882331F0ED85F0
:1028C000FE8580819A85892B8083888D998D0097DC
:1028D00011F00E945403EF85F889908189858095D5
:1028E000892380838A8D882331F0EB85FC85808164
:1028F0009985892B808384E0B82E888D998D0097E7
:1029000011F00E945403BA94B110F7CF8A8D882336
:1029100031F062E070E080E090E00E94840369E2C0
:10292000C6010E94C20962E9C6010E94AE09C60141
:102930000E94C50741E069E2C6010E944211F80108
:102940002081F7018081281708F055C0FE01E20FB1
:10295000F11D80A12F5FF8012083182F682F70E0F0
:1029600090E080E040E10E941D1283E592E00E9429
:10297000101280E01434A9F581E088830B811C815A
:10298000980150E040E061E0CE010E94F4111C8308
:102990000B8309811A818881811103C0CE010E94B5
:1029A0003C14980150E040E06FE0CE010E94F41129
:1029B0001A83098321E030E040E050E060E0CE017E
:1029C0000E94F41163E070E080E090E00E948403D4
:1029D00023E030E040E050E060E0CE010E94F411DE
:1029E00081E0DF91CF911F910F91FF90EF90DF90E9
:1029F000CF90BF9008958FEF9FEFAFCFAF92BF9270
:102A0000CF92DF92EF92FF920F931F93CF93DF93BA
:102A1000EC015B016A0179018881811103C0CE015B
:102A20000E943C1464E1CE010E94B311F80191832D
:102A3000808366E1CE010E94B311F501918380830A
:102A400068E1CE010E94B311F601918380836AE1AF
:102A5000CE010E94B311F701918380838B819C8109
:102A6000853D9105A1F180F40097D9F1803C910555
:102A700099F1DF91CF911F910F91FF90EF90DF902F
:102A8000CF90BF90AF900895863F9105D9F08F3FCA
:102A9000910541F08B3E910561F762E370E080E0C3
:102AA00090E004C063E070E080E090E0DF91CF91BF
:102AB0001F910F91FF90EF90DF90CF90BF90AF905C
:102AC0000C94840368E170E080E090E0EFCF65E66D
:102AD00070E080E090E0EACF6AE970E080E090E0AA
:102AE000E5CF6CEB72E080E090E0E0CF9F92AF9298
:102AF000BF92CF92DF92EF92FF920F931F93CF93EB
:102B0000DF930BEE17E12DEE37E14FEE57E161EF6A
:102B100077E183EE99E10E94FE144091ED17509108
:102B2000EE176091EF177091F0178091F117909167
:102B3000F2170E9447029093EA178093E91701E089
:102B400017E123E037E145E057E167E077E181EA0B
:102B500099E10E94FE14409103175091041760916F
:102B600005177091061780910717909108170E941A
:102B700047028C01909300178093FF16C090EB17CB
:102B8000D090EC17E0900117F0900217A090E91791
:102B9000B090EA178091070290910802C816D906F2
:102BA000B4F02091090230910A022C153D057CF009
:102BB00020910B0230910C02A216B30644F0C1E042
:102BC00020910D0230910E022A153B050CF4C0E055
:102BD000E816F906C4F08091090290910A028E1558
:102BE0009F058CF080910B0290910C020817190739
:102BF00054F080910D0290910E02DC2F9924939451
:102C00008017910714F4912CD0E085E395E00E94A1
:102C100045138C2F90E00E94201485E495E00E94DB
:102C20004513892D90E00E94201486E595E00E94CE
:102C300045138D2F90E00E94201484E695E00E94B9
:102C40004513C6010E9467128AE695E00E9445136B
:102C5000C7010E94201483E795E00E9445138091EC
:102C6000E9179091EA170E9461128AE795E00E94A5
:102C700045138091FF16909100170E942E1484E84E
:102C800095E00E9445138091F1179091F2170E94F0
:102C9000611289E895E00E94451380910717909191
:102CA00008170E942E1481E995E00E944513809137
:102CB000EF179091F0170E94611286E995E00E944B
:102CC000451380910517909106170E942E148EE9E6
:102CD00095E00E9445138091ED179091EE170E94A8
:102CE000611283EA95E00E94451380910317909149
:102CF00004170E942E148BEA95E00E9445138091E0
:102D0000EB179091EC170E94611280EB95E00E9406
:102D1000451380910117909102170E942E1488EBA1
:102D200095E00E9445138091070290910802C81611
:102D3000D90644F081E02091090230910A022C1555
:102D40003D050CF480E090E00E94201483EE95E0B5
:102D50000E9445138091070290910802E816F90637
:102D600044F081E02091090230910A022E153F05BE
:102D70000CF480E090E00E9420148EE096E00E9427
:102D8000451380910B0290910C02A816B90644F0ED
:102D900081E020910D0230910E022A153B050CF4C2
:102DA00080E090E00E9420148BE396E00E9445139F
:102DB00080910B0290910C020817190744F081E0F2
:102DC00020910D0230910E02201731070CF480E0A3
:102DD00090E0DF91CF911F910F91FF90EF90DF90E6
:102DE000CF90BF90AF909F900C9420145F926F9201
:102DF0007F928F929F92AF92BF92CF92DF92EF928B
:102E0000FF920F931F93CF93DF930BEE17E12DEEFD
:102E100037E14FEE57E161EF77E183EE99E10E94F0
:102E2000FE144091ED175091EE176091EF177091DD
:102E3000F0178091F1179091F2170E94470290933A
:102E4000EA178093E91701E017E123E037E145E055
:102E500057E167E077E181EA99E10E94FE14609012
:102E60000317709004178090051790900617C09173
:102E70000717D0910817A301B401CE010E944702A1
:102E80008C01909300178093FF16C090EB17D090A1
:102E9000EC17E0900117F0900217A090E917B0909E
:102EA000EA178091F1179091F2172091EF17309166
:102EB000F0172817390770F54091ED175091EE176C
:102EC0004817590738F5821B930B20910F02309158
:102ED000100228173907F0F4809111029091120224
:102EE000C816D906BCF080911302909114028C157B
:102EF0009D0584F08091150290911602A816B906DE
:102F00004CF05524539480911702909118028A1521
:102F10009B050CF4512C8C169D0650F56C167D0605
:102F200038F5C819D90980910F02909110028C17B9
:102F30009D07F0F48091110290911202E816F906B3
:102F4000BCF080911302909114028E159F0584F0BD
:102F50008091150290911602081719074CF0809184
:102F6000170290911802C52DD1E08017910714F433
:102F7000D0E0C0E088E696E00E944513852D90E001
:102F80000E9420148BE796E00E9445138D2F90E05D
:102F90000E9420148FE896E00E9445138C2F90E049
:102FA0000E94201484E695E00E944513C6010E9409
:102FB00067128AE695E00E944513C7010E9420141B
:102FC00083E795E00E9445138091E9179091EA17F5
:102FD0000E9461128AE795E00E9445138091FF16D6
:102FE000909100170E942E1484E895E00E944513EA
:102FF0008091F1179091F2170E94611289E895E093
:103000000E94451380910717909108170E942E1473
:1030100081E995E00E9445138091EF179091F01798
:103020000E94611286E995E00E9445138091051780
:10303000909106170E942E148EE995E00E94451388
:103040008091ED179091EE170E94611283EA95E04E
:103050000E94451380910317909104170E942E142B
:103060008BEA95E00E9445138091EB179091EC1745
:103070000E94611280EB95E00E9445138091011738
:10308000909102170E942E1480EA96E00E94451348
:103090008091110290911202C816D90644F081E085
:1030A00020911302309114022C153D050CF480E0A0
:1030B00090E00E9420148DEC96E00E9445138091D0
:1030C000110290911202E816F90644F081E0209175
:1030D0001302309114022E153F050CF480E090E0AD
:1030E0000E9420148AEF96E00E94451380911502F9
:1030F00090911602A816B90644F081E020911702BB
:10310000309118022A153B050CF480E090E00E94F3
:1031100020148DE297E00E94451380911502909152
:1031200016020817190744F081E020911702309128
:103130001802201731070CF480E090E00E94201460
:1031400080E697E00E9445132091F1173091F21725
:103150008091EF179091F0178217930740F481E068
:103160004091ED175091EE174217530708F080E099
:1031700090E00E94201485E797E00E94451320917B
:10318000F1173091F2178091EF179091F017281BEB
:10319000390B81E090E040910F02509110024217EC
:1031A000530710F090E080E00E9420148BE997E034
:1031B0000E94451320910717309108178091051739
:1031C000909106178217930740F481E0409103170E
:1031D000509104174217530708F080E090E00E94D6
:1031E000201480EB97E00E9445132091071730913F
:1031F00008178091051790910617281B390B81E05D
:1032000090E040910F02509110024217530710F0C6
:1032100090E080E0DF91CF911F910F91FF90EF90B0
:10322000DF90CF90BF90AF909F908F907F906F90E6
:103230005F900C9420145F926F927F928F929F9276
:10324000AF92BF92CF92DF92EF92FF920F931F93B4
:10325000CF93DF930BEE17E12DEE37E14FEE57E101
:1032600061EF77E183EE99E10E94FE144091ED1742
:103270005091EE176091EF177091F0178091F11750
:103280009091F2170E9447029093EA178093E917F2
:1032900001E017E123E037E145E057E167E077E13E
:1032A00081EA99E10E94FE14609003177090041760
:1032B000A0900517B09006178090071790900817F8
:1032C000A301B501C4010E9447027C01909300173D
:1032D0008093FF160091EB171091EC17C091011726
:1032E000D0910217C090E917D090EA178091EF179C
:1032F0009091F0172091F1173091F21728173907A4
:1033000070F54091ED175091EE174817590738F5B1
:10331000821B930B2091190230911A02281739074A
:10332000F0F48091F3179091F41708171907BCF087
:103330008091F5179091F6178017910784F080918E
:10334000F7179091F817C816D9064CF055245394E6
:103350008091F9179091FA178C159D050CF4512C5A
:103360008A149B0450F56A147B0438F5A818B90830
:103370008091190290911A028A159B05F0F48091B0
:10338000F3179091F417C817D907BCF08091F5177F
:103390009091F6178C179D0784F08091F717909104
:1033A000F817E816F9064CF0BB24B3948091F9178E
:1033B0009091FA178E159F050CF4B12C48018C1AC8
:1033C0009D0A97FE03C091948194910824E6821689
:1033D00091041CF4AB2C511001C0A12C86ED97E098
:1033E0000E944513852D90E00E94201486EE97E000
:1033F0000E9445138B2D90E00E94201487EF97E0E8
:103400000E9445138A2D90E00E94201484E695E0E6
:103410000E944513C8010E9467128AE695E00E9447
:103420004513CE010E94201483E795E00E944513C6
:103430008091E9179091EA170E9461128AE795E05E
:103440000E9445138091FF16909100170E942E1440
:1034500084E895E00E9445138091F1179091F2174E
:103460000E94611289E895E00E9445138091071738
:10347000909108170E942E1481E995E00E9445134F
:103480008091EF179091F0170E94611286E995E004
:103490000E94451380910517909106170E942E14E3
:1034A0008EE995E00E9445138091ED179091EE17FB
:1034B0000E94611283EA95E00E94451380910317F0
:1034C000909104170E942E148BEA95E00E944513F8
:1034D0008091EB179091EC170E94611280EB95E0C0
:1034E0000E94451380910117909102170E942E149B
:1034F00083E795E00E9445138091E9179091EA17C0
:103500000E9461128AE795E00E9445138091FF16A0
:10351000909100170E942E1485E098E00E944513B8
:103520008091F3179091F4170817190744F081E080
:103530002091F5173091F617201731070CF480E031
:1035400090E00E9420148CE298E00E944513809144
:10355000F3179091F417C817D90744F081E0209130
:10356000F5173091F6172C173D070CF480E090E02A
:103570000E94201483E598E00E9445138091F7177C
:103580009091F817C816D90644F081E02091F917F8
:103590003091FA172C153D050CF480E090E00E9464
:1035A000201480E898E00E9445138091F7179091CD
:1035B000F817E816F90644F081E02091F9173091E8
:1035C000FA172E153F050CF480E090E00E942014BD
:1035D0008DEA98E00E9445132091EF173091F01783
:1035E0008091F1179091F2178217930740F481E0D0
:1035F0004091ED175091EE174217530708F080E005
:1036000090E00E94201482EC98E00E9445132091E3
:10361000EF173091F0178091F1179091F217281B56
:10362000390B81E090E04091190250911A02421743
:10363000530710F090E080E00E94201480EE98E0A4
:103640000E944513209105173091061780910717A6
:10365000909108178217930740F481E04091031777
:10366000509104174217530708F080E090E00E9441
:10367000201485EF98E00E944513209105173091A2
:1036800006178091071790910817281B390B81E0C6
:1036900090E04091190250911A024217530710F01E
:1036A00090E080E00E94201485E098E00E9445139D
:1036B0008091F3179091F4170817190744F081E0EF
:1036C0002091F5173091F617201731070CF480E0A0
:1036D00090E00E9420148CE298E00E9445138091B3
:1036E000F3179091F417C817D90744F081E020919F
:1036F000F5173091F6172C173D070CF480E090E099
:103700000E94201483E598E00E9445138091F717EA
:103710009091F817C816D90644F081E02091F91766
:103720003091FA172C153D050CF480E090E00E94D2
:10373000201480E898E00E9445138091F71790913B
:10374000F817E816F90644F081E02091F917309156
:10375000FA172E153F050CF480E090E00E9420142B
:1037600083E199E00E94451381E090E024E682160F
:10377000910414F090E080E0DF91CF911F910F91C0
:10378000FF90EF90DF90CF90BF90AF909F908F9081
:103790007F906F905F900C9420140F931F930BEE0B
:1037A00017E12DEE37E14FEE57E161EF77E183EE60
:1037B00099E10E94FE144091ED175091EE1760912F
:1037C000EF177091F0178091F1179091F2170E9406
:1037D00047029093EA178093E91701E017E123E08D
:1037E00037E145E057E167E077E181EA99E10E943E
:1037F000FE144091031750910417609105177091C2
:10380000061780910717909108170E94470290931E
:1038100000178093FF168BE399E00E94971286E3CE
:1038200090E10E9445138091E9179091EA170E9458
:1038300061128FE499E00E94451388E490E10E94B0
:1038400045138091F1179091F2170E94611281E562
:1038500099E00E94451383E991E10E94451380910C
:10386000EF179091F0170E94611281E599E00E9494
:10387000451383E599E00E9445138091ED179091DF
:10388000EE170E94611281E599E00E9445138FE3D3
:1038900090E10E9445138091EB179091EC170E94E4
:1038A000611281E599E00E94451381E599E00E944B
:1038B000971287E599E00E94971286E390E10E94B3
:1038C00045138091FF16909100170E9461128FE4BA
:1038D00099E00E94451388E490E10E94451380918D
:1038E0000717909108170E94611281E599E00E94E4
:1038F000451383E991E10E9445138091051790914A
:1039000006170E94611281E599E00E94451383E544
:1039100099E00E94451380910317909104170E942B
:10392000611281E599E00E9445138FE390E10E94C6
:10393000451380910117909102170E94611281E551
:1039400099E00E94451381E599E00E9497128CE668
:1039500099E00E94971286E899E00E9445138091B1
:103960000517909106172091071730910817821BB1
:10397000930B0E942E148FE899E00E9445138091CA
:103980000517909106172091031730910417821B99
:10399000930B0E942E1488E999E00E94971286E802
:1039A00099E00E9445138091EF179091F0172091B4
:1039B000F1173091F217821B930B0E942E148FE89F
:1039C00099E00E9445138091EF179091F017209194
:1039D000ED173091EE17821B930B0E942E146AEFA5
:1039E00070E080E090E00E9484031F910F910895A1
:1039F0004F925F926F927F928F929F92AF92BF92FF
:103A0000CF92DF92EF92FF920F931F93CF93DF93AA
:103A1000CDB7DEB72C970FB6F894DEBF0FBECDBF83
:103A20000E941D0FC0906619D0906719E090681928
:103A3000F090691921E030E03A83298320E030E0FA
:103A4000A901C701B6010E94114287FF02C01A8274
:103A5000198201E010E020E030E0A901C701B601C1
:103A60000E94C33E87FD02C010E000E069817A81B8
:103A7000601B710B072E000C880B990B0E94CA3E2D
:103A80006D837E838F839887A7019601C701B60156
:103A90000E94293F2B013C01C0905E19D0905F1914
:103AA000E0906019F0906119A7019601C701B60175
:103AB0000E94293FA30192010E9464400E94744227
:103AC0009B01AC018090621990906319A0906419D9
:103AD000B09065196D817E818F8198850E94293F04
:103AE0009B01AC01C501B4010E94E34021EE3EE21E
:103AF00045E652E40E94293F609376197093771946
:103B00008093781990937919A5019401C501B401A6
:103B10000E94293FA30192010E9464400E947442C6
:103B20009B01AC01C701B6010E94E340905821EE11
:103B30003EE245E652E40E94293F60937A19709371
:103B40007B1980937C1990937D190E94B7036B01B8
:103B50007C0180918A1990918B19A0918C19B09158
:103B60008D19A7019601281B390B4A0B5B0BCA0163
:103B7000B9010E94C83E2FE632E143E85AE30E94B1
:103B8000293F4B015C01C0928A19D0928B19E092B7
:103B90008C19F0928D1980918E1990918F19A091A6
:103BA0009019B091911989839A83AB83BC8340901B
:103BB0007619509077196090781970907919209142
:103BC0006A1930916B1940916C1950916D19C501AA
:103BD000B4010E94293F20917E1930917F194091B4
:103BE0008019509181190E946440A30192010E94A2
:103BF00063406B017C0120E030E044E353E40E9429
:103C0000114218163CF420E030E044EB53E4C701C5
:103C1000B601EDCF20E030E044E353ECC701B6013C
:103C20000E94C33E87FF0BC020E030E044EB53E42A
:103C3000C701B6010E9464406B017C01EBCF298172
:103C40003A814B815C8160E070E080E89FE30E94F4
:103C5000634069877A878B879C87A7019601C30198
:103C6000B2010E94644029813A814B815C810E94AB
:103C7000293F6B017C0129853A854B855C85C30111
:103C8000B2010E94293F9B01AC01C701B6010E940D
:103C900064406B017C0120E030E044E353E40E9487
:103CA000114218164CF420E030E044EB53E4C70115
:103CB000B6010E946340EDCF20E030E044E353ECD6
:103CC000C701B6010E94C33E87FF0BC020E030E071
:103CD00044EB53E4C701B6010E9464406B017C01D0
:103CE000EBCFC0927E19D0927F19E0928019F092AA
:103CF000811940907A1950907B1960907C197090CE
:103D00007D1920916E1930916F1940917019509161
:103D100071196D817E818F8198850E94293FA5014F
:103D200094010E94293F209182193091831940917A
:103D30008419509185190E946440A30192010E9448
:103D400063406B017C0120E030E044EB52E40E94D0
:103D5000114218163CF420E030E044E353E4C7017C
:103D6000B601EDCF20E030E044EB52ECC701B601E4
:103D70000E94C33E87FF0BC020E030E044E353E4E1
:103D8000C701B6010E9464406B017C01EBCFA70123
:103D90009601C301B2010E94644029813A814B819E
:103DA0005C810E94293F6B017C01A301920169851E
:103DB0007A858B859C850E94293F9B01AC01C701B8
:103DC000B6010E9464406B017C0120E030E044EBCE
:103DD00052E40E94114218164CF420E030E044E313
:103DE00053E4C701B6010E946340EDCF20E030E00C
:103DF00044EB52ECC701B6010E94C33E87FF0BC0E3
:103E000020E030E044E353E4C701B6010E9464407F
:103E10006B017C01EBCFC0928219D0928319E092A2
:103E20008419F0928519209172193091731940917B
:103E3000741950917519C501B4010E94293F209150
:103E400086193091871940918819509189190E94DB
:103E500064406093861970938719809388199093B2
:103E600089192C960FB6F894DEBF0FBECDBFDF9137
:103E7000CF911F910F91FF90EF90DF90CF90BF9067
:103E8000AF909F908F907F906F905F904F9008952C
:103E90000E94F81C60918219709183198091841995
:103EA000909185190E94B441CB0108950E94F81C9D
:103EB000609186197091871980918819909189195C
:103EC0000E94B441CB0108950E94561F90930C1894
:103ED00080930B182091091830910A18A9014150BC
:103EE00051098417950784F464E670E08EE999E13E
:103EF0000E948D0A6AE570E08BE999E10E948D0AC3
:103F000081EB99E00C949712A9014F5F5F4F48171E
:103F100059077CF46AE570E08EE999E10E948D0A08
:103F200060E570E08BE999E10E948D0A84EC99E0EC
:103F3000E9CF281B390B37FF03C031952195310993
:103F4000223031057CF460EA70E08EE999E10E944C
:103F50008D0A64E170E08BE999E10E948D0A87ED9A
:103F600099E0D0CF0895EF92FF920F931F93CF93D4
:103F7000DF938AEE99E00E94971268E770E08EE97D
:103F800099E10E948D0A6CE370E08BE999E10E944F
:103F90008D0A0E94F81C66E970E080E090E00E94C3
:103FA00084036AE570E08EE999E10E948D0A6AE572
:103FB00070E08BE999E10E948D0A0BEE17E12DEE7E
:103FC00037E14FEE57E161EF77E183EE99E10E942F
:103FD000FE144091ED175091EE176091EF1770911C
:103FE000F0178091F1179091F2170E944702909379
:103FF000EA178093E91701E017E123E037E145E094
:1040000057E167E077E181EA99E10E94FE14E090D0
:104010000317F0900417C0910517D091061700916F
:10402000071710910817A701BE01C8010E94470297
:10403000FC01909300178093FF164091EB1750916D
:10404000EC17609101177091021780910502909111
:1040500006028417950724F4861797070CF433C1DA
:104060002091EF173091F0178091F1179091F2178E
:104070008217930788F5A091ED17B091EE17A2175C
:10408000B30750F5281B390B8091190290911A0241
:104090008217930708F58091F3179091F41748174A
:1040A0005907D4F08091F5179091F617841795076A
:1040B0009CF08091E9179091EA172091F7173091C1
:1040C000F8178217930744F021E0A091F917B091F7
:1040D000FA17A817B9070CF420E00C171D0748F5CC
:1040E000EC16FD0630F5C01BD10B809119029091A2
:1040F0001A028C179D07E8F48091F3179091F4173A
:1041000068177907B4F08091F5179091F617861724
:1041100097077CF08091F7179091F817E817F90747
:1041200044F091E0A091F917B091FA17AE17BF07CC
:104130000CF490E0461B570B57FF03C05195419577
:104140005109443651050CF053C0222309F4DBC059
:10415000992309F450C085EF99E00E94451389E046
:104160009AE00E9445138091091890910A180E94C4
:1041700067128BEB96E10E9445130E94561F0E9426
:10418000201462E370E08EE999E10E948D0A62E3F7
:1041900070E08BE999E10E948D0A44E650E063E00B
:1041A00070E088EE93E00E94EA0CC0910918D0916B
:1041B0000A18CF5AD1090E94561FC817D9070CF008
:1041C0005EC00E94F81C8AE19AE00E9445130E949A
:1041D000561F0E94671287E49AE00E94451380915F
:1041E000091890910A188F5A91090E942014DDCF66
:1041F000222309F488C083E59AE00E94971268E7B9
:1042000070E08EE999E10E948D0A6CE370E08BE921
:1042100099E10E948D0A60E070E0CB010E94840366
:104220006CE370E08EE999E10E948D0A6CE370E026
:104230008BE999E10E948D0AC0910918D0910A1862
:10424000CA55D1090E94561FC817D9070CF042C0A1
:104250000E94F81C85E69AE00E9445130E94561FB2
:104260000E94671287E49AE00E9445138091091822
:1042700090910A188A5591090E942014DDCF68E7B1
:1042800070E08EE999E10E948D0A6CE370E08BE9A1
:1042900099E10E948D0A60ED77E080E090E00E9455
:1042A00084038091091890910A188F5A910990936C
:1042B0000A1880930918109203181092041810928B
:1042C000051810920618DF91CF911F910F91FF9062
:1042D000EF90089568E770E08EE999E10E948D0AF9
:1042E0006CE370E08BE999E10E948D0A60ED77E064
:1042F00080E090E00E9484038091091890910A1850
:104300008A559109D4CF9923F1F28BE99AE00E9462
:10431000971268E770E08EE999E10E948D0A6CE3DC
:1043200070E08BE999E10E948D0A60E070E0CB01BA
:104330000E9484030E94561F90930A1880930918C4
:1043400068E770E08EE999E10E948D0A68E770E005
:104350008BE999E10E948D0AC0910918D0910A1841
:10436000C65ADF4F0E94561F8C179D07BCF40E944F
:10437000F81C8EEA9AE00E9445130E94561F0E9484
:10438000671287E49AE00E94451380910918909182
:104390000A18865A9F4F0E942014DECF68E770E00B
:1043A0008EE999E10E948D0A6CE370E08BE999E156
:1043B0000E948D0A60ED77E080E090E00E94840327
:1043C0008091091890910A18865A9F4F70CF0F93C9
:1043D0001F93CF93DF93EC0188819981009759F067
:1043E0002A813B812617370730F081E0DF91CF919A
:1043F0001F910F9108958B016F5F7F4F0E9432458F
:10440000009759F0998388831B830A832C813D810F
:10441000232B59F7FC011082E8CF80E0E7CFCF9241
:10442000DF92EF92FF92CF93DF93CDB7DEB7E297A3
:104430000FB6F894DEBF0FBECDBFDC01AE014D5C00
:104440005F4FFE0131969C91963308F09653209170
:104450007B00892F8870277F822B80937B0020919F
:104460001E0280E4289F900111249770922B909354
:104470007C0090917A00906490937A0080917A0009
:1044800086FDFCCF80917800909179008193919383
:104490004E175F07C1F628E130E0FE01319650E08B
:1044A00040E081E04217530784F4E080F180C2804D
:1044B000D380CE14DF042CF4D182C082F382E28256
:1044C00080E04F5F5F4F3296EDCF811103C02150E6
:1044D000310919F712968D919D910D90BC91A02DE7
:1044E000883324E09207A105B10591F5A98DBA8D15
:1044F00028E833E10E94F2432FEF33E040E050E040
:104500000E940040CA01B9010E94CA3E20E030E08A
:104510004AE754E40E9442412EE03DE24AE95FEB63
:104520000E941E4222EF32ED4DED51E40E94293FE0
:104530000E94B441CB01E2960FB6F894DEBF0FBEE5
:10454000CDBFDF91CF91FF90EF90DF90CF90089596
:10455000863B2EE49207A105B10509F5A98DBA8D18
:1045600028E833E10E94F2432FEF33E040E050E0CF
:104570000E940040CA01B9010E94CA3E20E030E01A
:104580004AE754E40E94424121EE3AE744E95FEBF6
:104590000E941E422AEF3EE741E752E4C7CF8E3A1F
:1045A00021E09207A105B10509F5A98DBA8D28E88A
:1045B00033E10E94F2432FEF33E040E050E00E94ED
:1045C0000040CA01B9010E94CA3E20E030E04AE73B
:1045D00054E40E9442412BE83CE647E85FEB0E942E
:1045E0001E422EEA37E441E451E4A0CF84399848D2
:1045F000A140B10509F09ECFA98DBA8D28E833E11D
:104600000E94F2432FEF33E040E050E00E94004070
:10461000CA01B9010E94CA3E6B017C0120E030E072
:104620004FEA54E40E94C33E87FD27C020E030E4F7
:104630004EE455E4C701B6010E9411421816ECF091
:1046400020E030EA4CE854E4C701B6010E94634020
:1046500020E030E04AE754E40E94424120E030E8A4
:1046600049E053E40E9442419B01AC0160E070E0EC
:1046700080E89FE30E9442415BCF70E060E05ACF48
:10468000CF92DF92EF92FF92CF93DF93C5E0D0E01D
:10469000C12CD12C760181E39AE10E940F22092ED0
:1046A000000CAA0BBB0BC80ED91EEA1EFB1E6AE04B
:1046B00070E080E090E00E948403219761F7C701D9
:1046C000B60125E030E040E050E00E940040C90122
:1046D000DF91CF91FF90EF90DF90CF9008958F9270
:1046E0009F92AF92BF92CF92DF92EF92FF92CF93C1
:1046F000DF9381E39AE10E940F220A970CF012C225
:104700000E9440237C016CE370E08BE999E10E94F8
:104710008D0A68E770E08EE999E10E948D0A44EF06
:1047200051E062E070E088EE93E00E94EA0C0E94A3
:104730004023EC018BE29BE00E944513C7010E94DD
:10474000671280E49BE00E944513CE010E94201472
:1047500086E59BE00E9445130E94481F0E94671255
:1047600087E69BE00E9445138091091890910A18F2
:104770000E942014EC16FD060CF04BC00E94481F4E
:1047800020910D1830910E1882179307B4F589E720
:104790009BE00E94971244EF51E061E070E088EEE8
:1047A00093E00E94EA0C6AE570E08EE999E10E94CC
:1047B0008D0A6AE570E08BE999E10E948D0A0E94FA
:1047C000960C8AE89BE00E94971270E060E088E90E
:1047D00099E10E948D0A68EE73E080E090E00E940B
:1047E0008403DF91CF91FF90EF90DF90CF90BF9047
:1047F000AF909F908F900C94660C0E94481F209160
:104800000D1830910E1823503109821793070CF4BC
:10481000BECF68E770E08EE999E10E948D0A68E7F3
:1048200070E08BE999E10E948D0AC0910918D0913E
:104830000A18C65ADF4F0E94561F8C179D07BCF4FA
:104840000E94F81C80EA9BE00E9445130E94561FBC
:104850000E94671287E49AE00E944513809109182C
:1048600090910A18865A9F4F0E942014DECF60EA6A
:1048700070E08EE999E10E948D0A64E170E08BE9B5
:1048800099E10E948D0A8091091890910A18865A20
:104890009F4F90930A18809309180E94B7036B01E9
:1048A0007C014B015C0128EB820E2BE0921EA11CC7
:1048B000B11C0E94B7036C197D098E099F09683BE2
:1048C0007B408105910548F588ED9BE00E944513EA
:1048D0000E94B7036C197D098E099F094AE00E9466
:1048E0001D1283E592E00E9410128FEF9BE00E9460
:1048F00045130E94B703A5019401261B370B480BF3
:10490000590BCA01B9014AE00E941D1283E592E0E9
:104910000E9410120E94641FCCCF80E19CE00E9494
:1049200097126CE370E08EE999E10E948D0A6CE3C6
:1049300070E08BE999E10E948D0AC0910918D0912D
:104940000A18CA55D1090E94561FC817D907BCF4C6
:104950000E94F81C87E29CE00E9445130E94561FAB
:104960000E94671287E49AE00E944513809109181B
:1049700090910A188A5591090E942014DECF60EAAE
:1049800070E08EE999E10E948D0A64E170E08BE9A4
:1049900099E10E948D0A8091091890910A188A5510
:1049A000910990930A18809309180E94B7036B012C
:1049B0007C010E94B7036C197D098E099F09683537
:1049C0007B418105910518F40E94641FF2CF6CE3CE
:1049D00070E08EE999E10E948D0A6CE370E08BE94A
:1049E00099E10E948D0AC0910918D0910A18CA5500
:1049F000D1090E94561FC817D907BCF40E94F81CA1
:104A00008EE59CE00E9445130E94561F0E9467128B
:104A100087E49AE00E9445138091091890910A1842
:104A20008A5591090E942014DECF60EA70E08EE979
:104A300099E10E948D0A64E170E08BE999E10E949E
:104A40008D0A8091091890910A188A5591099093BE
:104A50000A18809309180E94A80C9093101880934C
:104A60000F18E0910F18F09110188481958101972B
:104A700019F40E94641FEFCF68E770E08EE999E1B6
:104A80000E948D0A6CE370E08BE999E10E948D0A27
:104A900068EE73E080E090E00E94840368E770E0D5
:104AA0008EE999E10E948D0A68E770E08BE999E14F
:104AB0000E948D0AC0910918D0910A18C65ADF4F7A
:104AC0000E94561F8C179D07BCF40E94F81C85E9B4
:104AD0009CE00E9445130E94561F0E94671287E4C3
:104AE0009AE00E9445138091091890910A18865AFD
:104AF0009F4F0E942014DECF68E770E08EE999E1B5
:104B00000E948D0A6CE370E08BE999E10E948D0AA6
:104B10008091091890910A18865A9F4F90930A180D
:104B200080930918DF91CF91FF90EF90DF90CF90A5
:104B3000BF90AF909F908F900895CF92DF92EF92A9
:104B4000FF920F931F93CF93DF930BEE17E12DEEA0
:104B500037E14FEE57E161EF77E183EE99E10E9493
:104B6000FE144091ED175091EE176091EF17709180
:104B7000F0178091F1179091F2170E9447029093DD
:104B8000EA178093E91701E017E123E037E145E0F8
:104B900057E167E077E181EA99E10E94FE14E09035
:104BA0000317F09004170091051710910617C09194
:104BB0000717D0910817A701B801CE010E9447023C
:104BC000909300178093FF162091F1173091F21700
:104BD0004091EF175091F01742175307A8F56091D5
:104BE000ED177091EE176217730770F5241B350BE4
:104BF00040910F02509110024217530728F520915F
:104C0000EB173091EC1740911102509112022417CA
:104C10003507D4F040911302509114024217530704
:104C20009CF02091E9173091EA17409115025091BC
:104C300016022417350744F04091170250911802CC
:104C4000421753070CF019C20C171D0708F056C184
:104C500020E0EC16FD0608F417C250C16AE570E0CA
:104C60008BE999E10E948D0A6AE570E08EE999E18D
:104C70000E948D0A81E39AE10E948A2D85E29AE1E1
:104C80000E948A2DEC0181E0C231D1050CF480E054
:104C90008093FE168BE29AE10E948A2D21E08231F8
:104CA00091050CF420E02093FD1662970CF0EEC005
:104CB00042970CF0EBC085E29AE10E940F228C0132
:104CC0008BE29AE10E940F22EC0186E49DE00E94B3
:104CD0004513C8010E9420148CE59DE00E944513F5
:104CE000CE010E9420140C171D070CF094C06CE339
:104CF00070E08EE999E10E948D0A6CE370E08BE927
:104D000099E10E948D0AC0910918D0910A18CA55DC
:104D1000D1090E94561F8C179D07ECF40E94F81CC5
:104D20000E94A80C9093101880930F1886EB9AE0BD
:104D30000E9445130E94561F0E94671287E49AE062
:104D40000E9445138091091890910A188A5591097B
:104D50000E942014D8CF8091091890910A188A5582
:104D6000910990930A188093091868E770E08BE91D
:104D700099E10E948D0A6CE370E08EE999E10E944E
:104D80008D0A60ED77E080E090E00E9484030E944D
:104D9000561F90930A188093091883EA9DE00E9499
:104DA00045138091091890910A180E9420140E94BE
:104DB000B7036B017C010E94B7036C197D098E0952
:104DC0009F09603177428105910508F084C00E94F7
:104DD000641F6CEB7DE085E29AE10E94BB2D882385
:104DE00009F46DC085EC9DE00E94971244EF51E0FC
:104DF00061E070E088EE93E00E94EA0C6AE570E002
:104E00008BE999E10E948D0A6AE570E08EE999E1EB
:104E10000E948D0AF3CF68E770E08EE999E10E9465
:104E20008D0A68E770E08BE999E10E948D0AC091D4
:104E30000918D0910A18C65ADF4F0E94561F8C17C6
:104E40009D07ECF40E94F81C0E94A80C9093101887
:104E500080930F1886EB9AE00E9445130E94561F1C
:104E60000E94671287E49AE00E9445138091091816
:104E700090910A18865A9F4F0E942014D8CF809193
:104E8000091890910A18865A9F4F6BCF81E79DE0D1
:104E90000E9497126AE570E08BE999E10E948D0A01
:104EA0006AE570E08EE999E10E948D0A44EF51E0D5
:104EB00061E070E088EE93E00E94EA0CEBCF66EFD1
:104EC0007DE08BE29AE10E94BB2D882309F473CF29
:104ED0008EEF9DE089CF8EE29EE00E9497128ECFEA
:104EE00081E79EE0DF91CF911F910F91FF90EF90AE
:104EF000DF90CF900C9497122111F4C085EF9CE0C5
:104F00000E949712E091EB17F091EC172091011796
:104F1000309102176091E9177091EA178091FF169E
:104F2000909100174091070250910802E417F5078D
:104F3000ACF0A0910902B0910A02AE17BF0774F05D
:104F4000E0910B02F0910C026E177F073CF0E091AC
:104F50000D02F0910E02E617F707E4F42417350767
:104F60000CF4BECF4091090250910A024217530738
:104F70000CF4B6CF20910B0230910C0282179307EC
:104F80000CF4AECF20910D0230910E022817390794
:104F90000CF4A6CF86E09DE00E94971287E19DE089
:104FA0000E9497126AE570E08EE999E10E948D0AED
:104FB0006AE570E08BE999E10E948D0A44E650E0D1
:104FC00062E070E084EF91E00E94EA0C0E94960C8F
:104FD00089E29DE00E94971270E060E085E999E126
:104FE0000E948D0A64EB70E082E999E10E948D0ACB
:104FF00068EE73E080E090E00E94840387E39DE028
:105000000E9497126FEA70E088E999E10E948D0A88
:1050100060ED77E080E090E00E94840364EF71E04F
:1050200080E090E00E9484038CE09AE00E944513A7
:105030008091091890910A180E9467128BEB96E1F3
:105040000E9445130E94561F0E9420140E94B7031D
:105050006B017C0120E7C20E27E1D21EE11CF11C8E
:105060000E94B7036C157D058E059F0508F0F6CDEF
:105070000E94641F0E94F81CF3CF0C171D0790F5C7
:10508000EC16FD0678F521E0C01BD10B40910F0214
:10509000509110024C175D0708F02ECF4091011778
:1050A0005091021760911102709112024617570732
:1050B0000CF422CF609113027091140264177507EB
:1050C0000CF41ACF409115025091160284179507DF
:1050D0000CF412CF4091170250911802481759074B
:1050E0000CF40ACF8DEC9CE00E9497126AE570E008
:1050F0008EE999E10E948D0A6AE570E08BE999E1F9
:105100000E948D0A81EE9CE0EFCF85ED8093BC007C
:105110008091651890916618A0916718B0916818F1
:105120000796A11DB11D23E0B695A7959795879584
:105130002A95D1F72091BC0024FD03C0109263187A
:1051400008954091651850916618609167187091A4
:105150006818452B462B472B69F30097A105B1052D
:1051600041F02AE22A95F1F700C00197A109B1099F
:10517000E1CF809164180C94BB050F931F93CF93DC
:10518000DF938C01EB010E94EA3F8883C8010196FE
:105190000E94EA3F8983CE01DF91CF911F910F9149
:1051A0000895CF93DF931F921F92CDB7DEB780E8AB
:1051B0009EE00E949712BE016F5F7F4F90E080E0FB
:1051C0000E94BD2886EA9EE00E94451389819A814B
:1051D0000E942014BE016F5F7F4F82E090E00E942A
:1051E000BD2882E798E00E94451389819A810E9438
:1051F0002014BE016F5F7F4F84E090E00E94BD28C5
:1052000084EB9EE00E94451389819A810E942014BC
:10521000BE016F5F7F4F86E090E00E94BD2880E274
:1052200098E00E94451389819A810E942014BE0152
:105230006F5F7F4F88E090E00E94BD2880EC9EE089
:105240000E94451389819A810E942014BE016F5FDC
:105250007F4F8AE090E00E94BD288CED9EE00E9486
:10526000451389819A810E942014BE016F5F7F4F90
:105270008CE090E00E94BD288DEE9EE00E944513D8
:1052800089819A810E942014BE016F5F7F4F8EE05A
:1052900090E00E94BD288BEF9EE00E94451389811B
:1052A0009A810E942014BE016F5F7F4F80E190E0E1
:1052B0000E94BD2887E09FE00E94451389819A8162
:1052C0000E942014BE016F5F7F4F82E190E00E9438
:1052D000BD288DE296E00E94451389819A810E9443
:1052E0002014BE016F5F7F4F84E190E00E94BD28D3
:1052F00085E19FE00E94451389819A810E942014D4
:10530000BE016F5F7F4F86E190E00E94BD2885ED72
:1053100095E00E94451389819A810E942014BE0164
:105320006F5F7F4F88E190E00E94BD2883E29FE09D
:105330000E94451389819A810E942014BE016F5FEB
:105340007F4F8AE190E00E94BD288CE197E00E94A7
:10535000451389819A810E942014BE016F5F7F4F9F
:105360008CE190E00E94BD2884E39FE00E944513F9
:1053700089819A810E942014BE016F5F7F4F8EE168
:1053800090E00E94BD288EEB96E00E944513898133
:105390009A810E942014BE016F5F7F4F80E290E0EF
:1053A0000E94BD288FE797E00E94451389819A816A
:1053B0000E94201483E49FE00E9497120F900F90A8
:1053C000DF91CF910895FF920F931F93CF93DF93B7
:1053D000EC018B01FB01F0800E94EA3FF81621F0FE
:1053E0006F2DCE010E94F23FF801F1802196CE018F
:1053F0000E94EA3FF81621F06F2DCE010E94F23F85
:10540000C801DF91CF911F910F91FF9008957F9276
:105410008F929F92AF92BF92CF92DF92EF92FF92C4
:105420000F931F93CF93DF931F921F92CDB7DEB7D9
:105430008C017B016A018AE69FE00E944513C80146
:105440000E94451384E89FE00E9497128DE898E13E
:105450000E94CA04892B59F46AE070E080E090E071
:105460000E948403F3CF8DE898E10E9444040E94D7
:105470009804FC0197FD68C08D32910519F0C09722
:105480000A9788F7812C912C5401712CE130F10599
:10549000D9F0ED32F10509F454C0CF01C0970A9755
:1054A00098F4AAE0B0E0A50194010E941F404F01CA
:1054B000FF0FAA08BB08860E971EA81EB91E80E320
:1054C000881A9108A108B1088DE898E10E94440467
:1054D0000E949804FC01C0970A97C0F2E130F105E0
:1054E000A9F2772041F0B094A09490948094811C0C
:1054F000911CA11CB11C9A828982F6019182808242
:10550000BE016F5F7F4FC7010E94E329C8010E945F
:10551000451386E89FE00E94451389819A810E9485
:1055200020140F900F90DF91CF911F910F91FF905A
:10553000EF90DF90CF90BF90AF909F908F907F9033
:10554000089577247394C0CF812C912C5401D3CF2C
:105550001F920F920FB60F9211242F933F938F93A8
:105560009F93AF93BF938091131890911418A091BB
:105570001518B09116183091121823E0230F2D370B
:1055800058F50196A11DB11D209312188093131890
:1055900090931418A0931518B093161880911718AB
:1055A00090911818A0911918B0911A180196A11D80
:1055B000B11D8093171890931818A0931918B093E1
:1055C0001A18BF91AF919F918F913F912F910F909A
:1055D0000FBE0F901F90189526E8230F0296A11D6D
:1055E000B11DD2CF1F920F920FB60F9211240BB69E
:1055F0000F922F933F934F935F936F937F938F936C
:105600009F93AF93BF93EF93FF938091E517909192
:10561000E617A091E717B091E817892B8A2B8B2BFF
:10562000E1F19091E417E091E217F091E3178081A6
:10563000892780838091E5179091E617A091E7175D
:10564000B091E817181619061A061B069CF48091EB
:10565000E5179091E617A091E717B091E817019729
:10566000A109B1098093E5179093E617A093E71776
:10567000B093E817FF91EF91BF91AF919F918F91F8
:105680007F916F915F914F913F912F910F900BBE42
:105690000F900FBE0F901F901895809100020E94EE
:1056A000C303E8CF1F920F920FB60F9211240BB6CF
:1056B0000F922F933F934F935F936F937F938F93AB
:1056C0009F93AF93BF93EF93FF938DE898E10E9470
:1056D000E004FF91EF91BF91AF919F918F917F91E6
:1056E0006F915F914F913F912F910F900BBE0F9053
:1056F0000FBE0F901F9018951F920F920FB60F922A
:1057000011240BB60F922F938F939F93EF93FF93D8
:10571000E0919D18F0919E188081E091A318F0917E
:10572000A41882FD1DC090818091A6188F5F8F7391
:105730002091A718821741F0E091A618F0E0E357F6
:10574000F74E958F8093A618FF91EF919F918F91BF
:105750002F910F900BBE0F900FBE0F901F901895BA
:105760008081F2CF1F920F920FB60F9211240BB6C9
:105770000F922F933F934F935F936F937F938F93EA
:105780009F93AF93BF93EF93FF938091B900887F6E
:10579000803609F44DC008F040C0883209F4A7C033
:1057A00028F5803109F49BC0C8F4882309F4F7C0B8
:1057B000883009F494C0FF91EF91BF91AF919F9110
:1057C0008F917F916F915F914F913F912F910F90AA
:1057D0000BBE0F900FBE0F901F901895883109F4E3
:1057E00086C0803241F78093611814C0803409F478
:1057F0009BC040F48033B9F38833E9F68093611895
:1058000085ECAEC0803509F483C0883509F494C0B6
:10581000883489F60E948528CECF883909F48AC059
:1058200038F5883729F050F4883611F0803719F6AA
:1058300083E0809363181092E11755C0883809F40B
:1058400079C0803919F0803809F0B5CF8091E1171F
:10585000803208F06FC0E091E11781E08E0F8093F5
:10586000E1178091BB00F0E0EF53F84E80833BC01E
:10587000803B39F0D0F4803A09F477C0883A09F0D7
:105880009ACF84E0809363181092C0171092BF17CC
:10589000F0E0E0E019958091BF1781110FC081E021
:1058A0008093BF1710929F1709C0803C09F4A8CFBE
:1058B000883C09F4A5CF883B09F07DCFE091C01763
:1058C00081E08E0F8093C017F0E0E156F84E8081A2
:1058D0008093BB009091C0178091BF1729C0809121
:1058E0003E188093BB0085EC8093BC0064CF909100
:1058F000601880915F18981758F5E091601881E062
:105900008E0F80936018F0E0E15CF74E8081E9CF64
:10591000E091601881E08E0F809360188091BB0049
:10592000F0E0E15CF74E80839091601880915F1801
:105930009817C8F285E8D8CFE091601881E08E0F03
:10594000809360188091BB00F0E0E15CF74E8083AB
:105950008091621881115ECF81E080933D1884EAC6
:105960008093BC001092631826CF85EC8093BC0016
:10597000109263188091E117803230F4E091E117C2
:10598000F0E0EF53F84E10826091E11770E081EC87
:1059900097E1F0E0E0E019951092E1170CCF10923A
:1059A000611838CF1F920F920FB60F9211240BB6C9
:1059B0000F922F933F934F935F936F937F938F93A8
:1059C0009F93AF93BF93EF93FF9348E251E064E25C
:1059D00071E090E080E00E94AC0BFF91EF91BF91ED
:1059E000AF919F918F917F916F915F914F913F9177
:1059F0002F910F900BBE0F900FBE0F901F90189518
:105A00001F920F920FB60F9211240BB60F922F9385
:105A10003F934F935F936F937F938F939F93AF9336
:105A2000BF93EF93FF9348EA50E064EA70E083E0AD
:105A300090E00E94AC0BFF91EF91BF91AF919F91CD
:105A40008F917F916F915F914F913F912F910F9027
:105A50000BBE0F900FBE0F901F9018951F920F92C4
:105A60000FB60F9211240BB60F922F933F934F93C3
:105A70005F936F937F938F939F93AF93BF93EF93B6
:105A8000FF9348E950E064E970E082E090E00E9412
:105A9000AC0BFF91EF91BF91AF919F918F917F914F
:105AA0006F915F914F913F912F910F900BBE0F908F
:105AB0000FBE0F901F9018951F920F920FB60F9266
:105AC00011240BB60F922F933F934F935F936F93D5
:105AD0007F938F939F93AF93BF93EF93FF9348E888
