:020000040000FA
:100000000C94B1010C94E2010C94E2010C94E20115
:100010000C94E2010C94E2010C94E2010C94E201D4
:100020000C94E2010C94E2010C94E2010C94E201C4
:100030000C94E2010C94A71B0C94E2010C94E201D5
:100040000C94E2010C94151E0C94E2010C94E20154
:100050000C94E2010C94E2010C94E2010C945D1BFF
:100060000C94E2010C94311C0C94071C0C94E201DA
:100070000C94E2010C94E2010C94E2010C94E20174
:100080000C94E71D0C94E2010C94E2010C94E20143
:100090000C94E2010C94E2010C94E2010C94671CB4
:1000A0000C94E2010C94E2010C94B91D0C94E20151
:1000B0000C94E2010C94E2010C94E2010C948B1D6F
:1000C0000C94E2010C94E2010C94E2010C94E20124
:1000D0000C94E2010C94E2010C94E2010C94E20114
:1000E0000C94E201084AD73B3BCE016E84BCBFFDB5
:1000F000C12F3D6C74319ABD56833DDA3D00C77FF8
:1001000011BED9E4BB4C3E916BAAAABE0000008090
:100110003F000C94A2230C94D5290C943C2C0C94F5
:10012000E2290C9425290C94962A0C946F230C94A4
:1001300068230C9472020C94AA060C946E020C9420
:10014000AB290C9437040C94BE290C9489020C94AE
:100150007C020C94062C0C9461030C94431E0C94AA
:100160005E020C94AE2B0C9480020C9411290C941A
:10017000A1280C9484020C9474280C9472230C947F
:1001800064020C94D3060C944F020C942F070C9429
:1001900049020C9488280C945B020C946F040C9414
:1001A00021270C9429040C94B9060C94A7030C94F1
:1001B000562B0C948A020C94AC230C9457020C948A
:1001C00053020C9400070C9480230C9476020C9438
:1001D000D7040C94D4030C948E230C94932A0C947F
:1001E000A9060C9468020C94F62A0C948E020C94C6
:1001F000E3030C9460030C9498230C94CC060C94A9
:10020000E3230243616C63756C6174696E67206FF0
:100210006666736574732C20646F206E6F74206D36
:100220006F7665204D505536303530004D5055367F
:10023000303530207374617475733A200000000A01
:100240000B02090C0D0E080703040100000000005A
:10025000000000000000000000000000000000009E
:10026000000000000000000000121110000000005B
:10027000000000000000000000000000000000007E
:10028000000000000020002300260029002C002F81
:1002900000320000010000030106010901000021F5
:1002A00000240027002A002D003000330001010047
:1002B00000040107010A0100002200250028002B8C
:1002C000002E003100340002010000050108010B7E
:1002D0000101021020200808102040102040800258
:1002E000010201080402010102040810204080807C
:1002F0004020100804020180040201804020100800
:1003000004020108040201010204081020408001D7
:1003100002040810204080050505050705080808A7
:1003200008020202020A0A08080404040401010186
:10033000010101010103030303030303030407078E
:10034000070C0C0C0C0C0C0C0C020202020606062C
:1003500006060606060B0B0B0B0B0B0B0B00431EC6
:100360003C2C11241FBECFEFD1E2DEBFCDBF00E099
:100370000CBF1BE0A0E0B2E0EAE6F5E600E00BBF50
:1003800002C007900D92A43EB107D9F72FE0A4EE6A
:10039000BBE001C01D92A034B207E1F711E0C0EB51
:1003A000D1E000E006C021970109802FFE010E94E4
:1003B0006830CF3AD10780E00807A9F70E94001FF4
:1003C0000C94A3320C940000CF92DF92EF92FF9234
:1003D0000F931F93CF93DF938B01EA01BC0190E051
:1003E00080E00E948E2C26ED39E346EA5EEB0E9407
:1003F000EF2C6B017C01B80190E080E00E948E2C14
:1004000027E038E04AEC5FE30E94EF2C9B01AC014F
:10041000C701B6010E942A2E6B017C01BE0190E04B
:1004200080E00E948E2C24E73EE54BE35FEB0E94C8
:10043000EF2C9B01AC01C701B6010E942A2E0E943D
:10044000812FCB01DF91CF911F910F91FF90EF9002
:10045000DF90CF9008958150823108F05AC0E82F84
:10046000F0E08827E95CFD4F8F4F0C94683057020D
:100470005B0249024F02530289025E026402680273
:100480006E02720276027C028002890284028A0273
:100490008E02809180008F778093800008958091F4
:1004A00080008F7DF9CF80918000877FF5CF84B564
:1004B0008F7784BD089584B58F7DFBCF8091B00088
:1004C0008F778093B00008958091B0008F7DF9CF31
:1004D000809190008F778093900008958091900094
:1004E0008F7DF9CF80919000877FF5CF8091A0001C
:1004F0008F778093A00008958091A0008F7DF9CF21
:100500008091A000877FF5CF809120018F77809325
:1005100020010895809120018F7DF9CF80912001E5
:10052000877FF5CF1F93CF93DF93282F30E0F9011A
:10053000E35CFD4F8491F901EF52FD4FD491F90135
:10054000E95EFC4FC491CC23A9F0162F81110E94C3
:100550002B02EC2FF0E0EE0FFF1FE954FD4FA591A9
:10056000B4918FB7F894EC91111108C0D095DE23A7
:10057000DC938FBFDF91CF911F910895DE2BF8CFD1
:10058000CF93DF9390E0FC01EF52FD4F2491895E01
:100590009C4FFC0184918823D1F090E0880F991F33
:1005A000FC01E356FD4FA591B491FC01E954FD4FC8
:1005B000C591D49161110EC09FB7F8948C91E22F30
:1005C000E0958E238C932881E223E8839FBFDF91FF
:1005D000CF9108958FB7F894EC91E22BEC938FBFF5
:1005E000F6CF8230910538F0880F991F880F991F38
:1005F00005970197F1F708953FB7F89480911C0D86
:1006000090911D0DA0911E0DB0911F0D26B5A89BB8
:1006100005C02F3F19F00196A11DB11D3FBFBA2F94
:10062000A92F982F8827BC01CD01620F711D811D54
:10063000911D42E0660F771F881F991F4A95D1F7D9
:1006400008958F929F92AF92BF92CF92DF92EF92D6
:10065000FF926B017C010E94FC024B015C01C11402
:10066000D104E104F104B9F00E94FC02681979098F
:100670008A099B09683E73408105910580F321E05A
:10068000C21AD108E108F10888EE880E83E0981EAE
:10069000A11CB11CE4CFFF90EF90DF90CF90BF90F2
:1006A000AF909F908F9008952FB7F8946091180D98
:1006B0007091190D80911A0D90911B0D2FBF089507
:1006C000089508959091000289130DC0E2E0F2E0D0
:1006D000E4919FEF90930002E230E1F038F4EE23D2
:1006E00081F0E13089F060E00C949202E43049F14D
:1006F00010F1E530C1F7909173009D7F90937300E6
:10070000F2CF10926E00EFCF90916F009D7F90938B
:100710006F00E9CF909170009D7F9093700091E001
:100720009093B0009091B100987F94609093B10045
:100730001092B300D8CF909171009D7F909371007B
:10074000D2CF909172009D7F90937200CCCFAF92E8
:10075000BF92CF92DF92EF92FF920F931F93CF93AE
:10076000DF936C017B018B01040F151FEB015E0110
:10077000AE18BF08C017D10759F06991D601ED91A5
:10078000FC910190F081E02DC6011995892B79F734
:10079000C501DF91CF911F910F91FF90EF90DF90F6
:1007A000CF90BF90AF900895FC01538D448D252FBD
:1007B00030E0842F90E0821B930B541710F0CF96FB
:1007C000089501970895FC01918D828D981761F02D
:1007D000A28DAE0FBF2FB11D5D968C91928D9F5F44
:1007E0009F73928F90E008958FEF9FEF08950F937E
:1007F0001F930E94540360939A0D70939B0D8093F6
:100800009C0D90939D0D82E99DE00E94E30397FF6C
:100810001DC00E94540300919A0D10919B0D2091D0
:100820009C0D30919D0D601B710B820B930B009101
:10083000960D1091970D2091980D3091990D60179C
:10084000710782079307F8F28FEF9FEF1F910F91C7
:100850000895FC01918D828D981731F0828DE80FFB
:10086000F11D858D90E008958FEF9FEF0895FC01B5
:10087000918D228D892F90E0805C9F4F821B910982
:100880008F739927089582E99DE00E94370421E043
:10089000892B09F420E0822F0895FC01A48DA80F74
:1008A000B92FB11DA35ABF4F2C91848D90E00196B2
:1008B0008F739927848FA689B7892C93A089B189D2
:1008C0008C91837080648C93938D848D981306C073
:1008D0000288F389E02D80818F7D80830895EF92D7
:1008E000FF920F931F93CF93DF93EC0181E0888FEA
:1008F0009B8D8C8D98131AC0E889F989808185FFBA
:1009000015C09FB7F894EE89FF896083E889F9895B
:1009100080818370806480839FBF81E090E0DF915D
:10092000CF911F910F91FF90EF900895F62E0B8DB0
:1009300010E00F5F1F4F0F731127E02E8C8D8E116B
:100940000CC00FB607FCFACFE889F989808185FFD2
:10095000F5CFCE010E944D04F1CFEB8DEC0FFD2FB2
:10096000F11DE35AFF4FF0829FB7F8940B8FEA898D
:10097000FB8980818062CFCF0F931F93CF93DF934A
:100980008C01D0E0C0E0F801EC0FFD1F64916623FC
:1009900041F082E99DE00E946F04892B11F02196BD
:1009A000F2CFCE01DF91CF911F910F910895CF9398
:1009B000DF93EC01888D8823B9F0AA89BB89E88987
:1009C000F9898C9185FD03C0808186FD0DC00FB62D
:1009D00007FCF7CF8C9185FFF2CF808185FFEDCFAB
:1009E000CE010E944D04E9CFDF91CF91089580E0C0
:1009F00090E0892B29F00E94430481110E9400009D
:100A000080E090E0892B49F080E090E0892B29F08C
:100A10000E94000081110E94000080E090E0892B7C
:100A200049F080E090E0892B29F00E9400008111BC
:100A30000E94000080E090E0892B49F080E090E087
:100A4000892B29F00E94000081110C940000089568
:100A50002091BD0C260F3327331F21323105ECF4D2
:100A60002091680DFC0190E080E0243069F082E084
:100A70000895A091BD0C2191AC014356534FA40F92
:100A8000B52FB11D2C930196861798F38091BD0C5C
:100A9000680F6093BD0C80E0089581E00895109286
:100AA000680D81E08093670D1092420D61E084E152
:100AB0000E94920261E085E10E949202E9EBF0E07F
:100AC00080818E7F808380818D7F808388E4809386
:100AD000B80085E48093BC000895CF93DF9391E044
:100AE00090939C0C8823B9F0C091B800D091BA00C3
:100AF0008091BC008A7B8093BC0060E084E10E940E
:100B0000920260E085E10E9492020E944F05D0931C
:100B1000BA00C093B800DF91CF9108958F929F9251
:100B2000AF92BF92CF92DF92EF92FF920F931F93FB
:100B3000CF93DF93D091910DD13208F0D7C0182F09
:100B4000C091900D0E94FC026B017C018091680DA8
:100B500081116BC082E08093680D1093670D8FEF59
:100B60008093660D1092650DD093640DA0E7BDE0F3
:100B7000E4E4FDE080E0D81391C01092430D809131
:100B8000430DCC0FC82BC093430D8091420D813093
:100B900009F088C01092420D0E94FC026B017C019A
:100BA0008091430D8093BB0080916A0D90916B0DF5
:100BB000A0916C0DB0916D0D892B8A2B8B2BA1F020
:100BC0000E94FC0200916A0D10916B0D20916C0D3A
:100BD00030916D0D6C197D098E099F090617170755
:100BE0002807390708F442C08091BC0083FDD8CFA4
:100BF00085EC8093BC000E94FC026B017C0180911B
:100C0000680D823009F450C08091660D8F3F09F461
:100C10006FC08091660D803209F46CC08091660DC2
:100C2000803309F469C084E026C080916A0D9091F8
:100C30006B0DA0916C0DB0916D0D892B8A2B8B2BB8
:100C400009F484CF0E94FC0280906A0D90906B0D95
:100C5000A0906C0DB0906D0D6C197D098E099F09E7
:100C600086169706A806B90608F070CF8091690D20
:100C70000E946D0585E010926F0D1092910D1092FB
:100C80006E0DDF91CF911F910F91FF90EF90DF904C
:100C9000CF90BF90AF909F908F9008959D9191932A
:100CA0008F5F69CF85EEA5CF80916A0D90916B0D16
:100CB000A0916C0DB0916D0D892B8A2B8B2B09F4B3
:100CC0009ECF0E94FC0200916A0D10916B0D209145
:100CD0006C0D30916D0D6C197D098E099F090617F9
:100CE00017072807390708F08ACFC0CF81E0C3CFA4
:100CF00080E0C1CF82E0BFCF83E0BDCF1F93CF9311
:100D0000DF93162FCBE3DEE0A981BA819B8121E03E
:100D100020936E0D9093900D10926F0D1092910D87
:100D2000ED91FC9111970190F081E02D682FCD019C
:100D3000199589819A81DC01ED91FC910190F081F6
:100D4000E02D612F199581E0DF91CF911F910C94D7
:100D50008E050895E091210D8091200DE81730F463
:100D6000F0E0EE5DF24F808190E008958FEF9FEF0D
:100D700008959091210D8091200D2FEF3FEF98174E
:100D800048F4E92FF0E0EE5DF24F208130E09F5F04
:100D90009093210DC90108958091200D9091210D0E
:100DA000891B990B0895CF92DF92EF92FF920F93D8
:100DB0001F93CF93DF937C01CB018A0120916E0DAD
:100DC000222389F0EB016B01C40ED51ECC15DD0585
:100DD00069F06991D701ED91FC910190F081E02DCE
:100DE000C7011995F3CF642F0E942805C801DF9130
:100DF000CF911F910F91FF90EF90DF90CF900895CA
:100E0000CF93DF931F92CDB7DEB7698320916E0D2C
:100E10002223F9F02091910D203258F021E030E0AA
:100E2000FC013383228390E080E00F90DF91CF912B
:100E3000089580916F0DE82FF0E0E059F24F99810D
:100E400090838F5F80936F0D8093910D81E090E090
:100E5000ECCF61E0CE0101960E942805F7CF90E02B
:100E600080E00895CF92DF92EF92FF920F931F934D
:100E7000CF93DF93EC01EE81FF8190818B81809590
:100E800089238083EA85FB8580819B81892B8083F0
:100E9000EC81FD8190818A81809589238083E8851A
:100EA000F98580819A81892B808389899A89009725
:100EB00011F00E94F102EA85FB8590818B8180957B
:100EC000892380838B89882331F0EE81FF818081A3
:100ED0009B81892B80838C898823C9F00E945403CD
:100EE0006B017C01EE85FF8580819B81892379F4EC
:100EF0000E9454036C197D098E099F090D891E8972
:100F00002F89388D601771078207930758F38989F5
:100F10009A89009711F00E94F102E885F985908185
:100F20008A818095892380838B89882331F0EC81A5
:100F3000FD8180819A81892B808389899A89009794
:100F400051F0DF91CF911F910F91FF90EF90DF90C3
:100F5000CF900C94F102DF91CF911F910F91FF90F0
:100F6000EF90DF90CF900895CF93DF93EC01E88569
:100F7000F98590818A818095892380838B89882354
:100F800031F0EC81FD8180819A81892B8083EA8513
:100F9000FB8590818B818095892380838B89882331
:100FA00031F0EE81FF8180819B81892B808389894B
:100FB0009A89009711F00E94F102EC85FD859081DD
:100FC0008A819823EE85FF8520813B81232311F4BC
:100FD00080E028C09923E1F3EC81FD819081809528
:100FE00089238083E885F98580819A81892B808394
:100FF00089899A89009711F00E94F102EE81FF81A0
:1010000090818B81809589238083EA85FB8580810F
:101010009B81892B808389899A89009711F00E948E
:10102000F10281E0DF91CF910895CF92DF92EF92AC
:10103000FF920F931F93CF93DF93EC01E885F9851F
:1010400090818A818095892380838B89882331F0E0
:10105000EC81FD8180819A81892B8083EA85FB85E3
:1010600090818B818095892380838B89882331F0BF
:10107000EE81FF8180819B81892B80838C898823ED
:10108000C9F00E9454036B017C01EE85FF858081CD
:101090009B81892379F40E9454036C197D098E0980
:1010A0009F090D891E892F89388D60177107820766
:1010B000930758F389899A89009711F00E94F102E9
:1010C000EC85FD8580819A81892311E009F410E087
:1010D000EE81FF8190818B81809589238083EA85D1
:1010E000FB8580819B81892B808389899A890097E0
:1010F00011F00E94F102812FDF91CF911F910F918A
:10110000FF90EF90DF90CF900895CF92DF92EF9213
:10111000FF920F931F93CF93DF93EC018A81809509
:1011200061115EC0EC81FD81908189238083E88517
:10113000F98580819A81892B808389899A89009792
:1011400011F00E94F102EA85FB8590818B818095E8
:10115000892380838B89882331F0EE81FF81808110
:101160009B81892B80838C898823C9F00E9454033A
:101170006B017C01EE85FF8580819B81892379F459
:101180000E9454036C197D098E099F090D891E89DF
:101190002F89388D601771078207930758F3898963
:1011A0009A89009711F00E94F102EE81FF819081EF
:1011B0008B81809589238083EA85FB8580819B8153
:1011C000892B808389899A890097B1F0DF91CF912B
:1011D0001F910F91FF90EF90DF90CF900C94F10250
:1011E000E885F9859081892380838B89882309F498
:1011F000A4CFEC81FD819DCFDF91CF911F910F9105
:10120000FF90EF90DF90CF9008950F931F93CF93AF
:10121000DF938C01D62FC8E06D2F6078C8010E9443
:101220008508DD0FC150C1F7C801DF91CF911F9133
:101230000F910C941508CF93DF93FC0120892111A5
:1012400006C0EC010E940509811106C0188A81E0E0
:1012500090E0DF91CF91089582E0888BF8CF1F93C3
:10126000CF93DF93EC01162F188A0E94B4078823CE
:1012700079F0612F660FCE010E940509811105C02A
:10128000188ADF91CF911F91089582E0888BF9CF62
:1012900084E0FCCFFC019389138AA085B1852C9151
:1012A0008281809582238C938389882331F0A48165
:1012B000B5818C912281822B8C93A285B3852C9150
:1012C0008381809582238C938389882331F0A68142
:1012D000B7818C912381822B8C93938B08950F93EC
:1012E0001F93CF93DF93CDB7DEB7EB970FB6F8948C
:1012F000DEBF0FBECDBFDC011C928BEE90E01496DA
:101300009C938E93139781E090E012969C938E931A
:10131000119715966C93159716964C9316976983AB
:101320004A838C8B8D8B82E090E09B8B8A8B08EEBE
:1013300013E020E030E00E8B1F8B288F398F70E098
:10134000FB01E95EFC4F24916F527D4FFB016491DC
:101350006B8330E0220F331FF901E954FD4F859173
:1013600094919E838D83F901E356FD4F859194916D
:101370009A878987F901ED57FD4F859194919E8752
:101380008D8750E0FA01E95EFC4F24914F525D4F8A
:10139000FA0144914C8330E0220F331FF901E954E4
:1013A000FD4F8591949198878F83F901E356FD4F06
:1013B000859194919C878B87F901ED57FD4F85911D
:1013C0009491988B8F878BE3FE013196179601904D
:1013D0000D928A95E1F7CE0101960E944A09EB969B
:1013E0000FB6F894DEBF0FBECDBFDF91CF911F9136
:1013F0000F910895CF92DF92EF92FF92CF93DF93F8
:10140000EC01603282E07807CCF5653B710514F0A1
:1014100064EB70E0898128E830E0281B310987FD02
:101420003395220F331F220F331F6901330FEE084C
:10143000FF088A8128E532E0281B310987FD3395B2
:10144000220F331F220F331F032E000C440B550BAA
:101450002C193D094E095F09DB0177FF02C0B0E09E
:10146000A0E00E94F02D24EB30E040E050E00E942C
:10147000C62DC20ED31EE41EF51EB601E881E03370
:1014800070F5298188E890E0821B910927FD9395EA
:10149000880F991F880F991F681779077CF02A8198
:1014A00088E592E0821B910927FD9395880F991F8B
:1014B000880F991F681779070CF4CB010297880FE2
:1014C000991F4FB7F8942E2F30E0F901EE0FFF1F50
:1014D000E20FF31FE45FF34F928381834FBFDF91ED
:1014E000CF91FF90EF90DF90CF9008951F93CF930F
:1014F000DF93EC01162F8881803308F04EC061E045
:10150000812F0E94C0028881282F30E0F901EE0F60
:10151000FF1FE20FF31FE45FF34F1F736081607CD6
:10152000612B608319821A822CE0622F0E9448305E
:10153000829FB001112430E020E0AB01420F531F25
:10154000FA01EE0FFF1FE40FF51FE45FF34F9081E8
:1015500096FD16C02F5F3F4F2C30310571F781305B
:1015600009F51092800082E080938100109285003E
:1015700010928400B19A80916F00826080936F0016
:10158000E8818E2F90E0FC01EE0FFF1FE80FF91F9E
:10159000E45FF34F8081806480838881DF91CF9105
:1015A0001F910895823061F4109290008093910011
:1015B000109295001092940088BB80937100E0CF48
:1015C000833069F41092A00082E08093A100109211
:1015D000A5001092A40089BB80937200D1CF811125
:1015E000CFCF1092200182E080932101109225013B
:1015F000109224018ABB80937300C2CFFC019091AA
:101600000B0C903398F481E0890F80930B0C90833E
:10161000892F90E0FC01EE0FFF1FE80FF91FE45F38
:10162000F34F88EB9BE09283818308958FEF808353
:101630000895AF92BF92CF92DF92EF92FF920F93F5
:101640001F93CF93DF936B017A01EC01C95FD34FF6
:1016500028813CE0389F8001399F100D1124A09013
:101660000B0CB12C27FF1FC0FB0111821082888157
:101670008F5F888388819801280F311D87FD3A95F7
:10168000F6012A153B051CF488818C30C4F1808159
:101690009181049680349C4908F473C0F6018081DE
:1016A0009181049670C088819801280F311D87FDB3
:1016B0003A952A153B05DCF68881A801480F511D93
:1016C00087FD5A95FA01EE0FFF1FE40FF51FE45F47
:1016D000F34F808186FFCBCF8881F801E80FF11DA1
:1016E00087FDFA95CF01EE0FFF1FE80FF91FE45FAA
:1016F000F34F808160E08F730E949202B8CF8081A7
:1017000091812881A801420F511D27FD5A959A0108
:10171000FA01EE0FFF1FE20FF31FE45FF34F218189
:101720003281820F931FF701918380838881980112
:10173000280F311D87FD3A95F901EE0FFF1FE20FCB
:10174000F31FE45FF34F808186FF22C08881080F7A
:10175000111D87FD1A95F801EE0FFF1FE00FF11F15
:10176000E45FF34F808161E08F73DF91CF911F9130
:101770000F91FF90EF90DF90CF90BF90AF900C94BF
:10178000920280E49CE9F701918380838FEF888344
:10179000DF91CF911F910F91FF90EF90DF90CF904D
:1017A000BF90AF900895EF92FF920F931F93CF9346
:1017B000DF93C2E1D2E00DEF1BE02991399133278D
:1017C000F901E35CFD4F8491F901EF52FD4FE49084
:1017D000F901E95EFC4FF490FF2021F181110E9494
:1017E0002B02EF2DF0E0EE0FFF1FED57FD4FA591FF
:1017F000B491EC91EE2231E020E009F430E0832F47
:10180000922FF801819391938F01F2E0CC31DF07A1
:10181000A1F68DEF9BE0DF91CF911F910F91FF908B
:10182000EF90089590E080E0ECCF2F923F924F929E
:101830005F926F927F928F929F92AF92BF92CF9260
:10184000DF92EF92FF920F931F93CF93DF9300D01D
:1018500000D01F92CDB7DEB77D836C83312C212C55
:1018600088248A94982C54016C01990FEE08FF0883
:1018700007E313E02A01550F6608770880910002FC
:10188000803239F5E2E0F2E0F491FE83F7FD70C0BA
:1018900061E080E20E94C002FE81F11139C0C9827C
:1018A000DA82EB82FF8268E478EE81E090E02981C1
:1018B0003A814B815F810E94C62DBA01A901415036
:1018C0005109610971099E81992309F4CEC194E0FF
:1018D0003DC08F3F09F04CC080E280930002E2E0FF
:1018E000F2E0F491FE838F2FFF3F09F441C0F23004
:1018F00009F4C8C008F069C0FF2309F48DC0F130B5
:1019000009F4A2C087FD34C061E080E20E94C002F9
:101910008E81823009F016C1C982DA82EB82FF82A1
:1019200060E970ED83E090E0A70196010E94C62D6A
:10193000BA01A901415051096109710993E04F3F72
:1019400051056105710511F00CF0ADCF8091B1002A
:10195000887F892B8093B100EE81E23009F475C154
:101960000CF06BC1EE2309F484C1E13009F401C12C
:10197000C301B2010E94210380E20E946203C301FD
:10198000B2010E9421038FEF281A380AEC81FD81F1
:10199000E215F30509F072CF27960FB6F894DEBF73
:1019A0000FBECDBFDF91CF911F910F91FF90EF90B0
:1019B000DF90CF90BF90AF909F908F907F906F906F
:1019C0005F904F903F902F9008959E81943009F43E
:1019D0009BC008F479C0953009F094CF1092200193
:1019E00010922101809121018860809321018091D2
:1019F0002101816080932101F8018491E82FF0E0BA
:101A0000EE0FFF1FE954FD4F85919491E1EFF2E055
:101A100084918093E40B3CCF14BC15BC84B58260E8
:101A200084BD85B5816085BDF8018491E82FF0E023
:101A3000EE0FFF1FE954FD4F85919491E1EFF2E025
:101A400084918093E80B24CF109280001092810043
:101A50008091810088608093810080918100816005
:101A600080938100F8018491E82FF0E0EE0FFF1FD2
:101A7000E954FD4F85919491E1EFF2E084918093D8
:101A8000E70B06CF1092B0001092B1008091B00029
:101A900082608093B0008091B10081608093B1003A
:101AA000F8018491E82FF0E0EE0FFF1FE954FD4F9D
:101AB000859194919093E10C8093E00CE1EFF2E03A
:101AC00084918093E20CE4CE1092900010929100E9
:101AD0008091910088608093910080919100816055
:101AE00080939100F8018491E82FF0E0EE0FFF1F42
:101AF000E954FD4F85919491E1EFF2E08491809358
:101B0000E60BF3E0FE83C4CE1092A0001092A10079
:101B10008091A10088608093A1008091A1008160E4
:101B20008093A100F8018491E82FF0E0EE0FFF1FF1
:101B3000E954FD4F85919491E1EFF2E08491809317
:101B4000E50BA6CE60E072E18AE790E0A70196017E
:101B50000E94C62DBA01A9014150510961097109BC
:101B6000EE81E130C1F480918100887F81608093B3
:101B7000810050938900409388008092F50B9092E9
:101B8000F60BA092F70BB092F80B80916F00826079
:101B900080936F00EDCEFE81F330C1F4809191000F
:101BA000887F8160809391005093990040939800C2
:101BB0008092F10B9092F20BA092F30BB092F40B87
:101BC00080917100826080937100D2CE8E818430CA
:101BD000C1F48091A100887F81608093A10050931F
:101BE000A9004093A8008092ED0B9092EE0BA0927A
:101BF000EF0BB092F00B80917200826080937200C4
:101C0000B7CE9E81953009F0A7CE80912101887FC3
:101C10008160809321015093290140932801809293
:101C2000E90B9092EA0BA092EB0BB092EC0B809137
:101C300073008260809373009BCEFE81F43079F252
:101C40000CF4B2CFF53039F393CE4093B3008092C9
:101C5000E30C9092E40CA092E50CB092E60C80911B
:101C6000700082608093700083CE85B5887F83602A
:101C700085BD47BD8092F90B9092FA0BA092FB0BA9
:101C8000B092FC0B80916E00826080936E0070CEEB
:101C90007F928F929F92AF92BF92CF92DF92EF92FC
:101CA000FF920F931F93CF93DF93EC01062F142F16
:101CB000188A19AE1AAE0E94B407882309F457C0D7
:101CC000602F660F6160CE010E94050981114BC033
:101CD000188A7E01A12EB12CD12CC12C450181E0A6
:101CE000881A9108CA14DB0459F100E088E0782EC4
:101CF000C814D904DCF4000FCE010E941508082B8B
:101D00007A947110F8CF60E0CE010E94850889892D
:101D10009A89009711F00E94F102F701018FFFEFFD
:101D2000CF1ADF0A8FEFE81AF80ADCCF000FCE01D6
:101D30000E941508082B7A947110F8CF61E0E4CF67
:101D400019AFCE010E943207812FDF91CF911F91F1
:101D50000F91FF90EF90DF90CF90BF90AF909F904A
:101D60008F907F90089582E0888B10E0EACF84E026
:101D7000FBCF4F925F926F927F928F929F92AF9222
:101D8000BF92CF92DF92EF92FF920F931F93CF9368
:101D9000DF93CDB7DEB72E970FB6F894DEBF0FBE38
:101DA000CDBF80913C0E90913D0E20913E0E31E0D2
:101DB00030936E0D2093900D10926F0D1092910D37
:101DC000DC01ED91FC910190F081E02D6BE3199520
:101DD00080E00E948E0510913E0E0E94FC024B0195
:101DE0005C018091680D811166C081E08093680D6F
:101DF0008093670D9FEF9093660D1092650D9DE0A7
:101E00009093640D8093430D8091430D110F182B17
:101E10001093430D8091420D813009F0A9C11092B9
:101E2000420D0E94FC024B015C018091430D8093A6
:101E3000BB0080916A0D90916B0DA0916C0DB091DB
:101E40006D0D892B8A2B8B2BA1F00E94FC02009137
:101E50006A0D10916B0D20916C0D30916D0D68190C
:101E600079098A099B09061717072807390708F413
:101E700043C08091BC0083FDD8CF85EC8093BC002B
:101E80000E94FC024B015C018091680D813009F4D5
:101E900071C18091650D8E3008F08EC18091650D05
:101EA000A4E4BDE0E2E2FDE090E0981751F12D914D
:101EB00021939F5FFACF80916A0D90916B0DA09155
:101EC0006C0DB0916D0D892B8A2B8B2B09F489CF6A
:101ED0000E94FC0240906A0D50906B0D60906C0D5A
:101EE00070906D0D681979098A099B094616570685
:101EF0006806790608F075CF8091690D0E946D051E
:101F000080E01092210D8093200D8E010F5F1F4FF6
:101F10006E01BFE0CB0ED11C80913C0E90913D0E26
:101F2000DC01ED91FC910284F385E02D1995B82E2A
:101F300080913C0E90913D0EDC01ED91FC9102846C
:101F4000F385E02D1995E12C8E299B29F8018193C9
:101F500091938F01CE16DF06F9F6C090430ED09014
:101F6000440EE090450EF090460E69817A81072E6E
:101F7000000C880B990B0E94902CA70196010E94DF
:101F8000082F2091530E3091540E4091550E5091D0
:101F9000560E0E94292E6093630E7093640E8093F8
:101FA000650E9093660E6B817C81072E000C880B6A
:101FB000990B0E94902CA70196010E94082F209156
:101FC000570E3091580E4091590E50915A0E0E9462
:101FD000292E6093670E7093680E8093690E90931C
:101FE0006A0E80913B0E61E06827681B770B072E15
:101FF000000C880B990B0E94902C4B015C016D81A9
:102000007E81072E000C880B990B0E94902C9B015F
:10201000AC01C501B4010E94EF2CA70196010E94FA
:10202000082F20915B0E30915C0E40915D0E509117
:102030005E0E0E94292E60936B0E70936C0E80933F
:102040006D0E90936E0E6F817885072E000C880BB5
:10205000990B0E94902C20E030EF41E456E40E945E
:102060002A2E20E030E04AEA53E40E94082F6093D1
:102070005F0E7093600E8093610E9093620EC0901D
:102080003F0ED090400EE090410EF090420E6985D8
:102090007A85072E000C880B990B0E94902CA701C3
:1020A00096010E94082F2091470E3091480E4091D2
:1020B000490E50914A0E0E94292E60936F0E709324
:1020C000700E8093710E9093720E6B857C85072E37
:1020D000000C880B990B0E94902CA70196010E947E
:1020E000082F20914B0E30914C0E40914D0E509187
:1020F0004E0E0E94292E6093730E7093740E80937F
:10210000750E9093760E6D857E85072E000C880BDC
:10211000990B0E94902CA70196010E94082F2091F4
:102120004F0E3091500E4091510E5091520E0E9420
:10213000292E6093770E7093780E8093790E90938A
:102140007A0E2E960FB6F894DEBF0FBECDBFDF918C
:10215000CF911F910F91FF90EF90DF90CF90BF90A4
:10216000AF909F908F907F906F905F904F90089569
:1021700085EE84CE80916A0D90916B0DA0916C0DCF
:10218000B0916D0D892B8A2B8B2B09F47DCE0E948B
:10219000FC0200916A0D10916B0D20916C0D309135
:1021A0006D0D681979098A099B0906171707280711
:1021B000390708F069CEA0CE8EE072CEFF920F9361
:1021C0001F93CF93DF93EC01F62E8C01095F1F4F15
:1021D00069E2C8010E942F096F2D6068C8010E9442
:1021E0001B09C8010E94320742E069E2C8010E944F
:1021F000480EFE01E05CFF4F8081319690812FEF09
:102200003FEF981740F4DE01A90FB11D90962C9175
:1022100030E09F5F908390814FEF5FEF981728F435
:10222000C90FD11D48A19F5F908380E0942F822B1E
:10223000932BDF91CF911F910F91FF9008950F93F2
:102240001F93CF93DF93162F022FEC01279669E29D
:10225000CE010E942F09612F6068CE010E941B09E8
:10226000602FCE010E941B09CE01DF91CF911F91FB
:102270000F910C943207FC0101900020E9F731978F
:10228000AF01481B590BBC0182E99DE00C94A703E8
:1022900080E492E00C943B118F929F92AF92BF9298
:1022A0000F931F93CF93DF93CDB7DEB7A1970FB6F0
:1022B000F894DEBF0FBECDBF19A2423008F44AE049
:1022C0008E010F5D1F4F842E912CB12CA12CA501E6
:1022D00094010E94F82DE62FB901CA01EA30F4F406
:1022E000E05DD801EE938D01232B242B252B79F76C
:1022F00090E080E0109719F0CD010E943B11A1966B
:102300000FB6F894DEBF0FBECDBFDF91CF911F9106
:102310000F91BF90AF909F908F900895E95CE1CFAF
:10232000BC0190E080E04AE00C944C11CF93DF9325
:102330000E949011EC010E9448118C0F9D1FDF91AB
:10234000CF910895CF92DF92EF92FF92CF93DF93D8
:102350006C01990FEE08FF08F7FE19C06DE282E9E3
:102360009DE00E946F04EC0166277727CB016C1972
:102370007D098E099F094AE00E944C118C0F9D1F18
:10238000DF91CF91FF90EF90DF90CF9008954AE0DA
:10239000C701B601DF91CF91FF90EF90DF90CF9012
:1023A0000C944C11CF93DF930E94A211EC010E9478
:1023B00048118C0F9D1FDF91CF910895BF92CF924E
:1023C000DF92EF92FF920F931F93CF93DF93EC0175
:1023D0006C0187E0C80ED11C7E01E0E4EE0EF11C1A
:1023E000F70110828E010F5B1F4FF8011082E989FF
:1023F000FA8990818A858095892380838A8D8823B4
:1024000031F0ED85FE8580819A85892B8083888DCA
:10241000998D009711F00E94F102EF85F889908163
:1024200089858095892380838A8D882331F0EB8587
:10243000FC8580819985892B808384E0B82E888DE6
:10244000998D009711F00E94F102BA94B110F7CF64
:102450008A8D882331F062E070E080E090E00E9495
:10246000210369E2C6010E942F0962E9C6010E94A8
:102470001B09C6010E94320741E069E2C6010E94C1
:10248000480EF8012081F7018081281708F053C019
:10249000FE01E20FF11D80A12F5FF8012083182FAC
:1024A000682F70E090E080E040E10E944C110E94B3
:1024B000481180E01434A9F581E088830B811C81E8
:1024C000980150E040E061E0CE010E941F111C83A2
:1024D0000B8309811A818881811103C0CE010E947A
:1024E000DE11980150E040E06FE0CE010E941F1124
:1024F0001A83098321E030E040E050E060E0CE0143
:102500000E941F1163E070E080E090E00E942103D0
:1025100023E030E040E050E060E0CE010E941F1177
:1025200081E0DF91CF911F910F91FF90EF90DF90AD
:10253000CF90BF9008958FEF9FEFB1CFAF92BF9232
:10254000CF92DF92EF92FF920F931F93CF93DF937F
:10255000EC015B016A0179018881811103C0CE0120
:102560000E94DE1164E1CE010E94DE10F801918329
:10257000808366E1CE010E94DE10F50191838083A5
:1025800068E1CE010E94DE10F601918380836AE14A
:10259000CE010E94DE10F701918380838B819C81A4
:1025A000853D9105A1F180F40097D9F1803C91051A
:1025B00099F1DF91CF911F910F91FF90EF90DF90F4
:1025C000CF90BF90AF900895863F9105D9F08F3F8F
:1025D000910541F08B3E910561F762E370E080E088
:1025E00090E004C063E070E080E090E0DF91CF9184
:1025F0001F910F91FF90EF90DF90CF90BF90AF9021
:102600000C94210368E170E080E090E0EFCF65E694
:1026100070E080E090E0EACF6AE970E080E090E06E
:10262000E5CF6CEB72E080E090E0E0CFCF93DF93FA
:102630000E943B11EC010E9448118C0F9D1FDF91FD
:10264000CF91089583E492E00E94161380E692E011
:102650000E94161388E792E00E94161380E992E028
:102660000E94161388EA92E00E9416138EEB92E005
:102670000E94161384ED92E00E94161382EF92E0FE
:102680000E9416138FE093E00E94161385E293E0F8
:102690000E94161386E493E00C941613CF92DF92F7
:1026A000EF92FF920F931F93CF93DF9307EF1CE0FE
:1026B00029EF3CE04BEF5CE06DEF7CE088EE9EE0C4
:1026C0000E949E124091F90C5091FA0C6091FB0C03
:1026D0007091FC0C8091FD0C9091FE0C0E94E40125
:1026E0009093F60C8093F50C0DEE1CE02FEE3CE081
:1026F00041EF5CE063EF7CE086EA9EE00E949E1280
:10270000E090EF0CF090F00C0091F10C1091F20CB5
:10271000C091F30CD091F40CA701B801CE010E9436
:10272000E4019093EC0C8093EB0CE091F70CF091AA
:10273000F80C4091ED0C5091EE0C6091F50C7091FD
:10274000F60C2091FD0C3091FE0CA091FB0CB09189
:10275000FC0CA217B307B8F4C090F90CD090FA0C97
:10276000C216D30680F42A1B3B0B2932310558F0E0
:10277000E059F140EB3FF10530F4645671096333E1
:10278000710508F442C00C171D0758F420E0EC1640
:10279000FD0608F441C005C086EA93E02CC0211173
:1027A0004BC08BE893E00E9416132091F70C3091F8
:1027B000F80C8091ED0C9091EE0C4091EB0C509147
:1027C000EC0C6091F50C7091F60C6C5271406B3F03
:1027D000710510F74C5251404B3F5105E8F6285E09
:1027E00033402F353140C0F6885E93408F3591409D
:1027F00098F68CE993E0DF91CF911F910F91FF90B4
:10280000EF90DF90CF900C9416130C171D07A0F4D7
:10281000EC16FD0688F421E0C01BD10BA99708F443
:10282000BECF405951404B3F510508F0B8CF8456B8
:102830009109C39708F0B3CF83E693E00E94161383
:102840006AE570E083EA9EE00E94FA096AE570E0BA
:1028500080EA9EE00E94FA0987E793E0EFCF0C94AC
:102860003B110F931F9307EF1CE029EF3CE04BEF68
:102870005CE06DEF7CE088EE9EE00E949E1240914D
:10288000F90C5091FA0C6091FB0C7091FC0C80914A
:10289000FD0C9091FE0C0E94E4019093F60C809345
:1028A000F50C0DEE1CE02FEE3CE041EF5CE063EF39
:1028B0007CE086EA9EE00E949E124091EF0C5091CF
:1028C000F00C6091F10C7091F20C8091F30C9091EE
:1028D000F40C0E94E4019093EC0C8093EB0C85EBDC
:1028E00093E00E94161389EC93E00E942F148091CC
:1028F000F50C9091F60C0E9490118FEC93E00E94E1
:102900002F1485E599E00E942F148091FD0C909181
:10291000FE0C0E94901181ED93E00E942F148CE533
:1029200099E00E942F148091FB0C9091FC0C0E9466
:10293000901181ED93E00E942F1483E699E00E94AC
:102940002F148091F90C9091FA0C0E94901181ED56
:1029500093E00E942F148AE699E00E942F14809140
:10296000F70C9091F80C0E94901181ED93E00E9479
:102970002F1481ED93E00E94161383ED93E00E94E3
:10298000161389EC93E00E942F148091EB0C909128
:10299000EC0C0E9490118FEC93E00E942F1485E5BF
:1029A00099E00E942F148091F30C9091F40C0E94F6
:1029B000901181ED93E00E942F148CE599E00E9424
:1029C0002F148091F10C9091F20C0E94901181EDE6
:1029D00093E00E942F1483E699E00E942F148091C7
:1029E000EF0C9091F00C0E94901181ED93E00E9409
:1029F0002F148AE699E00E942F148091ED0C90919B
:102A0000EE0C0E94901181ED93E00E942F1481ED55
:102A100093E00E94161388EE93E00E94161382E062
:102A200094E00E942F148091F10C9091F20C20916F
:102A3000F30C3091F40C821B930B0E9496118BE0E7
:102A400094E00E942F148091F10C9091F20C20914F
:102A5000EF0C3091F00C821B930B0E94961184E1D5
:102A600094E00E94161382E094E00E942F1480915B
:102A7000FB0C9091FC0C2091FD0C3091FE0C821B04
:102A8000930B0E9496118BE094E00E942F1480918A
:102A9000FB0C9091FC0C2091F90C3091FA0C821BEC
:102AA000930B0E94961164EF71E080E090E00E9429
:102AB00021031F910F9108954F925F926F927F9221
:102AC0008F929F92AF92BF92CF92DF92EF92FF923E
:102AD0000F931F93CF936B017C01742EAC019B016C
:102AE0000E942E30882399F08DE294E0CF911F91BF
:102AF0000F91FF90EF90DF90CF90BF90AF909F909D
:102B00008F907F906F905F904F900C943B11460197
:102B10005701E894B7F82FEF3FEF4FE75FE7C501A4
:102B2000B4010E942E3081110DC02FEF3FEF4FE70F
:102B30005FE7C501B4010E94892C18161CF481E3DB
:102B400094E0D4CF2FEF3FEF4FE75FE4C701B6012A
:102B50000E94D72F18161CF485E394E0C7CF2FEFFF
:102B60003FEF4FE75FECC701B6010E94892C87FD5C
:102B7000F3CF20E030E0A901C701B6010E94892C03
:102B800010E000E087FF0AC06DE282E99DE00E944C
:102B90006F048C01F7FAF094F7F8F094C0E060E06D
:102BA00070E080E09FE37C1641F020E030E040E2FE
:102BB00051E40E94082FCF5FF6CFA70196010E9433
:102BC0002A2E2B013C010E94812F4B015C014AE01F
:102BD0000E944C117C01E00EF11ECC23A9F1C5012D
:102BE000B4010E948E2C9B01AC01C301B2010E9472
:102BF000292E4B015C016EE282E99DE00E946F0488
:102C0000E80EF91EC15000F120E030E040E251E44E
:102C1000C501B4010E94EF2C2B013C010E94812FC1
:102C20004B01CB010E949011E80EF91EB40190E017
:102C300080E00E948E2C9B01AC01C301B2010E9476
:102C4000292E4B015C01DECFC701CF911F910F915F
:102C5000FF90EF90DF90CF90BF90AF909F908F90BC
:102C60007F906F905F904F9008954F925F926F9218
:102C70007F928F929F92AF92BF92CF92DF92EF920C
:102C8000FF920F931F93CF93DF93CDB7DEB72C97AF
:102C90000FB6F894DEBF0FBECDBF0E94B90EC09034
:102CA0006B0ED0906C0EE0906D0EF0906E0E21E0E9
:102CB00030E03A83298320E030E0A901C701B60162
:102CC0000E94D72F87FF02C01A82198201E010E00C
:102CD00020E030E0A901C701B6010E94892C87FDE0
:102CE00002C010E000E069817A81601B710B072E41
:102CF000000C880B990B0E94902C6D837E838F8330
:102D00009887A7019601C701B6010E94EF2C2B01FD
:102D10003C01C090630ED090640EE090650EF09080
:102D2000660EA7019601C701B6010E94EF2CA30110
:102D300092010E942A2E0E94EA2F9B01AC018090F2
:102D4000670E9090680EA090690EB0906A0E6D812B
:102D50007E818F8198850E94EF2C9B01AC01C5017B
:102D6000B4010E94A92E21EE3EE245E652E40E9403
:102D7000EF2C60937B0E70937C0E80937D0E90936E
:102D80007E0EA5019401C501B4010E94EF2CA301A0
:102D900092010E942A2E0E94EA2F9B01AC01C701DA
:102DA000B6010E94A92E905821EE3EE245E652E47B
:102DB0000E94EF2C60937F0E7093800E8093810EA3
:102DC0009093820E0E9454036B017C0180918F0EC0
:102DD0009091900EA091910EB091920EA701960144
:102DE000281B390B4A0B5B0BCA01B9010E948E2CC0
:102DF0002FE632E143E85AE30E94EF2C4B015C01DD
:102E0000C0928F0ED092900EE092910EF092920EA0
:102E10008091930E9091940EA091950EB091960E84
:102E200089839A83AB83BC8340907B0E50907C0E49
:102E300060907D0E70907E0E20916F0E3091700E1E
:102E40004091710E5091720EC501B4010E94EF2C99
:102E50002091830E3091840E4091850E5091860E04
:102E60000E942A2EA30192010E94292E6B017C014F
:102E700020E030E044E353E40E94D72F18163CF4DE
:102E800020E030E044EB53E4C701B601EDCF20E091
:102E900030E044E353ECC701B6010E94892C87FF60
:102EA0000BC020E030E044EB53E4C701B6010E94C0
:102EB0002A2E6B017C01EBCF29813A814B815C8109
:102EC00060E070E080E89FE30E94292E69877A879E
:102ED0008B879C87A7019601C301B2010E942A2E0D
:102EE00029813A814B815C810E94EF2C6B017C012E
:102EF00029853A854B855C85C301B2010E94EF2C80
:102F00009B01AC01C701B6010E942A2E6B017C0116
:102F100020E030E044E353E40E94D72F18164CF42D
:102F200020E030E044EB53E4C701B6010E94292EB3
:102F3000EDCF20E030E044E353ECC701B6010E943E
:102F4000892C87FF0BC020E030E044EB53E4C7013D
:102F5000B6010E942A2E6B017C01EBCFC092830E3A
:102F6000D092840EE092850EF092860E40907F0EF5
:102F70005090800E6090810E7090820E2091730EA2
:102F80003091740E4091750E5091760E6D817E8158
:102F90008F8198850E94EF2CA50194010E94EF2C4F
:102FA0002091870E3091880E4091890E50918A0EA3
:102FB0000E942A2EA30192010E94292E6B017C01FE
:102FC00020E030E044EB52E40E94D72F18163CF486
:102FD00020E030E044E353E4C701B601EDCF20E048
:102FE00030E044EB52ECC701B6010E94892C87FF08
:102FF0000BC020E030E044E353E4C701B6010E9477
:103000002A2E6B017C01EBCFA7019601C301B2010F
:103010000E942A2E29813A814B815C810E94EF2CEB
:103020006B017C01A301920169857A858B859C8562
:103030000E94EF2C9B01AC01C701B6010E942A2E11
:103040006B017C0120E030E044EB52E40E94D72F7A
:1030500018164CF420E030E044E353E4C701B60115
:103060000E94292EEDCF20E030E044EB52ECC70166
:10307000B6010E94892C87FF0BC020E030E044E3BA
:1030800053E4C701B6010E942A2E6B017C01EBCFED
:10309000C092870ED092880EE092890EF0928A0E2E
:1030A0002091770E3091780E4091790E50917A0EE2
:1030B000C501B4010E94EF2C20918B0E30918C0E33
:1030C00040918D0E50918E0E0E942A2E60938B0E91
:1030D00070938C0E80938D0E90938E0E2C960FB65F
:1030E000F894DEBF0FBECDBFDF91CF911F910F913E
:1030F000FF90EF90DF90CF90BF90AF909F908F9018
:103100007F906F905F904F9008950E943516609168
:103110008B0E70918C0E80918D0E90918E0E0E9470
:103120007A2FCB010895EF92FF920F931F93CF93C5
:10313000DF9389E394E00E94161368E770E083EA66
:103140009EE00E94FA096CE370E080EA9EE00E9433
:10315000FA090E94351666E970E080E090E00E946E
:1031600021036AE570E083EA9EE00E94FA096AE5BD
:1031700070E080EA9EE00E94FA0907EF1CE029EF68
:103180003CE04BEF5CE06DEF7CE088EE9EE00E945F
:103190009E124091F90C5091FA0C6091FB0C7091C9
:1031A000FC0C8091FD0C9091FE0C0E94E401909328
:1031B000F60C8093F50C0DEE1CE02FEE3CE041EF99
:1031C0005CE063EF7CE086EA9EE00E949E12E09065
:1031D000EF0CF090F00CC091F10CD091F20C00913A
:1031E000F30C1091F40CA701BE01C8010E94E40188
:1031F000FC019093EC0C8093EB0C4091F70C5091F8
:10320000F80C6091ED0C7091EE0C493E83E058078C
:103210002CF0693E83E078070CF033C12091FB0C61
:103220003091FC0C8091FD0C9091FE0C821793075D
:1032300088F5A091F90CB091FA0CA217B30750F5DC
:10324000281B390B8091010290910202821793078B
:1032500008F5809105029091060248175907D4F0AD
:103260008091030290910402841795079CF080914D
:10327000F50C9091F60C2091090230910A02821708
:10328000930744F021E0A0910702B0910802A8172B
:10329000B9070CF420E00C171D0748F5EC16FD06E5
:1032A00030F5C01BD10B80910102909102028C1766
:1032B0009D07E8F48091050290910602681779074E
:1032C000B4F08091030290910402861797077CF076
:1032D0008091090290910A02E817F90744F091E001
:1032E000A0910702B0910802AE17BF070CF490E05E
:1032F000461B570B57FF03C0519541955109443662
:1033000051050CF053C0222309F4DBC0992309F4C2
:1033100050C084E494E00E942F1488E594E00E9459
:103320002F148091100D9091110D0E94A21185EC27
:103330009BE00E942F140E9485180E94D21162E324
:1033400070E083EA9EE00E94FA0962E370E080EA9E
:103350009EE00E94FA0944E650E063E070E088EEE7
:1033600093E00E94150CC091100DD091110DC55A1B
:10337000D1090E9485188C179D070CF45EC00E942D
:10338000351689E694E00E942F140E9485180E9449
:10339000A21186E994E00E942F148091100D909163
:1033A000110D855A91090E94D211DDCF222309F413
:1033B00088C082EA94E00E94161368E770E083EA0E
:1033C0009EE00E94FA096CE370E080EA9EE00E94B1
:1033D000FA0960E070E0CB010E9421036CE370E029
:1033E00083EA9EE00E94FA096CE370E080EA9EE0C6
:1033F0000E94FA09C091100DD091110DCA55D10942
:103400000E948518C817D9070CF042C00E943516D3
:1034100084EB94E00E942F140E9485180E94A21150
:1034200086E994E00E942F148091100D9091110D67
:103430008A5591090E94D211DDCF60ED77E080E0DE
:1034400090E00E94210368E770E083EA9EE00E941A
:10345000FA096CE370E080EA9EE00E94FA0980912C
:10346000100D9091110D855A91099093110D809333
:10347000100D10920A0D10920B0D10920C0D10925F
:103480000D0DDF91CF911F910F91FF90EF90089557
:1034900068E770E083EA9EE00E94FA096CE370E05E
:1034A00080EA9EE00E94FA0960ED77E080E090E01B
:1034B0000E9421038091100D9091110D8A55910960
:1034C000D4CF9923F1F28AEE94E00E94161368E7B4
:1034D00070E083EA9EE00E94FA096CE370E080EA03
:1034E0009EE00E94FA0960E070E0CB010E94210397
:1034F0000E9485189093110D8093100D68E770E07D
:1035000083EA9EE00E94FA0968E770E080EA9EE0A4
:103510000E94FA09C091100DD091110DC65ADF4FCB
:103520000E9485188C179D07BCF40E9435168DEFFC
:1035300094E00E942F140E9485180E94A21186E92F
:1035400094E00E942F148091100D9091110D865AD5
:103550009F4F0E94D211DECF68E770E083EA9EE0C1
:103560000E94FA096CE370E080EA9EE00E94FA098A
:1035700060ED77E080E090E00E9421038091100DE3
:103580009091110D865A9F4F70CF0F931F93CF9339
:10359000DF93EC0188819981009759F02A813B8162
:1035A0002617370730F081E0DF91CF911F910F91FF
:1035B00008958B016F5F7F4F0E94A931009759F0EA
:1035C000998388831B830A832C813D81232B59F7A0
:1035D000FC011082E8CF80E0E7CF85ED8093BC004E
:1035E00080916A0D90916B0DA0916C0DB0916D0D55
:1035F0000796A11DB11D23E0B695A79597958795D0
:103600002A95D1F72091BC0024FD03C01092680DCB
:10361000089540916A0D50916B0D60916C0D709101
:103620006D0D452B462B472B69F30097A105B1057E
:1036300041F02AE22A95F1F700C00197A109B109EA
:10364000E1CF8091690D0C946D050F931F93CF937B
:10365000DF938C01EB010E94B02D8883C801019695
:103660000E94B02D8983CE01DF91CF911F910F91E0
:103670000895FF920F931F93CF93DF93EC018B017B
:10368000FB01F0800E94B02DF81621F06F2DCE01C5
:103690000E94B82DF801F1802196CE010E94B02D34
:1036A000F81621F06F2DCE010E94B82DC801DF91D0
:1036B000CF911F910F91FF9008951F920F920FB617
:1036C0000F9211242F933F938F939F93AF93BF93A8
:1036D0008091180D9091190DA0911A0DB0911B0DAC
:1036E0003091170D23E0230F2D3758F50196A11DBA
:1036F000B11D2093170D8093180D9093190DA09371
:103700001A0DB0931B0D80911C0D90911D0DA09171
:103710001E0DB0911F0D0196A11DB11D80931C0DB2
:1037200090931D0DA0931E0DB0931F0DBF91AF91EF
:103730009F918F913F912F910F900FBE0F901F90EF
:10374000189526E8230F0296A11DB11DD2CF1F9216
:103750000F920FB60F9211240BB60F922F933F9337
:103760004F935F936F937F938F939F93AF93BF9389
:10377000EF93FF938091E30C9091E40CA091E50C02
:10378000B091E60C892B8A2B8B2BE1F19091E20C06
:10379000E091E00CF091E10C808189278083809199
:1037A000E30C9091E40CA091E50CB091E60C181696
:1037B00019061A061B069CF48091E30C9091E40C08
:1037C000A091E50CB091E60C0197A109B109809395
:1037D000E30C9093E40CA093E50CB093E60CFF91FE
:1037E000EF91BF91AF919F918F917F916F915F9179
:1037F0004F913F912F910F900BBE0F900FBE0F90E6
:103800001F901895809100020E946203E8CF1F92DA
:103810000F920FB60F9211240BB60F922F933F9376
:103820004F935F936F937F938F939F93AF93BF93C8
:10383000EF93FF9382E99DE00E944D04FF91EF9189
:10384000BF91AF919F918F917F916F915F914F91B8
:103850003F912F910F900BBE0F900FBE0F901F90B6
:1038600018951F920F920FB60F9211240BB60F925C
:103870002F938F939F93EF93FF93E091A20DF0917D
:10388000A30D8081E091A80DF091A90D82FD1DC0CE
:1038900090818091AB0D8F5F8F732091AC0D82175B
:1038A00041F0E091AB0DF0E0EE56F24F958F809332
:1038B000AB0DFF91EF919F918F912F910F900BBEC8
:1038C0000F900FBE0F901F9018958081F2CF1F921E
:1038D0000F920FB60F9211240BB60F922F933F93B6
:1038E0004F935F936F937F938F939F93AF93BF9308
:1038F000EF93FF938091B900887F803609F44DC023
:1039000008F040C0883209F4A9C028F5803109F4D4
:103910009DC0C8F4882309F4FBC0883009F496C020
:10392000FF91EF91BF91AF919F918F917F916F9197
:103930005F914F913F912F910F900BBE0F900FBE53
:103940000F901F901895883109F488C0803241F794
:103950008093660D14C0803409F49DC040F4803318
:10396000B9F38833E9F68093660D85ECB0C08035F5
:1039700009F485C0883509F496C0883489F60E9418
:10398000ED1ACECF883909F48CC038F5883729F084
:1039900050F4883611F0803719F683E08093680D73
:1039A0001092DF0C57C0883809F47BC0803919F0B9
:1039B000803809F0B5CF8091DF0C803208F071C0FB
:1039C000E091DF0C81E08E0F8093DF0C8091BB00D3
:1039D000F0E0E154F34F80833DC0803B39F0E0F4E8
:1039E000803A09F479C0883A09F09ACF84E080934C
:1039F000680D1092BE0C1092BD0CE091E90CF09194
:103A0000EA0C19958091BD0C81110FC081E0809363
:103A1000BD0C10929D0C09C0803C09F4A6CF883CD7
:103A200009F4A3CF883B09F07BCFE091BE0C81E085
:103A30008E0F8093BE0CF0E0E356F34F80818093AD
:103A4000BB009091BE0C8091BD0C29C08091430DAC
:103A50008093BB0085EC8093BC0062CF9091650D94
:103A60008091640D981758F5E091650D81E08E0FF7
:103A70008093650DF0E0EC5BF24F8081E9CFE0913F
:103A8000650D81E08E0F8093650D8091BB00F0E0A5
:103A9000EC5BF24F80839091650D8091640D9817D7
:103AA000C8F285E8D8CFE091650D81E08E0F809354
:103AB000650D8091BB00F0E0EC5BF24F808380915C
:103AC000670D81115CCF81E08093420D84EA809381
:103AD000BC001092680D24CF85EC8093BC0010923E
:103AE000680D8091DF0C803230F4E091DF0CF0E063
:103AF000E154F34F10826091DF0C70E0E091E70C2D
:103B0000F091E80C8FEB9CE019951092DF0C08CF38
:103B10001092660D34CF1F920F920FB60F921124A0
:103B20000BB60F922F933F934F935F936F937F93B7
:103B30008F939F93AF93BF93EF93FF9348E251E02E
:103B400064E271E090E080E00E94190BFF91EF9138
:103B5000BF91AF919F918F917F916F915F914F91A5
:103B60003F912F910F900BBE0F900FBE0F901F90A3
:103B700018951F920F920FB60F9211240BB60F9249
:103B80002F933F934F935F936F937F938F939F9365
:103B9000AF93BF93EF93FF9348EA50E064EA70E07D
:103BA00083E090E00E94190BFF91EF91BF91AF91DC
:103BB0009F918F917F916F915F914F913F912F9145
:103BC0000F900BBE0F900FBE0F901F9018951F9275
:103BD0000F920FB60F9211240BB60F922F933F93B3
:103BE0004F935F936F937F938F939F93AF93BF9305
:103BF000EF93FF9348E950E064E970E082E090E0E1
:103C00000E94190BFF91EF91BF91AF919F918F91FE
:103C10007F916F915F914F913F912F910F900BBECC
:103C20000F900FBE0F901F9018951F920F920FB616
:103C30000F9211240BB60F922F933F934F935F93E4
:103C40006F937F938F939F93AF93BF93EF93FF9364
:103C500048E850E064E870E081E090E00E94190BD1
:103C6000FF91EF91BF91AF919F918F917F916F9154
:103C70005F914F913F912F910F900BBE0F900FBE10
:103C80000F901F901895CF92DF92EF92FF92CF93F3
:103C9000DF93E2E9FDE01382128288EE93E0A0E078
:103CA000B0E084839583A683B78320E232E031833A
:103CB000208325EC30E03587248724EC30E03787FB
:103CC000268720EC30E0318B208B21EC30E0338BE9
:103CD000228B22EC30E0358B248B26EC30E0378BC6
:103CE000268B118E128E138E148ECFE2DEE01B8295
:103CF0001A828C839D83AE83BF8382E392E0998393
:103D00008883E6E3FFE086E390E09183808398E395
:103D1000C92E94E0D92EE12CF12CC282D382E48208
:103D2000F58260E00E94C002E0E3FFE088E390E0FB
:103D300091838083C282D382E482F58260E00E9414
:103D4000C002EAE2FFE08AE390E091838083C282CE
:103D5000D382E482F58260E00E94C00245E064E024
:103D600088EE9EE00E946F0943E062E086EA9EE0F2
:103D70000E946F0983EA9EE00E94FE0A80EA9EE0AC
:103D80000E94FE0A8DE99EE00E94FE0A8AE99EE0FA
:103D90000E94FE0A87E99EE00E94FE0AEBE3FEE035
:103DA000108288E68383D283C18388E491EEAAE7F8
:103DB000BFE38093930E9093940EA093950EB093CF
:103DC000960E1486158616861786108A118A128A10
:103DD000138A148A158A168A178A108E118E128EEB
:103DE000138E148E158E168E178E10A211A212A28B
:103DF00013A2DF91CF91FF90EF90DF90CF900895C5
:103E0000CF93DF93CDB7DEB764970FB6F894DEBFDC
:103E10000FBECDBF789484B5826084BD84B58160C7
:103E200084BD85B5826085BD85B5816085BD809185
:103E30006E00816080936E001092810080918100FD
:103E400082608093810080918100816080938100F5
:103E5000809180008160809380008091B1008460B7
:103E60008093B1008091B00081608093B000809118
:103E70009100826080939100809191008160809395
:103E80009100809190008160809390008091A100CA
:103E900082608093A1008091A10081608093A10045
:103EA0008091A00081608093A000809121018260B8
:103EB0008093210180912101816080932101809173
:103EC000200181608093200180917A00846080933A
:103ED0007A0080917A00826080937A0080917A00E3
:103EE000816080937A0080917A00806880937A0064
:103EF0001092C100E091A20DF091A30D82E08083A9
:103F0000E0919E0DF0919F0D1082E091A00DF09137
:103F1000A10D80E180831092AA0DE091A60DF09191
:103F2000A70D86E08083E091A40DF091A50D80811E
:103F300080618083E091A40DF091A50D808188605F
:103F40008083E091A40DF091A50D8081806880832D
:103F5000E091A40DF091A50D80818F7D808310925A
:103F6000210D1092200D10926F0D1092910D0E9454
:103F70004F0580E693E09093EA0C8093E90C81E68C
:103F800093E09093E80C8093E70C8CE08093B8006A
:103F900061E08BE60E947E06182F60E089E10E94B6
:103FA0007E0660E08AE10E947E0680E090E0A3E861
:103FB000B2E480933F0E9093400EA093410EB093D5
:103FC000420E68E08BE10E947E0680E090E0A0E86F
:103FD000B6E48093430E9093440EA093450EB093A5
:103FE000460E60E08CE10E947E060E9435168091AC
:103FF0007B0E90917C0EA0917D0EB0917E0E8093F1
:10400000830E9093840EA093850EB093860E8091BC
:104010007F0E9091800EA091810EB091820E8093C0
:10402000870E9093880EA093890EB0938A0E0E94FB
:10403000540360938F0E7093900E8093910E909323
:10404000920E8CE292E00E94BC04612F70E090E03E
:1040500080E04AE00E944C110E9448111111FECFED
:1040600083E092E00E94BC040E94481168EE73E075
:1040700080E090E00E9421031092470E1092480EBB
:104080001092490E10924A0E10924B0E10924C0E46
:1040900010924D0E10924E0E10924F0E1092500E26
:1040A0001092510E1092520E1092530E1092540E06
:1040B0001092550E1092560E1092570E1092580EE6
:1040C0001092590E10925A0E10925B0E10925C0EC6
:1040D00010925D0E10925E0E04EF11E01D861E869A
:1040E0001F86188A19861A861B861C86198A1A8AC0
:1040F0001B8A1C8AC12CD12C76014601570126014E
:1041000037010E94B90E2091630E3091640E4091E8
:10411000650E5091660EC301B2010E942A2E2B013A
:104120003C012091670E3091680E4091690E5091CC
:104130006A0EC501B4010E942A2E4B015C0120E0E9
:1041400030E040E85FE360916B0E70916C0E8091FF
:104150006D0E90916E0E0E94292E9B01AC01C7013D
:10416000B6010E942A2E6B017C0120916F0E3091C6
:10417000700E4091710E5091720E69897A898B8907
:104180009C890E942A2E698B7A8B8B8B9C8B209129
:10419000730E3091740E4091750E5091760E6985B4
:1041A0007A858B859C850E942A2E69877A878B87E2
:1041B0009C872091770E3091780E4091790E509126
:1041C0007A0E6D857E858F8598890E942A2E6D874F
:1041D0007E878F87988B61E070E080E090E00E949E
:1041E00021030150110909F08CCF20E030E04AEFA3
:1041F00053E4C301B2010E94082F6093530E7093E1
:10420000540E8093550E9093560E20E030E04AEF06
:1042100053E4C501B4010E94082F6093570E7093B8
:10422000580E8093590E90935A0E20E030E04AEFDA
:1042300053E4C701B6010E94082F60935B0E709390
:104240005C0E80935D0E90935E0E20E030E04AEFAE
:1042500053E469897A898B899C890E94082F60932D
:10426000470E7093480E8093490E90934A0E20E0BB
:1042700030E04AEF53E469857A858B859C850E94FE
:10428000082F60934B0E70934C0E80934D0E9093BD
:104290004E0E20E030E04AEF53E46D857E858F8539
:1042A00098890E94082F60934F0E7093500E809350
:1042B000510E9093520E84E395E00E94161302E192
:1042C00012E08CE1E82E82E0F82EF80180810E5F8A
:1042D0001F4F60E00E94C002E016F106B1F761E0F6
:1042E00080E20E94C00266E070E083EA9EE00E94E5
:1042F000760A67E070E080EA9EE00E94760A6AE54E
:1043000070E083EA9EE00E94FA096AE570E080EAC4
:104310009EE00E94FA090E9435160E94311469E05D
:1043200072E090E080E00E94251B67E072E082E08E
:1043300090E00E94251B65E072E084E090E00E941E
:10434000251B63E072E086E090E00E94251B61E09F
:1043500072E088E090E00E94251B4DE750E063E0AA
:1043600070E08EEE92E00E94150C82E99DE00E94C2
:104370003704892B09F472C01A8219821C821B82AD
:104380001E821D8270E060E0CE0101960E94C51A77
:1043900029813A8181112EC02115310519F0C901F9
:1043A0000E9420311A8219821E821D821C821B8269
:1043B0000E94F7030D811E8197FD24C08A3091056C
:1043C00009F18F8318860F5F1F4FB801CE01019648
:1043D0000E94C51A882361F329813A818D819E81CB
:1043E000BE01695F7F4F820F931F0E949C321E8324
:1043F0000D83DECF1E821D8262E472E0C9010E943D
:104400009C32D6CF89809A808114910429F074015E
:104410000115110509F07DC08D819E81892BC1F0A8
:1044200089819A812091160D2111A9C06BE375E055
:104430000E949332892B09F001C5F1E0F093160D2B
:104440008DE395E00E9416130E9422131092010D35
:1044500089819A81009711F00E9420318091160D78
:10446000811120C60E9435160E94D30BDC01909367
:10447000150D8093140DED91FC911197EE0FFF1F18
:1044800012968D919C911397E80FF91FEE0FFF1F65
:1044900014968D919C911597E80FF91FEE0FFF1F51
:1044A00016968D919C911797E80FF91FEE0FFF1F3D
:1044B00018968D919C91E80FF91FE032F10510F0EC
:1044C0000C94062C8827E859FD4D8F4F0C946830CA
:1044D000AB29062C062C8828932AAE2B062CA12863
:1044E000062C062C062C062C062C062C062C962AAE
:1044F000062C062C062C7428562B062C062CBE29BE
:1045000088281129062C21272529D529F62AE229D0
:1045100075015701FFEFAF1ABF0AF7018081082E1E
:10452000000C990B0E94802C892B91F701501109E6
:10453000080D191DF8018081082E000C990B0E94AE
:10454000802C892B31F00E151F0518F00150110930
:10455000F1CF0F5F1F4FA8014E195F095E834D8396
:104560008E149F0420F4B701C4010E948A32E981AD
:10457000FA818D819E81E80FF91F10824DCF409006
:10458000010D442009F488C00097B1F00E94442C2A
:104590002091FF0C3091000D2430310509F456C0F4
:1045A0007CF42230310531F123303105E1F183EF24
:1045B00095E00E94161332C060E070E0CB01E8CFB6
:1045C0002530310509F455C02630310581F7709347
:1045D00002026093010261E072E088E090E00E94D4
:1045E000391B8FEC95E00E942F148091010290916D
:1045F000020212C070930A026093090269E072E03D
:1046000090E080E00E94391B8BE595E00E942F141A
:104610008091090290910A020E94D2111092010D1C
:104620000E94221315CF709308026093070267E07F
:1046300072E082E090E00E94391B89E795E00E94D9
:104640002F148091070290910802E6CF7093060222
:104650006093050265E072E084E090E00E94391BFF
:1046600087E995E00E942F1480910502909106023F
:10467000D3CF709304026093030263E072E086E09C
:1046800090E00E94391B83EB95E00E942F148091EB
:10469000030290910402C0CF0097B1F00E94442C15
:1046A0006930710508F07EC3FB018827E55AFC4D8F
:1046B0008F4F0C94683068236F23722380238E23DE
:1046C0009823A223AC23E32360E070E0CB01E8CF82
:1046D0001092160D89E096E00E941613B9CE0E9442
:1046E00031149ECF80E496E00E94161321E02093BF
:1046F000010D82E090E09093000D8093FF0CA8CE16
:1047000086E696E00E94161391E09093010DE3E097
:10471000F0E0F093000DE093FF0C9ACE8CE896E069
:104720000E941613F1E0F093010D84E090E0E3CFD6
:1047300080EB96E00E94161391E09093010DE5E066
:10474000F0E0E7CF84ED96E00E941613F1E0F093DD
:10475000010D86E090E0CFCF80E097E00E94161335
:104760008FE197E00E942F148091090290910A0234
:104770000E94D21186E698E00E942F1480910702D1
:10478000909108020E94D2118DE297E00E942F14AE
:1047900080910502909106020E94D21184E198E076
:1047A0000E942F1480910302909104020E94D21162
:1047B00080EC98E00E942F148091010290910202F7
:1047C0000E94D2112DCF89E397E00E94161307EFC4
:1047D0001CE029EF3CE04BEF5CE06DEF7CE088EE05
:1047E0009EE00E949E124091F90C5091FA0C60914B
:1047F000FB0C7091FC0C8091FD0C9091FE0C0E94C2
:10480000E4019093F60C8093F50C0DEE1CE02FEE76
:104810003CE041EF5CE063EF7CE086EA9EE00E94D2
:104820009E12C090EF0CD090F00C8090F10C909004
:10483000F20C6090F30C7090F40CA601B401C3016B
:104840000E94E4015C019093EC0C8093EB0CE090EF
:10485000F70CF090F80C0091ED0C1091EE0C2090FC
:10486000F50C3090F60C96E9291631040CF09FC235
:10487000E0E9EE16E1E0FE060CF099C2F6E9AF16AB
:10488000B1043CF486E597E0003921E012070CF40E
:104890009BC28091FB0C9091FC0C2091FD0C3091FF
:1048A000FE0C2817390770F54091F90C5091FA0C5D
:1048B0004817590738F5821B930B2091010230915C
:1048C000020228173907F0F4809105029091060240
:1048D000E816F906BCF080910302909104028E154F
:1048E0009F0584F08091090290910A0228163906EA
:1048F0004CF0552453948091070290910802821540
:1049000093050CF4512C6814790450F5C814D9049B
:1049100038F5861897088091010290910202881557
:104920009905F0F480910502909106020817190785
:10493000BCF080910302909104028017910784F0EB
:104940008091090290910A02A816B9064CF07724CA
:10495000739480910702909108028A159B050CF4CC
:10496000712C4701801A910A97FE03C0919481949B
:104970009108E4E68E1691041CF4672C511001C0D6
:10498000612C86E797E00E942F14852D90E00E940D
:10499000D21186E897E00E942F14872D90E00E94A4
:1049A000D21187E997E00E942F14862D90E00E9493
:1049B000D21185EA97E00E942F14C7010E94A2112C
:1049C0008BEA97E00E942F14C8010E94D21184EB59
:1049D00097E00E942F148091F50C9091F60C0E94A4
:1049E00090118BEB97E00E942F148091EB0C90912B
:1049F000EC0C0E94961185EC97E00E942F14809198
:104A0000FD0C9091FE0C0E9490118AEC97E00E94A0
:104A10002F148091F30C9091F40C0E94961182ED6A
:104A200097E00E942F148091FB0C9091FC0C0E9447
:104A3000901187ED97E00E942F148091F10C9091D6
:104A4000F20C0E9496118FED97E00E942F14809136
:104A5000F90C9091FA0C0E94901184EE97E00E945C
:104A60002F148091EF0C9091F00C0E9496118CEE17
:104A700097E00E942F148091F70C9091F80C0E94FF
:104A8000901181EF97E00E942F148091ED0C90918E
:104A9000EE0C0E94961184EB97E00E942F148091F7
:104AA000F50C9091F60C0E9490118BEB97E00E9410
:104AB0002F148091EB0C9091EC0C0E94961189EFD1
:104AC00097E00E942F148091050290910602E8164B
:104AD000F90644F081E020910302309104022E1582
:104AE0003F050CF480E090E00E94D21180E298E053
:104AF0000E942F1480910502909106020817190751
:104B000044F081E020910302309104022017310724
:104B10000CF480E090E00E94D21187E498E00E94BB
:104B20002F148091090290910A022816390644F048
:104B300081E02091070230910802221533050CF420
:104B400080E090E00E94D21184E798E00E942F1448
:104B50008091090290910A02A816B90644F081E0FA
:104B600020910702309108022A153B050CF480E0E1
:104B700090E00E94D21181EA98E00E942F142091C7
:104B8000FB0C3091FC0C8091FD0C9091FE0C821777
:104B9000930740F481E04091F90C5091FA0C4217D0
:104BA000530708F080E090E00E94D21186EB98E075
:104BB0000E942F142091FB0C3091FC0C8091FD0C75
:104BC0009091FE0C281B390B81E090E0409101028E
:104BD000509102024217530710F090E080E00E94CB
:104BE000D21184ED98E00E942F142091F10C3091A5
:104BF000F20C8091F30C9091F40C8217930740F41F
:104C000081E04091EF0C5091F00C4217530708F0EF
:104C100080E090E00E94D21189EE98E00E942F146B
:104C20002091F10C3091F20C8091F30C9091F40CE6
:104C3000281B390B81E090E0409101025091020263
:104C40004217530710F090E080E00E94D21189EFE4
:104C500097E00E942F148091050290910602E816B9
:104C6000F90644F081E020910302309104022E15F0
:104C70003F050CF480E090E00E94D21180E298E0C1
:104C80000E942F14809105029091060208171907BF
:104C900044F081E020910302309104022017310793
:104CA0000CF480E090E00E94D21187E498E00E942A
:104CB0002F148091090290910A022816390644F0B7
:104CC00081E02091070230910802221533050CF48F
:104CD00080E090E00E94D21184E798E00E942F14B7
:104CE0008091090290910A02A816B90654F0442452
:104CF000439480910702909108028A159B050CF459
:104D0000412C842D90E00E94D21187E099E00E940E
:104D10002F1481E090E0F4E68F16910414F090E0F7
:104D200080E00E94D2118FE299E061104DC05520C1
:104D300009F44DC082EA94E00E94161389EC93E0D6
:104D40000E942F148091F50C9091F60C0E94901106
:104D500082E599E00E942F148091FD0C9091FE0C49
:104D60000E94901189E599E00E942F148091FB0C1C
:104D70009091FC0C0E94901180E699E00E942F1403
:104D80008091F90C9091FA0C0E94901187E699E0BD
:104D90000E942F148091F70C9091F80C0E949011B2
:104DA0000E9448118DE799E00E94161339CC89EED4
:104DB000E81683E0F8060CF46CCD093E93E0190781
:104DC0000CF467CD8EE699E00E941613EBCF7720A6
:104DD000C9F38AEE94E00E94161389EC93E00E94D6
:104DE0002F148091EB0C9091EC0C0E94901182E5B5
:104DF00099E00E942F148091F30C9091F40C0E9482
:104E0000901189E599E00E942F148091F10C909106
:104E1000F20C0E94901180E699E00E942F1480917C
:104E2000EF0C9091F00C0E94901187E699E00E949F
:104E30002F148091ED0C9091EE0CB0CF88EA99E0A0
:104E40004BCC0E9485189093130D8093120D2091E6
:104E5000100D3091110D8C01021B130B10930F0DCF
:104E600000930E0DB801012E000C880B990B0E94C7
:104E7000902C6B017C0120910A0D30910B0D40911B
:104E80000C0D50910D0D0E942A2E4B015C0120E06B
:104E900030E048EC52EC0E94892C87FD06C120E0EE
:104EA00030E048EC52E4C501B4010E94D72F181637
:104EB00034F4812C912C58ECA52E52E4B52E80921E
:104EC0000A0D90920B0DA0920C0DB0920D0D8091D9
:104ED000080D9091090DB801681B790B072E000C85
:104EE000880B990B0E94902C2B013C014092040DE1
:104EF0005092050D6092060D7092070D1093090DEA
:104F00000093080D20E030E040EC5FE3C701B601FC
:104F10000E94EF2C69877A878B879C872DEC3CEC6D
:104F20004CE45DE3C501B4010E94EF2C9B01AC0190
:104F300069857A858B859C850E942A2EA301920122
:104F40000E942A2E0E947A2F7B0177FF04C0EE2454
:104F5000FF24E61AF70A29E2E216F1041CF038E20F
:104F6000E32EF12CF092030DE092020D10161106C3
:104F70000CF0A2C068E770E06E197F0983EA9EE03A
:104F80000E94FA09C70163E070E00E945430645C3B
:104F90007F4F80EA9EE00E94FA0988ED99E00E9426
:104FA0002F148091120D9091130D0E94A21188E58B
:104FB00094E00E942F148091100D9091110D0E9489
:104FC000A21186EF99E00E942F148091020D90911A
:104FD000030D0E94A21182E09AE00E942F146091BA
:104FE0000E0D70910F0D072E000C880B990B0E946F
:104FF000902C20E030E040EC5FE30E94EF2C42E098
:105000000E945C1589E09AE00E942F142DEC3CEC84
:105010004CE45DE360910A0D70910B0D80910C0DD5
:1050200090910D0D0E94EF2C42E00E945C1580E1F2
:105030009AE00E942F146091040D7091050D8091EB
:10504000060D9091070D42E00E945C150E944811E8
:1050500080910B02882331F18091120D9091130DF4
:105060002091100D3091110D820F931F97FD019625
:10507000959587959093110D8093100D10920A0DC0
:1050800010920B0D10920C0D10920D0D87E19AE00D
:105090000E942F148091100D9091110D0E94D21139
:1050A00010920B020E94F70460C9812C912C48ECED
:1050B000A42E42ECB42E03CF012B69F0C7016DEF93
:1050C0007FEF0E94543068587F4F83EA9EE00E9431
:1050D000FA09B7015CCF68E770E083EA9EE00E94BE
:1050E000FA096CE370E055CF62E870E083EA9EE075
:1050F0000E94FA0967E370E080EA9EE00E94FA09E4
:1051000089E39AE00E94161381E080930B02CACFD4
:1051100080E59AE00E9416130E94931868E770E0F9
:1051200083EA9EE00E94FA096CE370E080EA9EE068
:105130000E94FA0964EF71E080E090E00E94210390
:10514000B1CF85E69AE00E9416130E94D30B90938C
:10515000150D8093140D68E770E083EA9EE00E94CD
:10516000FA096CE370E080EA9EE00E94FA0960E0D0
:1051700070E0CB010E94210368E770E083EA9EE0C3
:105180000E94FA0968E770E080EA9EE00E94FA094E
:105190000091100D1091110D065A1F4F0E94851895
:1051A000081719070CF5E091140DF091150D848185
:1051B00095810197C9F068E770E083EA9EE00E945C
:1051C000FA096CE370E080EA9EE00E94FA0962EE60
:1051D00074E080E090E00E9421038091100D909196
:1051E000110D865A9F4F83C00E9435160E94D30B23
:1051F0009093150D8093140D85E095E00E942F1477
:105200000E9485180E94A21186E994E00E942F1442
:105210008091100D9091110D865A9F4F0E94D211CE
:10522000B7CF88E89AE00E9416136DE770E083EA32
:105230009EE00E94FA0962E370E080EA9EE00E942C
:10524000FA0991E090930B022DCF8EE99AE00E942B
:1052500016130E94D30B9093150D8093140D68E7DD
:1052600070E083EA9EE00E94FA096CE370E080EA55
:105270009EE00E94FA0960E070E0CB010E942103E9
:105280006CE370E083EA9EE00E94FA096CE370E050
:1052900080EA9EE00E94FA090091100D1091110D14
:1052A0000A5511090E94851880179107BCF5E091F5
:1052B000140DF091150D84819581019779F168E7BE
:1052C00070E083EA9EE00E94FA096CE370E080EAF5
:1052D0009EE00E94FA0962EE74E080E090E00E9495
:1052E00021038091100D9091110D8A559109909391
:1052F000110D8093100D10920A0D10920B0D10924B
:105300000C0D10920D0D84E79AE00E942F148091ED
:10531000100D9091110D0E94D211C4CE0E9435162D
:105320000E94D30B9093150D8093140D8CEB94E099
:105330000E942F140E9485180E94A21186E994E011
:105340000E942F148091100D9091110D8A55910992
:105350000E94D211A1CF6AE570E083EA9EE00E942C
:10536000FA096AE570E080EA9EE00E94FA098CEA98
:105370009AE00E9416130E94931894CE8EEC9AE045
:105380000E9416130E94D30B9093150D8093140D59
:1053900068E770E083EA9EE00E94FA096AE570E03F
:1053A00080EA9EE00E94FA097DCE8AEE9AE00E9491
:1053B00016136AE570E083EA9EE00E94FA096CE346
:1053C00070E0EECF85E09BE00E9416130E94D30BA5
:1053D000FC019093150D8093140D80819181892B90
:1053E00009F460CE82819381892B09F45BCE84819C
:1053F0009581892B09F456CE86819781892B09F4F2
:1054000051CE80859185892B09F44CCE8091100D69
:105410009091110D2091120D3091130DAC0142505D
:10542000510924173507ACF50091100D1091110D9D
:10543000025011090E948518801791070CF032CE96
:105440000E944E1364E670E083EA9EE00E94FA092F
:105450006AE570E080EA9EE00E94FA090E94D30BA0
:10546000FC019093150D8093140D80819181892BFF
:1054700009F418CE82819381892B09F413CE868199
:105480009781892B09F40ECE80859185892B61F651
:1054900009CEAC014E5F5F4F42175307ACF5009148
:1054A000100D1091110D0E5F1F4F0E9485180817E7
:1054B00019070CF0F7CD0E944E136AE570E083EAFD
:1054C0009EE00E94FA0960E570E080EA9EE00E949A
:1054D000FA090E94D30BFC019093150D8093140DD3
:1054E00080819181892B09F4DDCD82819381892B83
:1054F00009F4D8CD86819781892B09F4D3CD808595
:105500009185892B61F6CECD821B930B97FF03C04B
:1055100091958195910903970CF0C4CD0E944E138B
:1055200068E770E048CF8CE09BE023CF8EE09BE003
:105530000E941613E091140DF091150D8481958150
:105540000197D9F4828193810197B9F48081918187
:10555000892B99F40E94D30B9093150D8093140D11
:105560006EE670E083EA9EE00E94FA096AE570E068
:1055700080EA9EE00E94FA09DDCF0E948518909390
:10558000130D8093120D2091120D3091130D809107
:10559000100D9091110D281739070CF483CD0E943E
:1055A00085189093130D8093120D88EC9BE00E9458
:1055B0002F148091120D9091130D0E94D2118CE244
:1055C0009BE00E942F148091100D9091110D0E946C
:1055D000D2116AE570E083EA9EE00E94FA0966E46F
:1055E00070E080EA9EE00E94FA09CDCF88E39BE05C
:1055F0000E941613E091140DF091150D8085918590
:10560000892BD9F4868197810197B9F4848195819A
:10561000019799F40E94D30B9093150D8093140D6C
:105620006AE570E083EA9EE00E94FA0966E470E0B1
:1056300080EA9EE00E94FA09DDCF0E9485189093CF
:10564000130D8093120D2091120D3091130D809146
:10565000100D9091110D821793070CF423CD0E9429
:1056600085189093130D8093120D88EC9BE00E9497
:105670002F148091120D9091130D0E94D2118CE283
:105680009BE00E942F148091100D9091110D0E94AB
:10569000D2116EE670E083EA9EE00E94FA096AE5A4
:1056A00070E080EA9EE00E94FA09CDCF85E59BE09C
:1056B0000E9416130E94D30B9093150D8093140D26
:1056C00068E770E083EA9EE00E94FA096CE370E00C
:1056D00080EA9EE00E94FA0960E070E0CB010E943F
:1056E00021036CE370E083EA9EE00E94FA096CE318
:1056F00070E080EA9EE00E94FA090091100D10917E
:10570000110D0A5511090E948518801791074CF454
:10571000E091140DF091150D84819581019709F0A8
:10572000CECD0E9435160E94D30B9093150D809319
:10573000140D85E69BE00E942F140E9485180E949C
:10574000A21186E994E00E942F148091100D90918F
:10575000110D8A5591090E94D211CFCF85E99BE0A6
:105760000E9416130E94D30B9093150D8093140D75
:1057700068E770E083EA9EE00E94FA096CE370E05B
:1057800080EA9EE00E94FA0960E070E0CB010E948E
:10579000210368E770E083EA9EE00E94FA0968E767
:1057A00070E080EA9EE00E94FA090091100D1091CD
:1057B000110D065A1F4F0E948518081719074CF43F
:1057C000E091140DF091150D84819581019709F0F8
:1057D000F2CC0E9435160E94D30B9093150D809346
:1057E000140D86EA9BE00E942F140E9485180E94E7
:1057F000A21186E994E00E942F148091100D9091DF
:10580000110D865A9F4F0E94D211CFCF0E9435169C
:1058100087ED9BE00E94161344E650E061E070E0E3
:1058200088EE93E00E94150C68E770E083EA9EE042
:105830000E94FA096CE370E080EA9EE00E94FA0997
:105840000E94D30B9093150D8093140D10E000E08F
:10585000E091140DF091150DE00FF11F8081918101
:105860000E94A2110E5F1F4F0A30110589F781EDCA
:1058700093E00E94161316CC8DEA9EE00E944A091E
:105880008FEE9EE00C944A091F93FC01992788270C
:10589000BC01E89411911032E9F3193010F01E3078
:1058A000C8F31B3251F01D3249F4689406C00E94BF
:1058B0006B2C610F711D811D911D119110531A30B8
:1058C000B0F33EF490958095709561957F4F8F4F22
:1058D0009F4F1F910895592F482F372F262F660F5E
:1058E000771F881F991F660F771F881F991F620FE8
:1058F000731F841F951F660F771F881F991F0895B8
:1059000091110C945C2D803219F089508550C8F7A4
:1059100008950E94CB2C08F481E00895E89409C012
:1059200097FB3EF490958095709561957F4F8F4FD2
:105930009F4F9923A9F0F92F96E9BB279395F695E8
:10594000879577956795B795F111F8CFFAF4BB0F66
:1059500011F460FF1BC06F5F7F4F8F4F9F4F16C0CA
:10596000882311F096E911C0772321F09EE8872F54
:10597000762F05C0662371F096E8862F70E060E010
:105980002AF09A95660F771F881FDAF7880F969589
:10599000879597F90895990F0008550FAA0BE0E82D
:1059A000FEEF16161706E807F907C0F012161306E1
:1059B000E407F50798F0621B730B840B950B39F421
:1059C0000A2661F0232B242B252B21F408950A2687
:1059D00009F4A140A6958FEF811D811D08950E94B5
:1059E000022D0C94762D0E94682D38F00E946F2DA8
:1059F00020F0952311F00C945F2D0C94652D11244B
:105A00000C94AA2D0E94872D70F3959FC1F3950FDA
:105A100050E0551F629FF001729FBB27F00DB11D32
:105A2000639FAA27F00DB11DAA1F649F6627B00DC2
:105A3000A11D661F829F2227B00DA11D621F739FAB
:105A4000B00DA11D621F839FA00D611D221F749FB9
:105A50003327A00D611D231F849F600D211D822F00
:105A6000762F6A2F11249F5750409AF0F1F0882327
:105A70004AF0EE0FFF1FBB1F661F771F881F915054
:105A80005040A9F79E3F510580F00C945F2D0C9477
:105A9000AA2D5F3FE4F3983ED4F3869577956795FA
:105AA000B795F795E7959F5FC1F7FE2B880F911D7E
:105AB0009695879597F9089599278827089597F9D6
:105AC0009F6780E870E060E008959FEF80EC0895A4
:105AD00000240A94161617061806090608950024CD
