:020000040000FA
:100000000C947B010C94AC010C94AC010C94AC01ED
:100010000C94AC010C94AC010C94AC010C94AC01AC
:100020000C94AC010C94AC010C94AC010C94AC019C
:100030000C94AC010C9488120C94AC010C94AC019F
:100040000C94AC010C94F2140C94AC010C94AC0123
:100050000C94AC010C94AC010C94AC010C943E12C9
:100060000C94AC010C9412130C94E8120C94AC0197
:100070000C94AC010C94AC010C94AC010C94AC014C
:100080000C94C4140C94AC010C94AC010C94AC0111
:100090000C94AC010C94AC010C94AC010C9448137E
:1000A0000C94AC010C94AC010C9496140C94AC011F
:1000B0000C94AC010C94AC010C94AC010C9468143D
:1000C0000C94AC010C94AC010C94AC010C94AC01FC
:1000D0000C94AC010C94AC010C94AC010C94AC01EC
:1000E0000C94AC01084AD73B3BCE016E84BCBFFDEB
:1000F000C12F3D6C74319ABD56833DDA3D00C77FF8
:1001000011BED9E4BB4C3E916BAAAABE0000008090
:100110003F000C946F030C9414020C940E020C9488
:10012000FD010C94E3010C9401020C94F0050C9475
:100130004C030C9426020C947D030C94B5030C9490
:1001400046060C94F9010C9419060C9412060C94B2
:10015000371C0C9420150C941F030C9418020C945B
:1001600034020C9422020C94DE010C94FF050C94D2
:1001700075060C941D040C94EF050C941C020C9451
:100180002A020C940A020C9430020C945B030C9427
:1001900004020C94F5010243616C63756C6174692F
:1001A0006E67206F6666736574732C20646F206EB3
:1001B0006F74206D6F7665204D50553630353000A8
:1001C0004D505536303530207374617475733A2054
:1001D0000000000A0B02090C0D0E080703040100C1
:1001E000000000000000000000000000000000000F
:1001F00000000000000000000000000000121110CC
:1002000000000000000000000000000000000000EE
:10021000000000000000000000200023002600294C
:10022000002C002F0032000001000003010601092C
:100230000100002100240027002A002D0030003397
:100240000001010000040107010A0100002200254D
:100250000028002B002E00310034000201000005B0
:100260000108010B01010210202008081020401095
:10027000204080020102010804020101020408106A
:100280002040808040201008040201800402018088
:1002900040201008040201080402010102040810B1
:1002A0002040800102040810204080050505050754
:1002B0000508080808020202020A0A0808040404E1
:1002C000040101010101010101030303030303030D
:1002D00003040707070C0C0C0C0C0C0C0C0202029C
:1002E0000206060606060606060B0B0B0B0B0B0B8F
:1002F0000B002015371C11241FBECFEFD1E2DEBF4B
:10030000CDBF00E00CBF13E0A0E0B2E0EEE0F0E40F
:1003100000E00BBF02C007900D92A230B107D9F7E1
:1003200026E0A2E0B3E001C01D92A433B207E1F7DA
:1003300011E0CAE7D1E000E006C021970109802F53
:10034000FE010E94ED1FC937D10780E00807A9F719
:100350000E94DD150C94F51F0C940000282F30E04E
:10036000F901EF52FE4F9491F901EB59FD4F449181
:1003700025553D4FF9012491222309F435C09923D5
:1003800011F191509231F8F4E92FF0E08827E4530D
:10039000FE4F8F4F0C94ED1FFD010102DE01F501B0
:1003A000F901E30104020A020E02140218021C02FF
:1003B00022022602E3012A023002340280918000E8
:1003C0008F7780938000E22FF0E0EE0FFF1FE55B58
:1003D000FD4FA591B4918FB7F894EC91611148C08D
:1003E00040954E234C938FBF0895809180008F7D60
:1003F000E8CF80918000877FE4CF84B58F7784BD7C
:10040000E2CF84B58F7DFBCF8091B0008F77809352
:10041000B000D9CF8091B0008F7DF9CF809190004E
:100420008F7780939000CFCF809190008F7DF9CF10
:1004300080919000877FF5CF8091A0008F77809387
:10044000A000C1CF8091A0008F7DF9CF8091A00046
:10045000877FF5CF809120018F7780932001B3CFE4
:10046000809120018F7DF9CF80912001877FF5CF8A
:100470004E2BB8CFCF93DF9390E0FC01EB59FD4FAB
:10048000249185559D4FFC0184918823D1F090E003
:10049000880F991FFC01EF5CFD4FA591B491FC0101
:1004A000E55BFD4FC591D49161110EC09FB7F894E3
:1004B0008C91E22FE0958E238C932881E223E883B0
:1004C0009FBFDF91CF9108958FB7F894EC91E22B05
:1004D000EC938FBFF6CF8230910538F0880F991FCB
:1004E000880F991F05970197F1F708953FB7F89482
:1004F0008091140490911504A0911604B0911704F2
:1005000026B5A89B05C02F3F19F00196A11DB11D6E
:100510003FBFBA2FA92F982F8827BC01CD01620FAA
:10052000711D811D911D42E0660F771F881F991F65
:100530004A95D1F708958F929F92AF92BF92CF9232
:10054000DF92EF92FF926B017C010E9476024B01D9
:100550005C01C114D104E104F104B9F00E947602F7
:10056000681979098A099B09683E734081059105DC
:1005700080F321E0C21AD108E108F10888EE880E64
:1005800083E0981EA11CB11CE4CFFF90EF90DF9098
:10059000CF90BF90AF909F908F9008952FB7F89411
:1005A00060911004709111048091120490911304D1
:1005B0002FBF08959091000289130DC0E6E9F1E084
:1005C000E4919FEF90930002E230E1F038F4EE23E3
:1005D00081F0E13089F060E00C94AE01E43049F143
:1005E00010F1E530C1F7909173009D7F90937300F7
:1005F000F2CF10926E00EFCF90916F009D7F90939D
:100600006F00E9CF909170009D7F9093700091E012
:100610009093B0009091B100987F94609093B10056
:100620001092B300D8CF909171009D7F909371008C
:10063000D2CF909172009D7F90937200CCCFAF92F9
:10064000BF92CF92DF92EF92FF920F931F93CF93BF
:10065000DF936C017B018B01040F151FEB015E0121
:10066000AE18BF08C017D10759F06991D601ED91B6
:10067000FC910190F081E02DC6011995892B79F745
:10068000C501DF91CF911F910F91FF90EF90DF9007
:10069000CF90BF90AF900895FC01538D448D252FCE
:1006A00030E0842F90E0821B930B541710F0CF960C
:1006B000089501970895FC01918D828D981761F03E
:1006C000A28DAE0FBF2FB11D5D968C91928D9F5F55
:1006D0009F73928F90E008958FEF9FEF0895FC0134
:1006E000918D828D981731F0828DE80FF11D858DE7
:1006F00090E008958FEF9FEF0895FC01918D228D7A
:10070000892F90E0805C9F4F821B91098F739927FE
:1007100008958AE894E00E947D0321E0892B09F482
:1007200020E0822F0895FC01A48DA80FB92FB11DE0
:10073000A35ABF4F2C91848D90E001968F73992717
:10074000848FA689B7892C93A089B1898C918370F5
:1007500080648C93938D848D981306C00288F389EE
:10076000E02D80818F7D80830895EF92FF920F931B
:100770001F93CF93DF93EC0181E0888F9B8D8C8D4D
:1007800098131AC0E889F989808185FF15C09FB741
:10079000F894EE89FF896083E889F9898081837004
:1007A000806480839FBF81E090E0DF91CF911F91B3
:1007B0000F91FF90EF900895F62E0B8D10E00F5FD4
:1007C0001F4F0F731127E02E8C8D8E110CC00FB6AA
:1007D00007FCFACFE889F989808185FFF5CFCE0142
:1007E0000E949303F1CFEB8DEC0FFD2FF11DE35A27
:1007F000FF4FF0829FB7F8940B8FEA89FB898081C5
:100800008062CFCF0F931F93CF93DF938C01D0E003
:10081000C0E0F801EC0FFD1F6491662341F08AE807
:1008200094E00E94B503892B11F02196F2CFCE01FE
:10083000DF91CF911F910F910895CF93DF93EC013A
:10084000888D8823B9F0AA89BB89E889F9898C91B8
:1008500085FD03C0808186FD0DC00FB607FCF7CF74
:100860008C9185FFF2CF808185FFEDCFCE010E9474
:100870009303E9CFDF91CF91089580E090E0892B39
:1008800029F00E94890381110E94000080E090E01D
:10089000892B49F080E090E0892B29F00E9400002C
:1008A00081110E94000080E090E0892B49F080E0F7
:1008B00090E0892B29F00E94000081110E94000025
:1008C00080E090E0892B49F080E090E0892B29F0CE
:1008D0000E94000081110C94000008951F93CF9393
:1008E000DF93C1E0C0939703882399F1D091B800BA
:1008F0001091BA008091BC008A7B8093BC0060E0BC
:1009000084E10E94AE0160E085E10E94AE01109298
:100910006004C0935F0410923A0461E084E10E9495
:10092000AE0161E085E10E94AE018091B9008E7F49
:100930008093B9008091B9008D7F8093B90088E4DD
:100940008093B80085E48093BC001093BA00D093E4
:10095000B800DF91CF911F9108958F929F92AF922F
:10096000BF92CF92DF92EF92FF920F931F93CF939C
:10097000DF93D0918904D13208F0D7C0182FC091ED
:1009800088040E9476026B017C01809160048111D1
:100990006BC082E08093600410935F048FEF8093BC
:1009A0005E0410925D04D0935C04A8E6B4E0ECE32E
:1009B000F4E080E0D81391C010923B0480913B0496
:1009C000CC0FC82BC0933B0480913A04813009F0CE
:1009D00088C010923A040E9476026B017C018091DB
:1009E0003B048093BB008091620490916304A091CA
:1009F0006404B0916504892B8A2B8B2BA1F00E9493
:100A00007602009162041091630420916404309195
:100A100065046C197D098E099F09061717072807B9
:100A2000390708F442C08091BC0083FDD8CF85EC23
:100A30008093BC000E9476026B017C01809160046F
:100A4000823009F450C080915E048F3F09F46FC07A
:100A500080915E04803209F46CC080915E04803322
:100A600009F469C084E026C0809162049091630417
:100A7000A0916404B0916504892B8A2B8B2B09F417
:100A800084CF0E9476028090620490906304A090CC
:100A90006404B09065046C197D098E099F0986165F
:100AA0009706A806B90608F070CF809161040E94ED
:100AB0006E0485E010926704109289041092660417
:100AC000DF91CF911F910F91FF90EF90DF90CF902A
:100AD000BF90AF909F908F9008959D9191938F5F5D
:100AE00069CF85EEA5CF8091620490916304A091B7
:100AF0006404B0916504892B8A2B8B2B09F49ECF5B
:100B00000E947602009162041091630420916404B3
:100B1000309165046C197D098E099F090617170726
:100B20002807390708F08ACFC0CF81E0C3CF80E023
:100B3000C1CF82E0BFCF83E0BDCF1F93CF93DF93C0
:100B4000162FC3E3D5E0A981BA819B8121E02093D0
:100B50006604909388041092670410928904ED91C2
:100B6000FC9111970190F081E02D682FCD0119952E
:100B700089819A81DC01ED91FC910190F081E02D59
:100B8000612F199581E0DF91CF911F910C94AD04F5
:100B90002091B803260F3327331F21323105ECF49F
:100BA00020916004FC0190E080E0243069F082E054
:100BB0000895A091B8032191AC0148565C4FA40F51
:100BC000B52FB11D2C930196861798F38091B80329
:100BD000680F6093B80380E0089581E00895089558
:100BE000E091190480911804E81730F4F0E0E65E13
:100BF000FB4F808190E008958FEF9FEF08959091D3
:100C00001904809118042FEF3FEF981748F4E92F4B
:100C1000F0E0E65EFB4F208130E09F5F9093190487
:100C2000C90108958091180490911904891B990BAA
:100C30000895CF92DF92EF92FF920F931F93CF937D
:100C4000DF937C01CB018A0120916604222389F085
:100C5000EB016B01C40ED51ECC15DD0569F0699161
:100C6000D701ED91FC910190F081E02DC70119951C
:100C7000F3CF642F0E94C805C801DF91CF911F9167
:100C80000F91FF90EF90DF90CF900895CF93DF9377
:100C90001F92CDB7DEB76983209166042223F9F055
:100CA00020918904203258F021E030E0FC013383A8
:100CB000228390E080E00F90DF91CF9108958091A2
:100CC0006704E82FF0E0E859FB4F998190838F5F2C
:100CD000809367048093890481E090E0ECCF61E029
:100CE000CE0101960E94C805F7CF90E080E00895FC
:100CF000CF92DF92EF92FF920F931F93CF93DF93E8
:100D0000EC01EE81FF8190818B8180958923808326
:100D1000EA85FB8580819B81892B8083EC81FD8125
:100D200090818A81809589238083E885F9858081F7
:100D30009A81892B808389899A89009711F00E9472
:100D40006B02EA85FB8590818B8180958923808366
:100D50008B89882331F0EE81FF8180819B81892BF3
:100D600080838C898823C9F00E94CE026B017C01AC
:100D7000EE85FF8580819B81892379F40E94CE02D4
:100D80006C197D098E099F090D891E892F89388D5F
:100D9000601771078207930758F389899A8900972A
:100DA00011F00E946B02E885F98590818A81809517
:100DB000892380838B89882331F0EC81FD818081B8
:100DC0009A81892B808389899A89009751F0DF91D4
:100DD000CF911F910F91FF90EF90DF90CF900C94E7
:100DE0006B02DF91CF911F910F91FF90EF90DF90F9
:100DF000CF900895CF93DF93EC01E885F98590813A
:100E00008A818095892380838B89882331F0EC81C6
:100E1000FD8180819A81892B8083EA85FB85908181
:100E20008B818095892380838B89882331F0EE81A3
:100E3000FF8180819B81892B808389899A89009792
:100E400011F00E946B02EC85FD8590818A819823C8
:100E5000EE85FF8520813B81232311F480E028C0AB
:100E60009923E1F3EC81FD81908180958923808332
:100E7000E885F98580819A81892B808389899A897F
:100E8000009711F00E946B02EE81FF8190818B81AF
:100E9000809589238083EA85FB8580819B81892BCE
:100EA000808389899A89009711F00E946B0281E002
:100EB000DF91CF910895CF92DF92EF92FF920F933F
:100EC0001F93CF93DF93EC01E885F98590818A81A8
:100ED0008095892380838B89882331F0EC81FD8183
:100EE00080819A81892B8083EA85FB8590818B8123
:100EF0008095892380838B89882331F0EE81FF815F
:100F000080819B81892B80838C898823C9F00E94F2
:100F1000CE026B017C01EE85FF8580819B81892358
:100F200079F40E94CE026C197D098E099F090D8902
:100F30001E892F89388D601771078207930758F330
:100F400089899A89009711F00E946B02EC85FD85D2
:100F500080819A81892311E009F410E0EE81FF81FC
:100F600090818B81809589238083EA85FB858081B0
:100F70009B81892B808389899A89009711F00E942F
:100F80006B02812FDF91CF911F910F91FF90EF9016
:100F9000DF90CF900895CF92DF92EF92FF920F9360
:100FA0001F93CF93DF93EC018A81809561115EC01E
:100FB000EC81FD81908189238083E885F98580819A
:100FC0009A81892B808389899A89009711F00E94E0
:100FD0006B02EA85FB8590818B81809589238083D4
:100FE0008B89882331F0EE81FF8180819B81892B61
:100FF00080838C898823C9F00E94CE026B017C011A
:10100000EE85FF8580819B81892379F40E94CE0241
:101010006C197D098E099F090D891E892F89388DCC
:10102000601771078207930758F389899A89009797
:1010300011F00E946B02EE81FF8190818B8180957F
:1010400089238083EA85FB8580819B81892B80832E
:1010500089899A890097B1F0DF91CF911F910F9103
:10106000FF90EF90DF90CF900C946B02E885F985AC
:101070009081892380838B89882309F4A4CFEC8114
:10108000FD819DCFDF91CF911F910F91FF90EF9048
:10109000DF90CF9008950F931F93CF93DF938C0130
:1010A000D62FC8E06D2F6078C8010E94CB07DD0FF6
:1010B000C150C1F7C801DF91CF911F910F910C94DE
:1010C0005B07CF93DF93FC012089211106C0EC015F
:1010D0000E944B08811106C0188A81E090E0DF91E0
:1010E000CF91089582E0888BF8CF1F93CF93DF9341
:1010F000EC01162F188A0E94FA06882379F0612FD6
:10110000660FCE010E944B08811105C0188ADF913D
:10111000CF911F91089582E0888BF9CF84E0FCCFB6
:10112000FC019389138AA085B1852C9182818095D9
:1011300082238C938389882331F0A481B5818C919B
:101140002281822B8C93A285B3852C9183818095FB
:1011500082238C938389882331F0A681B7818C9177
:101160002381822B8C93938B08950F931F93CF939E
:10117000DF93CDB7DEB7EB970FB6F894DEBF0FBEA7
:10118000CDBFDC011C928BEE90E014969C938E9365
:10119000139781E090E012969C938E931197159689
:1011A0006C93159716964C93169769834A838C8B8C
:1011B0008D8B82E090E09B8B8A8B08EE13E020E021
:1011C00030E00E8B1F8B288F398F70E0FB01E555C7
:1011D000FD4F24916B597D4FFB0164916B8330E08F
:1011E000220F331FF901E55BFD4F859194919E839A
:1011F0008D83F901EF5CFD4F859194919A878987E2
:10120000F901E95EFD4F859194919E878D8750E0AD
:10121000FA01E555FD4F24914B595D4FFA01449178
:101220004C8330E0220F331FF901E55BFD4F8591C0
:10123000949198878F83F901EF5CFD4F859194918C
:101240009C878B87F901E95EFD4F85919491988B7E
:101250008F878BE3FE013196179601900D928A9548
:10126000E1F7CE0101960E949008EB960FB6F89434
:10127000DEBF0FBECDBFDF91CF911F910F910895BB
:101280008F929F92AF92BF92FF920F931F93CF9333
:10129000DF93FC01F0808FE28F1508F44AC0828151
:1012A00008E512E0081B110987FD1395000F111FB7
:1012B000000F111F8181C8E8D0E0C81BD10987FD4C
:1012C000D395CC0FDD1FCC0FDD1F4E010D2E000C72
:1012D000AA08BB089801012E000C440B550B2819D5
:1012E00039094A095B09DB010E94951D24EB30E0B6
:1012F00040E050E00E946B1D820E931EA41EB51E9E
:101300008C169D062CF0E801801691060CF4E40181
:101310002297CC0FDD1F2FB7F8948F2D90E0FC01A2
:10132000EE0FFF1FE80FF91FE95FFC4FD283C18367
:101330002FBFDF91CF911F910F91FF90BF90AF9082
:101340009F908F9008951F93CF93DF93EC01162FFA
:101350008881803308F04EC061E0812F0E943A02FC
:101360008881282F30E0F901EE0FFF1FE20FF31FF5
:10137000E95FFC4F1F736081607C612B6083198281
:101380001A822CE0622F0E94E11F829FB00111247B
:1013900030E020E0AB01420F531FFA01EE0FFF1FB8
:1013A000E40FF51FE95FFC4F908196FD16C02F5F9B
:1013B0003F4F2C30310571F7813009F510928000D4
:1013C00082E0809381001092850010928400B19A8F
:1013D00080916F00826080936F00E8818E2F90E093
:1013E000FC01EE0FFF1FE80FF91FE95FFC4F808142
:1013F000806480838881DF91CF911F91089582302E
:1014000061F41092900080939100109295001092D8
:10141000940088BB80937100E0CF833069F4109210
:10142000A00082E08093A1001092A5001092A40079
:1014300089BB80937200D1CF8111CFCF1092200150
:1014400082E08093210110922501109224018ABB31
:1014500080937300C2CFFC0190910603903398F4FF
:1014600081E0890F809306039083892F90E0FC012F
:10147000EE0FFF1FE80FF91FE95FFC4F88EB9BE0C1
:101480009283818308958FEF80830895AF92BF92F6
:10149000CF92DF92EF92FF920F931F93CF93DF9340
:1014A0006B017A01EC01CE5FDC4F28813CE0389F74
:1014B0008001399F100D1124A0900603B12C27FF45
:1014C0001FC0FB011182108288818F5F8883888111
:1014D0009801280F311D87FD3A95F6012A153B0525
:1014E0001CF488818C30C4F1808191810496803411
:1014F0009C4908F473C0F60180819181049670C004
:1015000088819801280F311D87FD3A952A153B05E2
:10151000DCF68881A801480F511D87FD5A95FA0114
:10152000EE0FFF1FE40FF51FE95FFC4F808186FF80
:10153000CBCF8881F801E80FF11D87FDFA95CF0127
:10154000EE0FFF1FE80FF91FE95FFC4F808160E09D
:101550008F730E94AE01B8CF808191812881A8014C
:10156000420F511D27FD5A959A01FA01EE0FFF1FF8
:10157000E20FF31FE95FFC4F21813281820F931F3D
:10158000F7019183808388819801280F311D87FDA1
:101590003A95F901EE0FFF1FE20FF31FE95FFC4FD1
:1015A000808186FF22C08881080F111D87FD1A9552
:1015B000F801EE0FFF1FE00FF11FE95FFC4F808184
:1015C00061E08F73DF91CF911F910F91FF90EF90AA
:1015D000DF90CF90BF90AF900C94AE0180E49CE977
:1015E000F701918380838FEF8883DF91CF911F91E3
:1015F0000F91FF90EF90DF90CF90BF90AF90089544
:101600004F925F926F927F928F929F92AF92BF9212
:10161000CF92DF92EF92FF920F931F93CF93DF93BE
:10162000CDB7DEB72E970FB6F894DEBF0FBECDBF95
:1016300080913405909135052091360531E0309345
:101640006604209388041092670410928904DC01D8
:10165000ED91FC910190F081E02D6BE3199580E014
:101660000E94AD04109136050E9476024B015C0188
:1016700080916004811166C081E080936004809352
:101680005F049FEF90935E0410925D049DE0909341
:101690005C0480933B0480913B04110F182B109342
:1016A0003B0480913A04813009F0A9C110923A04B8
:1016B0000E9476024B015C0180913B048093BB0049
:1016C0008091620490916304A0916404B0916504D8
:1016D000892B8A2B8B2BA1F00E9476020091620449
:1016E00010916304209164043091650468197909AC
:1016F0008A099B09061717072807390708F443C00A
:101700008091BC0083FDD8CF85EC8093BC000E9403
:1017100076024B015C0180916004813009F471C153
:1017200080915D048E3008F08EC180915D04ACE341
:10173000B4E0EAE1F4E090E0981751F12D912193A3
:101740009F5FFACF8091620490916304A09164043A
:10175000B0916504892B8A2B8B2B09F489CF0E94C9
:10176000760240906204509063046090640470902C
:101770006504681979098A099B094616570668069F
:10178000790608F075CF809161040E946E0480E0B4
:1017900010921904809318048E010F5F1F4F6E0181
:1017A000BFE0CB0ED11C8091340590913505DC0152
:1017B000ED91FC910284F385E02D1995B82E80916E
:1017C000340590913505DC01ED91FC910284F3859F
:1017D000E02D1995E12C8E299B29F8018193919395
:1017E0008F01CE16DF06F9F6C0903B05D0903C0580
:1017F000E0903D05F0903E0569817A81072E000C4E
:10180000880B990B0E94461CA70196010E94AD1EF1
:1018100020914B0530914C0540914D0550914E055E
:101820000E94CE1D60935B0570935C0580935D05FF
:1018300090935E056B817C81072E000C880B990BC1
:101840000E94461CA70196010E94AD1E20914F05E3
:101850003091500540915105509152050E94CE1D86
:1018600060935F05709360058093610590936205B6
:101870008091330561E06827681B770B072E000C09
:10188000880B990B0E94461C4B015C016D817E8187
:10189000072E000C880B990B0E94461C9B01AC0183
:1018A000C501B4010E94A51CA70196010E94AD1EAE
:1018B000209153053091540540915505509156059E
:1018C0000E94CE1D60936305709364058093650547
:1018D000909366056F817885072E000C880B990B15
:1018E0000E94461C20E030EF41E456E40E94CF1DE8
:1018F00020E030E04AEA53E40E94AD1E60935705B1
:10190000709358058093590590935A05C0903705F8
:10191000D0903805E0903905F0903A0569857A85D0
:10192000072E000C880B990B0E94461CA7019601FC
:101930000E94AD1E20913F05309140054091410528
:10194000509142050E94CE1D609367057093680513
:101950008093690590936A056B857C85072E000C42
:10196000880B990B0E94461CA70196010E94AD1E90
:10197000209143053091440540914505509146051D
:101980000E94CE1D60936B0570936C0580936D056E
:1019900090936E056D857E85072E000C880B990B44
:1019A0000E94461CA70196010E94AD1E209147058A
:1019B000309148054091490550914A050E94CE1D3D
:1019C00060936F0570937005809371059093720515
:1019D0002E960FB6F894DEBF0FBECDBFDF91CF912C
:1019E0001F910F91FF90EF90DF90CF90BF90AF903D
:1019F0009F908F907F906F905F904F90089585EEAD
:101A000084CE8091620490916304A0916404B091AB
:101A10006504892B8A2B8B2B09F47DCE0E947602DC
:101A20000091620410916304209164043091650474
:101A3000681979098A099B090617170728073907C2
:101A400008F069CEA0CE8EE072CE7F928F929F92E8
:101A5000AF92BF92CF92DF92EF92FF920F931F93BC
:101A6000CF93DF93EC01062F142F188A19AE1AAE0C
:101A70000E94FA06882309F457C0602F660F616040
:101A8000CE010E944B0881114BC0188A7E01A12E05
:101A9000B12CD12CC12C450181E0881A9108CA14BF
:101AA000DB0459F100E088E0782EC814D904DCF496
:101AB000000FCE010E945B07082B7A947110F8CFBB
:101AC00060E0CE010E94CB0789899A89009711F0C6
:101AD0000E946B02F701018FFFEFCF1ADF0A8FEF31
:101AE000E81AF80ADCCF000FCE010E945B07082B32
:101AF0007A947110F8CF61E0E4CF19AFCE010E9463
:101B00007806812FDF91CF911F910F91FF90EF9079
:101B1000DF90CF90BF90AF909F908F907F9008956F
:101B200082E0888B10E0EACF84E0FBCFFF920F9336
:101B30001F93CF93DF93EC01F62E8C01095F1F4FAB
:101B400069E2C8010E9475086F2D6068C8010E9493
:101B50006108C8010E94780642E069E2C8010E945B
:101B6000250DFE01E05CFF4F8081319690812FEFC3
:101B70003FEF981740F4DE01A90FB11D90962C910C
:101B800030E09F5F908390814FEF5FEF981728F4CC
:101B9000C90FD11D48A19F5F908380E0942F822BB5
:101BA000932BDF91CF911F910F91FF9008950F9389
:101BB0001F93CF93DF93162F022FEC01279669E234
:101BC000CE010E947508612F6068CE010E946108F5
:101BD000602FCE010E946108CE01DF91CF911F914D
:101BE0000F910C9478064F925F926F927F928F9232
:101BF0009F92AF92BF92CF92DF92EF92FF920F939C
:101C00001F93CF93DF93CDB7DEB72C970FB6F89421
:101C1000DEBF0FBECDBF0E94000BC0906305D09009
:101C20006405E0906505F090660521E030E03A83B8
:101C3000298320E030E0A901C701B6010E94751F89
:101C400087FF02C01A82198201E010E020E030E034
:101C5000A901C701B6010E943F1C87FD02C010E028
:101C600000E069817A81601B710B072E000C880BE4
:101C7000990B0E94461C6D837E838F839887A701F2
:101C80009601C701B6010E94A51C2B013C01C09022
:101C90005B05D0905C05E0905D05F0905E05A701C6
:101CA0009601C701B6010E94A51CA30192010E94E2
:101CB000CF1D0E94881F9B01AC0180905F05909012
:101CC0006005A0906105B09062056D817E818F8175
:101CD00098850E94A51C9B01AC01C501B4010E941E
:101CE0004E1E21EE3EE245E652E40E94A51C6093A2
:101CF0007305709374058093750590937605A5011F
:101D00009401C501B4010E94A51CA30192010E9487
:101D1000CF1D0E94881F9B01AC01C701B6010E9424
:101D20004E1E905821EE3EE245E652E40E94A51C6C
:101D300060937705709378058093790590937A0581
:101D40000E94CE026B017C018091870590918805ED
:101D5000A0918905B0918A05A7019601281B390B2E
:101D60004A0B5B0BCA01B9010E94441C2FE632E109
:101D700043E85AE30E94A51C4B015C01C092870511
:101D8000D0928805E0928905F0928A0580918B05B2
:101D900090918C05A0918D05B0918E0589839A83D1
:101DA000AB83BC83409073055090740560907505BB
:101DB000709076052091670530916805409169051E
:101DC00050916A05C501B4010E94A51C20917B05B4
:101DD00030917C0540917D0550917E050E94CF1D7C
:101DE000A30192010E94CE1D6B017C0120E030E036
:101DF00044E353E40E94751F18163CF420E030E0E1
:101E000044EB53E4C701B601EDCF20E030E044E3FA
:101E100053ECC701B6010E943F1C87FF0BC020E0B6
:101E200030E044EB53E4C701B6010E94CF1D6B01C3
:101E30007C01EBCF29813A814B815C8160E070E0CD
:101E400080E89FE30E94CE1D69877A878B879C87F5
:101E5000A7019601C301B2010E94CF1D29813A81D9
:101E60004B815C810E94A51C6B017C0129853A8510
:101E70004B855C85C301B2010E94A51C9B01AC018E
:101E8000C701B6010E94CF1D6B017C0120E030E04C
:101E900044E353E40E94751F18164CF420E030E030
:101EA00044EB53E4C701B6010E94CE1DEDCF20E004
:101EB00030E044E353ECC701B6010E943F1C87FFAA
:101EC0000BC020E030E044EB53E4C701B6010E94B0
:101ED000CF1D6B017C01EBCFC0927B05D0927C05BE
:101EE000E0927D05F0927E05409077055090780550
:101EF0006090790570907A0520916B0530916C05A2
:101F000040916D0550916E056D817E818F81988520
:101F10000E94A51CA50194010E94A51C20917F058B
:101F20003091800540918105509182050E94CF1D1E
:101F3000A30192010E94CE1D6B017C0120E030E0E4
:101F400044EB52E40E94751F18163CF420E030E088
:101F500044E353E4C701B601EDCF20E030E044EBA9
:101F600052ECC701B6010E943F1C87FF0BC020E066
:101F700030E044E353E4C701B6010E94CF1D6B017A
:101F80007C01EBCFA7019601C301B2010E94CF1DD6
:101F900029813A814B815C810E94A51C6B017C01E7
:101FA000A301920169857A858B859C850E94A51C79
:101FB0009B01AC01C701B6010E94CF1D6B017C01E2
:101FC00020E030E044EB52E40E94751F18164CF4F8
:101FD00020E030E044E353E4C701B6010E94CE1D87
:101FE000EDCF20E030E044EB52ECC701B6010E9497
:101FF0003F1C87FF0BC020E030E044E353E4C701FF
:10200000B6010E94CF1D6B017C01EBCFC0927F0512
:10201000D0928005E0928105F092820520916F05B3
:10202000309170054091710550917205C501B40160
:102030000E94A51C2091830530918405409185055F
:10204000509186050E94CF1D60938305709384058F
:1020500080938505909386052C960FB6F894DEBF85
:102060000FBECDBFDF91CF911F910F91FF90EF90E9
:10207000DF90CF90BF90AF909F908F907F906F90A8
:102080005F904F900895FC0101900020E9F731978F
:10209000AF01481B590BBC018AE894E00C941F0364
:1020A0008F929F92AF92BF920F931F93CF93DF9324
:1020B000CDB7DEB7A1970FB6F894DEBF0FBECDBF88
:1020C00019A2423008F44AE08E010F5D1F4F842EA2
:1020D000912CB12CA12CA50194010E949D1DE62FED
:1020E000B901CA01EA30F4F4E05DD801EE938D0144
:1020F000232B242B252B79F790E080E0109719F003
:10210000CD010E944310A1960FB6F894DEBF0FBE1A
:10211000CDBFDF91CF911F910F91BF90AF909F9056
:102120008F900895E95CE1CFBC0190E080E04AE047
:102130000C945010CF93DF930E949410EC0189E32C
:1021400092E00E9443108C0F9D1FDF91CF91089564
:10215000CF93DF930E944310EC0189E392E00E9449
:1021600043108C0F9D1FDF91CF9108950C94431065
:10217000BF92CF92DF92EF92FF920F931F93CF9374
:10218000DF93EC016C0187E0C80ED11C7E01E0E416
:10219000EE0EF11CF70110828E010F5B1F4FF8014C
:1021A0001082E989FA8990818A85809589238083C4
:1021B0008A8D882331F0ED85FE8580819A85892B73
:1021C0008083888D998D009711F00E946B02EF85B6
:1021D000F889908189858095892380838A8D8823D9
:1021E00031F0EB85FC8580819985892B808384E0A3
:1021F000B82E888D998D009711F00E946B02BA94C9
:10220000B110F7CF8A8D882331F062E070E080E072
:1022100090E00E949B0269E2C6010E94750862E993
:10222000C6010E946108C6010E94780641E069E289
:10223000C6010E94250DF8012081F7018081281731
:1022400008F055C0FE01E20FF11D80A12F5FF801DB
:102250002083182F682F70E090E080E040E10E941A
:10226000501089E392E00E94431080E01434A9F5F5
:1022700081E088830B811C81980150E040E061E09F
:10228000CE010E94D70D1C830B8309811A8188819E
:10229000811103C0CE010E94B810980150E040E0C7
:1022A0006FE0CE010E94D70D1A83098321E030E050
:1022B00040E050E060E0CE010E94D70D63E070E0A6
:1022C00080E090E00E949B0223E030E040E050E09C
:1022D00060E0CE010E94D70D81E0DF91CF911F9188
:1022E0000F91FF90EF90DF90CF90BF9008958FEF08
:1022F0009FEFAFCFAF92BF92CF92DF92EF92FF925C
:102300000F931F93CF93DF93EC015B016A01790177
:102310008881811103C0CE010E94B81064E1CE0112
:102320000E94960DF8019183808366E1CE010E94A0
:10233000960DF5019183808368E1CE010E94960D90
:10234000F601918380836AE1CE010E94960DF70128
:10235000918380838B819C81853D9105A1F180F4DF
:102360000097D9F1803C910599F1DF91CF911F91B0
:102370000F91FF90EF90DF90CF90BF90AF900895B6
:10238000863F9105D9F08F3F910541F08B3E910535
:1023900061F762E370E080E090E004C063E070E029
:1023A00080E090E0DF91CF911F910F91FF90EF902F
:1023B000DF90CF90BF90AF900C949B0268E170E0EB
:1023C00080E090E0EFCF65E670E080E090E0EACF5B
:1023D0006AE970E080E090E0E5CF6CEB72E080E0CD
:1023E00090E0E0CF85ED8093BC00809162049091F5
:1023F0006304A0916404B09165040796A11DB11D0A
:1024000023E0B695A795979587952A95D1F72091C2
:10241000BC0024FD03C01092600408954091620442
:10242000509163046091640470916504452B462BC0
:10243000472B69F30097A105B10541F02AE22A95DF
:10244000F1F700C00197A109B109E1CF80916104C2
:102450000C946E040F931F93CF93DF938C01EB01C9
:102460000E94631D8883C80101960E94631D8983B1
:10247000CE01DF91CF911F910F9108951F920F927E
:102480000FB60F9211242F933F938F939F93AF9387
:10249000BF938091100490911104A0911204B09107
:1024A000130430910F0423E0230F2D3758F50196C4
:1024B000A11DB11D20930F0480931004909311046B
:1024C000A0931204B0931304809114049091150406
:1024D000A0911604B09117040196A11DB11D80931F
:1024E000140490931504A0931604B0931704BF919D
:1024F000AF919F918F913F912F910F900FBE0F90B1
:102500001F90189526E8230F0296A11DB11DD2CF6A
:102510001F920F920FB60F9211240BB60F922F93AA
:102520003F934F935F936F937F938F939F93AF935B
:10253000BF93EF93FF938091030490910404A091C3
:102540000504B0910604892B8A2B8B2BE1F1909125
:10255000F203E091F303F091F403808189278083F3
:102560008091030490910404A0910504B0910604A5
:10257000181619061A061B069CF480910304909104
:102580000404A0910504B09106040197A109B109C2
:102590008093030490930404A0930504B09306046D
:1025A000FF91EF91BF91AF919F918F917F916F912B
:1025B0005F914F913F912F910F900BBE0F900FBEE7
:1025C0000F901F901895809100020E94DA02E8CFC8
:1025D0001F920F920FB60F9211240BB60F922F93EA
:1025E0003F934F935F936F937F938F939F93AF939B
:1025F000BF93EF93FF938AE894E00E949303FF91C7
:10260000EF91BF91AF919F918F917F916F915F916A
:102610004F913F912F910F900BBE0F900FBE0F90D7
:102620001F9018951F920F920FB60F9211240BB6A0
:102630000F922F938F939F93EF93FF93E0919A04C0
:10264000F0919B048081E091A004F091A10482FDAF
:102650001DC090818091A3048F5F8F732091A4048B
:10266000821741F0E091A304F0E0E657FB4F958F0D
:102670008093A304FF91EF919F918F912F910F90E1
:102680000BBE0F900FBE0F901F9018958081F2CF58
:102690001F920F920FB60F9211240BB60F922F9329
:1026A0003F934F935F936F937F938F939F93AF93DA
:1026B000BF93EF93FF938091B900887F803609F430
:1026C0004DC008F040C0883209F4A7C028F5803119
:1026D00009F49BC0C8F4882309F4F7C0883009F4D2
:1026E00094C0FF91EF91BF91AF919F918F917F9196
:1026F0006F915F914F913F912F910F900BBE0F9073
:102700000FBE0F901F901895883109F486C0803253
:1027100041F780935E0414C0803409F49BC040F4F8
:102720008033B9F38833E9F680935E0485ECAEC05C
:10273000803509F483C0883509F494C0883489F65B
:102740000E94F211CECF883909F48AC038F5883753
:1027500029F050F4883611F0803719F683E0809321
:1027600060041092DA0355C0883809F479C08039C2
:1027700019F0803809F0B5CF8091DA03803208F083
:102780006FC0E091DA0381E08E0F8093DA038091CD
:10279000BB00F0E0E654FC4F80833BC0803B39F047
:1027A000D0F4803A09F477C0883A09F09ACF84E0EF
:1027B000809360041092B9031092B803F0E0E0E057
:1027C00019958091B80381110FC081E08093B803FF
:1027D0001092980309C0803C09F4A8CF883C09F402
:1027E000A5CF883B09F07DCFE091B90381E08E0F42
:1027F0008093B903F0E0E856FC4F80818093BB00E2
:102800009091B9038091B80329C080913B048093D3
:10281000BB0085EC8093BC0064CF90915D048091F7
:102820005C04981758F5E0915D0481E08E0F809369
:102830005D04F0E0E45CFB4F8081E9CFE0915D0452
:1028400081E08E0F80935D048091BB00F0E0E45C3A
:10285000FB4F808390915D0480915C049817C8F2CF
:1028600085E8D8CFE0915D0481E08E0F80935D0410
:102870008091BB00F0E0E45CFB4F808380915F04BB
:1028800081115ECF81E080933A0484EA8093BC009A
:102890001092600426CF85EC8093BC0010926004F7
:1028A0008091DA03803230F4E091DA03F0E0E6540C
:1028B000FC4F10826091DA0370E08AEB93E0F0E065
:1028C000E0E019951092DA030CCF10925E0438CF35
:1028D0001F920F920FB60F9211240BB60F922F93E7
:1028E0003F934F935F936F937F938F939F93AF9398
:1028F000BF93EF93FF9348E251E064E271E090E010
:1029000080E00E94460AFF91EF91BF91AF919F91A5
:102910008F917F916F915F914F913F912F910F9088
:102920000BBE0F900FBE0F901F9018951F920F9225
:102930000FB60F9211240BB60F922F933F934F9324
:102940005F936F937F938F939F93AF93BF93EF9317
:10295000FF9348EA50E064EA70E083E090E00E9470
:10296000460AFF91EF91BF91AF919F918F917F9117
:102970006F915F914F913F912F910F900BBE0F90F0
:102980000FBE0F901F9018951F920F920FB60F92C7
:1029900011240BB60F922F933F934F935F936F9336
:1029A0007F938F939F93AF93BF93EF93FF9348E9E8
:1029B00050E064E970E082E090E00E94460AFF91F6
:1029C000EF91BF91AF919F918F917F916F915F91A7
:1029D0004F913F912F910F900BBE0F900FBE0F9014
:1029E0001F9018951F920F920FB60F9211240BB6DD
:1029F0000F922F933F934F935F936F937F938F9398
:102A00009F93AF93BF93EF93FF9348E850E064E840
:102A100070E081E090E00E94460AFF91EF91BF9143
:102A2000AF919F918F917F916F915F914F913F9166
:102A30002F910F900BBE0F900FBE0F901F90189507
:102A4000CF92DF92EF92FF92CF93DF93EAE8F4E028
:102A50001382128288EE93E0A0E0B0E08483958335
:102A6000A683B78329E132E03183208325EC30E06F
:102A70003587248724EC30E03787268720EC30E048
:102A8000318B208B21EC30E0338B228B22EC30E039
:102A9000358B248B26EC30E0378B268B118E128EF3
:102AA000138E148EC7E2D5E01B821A828C839D831D
:102AB000AE83BF838BE292E099838883EEE2F6E0F7
:102AC0008AE390E09183808398E3C92E94E0D92E25
:102AD000E12CF12CC282D382E482F58260E00E9474
:102AE0003A02E8E2F6E086E390E091838083C282D6
:102AF000D382E482F58260E00E943A02E2E2F6E0EC
:102B000088E390E091838083C282D382E482F5825D
:102B100060E00E943A0245E064E080EE95E00E94A9
:102B2000B50843E062E08EE995E00E94B5088BE9C4
:102B300095E00E942B0A88E995E00E942B0A85E91E
:102B400095E00E942B0A82E995E00E942B0A8FE80B
:102B500095E00E942B0AE3E3F5E0108288E6838388
:102B6000D283C18388E491EEAAE7BFE380938B050B
:102B700090938C05A0938D05B0938E0514861586D1
:102B800016861786108A118A128A138A148A158A61
:102B9000168A178A108E118E128E138E148E158E31
:102BA000168E178E10A211A212A213A2DF91CF913E
:102BB000FF90EF90DF90CF900895CF93DF93CDB744
:102BC000DEB72E970FB6F894DEBF0FBECDBF789458
:102BD00084B5826084BD84B5816084BD85B5826022
:102BE00085BD85B5816085BD80916E0081608093D3
:102BF0006E0010928100809181008260809381003C
:102C0000809181008160809381008091800081604B
:102C1000809380008091B10084608093B1008091A6
:102C2000B00081608093B0008091910082608093B9
:102C3000910080919100816080939100809190003B
:102C40008160809390008091A10082608093A100B8
:102C50008091A10081608093A1008091A00081609B
:102C60008093A00080912101826080932101809156
:102C700021018160809321018091200181608093F6
:102C8000200180917A00846080937A0080917A009C
:102C9000826080937A0080917A00816080937A00CC
:102CA00080917A00806880937A001092C100E09150
:102CB0009A04F0919B0482E08083E0919604F09165
:102CC00097041082E0919804F091990480E1808348
:102CD0001092A204E0919E04F0919F0486E080830C
:102CE000E0919C04F0919D04808180618083E0915B
:102CF0009C04F0919D04808188608083E0919C0415
:102D0000F0919D04808180688083E0919C04F09123
:102D10009D0480818F7D808361E08BE60E949D050C
:102D2000898360E089E10E949D0560E08AE10E945C
:102D30009D0580E090E0A3E8B2E48093370590938E
:102D40003805A0933905B0933A0568E08BE10E94FD
:102D50009D0580E090E0A0E8B6E480933B05909369
:102D60003C05A0933D05B0933E0560E08CE10E94D8
:102D70009D050E94F30D8091730590917405A091BB
:102D80007505B091760580937B0590937C05A093A3
:102D90007D05B0937E058091770590917805A0918F
:102DA0007905B0917A0580937F0590938005A09373
:102DB0008105B09382050E94CE02609387057093CF
:102DC00088058093890590938A0580EC91E00E94A4
:102DD00002042981622F70E090E080E04AE00E94C6
:102DE000501089E392E00E94431039813111FDCFE8
:102DF00087E991E00E94020489E392E00E94431077
:102E000068EE73E080E090E00E949B0210923F0524
:102E10001092400510924105109242051092430510
:102E200010924405109245051092460510924705F0
:102E3000109248051092490510924A0510924B05D0
:102E400010924C0510924D0510924E0510924F05B0
:102E50001092500510925105109252051092530590
:102E600010925405109255051092560584EF91E08A
:102E70009E878D8719821A821B821C821D821E8268
:102E80001F82188619861A861B861C86C12CD12C97
:102E9000760146015701260137010E94000B20915F
:102EA0005B0530915C0540915D0550915E05C30165
:102EB000B2010E94CF1D2B013C0120915F05309192
:102EC00060054091610550916205C501B4010E9401
:102ED000CF1D4B015C0120E030E040E85FE36091F2
:102EE00063057091640580916505909166050E9467
:102EF000CE1D9B01AC01C701B6010E94CF1D6B0125
:102F00007C012091670530916805409169055091D9
:102F10006A0569857A858B859C850E94CF1D6987A6
:102F20007A878B879C8720916B0530916C05409147
:102F30006D0550916E056D817E818F8198850E940F
:102F4000CF1D6D837E838F83988720916F0530918D
:102F50007005409171055091720569817A818B816C
:102F60009C810E94CF1D69837A838B839C8361E05F
:102F700070E080E090E00E949B02ED85FE85319735
:102F8000FE87ED87EF2B09F088CF20E030E04AEF95
:102F900053E4C301B2010E94AD1E60934B057093D0
:102FA0004C0580934D0590934E0520E030E04AEFAC
:102FB00053E4C501B4010E94AD1E60934F057093A8
:102FC0005005809351059093520520E030E04AEF80
:102FD00053E4C701B6010E94AD1E60935305709380
:102FE0005405809355059093560520E030E04AEF54
:102FF00053E469857A858B859C850E94AD1E60931C
:103000003F0570934005809341059093420520E071
:1030100030E04AEF53E46D817E818F8198850E9474
:10302000AD1E6093430570934405809345059093CE
:10303000460520E030E04AEF53E469817A818B81D4
:103040009C810E94AD1E6093470570934805809354
:10305000490590934A058CE392E00E94A8102BE06A
:1030600032E03A83298305E112E0E981FA81808127
:103070003296FA83E98360E00E943A0229813A811C
:103080000217130791F761E080E20E943A0266E0BE
:1030900070E08BE995E00E94A30967E070E088E9A1
:1030A00095E00E94A3096AE570E08BE995E00E9433
:1030B00040096AE570E088E995E00E9440090E94B5
:1030C000F30D07EE13E029EE33E04BEE53E06DEE27
:1030D00073E080EE95E00E947A116091ED037091AB
:1030E000EE0390E080E00E94441C26ED39E346EABE
:1030F0005EEB0E94A51C6B017C016091EB0370915B
:10310000EC0390E080E00E94441C27E038E04AECA9
:103110005FE30E94A51C9B01AC01C701B6010E94A0
:10312000CF1D6B017C016091E9037091EA0390E08F
:1031300080E00E94441C24E73EE54BE35FEB0E94E5
:10314000A51C9B01AC01C701B6010E94CF1D0E94C6
:103150001F1F7093E6036093E5030DED13E02FED61
:1031600033E041EE53E063EE73E08EE995E00E94B8
:103170007A116091E3037091E40390E080E00E9493
:10318000441C26ED39E346EA5EEB0E94A51C6B0168
:103190007C016091E1037091E20390E080E00E9485
:1031A000441C27E038E04AEC5FE30E94A51C9B0129
:1031B000AC01C701B6010E94CF1D6B017C0160917B
:1031C000DF037091E00390E080E00E94441C24E75C
:1031D0003EE54BE35FEB0E94A51C9B01AC01C701E0
:1031E000B6010E94CF1D0E941F1F7093DC036093E5
:1031F000DB0383E492E00E94A81087E592E00E943E
:10320000B6108091E5039091E6030E9494108DE53D
:1032100092E00E94B61081E692E00E94B610809182
:10322000ED039091EE030E9494108FE592E00E94CE
:10323000B61085E692E00E94B6108091EB03909163
:10324000EC030E9494108FE592E00E94B61089E68C
:1032500092E00E94B6108091E9039091EA030E94E7
:1032600094108FE592E00E94B6108DE692E00E94E5
:10327000B6108091E7039091E8030E9494108FE5C7
:1032800092E00E94B6108FE592E00E94A81081E7BC
:1032900092E00E94A81087E592E00E94B61080910B
:1032A000DB039091DC030E9494108DE592E00E9474
:1032B000B61081E692E00E94B6108091E3039091EF
:1032C000E4030E9494108FE592E00E94B61085E618
:1032D00092E00E94B6108091E1039091E2030E9477
:1032E00094108FE592E00E94B61089E692E00E9469
:1032F000B6108091DF039091E0030E9494108FE557
:1033000092E00E94B6108DE692E00E94B610809185
:10331000DD039091DE030E9494108FE592E00E94FD
:10332000B6108FE592E00E94A81086E892E00E9415
:10333000A81080EA92E00E94B6108091E10390917B
:10334000E2032091E3033091E403821B930B0E947C
:103350009A1089EA92E00E94B6108091E103909160
:10336000E2032091DF033091E003821B930B0E9464
:103370009A1082EB92E00E94A81080EA92E00E94EC
:10338000B6108091EB039091EC032091ED03309106
:10339000EE03821B930B0E949A1089EA92E00E942E
:1033A000B6108091EB039091EC032091E9033091EA
:1033B000EA03821B930B0E949A1064EF71E080E095
:1033C00090E00E949B0269E072E090E080E00E9441
:1033D0002A1267E072E082E090E00E942A1265E023
:1033E00072E084E090E00E942A1263E072E086E0DE
:1033F00090E00E942A1261E072E088E090E00E9472
:103400002A1273E0A72EB12C44244A94542C320182
:10341000F9EACF2EF9E2DF2EA6E98A2EA1E09A2E54
:103420000BEC12E0B5E8EB2EB2E0FB2E809100022F
:10343000803209F08AC0F401349037FEE3C06DE7B2
:1034400070E080E090E00E949B0280E20E94DA023D
:103450006DE770E080E090E00E949B0281E0A81A96
:10346000B10821F768E070E085E995E00E94A309C2
:103470006AE070E082E995E00E94A3096CE070E0E8
:103480008FE895E00E94A3098BEC92E00E94A810BF
:1034900064EB70E085E995E00E94400968EE73E016
:1034A00080E090E00E949B0264EC79E080E090E094
:1034B0000E949B028AED92E00E94A81070E060E0FA
:1034C00082E995E00E94400964EB70E08FE895E0A6
:1034D0000E94400968EE73E080E090E00E949B0249
:1034E00068E873E180E090E00E949B0288EE92E041
:1034F0000E94A81065E570E082E995E00E9440090D
:1035000065E570E08FE895E00E94400968EE73E0A1
:1035100080E090E00E949B0287EF92E00E94A8105A
:103520006AE570E085E995E00E94400968EE73E085
:1035300080E090E00E949B0260E27EE480E090E008
:103540000E949B020E943D048DCF8F3F09F077CFF0
:1035500080E280930002F4013490832DFFEF3F1648
:1035600009F46DCF22E0321609F47BC0231568F010
:10357000332091F131E0331609F456C087FD5FCF57
:1035800061E080E20E943A0244C094E0391609F4F6
:10359000A8C0391608F486C0E5E03E12EFCF1092BD
:1035A00020011092210180912101886080932101E6
:1035B00080912101816080932101F8018491E82F9D
:1035C000F0E0EE0FFF1FE55BFD4F85919491F70151
:1035D00084918093EF0316C014BC15BC84B582603F
:1035E00084BD85B5816085BDF8018491E82FF0E048
:1035F000EE0FFF1FE55BFD4F85919491F7018491DC
:103600008093F60361E080E20E943A02332009F4DD
:1036100085C0F2E03F1296C08091B100887F84603F
:103620008093B10085EA13C110928000109281004E
:103630008091810088608093810080918100816009
:1036400080938100F8018491E82FF0E0EE0FFF1FD6
:10365000E55BFD4F85919491F70184918093F5038B
:10366000D1CF1092B0001092B1008091B000826072
:103670008093B0008091B10081608093B100F80127
:103680008491E82FF0E0EE0FFF1FE55BFD4F859181
:1036900094919093F4038093F303F70184918093C2
:1036A000F203B0CF1092900010929100809191009F
:1036B0008860809391008091910081608093910057
:1036C000F8018491E82FF0E0EE0FFF1FE55BFD4F5E
:1036D00085919491F70184918093F10333E0332E27
:1036E00091CF1092A0001092A1008091A10088605B
:1036F0008093A1008091A10081608093A100F801D6
:103700008491E82FF0E0EE0FFF1FE55BFD4F859100
:103710009491F70184918093F00374CF85B5887FED
:10372000836085BD85EA87BD40920B0450920C04EE
:1037300060920D0470920E0480916E0082608093FE
:103740006E007DCE21E0321218C080918100887F0A
:10375000816080938100D0928900C092880040925D
:103760000704509208046092090470920A04809140
:103770006F00826080936F0062CE33E0331218C016
:1037800080919100887F816080939100D092990010
:10379000C09298004092FF0350920004609201048E
:1037A000709202048091710082608093710047CE14
:1037B00084E0381218C08091A100887F81608093D6
:1037C000A100D092A900C092A8004092FB035092A1
:1037D000FC036092FD037092FE0380917200826090
:1037E000809372002CCE95E0391218C0809121018F
:1037F000887F816080932101D0922901C0922801A5
:103800004092F7035092F8036092F9037092FA0322
:103810008091730082608093730011CEE2E03E16C7
:10382000A9F0E3153CF0332079F0F1E03F1609F4FC
:1038300092CF05CE24E0321621F232160CF4A6CF38
:1038400035E03316C9F2FBCD89EA6DCF89EA809362
:10385000B3004092030450920404609205047092F5
:10386000060480917000826080937000E8CD85EA44
:1038700095E00E94900887EE95E00C9490080E94D5
:10388000811C08F481E00895E89409C097FB3EF498
:1038900090958095709561957F4F8F4F9F4F99239D
:1038A000A9F0F92F96E9BB279395F695879577951B
:1038B0006795B795F111F8CFFAF4BB0F11F460FFDB
:1038C0001BC06F5F7F4F8F4F9F4F16C0882311F033
:1038D00096E911C0772321F09EE8872F762F05C047
:1038E000662371F096E8862F70E060E02AF09A95E2
:1038F000660F771F881FDAF7880F9695879597F9D7
:103900000895990F0008550FAA0BE0E8FEEF161670
:103910001706E807F907C0F012161306E407F507C3
:1039200098F0621B730B840B950B39F40A2661F037
:10393000232B242B252B21F408950A2609F4A140DA
:10394000A6958FEF811D811D08950E94B81C0C94CF
:10395000291D0E941B1D38F00E94221D20F0952376
:1039600011F00C94121D0C94181D11240C945D1D63
:103970000E943A1D70F3959FC1F3950F50E0551FBB
:10398000629FF001729FBB27F00DB11D639FAA27B4
:10399000F00DB11DAA1F649F6627B00DA11D661F03
:1039A000829F2227B00DA11D621F739FB00DA11D24
:1039B000621F839FA00D611D221F749F3327A00DDE
:1039C000611D231F849F600D211D822F762F6A2F7A
:1039D00011249F5750409AF0F1F088234AF0EE0FDF
:1039E000FF1FBB1F661F771F881F91505040A9F70C
:1039F0009E3F510580F00C94121D0C945D1D5F3F9D
:103A0000E4F3983ED4F3869577956795B795F79547
:103A1000E7959F5FC1F7FE2B880F911D96958795BF
:103A200097F9089597F99F6780E870E060E008953E
:103A30009FEF80EC089500240A94161617061806C6
:103A40000906089500240A941216130614060506A2
:103A50000895092E0394000C11F4882352F0BB0F33
:103A600040F4BF2B11F460FF04C06F5F7F4F8F4F96
:103A70009F4F089557FD9058440F551F59F05F3FD1
:103A800071F04795880F97FB991F61F09F3F79F080
:103A900087950895121613061406551FF2CF469502
:103AA000F1DF08C0161617061806991FF1CF869584
:103AB0007105610508940895E894BB276627772768
:103AC000CB0197F90895F999FECF92BD81BDF89A7F
:103AD000992780B50895052E97FB1EF400940E9447
:103AE000821D57FD07D00E949D1D07FC03D04EF498
:103AF0000C94821D50954095309521953F4F4F4F26
:103B00005F4F089590958095709561957F4F8F4F89
:103B10009F4F08950E94BF1DA59F900DB49F900DCB
:103B2000A49F800D911D11240895B7FF0C948A1D48
:103B30000E948A1D821B930B0895A1E21A2EAA1BD4
:103B4000BB1BFD010DC0AA1FBB1FEE1FFF1FA2174D
:103B5000B307E407F50720F0A21BB30BE40BF50B4A
:103B6000661F771F881F991F1A9469F760957095D3
:103B7000809590959B01AC01BD01CF010895A29F56
:103B8000B001B39FC001A39F700D811D1124911D31
:103B9000B29F700D811D1124911D08955058BB27AF
:103BA000AA270E94E61D0C94291D0E941B1D38F0B7
:103BB0000E94221D20F039F49F3F19F426F40C9442
:103BC000181D0EF4E095E7FB0C94121DE92F0E94DE
:103BD0003A1D58F3BA17620773078407950720F058
:103BE00079F4A6F50C945C1D0EF4E0950B2EBA2F1B
:103BF000A02D0B01B90190010C01CA01A0011124F3
:103C0000FF27591B99F0593F50F4503E68F11A169E
:103C1000F040A22F232F342F4427585FF3CF46952F
:103C200037952795A795F0405395C9F77EF41F1651
:103C3000BA0B620B730B840BBAF09150A1F0FF0F1B
:103C4000BB1F661F771F881FC2F70EC0BA0F621F07
:103C5000731F841F48F4879577956795B795F795F7
:103C60009E3F08F0B0CF9395880F08F09927EE0F8C
:103C70009795879508950E941B1D60F080E891E05C
:103C800009F49EEF0E94221D28F040E851E071F4F3
:103C90005EEF0CC00C94181D0C945C1DE92FE078AD
:103CA0000E943A1D40F3092E052AB1F32617370763
:103CB0004807590738F00E2E07F8E02569F0E0258F
:103CC000E0640AC0EF6307F8009407FADB01B9016A
:103CD0009D01DC01CA01AD01EF930E94C41E0E9448
:103CE000291D0E947E1E5F91552339F02BED3FE088
:103CF00049E450FD49EC0C94CF1D0895DF93DD2776
:103D0000B92FBF7740E85FE31616170648075B0731
:103D100018F4D92F0E947A1F9F938F937F936F93EC
:103D20000E94C81FE4EEF0E00E944E1F0E94291D71
:103D30002F913F914F915F910E94B81CDD2351F06C
:103D40009058A2EA2AED3FE049EC5FE3D0785D2786
:103D50000E94E61DDF910C94291D0E94C11E0C9447
:103D6000291D0E94221D58F00E941B1D40F029F4BD
:103D70005F3F29F00C94121D51110C945D1D0C94A1
:103D8000181D0E943A1D68F39923B1F3552391F34E
:103D9000951B550BBB27AA2762177307840738F0BA
:103DA0009F5F5F4F220F331F441FAA1FA9F335D017
:103DB0000E2E3AF0E0E832D091505040E695001CCB
:103DC000CAF72BD0FE2F29D0660F771F881FBB1F85
:103DD000261737074807AB07B0E809F0BB0B802D63
:103DE000BF01FF2793585F4F3AF09E3F510578F08F
:103DF0000C94121D0C945D1D5F3FE4F3983ED4F3C8
:103E0000869577956795B795F7959F5FC9F7880F62
:103E1000911D9695879597F90895E1E0660F771FB4
:103E2000881FBB1F621773078407BA0720F0621B45
:103E3000730B840BBA0BEE1F88F7E09508950E9470
:103E4000421D88F09F5798F0B92F9927B751B0F0CD
:103E5000E1F0660F771F881F991F1AF0BA95C9F70E
:103E600014C0B13091F00E945C1DB1E008950C9433
:103E70005C1D672F782F8827B85F39F0B93FCCF3E6
:103E8000869577956795B395D9F73EF4909580958B
:103E9000709561957F4F8F4F9F4F0895DF93CF931C
:103EA0001F930F93FF92EF92DF927B018C01689436
:103EB00006C0DA2EEF010E94B81CFE01E894A5911D
:103EC0002591359145915591A6F3EF010E94E61D8C
:103ED000FE019701A801DA9469F7DF90EF90FF9057
:103EE0000F911F91CF91DF9108950E94811C08F4DA
:103EF0008FEF08959B01AC0160E070E080E89FE3E4
:103F00000C94AD1E19F416F40C94181D0C94CC1FCF
:103F10000E94421DB8F39923C9F3B6F39F57550B7E
:103F200087FF0E94DA1F0024A0E640EA9001805833
:103F30005695979528F4805C660F771F881F20F0B0
:103F400026173707480730F4621B730B840B2029B0
:103F500031294A2BA69517940794202531254A2705
:103F600058F7660F771F881F20F026173707480776
:103F700030F4620B730B840B200D311D411DA09595
:103F800081F7B901842F9158880F969587950895E8
:103F90009B01AC010C94A51C9F3F31F0915020F483
:103FA000879577956795B795880F911D9695879515
:103FB00097F9089591505040660F771F881FD2F7E8
:103FC0000895991B79E004C0991F961708F0961B75
:103FD000881F7A95C9F780950895EE0FFF1F881FF7
:103FE0008BBF0790F691E02D199411E0CAE7D1E05C
:103FF00000E006C0802FFE010E94ED1F2196011DEA
:10400000CB37D10780E00807A9F7F894FFCFFF0F5F
:1040100000FA0096008C003C0016001700180019EA
:10402000001A0000000000B5031F034C031D047DAF
:10403000035B036F0300000000460619067506EFD8
:10404000051206FF05F0050D0A00446F6E65210A92
:10405000002A53656E736F72203031204469726993
:104060006574612A004C75783A2000202D2000529A
:104070003A2000473A2000423A2000433A20002AE2
:1040800053656E736F72203032204573717565729F
:1040900064612A002D2D2D4469666572656EC3A783
:1040A000612045737175657264612D2D2D00472067
:1040B0002D2052203D200047202D2042203D200071
:1040C0002D2D2D4469666572656EC3A76120446914
:1040D00072656974612D2D2D0044657363656E648E
:1040E0006F20476172726100416272696E646F2075
:1040F00047617272610046656368616E646F204754
:1041000061727261004761727261204D65696F0072
:020000040003F7
:10E000000D9489F10D94B2F10D94B2F10D94B2F129
:10E010000D94B2F10D94B2F10D94B2F10D94B2F1F0
:10E020000D94B2F10D94B2F10D94B2F10D94B2F1E0
:10E030000D94B2F10D94B2F10D94B2F10D94B2F1D0
:10E040000D94B2F10D94B2F10D94B2F10D94B2F1C0
:10E050000D94B2F10D94B2F10D94B2F10D94B2F1B0
:10E060000D94B2F10D94B2F10D94B2F10D94B2F1A0
:10E070000D94B2F10D94B2F10D94B2F10D94B2F190
:10E080000D94B2F10D94B2F10D94B2F10D94B2F180
:10E090000D94B2F10D94B2F10D94B2F10D94B2F170
:10E0A0000D94B2F10D94B2F10D94B2F10D94B2F160
:10E0B0000D94B2F10D94B2F10D94B2F10D94B2F150
:10E0C0000D94B2F10D94B2F10D94B2F10D94B2F140
:10E0D0000D94B2F10D94B2F10D94B2F10D94B2F130
:10E0E0000D94B2F141546D656761323536300041AF
:10E0F000726475696E6F206578706C6F72657220DE
:10E1000073746B3530305632206279204D4C530099
:10E11000426F6F746C6F616465723E004875683F52
:10E1200000436F6D70696C6564206F6E203D200048
:10E130004350552054797065202020203D20005FF9
:10E140005F4156525F415243485F5F3D2000415658
:10E1500052204C696243205665723D20004743437C
:10E160002056657273696F6E203D20004350552024
:10E1700049442020202020203D20004C6F7720663D
:10E18000757365202020203D20004869676820665F
:10E190007573652020203D200045787420667573D6
:10E1A00065202020203D20004C6F636B2066757336
:10E1B000652020203D20004D617220203720323024
:10E1C000313300312E362E3800342E332E350056A2
:10E1D00023202020414444522020206F7020636F70
:10E1E00064652020202020696E73747275637469E1
:10E1F0006F6E2061646472202020496E74657272B3
:10E20000757074006E6F20766563746F7200726A49
:10E210006D702020006A6D70200057686174207056
:10E220006F72743A00506F7274206E6F7420737541
:10E2300070706F72746564004D7573742062652030
:10E2400061206C6574746572002000577269747483
:10E25000696E672045450052656164696E672045B7
:10E26000450045452065727220636E743D00504F35
:10E27000525400303D5A65726F2061646472003FF1
:10E280003D43505520737461747300403D454550C3
:10E29000524F4D207465737400423D426C696E6B41
:10E2A000204C454400453D44756D70204545505215
:10E2B0004F4D00463D44756D7020464C415348001B
:10E2C000483D48656C70004C3D4C69737420492F83
:10E2D0004F20506F72747300513D51756974005234
:10E2E0003D44756D702052414D00563D73686F7707
:10E2F00020696E7465727275707420566563746FF0
:10E30000727300593D506F727420626C696E6B00BD
:10E310002A0011241FBECFEFD1E2DEBFCDBF01E046
:10E320000CBF12E0A0E0B2E0EEE1FDEF03E00BBFB6
:10E3300002C007900D92A030B107D9F712E0A0E01B
:10E34000B2E001C01D92AE30B107E1F70F9460F367
:10E350000D948DFE01E20EBF0FEF0DBF11241FBE05
:10E360000D9460F30D9400F020E030E040ED57E0B4
:10E3700005C0FA013197F1F72F5F3F4F2817390792
:10E38000C0F308959C01260F311DC901A0E0B0E043
:10E390002F5F3F4FABBFFC018791882361F08093D3
:10E3A000C6008091C00086FFFCCF8091C0008064D1
:10E3B0008093C000EACF08958DE08093C6008091DD
:10E3C000C00086FFFCCF8091C00080648093C000B5
:10E3D0008AE08093C6008091C00086FFFCCF8091C8
:10E3E000C00080648093C00008950F94C2F10F9420
:10E3F000DCF10895FC019081992359F09093C600B7
:10E400008091C00086FFFCCF8091C0008064809323
:10E41000C0003196992379F70895282F982F929567
:10E420009F70892F805D8A3308F0895F8093C600D2
:10E430008091C00086FFFCCF8091C00080648093F3
:10E44000C000822F8F70982F905D9A3308F0995FEB
:10E450009093C6008091C00086FFFCCF8091C000E1
:10E4600080648093C00008959C01FB01853691056E
:10E470001CF46330710594F0C90164E670E00F94F8
:10E480002EFE605D7F4F6093C6008091C00086FFC6
:10E49000FCCF8091C00080648093C0002B30310598
:10E4A00014F43297B4F0C90164E670E00F942EFEC4
:10E4B0006AE070E00F942EFE605D7F4F6093C600AF
:10E4C0008091C00086FFFCCF8091C0008064809363
:10E4D000C000C9016AE070E00F942EFEC0968093E0
:10E4E000C6008091C00086FFFCCF8091C000806490
:10E4F0008093C00008951F93182F8EE692EE60E07F
:10E500000F94C2F11093C6008091C00086FFFCCF2B
:10E510008091C00080648093C0000F94DCF11F9153
:10E5200008952F923F924F925F926F927F928F92B7
:10E530009F92AF92BF92CF92DF92EF92FF920F9392
:10E540001F93DF93CF93CDB7DEB762970FB6F894E2
:10E55000DEBF0FBECDBF382E622ECA01DB015C01CB
:10E560006D01772420E2222E2E010894411C511CBB
:10E570008BC081E0A81680E0B80681E0C80680E084
:10E58000D80628F0C601AA27BB270F940DF2BB2797
:10E59000AD2D9C2D8B2D0F940DF28A2D0F940DF225
:10E5A0002092C6008091C00086FFFCCF8091C00001
:10E5B00080648093C0009DE29093C6008091C0006B
:10E5C00086FFFCCF8091C00080648093C0002092C1
:10E5D000C6008091C00086FFFCCF8091C00080649F
:10E5E0008093C00019828601750188249924A1E0D6
:10E5F0003A1651F03A1620F0B2E03B1661F409C029
:10E600000BBFF701779007C0C7010F9477FE782EF4
:10E6100002C0F7017080872D0F940DF22092C60082
:10E620008091C00086FFFCCF8091C0008064809301
:10E63000C000872D8052F401EF70F0708F3520F408
:10E64000E40DF51D708204C0E40DF51D8EE280839B
:10E650000894E11CF11C011D111D0894811C911CE2
:10E6600090E18916910409F0C2CF80E190E0A0E02A
:10E67000B0E0A80EB91ECA1EDB1E198AC2010F9493
:10E68000FAF10F94DCF16A94662009F072CF629679
:10E690000FB6F894DEBF0FBECDBFCF91DF911F91B3
:10E6A0000F91FF90EF90DF90CF90BF90AF909F9031
:10E6B0008F907F906F905F904F903F902F90089534
:10E6C0002F923F924F925F926F927F928F929F9282
:10E6D000AF92BF92CF92DF92EF92FF920F931F9370
:10E6E000DF93CF93CDB7DEB7CD53D1400FB6F894BB
:10E6F000DEBF0FBECDBF01E20EBF0FEF0DBF94B75F
:10E70000F894A89514BE80916000886180936000A1
:10E7100010926000789493FF05C0E0910002F091A0
:10E7200001021995279A2F9A8091C00082608093E8
:10E73000C00080E18093C40088E18093C1000000A4
:10E74000EE24FF24870144E0A42EB12CCC24DD2448
:10E7500024C0C5010197F1F70894E11CF11C011DCB
:10E76000111D21E2E2162EE4F20620E0020720E06D
:10E77000120718F031E0C32ED12CC801B70127ECE5
:10E780003BE140E050E00F9441FE611571058105C9
:10E79000910519F485B1805885B98091C00087FD35
:10E7A00003C0C114D104A9F2A6014F5F5F4FC25E3E
:10E7B000DE4F59834883CE51D140C25EDE4F8881FF
:10E7C0009981CE51D140019711F00D9410FEC05D9A
:10E7D000DE4F19821882C053D14060E0C15DDE4F28
:10E7E0001882CF52D14088249924C35DDE4F19820C
:10E7F0001882CD52D140C05EDE4F188219821A8233
:10E800001B82C052D140CE5CDE4F188219821A8220
:10E810001B82C253D140EE24FF2487010BBFF701B6
:10E8200007911691C45CDE4F19830883CC53D14005
:10E830000D940BFEC25EDE4F28813981CE51D1404E
:10E840002130310509F52091C600C25EDE4F1982E4
:10E850001882CE51D14022C02F5F3F4F4F4F5F4FA4
:10E86000213082E138078AE7480780E0580780F0C6
:10E87000C45CDE4FE881F981CC53D140EF5FFF4F9C
:10E8800019F0EE27FF27099420E030E040E050E047
:10E890008091C00087FFE0CF2091C600C35DDE4FAE
:10E8A00048815981CD52D1404F5F5F4FC35DDE4FEC
:10E8B00059834883CD52D140213209F063C64A3092
:10E8C000510508F05FC60894811C911C53E0851621
:10E8D000910409F059C600E010E018C081E280936D
:10E8E000C6008091C00086FFFCCF8091C00080648C
:10E8F0008093C0002F5F3F4F2931310579F70F9486
:10E90000DCF10F5F1F4F0530110519F020E030E0FA
:10E91000E5CF10920A0210920B0210920C02109294
:10E920000D02109206021092070210920802109235
:10E930000902109202021092030210920402109235
:10E9400005028FEE90EE60E00F94F5F180E191EE1C
:10E9500060E00F94C2F18091C00087FFFCCF9091DE
:10E96000C600903608F09F759032B8F09093C600BC
:10E970008091C00086FFFCCF8091C00080648093AE
:10E98000C000A0E2A093C6008091C00086FFFCCF2B
:10E990008091C00080648093C000983409F4D7C18E
:10E9A0009934B8F4923409F459C1933458F490333B
:10E9B00019F1903308F4E3C59F33A1F1903409F0C5
:10E9C000DEC5BDC0953409F470C1963409F0D7C5D1
:10E9D00098C1923509F42BC2933538F49C3409F46C
:10E9E000F5C1913509F0CBC518C2963509F445C279
:10E9F000993509F0C4C567C483E792EE62E00F94CD
:10EA0000F5F110920602109207021092080210927D
:10EA1000090210920A0210920B0210920C0210923C
:10EA20000D0213C18FE792EE62E00F94F5F18FEEC5
:10EA300090EE60E00F94F5F181E291EE60E00F94CA
:10EA4000C2F187EB91EE60E00F94F5F180E391EE77
:10EA500060E00F94C2F184EE90EE60E00F94F5F167
:10EA60008FE391EE60E00F94C2F186E090E061E008
:10EA700070E00F9434F20F94DCF18DE591EE60E0DC
:10EA80000F94C2F189EC91EE60E00F94F5F18EE401
:10EA900091EE60E00F94C2F183EC91EE60E00F9490
:10EAA000F5F18CE691EE60E00F94C2F18EE10F94E7
:10EAB0000DF288E90F940DF281E00F940DF20F949E
:10EAC000DCF18BE791EE60E00F94C2F119E0E0E039
:10EAD000F0E010935700E4918E2F0F940DF20F94F5
:10EAE000DCF18AE891EE60E00F94C2F1E3E0F0E03F
:10EAF00010935700E4918E2F0F940DF20F94DCF1D8
:10EB000089E991EE60E00F94C2F1E2E0F0E0109349
:10EB10005700E4918E2F0F940DF20F94DCF188EAE8
:10EB200091EE60E00F94C2F1E1E0F0E01093570045
:10EB30001491812F0F940DF20F94DCF107CF8BE825
:10EB400092EE62E00F94F5F18BE492EE60E00F94A8
:10EB5000F5F10F94DCF100E010E019C0C8016F2D51
:10EB60000F947FFEFF2031F489E492EE60E00F9471
:10EB7000C2F10BC0F092C6008091C00086FFFCCFAE
:10EB80008091C00080648093C0000F5F1F4FC80158
:10EB900081519F41A0E0B0E0ABBFFC01F790BAE229
:10EBA000FB1621F0E2E000301E07C1F60F94DCF105
:10EBB0000F94DCF187E592EE60E00F94F5F10F948D
:10EBC000DCF1CC24DD2400E010E01EC0C8010F946D
:10EBD00077FEF82E882331F489E492EE60E00F94FA
:10EBE000C2F10BC08093C6008091C00086FFFCCFAD
:10EBF0008091C00080648093C000FE1419F00894D6
:10EC0000C11CD11C0F5F1F4FC80181519F41A0E063
:10EC1000B0E0ABBFFC01E790FAE2EF1621F022E092
:10EC20000030120799F60F94DCF10F94DCF182E6C4
:10EC300092EE60E00F94C2F1C60161E070E00F94C3
:10EC400034F20F94DCF10F94DCF110920202109276
:10EC50000302109204021092050278CE89E992EE26
:10EC600062E00F94F5F1279A2F9A16C02F9880E052
:10EC700090E0E0EDF7E03197F1F7019684369105E9
:10EC8000C1F72F9A80E090E0E0EDF7E03197F1F7DF
:10EC9000019684369105C1F78091C00087FFE6CFC9
:10ECA0008091C00087FFFCCF64C485EA92EE62E0E9
:10ECB0000F94F5F140910202509103026091040219
:10ECC0007091050281E020E10F9491F2809102029F
:10ECD00090910302A0910402B091050280509F4FD1
:10ECE000AF4FBF4F8093020290930302A0930402A0
:10ECF000B093050280509041A040B04008F426CE69
:10ED0000A4CF83EB92EE62E00F94F5F140910602FE
:10ED100050910702609108027091090280E020E1A1
:10ED20000F9491F28091060290910702A09108023F
:10ED3000B091090280509F4FAF4FBF4F80930602A2
:10ED400090930702A0930802B0930902FFCD80ECD4
:10ED500092EE62E00F94F5F183E792EE60E00F949B
:10ED6000F5F18FE792EE60E00F94F5F18BE892EE0B
:10ED700060E00F94F5F189E992EE60E00F94F5F10F
:10ED800085EA92EE60E00F94F5F183EB92EE60E09D
:10ED90000F94F5F180EC92EE60E00F94F5F187ECC2
:10EDA00092EE60E00F94F5F188ED92EE60E00F9442
:10EDB000F5F18FED92EE60E00F94F5F18AEE92EEB0
:10EDC00060E00F94F5F183E093EEBDCD87EC92EE19
:10EDD00062E00F94F5F181E40F947BF282E40F94EA
:10EDE0007BF283E40F947BF284E40F947BF285E45E
:10EDF0000F947BF286E40F947BF287E40F947BF20E
:10EE000088E40F947BF28AE40F947BF28BE40F94F6
:10EE10007BF28CE40F947BF299CD88ED92EE62E068
:10EE20000F94F5F1772473948824992409C48FED05
:10EE300092EE62E00F94F5F140910A0250910B02BC
:10EE400060910C0270910D0282E020E10F9491F22A
:10EE500080910A0290910B02A0910C02B0910D02D8
:10EE600080509F4FAF4FBF4F80930A0290930B0289
:10EE7000A0930C02B0930D0269CD8AEE92EE62E08F
:10EE80000F94F5F184EE90EE60E00F94F5F18FECC5
:10EE900091EE60E00F94F5F1662477244301CC5D98
:10EEA000DE4F19821882C452D140D401C301B695F5
:10EEB000A79597958795CA5DDE4F88839983AA8326
:10EEC000BB83C652D140CC5DDE4FA881B981C4520C
:10EED000D1401196CC5DDE4FB983A883C452D14096
:10EEE000CD0162E070E00F9434F2B0E2B093C6005E
:10EEF0008091C00086FFFCCF8091C0008064809329
:10EF0000C000EDE2E093C6008091C00086FFFCCF18
:10EF10008091C00080648093C000F0E2F093C6004E
:10EF20008091C00086FFFCCF8091C00080648093F8
:10EF3000C000CA5DDE4FE880F9800A811B81C6529D
:10EF4000D140BB27A12F902F8F2D0F940DF2CA5DBA
:10EF5000DE4F8881C652D1400F940DF2B0E2FB2EF5
:10EF6000F092C6008091C00086FFFCCF8091C00067
:10EF700080648093C0000DE30093C6008091C000C0
:10EF800086FFFCCF8091C00080648093C00010E2B7
:10EF90001093C6008091C00086FFFCCF8091C00016
:10EFA00080648093C0008BBEF3012791C65DDE4F65
:10EFB0002883CA52D140A22EBB24CC24DD2408943D
:10EFC000611C711C811C911C8BBEF3018791282E42
:10EFD0003324442455240894611C711C811C911C09
:10EFE0008BBEF3013791C55DDE4F3883CB52D140E4
:10EFF0000894611C711C811C911C8BBEF30147910C
:10F00000C45DDE4F4883CC52D140ADEFEA2EAFEF66
:10F01000FA2EAFEF0A2FAFEF1A2F6E0C7F1C801E57
:10F02000911E142D032DF22CEE24EA0CFB1C0C1D5A
:10F030001D1D0F940DF220E22093C6008091C000A8
:10F0400086FFFCCF8091C00080648093C000C65DC5
:10F05000DE4F8881CA52D1400F940DF230E23093D6
:10F06000C6008091C00086FFFCCF8091C000806404
:10F070008093C000C45DDE4F8881CC52D1400F9494
:10F080000DF240E24093C6008091C00086FFFCCFA5
:10F090008091C00080648093C000C55DDE4F888190
:10F0A000CB52D1400F940DF250E25093C6008091A4
:10F0B000C00086FFFCCF8091C00080648093C000B8
:10F0C0008FEFE8168FEFF80680E0080780E018075A
:10F0D00031F484E092EE60E00F94C2F1DFC0D80119
:10F0E000C7018070907CA070B0708050904CA040A0
:10F0F000B040D1F52FEF3FE340E050E0E222F322B1
:10F1000004231523CA5DDE4FA880B980CA80DB8046
:10F11000C652D140AE0CBF1CC01ED11EAA0CBB1CD7
:10F12000CC1CDD1C8EE092EE60E00F94C2F1BB2798
:10F13000A12F902F8F2D0F940DF28E2D0F940DF285
:10F1400030E23093C6008091C00086FFFCCF8091F2
:10F15000C00080648093C0004EE34093C60080915D
:10F16000C00086FFFCCF87C08EE09EEFA0E0B0E03D
:10F17000E822F9220A231B239CE0E91694E9F90608
:10F1800090E0090790E0190709F088C0C45DDE4FE0
:10F19000A881CC52D140EA2EFF2400E010E0102FCD
:10F1A0000F2DFE2CEE24C55DDE4FB881CB52D14031
:10F1B000EB0EF11C011D111DD601C501817090706F
:10F1C000A070B070DC0199278827E80EF91E0A1F8D
:10F1D0001B1F20EF30E040E050E0A222B322C42207
:10F1E000D52241E1AA0CBB1CCC1CDD1C4A95D1F7F1
:10F1F000EA0CFB1C0C1D1D1D81E090E0A0E0B0E0BE
:10F20000282239224A225B2235E1220C331C441C7D
:10F21000551C3A95D1F7E20CF31C041D151D57013E
:10F220006801AA0CBB1CCC1CDD1C85E192EE60E0E1
:10F230000F94C2F1C801AA27BB270F940DF2BB2778
:10F24000A12F902F8F2D0F940DF28E2D0F940DF274
:10F2500090E29093C6008091C00086FFFCCF809121
:10F26000C00080648093C000AEE3A093C60080918C
:10F27000C00086FFFCCF8091C00080648093C000F6
:10F28000C601AA27BB270F940DF2BB27AD2D9C2DDD
:10F290008B2D0F940DF28A2D0F940DF20F94DCF14B
:10F2A000CC5DDE4FE881F981C452D140F99709F471
:10F2B0004DCBF4E0EF2EF12C012D112D6E0C7F1CA7
:10F2C000801E911EF2CD83E093EE62E00F94F5F183
:10F2D0008AE192EE60E00F94C2F18091C00087FF56
:10F2E000FCCF1091C6001F751093C6008091C0001E
:10F2F00086FFFCCF8091C00080648093C0000F9493
:10F30000DCF1812F81548A3108F036C1163409F4BA
:10F3100095C0173490F4133409F44EC0143430F40B
:10F320001134F1F0123409F01DC130C0143409F465
:10F3300059C0153409F016C16BC01A3409F4C4C0A1
:10F340001B3438F4173409F48FC0183409F00AC19B
:10F35000A1C01B3409F4D2C01C3409F003C1E8C0B9
:10F360008FEF81B90DC082B1809582B980E090E0C5
:10F37000E0EDF7E03197F1F70196883C9105C1F790
:10F380008091C00087FFEFCF12B8EFC08FEF84B934
:10F390000DC085B1809585B980E090E0E0EDF7E0A3
:10F3A0003197F1F70196883C9105C1F78091C00033
:10F3B00087FFEFCF15B8D9C08FEF87B90DC088B1DF
:10F3C000809588B980E090E0E0EDF7E03197F1F7C3
:10F3D0000196883C9105C1F78091C00087FFEFCF6F
:10F3E00018B8C3C08FEF8AB90DC08BB180958BB9A7
:10F3F00080E090E0E0EDF7E03197F1F70196883C8E
:10F400009105C1F78091C00087FFEFCF1BB8ADC059
:10F410008FEF8DB90DC08EB180958EB980E090E0F0
:10F42000E0EDF7E03197F1F70196883C9105C1F7DF
:10F430008091C00087FFEFCF1EB897C08FEF80BBD1
:10F440000DC081B3809581BB80E090E0E0EDF7E0F6
:10F450003197F1F70196883C9105C1F78091C00082
:10F4600087FFEFCF11BA81C08FEF83BB0DC084B38C
:10F47000809584BB80E090E0E0EDF7E03197F1F714
:10F480000196883C9105C1F78091C00087FFEFCFBE
:10F4900014BA6BC08FEF809301010FC080910201FD
:10F4A00080958093020180E090E0E0EDF7E03197F5
:10F4B000F1F70196883C9105C1F78091C00087FF64
:10F4C000EDCF1092020151C08FEF809304010FC065
:10F4D0008091050180958093050180E090E0E0ED4A
:10F4E000F7E03197F1F70196883C9105C1F78091DB
:10F4F000C00087FFEDCF1092050137C08FEF8093DA
:10F5000007010FC08091080180958093080180E079
:10F5100090E0E0EDF7E03197F1F70196883C910536
:10F52000C1F78091C00087FFEDCF109208011DC088
:10F530008FEF80930A010FC080910B01809580931B
:10F540000B0180E090E0E0EDF7E03197F1F70196F4
:10F55000883C9105C1F78091C00087FFEDCF1092E4
:10F560000B0103C085E292EEEEC98091C00087FFD7
:10F57000FCCF8091C600EAC988E392EEE4C98CE131
:10F5800091EEE1C988249924933011F1943028F444
:10F59000913089F09230B8F408C0953061F195301F
:10F5A000F0F0963009F048C043C02B3109F042C951
:10F5B00091E06BE13FC96227C15DDE4F2883CF52E6
:10F5C000D14092E037C9B22FA0E0622793E032C960
:10F5D000822F90E0A82BB92B622794E02BC92E3004
:10F5E00009F039C3622795E0C05DDE4F19821882A9
:10F5F000C053D1401FC9E1E0F0E0EC0FFD1FC05D3A
:10F60000DE4F08811981C053D140E00FF11F2083E4
:10F610000F5F1F4FC05DDE4F19830883C053D14079
:10F6200062270A171B0709F005C9D80196E002C92D
:10F63000261709F010C303C0973009F0FBC87724E0
:10F640009981933109F412C19431C8F4963009F4C8
:10F65000D8C0973050F4923009F406C1933009F4C1
:10F660006DC0913009F059C253C0913109F477C08F
:10F67000923108F0BBC0903109F04FC2F5C098310B
:10F6800009F487C0993150F4953109F4EFC09531F0
:10F6900008F4C6C1963109F040C2C2C19A3109F4DA
:10F6A0006CC09A3108F491C09B3109F45BC09D3164
:10F6B00009F033C29D81903359F48F81882311F46E
:10F6C0009EE11CC0813011F091E018C098E916C08D
:10F6D000892F807591F0903539F4E0E0F0E089E011
:10F6E0008093570094910AC0983539F4E3E0F0E034
:10F6F00089E080935700949101C090E01A821B82A8
:10F700008D818C831D829E831F8227E030E009C299
:10F710001A8288E08B8381E48C8386E58D8382E581
:10F720008E8389E48F8383E5888780E589878FE5E9
:10F730008A8782E38B872BE030E0F3C18A818139AD
:10F7400041F0823941F0803911F48FE005C080E04A
:10F7500003C082E001C08AE01A828B8344C0772410
:10F76000739482C08D81882311F48EE12CC0813086
:10F7700011F081E028C088E926C01A82E1E0F0E0BB
:10F7800089E08093570084918B831C8224E030E0D1
:10F79000C8C18B81803589F48C81883039F4E2E0EE
:10F7A000F0E089E08093570084910DC0E0E0F0E044
:10F7B00089E080935700849106C0E3E0F0E089E09F
:10F7C0008093570084911A82DFCF8D81836C99E0FA
:10F7D000E1E0F0E0082E90935700E89507B600FCB2
:10F7E000FDCF1A821B8223E030E09BC180EC8A832C
:10F7F000CE5CDE4F188219821A821B82C253D1401E
:10F800008EC18A8190E0A0E0B0E0582F44273327D2
:10F8100022278B8190E0A0E0B0E0DC0199278827C7
:10F82000282B392B4A2B5B2B8D8190E0A0E0B0E098
:10F83000282B392B4A2B5B2B8C8190E0A0E0B0E089
:10F84000BA2FA92F982F8827282B392B4A2B5B2BCF
:10F85000220F331F441F551FC05EDE4F288339839C
:10F860004A835B83C052D1401A8259C13A81C95C34
:10F87000DE4F3883C753D140CA5CDE4F1882C6536F
:10F88000D1408B81C82EDD24CA5CDE4F488159816E
:10F89000C653D140C42AD52A933109F082C0CE5C28
:10F8A000DE4F88819981AA81BB81C253D1408050AB
:10F8B000904CA340B04030F583E0CE5CDE4FE88052
:10F8C000F9800A811B81C253D140F70100935B008C
:10F8D00080935700E89507B600FCFDCFCE5CDE4F65
:10F8E000088119812A813B81C253D14000501F4FAA
:10F8F0002F4F3F4FCE5CDE4F088319832A833B8313
:10F90000C253D140C05EDE4F488159816A817B81FC
:10F91000C052D140DE011B9631E08C9111962C91A2
:10F9200011971296C75CDE4F2883C953D140C85C3B
:10F93000DE4F1882C853D14090E0C85CDE4FE881AA
:10F94000F981C853D1408E2B9F2B0C01FA01609393
:10F950005B0030935700E89511244E5F5F4F6F4F67
:10F960007F4F0EEFE02E0FEFF02ECE0CDF1CC114F8
:10F97000D10499F685E0C05EDE4F088119812A81A5
:10F980003B81C052D140F80120935B008093570027
:10F99000E89507B600FCFDCF81E180935700E8951C
:10F9A00035C0C05EDE4F88819981AA81BB81C0527B
:10F9B000D140B695A795979587957C018601ABE0D8
