:100000000C9484010C94B5010C94B5010C94B501C9
:100010000C94B5010C94B5010C94B5010C94B50188
:100020000C94B5010C94B5010C94B5010C94B50178
:100030000C94B5010C94EA120C94B5010C94B50122
:100040000C94B5010C9495150C94B5010C94B50164
:100050000C94B5010C94B5010C94B5010C94A0124C
:100060000C94B5010C94B1130C9487130C94B50146
:100070000C94B5010C94B5010C94B5010C94B50128
:100080000C9467150C94B5010C94B5010C94B50152
:100090000C94B5010C94B5010C94B5010C94E713C4
:1000A0000C94B5010C94B5010C9439150C94B50160
:1000B0000C94B5010C94B5010C94B5010C940B157E
:1000C0000C94B5010C94B5010C94B5010C94B501D8
:1000D0000C94B5010C94B5010C94B5010C94B501C8
:1000E0000C94B501084AD73B3BCE016E84BCBFFDE2
:1000F000C12F3D6C74319ABD56833DDA3D00C77FF8
:1001000011BED9E4BB4C3E916BAAAABE0000008090
:100110003F000C9421020C9433020C943F030C9486
:10012000EF020C9445060C94E7010C94ED020C943C
:100130000D020C9439020C944D030C94EE020C94B5
:1001400002020C94EC010C94ED030C941C030C942F
:1001500016060C94CF050C94C3150C94841C0C94B7
:1001600017020C942F020C942B020C94C0050C94D3
:10017000E9050C943D020C9485030C9413020C9435
:1001800025020C940A020C942B030C941D020C946F
:10019000BF050C9406020C94E2050C94FE010216B5
:1001A000001700180019001A0043616C63756C6138
:1001B00074696E67206F6666736574732C20646F54
:1001C000206E6F74206D6F7665204D50553630353A
:1001D00030004D505536303530207374617475736E
:1001E0003A200000000A0B02090C0D0E0807030458
:1001F00001000000000000000000000000000000FE
:1002000000000000000000000000000000000012DC
:1002100011100000000000000000000000000000BD
:100220000000000000000000000000200023002665
:100230000029002C002F00320000010000030106FD
:1002400001090100002100240027002A002D0030B0
:1002500000330001010000040107010A010000222F
:1002600000250028002B002E003100340002010080
:1002700000050108010B01010210202008081020D0
:100280004010204080020102010804020101020422
:1002900008102040808040201008040201800402E1
:1002A0000180402010080402010804020101020438
:1002B0000810204080010204081020408005050538
:1002C00005070508080808020202020A0A080804CD
:1002D00004040401010101010101010303030303FB
:1002E000030303040707070C0C0C0C0C0C0C0C028A
:1002F00002020206060606060606060B0B0B0B0B91
:100300000B0B0B00C315841C11241FBECFEFD1E2D1
:10031000DEBFCDBF00E00CBF13E0A0E0B2E0E6E03E
:10032000F1E400E00BBF02C007900D92AC31B107C1
:10033000D9F726E0ACE1B3E001C01D92A138B207C5
:10034000E1F711E0C3E8D1E000E006C02197010920
:10035000802FFE010E945520C238D10780E0080797
:10036000A9F70E949C160C9471200C940000282F71
:1003700030E0F901ED51FE4F9491F901E958FD4F3C
:10038000449123543D4FF9012491222309F435C0AF
:10039000992311F191509231F8F4E92FF0E0882778
:1003A000EB52FE4F8F4F0C94552006020A02E701D4
:1003B000FE010202EC010D02130217021D022102CE
:1003C00025022B022F02EC01330239023D028091FB
:1003D00080008F7780938000E22FF0E0EE0FFF1F08
:1003E000E35AFD4FA591B4918FB7F894EC91611148
:1003F00048C040954E234C938FBF08958091800054
:100400008F7DE8CF80918000877FE4CF84B58F77A0
:1004100084BDE2CF84B58F7DFBCF8091B0008F7714
:100420008093B000D9CF8091B0008F7DF9CF8091BB
:1004300090008F7780939000CFCF809190008F7D38
:10044000F9CF80919000877FF5CF8091A0008F77C2
:100450008093A000C1CF8091A0008F7DF9CF8091C3
:10046000A000877FF5CF809120018F7780932001B6
:10047000B3CF809120018F7DF9CF80912001877FBC
:10048000F5CF4E2BB8CFCF93DF9390E0FC01E95826
:10049000FD4F249183549D4FFC0184918823C9F022
:1004A00090E0880F991FFC01ED5BFD4FA591B49181
:1004B000FC01E35AFD4FC591D49161110DC09FB766
:1004C000F8948C91209582238C938881282328830B
:1004D0009FBFDF91CF910895623051F49FB7F89498
:1004E0003C91822F809583238C93E8812E2BEFCF34
:1004F0008FB7F894EC912E2B2C938FBFEACF8230DC
:10050000910538F0880F991F880F991F059701975B
:10051000F1F708953FB7F8948091560490915704ED
:10052000A0915804B091590426B5A89B05C02F3F4F
:1005300019F00196A11DB11D3FBFBA2FA92F982F09
:100540008827BC01CD01620F711D811D911D42E004
:10055000660F771F881F991F4A95D1F708958F92CC
:100560009F92AF92BF92CF92DF92EF92FF924B0198
:100570005C010E948A026B017C010E948A026C1954
:100580007D098E099F09683E734081059105A8F396
:1005900021E0821A9108A108B10888EEC80E83E014
:1005A000D81EE11CF11C81149104A104B10429F7A7
:1005B000FF90EF90DF90CF90BF90AF909F908F9083
:1005C00008952FB7F894609152047091530480916C
:1005D0005404909155042FBF089508950895AF9243
:1005E000BF92CF92DF92EF92FF920F931F93CF9320
:1005F000DF936C017B018B01040F151FEB015E0182
:10060000AE18BF08C017D10759F06991D601ED9116
:10061000FC910190F081E02DC6011995892B79F7A5
:10062000C501DF91CF911F910F91FF90EF90DF9067
:10063000CF90BF90AF900895FC01538D448D252F2E
:1006400030E0842F90E0821B930B541710F0CF966C
:10065000089501970895FC01918D828D981761F09E
:10066000A28DAE0FBF2FB11D5D968C91928D9F5FB5
:100670009F73928F90E008958FEF9FEF0895FC0194
:10068000918D828D981731F0828DE80FF11D858D47
:1006900090E008958FEF9FEF0895FC01918D228DDA
:1006A000892F90E0805C9F4F821B91098F7399275F
:1006B00008958CEC94E00E944D0321E0892B09F40D
:1006C00020E0822F0895FC01A48DA80FB92FB11D41
:1006D000A35ABF4F2C91848D90E001968F73992778
:1006E000848FA689B7892C93A089B1898C91837056
:1006F00080648C93938D848D981306C00288F3894F
:10070000E02D80818F7D80830895EF92FF920F937B
:100710001F93CF93DF93EC0181E0888F9B8D8C8DAD
:1007200098131AC0E889F989808185FF15C09FB7A1
:10073000F894EE89FF896083E889F9898081837064
:10074000806480839FBF81E090E0DF91CF911F9113
:100750000F91FF90EF900895F62E0B8D10E00F5F34
:100760001F4F0F731127E02E8C8D8E110CC00FB60A
:1007700007FCFACFE889F989808185FFF5CFCE01A2
:100780000E946303F1CFEB8DEC0FFD2FF11DE35AB7
:10079000FF4FF0829FB7F8940B8FEA89FB89808125
:1007A0008062CFCF0F931F93CF93DF938C01D0E064
:1007B000C0E0F801EC0FFD1F6491662341F08CEC62
:1007C00094E00E948503892B11F02196F2CFCE018F
:1007D000DF91CF911F910F910895CF93DF93EC019B
:1007E000888D8823B9F0AA89BB89E889F9898C9119
:1007F00085FD03C0808186FD0DC00FB607FCF7CFD5
:100800008C9185FFF2CF808185FFEDCFCE010E94D4
:100810006303E9CFDF91CF91089580E090E0892BC9
:1008200029F00E94590381110E94000080E090E0AD
:10083000892B49F080E090E0892B29F00E9400008C
:1008400081110E94000080E090E0892B49F080E057
:1008500090E0892B29F00E94000081110E94000085
:1008600080E090E0892B49F080E090E0892B29F02E
:100870000E94000081110C940000089520915B03F8
:10088000260F3327331F21323105ECF42091A204C7
:10089000FC0190E080E0243069F082E00895A091AE
:1008A0005B032191AC01455C5C4FA40FB52FB11DDA
:1008B0002C930196861798F380915B03680F6093E1
:1008C0005B0380E0089581E008951092A20481E026
:1008D0008093A10410927C0461E084E10E94B7013E
:1008E00061E085E10E94B701E9EBF0E080818E7F55
:1008F000808380818D7F808388E48093B80085E445
:100900008093BC000895CF93DF9391E090933A03D6
:100910008823B9F0C091B800D091BA008091BC0092
:100920008A7B8093BC0060E084E10E94B70160E0B4
:1009300085E10E94B7010E946504D093BA00C0937C
:10094000B800DF91CF9108958F929F92AF92BF929E
:10095000CF92DF92EF92FF920F931F93CF93DF938B
:10096000D091CB04D13208F0D7C0182FC091CA045F
:100970000E948A026B017C018091A20481116BC0EC
:1009800082E08093A2041093A1048FEF8093A004CF
:1009900010929F04D0939E04AAEAB4E0EEE7F4E03C
:1009A00080E0D81391C010927D0480917D04CC0F1B
:1009B000C82BC0937D0480917C04813009F088C0ED
:1009C00010927C040E948A026B017C0180917D045C
:1009D0008093BB008091A4049091A504A091A604EB
:1009E000B091A704892B8A2B8B2BA1F00E948A023D
:1009F0000091A4041091A5042091A6043091A704AD
:100A00006C197D098E099F090617170728073907F2
:100A100008F442C08091BC0083FDD8CF85EC809360
:100A2000BC000E948A026B017C018091A20482308A
:100A300009F450C08091A0048F3F09F46FC08091E9
:100A4000A004803209F46CC08091A004803309F4C2
:100A500069C084E026C08091A4049091A504A0916F
:100A6000A604B091A704892B8A2B8B2B09F484CF81
:100A70000E948A028090A4049090A504A090A604ED
:100A8000B090A7046C197D098E099F0986169706F8
:100A9000A806B90608F070CF8091A3040E948304D1
:100AA00085E01092A9041092CB041092A804DF9163
:100AB000CF911F910F91FF90EF90DF90CF90BF905B
:100AC000AF909F908F9008959D9191938F5F69CF84
:100AD00085EEA5CF8091A4049091A504A091A604D1
:100AE000B091A704892B8A2B8B2B09F49ECF0E94EF
:100AF0008A020091A4041091A5042091A6043091CB
:100B0000A7046C197D098E099F0906171707280786
:100B1000390708F08ACFC0CF81E0C3CF80E0C1CFD2
:100B200082E0BFCF83E0BDCF1F93CF93DF93162F1B
:100B3000C5E7D5E0A981BA819B8121E02093A80473
:100B40009093CA041092A9041092CB04ED91FC91E9
:100B500011970190F081E02D682FCD0119958981C1
:100B60009A81DC01ED91FC910190F081E02D612FE3
:100B7000199581E0DF91CF911F910C94A404089501
:100B8000E0915B0480915A04E81730F4F0E0E45AF5
:100B9000FB4F808190E008958FEF9FEF0895909133
:100BA0005B0480915A042FEF3FEF981748F4E92F28
:100BB000F0E0E45AFB4F208130E09F5F90935B04AC
:100BC000C901089580915A0490915B04891B990B87
:100BD0000895CF92DF92EF92FF920F931F93CF93DE
:100BE000DF937C01CB018A012091A804222389F0A4
:100BF000EB016B01C40ED51ECC15DD0569F06991C2
:100C0000D701ED91FC910190F081E02DC70119957C
:100C1000F3CF642F0E943E04C801DF91CF911F9152
:100C20000F91FF90EF90DF90CF900895CF93DF93D7
:100C30001F92CDB7DEB769832091A8042223F9F073
:100C40002091CB04203258F021E030E0FC013383C6
:100C5000228390E080E00F90DF91CF910895809102
:100C6000A904E82FF0E0E655FB4F998190838F5F50
:100C70008093A9048093CB0481E090E0ECCF61E005
:100C8000CE0101960E943E04F7CF90E080E00895E7
:100C9000CF92DF92EF92FF920F931F93CF93DF9348
:100CA000EC01EE81FF8190818B8180958923808387
:100CB000EA85FB8580819B81892B8083EC81FD8186
:100CC00090818A81809589238083E885F985808158
:100CD0009A81892B808389899A89009711F00E94D3
:100CE0007F02EA85FB8590818B81809589238083B3
:100CF0008B89882331F0EE81FF8180819B81892B54
:100D000080838C898823C9F00E94E1026B017C01F9
:100D1000EE85FF8580819B81892379F40E94E10221
:100D20006C197D098E099F090D891E892F89388DBF
:100D3000601771078207930758F389899A8900978A
:100D400011F00E947F02E885F98590818A81809563
:100D5000892380838B89882331F0EC81FD81808118
:100D60009A81892B808389899A89009751F0DF9134
:100D7000CF911F910F91FF90EF90DF90CF900C9447
:100D80007F02DF91CF911F910F91FF90EF90DF9045
:100D9000CF900895CF93DF93EC01E885F98590819A
:100DA0008A818095892380838B89882331F0EC8127
:100DB000FD8180819A81892B8083EA85FB859081E2
:100DC0008B818095892380838B89882331F0EE8104
:100DD000FF8180819B81892B808389899A890097F3
:100DE00011F00E947F02EC85FD8590818A81982315
:100DF000EE85FF8520813B81232311F480E028C00C
:100E00009923E1F3EC81FD81908180958923808392
:100E1000E885F98580819A81892B808389899A89DF
:100E2000009711F00E947F02EE81FF8190818B81FB
:100E3000809589238083EA85FB8580819B81892B2E
:100E4000808389899A89009711F00E947F0281E04E
:100E5000DF91CF910895CF92DF92EF92FF920F939F
:100E60001F93CF93DF93EC01E885F98590818A8108
:100E70008095892380838B89882331F0EC81FD81E3
:100E800080819A81892B8083EA85FB8590818B8183
:100E90008095892380838B89882331F0EE81FF81BF
:100EA00080819B81892B80838C898823C9F00E9453
:100EB000E1026B017C01EE85FF8580819B818923A6
:100EC00079F40E94E1026C197D098E099F090D8950
:100ED0001E892F89388D601771078207930758F391
:100EE00089899A89009711F00E947F02EC85FD851F
:100EF00080819A81892311E009F410E0EE81FF815D
:100F000090818B81809589238083EA85FB85808110
:100F10009B81892B808389899A89009711F00E948F
:100F20007F02812FDF91CF911F910F91FF90EF9062
:100F3000DF90CF900895CF92DF92EF92FF920F93C0
:100F40001F93CF93DF93EC018A81809561115EC07E
:100F5000EC81FD81908189238083E885F9858081FA
:100F60009A81892B808389899A89009711F00E9440
:100F70007F02EA85FB8590818B8180958923808320
:100F80008B89882331F0EE81FF8180819B81892BC1
:100F900080838C898823C9F00E94E1026B017C0167
:100FA000EE85FF8580819B81892379F40E94E1028F
:100FB0006C197D098E099F090D891E892F89388D2D
:100FC000601771078207930758F389899A890097F8
:100FD00011F00E947F02EE81FF8190818B818095CC
:100FE00089238083EA85FB8580819B81892B80838F
:100FF00089899A890097B1F0DF91CF911F910F9164
:10100000FF90EF90DF90CF900C947F02E885F985F8
:101010009081892380838B89882309F4A4CFEC8174
:10102000FD819DCFDF91CF911F910F91FF90EF90A8
:10103000DF90CF9008950F931F93CF93DF938C0190
:10104000D62FC8E06D2F6078C8010E949B07DD0F86
:10105000C150C1F7C801DF91CF911F910F910C943E
:101060002B07CF93DF93FC012089211106C0EC01EF
:101070000E941B08811106C0188A81E090E0DF9170
:10108000CF91089582E0888BF8CF1F93CF93DF93A1
:10109000EC01162F188A0E94CA06882379F0612F66
:1010A000660FCE010E941B08811105C0188ADF91CE
:1010B000CF911F91089582E0888BF9CF84E0FCCF17
:1010C000FC019389138AA085B1852C91828180953A
:1010D00082238C938389882331F0A481B5818C91FC
:1010E0002281822B8C93A285B3852C91838180955C
:1010F00082238C938389882331F0A681B7818C91D8
:101100002381822B8C93938B08950F931F93CF93FE
:10111000DF93CDB7DEB7EB970FB6F894DEBF0FBE07
:10112000CDBFDC011C928BEE90E014969C938E93C5
:10113000139781E090E012969C938E9311971596E9
:101140006C93159716964C93169769834A838C8BEC
:101150008D8B82E090E09B8B8A8B08EE13E020E081
:1011600030E00E8B1F8B288F398F70E0FB01E3542A
:10117000FD4F249169587D4FFB0164916B8330E0F2
:10118000220F331FF901E35AFD4F859194919E83FD
:101190008D83F901ED5BFD4F859194919A87898745
:1011A000F901E75DFD4F859194919E878D8750E011
:1011B000FA01E354FD4F249149585D4FFA014491DF
:1011C0004C8330E0220F331FF901E35AFD4F859124
:1011D000949198878F83F901ED5BFD4F85919491F0
:1011E0009C878B87F901E75DFD4F85919491988BE2
:1011F0008F878BE3FE013196179601900D928A95A9
:10120000E1F7CE0101960E946008EB960FB6F894C4
:10121000DEBF0FBECDBFDF91CF911F910F9108951B
:101220008F929F92AF92BF92CF92DF92EF92FF92F6
:10123000FC01828158E5C52E52E0D52EC81AD1088E
:1012400087FDD394CC0CDD1CCC0CDD1C0D2C000CCC
:10125000EE08FF08818178E8872E912C881A910882
:1012600087FD9394880C991C880C991C092C000C00
:10127000AA08BB0880818F3FD1F190E0FC01EE0FFE
:10128000FF1FE80FF91FE556FC4F8181928133E083
:10129000880F991F3A95E1F7B0E0A0E044E0B595DA
:1012A000A795979587954A95D1F702969C012F5F50
:1012B0003F4F032E000C440B550B281939094A09DE
:1012C0005B09A4EBB0E00E94D71DA7019601281985
:1012D00039094A095B090E94B81DC901FF90EF90C6
:1012E000DF90CF90BF90AF909F908F90089590E047
:1012F00080E0DCCF8F929F92AF92BF92FF920F93CC
:101300001F93CF93DF93FC01F0808FE28F1508F4D9
:101310004AC0828108E512E0081B110987FD139578
:10132000000F111F000F111F8181C8E8D0E0C81BFA
:10133000D10987FDD395CC0FDD1FCC0FDD1F4E01EA
:101340000D2E000CAA08BB089801012E000C440BBE
:10135000550B281939094A095B09DB010E94E21D76
:1013600024EB30E040E050E00E94B81D820E931E56
:10137000A41EB51E8C169D062CF0E8018016910661
:101380000CF4E4012297CC0FDD1F2FB7F8948F2DBA
:1013900090E0FC01EE0FFF1FE80FF91FE556FC4F30
:1013A000D283C1832FBFDF91CF911F910F91FF9007
:1013B000BF90AF909F908F9008951F93CF93DF932E
:1013C000EC01162F8881803308F04EC061E0812F38
:1013D0000E9443028881282F30E0F901EE0FFF1FA1
:1013E000E20FF31FE556FC4F1F736081607C612B99
:1013F000608319821A822CE0622F0E943520829F1E
:10140000B001112430E020E0AB01420F531FFA017C
:10141000EE0FFF1FE40FF51FE556FC4F908196FD80
:1014200016C02F5F3F4F2C30310571F7813009F521
:101430001092800082E080938100109285001092CB
:101440008400B19A80916F00826080936F00E88180
:101450008E2F90E0FC01EE0FFF1FE80FF91FE556FD
:10146000FC4F8081806480838881DF91CF911F91C0
:101470000895823061F41092900080939100109250
:1014800095001092940088BB80937100E0CF833068
:1014900069F41092A00082E08093A1001092A50050
:1014A0001092A40089BB80937200D1CF8111CFCF5D
:1014B0001092200182E08093210110922501109268
:1014C00024018ABB80937300C2CFFC019091390341
:1014D000903398F481E0890F809339039083892FAA
:1014E00090E0FC01EE0FFF1FE80FF91FE556FC4FDF
:1014F00088EB9BE09283818308958FEF808308952A
:10150000AF92BF92CF92DF92EF92FF920F931F9311
:10151000CF93DF936B017A01EC01CB5CDC4F288128
:101520003CE0389F8001399F100D1124A0903903B1
:10153000B12C27FF1FC0FB011182108288818F5FB1
:10154000888388819801280F311D87FD3A95F6011F
:101550002A153B051CF488818C30C4F1808191816F
:10156000049680349C4908F473C0F601808191810F
:10157000049670C088819801280F311D87FD3A9527
:101580002A153B05DCF68881A801480F511D87FD0F
:101590005A95FA01EE0FFF1FE40FF51FE556FC4FB9
:1015A000808186FFCBCF8881F801E80FF11D87FD90
:1015B000FA95CF01EE0FFF1FE80FF91FE556FC4F1C
:1015C000808160E08F730E94B701B8CF80819181E4
:1015D0002881A801420F511D27FD5A959A01FA0151
:1015E000EE0FFF1FE20FF31FE556FC4F2181328102
:1015F000820F931FF7019183808388819801280FC0
:10160000311D87FD3A95F901EE0FFF1FE20FF31F21
:10161000E556FC4F808186FF22C08881080F111D8E
:1016200087FD1A95F801EE0FFF1FE00FF11FE55639
:10163000FC4F808161E08F73DF91CF911F910F91FB
:10164000FF90EF90DF90CF90BF90AF900C94B701D8
:1016500080E49CE9F701918380838FEF8883DF9199
:10166000CF911F910F91FF90EF90DF90CF90BF909F
:10167000AF90089568E070E087ED95E00E94DD0985
:101680006CE070E084ED95E00E94DD096AE070E0B6
:1016900081ED95E00E94DD0964EF71E080E090E06B
:1016A0000C94AF024F925F926F927F928F929F92B3
:1016B000AF92BF92CF92DF92EF92FF920F931F9360
:1016C000CF93DF93CDB7DEB72E970FB6F894DEBF7A
:1016D0000FBECDBF8091760590917705209178055A
:1016E00031E03093A8042093CA041092A904109208
:1016F000CB04DC01ED91FC910190F081E02D6BE3D6
:10170000199580E00E94A404109178050E948A0235
:101710004B015C018091A204811166C081E080933D
:10172000A2048093A1049FEF9093A00410929F04C1
:101730009DE090939E0480937D0480917D04110F21
:10174000182B10937D0480917C04813009F0A9C18D
:1017500010927C040E948A024B015C0180917D04FE
:101760008093BB008091A4049091A504A091A6044D
:10177000B091A704892B8A2B8B2BA1F00E948A029F
:101780000091A4041091A5042091A6043091A7040F
:10179000681979098A099B09061717072807390765
:1017A00008F443C08091BC0083FDD8CF85EC8093C2
:1017B000BC000E948A024B015C018091A20481302E
:1017C00009F471C180919F048E3008F08EC1809120
:1017D0009F04AEE7B4E0ECE5F4E090E0981751F137
:1017E0002D9121939F5FFACF8091A4049091A5043D
:1017F000A091A604B091A704892B8A2B8B2B09F406
:1018000089CF0E948A024090A4045090A504609061
:10181000A6047090A704681979098A099B094616DD
:1018200057066806790608F075CF8091A3040E94D8
:10183000830480E010925B0480935A048E010F5F52
:101840001F4F6E01BFE0CB0ED11C809176059091A9
:101850007705DC01ED91FC910284F385E02D19956B
:10186000B82E8091760590917705DC01ED91FC9181
:101870000284F385E02D1995E12C8E299B29F8012E
:10188000819391938F01CE16DF06F9F6C0907D0506
:10189000D0907E05E0907F05F090800569817A8187
:1018A000072E000C880B990B0E94931CA701960130
:1018B0000E94FA1E20918D0530918E0540918F0572
:1018C000509190050E941B1E60939D0570939E058C
:1018D00080939F059093A0056B817C81072E000C5F
:1018E000880B990B0E94931CA70196010E94FA1E77
:1018F0002091910530919205409193055091940566
:101900000E941B1E6093A1057093A2058093A305FE
:101910009093A4058091750561E06827681B770B9B
:10192000072E000C880B990B0E94931C4B015C0145
:101930006D817E81072E000C880B990B0E94931CF1
:101940009B01AC01C501B4010E94F21CA7019601E4
:101950000E94FA1E209195053091960540919705B9
:10196000509198050E941B1E6093A5057093A605D3
:101970008093A7059093A8056F817885072E000CAA
:10198000880B990B0E94931C20E030EF41E456E451
:101990000E941C1E20E030E04AEA53E40E94FA1E36
:1019A0006093990570939A0580939B0590939C058D
:1019B000C0907905D0907A05E0907B05F0907C0589
:1019C00069857A85072E000C880B990B0E94931C61
:1019D000A70196010E94FA1E20918105309182058F
:1019E00040918305509184050E941B1E6093A905B8
:1019F0007093AA058093AB059093AC056B857C85AD
:101A0000072E000C880B990B0E94931CA7019601CE
:101A10000E94FA1E20918505309186054091870528
:101A2000509188050E941B1E6093AD057093AE0512
:101A30008093AF059093B0056D857E85072E000CD1
:101A4000880B990B0E94931CA70196010E94FA1E15
:101A50002091890530918A0540918B0550918C0524
:101A60000E941B1E6093B1057093B2058093B3056D
:101A70009093B4052E960FB6F894DEBF0FBECDBF7F
:101A8000DF91CF911F910F91FF90EF90DF90CF905A
:101A9000BF90AF909F908F907F906F905F904F908E
:101AA000089585EE84CE8091A4049091A504A09120
:101AB000A604B091A704892B8A2B8B2B09F47DCE29
:101AC0000E948A020091A4041091A5042091A6040A
:101AD0003091A704681979098A099B090617170725
:101AE0002807390708F069CEA0CE8EE072CE7F922B
:101AF0008F929F92AF92BF92CF92DF92EF92FF921E
:101B00000F931F93CF93DF93EC01062F142F188AA6
:101B100019AE1AAE0E94CA06882309F457C0602F76
:101B2000660F6160CE010E941B0881114BC0188AAC
:101B30007E01A12EB12CD12CC12C450181E0881A47
:101B40009108CA14DB0459F100E088E0782EC8142B
:101B5000D904DCF4000FCE010E942B07082B7A94E5
:101B60007110F8CF60E0CE010E949B0789899A89A5
:101B7000009711F00E947F02F701018FFFEFCF1A4B
:101B8000DF0A8FEFE81AF80ADCCF000FCE010E94BF
:101B90002B07082B7A947110F8CF61E0E4CF19AFCE
:101BA000CE010E944806812FDF91CF911F910F91A6
:101BB000FF90EF90DF90CF90BF90AF909F908F906D
:101BC0007F90089582E0888B10E0EACF84E0FBCF1D
:101BD000FF920F931F93CF93DF93EC01F62E8C01AE
:101BE000095F1F4F69E2C8010E9445086F2D6068B8
:101BF000C8010E943108C8010E94480642E069E21B
:101C0000C8010E94770DFE01E05CFF4F8081319694
:101C100090812FEF3FEF981740F4DE01A90FB11D1F
:101C200090962C9130E09F5F908390814FEF5FEF13
:101C3000981728F4C90FD11D48A19F5F908380E0B9
:101C4000942F822B932BDF91CF911F910F91FF90B7
:101C500008950F931F93CF93DF93162F022FEC015C
:101C6000279669E2CE010E944508612F6068CE0187
:101C70000E943108602FCE010E943108CE01DF9111
:101C8000CF911F910F910C9448064F925F926F92E3
:101C90007F928F929F92AF92BF92CF92DF92EF92FC
:101CA000FF920F931F93CF93DF93CDB7DEB72C979F
:101CB0000FB6F894DEBF0FBECDBF0E94520BC0908E
:101CC000A505D090A605E090A705F090A80521E015
:101CD00030E03A83298320E030E0A901C701B60152
:101CE0000E94C91F87FF02C01A82198201E010E01A
:101CF00020E030E0A901C701B6010E948C1C87FDDD
:101D000002C010E000E069817A81601B710B072E30
:101D1000000C880B990B0E94931C6D837E838F832C
:101D20009887A7019601C701B6010E94F21C2B01FA
:101D30003C01C0909D05D0909E05E0909F05F090DD
:101D4000A005A7019601C701B6010E94F21CA301DC
:101D500092010E941C1E0E94DC1F9B01AC0180901E
:101D6000A1059090A205A090A305B090A4056D8157
:101D70007E818F8198850E94F21C9B01AC01C50178
:101D8000B4010E949B1E21EE3EE245E652E40E9411
:101D9000F21C6093B5057093B6058093B7059093D8
:101DA000B805A5019401C501B4010E94F21CA3016C
:101DB00092010E941C1E0E94DC1F9B01AC01C70106
:101DC000B6010E949B1E905821EE3EE245E652E489
:101DD0000E94F21C6093B9057093BA058093BB050D
:101DE0009093BC050E94E1026B017C018091C905C2
:101DF0009091CA05A091CB05B091CC05A7019601A1
:101E0000281B390B4A0B5B0BCA01B9010E94911CBC
:101E10002FE632E143E85AE30E94F21C4B015C01D9
:101E2000C092C905D092CA05E092CB05F092CC05CC
:101E30008091CD059091CE05A091CF05B091D005B0
:101E400089839A83AB83BC834090B5055090B605D7
:101E50006090B7057090B8052091A9053091AA054A
:101E60004091AB055091AC05C501B4010E94F21C34
:101E70002091BD053091BE054091BF055091C00530
:101E80000E941C1EA30192010E941B1E6B017C017B
:101E900020E030E044E353E40E94C91F18163CF4EC
:101EA00020E030E044EB53E4C701B601EDCF20E081
:101EB00030E044E353ECC701B6010E948C1C87FF5D
:101EC0000BC020E030E044EB53E4C701B6010E94B0
:101ED0001C1E6B017C01EBCF29813A814B815C8117
:101EE00060E070E080E89FE30E941B1E69877A87AC
:101EF0008B879C87A7019601C301B2010E941C1E1B
:101F000029813A814B815C810E94F21C6B017C012A
:101F100029853A854B855C85C301B2010E94F21C7C
:101F20009B01AC01C701B6010E941C1E6B017C0124
:101F300020E030E044E353E40E94C91F18164CF43B
:101F400020E030E044EB53E4C701B6010E941B1EC1
:101F5000EDCF20E030E044E353ECC701B6010E942E
:101F60008C1C87FF0BC020E030E044EB53E4C7013A
:101F7000B6010E941C1E6B017C01EBCFC092BD0517
:101F8000D092BE05E092BF05F092C0054090B90521
:101F90005090BA056090BB057090BC052091AD05CE
:101FA0003091AE054091AF055091B0056D817E81B5
:101FB0008F8198850E94F21CA50194010E94F21C59
:101FC0002091C1053091C2054091C3055091C405CF
:101FD0000E941C1EA30192010E941B1E6B017C012A
:101FE00020E030E044EB52E40E94C91F18163CF494
:101FF00020E030E044E353E4C701B601EDCF20E038
:1020000030E044EB52ECC701B6010E948C1C87FF04
:102010000BC020E030E044E353E4C701B6010E9466
:102020001C1E6B017C01EBCFA7019601C301B2011D
:102030000E941C1E29813A814B815C810E94F21C06
:102040006B017C01A301920169857A858B859C8552
:102050000E94F21C9B01AC01C701B6010E941C1E2C
:102060006B017C0120E030E044EB52E40E94C91F88
:1020700018164CF420E030E044E353E4C701B60105
:102080000E941B1EEDCF20E030E044EB52ECC70174
:10209000B6010E948C1C87FF0BC020E030E044E3B7
:1020A00053E4C701B6010E941C1E6B017C01EBCFFB
:1020B000C092C105D092C205E092C305F092C4055A
:1020C0002091B1053091B2054091B3055091B4050E
:1020D000C501B4010E94F21C2091C5053091C605CE
:1020E0004091C7055091C8050E941C1E6093C5050C
:1020F0007093C6058093C7059093C8052C960FB6BC
:10210000F894DEBF0FBECDBFDF91CF911F910F912D
:10211000FF90EF90DF90CF90BF90AF909F908F9007
:102120007F906F905F904F900895FC010190002088
:10213000E9F73197AF01481B590BBC018CEC94E0D7
:102140000C94EF028F929F92AF92BF920F931F93C6
:10215000CF93DF93CDB7DEB7A1970FB6F894DEBF6C
:102160000FBECDBF19A2423008F44AE08E010F5DC8
:102170001F4F842E912CB12CA12CA50194010E94FB
:10218000EA1DE62FB901CA01EA30F4F4E05DD80196
:10219000EE938D01232B242B252B79F790E080E003
:1021A000109719F0CD010E949510A1960FB6F894E2
:1021B000DEBF0FBECDBFDF91CF911F910F91BF90BA
:1021C000AF909F908F900895E95CE1CFBC0190E0C3
:1021D00080E04AE00C94A210CF93DF930E94E610B7
:1021E000EC018DE392E00E9495108C0F9D1FDF9112
:1021F000CF910895CF93DF930E949510EC018DE36A
:1022000092E00E9495108C0F9D1FDF91CF91089551
:1022100080E492E00E94FA1069E170E087ED95E0B9
:102220000E947A0964EF71E080E090E00C94AF02C4
:102230000C949510BF92CF92DF92EF92FF920F9382
:102240001F93CF93DF93EC016C0187E0C80ED11C84
:102250007E01E0E4EE0EF11CF70110828E010F5BAF
:102260001F4FF8011082E989FA8990818A8580954B
:10227000892380838A8D882331F0ED85FE858081D6
:102280009A85892B8083888D998D009711F00E9403
:102290007F02EF85F88990818985809589238083E5
:1022A0008A8D882331F0EB85FC8580819985892B87
:1022B000808384E0B82E888D998D009711F00E945C
:1022C0007F02BA94B110F7CF8A8D882331F062E093
:1022D00070E080E090E00E94AF0269E2C6010E94D7
:1022E000450862E9C6010E943108C6010E944806FD
:1022F00041E069E2C6010E94770DF8012081F701F3
:102300008081281708F055C0FE01E20FF11D80A161
:102310002F5FF8012083182F682F70E090E080E095
:1023200040E10E94A2108DE392E00E94951080E0AF
:102330001434A9F581E088830B811C81980150E059
:1023400040E061E0CE010E94290E1C830B830981CD
:102350001A818881811103C0CE010E941A1198014F
:1023600050E040E06FE0CE010E94290E1A830983FD
:1023700021E030E040E050E060E0CE010E94290E14
:1023800063E070E080E090E00E94AF0223E030E084
:1023900040E050E060E0CE010E94290E81E0DF9134
:1023A000CF911F910F91FF90EF90DF90CF90BF9052
:1023B00008958FEF9FEFAFCFAF92BF92CF92DF9292
:1023C000EF92FF920F931F93CF93DF93EC015B018A
:1023D0006A0179018881811103C0CE010E941A111E
:1023E00064E1CE010E94E80DF8019183808366E1EB
:1023F000CE010E94E80DF5019183808368E1CE0152
:102400000E94E80DF601918380836AE1CE010E946B
:10241000E80DF701918380838B819C81853D910537
:10242000A1F180F40097D9F1803C910599F1DF91F9
:10243000CF911F910F91FF90EF90DF90CF90BF90C1
:10244000AF900895863F9105D9F08F3F910541F0F7
:102450008B3E910561F762E370E080E090E004C09C
:1024600063E070E080E090E0DF91CF911F910F91E9
:10247000FF90EF90DF90CF90BF90AF900C94AF02A1
:1024800068E170E080E090E0EFCF65E670E080E02A
:1024900090E0EACF6AE970E080E090E0E5CF6CEB95
:1024A00072E080E090E0E0CF85ED8093BC00809109
:1024B000A4049091A504A091A604B091A704079646
:1024C000A11DB11D23E0B695A795979587952A95EF
:1024D000D1F72091BC0024FD03C01092A2040895FE
:1024E0004091A4045091A5046091A6047091A704A2
:1024F000452B462B472B69F30097A105B10541F009
:102500002AE22A95F1F700C00197A109B109E1CFAC
:102510008091A3040C9483040F931F93CF93DF93B4
:102520008C01EB010E94B01D8883C80101960E94B6
:10253000B01D8983CE01DF91CF911F910F91089536
:102540001F920F920FB60F9211242F933F938F93E8
:102550009F93AF93BF938091520490915304A091A5
:102560005404B09155043091510423E0230F2D37CA
:1025700058F50196A11DB11D20935104809352047A
:1025800090935304A0935404B0935504809156043F
:1025900090915704A0915804B09159040196A11D3F
:1025A000B11D8093560490935704A0935804B093A0
:1025B0005904BF91AF919F918F913F912F910F90AF
:1025C0000FBE0F901F90189526E8230F0296A11DAD
:1025D000B11DD2CF1F920F920FB60F9211240BB6DE
:1025E0000F922F933F934F935F936F937F938F93AC
:1025F0009F93AF93BF93EF93FF9380917F0390914D
:102600008003A0918103B0918203892B8A2B8B2BAD
:10261000D1F190917E038091000089278093000082
:1026200080917F0390918003A0918103B0918203F8
:10263000181619061A061B069CF480917F039091C8
:102640008003A0918103B09182030197A109B10990
:1026500080937F0390938003A0938103B0938203C0
:10266000FF91EF91BF91AF919F918F917F916F916A
:102670005F914F913F912F910F900BBE0F900FBE26
:102680000F901F90189580910002EEE9F1E0E4911F
:102690009FEF90930002E230E9F040F4EE2389F0DE
:1026A000E13091F060E00E94B701DACFE43049F107
:1026B00010F1E530B9F7909173009D7F909373000E
:1026C000F1CF10926E00EECF90916F009D7F9093AE
:1026D0006F00E8CF909170009D7F9093700091E023
:1026E0009093B0009091B100987F94609093B10066
:1026F0001092B300D7CF909171009D7F909371009D
:10270000D1CF909172009D7F90937200CBCF1F929A
:102710000F920FB60F9211240BB60F922F933F9387
:102720004F935F936F937F938F939F93AF93BF93D9
:10273000EF93FF938CEC94E00E946303FF91EF9181
:10274000BF91AF919F918F917F916F915F914F91C9
:102750003F912F910F900BBE0F900FBE0F901F90C7
:1027600018951F920F920FB60F9211240BB60F926D
:102770002F938F939F93EF93FF93E091DC04F0915D
:10278000DD048081E091E204F091E30482FD1DC04C
:1027900090818091E5048F5F8F732091E60482170A
:1027A00041F0E091E504F0E0E453FB4F958F809316
:1027B000E504FF91EF919F918F912F910F900BBEA8
:1027C0000F900FBE0F901F9018958081F2CF1F922F
:1027D0000F920FB60F9211240BB60F922F933F93C7
:1027E0004F935F936F937F938F939F93AF93BF9319
:1027F000EF93FF938091B900887F803609F44DC034
:1028000008F040C0883209F4A9C028F5803109F4E5
:102810009DC0C8F4882309F4FBC0883009F496C031
:10282000FF91EF91BF91AF919F918F917F916F91A8
:102830005F914F913F912F910F900BBE0F900FBE64
:102840000F901F901895883109F488C0803241F7A5
:102850008093A00414C0803409F49DC040F48033F8
:10286000B9F38833E9F68093A00485ECB0C08035D5
:1028700009F485C0883509F496C0883489F60E9429
:102880005412CECF883909F48CC038F5883729F036
:1028900050F4883611F0803719F683E08093A20453
:1028A00010927D0357C0883809F47BC0803919F035
:1028B000803809F0B5CF80917D03803208F071C077
:1028C000E0917D0381E08E0F80937D038091BB00BA
:1028D000F0E0E35AFC4F80833DC0803B39F0E0F4E8
:1028E000803A09F479C0883A09F09ACF84E080935D
:1028F000A20410925C0310925B03E0918503F091B7
:102900008603199580915B0381110FC081E080934C
:102910005B0310923B0309C0803C09F4A6CF883CBE
:1029200009F4A3CF883B09F07BCFE0915C0381E001
:102930008E0F80935C03F0E0E55CFC4F8081809318
:10294000BB0090915C0380915B0329C080917D0462
:102950008093BB0085EC8093BC0062CF90919F0474
:1029600080919E04981758F5E0919F0481E08E0FA6
:1029700080939F04F0E0E258FB4F8081E9CFE09123
:102980009F0481E08E0F80939F048091BB00F0E054
:10299000E258FB4F808390919F0480919E0498178A
:1029A000C8F285E8D8CFE0919F0481E08E0F809334
:1029B0009F048091BB00F0E0E258FB4F8083809140
:1029C000A10481115CCF81E080937C0484EA809330
:1029D000BC001092A20424CF85EC8093BC0010921E
:1029E000A20480917D03803230F4E0917D03F0E019
:1029F000E35AFC4F108260917D0370E0E091830305
:102A0000F09184038DE593E0199510927D0308CF32
:102A10001092A00434CF1F920F920FB60F92112480
:102A20000BB60F922F933F934F935F936F937F93C8
:102A30008F939F93AF93BF93EF93FF9348E251E03F
:102A400064E271E090E080E00E94800AFF91EF91E3
:102A5000BF91AF919F918F917F916F915F914F91B6
:102A60003F912F910F900BBE0F900FBE0F901F90B4
:102A700018951F920F920FB60F9211240BB60F925A
:102A80002F933F934F935F936F937F938F939F9376
:102A9000AF93BF93EF93FF9348EA50E064EA70E08E
:102AA00083E090E00E94800AFF91EF91BF91AF9187
:102AB0009F918F917F916F915F914F913F912F9156
:102AC0000F900BBE0F900FBE0F901F9018951F9286
:102AD0000F920FB60F9211240BB60F922F933F93C4
:102AE0004F935F936F937F938F939F93AF93BF9316
:102AF000EF93FF9348E950E064E970E082E090E0F2
:102B00000E94800AFF91EF91BF91AF919F918F91A9
:102B10007F916F915F914F913F912F910F900BBEDD
:102B20000F900FBE0F901F9018951F920F920FB627
:102B30000F9211240BB60F922F933F934F935F93F5
:102B40006F937F938F939F93AF93BF93EF93FF9375
:102B500048E850E064E870E081E090E00E94800A7C
:102B6000FF91EF91BF91AF919F918F917F916F9165
:102B70005F914F913F912F910F900BBE0F900FBE21
:102B80000F901F901895CF92DF92EF92FF920F93C4
:102B90001F93CF93DF93ECECF4E01382128288EE64
:102BA00093E0A0E0B0E084839583A683B7832DE112
:102BB00032E03183208325EC30E03587248724EC14
:102BC00030E03787268720EC30E0318B208B21ECFA
:102BD00030E0338B228B22EC30E0358B248B26ECDB
:102BE00030E0378B268B118E128E138E148E09E6F1
:102BF00015E0F8011382128284839583A683B7833C
:102C00008FE292E091838083C6E7D6E08FE08883ED
:102C10008DE089831A8261E08FE00E94430260E0C8
:102C200089810E94430280E29EE4A0E0B0E08F83AD
:102C30009887A987BA87E0E7F6E08AE390E0918376
:102C4000808398E3C92E94E0D92EE12CF12CC28226
:102C5000D382E482F58260E00E944302EAE6F6E075
:102C600086E390E091838083C282D382E482F582FE
:102C700060E00E944302E4E6F6E088E390E091839E
:102C80008083C282D382E482F58260E00E944302A4
:102C900045E064E082E296E00E94850843E062E05D
:102CA00080EE95E00E9485088DED95E00E94650A12
:102CB0008AED95E00E94650A87ED95E00E94650A1D
:102CC00084ED95E00E94650A81ED95E00E94650A19
:102CD000E5E7F5E0108288E683831283018388E4C8
:102CE00091EEAAE7BFE38093CD059093CE05A09324
:102CF000CF05B093D0051486158616861786108AE0
:102D0000118A128A138A148A158A168A178A108ED3
:102D1000118E128E138E148E158E168E178E10A293
:102D200011A212A213A2DF91CF911F910F91FF90D8
:102D3000EF90DF90CF900895CF93DF93CDB7DEB7BC
:102D40002E970FB6F894DEBF0FBECDBF789484B532
:102D5000826084BD84B5816084BD85B5826085BD97
:102D600085B5816085BD80916E00816080936E0025
:102D70001092810080918100826080938100809117
:102D800081008160809381008091800081608093C8
:102D900080008091B10084608093B1008091B00088
:102DA00081608093B0008091910082608093910057
:102DB000809191008160809391008091900081606A
:102DC000809390008091A10082608093A100809107
:102DD000A10081608093A1008091A0008160809318
:102DE000A0008091210182608093210180912101C6
:102DF0008160809321018091200181608093200176
:102E000080917A00846080937A0080917A00826059
:102E100080937A0080917A00816080937A0080911B
:102E20007A00806880937A001092C100E091DC04FF
:102E3000F091DD0482E08083E091D804F091D90420
:102E40001082E091DA04F091DB0480E1808310923B
:102E5000E404E091E004F091E10486E08083E091F5
:102E6000DE04F091DF04808180618083E091DE04E4
:102E7000F091DF04808188608083E091DE04F0912E
:102E8000DF04808180688083E091DE04F091DF04BC
:102E900080818F7D808310925B0410925A0410927F
:102EA000A9041092CB040E9465048DEE92E09093E9
:102EB0008603809385038EEE92E090938403809343
:102EC000830361E08BE60E949405898360E089E1D9
:102ED0000E94940560E08AE10E94940580E090E001
:102EE000A3E8B2E48093790590937A05A0937B05DB
:102EF000B0937C0568E08BE10E94940580E090E04F
:102F0000A0E8B6E480937D0590937E05A0937F05AD
:102F1000B093800560E08CE10E9494050E94450E0C
:102F20008091B5059091B605A091B705B091B8050F
:102F30008093BD059093BE05A093BF05B093C005D7
:102F40008091B9059091BA05A091BB05B091BC05DF
:102F50008093C1059093C205A093C305B093C405A7
:102F60000E94E1026093C9057093CA058093CB0566
:102F70009093CC0582ED91E00E94D2032981622FCB
:102F800070E090E080E04AE00E94A2108DE392E0C1
:102F90000E94951039813111FDCF89EA91E00E949C
:102FA000D2038DE392E00E94951010928105109259
:102FB0008205109283051092840510928505109267
:102FC0008605109287051092880510928905109247
:102FD0008A0510928B0510928C0510928D05109227
:102FE0008E0510928F051092900510929105109207
:102FF00092051092930510929405109295051092E7
:103000009605109297051092980584EF91E09E879F
:103010008D871D821E821F82188619861A861B863E
:103020001C8619821A821B821C82C12CD12C76012B
:1030300046015701260137010E94520B20919D0540
:1030400030919E0540919F055091A005C301B201AA
:103050000E941C1E2B013C012091A1053091A2056C
:103060004091A3055091A405C501B4010E941C1E06
:103070004B015C0120E030E040E85FE36091A50592
:103080007091A6058091A7059091A8050E941B1E2E
:103090009B01AC01C701B6010E941C1E6B017C01A3
:1030A0002091A9053091AA054091AB055091AC053E
:1030B00069817A818B819C810E941C1E69837A833D
:1030C0008B839C832091AD053091AE054091AF0577
:1030D0005091B00569857A858B859C850E941C1E60
:1030E00069877A878B879C872091B1053091B205DB
:1030F0004091B3055091B4056D817E818F81988593
:103100000E941C1E6D837E838F83988761E070E030
:1031100080E090E00E94AF02ED85FE853197FE874A
:10312000ED87EF2B09F088CF20E030E04AEF53E441
:10313000C301B2010E94FA1E60938D0570938E0543
:1031400080938F059093900520E030E04AEF53E4A0
:10315000C501B4010E94FA1E609391057093920517
:10316000809393059093940520E030E04AEF53E478
:10317000C701B6010E94FA1E6093950570939605EB
:10318000809397059093980520E030E04AEF53E450
:1031900069817A818B819C810E94FA1E60938105EE
:1031A00070938205809383059093840520E030E03E
:1031B0004AEF53E469857A858B859C850E94FA1EC7
:1031C00060938505709386058093870590938805A5
:1031D00020E030E04AEF53E46D817E818F81988555
:1031E0000E94FA1E6093890570938A0580938B056F
:1031F00090938C058EE492E00E94FA102FE931E062
:103200003A83298309EA11E0E981FA8180813296C3
:10321000FA83E98360E00E94430229813A81021720
:10322000130791F761E08BE10E94430261E08DE1B9
:103230000E94430261E08FE10E94430261E08CE161
:103240000E94430261E08EE10E94430261E082E15C
:103250000E94430260E08EE30E94430260E08CE340
:103260000E94430261E080E20E94430262E08BE040
:103270000E94430267E070E08DED95E00E94DD0959
:1032800066E070E08AED95E00E94DD096AE570E095
:103290008DED95E00E947A096AE570E08AED95E08F
:1032A0000E947A090E94450E6091C1057091C20585
:1032B0008091C3059091C4050E946C1F70935004C7
:1032C00060934F040E94450E03E913E025E933E0C3
:1032D00047E953E069E973E082E296E00E94DC117D
:1032E0006091990370919A0390E080E00E94911C94
:1032F00026ED39E346EA5EEB0E94F21C6B017C018D
:10330000609197037091980390E080E00E94911C77
:1033100027E038E04AEC5FE30E94F21C9B01AC011D
:10332000C701B6010E941C1E6B017C0160919503D0
:103330007091960390E080E00E94911C24E73EE5A6
:103340004BE35FEB0E94F21C9B01AC01C701B6018D
:103350000E941C1E0E94731F70939203609391033E
:1033600009E813E02BE833E04DE853E06FE873E041
:1033700080EE95E00E94DC1160918F0370919003C4
:1033800090E080E00E94911C26ED39E346EA5EEB76
:103390000E94F21C6B017C0160918D0370918E0381
:1033A00090E080E00E94911C27E038E04AEC5FE367
:1033B0000E94F21C9B01AC01C701B6010E941C1EB9
:1033C0006B017C0160918B0370918C0390E080E035
:1033D0000E94911C24E73EE54BE35FEB0E94F21C48
:1033E0009B01AC01C701B6010E941C1E0E94731F05
:1033F000709388036093870385E592E00E94FA103A
:1034000089E692E00E9418118091910390919203B5
:103410000E94E6108FE692E00E94181183E792E086
:103420000E9418118091990390919A030E94E610CE
:1034300081E792E00E94181187E792E00E9418113C
:1034400080919703909198030E94E61081E792E0A3
:103450000E9418118BE792E00E9418118091950349
:10346000909196030E94E61081E792E00E94181165
:103470008FE792E00E94181180919303909194033A
:103480000E94E61081E792E00E94181181E792E025
:103490000E94FA1083E892E00E94FA1089E692E016
:1034A0000E94181180918703909188030E94E61072
:1034B0008FE692E00E94181183E792E00E941811B3
:1034C00080918F03909190030E94E61081E792E033
:1034D0000E94181187E792E00E94181180918D03D5
:1034E00090918E030E94E61081E792E00E941811ED
:1034F0008BE792E00E94181180918B0390918C03CE
:103500000E94E61081E792E00E9418118FE792E096
:103510000E9418118091890390918A030E94E610FD
:1035200081E792E00E94181181E792E00E94FA1070
:1035300088E992E00E94FA1082EB92E00E94181152
:1035400080918D0390918E0320918F033091900391
:10355000821B930B0E94EC108BEB92E00E941811DF
:1035600080918D0390918E0320918B0330918C0379
:10357000821B930B0E94EC1084EC92E00E94FA10E4
:1035800082EB92E00E94181180919703909198032A
:103590002091990330919A03821B930B0E94EC10A7
:1035A0008BEB92E00E941811809197039091980301
:1035B0002091950330919603821B930B0E94EC108F
:1035C0006AEF70E080E090E00E94AF026DE474E08A
:1035D00090E080E00E948C126BE474E082E090E066
:1035E0000E948C1269E474E084E090E00E948C12E6
:1035F00067E474E086E090E00E948C1265E474E079
:1036000088E090E00E948C1263E474E082E290E033
:103610000E948C1261E474E084E290E00E948C12BB
:103620006FE374E086E290E00E948C126DE374E038
:1036300088E290E00E948C126BE374E08AE290E0F2
:103640000E948C1267E172E08AE090E00E948C1286
:1036500065E172E08CE090E00E948C1263E172E020
:103660008EE090E00E948C1261E172E080E190E0D7
:103670000E948C126FE072E082E190E00E948C1256
:103680006DE072E084E190E00E948C126BE072E0E9
:1036900086E190E00E948C1269E072E088E190E09F
:1036A0000E948C1267E072E08AE190E00E948C1226
:1036B00065E072E08CE190E00E948C1263E072E0C1
:1036C0008EE190E00E948C1261E072E080E290E076
:1036D0000E948C1269E374E08CE290E00E948C12EC
:1036E00067E374E08EE290E00E948C1265E374E080
:1036F00080E390E00E948C1263E374E082E390E048
:103700000E948C1261E374E084E390E00E948C12CA
:103710006FE274E086E390E00E948C126DE274E048
:1037200088E390E00E948C126BE274E08AE390E000
:103730000E948C120E943A0B0E9408118DED92E0BB
:103740000E94FA106AE570E084ED95E00E947A0923
:103750006AE570E081ED95E00E947A096AEF70E019
:1037600080E090E00E94AF02E091D4058E2F90E0BF
:10377000FC01EE0FFF1FE80FF91FE556FC4F80819B
:103780008F7B8083E091D1058E2F90E0FC01EE0FBE
:10379000FF1FE80FF91FE556FC4F80818F7B808368
:1037A00064EF71E080E090E00E94AF020E943A0B6B
:1037B0008CEE92E00E94FA106FEA70E084ED95E0E2
:1037C0000E947A0965E070E081ED95E00E947A0937
:1037D0006AEF70E080E090E00E94AF028AEF92E032
:1037E0000E94FA1068EA70E087ED95E00E947A097D
:1037F00060ED77E080E090E00E94AF0268E873E15E
:1038000080E090E00E94AF0289E093E00E94FA100D
:1038100084ED95E00E9410094C0181ED95E00E9435
:1038200010093C018CE3482E512C4818590898E7A0
:10383000C92ED12CC618D7087601D7FE04C0EE24B5
:10384000FF24EC18FD08C20157FE04C08827992701
:1038500084199509E816F9060CF47C01E114F104C9
:1038600089F466E970E080E090E00E94AF020E9477
:10387000081168E873E180E090E00E94AF020E94C6
:103880000D0494CFDA82C982520101E010E08981EF
:103890009A81B7010E9441201B01260C371CC501EB
:1038A000B7010E944120680D791D653B710514F038
:1038B00064EB70E077FF02C070E060E084ED95E0BB
:1038C0000E947A09B101653B710514F064EB70E068
:1038D00077FF02C070E060E081ED95E00E947A0918
:1038E0006CE070E080E090E00E94AF020F5F1F4F3D
:1038F000A40CB51C89819A818C0D9D1D9A838983A6
:10390000E016F10624F6ADCF87EE95E00E94600840
:1039100089E296E00C9460080E94CE1C08F481E0D5
:103920000895E89409C097FB3EF4909580957095B2
:1039300061957F4F8F4F9F4F9923A9F0F92F96E9FB
:10394000BB279395F695879577956795B795F11170
:10395000F8CFFAF4BB0F11F460FF1BC06F5F7F4F0D
:103960008F4F9F4F16C0882311F096E911C077231F
:1039700021F09EE8872F762F05C0662371F096E828
:10398000862F70E060E02AF09A95660F771F881FF7
:10399000DAF7880F9695879597F90895990F00089B
:1039A000550FAA0BE0E8FEEF16161706E807F90711
:1039B000C0F012161306E407F50798F0621B730BAC
:1039C000840B950B39F40A2661F0232B242B252B2D
:1039D00021F408950A2609F4A140A6958FEF811DD0
:1039E000811D08950E94051D0C94761D0E94681D7E
:1039F00038F00E946F1D20F0952311F00C945F1D8C
:103A00000C94651D11240C94AA1D0E94871D70F34F
:103A1000959FC1F3950F50E0551F629FF001729F73
:103A2000BB27F00DB11D639FAA27F00DB11DAA1F82
:103A3000649F6627B00DA11D661F829F2227B00DCF
:103A4000A11D621F739FB00DA11D621F839FA00D5A
:103A5000611D221F749F3327A00D611D231F849FAA
:103A6000600D211D822F762F6A2F11249F57504001
:103A70009AF0F1F088234AF0EE0FFF1FBB1F661F7C
:103A8000771F881F91505040A9F79E3F510580F045
:103A90000C945F1D0C94AA1D5F3FE4F3983ED4F391
:103AA000869577956795B795F795E7959F5FC1F7E9
:103AB000FE2B880F911D9695879597F9089597F994
:103AC0009F6780E870E060E008959FEF80EC0895C4
:103AD00000240A94161617061806090608950024ED
:103AE0000A9412161306140605060895092E039467
:103AF000000C11F4882352F0BB0F40F4BF2B11F4DB
:103B000060FF04C06F5F7F4F8F4F9F4F089557FD39
:103B10009058440F551F59F05F3F71F04795880F3B
:103B200097FB991F61F09F3F79F0879508951216D2
:103B300013061406551FF2CF4695F1DF08C016167E
:103B400017061806991FF1CF86957105610508942F
:103B50000895E894BB2766277727CB0197F9089546
:103B6000F999FECF92BD81BDF89A992780B5089545
:103B7000052E97FB1EF400940E94CF1D57FD07D021
:103B80000E94EA1D07FC03D04EF40C94CF1D509503
:103B90004095309521953F4F4F4F5F4F0895909539
:103BA0008095709561957F4F8F4F9F4F08950E942C
:103BB0000C1EA59F900DB49F900DA49F800D911D8C
:103BC00011240895B7FF0C94D71D0E94D71D821BA6
:103BD000930B0895A1E21A2EAA1BBB1BFD010DC079
:103BE000AA1FBB1FEE1FFF1FA217B307E407F507AD
:103BF00020F0A21BB30BE40BF50B661F771F881F89
:103C0000991F1A9469F760957095809590959B011E
:103C1000AC01BD01CF010895A29FB001B39FC001C7
:103C2000A39F700D811D1124911DB29F700D811DE8
:103C30001124911D08955058BB27AA270E94331EB6
:103C40000C94761D0E94681D38F00E946F1D20F0B4
:103C500039F49F3F19F426F40C94651D0EF4E09599
:103C6000E7FB0C945F1DE92F0E94871D58F3BA17DC
:103C7000620773078407950720F079F4A6F50C9482
:103C8000A91D0EF4E0950B2EBA2FA02D0B01B90142
:103C900090010C01CA01A0011124FF27591B99F0C2
:103CA000593F50F4503E68F11A16F040A22F232FCE
:103CB000342F4427585FF3CF469537952795A7951E
:103CC000F0405395C9F77EF41F16BA0B620B730BC5
:103CD000840BBAF09150A1F0FF0FBB1F661F771F36
:103CE000881FC2F70EC0BA0F621F731F841F48F4EB
:103CF000879577956795B795F7959E3F08F0B0CF74
:103D00009395880F08F09927EE0F9795879508955A
:103D10000E94681D60F080E891E009F49EEF0E9427
:103D20006F1D28F040E851E071F45EEF0CC00C9478
:103D3000651D0C94A91DE92FE0780E94871D40F3B2
:103D4000092E052AB1F3261737074807590738F017
:103D50000E2E07F8E02569F0E025E0640AC0EF6365
:103D600007F8009407FADB01B9019D01DC01CA01E3
:103D7000AD01EF930E94111F0E94761D0E94CB1E81
:103D80005F91552339F02BED3FE049E450FD49ECBC
:103D90000C941C1E0895DF93DD27B92FBF7740E8F0
:103DA0005FE31616170648075B0718F4D92F0E9421
:103DB000CE1F9F938F937F936F930E941C20E4EEFE
:103DC000F0E00E94A21F0E94761D2F913F914F911B
:103DD0005F910E94051DDD2351F09058A2EA2AED63
:103DE0003FE049EC5FE3D0785D270E94331EDF910E
:103DF0000C94761D0E940E1F0C94761D0E946F1D60
:103E000058F00E94681D40F029F45F3F29F00C949F
:103E10005F1D51110C94AA1D0C94651D0E94871DF5
:103E200068F39923B1F3552391F3951B550BBB27E9
:103E3000AA2762177307840738F09F5F5F4F220F2E
:103E4000331F441FAA1FA9F335D00E2E3AF0E0E825
:103E500032D091505040E695001CCAF72BD0FE2F6F
:103E600029D0660F771F881FBB1F26173707480703
:103E7000AB07B0E809F0BB0B802DBF01FF279358BB
:103E80005F4F3AF09E3F510578F00C945F1D0C9403
:103E9000AA1D5F3FE4F3983ED4F386957795679526
:103EA000B795F7959F5FC9F7880F911D96958795F0
:103EB00097F90895E1E0660F771F881FBB1F62170F
:103EC00073078407BA0720F0621B730B840BBA0BCD
:103ED000EE1F88F7E09508950E94731F6894B11152
:103EE0000C94AA1D08950E948F1D88F09F5798F08A
:103EF000B92F9927B751B0F0E1F0660F771F881FEF
:103F0000991F1AF0BA95C9F714C0B13091F00E9408
:103F1000A91DB1E008950C94A91D672F782F88275B
:103F2000B85F39F0B93FCCF3869577956795B3952F
:103F3000D9F73EF490958095709561957F4F8F4F9E
:103F40009F4F0895DF93CF931F930F93FF92EF92AC
:103F5000DF927B018C01689406C0DA2EEF010E948B
:103F6000051DFE01E894A591259135914591559146
:103F7000A6F3EF010E94331EFE019701A801DA9417
:103F800069F7DF90EF90FF900F911F91CF91DF9134
:103F900008950E94CE1C08F48FEF08959B01AC0198
:103FA00060E070E080E89FE30C94FA1E19F416F4C8
:103FB0000C94651D0C9420200E948F1DB8F399234A
:103FC000C9F3B6F39F57550B87FF0E942E2000249C
:103FD000A0E640EA900180585695979528F4805CB9
:103FE000660F771F881F20F026173707480730F421
:103FF000621B730B840B202931294A2BA695179439
:104000000794202531254A2758F7660F771F881F08
:1040100020F026173707480730F4620B730B840B28
:10402000200D311D411DA09581F7B901842F9158B4
:10403000880F9695879508959B01AC010C94F21C0E
:104040009F3F31F0915020F4879577956795B7950C
:10405000880F911D9695879597F908959150504036
:10406000660F771F881FD2F70895991B79E004C067
:10407000991F961708F0961B881F7A95C9F78095A7
:10408000089597FB072E16F4009407D077FD09D00A
:104090000E945D2007FC05D03EF4909581959F4FCE
:1040A0000895709561957F4F0895EE0FFF1F881F4B
:1040B0008BBF0790F691E02D1994AA1BBB1B51E111
:1040C00007C0AA1FBB1FA617B70710F0A61BB70B88
:1040D000881F991F5A95A9F780959095BC01CD012D
:1040E000089511E0C3E8D1E000E006C0802FFE0192
:1040F0000E9455202196011DC438D10780E0080791
:06410000A9F7F894FFCFBF
:10410600FF28008A029001960064008A022602C8EF
:10411600006E0090019600E803000000008503EFA2
:10412600021C03ED034D032B033F030000000016A2
:1041360006E9054506BF05E205CF05C0050D0A00DF
:10414600537562696E646F20476172726100446FD5
:104156006E65210A002A53656E736F722030312016
:10416600446972696574612A004C75783A200020AA
:104176002D2000523A2000473A2000423A200043C0
:104186003A20002A53656E736F72203032204573D1
:104196007175657264612A002D2D2D4469666572FC
:1041A600656EC3A7612045737175657264612D2DB7
:1041B6002D0047202D2052203D200047202D204253
:1041C600203D20002D2D2D4469666572656EC3A7BE
:1041D6006120446972656974612D2D2D0046656301
:1041E60068616E646F204761727261004162726934
:1041F6006E646F2047617272610044657363656E19
:10420600646F2047617272610046656368616E641F
:0C4216006F204761727261205632000078
:00000001FF
